{
  "_format": "hh-sol-artifact-1",
  "contractName": "InternalProject",
  "sourceName": "contracts/Project/Department.sol",
  "abi": [
    {
      "inputs": [
        {
          "internalType": "address",
          "name": "_sourceAddress",
          "type": "address"
        },
        {
          "internalType": "address payable",
          "name": "_teamLead",
          "type": "address"
        },
        {
          "internalType": "address",
          "name": "repTokenAddress",
          "type": "address"
        },
        {
          "internalType": "address",
          "name": "paymentTokenAddress",
          "type": "address"
        },
        {
          "internalType": "address",
          "name": "_votingAddress",
          "type": "address"
        },
        {
          "internalType": "uint256",
          "name": "_votingDuration",
          "type": "uint256"
        },
        {
          "internalType": "uint256",
          "name": "_paymentInterval",
          "type": "uint256"
        },
        {
          "internalType": "uint256",
          "name": "_requestedAmount",
          "type": "uint256"
        }
      ],
      "stateMutability": "nonpayable",
      "type": "constructor"
    },
    {
      "anonymous": false,
      "inputs": [],
      "name": "PayrollRosterSubmitted",
      "type": "event"
    },
    {
      "inputs": [
        {
          "internalType": "address",
          "name": "",
          "type": "address"
        }
      ],
      "name": "_preferredRepSplitting",
      "outputs": [
        {
          "internalType": "uint16",
          "name": "",
          "type": "uint16"
        }
      ],
      "stateMutability": "view",
      "type": "function"
    },
    {
      "inputs": [
        {
          "internalType": "uint16",
          "name": "_optionIndex",
          "type": "uint16"
        }
      ],
      "name": "_setRepSplittingOption",
      "outputs": [],
      "stateMutability": "nonpayable",
      "type": "function"
    },
    {
      "inputs": [
        {
          "internalType": "uint32",
          "name": "_rep",
          "type": "uint32"
        },
        {
          "internalType": "uint32",
          "name": "_pay",
          "type": "uint32"
        }
      ],
      "name": "addRepSplittingOption",
      "outputs": [],
      "stateMutability": "nonpayable",
      "type": "function"
    },
    {
      "inputs": [
        {
          "internalType": "uint256",
          "name": "",
          "type": "uint256"
        }
      ],
      "name": "amounts",
      "outputs": [
        {
          "internalType": "uint256",
          "name": "",
          "type": "uint256"
        }
      ],
      "stateMutability": "view",
      "type": "function"
    },
    {
      "inputs": [],
      "name": "freeze",
      "outputs": [],
      "stateMutability": "nonpayable",
      "type": "function"
    },
    {
      "inputs": [],
      "name": "funds",
      "outputs": [
        {
          "internalType": "uint256",
          "name": "",
          "type": "uint256"
        }
      ],
      "stateMutability": "view",
      "type": "function"
    },
    {
      "inputs": [],
      "name": "numberOfVotes",
      "outputs": [
        {
          "internalType": "uint256",
          "name": "",
          "type": "uint256"
        }
      ],
      "stateMutability": "view",
      "type": "function"
    },
    {
      "inputs": [],
      "name": "pay",
      "outputs": [],
      "stateMutability": "nonpayable",
      "type": "function"
    },
    {
      "inputs": [
        {
          "internalType": "uint256",
          "name": "",
          "type": "uint256"
        }
      ],
      "name": "payees",
      "outputs": [
        {
          "internalType": "address payable",
          "name": "",
          "type": "address"
        }
      ],
      "stateMutability": "view",
      "type": "function"
    },
    {
      "inputs": [],
      "name": "paymentInterval",
      "outputs": [
        {
          "internalType": "uint256",
          "name": "",
          "type": "uint256"
        }
      ],
      "stateMutability": "view",
      "type": "function"
    },
    {
      "inputs": [],
      "name": "paymentToken",
      "outputs": [
        {
          "internalType": "contract IERC20",
          "name": "",
          "type": "address"
        }
      ],
      "stateMutability": "view",
      "type": "function"
    },
    {
      "inputs": [],
      "name": "projectType",
      "outputs": [
        {
          "internalType": "enum InternalProject.ProjectType",
          "name": "",
          "type": "uint8"
        }
      ],
      "stateMutability": "view",
      "type": "function"
    },
    {
      "inputs": [],
      "name": "registerVote",
      "outputs": [],
      "stateMutability": "nonpayable",
      "type": "function"
    },
    {
      "inputs": [
        {
          "internalType": "uint256",
          "name": "",
          "type": "uint256"
        }
      ],
      "name": "repAmounts",
      "outputs": [
        {
          "internalType": "uint256",
          "name": "",
          "type": "uint256"
        }
      ],
      "stateMutability": "view",
      "type": "function"
    },
    {
      "inputs": [
        {
          "internalType": "uint256",
          "name": "",
          "type": "uint256"
        }
      ],
      "name": "repSplittingOptions",
      "outputs": [
        {
          "internalType": "uint32",
          "name": "rep",
          "type": "uint32"
        },
        {
          "internalType": "uint32",
          "name": "pay",
          "type": "uint32"
        }
      ],
      "stateMutability": "view",
      "type": "function"
    },
    {
      "inputs": [],
      "name": "repToken",
      "outputs": [
        {
          "internalType": "contract IRepToken",
          "name": "",
          "type": "address"
        }
      ],
      "stateMutability": "view",
      "type": "function"
    },
    {
      "inputs": [],
      "name": "source",
      "outputs": [
        {
          "internalType": "contract ISource",
          "name": "",
          "type": "address"
        }
      ],
      "stateMutability": "view",
      "type": "function"
    },
    {
      "inputs": [],
      "name": "startingTime",
      "outputs": [
        {
          "internalType": "uint256",
          "name": "",
          "type": "uint256"
        }
      ],
      "stateMutability": "view",
      "type": "function"
    },
    {
      "inputs": [],
      "name": "status",
      "outputs": [
        {
          "internalType": "enum InternalProject.ProjectStatus",
          "name": "",
          "type": "uint8"
        }
      ],
      "stateMutability": "view",
      "type": "function"
    },
    {
      "inputs": [
        {
          "internalType": "address payable[]",
          "name": "_payees",
          "type": "address[]"
        },
        {
          "internalType": "uint256[]",
          "name": "_amounts",
          "type": "uint256[]"
        },
        {
          "internalType": "uint256[]",
          "name": "_repAmounts",
          "type": "uint256[]"
        }
      ],
      "name": "submitPayrollRoster",
      "outputs": [],
      "stateMutability": "nonpayable",
      "type": "function"
    },
    {
      "inputs": [],
      "name": "teamLead",
      "outputs": [
        {
          "internalType": "address payable",
          "name": "",
          "type": "address"
        }
      ],
      "stateMutability": "view",
      "type": "function"
    },
    {
      "inputs": [],
      "name": "unfreeze",
      "outputs": [],
      "stateMutability": "nonpayable",
      "type": "function"
    },
    {
      "inputs": [
        {
          "internalType": "bool",
          "name": "decision",
          "type": "bool"
        }
      ],
      "name": "voteOnProject",
      "outputs": [
        {
          "internalType": "bool",
          "name": "",
          "type": "bool"
        }
      ],
      "stateMutability": "nonpayable",
      "type": "function"
    },
    {
      "inputs": [],
      "name": "votes_against",
      "outputs": [
        {
          "internalType": "uint256",
          "name": "",
          "type": "uint256"
        }
      ],
      "stateMutability": "view",
      "type": "function"
    },
    {
      "inputs": [],
      "name": "votes_pro",
      "outputs": [
        {
          "internalType": "uint256",
          "name": "",
          "type": "uint256"
        }
      ],
      "stateMutability": "view",
      "type": "function"
    },
    {
      "inputs": [],
      "name": "voting",
      "outputs": [
        {
          "internalType": "contract IVoting",
          "name": "",
          "type": "address"
        }
      ],
      "stateMutability": "view",
      "type": "function"
    },
    {
      "inputs": [],
      "name": "votingDuration",
      "outputs": [
        {
          "internalType": "uint256",
          "name": "",
          "type": "uint256"
        }
      ],
      "stateMutability": "view",
      "type": "function"
    },
    {
      "inputs": [],
      "name": "withdraw",
      "outputs": [],
      "stateMutability": "nonpayable",
      "type": "function"
    }
  ],
  "bytecode": "0x60806040526103e86013553480156200001757600080fd5b5060405162002a9d38038062002a9d83398181016040528101906200003d9190620003f7565b816009819055508060118190555060008060006101000a81548160ff0219169083600481111562000073576200007262000512565b5b021790555086601260006101000a81548173ffffffffffffffffffffffffffffffffffffffff021916908373ffffffffffffffffffffffffffffffffffffffff160217905550600f601260009054906101000a900473ffffffffffffffffffffffffffffffffffffffff169080600181540180825580915050600190039060005260206000200160009091909190916101000a81548173ffffffffffffffffffffffffffffffffffffffff021916908373ffffffffffffffffffffffffffffffffffffffff160217905550600160106000601260009054906101000a900473ffffffffffffffffffffffffffffffffffffffff1673ffffffffffffffffffffffffffffffffffffffff1673ffffffffffffffffffffffffffffffffffffffff16815260200190815260200160002060006101000a81548160ff02191690831515021790555087600260006101000a81548173ffffffffffffffffffffffffffffffffffffffff021916908373ffffffffffffffffffffffffffffffffffffffff16021790555085600160006101000a81548173ffffffffffffffffffffffffffffffffffffffff021916908373ffffffffffffffffffffffffffffffffffffffff16021790555084600360006101000a81548173ffffffffffffffffffffffffffffffffffffffff021916908373ffffffffffffffffffffffffffffffffffffffff160217905550426004819055508260058190555083600060026101000a81548173ffffffffffffffffffffffffffffffffffffffff021916908373ffffffffffffffffffffffffffffffffffffffff160217905550620002de6101f4806200031660201b60201c565b620002f360fa6102ee6200031660201b60201c565b6200030860006103e86200031660201b60201c565b505050505050505062000594565b600d60405180604001604052808463ffffffff1681526020018363ffffffff168152509080600181540180825580915050600190039060005260206000200160009091909190915060008201518160000160006101000a81548163ffffffff021916908363ffffffff16021790555060208201518160000160046101000a81548163ffffffff021916908363ffffffff16021790555050505050565b600081519050620003c38162000546565b92915050565b600081519050620003da8162000560565b92915050565b600081519050620003f1816200057a565b92915050565b600080600080600080600080610100898b0312156200041b576200041a62000541565b5b60006200042b8b828c01620003b2565b98505060206200043e8b828c01620003c9565b9750506040620004518b828c01620003b2565b9650506060620004648b828c01620003b2565b9550506080620004778b828c01620003b2565b94505060a06200048a8b828c01620003e0565b93505060c06200049d8b828c01620003e0565b92505060e0620004b08b828c01620003e0565b9150509295985092959890939650565b6000620004cd82620004e8565b9050919050565b6000620004e182620004e8565b9050919050565b600073ffffffffffffffffffffffffffffffffffffffff82169050919050565b6000819050919050565b7f4e487b7100000000000000000000000000000000000000000000000000000000600052602160045260246000fd5b600080fd5b6200055181620004c0565b81146200055d57600080fd5b50565b6200056b81620004d4565b81146200057757600080fd5b50565b620005858162000508565b81146200059157600080fd5b50565b6124f980620005a46000396000f3fe608060405234801561001057600080fd5b50600436106101c45760003560e01c806345f0a44f116100f95780638f38b66b11610097578063c89f2ce411610071578063c89f2ce41461049e578063ceff52b6146104bc578063f4f0b4a8146104d8578063fce1ccca146104f6576101c4565b80638f38b66b14610434578063a59693e214610450578063c2fc0d2614610480576101c4565b806362a5af3b116100d357806362a5af3b146103d257806363037b0c146103dc57806367e828bf1461040c5780636a28f0001461042a576101c4565b806345f0a44f14610355578063550014a7146103855780635f3e9978146103b6576101c4565b8063200d2ed211610166578063359d393d11610140578063359d393d146102f157806339518b5e1461030f57806339d5d1261461032d5780633ccfd60b1461034b576101c4565b8063200d2ed21461029757806329034a5c146102b55780633013ce29146102d3576101c4565b8063132002fc116101a2578063132002fc1461024757806318ad3c92146102655780631b9265b81461026f5780631cc1cf4614610279576101c4565b806305b3142b146101c95780630dff5008146101f95780630e7d490d14610229575b600080fd5b6101e360048036038101906101de91906119ca565b610514565b6040516101f09190611e90565b60405180910390f35b610213600480360381019061020e9190611a9e565b610535565b6040516102209190611d73565b60405180910390f35b6102316107ec565b60405161023e9190611eab565b60405180910390f35b61024f6107f2565b60405161025c9190611eab565b60405180910390f35b61026d6107f8565b005b6102776109cd565b005b610281610d48565b60405161028e9190611eab565b60405180910390f35b61029f610d4e565b6040516102ac9190611dfa565b60405180910390f35b6102bd610d5f565b6040516102ca9190611da9565b60405180910390f35b6102db610d85565b6040516102e89190611d8e565b60405180910390f35b6102f9610dab565b6040516103069190611eab565b60405180910390f35b610317610db1565b6040516103249190611eab565b60405180910390f35b610335610db7565b6040516103429190611eab565b60405180910390f35b610353610dbd565b005b61036f600480360381019061036a9190611b25565b610f95565b60405161037c9190611eab565b60405180910390f35b61039f600480360381019061039a9190611b25565b610fb9565b6040516103ad929190611ec6565b60405180910390f35b6103d060048036038101906103cb9190611af8565b611009565b005b6103da611066565b005b6103f660048036038101906103f19190611b25565b611068565b6040516104039190611d06565b60405180910390f35b6104146110a7565b6040516104219190611dc4565b60405180910390f35b6104326110cd565b005b61044e60048036038101906104499190611b7f565b6110cf565b005b61046a60048036038101906104659190611b25565b61118c565b6040516104779190611eab565b60405180910390f35b6104886111b0565b6040516104959190611e15565b60405180910390f35b6104a66111c3565b6040516104b39190611eab565b60405180910390f35b6104d660048036038101906104d191906119f7565b6111c9565b005b6104e06114bf565b6040516104ed9190611d06565b60405180910390f35b6104fe6114e5565b60405161050b9190611ddf565b60405180910390f35b600e6020528060005260406000206000915054906101000a900461ffff1681565b600080600554600454426105499190612098565b11905060006002600160009054906101000a900473ffffffffffffffffffffffffffffffffffffffff1673ffffffffffffffffffffffffffffffffffffffff166318160ddd6040518163ffffffff1660e01b815260040160206040518083038186803b1580156105b857600080fd5b505afa1580156105cc573d6000803e3d6000fd5b505050506040513d601f19601f820116820180604052508101906105f09190611b52565b6105fa919061200d565b60065411806106b557506002600160009054906101000a900473ffffffffffffffffffffffffffffffffffffffff1673ffffffffffffffffffffffffffffffffffffffff166318160ddd6040518163ffffffff1660e01b815260040160206040518083038186803b15801561066e57600080fd5b505afa158015610682573d6000803e3d6000fd5b505050506040513d601f19601f820116820180604052508101906106a69190611b52565b6106b0919061200d565b600754115b905081806106c05750805b156106d8576106cd61150b565b6000925050506107e7565b6000600160009054906101000a900473ffffffffffffffffffffffffffffffffffffffff1673ffffffffffffffffffffffffffffffffffffffff166370a08231336040518263ffffffff1660e01b81526004016107359190611ceb565b60206040518083038186803b15801561074d57600080fd5b505afa158015610761573d6000803e3d6000fd5b505050506040513d601f19601f820116820180604052508101906107859190611b52565b905084156107ab57806006600082825461079f9190611f7d565b925050819055506107c5565b80600760008282546107bd9190611f7d565b925050819055505b6001600860008282546107d89190611f7d565b92505081905550600193505050505b919050565b60085481565b60055481565b60006005546004544261080b9190612098565b11905060006002600160009054906101000a900473ffffffffffffffffffffffffffffffffffffffff1673ffffffffffffffffffffffffffffffffffffffff166318160ddd6040518163ffffffff1660e01b815260040160206040518083038186803b15801561087a57600080fd5b505afa15801561088e573d6000803e3d6000fd5b505050506040513d601f19601f820116820180604052508101906108b29190611b52565b6108bc919061200d565b600654118061097757506002600160009054906101000a900473ffffffffffffffffffffffffffffffffffffffff1673ffffffffffffffffffffffffffffffffffffffff166318160ddd6040518163ffffffff1660e01b815260040160206040518083038186803b15801561093057600080fd5b505afa158015610944573d6000803e3d6000fd5b505050506040513d601f19601f820116820180604052508101906109689190611b52565b610972919061200d565b600754115b905081806109825750805b6109c1576040517f08c379a00000000000000000000000000000000000000000000000000000000081526004016109b890611e30565b60405180910390fd5b6109c961150b565b5050565b600260009054906101000a900473ffffffffffffffffffffffffffffffffffffffff1673ffffffffffffffffffffffffffffffffffffffff163373ffffffffffffffffffffffffffffffffffffffff1614610a2757600080fd5b60005b600a80549050811015610c9957600360009054906101000a900473ffffffffffffffffffffffffffffffffffffffff1673ffffffffffffffffffffffffffffffffffffffff1663a9059cbb600a8381548110610a8957610a88612313565b5b9060005260206000200160009054906101000a900473ffffffffffffffffffffffffffffffffffffffff16600b8481548110610ac857610ac7612313565b5b90600052602060002001546040518363ffffffff1660e01b8152600401610af0929190611d21565b602060405180830381600087803b158015610b0a57600080fd5b505af1158015610b1e573d6000803e3d6000fd5b505050506040513d601f19601f82011682018060405250810190610b429190611acb565b50600160009054906101000a900473ffffffffffffffffffffffffffffffffffffffff1673ffffffffffffffffffffffffffffffffffffffff1663a9059cbb600a8381548110610b9557610b94612313565b5b9060005260206000200160009054906101000a900473ffffffffffffffffffffffffffffffffffffffff16600c8481548110610bd457610bd3612313565b5b90600052602060002001546040518363ffffffff1660e01b8152600401610bfc929190611d21565b602060405180830381600087803b158015610c1657600080fd5b505af1158015610c2a573d6000803e3d6000fd5b505050506040513d601f19601f82011682018060405250810190610c4e9190611acb565b50600b8181548110610c6357610c62612313565b5b906000526020600020015460116000828254610c7f9190612098565b925050819055508080610c919061223d565b915050610a2a565b50600260009054906101000a900473ffffffffffffffffffffffffffffffffffffffff1673ffffffffffffffffffffffffffffffffffffffff1663360610816040518163ffffffff1660e01b8152600401600060405180830381600087803b158015610d0457600080fd5b505af1158015610d18573d6000803e3d6000fd5b50505050600a6000610d2a91906116b0565b600b6000610d3891906116d1565b600c6000610d4691906116d1565b565b60095481565b60008054906101000a900460ff1681565b600160009054906101000a900473ffffffffffffffffffffffffffffffffffffffff1681565b600360009054906101000a900473ffffffffffffffffffffffffffffffffffffffff1681565b60075481565b60045481565b60065481565b600260009054906101000a900473ffffffffffffffffffffffffffffffffffffffff1673ffffffffffffffffffffffffffffffffffffffff163373ffffffffffffffffffffffffffffffffffffffff1614610e1757600080fd5b600360009054906101000a900473ffffffffffffffffffffffffffffffffffffffff1673ffffffffffffffffffffffffffffffffffffffff1663a9059cbb600260009054906101000a900473ffffffffffffffffffffffffffffffffffffffff16600360009054906101000a900473ffffffffffffffffffffffffffffffffffffffff1673ffffffffffffffffffffffffffffffffffffffff166370a08231306040518263ffffffff1660e01b8152600401610ed39190611ceb565b60206040518083038186803b158015610eeb57600080fd5b505afa158015610eff573d6000803e3d6000fd5b505050506040513d601f19601f82011682018060405250810190610f239190611b52565b6040518363ffffffff1660e01b8152600401610f40929190611d4a565b602060405180830381600087803b158015610f5a57600080fd5b505af1158015610f6e573d6000803e3d6000fd5b505050506040513d601f19601f82011682018060405250810190610f929190611acb565b50565b600b8181548110610fa557600080fd5b906000526020600020016000915090505481565b600d8181548110610fc957600080fd5b906000526020600020016000915090508060000160009054906101000a900463ffffffff16908060000160049054906101000a900463ffffffff16905082565b80600e60003373ffffffffffffffffffffffffffffffffffffffff1673ffffffffffffffffffffffffffffffffffffffff16815260200190815260200160002060006101000a81548161ffff021916908361ffff16021790555050565b565b600a818154811061107857600080fd5b906000526020600020016000915054906101000a900473ffffffffffffffffffffffffffffffffffffffff1681565b600260009054906101000a900473ffffffffffffffffffffffffffffffffffffffff1681565b565b601260009054906101000a900473ffffffffffffffffffffffffffffffffffffffff1673ffffffffffffffffffffffffffffffffffffffff163373ffffffffffffffffffffffffffffffffffffffff161461112957600080fd5b60135481836111389190611fd3565b63ffffffff161461117e576040517f08c379a000000000000000000000000000000000000000000000000000000000815260040161117590611e70565b60405180910390fd5b6111888282611614565b5050565b600c818154811061119c57600080fd5b906000526020600020016000915090505481565b600060019054906101000a900460ff1681565b60115481565b601260009054906101000a900473ffffffffffffffffffffffffffffffffffffffff1673ffffffffffffffffffffffffffffffffffffffff163373ffffffffffffffffffffffffffffffffffffffff16148015611227575081518351145b61123057600080fd5b60046003600954611241919061203e565b61124b919061200d565b600260009054906101000a900473ffffffffffffffffffffffffffffffffffffffff1673ffffffffffffffffffffffffffffffffffffffff16631c0701df6040518163ffffffff1660e01b8152600401602060405180830381600087803b1580156112b557600080fd5b505af11580156112c9573d6000803e3d6000fd5b505050506040513d601f19601f820116820180604052508101906112ed9190611b52565b426112f89190612098565b1061130257600080fd5b60008060005b85518110156113745784818151811061132457611323612313565b5b6020026020010151836113379190611f7d565b925083818151811061134c5761134b612313565b5b60200260200101518261135f9190611f7d565b9150808061136c9061223d565b915050611308565b506011548211156113ba576040517f08c379a00000000000000000000000000000000000000000000000000000000081526004016113b190611e50565b60405180910390fd5b600260009054906101000a900473ffffffffffffffffffffffffffffffffffffffff1673ffffffffffffffffffffffffffffffffffffffff166382d6ddff826040518263ffffffff1660e01b81526004016114159190611eab565b600060405180830381600087803b15801561142f57600080fd5b505af1158015611443573d6000803e3d6000fd5b5050505084600a908051906020019061145d9291906116f2565b5083600b908051906020019061147492919061177c565b5082600c908051906020019061148b92919061177c565b507f3c3310c1ef683c833d748aaef5ca6ac91aadd9b4bf0561667faf9261a4f593d760405160405180910390a15050505050565b601260009054906101000a900473ffffffffffffffffffffffffffffffffffffffff1681565b600060029054906101000a900473ffffffffffffffffffffffffffffffffffffffff1681565b6007546006541161151d576004611520565b60015b6000806101000a81548160ff02191690836004811115611543576115426122e4565b5b02179055506001600481111561155c5761155b6122e4565b5b60008054906101000a900460ff16600481111561157c5761157b6122e4565b5b141561161257600260009054906101000a900473ffffffffffffffffffffffffffffffffffffffff1673ffffffffffffffffffffffffffffffffffffffff166312514bba6011546040518263ffffffff1660e01b81526004016115df9190611eab565b600060405180830381600087803b1580156115f957600080fd5b505af115801561160d573d6000803e3d6000fd5b505050505b565b600d60405180604001604052808463ffffffff1681526020018363ffffffff168152509080600181540180825580915050600190039060005260206000200160009091909190915060008201518160000160006101000a81548163ffffffff021916908363ffffffff16021790555060208201518160000160046101000a81548163ffffffff021916908363ffffffff16021790555050505050565b50805460008255906000526020600020908101906116ce91906117c9565b50565b50805460008255906000526020600020908101906116ef91906117c9565b50565b82805482825590600052602060002090810192821561176b579160200282015b8281111561176a5782518260006101000a81548173ffffffffffffffffffffffffffffffffffffffff021916908373ffffffffffffffffffffffffffffffffffffffff16021790555091602001919060010190611712565b5b50905061177891906117c9565b5090565b8280548282559060005260206000209081019282156117b8579160200282015b828111156117b757825182559160200191906001019061179c565b5b5090506117c591906117c9565b5090565b5b808211156117e25760008160009055506001016117ca565b5090565b60006117f96117f484611f14565b611eef565b9050808382526020820190508285602086028201111561181c5761181b612376565b5b60005b8581101561184c578161183288826118db565b84526020840193506020830192505060018101905061181f565b5050509392505050565b600061186961186484611f40565b611eef565b9050808382526020820190508285602086028201111561188c5761188b612376565b5b60005b858110156118bc57816118a2888261198b565b84526020840193506020830192505060018101905061188f565b5050509392505050565b6000813590506118d581612439565b92915050565b6000813590506118ea81612450565b92915050565b600082601f83011261190557611904612371565b5b81356119158482602086016117e6565b91505092915050565b600082601f83011261193357611932612371565b5b8135611943848260208601611856565b91505092915050565b60008135905061195b81612467565b92915050565b60008151905061197081612467565b92915050565b6000813590506119858161247e565b92915050565b60008135905061199a81612495565b92915050565b6000815190506119af81612495565b92915050565b6000813590506119c4816124ac565b92915050565b6000602082840312156119e0576119df612380565b5b60006119ee848285016118c6565b91505092915050565b600080600060608486031215611a1057611a0f612380565b5b600084013567ffffffffffffffff811115611a2e57611a2d61237b565b5b611a3a868287016118f0565b935050602084013567ffffffffffffffff811115611a5b57611a5a61237b565b5b611a678682870161191e565b925050604084013567ffffffffffffffff811115611a8857611a8761237b565b5b611a948682870161191e565b9150509250925092565b600060208284031215611ab457611ab3612380565b5b6000611ac28482850161194c565b91505092915050565b600060208284031215611ae157611ae0612380565b5b6000611aef84828501611961565b91505092915050565b600060208284031215611b0e57611b0d612380565b5b6000611b1c84828501611976565b91505092915050565b600060208284031215611b3b57611b3a612380565b5b6000611b498482850161198b565b91505092915050565b600060208284031215611b6857611b67612380565b5b6000611b76848285016119a0565b91505092915050565b60008060408385031215611b9657611b95612380565b5b6000611ba4858286016119b5565b9250506020611bb5858286016119b5565b9150509250929050565b611bc88161216a565b82525050565b611bd7816120de565b82525050565b611be6816120cc565b82525050565b611bf5816120f0565b82525050565b611c048161217c565b82525050565b611c138161218e565b82525050565b611c22816121a0565b82525050565b611c31816121b2565b82525050565b611c40816121c4565b82525050565b611c4f816121d6565b82525050565b6000611c62601783611f6c565b9150611c6d82612396565b602082019050919050565b6000611c85601c83611f6c565b9150611c90826123bf565b602082019050919050565b6000611ca8600d83611f6c565b9150611cb3826123e8565b602082019050919050565b611cc781612122565b82525050565b611cd681612150565b82525050565b611ce58161215a565b82525050565b6000602082019050611d006000830184611bdd565b92915050565b6000602082019050611d1b6000830184611bce565b92915050565b6000604082019050611d366000830185611bbf565b611d436020830184611ccd565b9392505050565b6000604082019050611d5f6000830185611bdd565b611d6c6020830184611ccd565b9392505050565b6000602082019050611d886000830184611bec565b92915050565b6000602082019050611da36000830184611bfb565b92915050565b6000602082019050611dbe6000830184611c0a565b92915050565b6000602082019050611dd96000830184611c19565b92915050565b6000602082019050611df46000830184611c28565b92915050565b6000602082019050611e0f6000830184611c37565b92915050565b6000602082019050611e2a6000830184611c46565b92915050565b60006020820190508181036000830152611e4981611c55565b9050919050565b60006020820190508181036000830152611e6981611c78565b9050919050565b60006020820190508181036000830152611e8981611c9b565b9050919050565b6000602082019050611ea56000830184611cbe565b92915050565b6000602082019050611ec06000830184611ccd565b92915050565b6000604082019050611edb6000830185611cdc565b611ee86020830184611cdc565b9392505050565b6000611ef9611f0a565b9050611f05828261220c565b919050565b6000604051905090565b600067ffffffffffffffff821115611f2f57611f2e612342565b5b602082029050602081019050919050565b600067ffffffffffffffff821115611f5b57611f5a612342565b5b602082029050602081019050919050565b600082825260208201905092915050565b6000611f8882612150565b9150611f9383612150565b9250827fffffffffffffffffffffffffffffffffffffffffffffffffffffffffffffffff03821115611fc857611fc7612286565b5b828201905092915050565b6000611fde8261215a565b9150611fe98361215a565b92508263ffffffff0382111561200257612001612286565b5b828201905092915050565b600061201882612150565b915061202383612150565b925082612033576120326122b5565b5b828204905092915050565b600061204982612150565b915061205483612150565b9250817fffffffffffffffffffffffffffffffffffffffffffffffffffffffffffffffff048311821515161561208d5761208c612286565b5b828202905092915050565b60006120a382612150565b91506120ae83612150565b9250828210156120c1576120c0612286565b5b828203905092915050565b60006120d782612130565b9050919050565b60006120e982612130565b9050919050565b60008115159050919050565b600081905061210a82612411565b919050565b600081905061211d82612425565b919050565b600061ffff82169050919050565b600073ffffffffffffffffffffffffffffffffffffffff82169050919050565b6000819050919050565b600063ffffffff82169050919050565b6000612175826121e8565b9050919050565b6000612187826121e8565b9050919050565b6000612199826121e8565b9050919050565b60006121ab826121e8565b9050919050565b60006121bd826121e8565b9050919050565b60006121cf826120fc565b9050919050565b60006121e18261210f565b9050919050565b60006121f3826121fa565b9050919050565b600061220582612130565b9050919050565b61221582612385565b810181811067ffffffffffffffff8211171561223457612233612342565b5b80604052505050565b600061224882612150565b91507fffffffffffffffffffffffffffffffffffffffffffffffffffffffffffffffff82141561227b5761227a612286565b5b600182019050919050565b7f4e487b7100000000000000000000000000000000000000000000000000000000600052601160045260246000fd5b7f4e487b7100000000000000000000000000000000000000000000000000000000600052601260045260246000fd5b7f4e487b7100000000000000000000000000000000000000000000000000000000600052602160045260246000fd5b7f4e487b7100000000000000000000000000000000000000000000000000000000600052603260045260246000fd5b7f4e487b7100000000000000000000000000000000000000000000000000000000600052604160045260246000fd5b600080fd5b600080fd5b600080fd5b600080fd5b6000601f19601f8301169050919050565b7f566f74696e67206973207374696c6c206f6e676f696e67000000000000000000600082015250565b7f4e6f7420656e6f7567682066756e647320696e20636f6e747261637400000000600082015250565b7f6f76657270617920616c65727400000000000000000000000000000000000000600082015250565b60058110612422576124216122e4565b5b50565b60028110612436576124356122e4565b5b50565b612442816120cc565b811461244d57600080fd5b50565b612459816120de565b811461246457600080fd5b50565b612470816120f0565b811461247b57600080fd5b50565b61248781612122565b811461249257600080fd5b50565b61249e81612150565b81146124a957600080fd5b50565b6124b58161215a565b81146124c057600080fd5b5056fea264697066735822122032677f34bc6befd2eb4cb8e6a5ac9cbaf60ff46a3bbf90c2df690b8fcd0dc0ad64736f6c63430008070033",
  "linkReferences": {},
  "deployedLinkReferences": {}
}