{
  "_format": "hh-sol-artifact-1",
  "contractName": "InternalProject",
  "sourceName": "contracts/Project/Department.sol",
  "abi": [
    {
      "inputs": [
        {
          "internalType": "address",
          "name": "_sourceAddress",
          "type": "address"
        },
        {
          "internalType": "address payable",
          "name": "_teamLead",
          "type": "address"
        },
        {
          "internalType": "address",
          "name": "repTokenAddress",
          "type": "address"
        },
        {
          "internalType": "address",
          "name": "paymentTokenAddress",
          "type": "address"
        },
        {
          "internalType": "address",
          "name": "_votingAddress",
          "type": "address"
        },
        {
          "internalType": "uint256",
          "name": "_votingDuration",
          "type": "uint256"
        },
        {
          "internalType": "uint256",
          "name": "_paymentInterval",
          "type": "uint256"
        },
        {
          "internalType": "uint256",
          "name": "_requestedAmount",
          "type": "uint256"
        }
      ],
      "stateMutability": "nonpayable",
      "type": "constructor"
    },
    {
      "anonymous": false,
      "inputs": [],
      "name": "PayrollRosterSubmitted",
      "type": "event"
    },
    {
      "inputs": [
        {
          "internalType": "address",
          "name": "",
          "type": "address"
        }
      ],
      "name": "_preferredRepSplitting",
      "outputs": [
        {
          "internalType": "uint16",
          "name": "",
          "type": "uint16"
        }
      ],
      "stateMutability": "view",
      "type": "function"
    },
    {
      "inputs": [
        {
          "internalType": "uint16",
          "name": "_optionIndex",
          "type": "uint16"
        }
      ],
      "name": "_setRepSplittingOption",
      "outputs": [],
      "stateMutability": "nonpayable",
      "type": "function"
    },
    {
      "inputs": [
        {
          "internalType": "uint32",
          "name": "_rep",
          "type": "uint32"
        },
        {
          "internalType": "uint32",
          "name": "_pay",
          "type": "uint32"
        }
      ],
      "name": "addRepSplittingOption",
      "outputs": [],
      "stateMutability": "nonpayable",
      "type": "function"
    },
    {
      "inputs": [
        {
          "internalType": "uint256",
          "name": "",
          "type": "uint256"
        }
      ],
      "name": "amounts",
      "outputs": [
        {
          "internalType": "uint256",
          "name": "",
          "type": "uint256"
        }
      ],
      "stateMutability": "view",
      "type": "function"
    },
    {
      "inputs": [],
      "name": "freeze",
      "outputs": [],
      "stateMutability": "nonpayable",
      "type": "function"
    },
    {
      "inputs": [],
      "name": "funds",
      "outputs": [
        {
          "internalType": "uint256",
          "name": "",
          "type": "uint256"
        }
      ],
      "stateMutability": "view",
      "type": "function"
    },
    {
      "inputs": [],
      "name": "numberOfVotes",
      "outputs": [
        {
          "internalType": "uint256",
          "name": "",
          "type": "uint256"
        }
      ],
      "stateMutability": "view",
      "type": "function"
    },
    {
      "inputs": [],
      "name": "pay",
      "outputs": [
        {
          "internalType": "uint256",
          "name": "totalPaymentValue",
          "type": "uint256"
        },
        {
          "internalType": "uint256",
          "name": "totalRepValue",
          "type": "uint256"
        }
      ],
      "stateMutability": "nonpayable",
      "type": "function"
    },
    {
      "inputs": [
        {
          "internalType": "uint256",
          "name": "",
          "type": "uint256"
        }
      ],
      "name": "payees",
      "outputs": [
        {
          "internalType": "address payable",
          "name": "",
          "type": "address"
        }
      ],
      "stateMutability": "view",
      "type": "function"
    },
    {
      "inputs": [],
      "name": "paymentInterval",
      "outputs": [
        {
          "internalType": "uint256",
          "name": "",
          "type": "uint256"
        }
      ],
      "stateMutability": "view",
      "type": "function"
    },
    {
      "inputs": [],
      "name": "paymentToken",
      "outputs": [
        {
          "internalType": "contract IERC20",
          "name": "",
          "type": "address"
        }
      ],
      "stateMutability": "view",
      "type": "function"
    },
    {
      "inputs": [],
      "name": "projectType",
      "outputs": [
        {
          "internalType": "enum InternalProject.ProjectType",
          "name": "",
          "type": "uint8"
        }
      ],
      "stateMutability": "view",
      "type": "function"
    },
    {
      "inputs": [],
      "name": "registerVote",
      "outputs": [],
      "stateMutability": "nonpayable",
      "type": "function"
    },
    {
      "inputs": [
        {
          "internalType": "uint256",
          "name": "",
          "type": "uint256"
        }
      ],
      "name": "repAmounts",
      "outputs": [
        {
          "internalType": "uint256",
          "name": "",
          "type": "uint256"
        }
      ],
      "stateMutability": "view",
      "type": "function"
    },
    {
      "inputs": [
        {
          "internalType": "uint256",
          "name": "",
          "type": "uint256"
        }
      ],
      "name": "repSplittingOptions",
      "outputs": [
        {
          "internalType": "uint32",
          "name": "rep",
          "type": "uint32"
        },
        {
          "internalType": "uint32",
          "name": "pay",
          "type": "uint32"
        }
      ],
      "stateMutability": "view",
      "type": "function"
    },
    {
      "inputs": [],
      "name": "repToken",
      "outputs": [
        {
          "internalType": "contract IRepToken",
          "name": "",
          "type": "address"
        }
      ],
      "stateMutability": "view",
      "type": "function"
    },
    {
      "inputs": [],
      "name": "source",
      "outputs": [
        {
          "internalType": "contract ISource",
          "name": "",
          "type": "address"
        }
      ],
      "stateMutability": "view",
      "type": "function"
    },
    {
      "inputs": [],
      "name": "startingTime",
      "outputs": [
        {
          "internalType": "uint256",
          "name": "",
          "type": "uint256"
        }
      ],
      "stateMutability": "view",
      "type": "function"
    },
    {
      "inputs": [],
      "name": "status",
      "outputs": [
        {
          "internalType": "enum InternalProject.ProjectStatus",
          "name": "",
          "type": "uint8"
        }
      ],
      "stateMutability": "view",
      "type": "function"
    },
    {
      "inputs": [
        {
          "internalType": "address payable[]",
          "name": "_payees",
          "type": "address[]"
        },
        {
          "internalType": "uint256[]",
          "name": "_amounts",
          "type": "uint256[]"
        },
        {
          "internalType": "uint256[]",
          "name": "_repAmounts",
          "type": "uint256[]"
        }
      ],
      "name": "submitPayrollRoster",
      "outputs": [],
      "stateMutability": "nonpayable",
      "type": "function"
    },
    {
      "inputs": [],
      "name": "teamLead",
      "outputs": [
        {
          "internalType": "address payable",
          "name": "",
          "type": "address"
        }
      ],
      "stateMutability": "view",
      "type": "function"
    },
    {
      "inputs": [],
      "name": "unfreeze",
      "outputs": [],
      "stateMutability": "nonpayable",
      "type": "function"
    },
    {
      "inputs": [
        {
          "internalType": "bool",
          "name": "decision",
          "type": "bool"
        }
      ],
      "name": "voteOnProject",
      "outputs": [
        {
          "internalType": "bool",
          "name": "",
          "type": "bool"
        }
      ],
      "stateMutability": "nonpayable",
      "type": "function"
    },
    {
      "inputs": [],
      "name": "votes_against",
      "outputs": [
        {
          "internalType": "uint256",
          "name": "",
          "type": "uint256"
        }
      ],
      "stateMutability": "view",
      "type": "function"
    },
    {
      "inputs": [],
      "name": "votes_pro",
      "outputs": [
        {
          "internalType": "uint256",
          "name": "",
          "type": "uint256"
        }
      ],
      "stateMutability": "view",
      "type": "function"
    },
    {
      "inputs": [],
      "name": "voting",
      "outputs": [
        {
          "internalType": "contract IVoting",
          "name": "",
          "type": "address"
        }
      ],
      "stateMutability": "view",
      "type": "function"
    },
    {
      "inputs": [],
      "name": "votingDuration",
      "outputs": [
        {
          "internalType": "uint256",
          "name": "",
          "type": "uint256"
        }
      ],
      "stateMutability": "view",
      "type": "function"
    },
    {
      "inputs": [],
      "name": "withdraw",
      "outputs": [],
      "stateMutability": "nonpayable",
      "type": "function"
    }
  ],
  "bytecode": "0x60806040526103e8601355600060145560006015553480156200002157600080fd5b50604051620029d3380380620029d38339818101604052810190620000479190620003d7565b816009819055508060118190555060008060006101000a81548160ff021916908360048111156200007d576200007c620004f2565b5b021790555086601260006101000a81548173ffffffffffffffffffffffffffffffffffffffff021916908373ffffffffffffffffffffffffffffffffffffffff160217905550600f601260009054906101000a900473ffffffffffffffffffffffffffffffffffffffff169080600181540180825580915050600190039060005260206000200160009091909190916101000a81548173ffffffffffffffffffffffffffffffffffffffff021916908373ffffffffffffffffffffffffffffffffffffffff160217905550600160106000601260009054906101000a900473ffffffffffffffffffffffffffffffffffffffff1673ffffffffffffffffffffffffffffffffffffffff1673ffffffffffffffffffffffffffffffffffffffff16815260200190815260200160002060006101000a81548160ff02191690831515021790555087600260006101000a81548173ffffffffffffffffffffffffffffffffffffffff021916908373ffffffffffffffffffffffffffffffffffffffff16021790555085600160006101000a81548173ffffffffffffffffffffffffffffffffffffffff021916908373ffffffffffffffffffffffffffffffffffffffff16021790555084600360006101000a81548173ffffffffffffffffffffffffffffffffffffffff021916908373ffffffffffffffffffffffffffffffffffffffff160217905550426004819055508260058190555083600060026101000a81548173ffffffffffffffffffffffffffffffffffffffff021916908373ffffffffffffffffffffffffffffffffffffffff160217905550620002e86101f480620002f660201b60201c565b505050505050505062000574565b600d60405180604001604052808463ffffffff1681526020018363ffffffff168152509080600181540180825580915050600190039060005260206000200160009091909190915060008201518160000160006101000a81548163ffffffff021916908363ffffffff16021790555060208201518160000160046101000a81548163ffffffff021916908363ffffffff16021790555050505050565b600081519050620003a38162000526565b92915050565b600081519050620003ba8162000540565b92915050565b600081519050620003d1816200055a565b92915050565b600080600080600080600080610100898b031215620003fb57620003fa62000521565b5b60006200040b8b828c0162000392565b98505060206200041e8b828c01620003a9565b9750506040620004318b828c0162000392565b9650506060620004448b828c0162000392565b9550506080620004578b828c0162000392565b94505060a06200046a8b828c01620003c0565b93505060c06200047d8b828c01620003c0565b92505060e0620004908b828c01620003c0565b9150509295985092959890939650565b6000620004ad82620004c8565b9050919050565b6000620004c182620004c8565b9050919050565b600073ffffffffffffffffffffffffffffffffffffffff82169050919050565b6000819050919050565b7f4e487b7100000000000000000000000000000000000000000000000000000000600052602160045260246000fd5b600080fd5b6200053181620004a0565b81146200053d57600080fd5b50565b6200054b81620004b4565b81146200055757600080fd5b50565b6200056581620004e8565b81146200057157600080fd5b50565b61244f80620005846000396000f3fe608060405234801561001057600080fd5b50600436106101c45760003560e01c806345f0a44f116100f95780638f38b66b11610097578063c89f2ce411610071578063c89f2ce4146104b3578063ceff52b6146104d1578063f4f0b4a8146104ed578063fce1ccca1461050b576101c4565b80638f38b66b14610449578063a59693e214610465578063c2fc0d2614610495576101c4565b806362a5af3b116100d357806362a5af3b146103e757806363037b0c146103f157806367e828bf146104215780636a28f0001461043f576101c4565b806345f0a44f1461036a578063550014a71461039a5780635f3e9978146103cb576101c4565b8063200d2ed211610166578063359d393d11610140578063359d393d1461030657806339518b5e1461032457806339d5d126146103425780633ccfd60b14610360576101c4565b8063200d2ed2146102ac57806329034a5c146102ca5780633013ce29146102e8576101c4565b8063132002fc116101a2578063132002fc1461024757806318ad3c92146102655780631b9265b81461026f5780631cc1cf461461028e576101c4565b806305b3142b146101c95780630dff5008146101f95780630e7d490d14610229575b600080fd5b6101e360048036038101906101de91906118ce565b610529565b6040516101f09190611dbd565b60405180910390f35b610213600480360381019061020e91906119a2565b61054a565b6040516102209190611ca0565b60405180910390f35b610231610801565b60405161023e9190611dd8565b60405180910390f35b61024f610807565b60405161025c9190611dd8565b60405180910390f35b61026d61080d565b005b6102776109e2565b604051610285929190611df3565b60405180910390f35b610296610cd9565b6040516102a39190611dd8565b60405180910390f35b6102b4610cdf565b6040516102c19190611d27565b60405180910390f35b6102d2610cf0565b6040516102df9190611cd6565b60405180910390f35b6102f0610d16565b6040516102fd9190611cbb565b60405180910390f35b61030e610d3c565b60405161031b9190611dd8565b60405180910390f35b61032c610d42565b6040516103399190611dd8565b60405180910390f35b61034a610d48565b6040516103579190611dd8565b60405180910390f35b610368610d4e565b005b610384600480360381019061037f9190611a29565b610f26565b6040516103919190611dd8565b60405180910390f35b6103b460048036038101906103af9190611a29565b610f4a565b6040516103c2929190611e1c565b60405180910390f35b6103e560048036038101906103e091906119fc565b610f9a565b005b6103ef610ff7565b005b61040b60048036038101906104069190611a29565b610ff9565b6040516104189190611c0a565b60405180910390f35b610429611038565b6040516104369190611cf1565b60405180910390f35b61044761105e565b005b610463600480360381019061045e9190611a83565b611060565b005b61047f600480360381019061047a9190611a29565b61111d565b60405161048c9190611dd8565b60405180910390f35b61049d611141565b6040516104aa9190611d42565b60405180910390f35b6104bb611154565b6040516104c89190611dd8565b60405180910390f35b6104eb60048036038101906104e691906118fb565b61115a565b005b6104f56113c3565b6040516105029190611c0a565b60405180910390f35b6105136113e9565b6040516105209190611d0c565b60405180910390f35b600e6020528060005260406000206000915054906101000a900461ffff1681565b6000806005546004544261055e9190611fee565b11905060006002600160009054906101000a900473ffffffffffffffffffffffffffffffffffffffff1673ffffffffffffffffffffffffffffffffffffffff166318160ddd6040518163ffffffff1660e01b815260040160206040518083038186803b1580156105cd57600080fd5b505afa1580156105e1573d6000803e3d6000fd5b505050506040513d601f19601f820116820180604052508101906106059190611a56565b61060f9190611f63565b60065411806106ca57506002600160009054906101000a900473ffffffffffffffffffffffffffffffffffffffff1673ffffffffffffffffffffffffffffffffffffffff166318160ddd6040518163ffffffff1660e01b815260040160206040518083038186803b15801561068357600080fd5b505afa158015610697573d6000803e3d6000fd5b505050506040513d601f19601f820116820180604052508101906106bb9190611a56565b6106c59190611f63565b600754115b905081806106d55750805b156106ed576106e261140f565b6000925050506107fc565b6000600160009054906101000a900473ffffffffffffffffffffffffffffffffffffffff1673ffffffffffffffffffffffffffffffffffffffff166370a08231336040518263ffffffff1660e01b815260040161074a9190611bef565b60206040518083038186803b15801561076257600080fd5b505afa158015610776573d6000803e3d6000fd5b505050506040513d601f19601f8201168201806040525081019061079a9190611a56565b905084156107c05780600660008282546107b49190611ed3565b925050819055506107da565b80600760008282546107d29190611ed3565b925050819055505b6001600860008282546107ed9190611ed3565b92505081905550600193505050505b919050565b60085481565b60055481565b6000600554600454426108209190611fee565b11905060006002600160009054906101000a900473ffffffffffffffffffffffffffffffffffffffff1673ffffffffffffffffffffffffffffffffffffffff166318160ddd6040518163ffffffff1660e01b815260040160206040518083038186803b15801561088f57600080fd5b505afa1580156108a3573d6000803e3d6000fd5b505050506040513d601f19601f820116820180604052508101906108c79190611a56565b6108d19190611f63565b600654118061098c57506002600160009054906101000a900473ffffffffffffffffffffffffffffffffffffffff1673ffffffffffffffffffffffffffffffffffffffff166318160ddd6040518163ffffffff1660e01b815260040160206040518083038186803b15801561094557600080fd5b505afa158015610959573d6000803e3d6000fd5b505050506040513d601f19601f8201168201806040525081019061097d9190611a56565b6109879190611f63565b600754115b905081806109975750805b6109d6576040517f08c379a00000000000000000000000000000000000000000000000000000000081526004016109cd90611d5d565b60405180910390fd5b6109de61140f565b5050565b600080600260009054906101000a900473ffffffffffffffffffffffffffffffffffffffff1673ffffffffffffffffffffffffffffffffffffffff163373ffffffffffffffffffffffffffffffffffffffff1614610a3f57600080fd5b60005b600a80549050811015610c9057600360009054906101000a900473ffffffffffffffffffffffffffffffffffffffff1673ffffffffffffffffffffffffffffffffffffffff1663a9059cbb600a8381548110610aa157610aa0612269565b5b9060005260206000200160009054906101000a900473ffffffffffffffffffffffffffffffffffffffff16600b8481548110610ae057610adf612269565b5b90600052602060002001546040518363ffffffff1660e01b8152600401610b08929190611c4e565b602060405180830381600087803b158015610b2257600080fd5b505af1158015610b36573d6000803e3d6000fd5b505050506040513d601f19601f82011682018060405250810190610b5a91906119cf565b50600260009054906101000a900473ffffffffffffffffffffffffffffffffffffffff1673ffffffffffffffffffffffffffffffffffffffff1663bca0adcb600a8381548110610bad57610bac612269565b5b9060005260206000200160009054906101000a900473ffffffffffffffffffffffffffffffffffffffff16600c8481548110610bec57610beb612269565b5b90600052602060002001546040518363ffffffff1660e01b8152600401610c14929190611c25565b600060405180830381600087803b158015610c2e57600080fd5b505af1158015610c42573d6000803e3d6000fd5b50505050600b8181548110610c5a57610c59612269565b5b906000526020600020015460116000828254610c769190611fee565b925050819055508080610c8890612193565b915050610a42565b50600a6000610c9f91906115b4565b600b6000610cad91906115d5565b600c6000610cbb91906115d5565b60145491506015549050600060148190555060006015819055509091565b60095481565b60008054906101000a900460ff1681565b600160009054906101000a900473ffffffffffffffffffffffffffffffffffffffff1681565b600360009054906101000a900473ffffffffffffffffffffffffffffffffffffffff1681565b60075481565b60045481565b60065481565b600260009054906101000a900473ffffffffffffffffffffffffffffffffffffffff1673ffffffffffffffffffffffffffffffffffffffff163373ffffffffffffffffffffffffffffffffffffffff1614610da857600080fd5b600360009054906101000a900473ffffffffffffffffffffffffffffffffffffffff1673ffffffffffffffffffffffffffffffffffffffff1663a9059cbb600260009054906101000a900473ffffffffffffffffffffffffffffffffffffffff16600360009054906101000a900473ffffffffffffffffffffffffffffffffffffffff1673ffffffffffffffffffffffffffffffffffffffff166370a08231306040518263ffffffff1660e01b8152600401610e649190611bef565b60206040518083038186803b158015610e7c57600080fd5b505afa158015610e90573d6000803e3d6000fd5b505050506040513d601f19601f82011682018060405250810190610eb49190611a56565b6040518363ffffffff1660e01b8152600401610ed1929190611c77565b602060405180830381600087803b158015610eeb57600080fd5b505af1158015610eff573d6000803e3d6000fd5b505050506040513d601f19601f82011682018060405250810190610f2391906119cf565b50565b600b8181548110610f3657600080fd5b906000526020600020016000915090505481565b600d8181548110610f5a57600080fd5b906000526020600020016000915090508060000160009054906101000a900463ffffffff16908060000160049054906101000a900463ffffffff16905082565b80600e60003373ffffffffffffffffffffffffffffffffffffffff1673ffffffffffffffffffffffffffffffffffffffff16815260200190815260200160002060006101000a81548161ffff021916908361ffff16021790555050565b565b600a818154811061100957600080fd5b906000526020600020016000915054906101000a900473ffffffffffffffffffffffffffffffffffffffff1681565b600260009054906101000a900473ffffffffffffffffffffffffffffffffffffffff1681565b565b601260009054906101000a900473ffffffffffffffffffffffffffffffffffffffff1673ffffffffffffffffffffffffffffffffffffffff163373ffffffffffffffffffffffffffffffffffffffff16146110ba57600080fd5b60135481836110c99190611f29565b63ffffffff161461110f576040517f08c379a000000000000000000000000000000000000000000000000000000000815260040161110690611d9d565b60405180910390fd5b6111198282611518565b5050565b600c818154811061112d57600080fd5b906000526020600020016000915090505481565b600060019054906101000a900460ff1681565b60115481565b601260009054906101000a900473ffffffffffffffffffffffffffffffffffffffff1673ffffffffffffffffffffffffffffffffffffffff163373ffffffffffffffffffffffffffffffffffffffff161480156111b8575081518351145b6111c157600080fd5b600460036009546111d29190611f94565b6111dc9190611f63565b600260009054906101000a900473ffffffffffffffffffffffffffffffffffffffff1673ffffffffffffffffffffffffffffffffffffffff16631c0701df6040518163ffffffff1660e01b8152600401602060405180830381600087803b15801561124657600080fd5b505af115801561125a573d6000803e3d6000fd5b505050506040513d601f19601f8201168201806040525081019061127e9190611a56565b426112899190611fee565b1061129357600080fd5b60008060005b8551811015611305578481815181106112b5576112b4612269565b5b6020026020010151836112c89190611ed3565b92508381815181106112dd576112dc612269565b5b6020026020010151826112f09190611ed3565b915080806112fd90612193565b915050611299565b5060115482111561134b576040517f08c379a000000000000000000000000000000000000000000000000000000000815260040161134290611d7d565b60405180910390fd5b84600a90805190602001906113619291906115f6565b5083600b9080519060200190611378929190611680565b5082600c908051906020019061138f929190611680565b507f3c3310c1ef683c833d748aaef5ca6ac91aadd9b4bf0561667faf9261a4f593d760405160405180910390a15050505050565b601260009054906101000a900473ffffffffffffffffffffffffffffffffffffffff1681565b600060029054906101000a900473ffffffffffffffffffffffffffffffffffffffff1681565b60075460065411611421576004611424565b60015b6000806101000a81548160ff021916908360048111156114475761144661223a565b5b0217905550600160048111156114605761145f61223a565b5b60008054906101000a900460ff1660048111156114805761147f61223a565b5b141561151657600260009054906101000a900473ffffffffffffffffffffffffffffffffffffffff1673ffffffffffffffffffffffffffffffffffffffff166312514bba6011546040518263ffffffff1660e01b81526004016114e39190611dd8565b600060405180830381600087803b1580156114fd57600080fd5b505af1158015611511573d6000803e3d6000fd5b505050505b565b600d60405180604001604052808463ffffffff1681526020018363ffffffff168152509080600181540180825580915050600190039060005260206000200160009091909190915060008201518160000160006101000a81548163ffffffff021916908363ffffffff16021790555060208201518160000160046101000a81548163ffffffff021916908363ffffffff16021790555050505050565b50805460008255906000526020600020908101906115d291906116cd565b50565b50805460008255906000526020600020908101906115f391906116cd565b50565b82805482825590600052602060002090810192821561166f579160200282015b8281111561166e5782518260006101000a81548173ffffffffffffffffffffffffffffffffffffffff021916908373ffffffffffffffffffffffffffffffffffffffff16021790555091602001919060010190611616565b5b50905061167c91906116cd565b5090565b8280548282559060005260206000209081019282156116bc579160200282015b828111156116bb5782518255916020019190600101906116a0565b5b5090506116c991906116cd565b5090565b5b808211156116e65760008160009055506001016116ce565b5090565b60006116fd6116f884611e6a565b611e45565b905080838252602082019050828560208602820111156117205761171f6122cc565b5b60005b85811015611750578161173688826117df565b845260208401935060208301925050600181019050611723565b5050509392505050565b600061176d61176884611e96565b611e45565b905080838252602082019050828560208602820111156117905761178f6122cc565b5b60005b858110156117c057816117a6888261188f565b845260208401935060208301925050600181019050611793565b5050509392505050565b6000813590506117d98161238f565b92915050565b6000813590506117ee816123a6565b92915050565b600082601f830112611809576118086122c7565b5b81356118198482602086016116ea565b91505092915050565b600082601f830112611837576118366122c7565b5b813561184784826020860161175a565b91505092915050565b60008135905061185f816123bd565b92915050565b600081519050611874816123bd565b92915050565b600081359050611889816123d4565b92915050565b60008135905061189e816123eb565b92915050565b6000815190506118b3816123eb565b92915050565b6000813590506118c881612402565b92915050565b6000602082840312156118e4576118e36122d6565b5b60006118f2848285016117ca565b91505092915050565b600080600060608486031215611914576119136122d6565b5b600084013567ffffffffffffffff811115611932576119316122d1565b5b61193e868287016117f4565b935050602084013567ffffffffffffffff81111561195f5761195e6122d1565b5b61196b86828701611822565b925050604084013567ffffffffffffffff81111561198c5761198b6122d1565b5b61199886828701611822565b9150509250925092565b6000602082840312156119b8576119b76122d6565b5b60006119c684828501611850565b91505092915050565b6000602082840312156119e5576119e46122d6565b5b60006119f384828501611865565b91505092915050565b600060208284031215611a1257611a116122d6565b5b6000611a208482850161187a565b91505092915050565b600060208284031215611a3f57611a3e6122d6565b5b6000611a4d8482850161188f565b91505092915050565b600060208284031215611a6c57611a6b6122d6565b5b6000611a7a848285016118a4565b91505092915050565b60008060408385031215611a9a57611a996122d6565b5b6000611aa8858286016118b9565b9250506020611ab9858286016118b9565b9150509250929050565b611acc816120c0565b82525050565b611adb81612034565b82525050565b611aea81612022565b82525050565b611af981612046565b82525050565b611b08816120d2565b82525050565b611b17816120e4565b82525050565b611b26816120f6565b82525050565b611b3581612108565b82525050565b611b448161211a565b82525050565b611b538161212c565b82525050565b6000611b66601783611ec2565b9150611b71826122ec565b602082019050919050565b6000611b89601c83611ec2565b9150611b9482612315565b602082019050919050565b6000611bac600d83611ec2565b9150611bb78261233e565b602082019050919050565b611bcb81612078565b82525050565b611bda816120a6565b82525050565b611be9816120b0565b82525050565b6000602082019050611c046000830184611ae1565b92915050565b6000602082019050611c1f6000830184611ad2565b92915050565b6000604082019050611c3a6000830185611ad2565b611c476020830184611bd1565b9392505050565b6000604082019050611c636000830185611ac3565b611c706020830184611bd1565b9392505050565b6000604082019050611c8c6000830185611ae1565b611c996020830184611bd1565b9392505050565b6000602082019050611cb56000830184611af0565b92915050565b6000602082019050611cd06000830184611aff565b92915050565b6000602082019050611ceb6000830184611b0e565b92915050565b6000602082019050611d066000830184611b1d565b92915050565b6000602082019050611d216000830184611b2c565b92915050565b6000602082019050611d3c6000830184611b3b565b92915050565b6000602082019050611d576000830184611b4a565b92915050565b60006020820190508181036000830152611d7681611b59565b9050919050565b60006020820190508181036000830152611d9681611b7c565b9050919050565b60006020820190508181036000830152611db681611b9f565b9050919050565b6000602082019050611dd26000830184611bc2565b92915050565b6000602082019050611ded6000830184611bd1565b92915050565b6000604082019050611e086000830185611bd1565b611e156020830184611bd1565b9392505050565b6000604082019050611e316000830185611be0565b611e3e6020830184611be0565b9392505050565b6000611e4f611e60565b9050611e5b8282612162565b919050565b6000604051905090565b600067ffffffffffffffff821115611e8557611e84612298565b5b602082029050602081019050919050565b600067ffffffffffffffff821115611eb157611eb0612298565b5b602082029050602081019050919050565b600082825260208201905092915050565b6000611ede826120a6565b9150611ee9836120a6565b9250827fffffffffffffffffffffffffffffffffffffffffffffffffffffffffffffffff03821115611f1e57611f1d6121dc565b5b828201905092915050565b6000611f34826120b0565b9150611f3f836120b0565b92508263ffffffff03821115611f5857611f576121dc565b5b828201905092915050565b6000611f6e826120a6565b9150611f79836120a6565b925082611f8957611f8861220b565b5b828204905092915050565b6000611f9f826120a6565b9150611faa836120a6565b9250817fffffffffffffffffffffffffffffffffffffffffffffffffffffffffffffffff0483118215151615611fe357611fe26121dc565b5b828202905092915050565b6000611ff9826120a6565b9150612004836120a6565b925082821015612017576120166121dc565b5b828203905092915050565b600061202d82612086565b9050919050565b600061203f82612086565b9050919050565b60008115159050919050565b600081905061206082612367565b919050565b60008190506120738261237b565b919050565b600061ffff82169050919050565b600073ffffffffffffffffffffffffffffffffffffffff82169050919050565b6000819050919050565b600063ffffffff82169050919050565b60006120cb8261213e565b9050919050565b60006120dd8261213e565b9050919050565b60006120ef8261213e565b9050919050565b60006121018261213e565b9050919050565b60006121138261213e565b9050919050565b600061212582612052565b9050919050565b600061213782612065565b9050919050565b600061214982612150565b9050919050565b600061215b82612086565b9050919050565b61216b826122db565b810181811067ffffffffffffffff8211171561218a57612189612298565b5b80604052505050565b600061219e826120a6565b91507fffffffffffffffffffffffffffffffffffffffffffffffffffffffffffffffff8214156121d1576121d06121dc565b5b600182019050919050565b7f4e487b7100000000000000000000000000000000000000000000000000000000600052601160045260246000fd5b7f4e487b7100000000000000000000000000000000000000000000000000000000600052601260045260246000fd5b7f4e487b7100000000000000000000000000000000000000000000000000000000600052602160045260246000fd5b7f4e487b7100000000000000000000000000000000000000000000000000000000600052603260045260246000fd5b7f4e487b7100000000000000000000000000000000000000000000000000000000600052604160045260246000fd5b600080fd5b600080fd5b600080fd5b600080fd5b6000601f19601f8301169050919050565b7f566f74696e67206973207374696c6c206f6e676f696e67000000000000000000600082015250565b7f4e6f7420656e6f7567682066756e647320696e20636f6e747261637400000000600082015250565b7f6f76657270617920616c65727400000000000000000000000000000000000000600082015250565b600581106123785761237761223a565b5b50565b6002811061238c5761238b61223a565b5b50565b61239881612022565b81146123a357600080fd5b50565b6123af81612034565b81146123ba57600080fd5b50565b6123c681612046565b81146123d157600080fd5b50565b6123dd81612078565b81146123e857600080fd5b50565b6123f4816120a6565b81146123ff57600080fd5b50565b61240b816120b0565b811461241657600080fd5b5056fea2646970667358221220776e84535fa5e4a5e99af11bd7219561f44a94246417dcc9ef27dc2e0f3ebf5564736f6c63430008070033",
  "linkReferences": {},
  "deployedLinkReferences": {}
}