{
  "_format": "hh-sol-artifact-1",
  "contractName": "InternalProject",
  "sourceName": "contracts/Project/Department.sol",
  "abi": [
    {
      "inputs": [
        {
          "internalType": "address",
          "name": "_sourceAddress",
          "type": "address"
        },
        {
          "internalType": "address payable",
          "name": "_teamLead",
          "type": "address"
        },
        {
          "internalType": "address",
          "name": "repTokenAddress",
          "type": "address"
        },
        {
          "internalType": "address",
          "name": "paymentTokenAddress",
          "type": "address"
        },
        {
          "internalType": "address",
          "name": "_votingAddress",
          "type": "address"
        },
        {
          "internalType": "uint256",
          "name": "_votingDuration",
          "type": "uint256"
        },
        {
          "internalType": "uint256",
          "name": "_paymentInterval",
          "type": "uint256"
        },
        {
          "internalType": "uint256",
          "name": "_requestedAmount",
          "type": "uint256"
        }
      ],
      "stateMutability": "nonpayable",
      "type": "constructor"
    },
    {
      "anonymous": false,
      "inputs": [],
      "name": "PayrollRosterSubmitted",
      "type": "event"
    },
    {
      "inputs": [
        {
          "internalType": "uint256",
          "name": "",
          "type": "uint256"
        }
      ],
      "name": "amounts",
      "outputs": [
        {
          "internalType": "uint256",
          "name": "",
          "type": "uint256"
        }
      ],
      "stateMutability": "view",
      "type": "function"
    },
    {
      "inputs": [],
      "name": "funds",
      "outputs": [
        {
          "internalType": "uint256",
          "name": "",
          "type": "uint256"
        }
      ],
      "stateMutability": "view",
      "type": "function"
    },
    {
      "inputs": [],
      "name": "numberOfVotes",
      "outputs": [
        {
          "internalType": "uint256",
          "name": "",
          "type": "uint256"
        }
      ],
      "stateMutability": "view",
      "type": "function"
    },
    {
      "inputs": [],
      "name": "pay",
      "outputs": [],
      "stateMutability": "nonpayable",
      "type": "function"
    },
    {
      "inputs": [
        {
          "internalType": "address",
          "name": "",
          "type": "address"
        }
      ],
      "name": "payeeSplitting",
      "outputs": [
        {
          "internalType": "enum InternalProject.repSplittingOption",
          "name": "",
          "type": "uint8"
        }
      ],
      "stateMutability": "view",
      "type": "function"
    },
    {
      "inputs": [
        {
          "internalType": "uint256",
          "name": "",
          "type": "uint256"
        }
      ],
      "name": "payees",
      "outputs": [
        {
          "internalType": "address payable",
          "name": "",
          "type": "address"
        }
      ],
      "stateMutability": "view",
      "type": "function"
    },
    {
      "inputs": [],
      "name": "paymentInterval",
      "outputs": [
        {
          "internalType": "uint256",
          "name": "",
          "type": "uint256"
        }
      ],
      "stateMutability": "view",
      "type": "function"
    },
    {
      "inputs": [],
      "name": "paymentToken",
      "outputs": [
        {
          "internalType": "contract IERC20",
          "name": "",
          "type": "address"
        }
      ],
      "stateMutability": "view",
      "type": "function"
    },
    {
      "inputs": [],
      "name": "projectType",
      "outputs": [
        {
          "internalType": "enum InternalProject.ProjectType",
          "name": "",
          "type": "uint8"
        }
      ],
      "stateMutability": "view",
      "type": "function"
    },
    {
      "inputs": [],
      "name": "registerVote",
      "outputs": [],
      "stateMutability": "nonpayable",
      "type": "function"
    },
    {
      "inputs": [],
      "name": "repToken",
      "outputs": [
        {
          "internalType": "contract IRepToken",
          "name": "",
          "type": "address"
        }
      ],
      "stateMutability": "view",
      "type": "function"
    },
    {
      "inputs": [
        {
          "internalType": "uint8",
          "name": "_newOption",
          "type": "uint8"
        }
      ],
      "name": "setSplitting",
      "outputs": [],
      "stateMutability": "nonpayable",
      "type": "function"
    },
    {
      "inputs": [],
      "name": "source",
      "outputs": [
        {
          "internalType": "contract ISource",
          "name": "",
          "type": "address"
        }
      ],
      "stateMutability": "view",
      "type": "function"
    },
    {
      "inputs": [],
      "name": "startingTime",
      "outputs": [
        {
          "internalType": "uint256",
          "name": "",
          "type": "uint256"
        }
      ],
      "stateMutability": "view",
      "type": "function"
    },
    {
      "inputs": [],
      "name": "status",
      "outputs": [
        {
          "internalType": "enum InternalProject.ProjectStatus",
          "name": "",
          "type": "uint8"
        }
      ],
      "stateMutability": "view",
      "type": "function"
    },
    {
      "inputs": [
        {
          "internalType": "address payable[]",
          "name": "_payees",
          "type": "address[]"
        },
        {
          "internalType": "uint256[]",
          "name": "_amounts",
          "type": "uint256[]"
        }
      ],
      "name": "submitPayrollRoster",
      "outputs": [],
      "stateMutability": "nonpayable",
      "type": "function"
    },
    {
      "inputs": [],
      "name": "teamLead",
      "outputs": [
        {
          "internalType": "address payable",
          "name": "",
          "type": "address"
        }
      ],
      "stateMutability": "view",
      "type": "function"
    },
    {
      "inputs": [
        {
          "internalType": "bool",
          "name": "decision",
          "type": "bool"
        }
      ],
      "name": "voteOnProject",
      "outputs": [
        {
          "internalType": "bool",
          "name": "",
          "type": "bool"
        }
      ],
      "stateMutability": "nonpayable",
      "type": "function"
    },
    {
      "inputs": [],
      "name": "votes_against",
      "outputs": [
        {
          "internalType": "uint256",
          "name": "",
          "type": "uint256"
        }
      ],
      "stateMutability": "view",
      "type": "function"
    },
    {
      "inputs": [],
      "name": "votes_pro",
      "outputs": [
        {
          "internalType": "uint256",
          "name": "",
          "type": "uint256"
        }
      ],
      "stateMutability": "view",
      "type": "function"
    },
    {
      "inputs": [],
      "name": "voting",
      "outputs": [
        {
          "internalType": "contract IVoting",
          "name": "",
          "type": "address"
        }
      ],
      "stateMutability": "view",
      "type": "function"
    },
    {
      "inputs": [],
      "name": "votingDuration",
      "outputs": [
        {
          "internalType": "uint256",
          "name": "",
          "type": "uint256"
        }
      ],
      "stateMutability": "view",
      "type": "function"
    },
    {
      "inputs": [],
      "name": "withdraw",
      "outputs": [],
      "stateMutability": "nonpayable",
      "type": "function"
    }
  ],
  "bytecode": "0x60806040523480156200001157600080fd5b506040516200234738038062002347833981810160405281019062000037919062000317565b8160098190555080600c8190555060008060006101000a81548160ff021916908360048111156200006d576200006c62000432565b5b021790555086600d60006101000a81548173ffffffffffffffffffffffffffffffffffffffff021916908373ffffffffffffffffffffffffffffffffffffffff160217905550600a600d60009054906101000a900473ffffffffffffffffffffffffffffffffffffffff169080600181540180825580915050600190039060005260206000200160009091909190916101000a81548173ffffffffffffffffffffffffffffffffffffffff021916908373ffffffffffffffffffffffffffffffffffffffff1602179055506001600b6000600d60009054906101000a900473ffffffffffffffffffffffffffffffffffffffff1673ffffffffffffffffffffffffffffffffffffffff1673ffffffffffffffffffffffffffffffffffffffff16815260200190815260200160002060006101000a81548160ff02191690831515021790555087600260006101000a81548173ffffffffffffffffffffffffffffffffffffffff021916908373ffffffffffffffffffffffffffffffffffffffff16021790555085600160006101000a81548173ffffffffffffffffffffffffffffffffffffffff021916908373ffffffffffffffffffffffffffffffffffffffff16021790555084600360006101000a81548173ffffffffffffffffffffffffffffffffffffffff021916908373ffffffffffffffffffffffffffffffffffffffff160217905550426004819055508260058190555083600060026101000a81548173ffffffffffffffffffffffffffffffffffffffff021916908373ffffffffffffffffffffffffffffffffffffffff1602179055505050505050505050620004b4565b600081519050620002e38162000466565b92915050565b600081519050620002fa8162000480565b92915050565b60008151905062000311816200049a565b92915050565b600080600080600080600080610100898b0312156200033b576200033a62000461565b5b60006200034b8b828c01620002d2565b98505060206200035e8b828c01620002e9565b9750506040620003718b828c01620002d2565b9650506060620003848b828c01620002d2565b9550506080620003978b828c01620002d2565b94505060a0620003aa8b828c0162000300565b93505060c0620003bd8b828c0162000300565b92505060e0620003d08b828c0162000300565b9150509295985092959890939650565b6000620003ed8262000408565b9050919050565b6000620004018262000408565b9050919050565b600073ffffffffffffffffffffffffffffffffffffffff82169050919050565b6000819050919050565b7f4e487b7100000000000000000000000000000000000000000000000000000000600052602160045260246000fd5b600080fd5b6200047181620003e0565b81146200047d57600080fd5b50565b6200048b81620003f4565b81146200049757600080fd5b50565b620004a58162000428565b8114620004b157600080fd5b50565b611e8380620004c46000396000f3fe608060405234801561001057600080fd5b506004361061014d5760003560e01c806339d5d126116100c3578063a3e5c7db1161007c578063a3e5c7db14610348578063c2fc0d2614610378578063c89f2ce414610396578063e4777968146103b4578063f4f0b4a8146103d0578063fce1ccca146103ee5761014d565b806339d5d126146102865780633ccfd60b146102a457806345f0a44f146102ae57806363037b0c146102de57806367e828bf1461030e5780637a43bfbc1461032c5761014d565b80631cc1cf46116101155780631cc1cf46146101d2578063200d2ed2146101f057806329034a5c1461020e5780633013ce291461022c578063359d393d1461024a57806339518b5e146102685761014d565b80630dff5008146101525780630e7d490d14610182578063132002fc146101a057806318ad3c92146101be5780631b9265b8146101c8575b600080fd5b61016c60048036038101906101679190611535565b61040c565b6040516101799190611798565b60405180910390f35b61018a6106c3565b60405161019791906118b0565b60405180910390f35b6101a86106c9565b6040516101b591906118b0565b60405180910390f35b6101c66106cf565b005b6101d06108a4565b005b6101da610a83565b6040516101e791906118b0565b60405180910390f35b6101f8610a89565b604051610205919061181f565b60405180910390f35b610216610a9a565b60405161022391906117ce565b60405180910390f35b610234610ac0565b60405161024191906117b3565b60405180910390f35b610252610ae6565b60405161025f91906118b0565b60405180910390f35b610270610aec565b60405161027d91906118b0565b60405180910390f35b61028e610af2565b60405161029b91906118b0565b60405180910390f35b6102ac610af8565b005b6102c860048036038101906102c3919061158f565b610cd0565b6040516102d591906118b0565b60405180910390f35b6102f860048036038101906102f3919061158f565b610cf4565b604051610305919061172b565b60405180910390f35b610316610d33565b60405161032391906117e9565b60405180910390f35b610346600480360381019061034191906115e9565b610d59565b005b610362600480360381019061035d9190611490565b610dd8565b60405161036f9190611855565b60405180910390f35b610380610df8565b60405161038d919061183a565b60405180910390f35b61039e610e0b565b6040516103ab91906118b0565b60405180910390f35b6103ce60048036038101906103c991906114bd565b610e11565b005b6103d8611036565b6040516103e5919061172b565b60405180910390f35b6103f661105c565b6040516104039190611804565b60405180910390f35b600080600554600454426104209190611a3a565b11905060006002600160009054906101000a900473ffffffffffffffffffffffffffffffffffffffff1673ffffffffffffffffffffffffffffffffffffffff166318160ddd6040518163ffffffff1660e01b815260040160206040518083038186803b15801561048f57600080fd5b505afa1580156104a3573d6000803e3d6000fd5b505050506040513d601f19601f820116820180604052508101906104c791906115bc565b6104d191906119af565b600654118061058c57506002600160009054906101000a900473ffffffffffffffffffffffffffffffffffffffff1673ffffffffffffffffffffffffffffffffffffffff166318160ddd6040518163ffffffff1660e01b815260040160206040518083038186803b15801561054557600080fd5b505afa158015610559573d6000803e3d6000fd5b505050506040513d601f19601f8201168201806040525081019061057d91906115bc565b61058791906119af565b600754115b905081806105975750805b156105af576105a4611082565b6000925050506106be565b6000600160009054906101000a900473ffffffffffffffffffffffffffffffffffffffff1673ffffffffffffffffffffffffffffffffffffffff166370a08231336040518263ffffffff1660e01b815260040161060c9190611710565b60206040518083038186803b15801561062457600080fd5b505afa158015610638573d6000803e3d6000fd5b505050506040513d601f19601f8201168201806040525081019061065c91906115bc565b905084156106825780600660008282546106769190611959565b9250508190555061069c565b80600760008282546106949190611959565b925050819055505b6001600860008282546106af9190611959565b92505081905550600193505050505b919050565b60085481565b60055481565b6000600554600454426106e29190611a3a565b11905060006002600160009054906101000a900473ffffffffffffffffffffffffffffffffffffffff1673ffffffffffffffffffffffffffffffffffffffff166318160ddd6040518163ffffffff1660e01b815260040160206040518083038186803b15801561075157600080fd5b505afa158015610765573d6000803e3d6000fd5b505050506040513d601f19601f8201168201806040525081019061078991906115bc565b61079391906119af565b600654118061084e57506002600160009054906101000a900473ffffffffffffffffffffffffffffffffffffffff1673ffffffffffffffffffffffffffffffffffffffff166318160ddd6040518163ffffffff1660e01b815260040160206040518083038186803b15801561080757600080fd5b505afa15801561081b573d6000803e3d6000fd5b505050506040513d601f19601f8201168201806040525081019061083f91906115bc565b61084991906119af565b600754115b905081806108595750805b610898576040517f08c379a000000000000000000000000000000000000000000000000000000000815260040161088f90611870565b60405180910390fd5b6108a0611082565b5050565b600260009054906101000a900473ffffffffffffffffffffffffffffffffffffffff1673ffffffffffffffffffffffffffffffffffffffff163373ffffffffffffffffffffffffffffffffffffffff16146108fe57600080fd5b60005b600e80549050811015610a6457600360009054906101000a900473ffffffffffffffffffffffffffffffffffffffff1673ffffffffffffffffffffffffffffffffffffffff1663a9059cbb600e83815481106109605761095f611cc9565b5b9060005260206000200160009054906101000a900473ffffffffffffffffffffffffffffffffffffffff16600f848154811061099f5761099e611cc9565b5b90600052602060002001546040518363ffffffff1660e01b81526004016109c7929190611746565b602060405180830381600087803b1580156109e157600080fd5b505af11580156109f5573d6000803e3d6000fd5b505050506040513d601f19601f82011682018060405250810190610a199190611562565b50600f8181548110610a2e57610a2d611cc9565b5b9060005260206000200154600c6000828254610a4a9190611a3a565b925050819055508080610a5c90611bf3565b915050610901565b50600e6000610a73919061118b565b600f6000610a8191906111ac565b565b60095481565b60008054906101000a900460ff1681565b600160009054906101000a900473ffffffffffffffffffffffffffffffffffffffff1681565b600360009054906101000a900473ffffffffffffffffffffffffffffffffffffffff1681565b60075481565b60045481565b60065481565b600260009054906101000a900473ffffffffffffffffffffffffffffffffffffffff1673ffffffffffffffffffffffffffffffffffffffff163373ffffffffffffffffffffffffffffffffffffffff1614610b5257600080fd5b600360009054906101000a900473ffffffffffffffffffffffffffffffffffffffff1673ffffffffffffffffffffffffffffffffffffffff1663a9059cbb600260009054906101000a900473ffffffffffffffffffffffffffffffffffffffff16600360009054906101000a900473ffffffffffffffffffffffffffffffffffffffff1673ffffffffffffffffffffffffffffffffffffffff166370a08231306040518263ffffffff1660e01b8152600401610c0e9190611710565b60206040518083038186803b158015610c2657600080fd5b505afa158015610c3a573d6000803e3d6000fd5b505050506040513d601f19601f82011682018060405250810190610c5e91906115bc565b6040518363ffffffff1660e01b8152600401610c7b92919061176f565b602060405180830381600087803b158015610c9557600080fd5b505af1158015610ca9573d6000803e3d6000fd5b505050506040513d601f19601f82011682018060405250810190610ccd9190611562565b50565b600f8181548110610ce057600080fd5b906000526020600020016000915090505481565b600e8181548110610d0457600080fd5b906000526020600020016000915054906101000a900473ffffffffffffffffffffffffffffffffffffffff1681565b600260009054906101000a900473ffffffffffffffffffffffffffffffffffffffff1681565b8060ff166002811115610d6f57610d6e611c9a565b5b601060003373ffffffffffffffffffffffffffffffffffffffff1673ffffffffffffffffffffffffffffffffffffffff16815260200190815260200160002060006101000a81548160ff02191690836002811115610dd057610dcf611c9a565b5b021790555050565b60106020528060005260406000206000915054906101000a900460ff1681565b600060019054906101000a900460ff1681565b600c5481565b600d60009054906101000a900473ffffffffffffffffffffffffffffffffffffffff1673ffffffffffffffffffffffffffffffffffffffff163373ffffffffffffffffffffffffffffffffffffffff16148015610e6f575080518251145b610e7857600080fd5b60046003600954610e8991906119e0565b610e9391906119af565b600260009054906101000a900473ffffffffffffffffffffffffffffffffffffffff1673ffffffffffffffffffffffffffffffffffffffff16631c0701df6040518163ffffffff1660e01b8152600401602060405180830381600087803b158015610efd57600080fd5b505af1158015610f11573d6000803e3d6000fd5b505050506040513d601f19601f82011682018060405250810190610f3591906115bc565b42610f409190611a3a565b10610f4a57600080fd5b6000805b8351811015610f9257828181518110610f6a57610f69611cc9565b5b602002602001015182610f7d9190611959565b91508080610f8a90611bf3565b915050610f4e565b50600c548110610fd7576040517f08c379a0000000000000000000000000000000000000000000000000000000008152600401610fce90611890565b60405180910390fd5b82600e9080519060200190610fed9291906111cd565b5081600f9080519060200190611004929190611257565b507f3c3310c1ef683c833d748aaef5ca6ac91aadd9b4bf0561667faf9261a4f593d760405160405180910390a1505050565b600d60009054906101000a900473ffffffffffffffffffffffffffffffffffffffff1681565b600060029054906101000a900473ffffffffffffffffffffffffffffffffffffffff1681565b60075460065411611094576004611097565b60015b6000806101000a81548160ff021916908360048111156110ba576110b9611c9a565b5b0217905550600160048111156110d3576110d2611c9a565b5b60008054906101000a900460ff1660048111156110f3576110f2611c9a565b5b141561118957600260009054906101000a900473ffffffffffffffffffffffffffffffffffffffff1673ffffffffffffffffffffffffffffffffffffffff166312514bba600c546040518263ffffffff1660e01b815260040161115691906118b0565b600060405180830381600087803b15801561117057600080fd5b505af1158015611184573d6000803e3d6000fd5b505050505b565b50805460008255906000526020600020908101906111a991906112a4565b50565b50805460008255906000526020600020908101906111ca91906112a4565b50565b828054828255906000526020600020908101928215611246579160200282015b828111156112455782518260006101000a81548173ffffffffffffffffffffffffffffffffffffffff021916908373ffffffffffffffffffffffffffffffffffffffff160217905550916020019190600101906111ed565b5b50905061125391906112a4565b5090565b828054828255906000526020600020908101928215611293579160200282015b82811115611292578251825591602001919060010190611277565b5b5090506112a091906112a4565b5090565b5b808211156112bd5760008160009055506001016112a5565b5090565b60006112d46112cf846118f0565b6118cb565b905080838252602082019050828560208602820111156112f7576112f6611d2c565b5b60005b85811015611327578161130d88826113b6565b8452602084019350602083019250506001810190506112fa565b5050509392505050565b600061134461133f8461191c565b6118cb565b9050808382526020820190508285602086028201111561136757611366611d2c565b5b60005b85811015611397578161137d8882611451565b84526020840193506020830192505060018101905061136a565b5050509392505050565b6000813590506113b081611dda565b92915050565b6000813590506113c581611df1565b92915050565b600082601f8301126113e0576113df611d27565b5b81356113f08482602086016112c1565b91505092915050565b600082601f83011261140e5761140d611d27565b5b813561141e848260208601611331565b91505092915050565b60008135905061143681611e08565b92915050565b60008151905061144b81611e08565b92915050565b60008135905061146081611e1f565b92915050565b60008151905061147581611e1f565b92915050565b60008135905061148a81611e36565b92915050565b6000602082840312156114a6576114a5611d36565b5b60006114b4848285016113a1565b91505092915050565b600080604083850312156114d4576114d3611d36565b5b600083013567ffffffffffffffff8111156114f2576114f1611d31565b5b6114fe858286016113cb565b925050602083013567ffffffffffffffff81111561151f5761151e611d31565b5b61152b858286016113f9565b9150509250929050565b60006020828403121561154b5761154a611d36565b5b600061155984828501611427565b91505092915050565b60006020828403121561157857611577611d36565b5b60006115868482850161143c565b91505092915050565b6000602082840312156115a5576115a4611d36565b5b60006115b384828501611451565b91505092915050565b6000602082840312156115d2576115d1611d36565b5b60006115e084828501611466565b91505092915050565b6000602082840312156115ff576115fe611d36565b5b600061160d8482850161147b565b91505092915050565b61161f81611b0e565b82525050565b61162e81611a80565b82525050565b61163d81611a6e565b82525050565b61164c81611a92565b82525050565b61165b81611b20565b82525050565b61166a81611b32565b82525050565b61167981611b44565b82525050565b61168881611b56565b82525050565b61169781611b68565b82525050565b6116a681611b7a565b82525050565b6116b581611b8c565b82525050565b60006116c8601783611948565b91506116d382611d4c565b602082019050919050565b60006116eb601c83611948565b91506116f682611d75565b602082019050919050565b61170a81611af7565b82525050565b60006020820190506117256000830184611634565b92915050565b60006020820190506117406000830184611625565b92915050565b600060408201905061175b6000830185611616565b6117686020830184611701565b9392505050565b60006040820190506117846000830185611634565b6117916020830184611701565b9392505050565b60006020820190506117ad6000830184611643565b92915050565b60006020820190506117c86000830184611652565b92915050565b60006020820190506117e36000830184611661565b92915050565b60006020820190506117fe6000830184611670565b92915050565b6000602082019050611819600083018461167f565b92915050565b6000602082019050611834600083018461168e565b92915050565b600060208201905061184f600083018461169d565b92915050565b600060208201905061186a60008301846116ac565b92915050565b60006020820190508181036000830152611889816116bb565b9050919050565b600060208201905081810360008301526118a9816116de565b9050919050565b60006020820190506118c56000830184611701565b92915050565b60006118d56118e6565b90506118e18282611bc2565b919050565b6000604051905090565b600067ffffffffffffffff82111561190b5761190a611cf8565b5b602082029050602081019050919050565b600067ffffffffffffffff82111561193757611936611cf8565b5b602082029050602081019050919050565b600082825260208201905092915050565b600061196482611af7565b915061196f83611af7565b9250827fffffffffffffffffffffffffffffffffffffffffffffffffffffffffffffffff038211156119a4576119a3611c3c565b5b828201905092915050565b60006119ba82611af7565b91506119c583611af7565b9250826119d5576119d4611c6b565b5b828204905092915050565b60006119eb82611af7565b91506119f683611af7565b9250817fffffffffffffffffffffffffffffffffffffffffffffffffffffffffffffffff0483118215151615611a2f57611a2e611c3c565b5b828202905092915050565b6000611a4582611af7565b9150611a5083611af7565b925082821015611a6357611a62611c3c565b5b828203905092915050565b6000611a7982611ad7565b9050919050565b6000611a8b82611ad7565b9050919050565b60008115159050919050565b6000819050611aac82611d9e565b919050565b6000819050611abf82611db2565b919050565b6000819050611ad282611dc6565b919050565b600073ffffffffffffffffffffffffffffffffffffffff82169050919050565b6000819050919050565b600060ff82169050919050565b6000611b1982611b9e565b9050919050565b6000611b2b82611b9e565b9050919050565b6000611b3d82611b9e565b9050919050565b6000611b4f82611b9e565b9050919050565b6000611b6182611b9e565b9050919050565b6000611b7382611a9e565b9050919050565b6000611b8582611ab1565b9050919050565b6000611b9782611ac4565b9050919050565b6000611ba982611bb0565b9050919050565b6000611bbb82611ad7565b9050919050565b611bcb82611d3b565b810181811067ffffffffffffffff82111715611bea57611be9611cf8565b5b80604052505050565b6000611bfe82611af7565b91507fffffffffffffffffffffffffffffffffffffffffffffffffffffffffffffffff821415611c3157611c30611c3c565b5b600182019050919050565b7f4e487b7100000000000000000000000000000000000000000000000000000000600052601160045260246000fd5b7f4e487b7100000000000000000000000000000000000000000000000000000000600052601260045260246000fd5b7f4e487b7100000000000000000000000000000000000000000000000000000000600052602160045260246000fd5b7f4e487b7100000000000000000000000000000000000000000000000000000000600052603260045260246000fd5b7f4e487b7100000000000000000000000000000000000000000000000000000000600052604160045260246000fd5b600080fd5b600080fd5b600080fd5b600080fd5b6000601f19601f8301169050919050565b7f566f74696e67206973207374696c6c206f6e676f696e67000000000000000000600082015250565b7f4e6f7420656e6f7567682066756e647320696e20636f6e747261637400000000600082015250565b60058110611daf57611dae611c9a565b5b50565b60028110611dc357611dc2611c9a565b5b50565b60038110611dd757611dd6611c9a565b5b50565b611de381611a6e565b8114611dee57600080fd5b50565b611dfa81611a80565b8114611e0557600080fd5b50565b611e1181611a92565b8114611e1c57600080fd5b50565b611e2881611af7565b8114611e3357600080fd5b50565b611e3f81611b01565b8114611e4a57600080fd5b5056fea26469706673582212205ec1a13b05ddc3b4903339afb92f9264f4ab531d336b003fac358c49ab69cd6b64736f6c63430008070033",
  "linkReferences": {},
  "deployedLinkReferences": {}
}