{
  "_format": "hh-sol-artifact-1",
  "contractName": "Project",
  "sourceName": "contracts/all.sol",
  "abi": [
    {
      "inputs": [
        {
          "internalType": "address payable",
          "name": "_sourcingLead",
          "type": "address"
        },
        {
          "internalType": "address payable",
          "name": "_client",
          "type": "address"
        },
        {
          "internalType": "address payable",
          "name": "_arbiter",
          "type": "address"
        },
        {
          "internalType": "address",
          "name": "repTokenAddress",
          "type": "address"
        },
        {
          "internalType": "address",
          "name": "_paymentTokenAddress",
          "type": "address"
        },
        {
          "internalType": "uint8",
          "name": "_votingDuration",
          "type": "uint8"
        }
      ],
      "stateMutability": "nonpayable",
      "type": "constructor"
    },
    {
      "anonymous": false,
      "inputs": [],
      "name": "MilestoneApproved",
      "type": "event"
    },
    {
      "inputs": [],
      "name": "PAYMENT_APPROVAL_QUOTA",
      "outputs": [
        {
          "internalType": "uint8",
          "name": "",
          "type": "uint8"
        }
      ],
      "stateMutability": "view",
      "type": "function"
    },
    {
      "inputs": [
        {
          "internalType": "address",
          "name": "_tokenAddress",
          "type": "address"
        },
        {
          "internalType": "uint256",
          "name": "_repWeiPerPaymentGwei",
          "type": "uint256"
        }
      ],
      "name": "_changePaymentMethod",
      "outputs": [],
      "stateMutability": "nonpayable",
      "type": "function"
    },
    {
      "inputs": [
        {
          "internalType": "address payable",
          "name": "_teamMember",
          "type": "address"
        }
      ],
      "name": "addTeamMember",
      "outputs": [],
      "stateMutability": "nonpayable",
      "type": "function"
    },
    {
      "inputs": [],
      "name": "approvalAmount",
      "outputs": [
        {
          "internalType": "uint256",
          "name": "",
          "type": "uint256"
        }
      ],
      "stateMutability": "view",
      "type": "function"
    },
    {
      "inputs": [
        {
          "internalType": "bool",
          "name": "_vote",
          "type": "bool"
        }
      ],
      "name": "approveAll",
      "outputs": [],
      "stateMutability": "nonpayable",
      "type": "function"
    },
    {
      "inputs": [
        {
          "internalType": "uint256",
          "name": "_approvalAmount",
          "type": "uint256"
        }
      ],
      "name": "approveMilestone",
      "outputs": [],
      "stateMutability": "nonpayable",
      "type": "function"
    },
    {
      "inputs": [
        {
          "internalType": "address payable",
          "name": "teamMember",
          "type": "address"
        }
      ],
      "name": "approveOne",
      "outputs": [],
      "stateMutability": "nonpayable",
      "type": "function"
    },
    {
      "inputs": [],
      "name": "arbiter",
      "outputs": [
        {
          "internalType": "address payable",
          "name": "",
          "type": "address"
        }
      ],
      "stateMutability": "view",
      "type": "function"
    },
    {
      "inputs": [
        {
          "internalType": "bool",
          "name": "inFavourOfInvoice",
          "type": "bool"
        }
      ],
      "name": "artbitration",
      "outputs": [],
      "stateMutability": "nonpayable",
      "type": "function"
    },
    {
      "inputs": [],
      "name": "client",
      "outputs": [
        {
          "internalType": "address payable",
          "name": "",
          "type": "address"
        }
      ],
      "stateMutability": "view",
      "type": "function"
    },
    {
      "inputs": [],
      "name": "dispute",
      "outputs": [],
      "stateMutability": "nonpayable",
      "type": "function"
    },
    {
      "inputs": [],
      "name": "forumLink",
      "outputs": [
        {
          "internalType": "string",
          "name": "",
          "type": "string"
        }
      ],
      "stateMutability": "view",
      "type": "function"
    },
    {
      "inputs": [
        {
          "internalType": "uint256",
          "name": "_amount",
          "type": "uint256"
        }
      ],
      "name": "invoiceClient",
      "outputs": [],
      "stateMutability": "nonpayable",
      "type": "function"
    },
    {
      "inputs": [],
      "name": "milestoneApproved",
      "outputs": [
        {
          "internalType": "bool",
          "name": "",
          "type": "bool"
        }
      ],
      "stateMutability": "view",
      "type": "function"
    },
    {
      "inputs": [],
      "name": "numberOfVotes",
      "outputs": [
        {
          "internalType": "uint256",
          "name": "",
          "type": "uint256"
        }
      ],
      "stateMutability": "view",
      "type": "function"
    },
    {
      "inputs": [],
      "name": "paymentToken",
      "outputs": [
        {
          "internalType": "contract IERC20",
          "name": "",
          "type": "address"
        }
      ],
      "stateMutability": "view",
      "type": "function"
    },
    {
      "inputs": [
        {
          "internalType": "address",
          "name": "",
          "type": "address"
        }
      ],
      "name": "payments",
      "outputs": [
        {
          "internalType": "uint256",
          "name": "amount",
          "type": "uint256"
        },
        {
          "internalType": "uint16",
          "name": "numberOfApprovals",
          "type": "uint16"
        }
      ],
      "stateMutability": "view",
      "type": "function"
    },
    {
      "inputs": [],
      "name": "quorum",
      "outputs": [
        {
          "internalType": "uint256",
          "name": "",
          "type": "uint256"
        }
      ],
      "stateMutability": "view",
      "type": "function"
    },
    {
      "inputs": [],
      "name": "repToken",
      "outputs": [
        {
          "internalType": "contract RepToken",
          "name": "",
          "type": "address"
        }
      ],
      "stateMutability": "view",
      "type": "function"
    },
    {
      "inputs": [],
      "name": "repWeiPerPaymentGwei",
      "outputs": [
        {
          "internalType": "uint256",
          "name": "",
          "type": "uint256"
        }
      ],
      "stateMutability": "view",
      "type": "function"
    },
    {
      "inputs": [
        {
          "internalType": "address",
          "name": "_to",
          "type": "address"
        },
        {
          "internalType": "uint256",
          "name": "_amount",
          "type": "uint256"
        }
      ],
      "name": "sendRepToken",
      "outputs": [],
      "stateMutability": "nonpayable",
      "type": "function"
    },
    {
      "inputs": [
        {
          "internalType": "uint256",
          "name": "_repWeiPerPaymentGwei",
          "type": "uint256"
        }
      ],
      "name": "setRepWeiValuePerGweiTokenValue",
      "outputs": [],
      "stateMutability": "nonpayable",
      "type": "function"
    },
    {
      "inputs": [],
      "name": "source",
      "outputs": [
        {
          "internalType": "contract Source",
          "name": "",
          "type": "address"
        }
      ],
      "stateMutability": "view",
      "type": "function"
    },
    {
      "inputs": [],
      "name": "sourcingLead",
      "outputs": [
        {
          "internalType": "address payable",
          "name": "",
          "type": "address"
        }
      ],
      "stateMutability": "view",
      "type": "function"
    },
    {
      "inputs": [],
      "name": "startingTime",
      "outputs": [
        {
          "internalType": "uint256",
          "name": "",
          "type": "uint256"
        }
      ],
      "stateMutability": "view",
      "type": "function"
    },
    {
      "inputs": [],
      "name": "status",
      "outputs": [
        {
          "internalType": "enum Project.ProjectStatus",
          "name": "",
          "type": "uint8"
        }
      ],
      "stateMutability": "view",
      "type": "function"
    },
    {
      "inputs": [
        {
          "internalType": "uint256",
          "name": "_amount",
          "type": "uint256"
        }
      ],
      "name": "sumbitPaymentRequest",
      "outputs": [],
      "stateMutability": "nonpayable",
      "type": "function"
    },
    {
      "inputs": [
        {
          "internalType": "bool",
          "name": "decision",
          "type": "bool"
        }
      ],
      "name": "voteOnProject",
      "outputs": [
        {
          "internalType": "bool",
          "name": "",
          "type": "bool"
        }
      ],
      "stateMutability": "nonpayable",
      "type": "function"
    },
    {
      "inputs": [],
      "name": "votes_against",
      "outputs": [
        {
          "internalType": "uint256",
          "name": "",
          "type": "uint256"
        }
      ],
      "stateMutability": "view",
      "type": "function"
    },
    {
      "inputs": [],
      "name": "votes_pro",
      "outputs": [
        {
          "internalType": "uint256",
          "name": "",
          "type": "uint256"
        }
      ],
      "stateMutability": "view",
      "type": "function"
    },
    {
      "inputs": [],
      "name": "votingDuration",
      "outputs": [
        {
          "internalType": "uint8",
          "name": "",
          "type": "uint8"
        }
      ],
      "stateMutability": "view",
      "type": "function"
    }
  ],
  "bytecode": "0x60806040526000600860006101000a81548160ff0219169083151502179055506000600e60006101000a81548160ff0219169083151502179055506000600f556032601060006101000a81548160ff021916908360ff160217905550633b9aca006011553480156200007057600080fd5b506040516200295d3803806200295d833981810160405281019062000096919062000481565b6000600160146101000a81548160ff02191690836004811115620000bf57620000be62000572565b5b021790555085600960006101000a81548173ffffffffffffffffffffffffffffffffffffffff021916908373ffffffffffffffffffffffffffffffffffffffff160217905550600b600960009054906101000a900473ffffffffffffffffffffffffffffffffffffffff169080600181540180825580915050600190039060005260206000200160009091909190916101000a81548173ffffffffffffffffffffffffffffffffffffffff021916908373ffffffffffffffffffffffffffffffffffffffff16021790555084600860016101000a81548173ffffffffffffffffffffffffffffffffffffffff021916908373ffffffffffffffffffffffffffffffffffffffff16021790555083600a60006101000a81548173ffffffffffffffffffffffffffffffffffffffff021916908373ffffffffffffffffffffffffffffffffffffffff160217905550336000806101000a81548173ffffffffffffffffffffffffffffffffffffffff021916908373ffffffffffffffffffffffffffffffffffffffff16021790555082600160006101000a81548173ffffffffffffffffffffffffffffffffffffffff021916908373ffffffffffffffffffffffffffffffffffffffff16021790555042600c8190555080600960146101000a81548160ff021916908360ff160217905550620002c382601154620002cf60201b60201c565b505050505050620005f4565b60008054906101000a900473ffffffffffffffffffffffffffffffffffffffff1673ffffffffffffffffffffffffffffffffffffffff163373ffffffffffffffffffffffffffffffffffffffff161480620003775750600960009054906101000a900473ffffffffffffffffffffffffffffffffffffffff1673ffffffffffffffffffffffffffffffffffffffff163373ffffffffffffffffffffffffffffffffffffffff16145b6200038157600080fd5b81600660006101000a81548173ffffffffffffffffffffffffffffffffffffffff021916908373ffffffffffffffffffffffffffffffffffffffff160217905550620003d381620003d760201b60201c565b5050565b600960009054906101000a900473ffffffffffffffffffffffffffffffffffffffff1673ffffffffffffffffffffffffffffffffffffffff163373ffffffffffffffffffffffffffffffffffffffff16146200043257600080fd5b8060118190555050565b6000815190506200044d81620005a6565b92915050565b6000815190506200046481620005c0565b92915050565b6000815190506200047b81620005da565b92915050565b60008060008060008060c08789031215620004a157620004a0620005a1565b5b6000620004b189828a0162000453565b9650506020620004c489828a0162000453565b9550506040620004d789828a0162000453565b9450506060620004ea89828a016200043c565b9350506080620004fd89828a016200043c565b92505060a06200051089828a016200046a565b9150509295509295509295565b60006200052a8262000545565b9050919050565b60006200053e8262000545565b9050919050565b600073ffffffffffffffffffffffffffffffffffffffff82169050919050565b600060ff82169050919050565b7f4e487b7100000000000000000000000000000000000000000000000000000000600052602160045260246000fd5b600080fd5b620005b1816200051d565b8114620005bd57600080fd5b50565b620005cb8162000531565b8114620005d757600080fd5b50565b620005e58162000565565b8114620005f157600080fd5b50565b61235980620006046000396000f3fe608060405234801561001057600080fd5b50600436106101e55760003560e01c806348916c891161010f578063bd5ae89c116100a2578063e3ade6d611610071578063e3ade6d614610527578063f240f7c314610545578063fb0288481461054f578063fe25e00a1461056b576101e5565b8063bd5ae89c1461049e578063c438b40f146104bc578063d2da0182146104d8578063e2982c21146104f6576101e5565b80636ffa7174116100de5780636ffa71741461042a578063908c36ca146104465780639872330b14610464578063bad92c2714610482576101e5565b806348916c89146103b85780634c5d9ddd146103d457806367e828bf146103f05780636f8a42d41461040e576101e5565b80632638e16a1161018757806339518b5e1161015657806339518b5e1461034457806339d5d126146103625780633eb2b5ad14610380578063431c0c881461039c576101e5565b80632638e16a146102ce57806329034a5c146102ea5780633013ce2914610308578063359d393d14610326576101e5565b8063128ef1ad116101c3578063128ef1ad14610256578063132002fc146102745780631703a01814610292578063200d2ed2146102b0576101e5565b80630dff5008146101ea5780630e7d490d1461021a578063109e94cf14610238575b600080fd5b61020460048036038101906101ff9190611b27565b610589565b6040516102119190611d41565b60405180910390f35b6102226106e8565b60405161022f9190611dea565b60405180910390f35b6102406106ee565b60405161024d9190611cd4565b60405180910390f35b61025e610714565b60405161026b9190611dc8565b60405180910390f35b61027c6107a2565b6040516102899190611e2e565b60405180910390f35b61029a6107b5565b6040516102a79190611dea565b60405180910390f35b6102b86107bb565b6040516102c59190611dad565b60405180910390f35b6102e860048036038101906102e39190611aba565b6107ce565b005b6102f2610978565b6040516102ff9190611d77565b60405180910390f35b61031061099e565b60405161031d9190611d5c565b60405180910390f35b61032e6109c4565b60405161033b9190611dea565b60405180910390f35b61034c6109ca565b6040516103599190611dea565b60405180910390f35b61036a6109d0565b6040516103779190611dea565b60405180910390f35b61039a60048036038101906103959190611aba565b6109d6565b005b6103b660048036038101906103b19190611b81565b610b44565b005b6103d260048036038101906103cd9190611ae7565b610ba8565b005b6103ee60048036038101906103e99190611b27565b610c5c565b005b6103f8610d3a565b6040516104059190611d92565b60405180910390f35b61042860048036038101906104239190611b81565b610d5e565b005b610444600480360381019061043f9190611ae7565b610dc2565b005b61044e610ec0565b60405161045b9190611dea565b60405180910390f35b61046c610ec6565b6040516104799190611dea565b60405180910390f35b61049c60048036038101906104979190611b81565b610ecc565b005b6104a6610f16565b6040516104b39190611e2e565b60405180910390f35b6104d660048036038101906104d19190611b81565b610f29565b005b6104e0611095565b6040516104ed9190611cd4565b60405180910390f35b610510600480360381019061050b9190611a8d565b6110bb565b60405161051e929190611e05565b60405180910390f35b61052f6110ed565b60405161053c9190611d41565b60405180910390f35b61054d611100565b005b61056960048036038101906105649190611b27565b6111df565b005b6105736112c5565b6040516105809190611cd4565b60405180910390f35b600062015180600960149054906101000a900460ff1660ff166105ac9190611f24565b62ffffff16600c54426105bf9190611fbb565b11156105d6576105cd6112eb565b600090506106e3565b6000600160009054906101000a900473ffffffffffffffffffffffffffffffffffffffff1673ffffffffffffffffffffffffffffffffffffffff166370a08231336040518263ffffffff1660e01b81526004016106339190611cb9565b60206040518083038186803b15801561064b57600080fd5b505afa15801561065f573d6000803e3d6000fd5b505050506040513d601f19601f820116820180604052508101906106839190611bae565b905082156106a957806002600082825461069d9190611e9d565b925050819055506106c3565b80600360008282546106bb9190611e9d565b925050819055505b6001600460008282546106d69190611e9d565b9250508190555060019150505b919050565b60045481565b600860019054906101000a900473ffffffffffffffffffffffffffffffffffffffff1681565b6007805461072190612137565b80601f016020809104026020016040519081016040528092919081815260200182805461074d90612137565b801561079a5780601f1061076f5761010080835404028352916020019161079a565b820191906000526020600020905b81548152906001019060200180831161077d57829003601f168201915b505050505081565b600960149054906101000a900460ff1681565b60055481565b600160149054906101000a900460ff1681565b601360003373ffffffffffffffffffffffffffffffffffffffff1673ffffffffffffffffffffffffffffffffffffffff16815260200190815260200160002060009054906101000a900460ff1661082457600080fd5b6001601260008373ffffffffffffffffffffffffffffffffffffffff1673ffffffffffffffffffffffffffffffffffffffff16815260200190815260200160002060010160008282829054906101000a900461ffff166108849190611e65565b92506101000a81548161ffff021916908361ffff1602179055506064601060009054906101000a900460ff1660ff16600b805490506108c39190611f61565b6108cd9190611ef3565b601260008373ffffffffffffffffffffffffffffffffffffffff1673ffffffffffffffffffffffffffffffffffffffff16815260200190815260200160002060010160009054906101000a900461ffff1661ffff1611156109755761097481601260008473ffffffffffffffffffffffffffffffffffffffff1673ffffffffffffffffffffffffffffffffffffffff16815260200190815260200160002060000154611407565b5b50565b600160009054906101000a900473ffffffffffffffffffffffffffffffffffffffff1681565b600660009054906101000a900473ffffffffffffffffffffffffffffffffffffffff1681565b60035481565b600c5481565b60025481565b600960009054906101000a900473ffffffffffffffffffffffffffffffffffffffff1673ffffffffffffffffffffffffffffffffffffffff163373ffffffffffffffffffffffffffffffffffffffff161480610a7d575060008054906101000a900473ffffffffffffffffffffffffffffffffffffffff1673ffffffffffffffffffffffffffffffffffffffff163373ffffffffffffffffffffffffffffffffffffffff16145b610a8657600080fd5b600b819080600181540180825580915050600190039060005260206000200160009091909190916101000a81548173ffffffffffffffffffffffffffffffffffffffff021916908373ffffffffffffffffffffffffffffffffffffffff1602179055506001601360008373ffffffffffffffffffffffffffffffffffffffff1673ffffffffffffffffffffffffffffffffffffffff16815260200190815260200160002060006101000a81548160ff02191690831515021790555050565b600960009054906101000a900473ffffffffffffffffffffffffffffffffffffffff1673ffffffffffffffffffffffffffffffffffffffff163373ffffffffffffffffffffffffffffffffffffffff1614610b9e57600080fd5b8060118190555050565b600160009054906101000a900473ffffffffffffffffffffffffffffffffffffffff1673ffffffffffffffffffffffffffffffffffffffff1663a9059cbb83836040518363ffffffff1660e01b8152600401610c05929190611d18565b602060405180830381600087803b158015610c1f57600080fd5b505af1158015610c33573d6000803e3d6000fd5b505050506040513d601f19601f82011682018060405250810190610c579190611b54565b505050565b600a60009054906101000a900473ffffffffffffffffffffffffffffffffffffffff1673ffffffffffffffffffffffffffffffffffffffff163373ffffffffffffffffffffffffffffffffffffffff16148015610cec575060026004811115610cc857610cc7612210565b5b600160149054906101000a900460ff166004811115610cea57610ce9612210565b5b145b610cf557600080fd5b8015610d0557600f54600d819055505b60018060146101000a81548160ff02191690836004811115610d2a57610d29612210565b5b0217905550610d37611662565b50565b60008054906101000a900473ffffffffffffffffffffffffffffffffffffffff1681565b600960009054906101000a900473ffffffffffffffffffffffffffffffffffffffff1673ffffffffffffffffffffffffffffffffffffffff163373ffffffffffffffffffffffffffffffffffffffff1614610db857600080fd5b80600f8190555050565b60008054906101000a900473ffffffffffffffffffffffffffffffffffffffff1673ffffffffffffffffffffffffffffffffffffffff163373ffffffffffffffffffffffffffffffffffffffff161480610e695750600960009054906101000a900473ffffffffffffffffffffffffffffffffffffffff1673ffffffffffffffffffffffffffffffffffffffff163373ffffffffffffffffffffffffffffffffffffffff16145b610e7257600080fd5b81600660006101000a81548173ffffffffffffffffffffffffffffffffffffffff021916908373ffffffffffffffffffffffffffffffffffffffff160217905550610ebc81610b44565b5050565b600d5481565b60115481565b80601260003373ffffffffffffffffffffffffffffffffffffffff1673ffffffffffffffffffffffffffffffffffffffff1681526020019081526020016000206000018190555050565b601060009054906101000a900460ff1681565b600860019054906101000a900473ffffffffffffffffffffffffffffffffffffffff1673ffffffffffffffffffffffffffffffffffffffff163373ffffffffffffffffffffffffffffffffffffffff16148015610f8857506000600f54115b610f9157600080fd5b80600d81905550600f5481101580156110545750600660009054906101000a900473ffffffffffffffffffffffffffffffffffffffff1673ffffffffffffffffffffffffffffffffffffffff166370a08231306040518263ffffffff1660e01b81526004016110009190611cb9565b60206040518083038186803b15801561101857600080fd5b505afa15801561102c573d6000803e3d6000fd5b505050506040513d601f19601f820116820180604052508101906110509190611bae565b8111155b1561106657611061611662565b611092565b6002600160146101000a81548160ff0219169083600481111561108c5761108b612210565b5b02179055505b50565b600960009054906101000a900473ffffffffffffffffffffffffffffffffffffffff1681565b60126020528060005260406000206000915090508060000154908060010160009054906101000a900461ffff16905082565b600860009054906101000a900460ff1681565b600860019054906101000a900473ffffffffffffffffffffffffffffffffffffffff1673ffffffffffffffffffffffffffffffffffffffff163373ffffffffffffffffffffffffffffffffffffffff1614806111a95750600960009054906101000a900473ffffffffffffffffffffffffffffffffffffffff1673ffffffffffffffffffffffffffffffffffffffff163373ffffffffffffffffffffffffffffffffffffffff16145b6111b257600080fd5b6002600160146101000a81548160ff021916908360048111156111d8576111d7612210565b5b0217905550565b60005b600b805490508110156112c157600b81815481106112035761120261226e565b5b9060005260206000200160009054906101000a900473ffffffffffffffffffffffffffffffffffffffff1673ffffffffffffffffffffffffffffffffffffffff163373ffffffffffffffffffffffffffffffffffffffff161415611266576112ae565b6112ad600b828154811061127d5761127c61226e565b5b9060005260206000200160009054906101000a900473ffffffffffffffffffffffffffffffffffffffff166107ce565b5b80806112b990612169565b9150506111e2565b5050565b600a60009054906101000a900473ffffffffffffffffffffffffffffffffffffffff1681565b60035460025411156113265760018060146101000a81548160ff0219169083600481111561131c5761131b612210565b5b0217905550611405565b6003600160146101000a81548160ff0219169083600481111561134c5761134b612210565b5b0217905550611404600660009054906101000a900473ffffffffffffffffffffffffffffffffffffffff1673ffffffffffffffffffffffffffffffffffffffff166370a08231306040518263ffffffff1660e01b81526004016113af9190611cb9565b60206040518083038186803b1580156113c757600080fd5b505afa1580156113db573d6000803e3d6000fd5b505050506040513d601f19601f820116820180604052508101906113ff9190611bae565b611873565b5b565b600860009054906101000a900460ff1661142057600080fd5b600660009054906101000a900473ffffffffffffffffffffffffffffffffffffffff1673ffffffffffffffffffffffffffffffffffffffff1663a9059cbb83836040518363ffffffff1660e01b815260040161147d929190611cef565b602060405180830381600087803b15801561149757600080fd5b505af11580156114ab573d6000803e3d6000fd5b505050506040513d601f19601f820116820180604052508101906114cf9190611b54565b506000633b9aca00601154836114e59190611f61565b6114ef9190611ef3565b9050600160009054906101000a900473ffffffffffffffffffffffffffffffffffffffff1673ffffffffffffffffffffffffffffffffffffffff1663a9059cbb84836040518363ffffffff1660e01b815260040161154e929190611cef565b602060405180830381600087803b15801561156857600080fd5b505af115801561157c573d6000803e3d6000fd5b505050506040513d601f19601f820116820180604052508101906115a09190611b54565b506000600660009054906101000a900473ffffffffffffffffffffffffffffffffffffffff1673ffffffffffffffffffffffffffffffffffffffff166370a08231306040518263ffffffff1660e01b81526004016115fe9190611cb9565b60206040518083038186803b15801561161657600080fd5b505afa15801561162a573d6000803e3d6000fd5b505050506040513d601f19601f8201168201806040525081019061164e9190611bae565b141561165d5761165c611948565b5b505050565b6001600860006101000a81548160ff0219169083151502179055506000600660009054906101000a900473ffffffffffffffffffffffffffffffffffffffff1673ffffffffffffffffffffffffffffffffffffffff166370a08231306040518263ffffffff1660e01b81526004016116da9190611cb9565b60206040518083038186803b1580156116f257600080fd5b505afa158015611706573d6000803e3d6000fd5b505050506040513d601f19601f8201168201806040525081019061172a9190611bae565b90506000600d548261173c9190611fbb565b905060006127106103e8600d546117539190611f61565b61175d9190611ef3565b9050600660009054906101000a900473ffffffffffffffffffffffffffffffffffffffff1673ffffffffffffffffffffffffffffffffffffffff1663a9059cbb60008054906101000a900473ffffffffffffffffffffffffffffffffffffffff16836040518363ffffffff1660e01b81526004016117dc929190611d18565b602060405180830381600087803b1580156117f657600080fd5b505af115801561180a573d6000803e3d6000fd5b505050506040513d601f19601f8201168201806040525081019061182e9190611b54565b5060008211156118425761184182611873565b5b7fc3186fe75cb01c657dd0d1a012f72fa2ce61a25df7dae33d34a814c2e10266d260405160405180910390a1505050565b600660009054906101000a900473ffffffffffffffffffffffffffffffffffffffff1673ffffffffffffffffffffffffffffffffffffffff1663a9059cbb600860019054906101000a900473ffffffffffffffffffffffffffffffffffffffff16836040518363ffffffff1660e01b81526004016118f2929190611cef565b602060405180830381600087803b15801561190c57600080fd5b505af1158015611920573d6000803e3d6000fd5b505050506040513d601f19601f820116820180604052508101906119449190611b54565b5050565b6000600860006101000a81548160ff02191690831515021790555060005b600b80549050811015611a0c57600060126000600b848154811061198d5761198c61226e565b5b9060005260206000200160009054906101000a900473ffffffffffffffffffffffffffffffffffffffff1673ffffffffffffffffffffffffffffffffffffffff1673ffffffffffffffffffffffffffffffffffffffff168152602001908152602001600020600001819055508080611a0490612169565b915050611966565b50565b600081359050611a1e816122c7565b92915050565b600081359050611a33816122de565b92915050565b600081359050611a48816122f5565b92915050565b600081519050611a5d816122f5565b92915050565b600081359050611a728161230c565b92915050565b600081519050611a878161230c565b92915050565b600060208284031215611aa357611aa261229d565b5b6000611ab184828501611a0f565b91505092915050565b600060208284031215611ad057611acf61229d565b5b6000611ade84828501611a24565b91505092915050565b60008060408385031215611afe57611afd61229d565b5b6000611b0c85828601611a0f565b9250506020611b1d85828601611a63565b9150509250929050565b600060208284031215611b3d57611b3c61229d565b5b6000611b4b84828501611a39565b91505092915050565b600060208284031215611b6a57611b6961229d565b5b6000611b7884828501611a4e565b91505092915050565b600060208284031215611b9757611b9661229d565b5b6000611ba584828501611a63565b91505092915050565b600060208284031215611bc457611bc361229d565b5b6000611bd284828501611a78565b91505092915050565b611be481612086565b82525050565b611bf381612001565b82525050565b611c0281611fef565b82525050565b611c1181612013565b82525050565b611c2081612098565b82525050565b611c2f816120aa565b82525050565b611c3e816120bc565b82525050565b611c4d816120ce565b82525050565b6000611c5e82611e49565b611c688185611e54565b9350611c78818560208601612104565b611c81816122a2565b840191505092915050565b611c9581612032565b82525050565b611ca48161206f565b82525050565b611cb381612079565b82525050565b6000602082019050611cce6000830184611bf9565b92915050565b6000602082019050611ce96000830184611bea565b92915050565b6000604082019050611d046000830185611bdb565b611d116020830184611c9b565b9392505050565b6000604082019050611d2d6000830185611bf9565b611d3a6020830184611c9b565b9392505050565b6000602082019050611d566000830184611c08565b92915050565b6000602082019050611d716000830184611c17565b92915050565b6000602082019050611d8c6000830184611c26565b92915050565b6000602082019050611da76000830184611c35565b92915050565b6000602082019050611dc26000830184611c44565b92915050565b60006020820190508181036000830152611de28184611c53565b905092915050565b6000602082019050611dff6000830184611c9b565b92915050565b6000604082019050611e1a6000830185611c9b565b611e276020830184611c8c565b9392505050565b6000602082019050611e436000830184611caa565b92915050565b600081519050919050565b600082825260208201905092915050565b6000611e7082612032565b9150611e7b83612032565b92508261ffff03821115611e9257611e916121b2565b5b828201905092915050565b6000611ea88261206f565b9150611eb38361206f565b9250827fffffffffffffffffffffffffffffffffffffffffffffffffffffffffffffffff03821115611ee857611ee76121b2565b5b828201905092915050565b6000611efe8261206f565b9150611f098361206f565b925082611f1957611f186121e1565b5b828204905092915050565b6000611f2f82612060565b9150611f3a83612060565b92508162ffffff0483118215151615611f5657611f556121b2565b5b828202905092915050565b6000611f6c8261206f565b9150611f778361206f565b9250817fffffffffffffffffffffffffffffffffffffffffffffffffffffffffffffffff0483118215151615611fb057611faf6121b2565b5b828202905092915050565b6000611fc68261206f565b9150611fd18361206f565b925082821015611fe457611fe36121b2565b5b828203905092915050565b6000611ffa82612040565b9050919050565b600061200c82612040565b9050919050565b60008115159050919050565b600081905061202d826122b3565b919050565b600061ffff82169050919050565b600073ffffffffffffffffffffffffffffffffffffffff82169050919050565b600062ffffff82169050919050565b6000819050919050565b600060ff82169050919050565b6000612091826120e0565b9050919050565b60006120a3826120e0565b9050919050565b60006120b5826120e0565b9050919050565b60006120c7826120e0565b9050919050565b60006120d98261201f565b9050919050565b60006120eb826120f2565b9050919050565b60006120fd82612040565b9050919050565b60005b83811015612122578082015181840152602081019050612107565b83811115612131576000848401525b50505050565b6000600282049050600182168061214f57607f821691505b602082108114156121635761216261223f565b5b50919050565b60006121748261206f565b91507fffffffffffffffffffffffffffffffffffffffffffffffffffffffffffffffff8214156121a7576121a66121b2565b5b600182019050919050565b7f4e487b7100000000000000000000000000000000000000000000000000000000600052601160045260246000fd5b7f4e487b7100000000000000000000000000000000000000000000000000000000600052601260045260246000fd5b7f4e487b7100000000000000000000000000000000000000000000000000000000600052602160045260246000fd5b7f4e487b7100000000000000000000000000000000000000000000000000000000600052602260045260246000fd5b7f4e487b7100000000000000000000000000000000000000000000000000000000600052603260045260246000fd5b600080fd5b6000601f19601f8301169050919050565b600581106122c4576122c3612210565b5b50565b6122d081611fef565b81146122db57600080fd5b50565b6122e781612001565b81146122f257600080fd5b50565b6122fe81612013565b811461230957600080fd5b50565b6123158161206f565b811461232057600080fd5b5056fea264697066735822122081a69c857da56f3887b963438d61595e313bc4a5145883be3195cbd1794ca51164736f6c63430008070033",
  "linkReferences": {},
  "deployedLinkReferences": {}
}