{
  "_format": "hh-sol-artifact-1",
  "contractName": "Project",
  "sourceName": "contracts/all.sol",
  "abi": [
    {
      "inputs": [
        {
          "internalType": "address payable",
          "name": "_sourcingLead",
          "type": "address"
        },
        {
          "internalType": "address payable",
          "name": "_client",
          "type": "address"
        },
        {
          "internalType": "address payable",
          "name": "_arbiter",
          "type": "address"
        },
        {
          "internalType": "address",
          "name": "repTokenAddress",
          "type": "address"
        },
        {
          "internalType": "address",
          "name": "_paymentTokenAddress",
          "type": "address"
        },
        {
          "internalType": "uint8",
          "name": "_votingDuration",
          "type": "uint8"
        }
      ],
      "stateMutability": "nonpayable",
      "type": "constructor"
    },
    {
      "anonymous": false,
      "inputs": [],
      "name": "MilestoneApproved",
      "type": "event"
    },
    {
      "inputs": [],
      "name": "PAYMENT_APPROVAL_QUOTA",
      "outputs": [
        {
          "internalType": "uint8",
          "name": "",
          "type": "uint8"
        }
      ],
      "stateMutability": "view",
      "type": "function"
    },
    {
      "inputs": [
        {
          "internalType": "address payable",
          "name": "_teamMember",
          "type": "address"
        }
      ],
      "name": "addTeamMember",
      "outputs": [],
      "stateMutability": "nonpayable",
      "type": "function"
    },
    {
      "inputs": [],
      "name": "approvalAmount",
      "outputs": [
        {
          "internalType": "uint256",
          "name": "",
          "type": "uint256"
        }
      ],
      "stateMutability": "view",
      "type": "function"
    },
    {
      "inputs": [],
      "name": "approveAll",
      "outputs": [],
      "stateMutability": "nonpayable",
      "type": "function"
    },
    {
      "inputs": [
        {
          "internalType": "uint256",
          "name": "_approvalAmount",
          "type": "uint256"
        }
      ],
      "name": "approveMilestone",
      "outputs": [],
      "stateMutability": "nonpayable",
      "type": "function"
    },
    {
      "inputs": [
        {
          "internalType": "address payable",
          "name": "teamMember",
          "type": "address"
        }
      ],
      "name": "approveOne",
      "outputs": [],
      "stateMutability": "nonpayable",
      "type": "function"
    },
    {
      "inputs": [],
      "name": "arbiter",
      "outputs": [
        {
          "internalType": "address payable",
          "name": "",
          "type": "address"
        }
      ],
      "stateMutability": "view",
      "type": "function"
    },
    {
      "inputs": [
        {
          "internalType": "bool",
          "name": "inFavourOfInvoice",
          "type": "bool"
        }
      ],
      "name": "artbitration",
      "outputs": [],
      "stateMutability": "nonpayable",
      "type": "function"
    },
    {
      "inputs": [
        {
          "internalType": "address",
          "name": "_tokenAddress",
          "type": "address"
        },
        {
          "internalType": "uint256",
          "name": "_repWeiPerPaymentGwei",
          "type": "uint256"
        }
      ],
      "name": "changePaymentMethod",
      "outputs": [],
      "stateMutability": "nonpayable",
      "type": "function"
    },
    {
      "inputs": [],
      "name": "client",
      "outputs": [
        {
          "internalType": "address payable",
          "name": "",
          "type": "address"
        }
      ],
      "stateMutability": "view",
      "type": "function"
    },
    {
      "inputs": [],
      "name": "dispute",
      "outputs": [],
      "stateMutability": "nonpayable",
      "type": "function"
    },
    {
      "inputs": [],
      "name": "forumLink",
      "outputs": [
        {
          "internalType": "string",
          "name": "",
          "type": "string"
        }
      ],
      "stateMutability": "view",
      "type": "function"
    },
    {
      "inputs": [
        {
          "internalType": "uint256",
          "name": "_amount",
          "type": "uint256"
        }
      ],
      "name": "invoiceClient",
      "outputs": [],
      "stateMutability": "nonpayable",
      "type": "function"
    },
    {
      "inputs": [],
      "name": "milestoneApproved",
      "outputs": [
        {
          "internalType": "bool",
          "name": "",
          "type": "bool"
        }
      ],
      "stateMutability": "view",
      "type": "function"
    },
    {
      "inputs": [],
      "name": "numberOfVotes",
      "outputs": [
        {
          "internalType": "uint256",
          "name": "",
          "type": "uint256"
        }
      ],
      "stateMutability": "view",
      "type": "function"
    },
    {
      "inputs": [],
      "name": "outstandingInvoice",
      "outputs": [
        {
          "internalType": "uint256",
          "name": "",
          "type": "uint256"
        }
      ],
      "stateMutability": "view",
      "type": "function"
    },
    {
      "inputs": [],
      "name": "paymentToken",
      "outputs": [
        {
          "internalType": "contract IERC20",
          "name": "",
          "type": "address"
        }
      ],
      "stateMutability": "view",
      "type": "function"
    },
    {
      "inputs": [
        {
          "internalType": "address",
          "name": "",
          "type": "address"
        }
      ],
      "name": "payments",
      "outputs": [
        {
          "internalType": "uint256",
          "name": "amount",
          "type": "uint256"
        },
        {
          "internalType": "uint16",
          "name": "numberOfApprovals",
          "type": "uint16"
        }
      ],
      "stateMutability": "view",
      "type": "function"
    },
    {
      "inputs": [],
      "name": "quorum",
      "outputs": [
        {
          "internalType": "uint256",
          "name": "",
          "type": "uint256"
        }
      ],
      "stateMutability": "view",
      "type": "function"
    },
    {
      "inputs": [],
      "name": "registerVote",
      "outputs": [],
      "stateMutability": "nonpayable",
      "type": "function"
    },
    {
      "inputs": [],
      "name": "repToken",
      "outputs": [
        {
          "internalType": "contract RepToken",
          "name": "",
          "type": "address"
        }
      ],
      "stateMutability": "view",
      "type": "function"
    },
    {
      "inputs": [],
      "name": "repWeiPerPaymentGwei",
      "outputs": [
        {
          "internalType": "uint256",
          "name": "",
          "type": "uint256"
        }
      ],
      "stateMutability": "view",
      "type": "function"
    },
    {
      "inputs": [
        {
          "internalType": "address",
          "name": "_to",
          "type": "address"
        },
        {
          "internalType": "uint256",
          "name": "_amount",
          "type": "uint256"
        }
      ],
      "name": "sendRepToken",
      "outputs": [],
      "stateMutability": "nonpayable",
      "type": "function"
    },
    {
      "inputs": [
        {
          "internalType": "uint256",
          "name": "_repWeiPerPaymentGwei",
          "type": "uint256"
        }
      ],
      "name": "setRepWeiValuePerGweiTokenValue",
      "outputs": [],
      "stateMutability": "nonpayable",
      "type": "function"
    },
    {
      "inputs": [],
      "name": "source",
      "outputs": [
        {
          "internalType": "contract Source",
          "name": "",
          "type": "address"
        }
      ],
      "stateMutability": "view",
      "type": "function"
    },
    {
      "inputs": [],
      "name": "sourcingLead",
      "outputs": [
        {
          "internalType": "address payable",
          "name": "",
          "type": "address"
        }
      ],
      "stateMutability": "view",
      "type": "function"
    },
    {
      "inputs": [],
      "name": "startingTime",
      "outputs": [
        {
          "internalType": "uint256",
          "name": "",
          "type": "uint256"
        }
      ],
      "stateMutability": "view",
      "type": "function"
    },
    {
      "inputs": [],
      "name": "status",
      "outputs": [
        {
          "internalType": "enum Project.ProjectStatus",
          "name": "",
          "type": "uint8"
        }
      ],
      "stateMutability": "view",
      "type": "function"
    },
    {
      "inputs": [
        {
          "internalType": "uint256",
          "name": "_amount",
          "type": "uint256"
        }
      ],
      "name": "sumbitPaymentRequest",
      "outputs": [],
      "stateMutability": "nonpayable",
      "type": "function"
    },
    {
      "inputs": [
        {
          "internalType": "bool",
          "name": "decision",
          "type": "bool"
        }
      ],
      "name": "voteOnProject",
      "outputs": [
        {
          "internalType": "bool",
          "name": "",
          "type": "bool"
        }
      ],
      "stateMutability": "nonpayable",
      "type": "function"
    },
    {
      "inputs": [],
      "name": "votes_against",
      "outputs": [
        {
          "internalType": "uint256",
          "name": "",
          "type": "uint256"
        }
      ],
      "stateMutability": "view",
      "type": "function"
    },
    {
      "inputs": [],
      "name": "votes_pro",
      "outputs": [
        {
          "internalType": "uint256",
          "name": "",
          "type": "uint256"
        }
      ],
      "stateMutability": "view",
      "type": "function"
    },
    {
      "inputs": [],
      "name": "votingDuration",
      "outputs": [
        {
          "internalType": "uint8",
          "name": "",
          "type": "uint8"
        }
      ],
      "stateMutability": "view",
      "type": "function"
    }
  ],
  "bytecode": "0x60806040526000600860006101000a81548160ff0219169083151502179055506000600e60006101000a81548160ff0219169083151502179055506000600f556032601060006101000a81548160ff021916908360ff160217905550633b9aca006011553480156200007057600080fd5b5060405162002da538038062002da5833981810160405281019062000096919062000510565b6000600160146101000a81548160ff02191690836004811115620000bf57620000be6200065b565b5b021790555085600960006101000a81548173ffffffffffffffffffffffffffffffffffffffff021916908373ffffffffffffffffffffffffffffffffffffffff160217905550600b600960009054906101000a900473ffffffffffffffffffffffffffffffffffffffff169080600181540180825580915050600190039060005260206000200160009091909190916101000a81548173ffffffffffffffffffffffffffffffffffffffff021916908373ffffffffffffffffffffffffffffffffffffffff16021790555084600860016101000a81548173ffffffffffffffffffffffffffffffffffffffff021916908373ffffffffffffffffffffffffffffffffffffffff16021790555083600a60006101000a81548173ffffffffffffffffffffffffffffffffffffffff021916908373ffffffffffffffffffffffffffffffffffffffff160217905550336000806101000a81548173ffffffffffffffffffffffffffffffffffffffff021916908373ffffffffffffffffffffffffffffffffffffffff16021790555082600160006101000a81548173ffffffffffffffffffffffffffffffffffffffff021916908373ffffffffffffffffffffffffffffffffffffffff16021790555042600c8190555080600960146101000a81548160ff021916908360ff160217905550620002c382601154620002cf60201b60201c565b50505050505062000706565b60008054906101000a900473ffffffffffffffffffffffffffffffffffffffff1673ffffffffffffffffffffffffffffffffffffffff163373ffffffffffffffffffffffffffffffffffffffff161480620003775750600960009054906101000a900473ffffffffffffffffffffffffffffffffffffffff1673ffffffffffffffffffffffffffffffffffffffff163373ffffffffffffffffffffffffffffffffffffffff16145b620003b9576040517f08c379a0000000000000000000000000000000000000000000000000000000008152600401620003b090620005d3565b60405180910390fd5b81600660006101000a81548173ffffffffffffffffffffffffffffffffffffffff021916908373ffffffffffffffffffffffffffffffffffffffff1602179055506200040b816200040f60201b60201c565b5050565b60008054906101000a900473ffffffffffffffffffffffffffffffffffffffff1673ffffffffffffffffffffffffffffffffffffffff163373ffffffffffffffffffffffffffffffffffffffff161480620004b75750600960009054906101000a900473ffffffffffffffffffffffffffffffffffffffff1673ffffffffffffffffffffffffffffffffffffffff163373ffffffffffffffffffffffffffffffffffffffff16145b620004c157600080fd5b8060118190555050565b600081519050620004dc81620006b8565b92915050565b600081519050620004f381620006d2565b92915050565b6000815190506200050a81620006ec565b92915050565b60008060008060008060c0878903121562000530576200052f6200068a565b5b60006200054089828a01620004e2565b96505060206200055389828a01620004e2565b95505060406200056689828a01620004e2565b94505060606200057989828a01620004cb565b93505060806200058c89828a01620004cb565b92505060a06200059f89828a01620004f9565b9150509295509295509295565b6000620005bb601883620005f5565b9150620005c8826200068f565b602082019050919050565b60006020820190508181036000830152620005ee81620005ac565b9050919050565b600082825260208201905092915050565b600062000613826200062e565b9050919050565b600062000627826200062e565b9050919050565b600073ffffffffffffffffffffffffffffffffffffffff82169050919050565b600060ff82169050919050565b7f4e487b7100000000000000000000000000000000000000000000000000000000600052602160045260246000fd5b600080fd5b7f736f75726365206f7220736f757263696e67204c656164210000000000000000600082015250565b620006c38162000606565b8114620006cf57600080fd5b50565b620006dd816200061a565b8114620006e957600080fd5b50565b620006f7816200064e565b81146200070357600080fd5b50565b61268f80620007166000396000f3fe608060405234801561001057600080fd5b50600436106101fb5760003560e01c80633eb2b5ad1161011a578063b13a2c41116100ad578063d2da01821161007c578063d2da018214610520578063e2982c211461053e578063e3ade6d61461056f578063f240f7c31461058d578063fe25e00a14610597576101fb565b8063b13a2c41146104ac578063bad92c27146104ca578063bd5ae89c146104e6578063c438b40f14610504576101fb565b806367e828bf116100e957806367e828bf146104365780636f8a42d414610454578063908c36ca146104705780639872330b1461048e576101fb565b80633eb2b5ad146103c6578063431c0c88146103e257806348916c89146103fe5780634c5d9ddd1461041a576101fb565b80632638e16a11610192578063380d0c0811610161578063380d0c081461036457806339518b5e1461036e57806339d5d1261461038c5780633d1c5ff3146103aa576101fb565b80632638e16a146102ee57806329034a5c1461030a5780633013ce2914610328578063359d393d14610346576101fb565b8063132002fc116101ce578063132002fc1461028a5780631703a018146102a857806318ad3c92146102c6578063200d2ed2146102d0576101fb565b80630dff5008146102005780630e7d490d14610230578063109e94cf1461024e578063128ef1ad1461026c575b600080fd5b61021a60048036038101906102159190611d3f565b6105b5565b6040516102279190611fc2565b60405180910390f35b610238610701565b60405161024591906120cb565b60405180910390f35b610256610707565b6040516102639190611f55565b60405180910390f35b61027461072d565b6040516102819190612049565b60405180910390f35b6102926107bb565b60405161029f919061210f565b60405180910390f35b6102b06107ce565b6040516102bd91906120cb565b60405180910390f35b6102ce6107d4565b005b6102d861083f565b6040516102e5919061202e565b60405180910390f35b61030860048036038101906103039190611cd2565b610852565b005b6103126109fc565b60405161031f9190611ff8565b60405180910390f35b610330610a22565b60405161033d9190611fdd565b60405180910390f35b61034e610a48565b60405161035b91906120cb565b60405180910390f35b61036c610a4e565b005b610376610b33565b60405161038391906120cb565b60405180910390f35b610394610b39565b6040516103a191906120cb565b60405180910390f35b6103c460048036038101906103bf9190611cff565b610b3f565b005b6103e060048036038101906103db9190611cd2565b610c3a565b005b6103fc60048036038101906103f79190611d99565b610da8565b005b61041860048036038101906104139190611cff565b610e62565b005b610434600480360381019061042f9190611d3f565b610f16565b005b61043e610ff4565b60405161044b9190612013565b60405180910390f35b61046e60048036038101906104699190611d99565b611018565b005b61047861107c565b60405161048591906120cb565b60405180910390f35b610496611082565b6040516104a391906120cb565b60405180910390f35b6104b4611088565b6040516104c191906120cb565b60405180910390f35b6104e460048036038101906104df9190611d99565b61108e565b005b6104ee6110d8565b6040516104fb919061210f565b60405180910390f35b61051e60048036038101906105199190611d99565b6110eb565b005b610528611257565b6040516105359190611f55565b60405180910390f35b61055860048036038101906105539190611ca5565b61127d565b6040516105669291906120e6565b60405180910390f35b6105776112af565b6040516105849190611fc2565b60405180910390f35b6105956112c2565b005b61059f6113a1565b6040516105ac9190611f55565b60405180910390f35b6000600960149054906101000a900460ff1660ff16600c54426105d8919061225f565b11156105ef576105e66113c7565b600090506106fc565b6000600160009054906101000a900473ffffffffffffffffffffffffffffffffffffffff1673ffffffffffffffffffffffffffffffffffffffff166370a08231336040518263ffffffff1660e01b815260040161064c9190611f3a565b60206040518083038186803b15801561066457600080fd5b505afa158015610678573d6000803e3d6000fd5b505050506040513d601f19601f8201168201806040525081019061069c9190611dc6565b905082156106c25780600260008282546106b6919061217e565b925050819055506106dc565b80600360008282546106d4919061217e565b925050819055505b6001600460008282546106ef919061217e565b9250508190555060019150505b919050565b60045481565b600860019054906101000a900473ffffffffffffffffffffffffffffffffffffffff1681565b6007805461073a906123cc565b80601f0160208091040260200160405190810160405280929190818152602001828054610766906123cc565b80156107b35780601f10610788576101008083540402835291602001916107b3565b820191906000526020600020905b81548152906001019060200180831161079657829003601f168201915b505050505081565b600960149054906101000a900460ff1681565b60055481565b600960149054906101000a900460ff1660ff16600c54426107f5919061225f565b11610835576040517f08c379a000000000000000000000000000000000000000000000000000000000815260040161082c9061206b565b60405180910390fd5b61083d6113c7565b565b600160149054906101000a900460ff1681565b601360003373ffffffffffffffffffffffffffffffffffffffff1673ffffffffffffffffffffffffffffffffffffffff16815260200190815260200160002060009054906101000a900460ff166108a857600080fd5b6001601260008373ffffffffffffffffffffffffffffffffffffffff1673ffffffffffffffffffffffffffffffffffffffff16815260200190815260200160002060010160008282829054906101000a900461ffff166109089190612146565b92506101000a81548161ffff021916908361ffff1602179055506064601060009054906101000a900460ff1660ff16600b805490506109479190612205565b61095191906121d4565b601260008373ffffffffffffffffffffffffffffffffffffffff1673ffffffffffffffffffffffffffffffffffffffff16815260200190815260200160002060010160009054906101000a900461ffff1661ffff1611156109f9576109f881601260008473ffffffffffffffffffffffffffffffffffffffff1673ffffffffffffffffffffffffffffffffffffffff168152602001908152602001600020600001546114e3565b5b50565b600160009054906101000a900473ffffffffffffffffffffffffffffffffffffffff1681565b600660009054906101000a900473ffffffffffffffffffffffffffffffffffffffff1681565b60035481565b60005b600b80549050811015610b3057600b8181548110610a7257610a71612503565b5b9060005260206000200160009054906101000a900473ffffffffffffffffffffffffffffffffffffffff1673ffffffffffffffffffffffffffffffffffffffff163373ffffffffffffffffffffffffffffffffffffffff161415610ad557610b1d565b610b1c600b8281548110610aec57610aeb612503565b5b9060005260206000200160009054906101000a900473ffffffffffffffffffffffffffffffffffffffff16610852565b5b8080610b28906123fe565b915050610a51565b50565b600c5481565b60025481565b6000600660009054906101000a900473ffffffffffffffffffffffffffffffffffffffff1673ffffffffffffffffffffffffffffffffffffffff166370a08231306040518263ffffffff1660e01b8152600401610b9c9190611f3a565b60206040518083038186803b158015610bb457600080fd5b505afa158015610bc8573d6000803e3d6000fd5b505050506040513d601f19601f82011682018060405250810190610bec9190611dc6565b14610c2c576040517f08c379a0000000000000000000000000000000000000000000000000000000008152600401610c239061208b565b60405180910390fd5b610c36828261173e565b5050565b600960009054906101000a900473ffffffffffffffffffffffffffffffffffffffff1673ffffffffffffffffffffffffffffffffffffffff163373ffffffffffffffffffffffffffffffffffffffff161480610ce1575060008054906101000a900473ffffffffffffffffffffffffffffffffffffffff1673ffffffffffffffffffffffffffffffffffffffff163373ffffffffffffffffffffffffffffffffffffffff16145b610cea57600080fd5b600b819080600181540180825580915050600190039060005260206000200160009091909190916101000a81548173ffffffffffffffffffffffffffffffffffffffff021916908373ffffffffffffffffffffffffffffffffffffffff1602179055506001601360008373ffffffffffffffffffffffffffffffffffffffff1673ffffffffffffffffffffffffffffffffffffffff16815260200190815260200160002060006101000a81548160ff02191690831515021790555050565b60008054906101000a900473ffffffffffffffffffffffffffffffffffffffff1673ffffffffffffffffffffffffffffffffffffffff163373ffffffffffffffffffffffffffffffffffffffff161480610e4f5750600960009054906101000a900473ffffffffffffffffffffffffffffffffffffffff1673ffffffffffffffffffffffffffffffffffffffff163373ffffffffffffffffffffffffffffffffffffffff16145b610e5857600080fd5b8060118190555050565b600160009054906101000a900473ffffffffffffffffffffffffffffffffffffffff1673ffffffffffffffffffffffffffffffffffffffff1663a9059cbb83836040518363ffffffff1660e01b8152600401610ebf929190611f99565b602060405180830381600087803b158015610ed957600080fd5b505af1158015610eed573d6000803e3d6000fd5b505050506040513d601f19601f82011682018060405250810190610f119190611d6c565b505050565b600a60009054906101000a900473ffffffffffffffffffffffffffffffffffffffff1673ffffffffffffffffffffffffffffffffffffffff163373ffffffffffffffffffffffffffffffffffffffff16148015610fa6575060026004811115610f8257610f816124a5565b5b600160149054906101000a900460ff166004811115610fa457610fa36124a5565b5b145b610faf57600080fd5b8015610fbf57600f54600d819055505b60018060146101000a81548160ff02191690836004811115610fe457610fe36124a5565b5b0217905550610ff1611872565b50565b60008054906101000a900473ffffffffffffffffffffffffffffffffffffffff1681565b600960009054906101000a900473ffffffffffffffffffffffffffffffffffffffff1673ffffffffffffffffffffffffffffffffffffffff163373ffffffffffffffffffffffffffffffffffffffff161461107257600080fd5b80600f8190555050565b600d5481565b60115481565b600f5481565b80601260003373ffffffffffffffffffffffffffffffffffffffff1673ffffffffffffffffffffffffffffffffffffffff1681526020019081526020016000206000018190555050565b601060009054906101000a900460ff1681565b600860019054906101000a900473ffffffffffffffffffffffffffffffffffffffff1673ffffffffffffffffffffffffffffffffffffffff163373ffffffffffffffffffffffffffffffffffffffff1614801561114a57506000600f54115b61115357600080fd5b80600d81905550600f5481101580156112165750600660009054906101000a900473ffffffffffffffffffffffffffffffffffffffff1673ffffffffffffffffffffffffffffffffffffffff166370a08231306040518263ffffffff1660e01b81526004016111c29190611f3a565b60206040518083038186803b1580156111da57600080fd5b505afa1580156111ee573d6000803e3d6000fd5b505050506040513d601f19601f820116820180604052508101906112129190611dc6565b8111155b1561122857611223611872565b611254565b6002600160146101000a81548160ff0219169083600481111561124e5761124d6124a5565b5b02179055505b50565b600960009054906101000a900473ffffffffffffffffffffffffffffffffffffffff1681565b60126020528060005260406000206000915090508060000154908060010160009054906101000a900461ffff16905082565b600860009054906101000a900460ff1681565b600860019054906101000a900473ffffffffffffffffffffffffffffffffffffffff1673ffffffffffffffffffffffffffffffffffffffff163373ffffffffffffffffffffffffffffffffffffffff16148061136b5750600960009054906101000a900473ffffffffffffffffffffffffffffffffffffffff1673ffffffffffffffffffffffffffffffffffffffff163373ffffffffffffffffffffffffffffffffffffffff16145b61137457600080fd5b6002600160146101000a81548160ff0219169083600481111561139a576113996124a5565b5b0217905550565b600a60009054906101000a900473ffffffffffffffffffffffffffffffffffffffff1681565b60035460025411156114025760018060146101000a81548160ff021916908360048111156113f8576113f76124a5565b5b02179055506114e1565b6003600160146101000a81548160ff02191690836004811115611428576114276124a5565b5b02179055506114e0600660009054906101000a900473ffffffffffffffffffffffffffffffffffffffff1673ffffffffffffffffffffffffffffffffffffffff166370a08231306040518263ffffffff1660e01b815260040161148b9190611f3a565b60206040518083038186803b1580156114a357600080fd5b505afa1580156114b7573d6000803e3d6000fd5b505050506040513d601f19601f820116820180604052508101906114db9190611dc6565b611a8b565b5b565b600860009054906101000a900460ff166114fc57600080fd5b600660009054906101000a900473ffffffffffffffffffffffffffffffffffffffff1673ffffffffffffffffffffffffffffffffffffffff1663a9059cbb83836040518363ffffffff1660e01b8152600401611559929190611f70565b602060405180830381600087803b15801561157357600080fd5b505af1158015611587573d6000803e3d6000fd5b505050506040513d601f19601f820116820180604052508101906115ab9190611d6c565b506000633b9aca00601154836115c19190612205565b6115cb91906121d4565b9050600160009054906101000a900473ffffffffffffffffffffffffffffffffffffffff1673ffffffffffffffffffffffffffffffffffffffff1663a9059cbb84836040518363ffffffff1660e01b815260040161162a929190611f70565b602060405180830381600087803b15801561164457600080fd5b505af1158015611658573d6000803e3d6000fd5b505050506040513d601f19601f8201168201806040525081019061167c9190611d6c565b506000600660009054906101000a900473ffffffffffffffffffffffffffffffffffffffff1673ffffffffffffffffffffffffffffffffffffffff166370a08231306040518263ffffffff1660e01b81526004016116da9190611f3a565b60206040518083038186803b1580156116f257600080fd5b505afa158015611706573d6000803e3d6000fd5b505050506040513d601f19601f8201168201806040525081019061172a9190611dc6565b141561173957611738611b60565b5b505050565b60008054906101000a900473ffffffffffffffffffffffffffffffffffffffff1673ffffffffffffffffffffffffffffffffffffffff163373ffffffffffffffffffffffffffffffffffffffff1614806117e55750600960009054906101000a900473ffffffffffffffffffffffffffffffffffffffff1673ffffffffffffffffffffffffffffffffffffffff163373ffffffffffffffffffffffffffffffffffffffff16145b611824576040517f08c379a000000000000000000000000000000000000000000000000000000000815260040161181b906120ab565b60405180910390fd5b81600660006101000a81548173ffffffffffffffffffffffffffffffffffffffff021916908373ffffffffffffffffffffffffffffffffffffffff16021790555061186e81610da8565b5050565b6001600860006101000a81548160ff0219169083151502179055506000600660009054906101000a900473ffffffffffffffffffffffffffffffffffffffff1673ffffffffffffffffffffffffffffffffffffffff166370a08231306040518263ffffffff1660e01b81526004016118ea9190611f3a565b60206040518083038186803b15801561190257600080fd5b505afa158015611916573d6000803e3d6000fd5b505050506040513d601f19601f8201168201806040525081019061193a9190611dc6565b90506000600d548261194c919061225f565b905060006127106103e8600d546119639190612205565b61196d91906121d4565b9050600660009054906101000a900473ffffffffffffffffffffffffffffffffffffffff1673ffffffffffffffffffffffffffffffffffffffff1663a9059cbb60008054906101000a900473ffffffffffffffffffffffffffffffffffffffff16836040518363ffffffff1660e01b81526004016119ec929190611f99565b602060405180830381600087803b158015611a0657600080fd5b505af1158015611a1a573d6000803e3d6000fd5b505050506040513d601f19601f82011682018060405250810190611a3e9190611d6c565b506000821115611a5a57611a5182611a8b565b6000600f819055505b7fc3186fe75cb01c657dd0d1a012f72fa2ce61a25df7dae33d34a814c2e10266d260405160405180910390a1505050565b600660009054906101000a900473ffffffffffffffffffffffffffffffffffffffff1673ffffffffffffffffffffffffffffffffffffffff1663a9059cbb600860019054906101000a900473ffffffffffffffffffffffffffffffffffffffff16836040518363ffffffff1660e01b8152600401611b0a929190611f70565b602060405180830381600087803b158015611b2457600080fd5b505af1158015611b38573d6000803e3d6000fd5b505050506040513d601f19601f82011682018060405250810190611b5c9190611d6c565b5050565b6000600860006101000a81548160ff02191690831515021790555060005b600b80549050811015611c2457600060126000600b8481548110611ba557611ba4612503565b5b9060005260206000200160009054906101000a900473ffffffffffffffffffffffffffffffffffffffff1673ffffffffffffffffffffffffffffffffffffffff1673ffffffffffffffffffffffffffffffffffffffff168152602001908152602001600020600001819055508080611c1c906123fe565b915050611b7e565b50565b600081359050611c36816125fd565b92915050565b600081359050611c4b81612614565b92915050565b600081359050611c608161262b565b92915050565b600081519050611c758161262b565b92915050565b600081359050611c8a81612642565b92915050565b600081519050611c9f81612642565b92915050565b600060208284031215611cbb57611cba612532565b5b6000611cc984828501611c27565b91505092915050565b600060208284031215611ce857611ce7612532565b5b6000611cf684828501611c3c565b91505092915050565b60008060408385031215611d1657611d15612532565b5b6000611d2485828601611c27565b9250506020611d3585828601611c7b565b9150509250929050565b600060208284031215611d5557611d54612532565b5b6000611d6384828501611c51565b91505092915050565b600060208284031215611d8257611d81612532565b5b6000611d9084828501611c66565b91505092915050565b600060208284031215611daf57611dae612532565b5b6000611dbd84828501611c7b565b91505092915050565b600060208284031215611ddc57611ddb612532565b5b6000611dea84828501611c90565b91505092915050565b611dfc8161231b565b82525050565b611e0b816122a5565b82525050565b611e1a81612293565b82525050565b611e29816122b7565b82525050565b611e388161232d565b82525050565b611e478161233f565b82525050565b611e5681612351565b82525050565b611e6581612363565b82525050565b6000611e768261212a565b611e808185612135565b9350611e90818560208601612399565b611e9981612537565b840191505092915050565b6000611eb1601783612135565b9150611ebc82612548565b602082019050919050565b6000611ed4603583612135565b9150611edf82612571565b604082019050919050565b6000611ef7601883612135565b9150611f02826125c0565b602082019050919050565b611f16816122d6565b82525050565b611f2581612304565b82525050565b611f348161230e565b82525050565b6000602082019050611f4f6000830184611e11565b92915050565b6000602082019050611f6a6000830184611e02565b92915050565b6000604082019050611f856000830185611df3565b611f926020830184611f1c565b9392505050565b6000604082019050611fae6000830185611e11565b611fbb6020830184611f1c565b9392505050565b6000602082019050611fd76000830184611e20565b92915050565b6000602082019050611ff26000830184611e2f565b92915050565b600060208201905061200d6000830184611e3e565b92915050565b60006020820190506120286000830184611e4d565b92915050565b60006020820190506120436000830184611e5c565b92915050565b600060208201905081810360008301526120638184611e6b565b905092915050565b6000602082019050818103600083015261208481611ea4565b9050919050565b600060208201905081810360008301526120a481611ec7565b9050919050565b600060208201905081810360008301526120c481611eea565b9050919050565b60006020820190506120e06000830184611f1c565b92915050565b60006040820190506120fb6000830185611f1c565b6121086020830184611f0d565b9392505050565b60006020820190506121246000830184611f2b565b92915050565b600081519050919050565b600082825260208201905092915050565b6000612151826122d6565b915061215c836122d6565b92508261ffff0382111561217357612172612447565b5b828201905092915050565b600061218982612304565b915061219483612304565b9250827fffffffffffffffffffffffffffffffffffffffffffffffffffffffffffffffff038211156121c9576121c8612447565b5b828201905092915050565b60006121df82612304565b91506121ea83612304565b9250826121fa576121f9612476565b5b828204905092915050565b600061221082612304565b915061221b83612304565b9250817fffffffffffffffffffffffffffffffffffffffffffffffffffffffffffffffff048311821515161561225457612253612447565b5b828202905092915050565b600061226a82612304565b915061227583612304565b92508282101561228857612287612447565b5b828203905092915050565b600061229e826122e4565b9050919050565b60006122b0826122e4565b9050919050565b60008115159050919050565b60008190506122d1826125e9565b919050565b600061ffff82169050919050565b600073ffffffffffffffffffffffffffffffffffffffff82169050919050565b6000819050919050565b600060ff82169050919050565b600061232682612375565b9050919050565b600061233882612375565b9050919050565b600061234a82612375565b9050919050565b600061235c82612375565b9050919050565b600061236e826122c3565b9050919050565b600061238082612387565b9050919050565b6000612392826122e4565b9050919050565b60005b838110156123b757808201518184015260208101905061239c565b838111156123c6576000848401525b50505050565b600060028204905060018216806123e457607f821691505b602082108114156123f8576123f76124d4565b5b50919050565b600061240982612304565b91507fffffffffffffffffffffffffffffffffffffffffffffffffffffffffffffffff82141561243c5761243b612447565b5b600182019050919050565b7f4e487b7100000000000000000000000000000000000000000000000000000000600052601160045260246000fd5b7f4e487b7100000000000000000000000000000000000000000000000000000000600052601260045260246000fd5b7f4e487b7100000000000000000000000000000000000000000000000000000000600052602160045260246000fd5b7f4e487b7100000000000000000000000000000000000000000000000000000000600052602260045260246000fd5b7f4e487b7100000000000000000000000000000000000000000000000000000000600052603260045260246000fd5b600080fd5b6000601f19601f8301169050919050565b7f566f74696e67206973207374696c6c206f6e676f696e67000000000000000000600082015250565b7f50726576696f757320546f6b656e206e6565647320746f206265206465706c6560008201527f746564206265666f726520746865206368616e67650000000000000000000000602082015250565b7f736f75726365206f7220736f757263696e67204c656164210000000000000000600082015250565b600581106125fa576125f96124a5565b5b50565b61260681612293565b811461261157600080fd5b50565b61261d816122a5565b811461262857600080fd5b50565b612634816122b7565b811461263f57600080fd5b50565b61264b81612304565b811461265657600080fd5b5056fea26469706673582212202aa96a4c8c9a7858a0640c4ad13e738d1e0455588739cebef2580c6e55f39a0564736f6c63430008070033",
  "linkReferences": {},
  "deployedLinkReferences": {}
}