{
  "_format": "hh-sol-artifact-1",
  "contractName": "Project",
  "sourceName": "contracts/all.sol",
  "abi": [
    {
      "inputs": [
        {
          "internalType": "address payable",
          "name": "_sourcingLead",
          "type": "address"
        },
        {
          "internalType": "address payable",
          "name": "_client",
          "type": "address"
        },
        {
          "internalType": "address payable",
          "name": "_arbiter",
          "type": "address"
        },
        {
          "internalType": "address",
          "name": "repTokenAddress",
          "type": "address"
        },
        {
          "internalType": "contract ArbitrationEscrow",
          "name": "_arbitrationEscrow",
          "type": "address"
        },
        {
          "internalType": "address",
          "name": "_paymentTokenAddress",
          "type": "address"
        },
        {
          "internalType": "uint8",
          "name": "_votingDuration",
          "type": "uint8"
        }
      ],
      "stateMutability": "nonpayable",
      "type": "constructor"
    },
    {
      "anonymous": false,
      "inputs": [
        {
          "indexed": false,
          "internalType": "address",
          "name": "disputer",
          "type": "address"
        }
      ],
      "name": "Disputed",
      "type": "event"
    },
    {
      "anonymous": false,
      "inputs": [
        {
          "indexed": false,
          "internalType": "uint256",
          "name": "milestoneIndex",
          "type": "uint256"
        },
        {
          "indexed": false,
          "internalType": "uint256",
          "name": "approvedAmount",
          "type": "uint256"
        }
      ],
      "name": "MilestoneApproved",
      "type": "event"
    },
    {
      "anonymous": false,
      "inputs": [
        {
          "indexed": false,
          "internalType": "uint256",
          "name": "milestoneIndex",
          "type": "uint256"
        }
      ],
      "name": "PayrollRosterSubmitted",
      "type": "event"
    },
    {
      "anonymous": false,
      "inputs": [
        {
          "indexed": false,
          "internalType": "uint256",
          "name": "milestoneIndex",
          "type": "uint256"
        },
        {
          "indexed": false,
          "internalType": "uint256",
          "name": "requetedAmount",
          "type": "uint256"
        }
      ],
      "name": "RequestedAmountAddedToMilestone",
      "type": "event"
    },
    {
      "inputs": [],
      "name": "PAYMENT_APPROVAL_QUOTA",
      "outputs": [
        {
          "internalType": "uint8",
          "name": "",
          "type": "uint8"
        }
      ],
      "stateMutability": "view",
      "type": "function"
    },
    {
      "inputs": [
        {
          "internalType": "uint256",
          "name": "milestoneIndex",
          "type": "uint256"
        },
        {
          "internalType": "uint256",
          "name": "amount",
          "type": "uint256"
        }
      ],
      "name": "addAmountToMilestone",
      "outputs": [],
      "stateMutability": "nonpayable",
      "type": "function"
    },
    {
      "inputs": [
        {
          "internalType": "bytes32",
          "name": "requirementsCid",
          "type": "bytes32"
        }
      ],
      "name": "addMilestone",
      "outputs": [],
      "stateMutability": "nonpayable",
      "type": "function"
    },
    {
      "inputs": [
        {
          "internalType": "address payable",
          "name": "_teamMember",
          "type": "address"
        }
      ],
      "name": "addTeamMember",
      "outputs": [],
      "stateMutability": "nonpayable",
      "type": "function"
    },
    {
      "inputs": [
        {
          "internalType": "address",
          "name": "",
          "type": "address"
        },
        {
          "internalType": "address",
          "name": "",
          "type": "address"
        }
      ],
      "name": "alreadyVotedForNewSourcingLead",
      "outputs": [
        {
          "internalType": "bool",
          "name": "",
          "type": "bool"
        }
      ],
      "stateMutability": "view",
      "type": "function"
    },
    {
      "inputs": [],
      "name": "approvalAmount",
      "outputs": [
        {
          "internalType": "uint256",
          "name": "",
          "type": "uint256"
        }
      ],
      "stateMutability": "view",
      "type": "function"
    },
    {
      "inputs": [
        {
          "internalType": "uint256",
          "name": "milestoneIndex",
          "type": "uint256"
        }
      ],
      "name": "approveMilestone",
      "outputs": [],
      "stateMutability": "nonpayable",
      "type": "function"
    },
    {
      "inputs": [],
      "name": "arbiter",
      "outputs": [
        {
          "internalType": "address payable",
          "name": "",
          "type": "address"
        }
      ],
      "stateMutability": "view",
      "type": "function"
    },
    {
      "inputs": [
        {
          "internalType": "bool",
          "name": "forInvoice",
          "type": "bool"
        }
      ],
      "name": "arbitration",
      "outputs": [],
      "stateMutability": "nonpayable",
      "type": "function"
    },
    {
      "inputs": [],
      "name": "arbitrationEscrow",
      "outputs": [
        {
          "internalType": "contract ArbitrationEscrow",
          "name": "",
          "type": "address"
        }
      ],
      "stateMutability": "view",
      "type": "function"
    },
    {
      "inputs": [
        {
          "internalType": "uint256",
          "name": "milestoneIndex",
          "type": "uint256"
        }
      ],
      "name": "batchPayout",
      "outputs": [],
      "stateMutability": "nonpayable",
      "type": "function"
    },
    {
      "inputs": [
        {
          "internalType": "address",
          "name": "_tokenAddress",
          "type": "address"
        },
        {
          "internalType": "uint256",
          "name": "_repWeiPerPaymentGwei",
          "type": "uint256"
        }
      ],
      "name": "changePaymentMethod",
      "outputs": [],
      "stateMutability": "nonpayable",
      "type": "function"
    },
    {
      "inputs": [],
      "name": "claimSourcingLead",
      "outputs": [],
      "stateMutability": "nonpayable",
      "type": "function"
    },
    {
      "inputs": [],
      "name": "client",
      "outputs": [
        {
          "internalType": "address payable",
          "name": "",
          "type": "address"
        }
      ],
      "stateMutability": "view",
      "type": "function"
    },
    {
      "inputs": [],
      "name": "defaultThreshold",
      "outputs": [
        {
          "internalType": "uint256",
          "name": "",
          "type": "uint256"
        }
      ],
      "stateMutability": "view",
      "type": "function"
    },
    {
      "inputs": [
        {
          "internalType": "uint256[]",
          "name": "milestoneIndices",
          "type": "uint256[]"
        }
      ],
      "name": "dispute",
      "outputs": [],
      "stateMutability": "nonpayable",
      "type": "function"
    },
    {
      "inputs": [
        {
          "internalType": "address",
          "name": "_teamMember",
          "type": "address"
        }
      ],
      "name": "excludeFromTeam",
      "outputs": [],
      "stateMutability": "nonpayable",
      "type": "function"
    },
    {
      "inputs": [
        {
          "internalType": "address",
          "name": "",
          "type": "address"
        },
        {
          "internalType": "address",
          "name": "",
          "type": "address"
        }
      ],
      "name": "excludeMember",
      "outputs": [
        {
          "internalType": "bool",
          "name": "",
          "type": "bool"
        }
      ],
      "stateMutability": "view",
      "type": "function"
    },
    {
      "inputs": [],
      "name": "exclusionThreshold",
      "outputs": [
        {
          "internalType": "uint256",
          "name": "",
          "type": "uint256"
        }
      ],
      "stateMutability": "view",
      "type": "function"
    },
    {
      "inputs": [],
      "name": "forumLink",
      "outputs": [
        {
          "internalType": "string",
          "name": "",
          "type": "string"
        }
      ],
      "stateMutability": "view",
      "type": "function"
    },
    {
      "inputs": [
        {
          "internalType": "uint256",
          "name": "_amount",
          "type": "uint256"
        }
      ],
      "name": "invoiceClient",
      "outputs": [],
      "stateMutability": "nonpayable",
      "type": "function"
    },
    {
      "inputs": [],
      "name": "milestoneApproved",
      "outputs": [
        {
          "internalType": "bool",
          "name": "",
          "type": "bool"
        }
      ],
      "stateMutability": "view",
      "type": "function"
    },
    {
      "inputs": [
        {
          "internalType": "uint256",
          "name": "",
          "type": "uint256"
        }
      ],
      "name": "milestones",
      "outputs": [
        {
          "internalType": "bool",
          "name": "approved",
          "type": "bool"
        },
        {
          "internalType": "bool",
          "name": "inDispute",
          "type": "bool"
        },
        {
          "internalType": "uint256",
          "name": "requestedAmount",
          "type": "uint256"
        },
        {
          "internalType": "bytes32",
          "name": "requirementsCid",
          "type": "bytes32"
        },
        {
          "internalType": "uint256",
          "name": "payrollVetoDeadline",
          "type": "uint256"
        }
      ],
      "stateMutability": "view",
      "type": "function"
    },
    {
      "inputs": [],
      "name": "numberOfVotes",
      "outputs": [
        {
          "internalType": "uint256",
          "name": "",
          "type": "uint256"
        }
      ],
      "stateMutability": "view",
      "type": "function"
    },
    {
      "inputs": [],
      "name": "outstandingInvoice",
      "outputs": [
        {
          "internalType": "uint256",
          "name": "",
          "type": "uint256"
        }
      ],
      "stateMutability": "view",
      "type": "function"
    },
    {
      "inputs": [],
      "name": "paymentToken",
      "outputs": [
        {
          "internalType": "contract IERC20",
          "name": "",
          "type": "address"
        }
      ],
      "stateMutability": "view",
      "type": "function"
    },
    {
      "inputs": [
        {
          "internalType": "address",
          "name": "",
          "type": "address"
        }
      ],
      "name": "payments",
      "outputs": [
        {
          "internalType": "uint256",
          "name": "amount",
          "type": "uint256"
        },
        {
          "internalType": "uint16",
          "name": "numberOfApprovals",
          "type": "uint16"
        }
      ],
      "stateMutability": "view",
      "type": "function"
    },
    {
      "inputs": [],
      "name": "quorum",
      "outputs": [
        {
          "internalType": "uint256",
          "name": "",
          "type": "uint256"
        }
      ],
      "stateMutability": "view",
      "type": "function"
    },
    {
      "inputs": [],
      "name": "registerVote",
      "outputs": [],
      "stateMutability": "nonpayable",
      "type": "function"
    },
    {
      "inputs": [],
      "name": "repToken",
      "outputs": [
        {
          "internalType": "contract RepToken",
          "name": "",
          "type": "address"
        }
      ],
      "stateMutability": "view",
      "type": "function"
    },
    {
      "inputs": [],
      "name": "repWeiPerPaymentGwei",
      "outputs": [
        {
          "internalType": "uint256",
          "name": "",
          "type": "uint256"
        }
      ],
      "stateMutability": "view",
      "type": "function"
    },
    {
      "inputs": [
        {
          "internalType": "address",
          "name": "_nominee",
          "type": "address"
        }
      ],
      "name": "replaceSourcingLead",
      "outputs": [],
      "stateMutability": "nonpayable",
      "type": "function"
    },
    {
      "inputs": [
        {
          "internalType": "address",
          "name": "_to",
          "type": "address"
        },
        {
          "internalType": "uint256",
          "name": "_amount",
          "type": "uint256"
        }
      ],
      "name": "sendRepToken",
      "outputs": [],
      "stateMutability": "nonpayable",
      "type": "function"
    },
    {
      "inputs": [
        {
          "internalType": "uint256",
          "name": "_repWeiPerPaymentGwei",
          "type": "uint256"
        }
      ],
      "name": "setRepWeiValuePerGweiTokenValue",
      "outputs": [],
      "stateMutability": "nonpayable",
      "type": "function"
    },
    {
      "inputs": [],
      "name": "source",
      "outputs": [
        {
          "internalType": "contract Source",
          "name": "",
          "type": "address"
        }
      ],
      "stateMutability": "view",
      "type": "function"
    },
    {
      "inputs": [],
      "name": "sourcingLead",
      "outputs": [
        {
          "internalType": "address payable",
          "name": "",
          "type": "address"
        }
      ],
      "stateMutability": "view",
      "type": "function"
    },
    {
      "inputs": [],
      "name": "startProject",
      "outputs": [],
      "stateMutability": "nonpayable",
      "type": "function"
    },
    {
      "inputs": [],
      "name": "startingTime",
      "outputs": [
        {
          "internalType": "uint256",
          "name": "",
          "type": "uint256"
        }
      ],
      "stateMutability": "view",
      "type": "function"
    },
    {
      "inputs": [],
      "name": "status",
      "outputs": [
        {
          "internalType": "enum Project.ProjectStatus",
          "name": "",
          "type": "uint8"
        }
      ],
      "stateMutability": "view",
      "type": "function"
    },
    {
      "inputs": [
        {
          "internalType": "uint256",
          "name": "milestoneIndex",
          "type": "uint256"
        },
        {
          "internalType": "address[]",
          "name": "payees",
          "type": "address[]"
        },
        {
          "internalType": "uint256[]",
          "name": "amounts",
          "type": "uint256[]"
        }
      ],
      "name": "submitPayrollRoster",
      "outputs": [],
      "stateMutability": "nonpayable",
      "type": "function"
    },
    {
      "inputs": [],
      "name": "vetoDurationForPayments",
      "outputs": [
        {
          "internalType": "uint256",
          "name": "",
          "type": "uint256"
        }
      ],
      "stateMutability": "view",
      "type": "function"
    },
    {
      "inputs": [
        {
          "internalType": "uint256",
          "name": "milestoneIndex",
          "type": "uint256"
        }
      ],
      "name": "vetoPayrollRoster",
      "outputs": [],
      "stateMutability": "nonpayable",
      "type": "function"
    },
    {
      "inputs": [
        {
          "internalType": "bool",
          "name": "decision",
          "type": "bool"
        }
      ],
      "name": "voteOnProject",
      "outputs": [
        {
          "internalType": "bool",
          "name": "",
          "type": "bool"
        }
      ],
      "stateMutability": "nonpayable",
      "type": "function"
    },
    {
      "inputs": [
        {
          "internalType": "address",
          "name": "",
          "type": "address"
        }
      ],
      "name": "voteToExclude",
      "outputs": [
        {
          "internalType": "uint16",
          "name": "",
          "type": "uint16"
        }
      ],
      "stateMutability": "view",
      "type": "function"
    },
    {
      "inputs": [
        {
          "internalType": "address",
          "name": "",
          "type": "address"
        },
        {
          "internalType": "address",
          "name": "",
          "type": "address"
        }
      ],
      "name": "votesForNewSourcingLead",
      "outputs": [
        {
          "internalType": "uint256",
          "name": "",
          "type": "uint256"
        }
      ],
      "stateMutability": "view",
      "type": "function"
    },
    {
      "inputs": [],
      "name": "votes_against",
      "outputs": [
        {
          "internalType": "uint256",
          "name": "",
          "type": "uint256"
        }
      ],
      "stateMutability": "view",
      "type": "function"
    },
    {
      "inputs": [],
      "name": "votes_pro",
      "outputs": [
        {
          "internalType": "uint256",
          "name": "",
          "type": "uint256"
        }
      ],
      "stateMutability": "view",
      "type": "function"
    },
    {
      "inputs": [],
      "name": "votingDuration",
      "outputs": [
        {
          "internalType": "uint8",
          "name": "",
          "type": "uint8"
        }
      ],
      "stateMutability": "view",
      "type": "function"
    }
  ],
  "bytecode": "0x60806040526000600960006101000a81548160ff0219169083151502179055506000600f60006101000a81548160ff02191690831515021790555060006010556032601160006101000a81548160ff021916908360ff160217905550633b9aca00601255620546006013556032601b556032601c553480156200008157600080fd5b50604051620044ce380380620044ce8339818101604052810190620000a79190620005f4565b6000600260146101000a81548160ff02191690836005811115620000d057620000cf6200076a565b5b021790555086600a60006101000a81548173ffffffffffffffffffffffffffffffffffffffff021916908373ffffffffffffffffffffffffffffffffffffffff160217905550600c600a60009054906101000a900473ffffffffffffffffffffffffffffffffffffffff169080600181540180825580915050600190039060005260206000200160009091909190916101000a81548173ffffffffffffffffffffffffffffffffffffffff021916908373ffffffffffffffffffffffffffffffffffffffff160217905550600160166000600a60009054906101000a900473ffffffffffffffffffffffffffffffffffffffff1673ffffffffffffffffffffffffffffffffffffffff1673ffffffffffffffffffffffffffffffffffffffff16815260200190815260200160002060006101000a81548160ff02191690831515021790555085600960016101000a81548173ffffffffffffffffffffffffffffffffffffffff021916908373ffffffffffffffffffffffffffffffffffffffff16021790555082600260006101000a81548173ffffffffffffffffffffffffffffffffffffffff021916908373ffffffffffffffffffffffffffffffffffffffff16021790555084600b60006101000a81548173ffffffffffffffffffffffffffffffffffffffff021916908373ffffffffffffffffffffffffffffffffffffffff160217905550336000806101000a81548173ffffffffffffffffffffffffffffffffffffffff021916908373ffffffffffffffffffffffffffffffffffffffff16021790555083600160006101000a81548173ffffffffffffffffffffffffffffffffffffffff021916908373ffffffffffffffffffffffffffffffffffffffff16021790555042600d8190555080600a60146101000a81548160ff021916908360ff1602179055506200038f826012546200039c60201b60201c565b505050505050506200082f565b60008054906101000a900473ffffffffffffffffffffffffffffffffffffffff1673ffffffffffffffffffffffffffffffffffffffff163373ffffffffffffffffffffffffffffffffffffffff161480620004445750600a60009054906101000a900473ffffffffffffffffffffffffffffffffffffffff1673ffffffffffffffffffffffffffffffffffffffff163373ffffffffffffffffffffffffffffffffffffffff16145b62000486576040517f08c379a00000000000000000000000000000000000000000000000000000000081526004016200047d90620006ce565b60405180910390fd5b81600760006101000a81548173ffffffffffffffffffffffffffffffffffffffff021916908373ffffffffffffffffffffffffffffffffffffffff160217905550620004d881620004dc60201b60201c565b5050565b60008054906101000a900473ffffffffffffffffffffffffffffffffffffffff1673ffffffffffffffffffffffffffffffffffffffff163373ffffffffffffffffffffffffffffffffffffffff161480620005845750600a60009054906101000a900473ffffffffffffffffffffffffffffffffffffffff1673ffffffffffffffffffffffffffffffffffffffff163373ffffffffffffffffffffffffffffffffffffffff16145b6200058e57600080fd5b8060128190555050565b600081519050620005a981620007c7565b92915050565b600081519050620005c081620007e1565b92915050565b600081519050620005d781620007fb565b92915050565b600081519050620005ee8162000815565b92915050565b600080600080600080600060e0888a03121562000616576200061562000799565b5b6000620006268a828b01620005af565b9750506020620006398a828b01620005af565b96505060406200064c8a828b01620005af565b95505060606200065f8a828b0162000598565b9450506080620006728a828b01620005c6565b93505060a0620006858a828b0162000598565b92505060c0620006988a828b01620005dd565b91505092959891949750929550565b6000620006b6601883620006f0565b9150620006c3826200079e565b602082019050919050565b60006020820190508181036000830152620006e981620006a7565b9050919050565b600082825260208201905092915050565b60006200070e826200073d565b9050919050565b600062000722826200073d565b9050919050565b6000620007368262000701565b9050919050565b600073ffffffffffffffffffffffffffffffffffffffff82169050919050565b600060ff82169050919050565b7f4e487b7100000000000000000000000000000000000000000000000000000000600052602160045260246000fd5b600080fd5b7f736f75726365206f7220736f757263696e67204c656164210000000000000000600082015250565b620007d28162000701565b8114620007de57600080fd5b50565b620007ec8162000715565b8114620007f857600080fd5b50565b620008068162000729565b81146200081257600080fd5b50565b62000820816200075d565b81146200082c57600080fd5b50565b613c8f806200083f6000396000f3fe608060405234801561001057600080fd5b50600436106102a05760003560e01c806363066abd11610167578063bd5ae89c116100ce578063e3ade6d611610087578063e3ade6d6146107ba578063e6e70dd6146107d8578063e89e4ed6146107e2578063e958349314610816578063f3120c4414610834578063fe25e00a14610850576102a0565b8063bd5ae89c14610709578063c438b40f14610727578063c7656f6e14610743578063c9e3f0fa1461074d578063d2da01821461076b578063e2982c2114610789576102a0565b80639872330b116101205780639872330b1461065d5780639ec601721461067b5780639fa3613814610697578063b13a2c41146106b3578063bcba3e97146106d1578063bd238fe6146106ed576102a0565b806363066abd1461059d57806367e828bf146105b95780636f8a42d4146105d75780637e96ea14146105f35780638f320c771461060f578063908c36ca1461063f576102a0565b80632fee8e3e1161020b5780633d1c5ff3116101c45780633d1c5ff3146104df5780633eb2b5ad146104fb578063417c09c014610517578063431c0c881461054757806348916c891461056357806353f10a4b1461057f576102a0565b80632fee8e3e1461042d5780633013ce291461044b578063359d393d1461046957806335baea341461048757806339518b5e146104a357806339d5d126146104c1576102a0565b8063132002fc1161025d578063132002fc1461037b5780631703a0181461039957806318ad3c92146103b75780631dfef340146103c1578063200d2ed2146103f157806329034a5c1461040f576102a0565b806308422702146102a55780630d581232146102d55780630dff5008146102f15780630e7d490d14610321578063109e94cf1461033f578063128ef1ad1461035d575b600080fd5b6102bf60048036038101906102ba9190612db0565b61086e565b6040516102cc91906132a4565b60405180910390f35b6102ef60048036038101906102ea9190612fe5565b61089d565b005b61030b60048036038101906103069190612e79565b610994565b60405161031891906132a4565b60405180910390f35b610329610ae0565b6040516103369190613496565b60405180910390f35b610347610ae6565b604051610354919061320e565b60405180910390f35b610365610b0c565b6040516103729190613399565b60405180910390f35b610383610b9a565b6040516103909190613503565b60405180910390f35b6103a1610bad565b6040516103ae9190613496565b60405180910390f35b6103bf610bb3565b005b6103db60048036038101906103d69190612db0565b610c1e565b6040516103e89190613496565b60405180910390f35b6103f9610c43565b604051610406919061337e565b60405180910390f35b610417610c56565b6040516104249190613348565b60405180910390f35b610435610c7c565b6040516104429190613312565b60405180910390f35b610453610ca2565b604051610460919061332d565b60405180910390f35b610471610cc8565b60405161047e9190613496565b60405180910390f35b6104a1600480360381019061049c9190612f5a565b610cce565b005b6104ab610da8565b6040516104b89190613496565b60405180910390f35b6104c9610dae565b6040516104d69190613496565b60405180910390f35b6104f960048036038101906104f49190612df0565b610db4565b005b61051560048036038101906105109190612d83565b610eaf565b005b610531600480360381019061052c9190612d56565b61101d565b60405161053e919061347b565b60405180910390f35b610561600480360381019061055c9190612f00565b61103e565b005b61057d60048036038101906105789190612df0565b6110f8565b005b6105876111ac565b6040516105949190613496565b60405180910390f35b6105b760048036038101906105b29190612f00565b6111b2565b005b6105c1611248565b6040516105ce9190613363565b60405180910390f35b6105f160048036038101906105ec9190612f00565b61126c565b005b61060d60048036038101906106089190612ed3565b6112d0565b005b61062960048036038101906106249190612db0565b611468565b60405161063691906132a4565b60405180910390f35b610647611497565b6040516106549190613496565b60405180910390f35b61066561149d565b6040516106729190613496565b60405180910390f35b61069560048036038101906106909190612e30565b6114a3565b005b6106b160048036038101906106ac9190612f00565b611631565b005b6106bb611969565b6040516106c89190613496565b60405180910390f35b6106eb60048036038101906106e69190612d56565b61196f565b005b61070760048036038101906107029190612e79565b611c42565b005b610711611ea5565b60405161071e9190613503565b60405180910390f35b610741600480360381019061073c9190612f00565b611eb8565b005b61074b611ff0565b005b610755611ff2565b6040516107629190613496565b60405180910390f35b610773611ff8565b604051610780919061320e565b60405180910390f35b6107a3600480360381019061079e9190612d56565b61201e565b6040516107b19291906134b1565b60405180910390f35b6107c2612050565b6040516107cf91906132a4565b60405180910390f35b6107e0612063565b005b6107fc60048036038101906107f79190612f00565b612372565b60405161080d9594939291906132bf565b60405180910390f35b61081e6123d2565b60405161082b9190613496565b60405180910390f35b61084e60048036038101906108499190612d56565b6123d8565b005b6108586125f3565b604051610865919061320e565b60405180910390f35b601a6020528160005260406000206020528060005260406000206000915091509054906101000a900460ff1681565b600a60009054906101000a900473ffffffffffffffffffffffffffffffffffffffff1673ffffffffffffffffffffffffffffffffffffffff163373ffffffffffffffffffffffffffffffffffffffff161461092d576040517f08c379a00000000000000000000000000000000000000000000000000000000081526004016109249061341b565b60405180910390fd5b8060148381548110610942576109416139c1565b5b9060005260206000209060060201600101819055507fd63106bdd6a3a4503e009de7bdcddc32ba7d9fc512c33d2bff1accb631d88a3082826040516109889291906134da565b60405180910390a15050565b6000600a60149054906101000a900460ff1660ff16600d54426109b791906136d0565b11156109ce576109c5612619565b60009050610adb565b6000600160009054906101000a900473ffffffffffffffffffffffffffffffffffffffff1673ffffffffffffffffffffffffffffffffffffffff166370a08231336040518263ffffffff1660e01b8152600401610a2b91906131f3565b60206040518083038186803b158015610a4357600080fd5b505afa158015610a57573d6000803e3d6000fd5b505050506040513d601f19601f82011682018060405250810190610a7b9190612f2d565b90508215610aa1578060036000828254610a9591906135ef565b92505081905550610abb565b8060046000828254610ab391906135ef565b925050819055505b600160056000828254610ace91906135ef565b9250508190555060019150505b919050565b60055481565b600960019054906101000a900473ffffffffffffffffffffffffffffffffffffffff1681565b60088054610b1990613859565b80601f0160208091040260200160405190810160405280929190818152602001828054610b4590613859565b8015610b925780601f10610b6757610100808354040283529160200191610b92565b820191906000526020600020905b815481529060010190602001808311610b7557829003601f168201915b505050505081565b600a60149054906101000a900460ff1681565b60065481565b600a60149054906101000a900460ff1660ff16600d5442610bd491906136d0565b11610c14576040517f08c379a0000000000000000000000000000000000000000000000000000000008152600401610c0b906133bb565b60405180910390fd5b610c1c612619565b565b6019602052816000526040600020602052806000526040600020600091509150505481565b600260149054906101000a900460ff1681565b600160009054906101000a900473ffffffffffffffffffffffffffffffffffffffff1681565b600260009054906101000a900473ffffffffffffffffffffffffffffffffffffffff1681565b600760009054906101000a900473ffffffffffffffffffffffffffffffffffffffff1681565b60045481565b600a60009054906101000a900473ffffffffffffffffffffffffffffffffffffffff1673ffffffffffffffffffffffffffffffffffffffff163373ffffffffffffffffffffffffffffffffffffffff16148015610d2c575080518251145b610d3557600080fd5b60135442610d4391906135ef565b60148481548110610d5757610d566139c1565b5b9060005260206000209060060201600301819055507fe35031d60f2f841b5b780ddd4c92c4ddea78f371eff5306b4edb3d14899b87c883604051610d9b9190613496565b60405180910390a1505050565b600d5481565b60035481565b6000600760009054906101000a900473ffffffffffffffffffffffffffffffffffffffff1673ffffffffffffffffffffffffffffffffffffffff166370a08231306040518263ffffffff1660e01b8152600401610e1191906131f3565b60206040518083038186803b158015610e2957600080fd5b505afa158015610e3d573d6000803e3d6000fd5b505050506040513d601f19601f82011682018060405250810190610e619190612f2d565b14610ea1576040517f08c379a0000000000000000000000000000000000000000000000000000000008152600401610e98906133db565b60405180910390fd5b610eab8282612736565b5050565b600a60009054906101000a900473ffffffffffffffffffffffffffffffffffffffff1673ffffffffffffffffffffffffffffffffffffffff163373ffffffffffffffffffffffffffffffffffffffff161480610f56575060008054906101000a900473ffffffffffffffffffffffffffffffffffffffff1673ffffffffffffffffffffffffffffffffffffffff163373ffffffffffffffffffffffffffffffffffffffff16145b610f5f57600080fd5b600c819080600181540180825580915050600190039060005260206000200160009091909190916101000a81548173ffffffffffffffffffffffffffffffffffffffff021916908373ffffffffffffffffffffffffffffffffffffffff1602179055506001601660008373ffffffffffffffffffffffffffffffffffffffff1673ffffffffffffffffffffffffffffffffffffffff16815260200190815260200160002060006101000a81548160ff02191690831515021790555050565b60186020528060005260406000206000915054906101000a900461ffff1681565b60008054906101000a900473ffffffffffffffffffffffffffffffffffffffff1673ffffffffffffffffffffffffffffffffffffffff163373ffffffffffffffffffffffffffffffffffffffff1614806110e55750600a60009054906101000a900473ffffffffffffffffffffffffffffffffffffffff1673ffffffffffffffffffffffffffffffffffffffff163373ffffffffffffffffffffffffffffffffffffffff16145b6110ee57600080fd5b8060128190555050565b600160009054906101000a900473ffffffffffffffffffffffffffffffffffffffff1673ffffffffffffffffffffffffffffffffffffffff1663a9059cbb83836040518363ffffffff1660e01b815260040161115592919061327b565b602060405180830381600087803b15801561116f57600080fd5b505af1158015611183573d6000803e3d6000fd5b505050506040513d601f19601f820116820180604052508101906111a79190612ea6565b505050565b601b5481565b601660003373ffffffffffffffffffffffffffffffffffffffff1673ffffffffffffffffffffffffffffffffffffffff16815260200190815260200160002060009054906101000a900460ff1661120857600080fd5b6060806014838154811061121f5761121e6139c1565b5b90600052602060002090600602016005019080519060200190611243929190612a93565b505050565b60008054906101000a900473ffffffffffffffffffffffffffffffffffffffff1681565b600a60009054906101000a900473ffffffffffffffffffffffffffffffffffffffff1673ffffffffffffffffffffffffffffffffffffffff163373ffffffffffffffffffffffffffffffffffffffff16146112c657600080fd5b8060108190555050565b600a60009054906101000a900473ffffffffffffffffffffffffffffffffffffffff1673ffffffffffffffffffffffffffffffffffffffff163373ffffffffffffffffffffffffffffffffffffffff1614611360576040517f08c379a00000000000000000000000000000000000000000000000000000000081526004016113579061345b565b60405180910390fd5b60608060146040518060e00160405280600015158152602001600015158152602001600081526020018581526020016000815260200184815260200183815250908060018154018082558091505060019003906000526020600020906006020160009091909190915060008201518160000160006101000a81548160ff02191690831515021790555060208201518160000160016101000a81548160ff02191690831515021790555060408201518160010155606082015181600201556080820151816003015560a0820151816004019080519060200190611443929190612ae0565b5060c0820151816005019080519060200190611460929190612a93565b505050505050565b60176020528160005260406000206020528060005260406000206000915091509054906101000a900460ff1681565b600e5481565b60125481565b600960019054906101000a900473ffffffffffffffffffffffffffffffffffffffff1673ffffffffffffffffffffffffffffffffffffffff163373ffffffffffffffffffffffffffffffffffffffff16148061154c5750600a60009054906101000a900473ffffffffffffffffffffffffffffffffffffffff1673ffffffffffffffffffffffffffffffffffffffff163373ffffffffffffffffffffffffffffffffffffffff16145b61155557600080fd5b60005b81518110156115cc5760016014838381518110611578576115776139c1565b5b602002602001015181548110611591576115906139c1565b5b906000526020600020906006020160000160016101000a81548160ff02191690831515021790555080806115c4906138bc565b915050611558565b5060028060146101000a81548160ff021916908360058111156115f2576115f1613963565b5b02179055507f695fbf2fe28b4fde5705122279ffc4160ebfc0f45e4d96f7e6699001be5062ef3360405161162691906131f3565b60405180910390a150565b60148181548110611645576116446139c1565b5b906000526020600020906006020160000160009054906101000a900460ff1661166d57600080fd5b60148181548110611681576116806139c1565b5b906000526020600020906006020160030154421161169e57600080fd5b60005b601482815481106116b5576116b46139c1565b5b90600052602060002090600602016004018054905081101561196557600760009054906101000a900473ffffffffffffffffffffffffffffffffffffffff1673ffffffffffffffffffffffffffffffffffffffff1663a9059cbb60148481548110611723576117226139c1565b5b90600052602060002090600602016004018381548110611746576117456139c1565b5b9060005260206000200160009054906101000a900473ffffffffffffffffffffffffffffffffffffffff1660148581548110611785576117846139c1565b5b906000526020600020906006020160050184815481106117a8576117a76139c1565b5b90600052602060002001546040518363ffffffff1660e01b81526004016117d0929190613252565b602060405180830381600087803b1580156117ea57600080fd5b505af11580156117fe573d6000803e3d6000fd5b505050506040513d601f19601f820116820180604052508101906118229190612ea6565b5060008054906101000a900473ffffffffffffffffffffffffffffffffffffffff1673ffffffffffffffffffffffffffffffffffffffff1663bca0adcb60148481548110611873576118726139c1565b5b90600052602060002090600602016004018381548110611896576118956139c1565b5b9060005260206000200160009054906101000a900473ffffffffffffffffffffffffffffffffffffffff16601485815481106118d5576118d46139c1565b5b906000526020600020906006020160050184815481106118f8576118f76139c1565b5b90600052602060002001546040518363ffffffff1660e01b8152600401611920929190613229565b600060405180830381600087803b15801561193a57600080fd5b505af115801561194e573d6000803e3d6000fd5b50505050808061195d906138bc565b9150506116a1565b5050565b60105481565b60001515601760003373ffffffffffffffffffffffffffffffffffffffff1673ffffffffffffffffffffffffffffffffffffffff16815260200190815260200160002060008373ffffffffffffffffffffffffffffffffffffffff1673ffffffffffffffffffffffffffffffffffffffff16815260200190815260200160002060009054906101000a900460ff161515148015611a5a57508073ffffffffffffffffffffffffffffffffffffffff16600a60009054906101000a900473ffffffffffffffffffffffffffffffffffffffff1673ffffffffffffffffffffffffffffffffffffffff1614155b611a6357600080fd5b6001601760003373ffffffffffffffffffffffffffffffffffffffff1673ffffffffffffffffffffffffffffffffffffffff16815260200190815260200160002060008373ffffffffffffffffffffffffffffffffffffffff1673ffffffffffffffffffffffffffffffffffffffff16815260200190815260200160002060006101000a81548160ff0219169083151502179055506001601860008373ffffffffffffffffffffffffffffffffffffffff1673ffffffffffffffffffffffffffffffffffffffff16815260200190815260200160002060008282829054906101000a900461ffff16611b5591906135b7565b92506101000a81548161ffff021916908361ffff1602179055506064601c54600c80549050611b849190613676565b611b8e9190613645565b601860008373ffffffffffffffffffffffffffffffffffffffff1673ffffffffffffffffffffffffffffffffffffffff16815260200190815260200160002060009054906101000a900461ffff1661ffff161115611c3f576000601660008373ffffffffffffffffffffffffffffffffffffffff1673ffffffffffffffffffffffffffffffffffffffff16815260200190815260200160002060006101000a81548160ff0219169083151502179055505b50565b600b60009054906101000a900473ffffffffffffffffffffffffffffffffffffffff1673ffffffffffffffffffffffffffffffffffffffff163373ffffffffffffffffffffffffffffffffffffffff16148015611cd2575060026005811115611cae57611cad613963565b5b600260149054906101000a900460ff166005811115611cd057611ccf613963565b5b145b611cdb57600080fd5b8015611dc457601054600e8190555060005b601480549050811015611dc25760148181548110611d0e57611d0d6139c1565b5b906000526020600020906006020160000160019054906101000a900460ff1615611daf57600160148281548110611d4857611d476139c1565b5b906000526020600020906006020160000160006101000a81548160ff021916908315150217905550600060148281548110611d8657611d856139c1565b5b906000526020600020906006020160000160016101000a81548160ff0219169083151502179055505b8080611dba906138bc565b915050611ced565b505b611e77600760009054906101000a900473ffffffffffffffffffffffffffffffffffffffff1673ffffffffffffffffffffffffffffffffffffffff166370a08231306040518263ffffffff1660e01b8152600401611e2291906131f3565b60206040518083038186803b158015611e3a57600080fd5b505afa158015611e4e573d6000803e3d6000fd5b505050506040513d601f19601f82011682018060405250810190611e729190612f2d565b61286a565b6001600260146101000a81548160ff02191690836005811115611e9d57611e9c613963565b5b021790555050565b601160009054906101000a900460ff1681565b600960019054906101000a900473ffffffffffffffffffffffffffffffffffffffff1673ffffffffffffffffffffffffffffffffffffffff163373ffffffffffffffffffffffffffffffffffffffff1614611f48576040517f08c379a0000000000000000000000000000000000000000000000000000000008152600401611f3f906133fb565b60405180910390fd5b600160148281548110611f5e57611f5d6139c1565b5b906000526020600020906006020160000160006101000a81548160ff0219169083151502179055507f939da3b627c123c81fe5aacebf925163337a0d4f8a03724640618078cad248948160148381548110611fbc57611fbb6139c1565b5b906000526020600020906006020160010154604051611fdc9291906134da565b60405180910390a1611fed8161293f565b50565b565b60135481565b600a60009054906101000a900473ffffffffffffffffffffffffffffffffffffffff1681565b60156020528060005260406000206000915090508060000154908060010160009054906101000a900461ffff16905082565b600960009054906101000a900460ff1681565b6000805b600c8054905081101561214f5760196000600c838154811061208c5761208b6139c1565b5b9060005260206000200160009054906101000a900473ffffffffffffffffffffffffffffffffffffffff1673ffffffffffffffffffffffffffffffffffffffff1673ffffffffffffffffffffffffffffffffffffffff16815260200190815260200160002060003373ffffffffffffffffffffffffffffffffffffffff1673ffffffffffffffffffffffffffffffffffffffff168152602001908152602001600020548261213a91906135ef565b91508080612147906138bc565b915050612067565b506064601b54600c805490506121659190613676565b61216f9190613645565b81111561236f5733600a60006101000a81548173ffffffffffffffffffffffffffffffffffffffff021916908373ffffffffffffffffffffffffffffffffffffffff16021790555060005b600c8054905081101561236d57600060196000600c84815481106121e1576121e06139c1565b5b9060005260206000200160009054906101000a900473ffffffffffffffffffffffffffffffffffffffff1673ffffffffffffffffffffffffffffffffffffffff1673ffffffffffffffffffffffffffffffffffffffff16815260200190815260200160002060003373ffffffffffffffffffffffffffffffffffffffff1673ffffffffffffffffffffffffffffffffffffffff168152602001908152602001600020819055506000601a6000600c84815481106122a1576122a06139c1565b5b9060005260206000200160009054906101000a900473ffffffffffffffffffffffffffffffffffffffff1673ffffffffffffffffffffffffffffffffffffffff1673ffffffffffffffffffffffffffffffffffffffff16815260200190815260200160002060003373ffffffffffffffffffffffffffffffffffffffff1673ffffffffffffffffffffffffffffffffffffffff16815260200190815260200160002060006101000a81548160ff0219169083151502179055508080612365906138bc565b9150506121ba565b505b50565b6014818154811061238257600080fd5b90600052602060002090600602016000915090508060000160009054906101000a900460ff16908060000160019054906101000a900460ff16908060010154908060020154908060030154905085565b601c5481565b600a60009054906101000a900473ffffffffffffffffffffffffffffffffffffffff1673ffffffffffffffffffffffffffffffffffffffff168173ffffffffffffffffffffffffffffffffffffffff16141561243357600080fd5b601a60003373ffffffffffffffffffffffffffffffffffffffff1673ffffffffffffffffffffffffffffffffffffffff16815260200190815260200160002060008273ffffffffffffffffffffffffffffffffffffffff1673ffffffffffffffffffffffffffffffffffffffff16815260200190815260200160002060009054906101000a900460ff16156124c757600080fd5b6001601960003373ffffffffffffffffffffffffffffffffffffffff1673ffffffffffffffffffffffffffffffffffffffff16815260200190815260200160002060008373ffffffffffffffffffffffffffffffffffffffff1673ffffffffffffffffffffffffffffffffffffffff168152602001908152602001600020600082825461255491906135ef565b925050819055506001601a60003373ffffffffffffffffffffffffffffffffffffffff1673ffffffffffffffffffffffffffffffffffffffff16815260200190815260200160002060008373ffffffffffffffffffffffffffffffffffffffff1673ffffffffffffffffffffffffffffffffffffffff16815260200190815260200160002060006101000a81548160ff02191690831515021790555050565b600b60009054906101000a900473ffffffffffffffffffffffffffffffffffffffff1681565b6004546003541115612655576003600260146101000a81548160ff0219169083600581111561264b5761264a613963565b5b0217905550612734565b6005600260146101000a81548160ff0219169083600581111561267b5761267a613963565b5b0217905550612733600760009054906101000a900473ffffffffffffffffffffffffffffffffffffffff1673ffffffffffffffffffffffffffffffffffffffff166370a08231306040518263ffffffff1660e01b81526004016126de91906131f3565b60206040518083038186803b1580156126f657600080fd5b505afa15801561270a573d6000803e3d6000fd5b505050506040513d601f19601f8201168201806040525081019061272e9190612f2d565b61286a565b5b565b60008054906101000a900473ffffffffffffffffffffffffffffffffffffffff1673ffffffffffffffffffffffffffffffffffffffff163373ffffffffffffffffffffffffffffffffffffffff1614806127dd5750600a60009054906101000a900473ffffffffffffffffffffffffffffffffffffffff1673ffffffffffffffffffffffffffffffffffffffff163373ffffffffffffffffffffffffffffffffffffffff16145b61281c576040517f08c379a00000000000000000000000000000000000000000000000000000000081526004016128139061343b565b60405180910390fd5b81600760006101000a81548173ffffffffffffffffffffffffffffffffffffffff021916908373ffffffffffffffffffffffffffffffffffffffff1602179055506128668161103e565b5050565b600760009054906101000a900473ffffffffffffffffffffffffffffffffffffffff1673ffffffffffffffffffffffffffffffffffffffff1663a9059cbb600960019054906101000a900473ffffffffffffffffffffffffffffffffffffffff16836040518363ffffffff1660e01b81526004016128e9929190613252565b602060405180830381600087803b15801561290357600080fd5b505af1158015612917573d6000803e3d6000fd5b505050506040513d601f19601f8201168201806040525081019061293b9190612ea6565b5050565b60148181548110612953576129526139c1565b5b906000526020600020906006020160000160009054906101000a900460ff1661297b57600080fd5b60006127106103e860148481548110612997576129966139c1565b5b9060005260206000209060060201600101546129b39190613676565b6129bd9190613645565b9050600760009054906101000a900473ffffffffffffffffffffffffffffffffffffffff1673ffffffffffffffffffffffffffffffffffffffff1663a9059cbb60008054906101000a900473ffffffffffffffffffffffffffffffffffffffff16836040518363ffffffff1660e01b8152600401612a3c92919061327b565b602060405180830381600087803b158015612a5657600080fd5b505af1158015612a6a573d6000803e3d6000fd5b505050506040513d601f19601f82011682018060405250810190612a8e9190612ea6565b505050565b828054828255906000526020600020908101928215612acf579160200282015b82811115612ace578251825591602001919060010190612ab3565b5b509050612adc9190612b6a565b5090565b828054828255906000526020600020908101928215612b59579160200282015b82811115612b585782518260006101000a81548173ffffffffffffffffffffffffffffffffffffffff021916908373ffffffffffffffffffffffffffffffffffffffff16021790555091602001919060010190612b00565b5b509050612b669190612b6a565b5090565b5b80821115612b83576000816000905550600101612b6b565b5090565b6000612b9a612b9584613543565b61351e565b90508083825260208201905082856020860282011115612bbd57612bbc613a24565b5b60005b85811015612bed5781612bd38882612c67565b845260208401935060208301925050600181019050612bc0565b5050509392505050565b6000612c0a612c058461356f565b61351e565b90508083825260208201905082856020860282011115612c2d57612c2c613a24565b5b60005b85811015612c5d5781612c438882612d2c565b845260208401935060208301925050600181019050612c30565b5050509392505050565b600081359050612c7681613be6565b92915050565b600081359050612c8b81613bfd565b92915050565b600082601f830112612ca657612ca5613a1f565b5b8135612cb6848260208601612b87565b91505092915050565b600082601f830112612cd457612cd3613a1f565b5b8135612ce4848260208601612bf7565b91505092915050565b600081359050612cfc81613c14565b92915050565b600081519050612d1181613c14565b92915050565b600081359050612d2681613c2b565b92915050565b600081359050612d3b81613c42565b92915050565b600081519050612d5081613c42565b92915050565b600060208284031215612d6c57612d6b613a2e565b5b6000612d7a84828501612c67565b91505092915050565b600060208284031215612d9957612d98613a2e565b5b6000612da784828501612c7c565b91505092915050565b60008060408385031215612dc757612dc6613a2e565b5b6000612dd585828601612c67565b9250506020612de685828601612c67565b9150509250929050565b60008060408385031215612e0757612e06613a2e565b5b6000612e1585828601612c67565b9250506020612e2685828601612d2c565b9150509250929050565b600060208284031215612e4657612e45613a2e565b5b600082013567ffffffffffffffff811115612e6457612e63613a29565b5b612e7084828501612cbf565b91505092915050565b600060208284031215612e8f57612e8e613a2e565b5b6000612e9d84828501612ced565b91505092915050565b600060208284031215612ebc57612ebb613a2e565b5b6000612eca84828501612d02565b91505092915050565b600060208284031215612ee957612ee8613a2e565b5b6000612ef784828501612d17565b91505092915050565b600060208284031215612f1657612f15613a2e565b5b6000612f2484828501612d2c565b91505092915050565b600060208284031215612f4357612f42613a2e565b5b6000612f5184828501612d41565b91505092915050565b600080600060608486031215612f7357612f72613a2e565b5b6000612f8186828701612d2c565b935050602084013567ffffffffffffffff811115612fa257612fa1613a29565b5b612fae86828701612c91565b925050604084013567ffffffffffffffff811115612fcf57612fce613a29565b5b612fdb86828701612cbf565b9150509250925092565b60008060408385031215612ffc57612ffb613a2e565b5b600061300a85828601612d2c565b925050602061301b85828601612d2c565b9150509250929050565b61302e81613796565b82525050565b61303d81613716565b82525050565b61304c81613704565b82525050565b61305b81613728565b82525050565b61306a81613734565b82525050565b613079816137a8565b82525050565b613088816137ba565b82525050565b613097816137cc565b82525050565b6130a6816137de565b82525050565b6130b5816137f0565b82525050565b60006130c68261359b565b6130d081856135a6565b93506130e0818560208601613826565b6130e981613a33565b840191505092915050565b60006131016017836135a6565b915061310c82613a44565b602082019050919050565b60006131246035836135a6565b915061312f82613a6d565b604082019050919050565b60006131476027836135a6565b915061315282613abc565b604082019050919050565b600061316a6036836135a6565b915061317582613b0b565b604082019050919050565b600061318d6018836135a6565b915061319882613b5a565b602082019050919050565b60006131b06029836135a6565b91506131bb82613b83565b604082019050919050565b6131cf81613751565b82525050565b6131de8161377f565b82525050565b6131ed81613789565b82525050565b60006020820190506132086000830184613043565b92915050565b60006020820190506132236000830184613034565b92915050565b600060408201905061323e6000830185613034565b61324b60208301846131d5565b9392505050565b60006040820190506132676000830185613025565b61327460208301846131d5565b9392505050565b60006040820190506132906000830185613043565b61329d60208301846131d5565b9392505050565b60006020820190506132b96000830184613052565b92915050565b600060a0820190506132d46000830188613052565b6132e16020830187613052565b6132ee60408301866131d5565b6132fb6060830185613061565b61330860808301846131d5565b9695505050505050565b60006020820190506133276000830184613070565b92915050565b6000602082019050613342600083018461307f565b92915050565b600060208201905061335d600083018461308e565b92915050565b6000602082019050613378600083018461309d565b92915050565b600060208201905061339360008301846130ac565b92915050565b600060208201905081810360008301526133b381846130bb565b905092915050565b600060208201905081810360008301526133d4816130f4565b9050919050565b600060208201905081810360008301526133f481613117565b9050919050565b600060208201905081810360008301526134148161313a565b9050919050565b600060208201905081810360008301526134348161315d565b9050919050565b6000602082019050818103600083015261345481613180565b9050919050565b60006020820190508181036000830152613474816131a3565b9050919050565b600060208201905061349060008301846131c6565b92915050565b60006020820190506134ab60008301846131d5565b92915050565b60006040820190506134c660008301856131d5565b6134d360208301846131c6565b9392505050565b60006040820190506134ef60008301856131d5565b6134fc60208301846131d5565b9392505050565b600060208201905061351860008301846131e4565b92915050565b6000613528613539565b9050613534828261388b565b919050565b6000604051905090565b600067ffffffffffffffff82111561355e5761355d6139f0565b5b602082029050602081019050919050565b600067ffffffffffffffff82111561358a576135896139f0565b5b602082029050602081019050919050565b600081519050919050565b600082825260208201905092915050565b60006135c282613751565b91506135cd83613751565b92508261ffff038211156135e4576135e3613905565b5b828201905092915050565b60006135fa8261377f565b91506136058361377f565b9250827fffffffffffffffffffffffffffffffffffffffffffffffffffffffffffffffff0382111561363a57613639613905565b5b828201905092915050565b60006136508261377f565b915061365b8361377f565b92508261366b5761366a613934565b5b828204905092915050565b60006136818261377f565b915061368c8361377f565b9250817fffffffffffffffffffffffffffffffffffffffffffffffffffffffffffffffff04831182151516156136c5576136c4613905565b5b828202905092915050565b60006136db8261377f565b91506136e68361377f565b9250828210156136f9576136f8613905565b5b828203905092915050565b600061370f8261375f565b9050919050565b60006137218261375f565b9050919050565b60008115159050919050565b6000819050919050565b600081905061374c82613bd2565b919050565b600061ffff82169050919050565b600073ffffffffffffffffffffffffffffffffffffffff82169050919050565b6000819050919050565b600060ff82169050919050565b60006137a182613802565b9050919050565b60006137b382613802565b9050919050565b60006137c582613802565b9050919050565b60006137d782613802565b9050919050565b60006137e982613802565b9050919050565b60006137fb8261373e565b9050919050565b600061380d82613814565b9050919050565b600061381f8261375f565b9050919050565b60005b83811015613844578082015181840152602081019050613829565b83811115613853576000848401525b50505050565b6000600282049050600182168061387157607f821691505b6020821081141561388557613884613992565b5b50919050565b61389482613a33565b810181811067ffffffffffffffff821117156138b3576138b26139f0565b5b80604052505050565b60006138c78261377f565b91507fffffffffffffffffffffffffffffffffffffffffffffffffffffffffffffffff8214156138fa576138f9613905565b5b600182019050919050565b7f4e487b7100000000000000000000000000000000000000000000000000000000600052601160045260246000fd5b7f4e487b7100000000000000000000000000000000000000000000000000000000600052601260045260246000fd5b7f4e487b7100000000000000000000000000000000000000000000000000000000600052602160045260246000fd5b7f4e487b7100000000000000000000000000000000000000000000000000000000600052602260045260246000fd5b7f4e487b7100000000000000000000000000000000000000000000000000000000600052603260045260246000fd5b7f4e487b7100000000000000000000000000000000000000000000000000000000600052604160045260246000fd5b600080fd5b600080fd5b600080fd5b600080fd5b6000601f19601f8301169050919050565b7f566f74696e67206973207374696c6c206f6e676f696e67000000000000000000600082015250565b7f50726576696f757320546f6b656e206e6565647320746f206265206465706c6560008201527f746564206265666f726520746865206368616e67650000000000000000000000602082015250565b7f4f6e6c792074686520636c69656e742063616e20617070726f76652061206d6960008201527f6c6573746f6e6500000000000000000000000000000000000000000000000000602082015250565b7f4f6e6c792074686520736f757263696e67206c6561642063616e20726571756560008201527f7374207061796d656e742066726f6d20636c69656e7400000000000000000000602082015250565b7f736f75726365206f7220736f757263696e67204c656164210000000000000000600082015250565b7f4f6e6c792074686520736f757263696e67206c6561642063616e20616464206d60008201527f696c6573746f6e65730000000000000000000000000000000000000000000000602082015250565b60068110613be357613be2613963565b5b50565b613bef81613704565b8114613bfa57600080fd5b50565b613c0681613716565b8114613c1157600080fd5b50565b613c1d81613728565b8114613c2857600080fd5b50565b613c3481613734565b8114613c3f57600080fd5b50565b613c4b8161377f565b8114613c5657600080fd5b5056fea26469706673582212202dba7b340fb0ef1354679c6494793dbf4c411faf2b76bd58b553959569d471c164736f6c63430008070033",
  "linkReferences": {},
  "deployedLinkReferences": {}
}