{
  "_format": "hh-sol-artifact-1",
  "contractName": "RepToken",
  "sourceName": "contracts/all.sol",
  "abi": [
    {
      "inputs": [
        {
          "internalType": "string",
          "name": "name",
          "type": "string"
        },
        {
          "internalType": "string",
          "name": "symbol",
          "type": "string"
        }
      ],
      "stateMutability": "nonpayable",
      "type": "constructor"
    },
    {
      "anonymous": false,
      "inputs": [
        {
          "indexed": true,
          "internalType": "address",
          "name": "owner",
          "type": "address"
        },
        {
          "indexed": true,
          "internalType": "address",
          "name": "spender",
          "type": "address"
        },
        {
          "indexed": false,
          "internalType": "uint256",
          "name": "value",
          "type": "uint256"
        }
      ],
      "name": "Approval",
      "type": "event"
    },
    {
      "anonymous": false,
      "inputs": [
        {
          "indexed": true,
          "internalType": "address",
          "name": "from",
          "type": "address"
        },
        {
          "indexed": true,
          "internalType": "address",
          "name": "to",
          "type": "address"
        },
        {
          "indexed": false,
          "internalType": "uint256",
          "name": "value",
          "type": "uint256"
        }
      ],
      "name": "Transfer",
      "type": "event"
    },
    {
      "inputs": [
        {
          "internalType": "uint256",
          "name": "amount",
          "type": "uint256"
        }
      ],
      "name": "FREEMINTING",
      "outputs": [],
      "stateMutability": "nonpayable",
      "type": "function"
    },
    {
      "inputs": [
        {
          "internalType": "address",
          "name": "owner",
          "type": "address"
        },
        {
          "internalType": "address",
          "name": "spender",
          "type": "address"
        }
      ],
      "name": "allowance",
      "outputs": [
        {
          "internalType": "uint256",
          "name": "",
          "type": "uint256"
        }
      ],
      "stateMutability": "view",
      "type": "function"
    },
    {
      "inputs": [
        {
          "internalType": "address",
          "name": "spender",
          "type": "address"
        },
        {
          "internalType": "uint256",
          "name": "amount",
          "type": "uint256"
        }
      ],
      "name": "approve",
      "outputs": [
        {
          "internalType": "bool",
          "name": "",
          "type": "bool"
        }
      ],
      "stateMutability": "nonpayable",
      "type": "function"
    },
    {
      "inputs": [
        {
          "internalType": "address",
          "name": "account",
          "type": "address"
        }
      ],
      "name": "balanceOf",
      "outputs": [
        {
          "internalType": "uint256",
          "name": "",
          "type": "uint256"
        }
      ],
      "stateMutability": "view",
      "type": "function"
    },
    {
      "inputs": [],
      "name": "decimals",
      "outputs": [
        {
          "internalType": "uint8",
          "name": "",
          "type": "uint8"
        }
      ],
      "stateMutability": "view",
      "type": "function"
    },
    {
      "inputs": [
        {
          "internalType": "address",
          "name": "spender",
          "type": "address"
        },
        {
          "internalType": "uint256",
          "name": "subtractedValue",
          "type": "uint256"
        }
      ],
      "name": "decreaseAllowance",
      "outputs": [
        {
          "internalType": "bool",
          "name": "",
          "type": "bool"
        }
      ],
      "stateMutability": "nonpayable",
      "type": "function"
    },
    {
      "inputs": [
        {
          "internalType": "address",
          "name": "spender",
          "type": "address"
        },
        {
          "internalType": "uint256",
          "name": "addedValue",
          "type": "uint256"
        }
      ],
      "name": "increaseAllowance",
      "outputs": [
        {
          "internalType": "bool",
          "name": "",
          "type": "bool"
        }
      ],
      "stateMutability": "nonpayable",
      "type": "function"
    },
    {
      "inputs": [
        {
          "internalType": "address",
          "name": "holder",
          "type": "address"
        },
        {
          "internalType": "uint256",
          "name": "amount",
          "type": "uint256"
        }
      ],
      "name": "mint",
      "outputs": [],
      "stateMutability": "nonpayable",
      "type": "function"
    },
    {
      "inputs": [],
      "name": "name",
      "outputs": [
        {
          "internalType": "string",
          "name": "",
          "type": "string"
        }
      ],
      "stateMutability": "view",
      "type": "function"
    },
    {
      "inputs": [],
      "name": "source",
      "outputs": [
        {
          "internalType": "address",
          "name": "",
          "type": "address"
        }
      ],
      "stateMutability": "view",
      "type": "function"
    },
    {
      "inputs": [],
      "name": "symbol",
      "outputs": [
        {
          "internalType": "string",
          "name": "",
          "type": "string"
        }
      ],
      "stateMutability": "view",
      "type": "function"
    },
    {
      "inputs": [],
      "name": "totalSupply",
      "outputs": [
        {
          "internalType": "uint256",
          "name": "",
          "type": "uint256"
        }
      ],
      "stateMutability": "view",
      "type": "function"
    },
    {
      "inputs": [
        {
          "internalType": "address",
          "name": "recipient",
          "type": "address"
        },
        {
          "internalType": "uint256",
          "name": "amount",
          "type": "uint256"
        }
      ],
      "name": "transfer",
      "outputs": [
        {
          "internalType": "bool",
          "name": "",
          "type": "bool"
        }
      ],
      "stateMutability": "nonpayable",
      "type": "function"
    },
    {
      "inputs": [
        {
          "internalType": "address",
          "name": "sender",
          "type": "address"
        },
        {
          "internalType": "address",
          "name": "recipient",
          "type": "address"
        },
        {
          "internalType": "uint256",
          "name": "amount",
          "type": "uint256"
        }
      ],
      "name": "transferFrom",
      "outputs": [
        {
          "internalType": "bool",
          "name": "",
          "type": "bool"
        }
      ],
      "stateMutability": "nonpayable",
      "type": "function"
    }
  ],
  "bytecode": "0x60806040523480156200001157600080fd5b5060405162001afc38038062001afc8339818101604052810190620000379190620001e4565b8181816003908051906020019062000051929190620000b6565b5080600490805190602001906200006a929190620000b6565b50505033600560006101000a81548173ffffffffffffffffffffffffffffffffffffffff021916908373ffffffffffffffffffffffffffffffffffffffff1602179055505050620003ed565b828054620000c490620002fe565b90600052602060002090601f016020900481019282620000e8576000855562000134565b82601f106200010357805160ff191683800117855562000134565b8280016001018555821562000134579182015b828111156200013357825182559160200191906001019062000116565b5b50905062000143919062000147565b5090565b5b808211156200016257600081600090555060010162000148565b5090565b60006200017d620001778462000292565b62000269565b9050828152602081018484840111156200019c576200019b620003cd565b5b620001a9848285620002c8565b509392505050565b600082601f830112620001c957620001c8620003c8565b5b8151620001db84826020860162000166565b91505092915050565b60008060408385031215620001fe57620001fd620003d7565b5b600083015167ffffffffffffffff8111156200021f576200021e620003d2565b5b6200022d85828601620001b1565b925050602083015167ffffffffffffffff811115620002515762000250620003d2565b5b6200025f85828601620001b1565b9150509250929050565b60006200027562000288565b905062000283828262000334565b919050565b6000604051905090565b600067ffffffffffffffff821115620002b057620002af62000399565b5b620002bb82620003dc565b9050602081019050919050565b60005b83811015620002e8578082015181840152602081019050620002cb565b83811115620002f8576000848401525b50505050565b600060028204905060018216806200031757607f821691505b602082108114156200032e576200032d6200036a565b5b50919050565b6200033f82620003dc565b810181811067ffffffffffffffff8211171562000361576200036062000399565b5b80604052505050565b7f4e487b7100000000000000000000000000000000000000000000000000000000600052602260045260246000fd5b7f4e487b7100000000000000000000000000000000000000000000000000000000600052604160045260246000fd5b600080fd5b600080fd5b600080fd5b600080fd5b6000601f19601f8301169050919050565b6116ff80620003fd6000396000f3fe608060405234801561001057600080fd5b50600436106100ea5760003560e01c806340c10f191161008c57806395d89b411161006657806395d89b411461025f578063a457c2d71461027d578063a9059cbb146102ad578063dd62ed3e146102dd576100ea565b806340c10f19146101f557806367e828bf1461021157806370a082311461022f576100ea565b806320e56dbd116100c857806320e56dbd1461015b57806323b872dd14610177578063313ce567146101a757806339509351146101c5576100ea565b806306fdde03146100ef578063095ea7b31461010d57806318160ddd1461013d575b600080fd5b6100f761030d565b6040516101049190611151565b60405180910390f35b61012760048036038101906101229190610f21565b61039f565b6040516101349190611136565b60405180910390f35b6101456103bd565b6040516101529190611273565b60405180910390f35b61017560048036038101906101709190610f61565b6103c7565b005b610191600480360381019061018c9190610ece565b6103d4565b60405161019e9190611136565b60405180910390f35b6101af6104cc565b6040516101bc919061128e565b60405180910390f35b6101df60048036038101906101da9190610f21565b6104d5565b6040516101ec9190611136565b60405180910390f35b61020f600480360381019061020a9190610f21565b610581565b005b6102196105e9565b604051610226919061111b565b60405180910390f35b61024960048036038101906102449190610e61565b61060f565b6040516102569190611273565b60405180910390f35b610267610657565b6040516102749190611151565b60405180910390f35b61029760048036038101906102929190610f21565b6106e9565b6040516102a49190611136565b60405180910390f35b6102c760048036038101906102c29190610f21565b6107d4565b6040516102d49190611136565b60405180910390f35b6102f760048036038101906102f29190610e8e565b6107f2565b6040516103049190611273565b60405180910390f35b60606003805461031c906113a3565b80601f0160208091040260200160405190810160405280929190818152602001828054610348906113a3565b80156103955780601f1061036a57610100808354040283529160200191610395565b820191906000526020600020905b81548152906001019060200180831161037857829003601f168201915b5050505050905090565b60006103b36103ac610879565b8484610881565b6001905092915050565b6000600254905090565b6103d13382610a4c565b50565b60006103e1848484610bac565b6000600160008673ffffffffffffffffffffffffffffffffffffffff1673ffffffffffffffffffffffffffffffffffffffff168152602001908152602001600020600061042c610879565b73ffffffffffffffffffffffffffffffffffffffff1673ffffffffffffffffffffffffffffffffffffffff168152602001908152602001600020549050828110156104ac576040517f08c379a00000000000000000000000000000000000000000000000000000000081526004016104a3906111d3565b60405180910390fd5b6104c0856104b8610879565b858403610881565b60019150509392505050565b60006012905090565b60006105776104e2610879565b8484600160006104f0610879565b73ffffffffffffffffffffffffffffffffffffffff1673ffffffffffffffffffffffffffffffffffffffff16815260200190815260200160002060008873ffffffffffffffffffffffffffffffffffffffff1673ffffffffffffffffffffffffffffffffffffffff1681526020019081526020016000205461057291906112c5565b610881565b6001905092915050565b600560009054906101000a900473ffffffffffffffffffffffffffffffffffffffff1673ffffffffffffffffffffffffffffffffffffffff163373ffffffffffffffffffffffffffffffffffffffff16146105db57600080fd5b6105e58282610a4c565b5050565b600560009054906101000a900473ffffffffffffffffffffffffffffffffffffffff1681565b60008060008373ffffffffffffffffffffffffffffffffffffffff1673ffffffffffffffffffffffffffffffffffffffff168152602001908152602001600020549050919050565b606060048054610666906113a3565b80601f0160208091040260200160405190810160405280929190818152602001828054610692906113a3565b80156106df5780601f106106b4576101008083540402835291602001916106df565b820191906000526020600020905b8154815290600101906020018083116106c257829003601f168201915b5050505050905090565b600080600160006106f8610879565b73ffffffffffffffffffffffffffffffffffffffff1673ffffffffffffffffffffffffffffffffffffffff16815260200190815260200160002060008573ffffffffffffffffffffffffffffffffffffffff1673ffffffffffffffffffffffffffffffffffffffff168152602001908152602001600020549050828110156107b5576040517f08c379a00000000000000000000000000000000000000000000000000000000081526004016107ac90611233565b60405180910390fd5b6107c96107c0610879565b85858403610881565b600191505092915050565b60006107e86107e1610879565b8484610bac565b6001905092915050565b6000600160008473ffffffffffffffffffffffffffffffffffffffff1673ffffffffffffffffffffffffffffffffffffffff16815260200190815260200160002060008373ffffffffffffffffffffffffffffffffffffffff1673ffffffffffffffffffffffffffffffffffffffff16815260200190815260200160002054905092915050565b600033905090565b600073ffffffffffffffffffffffffffffffffffffffff168373ffffffffffffffffffffffffffffffffffffffff1614156108f1576040517f08c379a00000000000000000000000000000000000000000000000000000000081526004016108e890611213565b60405180910390fd5b600073ffffffffffffffffffffffffffffffffffffffff168273ffffffffffffffffffffffffffffffffffffffff161415610961576040517f08c379a000000000000000000000000000000000000000000000000000000000815260040161095890611193565b60405180910390fd5b80600160008573ffffffffffffffffffffffffffffffffffffffff1673ffffffffffffffffffffffffffffffffffffffff16815260200190815260200160002060008473ffffffffffffffffffffffffffffffffffffffff1673ffffffffffffffffffffffffffffffffffffffff168152602001908152602001600020819055508173ffffffffffffffffffffffffffffffffffffffff168373ffffffffffffffffffffffffffffffffffffffff167f8c5be1e5ebec7d5bd14f71427d1e84f3dd0314c0f7b2291e5b200ac8c7c3b92583604051610a3f9190611273565b60405180910390a3505050565b600073ffffffffffffffffffffffffffffffffffffffff168273ffffffffffffffffffffffffffffffffffffffff161415610abc576040517f08c379a0000000000000000000000000000000000000000000000000000000008152600401610ab390611253565b60405180910390fd5b610ac860008383610e2d565b8060026000828254610ada91906112c5565b92505081905550806000808473ffffffffffffffffffffffffffffffffffffffff1673ffffffffffffffffffffffffffffffffffffffff1681526020019081526020016000206000828254610b2f91906112c5565b925050819055508173ffffffffffffffffffffffffffffffffffffffff16600073ffffffffffffffffffffffffffffffffffffffff167fddf252ad1be2c89b69c2b068fc378daa952ba7f163c4a11628f55a4df523b3ef83604051610b949190611273565b60405180910390a3610ba860008383610e32565b5050565b600073ffffffffffffffffffffffffffffffffffffffff168373ffffffffffffffffffffffffffffffffffffffff161415610c1c576040517f08c379a0000000000000000000000000000000000000000000000000000000008152600401610c13906111f3565b60405180910390fd5b600073ffffffffffffffffffffffffffffffffffffffff168273ffffffffffffffffffffffffffffffffffffffff161415610c8c576040517f08c379a0000000000000000000000000000000000000000000000000000000008152600401610c8390611173565b60405180910390fd5b610c97838383610e2d565b60008060008573ffffffffffffffffffffffffffffffffffffffff1673ffffffffffffffffffffffffffffffffffffffff16815260200190815260200160002054905081811015610d1d576040517f08c379a0000000000000000000000000000000000000000000000000000000008152600401610d14906111b3565b60405180910390fd5b8181036000808673ffffffffffffffffffffffffffffffffffffffff1673ffffffffffffffffffffffffffffffffffffffff16815260200190815260200160002081905550816000808573ffffffffffffffffffffffffffffffffffffffff1673ffffffffffffffffffffffffffffffffffffffff1681526020019081526020016000206000828254610db091906112c5565b925050819055508273ffffffffffffffffffffffffffffffffffffffff168473ffffffffffffffffffffffffffffffffffffffff167fddf252ad1be2c89b69c2b068fc378daa952ba7f163c4a11628f55a4df523b3ef84604051610e149190611273565b60405180910390a3610e27848484610e32565b50505050565b505050565b505050565b600081359050610e468161169b565b92915050565b600081359050610e5b816116b2565b92915050565b600060208284031215610e7757610e76611433565b5b6000610e8584828501610e37565b91505092915050565b60008060408385031215610ea557610ea4611433565b5b6000610eb385828601610e37565b9250506020610ec485828601610e37565b9150509250929050565b600080600060608486031215610ee757610ee6611433565b5b6000610ef586828701610e37565b9350506020610f0686828701610e37565b9250506040610f1786828701610e4c565b9150509250925092565b60008060408385031215610f3857610f37611433565b5b6000610f4685828601610e37565b9250506020610f5785828601610e4c565b9150509250929050565b600060208284031215610f7757610f76611433565b5b6000610f8584828501610e4c565b91505092915050565b610f978161131b565b82525050565b610fa68161132d565b82525050565b6000610fb7826112a9565b610fc181856112b4565b9350610fd1818560208601611370565b610fda81611438565b840191505092915050565b6000610ff26023836112b4565b9150610ffd82611449565b604082019050919050565b60006110156022836112b4565b915061102082611498565b604082019050919050565b60006110386026836112b4565b9150611043826114e7565b604082019050919050565b600061105b6028836112b4565b915061106682611536565b604082019050919050565b600061107e6025836112b4565b915061108982611585565b604082019050919050565b60006110a16024836112b4565b91506110ac826115d4565b604082019050919050565b60006110c46025836112b4565b91506110cf82611623565b604082019050919050565b60006110e7601f836112b4565b91506110f282611672565b602082019050919050565b61110681611359565b82525050565b61111581611363565b82525050565b60006020820190506111306000830184610f8e565b92915050565b600060208201905061114b6000830184610f9d565b92915050565b6000602082019050818103600083015261116b8184610fac565b905092915050565b6000602082019050818103600083015261118c81610fe5565b9050919050565b600060208201905081810360008301526111ac81611008565b9050919050565b600060208201905081810360008301526111cc8161102b565b9050919050565b600060208201905081810360008301526111ec8161104e565b9050919050565b6000602082019050818103600083015261120c81611071565b9050919050565b6000602082019050818103600083015261122c81611094565b9050919050565b6000602082019050818103600083015261124c816110b7565b9050919050565b6000602082019050818103600083015261126c816110da565b9050919050565b600060208201905061128860008301846110fd565b92915050565b60006020820190506112a3600083018461110c565b92915050565b600081519050919050565b600082825260208201905092915050565b60006112d082611359565b91506112db83611359565b9250827fffffffffffffffffffffffffffffffffffffffffffffffffffffffffffffffff038211156113105761130f6113d5565b5b828201905092915050565b600061132682611339565b9050919050565b60008115159050919050565b600073ffffffffffffffffffffffffffffffffffffffff82169050919050565b6000819050919050565b600060ff82169050919050565b60005b8381101561138e578082015181840152602081019050611373565b8381111561139d576000848401525b50505050565b600060028204905060018216806113bb57607f821691505b602082108114156113cf576113ce611404565b5b50919050565b7f4e487b7100000000000000000000000000000000000000000000000000000000600052601160045260246000fd5b7f4e487b7100000000000000000000000000000000000000000000000000000000600052602260045260246000fd5b600080fd5b6000601f19601f8301169050919050565b7f45524332303a207472616e7366657220746f20746865207a65726f206164647260008201527f6573730000000000000000000000000000000000000000000000000000000000602082015250565b7f45524332303a20617070726f766520746f20746865207a65726f20616464726560008201527f7373000000000000000000000000000000000000000000000000000000000000602082015250565b7f45524332303a207472616e7366657220616d6f756e742065786365656473206260008201527f616c616e63650000000000000000000000000000000000000000000000000000602082015250565b7f45524332303a207472616e7366657220616d6f756e742065786365656473206160008201527f6c6c6f77616e6365000000000000000000000000000000000000000000000000602082015250565b7f45524332303a207472616e736665722066726f6d20746865207a65726f20616460008201527f6472657373000000000000000000000000000000000000000000000000000000602082015250565b7f45524332303a20617070726f76652066726f6d20746865207a65726f2061646460008201527f7265737300000000000000000000000000000000000000000000000000000000602082015250565b7f45524332303a2064656372656173656420616c6c6f77616e63652062656c6f7760008201527f207a65726f000000000000000000000000000000000000000000000000000000602082015250565b7f45524332303a206d696e7420746f20746865207a65726f206164647265737300600082015250565b6116a48161131b565b81146116af57600080fd5b50565b6116bb81611359565b81146116c657600080fd5b5056fea2646970667358221220dd24f57c9661a810271453b31c49d220a71efdbe88d81e47b6205d955186c57564736f6c63430008070033",
  "linkReferences": {},
  "deployedLinkReferences": {}
}