{
  "_format": "hh-sol-artifact-1",
  "contractName": "RepToken",
  "sourceName": "contracts/all.sol",
  "abi": [
    {
      "inputs": [
        {
          "internalType": "uint256",
          "name": "initialSupply",
          "type": "uint256"
        }
      ],
      "stateMutability": "nonpayable",
      "type": "constructor"
    },
    {
      "anonymous": false,
      "inputs": [
        {
          "indexed": true,
          "internalType": "address",
          "name": "owner",
          "type": "address"
        },
        {
          "indexed": true,
          "internalType": "address",
          "name": "spender",
          "type": "address"
        },
        {
          "indexed": false,
          "internalType": "uint256",
          "name": "value",
          "type": "uint256"
        }
      ],
      "name": "Approval",
      "type": "event"
    },
    {
      "anonymous": false,
      "inputs": [
        {
          "indexed": true,
          "internalType": "address",
          "name": "from",
          "type": "address"
        },
        {
          "indexed": true,
          "internalType": "address",
          "name": "to",
          "type": "address"
        },
        {
          "indexed": false,
          "internalType": "uint256",
          "name": "value",
          "type": "uint256"
        }
      ],
      "name": "Transfer",
      "type": "event"
    },
    {
      "inputs": [
        {
          "internalType": "uint256",
          "name": "amount",
          "type": "uint256"
        }
      ],
      "name": "FREEMINTING",
      "outputs": [],
      "stateMutability": "nonpayable",
      "type": "function"
    },
    {
      "inputs": [
        {
          "internalType": "address",
          "name": "owner",
          "type": "address"
        },
        {
          "internalType": "address",
          "name": "spender",
          "type": "address"
        }
      ],
      "name": "allowance",
      "outputs": [
        {
          "internalType": "uint256",
          "name": "",
          "type": "uint256"
        }
      ],
      "stateMutability": "view",
      "type": "function"
    },
    {
      "inputs": [
        {
          "internalType": "address",
          "name": "spender",
          "type": "address"
        },
        {
          "internalType": "uint256",
          "name": "amount",
          "type": "uint256"
        }
      ],
      "name": "approve",
      "outputs": [
        {
          "internalType": "bool",
          "name": "",
          "type": "bool"
        }
      ],
      "stateMutability": "nonpayable",
      "type": "function"
    },
    {
      "inputs": [
        {
          "internalType": "address",
          "name": "account",
          "type": "address"
        }
      ],
      "name": "balanceOf",
      "outputs": [
        {
          "internalType": "uint256",
          "name": "",
          "type": "uint256"
        }
      ],
      "stateMutability": "view",
      "type": "function"
    },
    {
      "inputs": [],
      "name": "decimals",
      "outputs": [
        {
          "internalType": "uint8",
          "name": "",
          "type": "uint8"
        }
      ],
      "stateMutability": "view",
      "type": "function"
    },
    {
      "inputs": [
        {
          "internalType": "address",
          "name": "spender",
          "type": "address"
        },
        {
          "internalType": "uint256",
          "name": "subtractedValue",
          "type": "uint256"
        }
      ],
      "name": "decreaseAllowance",
      "outputs": [
        {
          "internalType": "bool",
          "name": "",
          "type": "bool"
        }
      ],
      "stateMutability": "nonpayable",
      "type": "function"
    },
    {
      "inputs": [
        {
          "internalType": "address",
          "name": "spender",
          "type": "address"
        },
        {
          "internalType": "uint256",
          "name": "addedValue",
          "type": "uint256"
        }
      ],
      "name": "increaseAllowance",
      "outputs": [
        {
          "internalType": "bool",
          "name": "",
          "type": "bool"
        }
      ],
      "stateMutability": "nonpayable",
      "type": "function"
    },
    {
      "inputs": [],
      "name": "name",
      "outputs": [
        {
          "internalType": "string",
          "name": "",
          "type": "string"
        }
      ],
      "stateMutability": "view",
      "type": "function"
    },
    {
      "inputs": [],
      "name": "symbol",
      "outputs": [
        {
          "internalType": "string",
          "name": "",
          "type": "string"
        }
      ],
      "stateMutability": "view",
      "type": "function"
    },
    {
      "inputs": [],
      "name": "totalSupply",
      "outputs": [
        {
          "internalType": "uint256",
          "name": "",
          "type": "uint256"
        }
      ],
      "stateMutability": "view",
      "type": "function"
    },
    {
      "inputs": [
        {
          "internalType": "address",
          "name": "recipient",
          "type": "address"
        },
        {
          "internalType": "uint256",
          "name": "amount",
          "type": "uint256"
        }
      ],
      "name": "transfer",
      "outputs": [
        {
          "internalType": "bool",
          "name": "",
          "type": "bool"
        }
      ],
      "stateMutability": "nonpayable",
      "type": "function"
    },
    {
      "inputs": [
        {
          "internalType": "address",
          "name": "sender",
          "type": "address"
        },
        {
          "internalType": "address",
          "name": "recipient",
          "type": "address"
        },
        {
          "internalType": "uint256",
          "name": "amount",
          "type": "uint256"
        }
      ],
      "name": "transferFrom",
      "outputs": [
        {
          "internalType": "bool",
          "name": "",
          "type": "bool"
        }
      ],
      "stateMutability": "nonpayable",
      "type": "function"
    }
  ],
  "bytecode": "0x60806040523480156200001157600080fd5b5060405162001b1e38038062001b1e83398181016040528101906200003791906200033a565b6040518060400160405280600f81526020017f644f52472052657075746174696f6e00000000000000000000000000000000008152506040518060400160405280600381526020017f44525400000000000000000000000000000000000000000000000000000000008152508160039080519060200190620000bb92919062000273565b508060049080519060200190620000d492919062000273565b505050620000e93382620000f060201b60201c565b5062000537565b600073ffffffffffffffffffffffffffffffffffffffff168273ffffffffffffffffffffffffffffffffffffffff16141562000163576040517f08c379a00000000000000000000000000000000000000000000000000000000081526004016200015a90620003a4565b60405180910390fd5b62000177600083836200026960201b60201c565b80600260008282546200018b9190620003f4565b92505081905550806000808473ffffffffffffffffffffffffffffffffffffffff1673ffffffffffffffffffffffffffffffffffffffff1681526020019081526020016000206000828254620001e29190620003f4565b925050819055508173ffffffffffffffffffffffffffffffffffffffff16600073ffffffffffffffffffffffffffffffffffffffff167fddf252ad1be2c89b69c2b068fc378daa952ba7f163c4a11628f55a4df523b3ef83604051620002499190620003c6565b60405180910390a362000265600083836200026e60201b60201c565b5050565b505050565b505050565b82805462000281906200045b565b90600052602060002090601f016020900481019282620002a55760008555620002f1565b82601f10620002c057805160ff1916838001178555620002f1565b82800160010185558215620002f1579182015b82811115620002f0578251825591602001919060010190620002d3565b5b50905062000300919062000304565b5090565b5b808211156200031f57600081600090555060010162000305565b5090565b60008151905062000334816200051d565b92915050565b600060208284031215620003535762000352620004ef565b5b6000620003638482850162000323565b91505092915050565b60006200037b601f83620003e3565b91506200038882620004f4565b602082019050919050565b6200039e8162000451565b82525050565b60006020820190508181036000830152620003bf816200036c565b9050919050565b6000602082019050620003dd600083018462000393565b92915050565b600082825260208201905092915050565b6000620004018262000451565b91506200040e8362000451565b9250827fffffffffffffffffffffffffffffffffffffffffffffffffffffffffffffffff0382111562000446576200044562000491565b5b828201905092915050565b6000819050919050565b600060028204905060018216806200047457607f821691505b602082108114156200048b576200048a620004c0565b5b50919050565b7f4e487b7100000000000000000000000000000000000000000000000000000000600052601160045260246000fd5b7f4e487b7100000000000000000000000000000000000000000000000000000000600052602260045260246000fd5b600080fd5b7f45524332303a206d696e7420746f20746865207a65726f206164647265737300600082015250565b620005288162000451565b81146200053457600080fd5b50565b6115d780620005476000396000f3fe608060405234801561001057600080fd5b50600436106100b45760003560e01c80633950935111610071578063395093511461018f57806370a08231146101bf57806395d89b41146101ef578063a457c2d71461020d578063a9059cbb1461023d578063dd62ed3e1461026d576100b4565b806306fdde03146100b9578063095ea7b3146100d757806318160ddd1461010757806320e56dbd1461012557806323b872dd14610141578063313ce56714610171575b600080fd5b6100c161029d565b6040516100ce9190611029565b60405180910390f35b6100f160048036038101906100ec9190610e23565b61032f565b6040516100fe919061100e565b60405180910390f35b61010f61034d565b60405161011c919061114b565b60405180910390f35b61013f600480360381019061013a9190610e63565b610357565b005b61015b60048036038101906101569190610dd0565b610364565b604051610168919061100e565b60405180910390f35b61017961045c565b6040516101869190611166565b60405180910390f35b6101a960048036038101906101a49190610e23565b610465565b6040516101b6919061100e565b60405180910390f35b6101d960048036038101906101d49190610d63565b610511565b6040516101e6919061114b565b60405180910390f35b6101f7610559565b6040516102049190611029565b60405180910390f35b61022760048036038101906102229190610e23565b6105eb565b604051610234919061100e565b60405180910390f35b61025760048036038101906102529190610e23565b6106d6565b604051610264919061100e565b60405180910390f35b61028760048036038101906102829190610d90565b6106f4565b604051610294919061114b565b60405180910390f35b6060600380546102ac9061127b565b80601f01602080910402602001604051908101604052809291908181526020018280546102d89061127b565b80156103255780601f106102fa57610100808354040283529160200191610325565b820191906000526020600020905b81548152906001019060200180831161030857829003601f168201915b5050505050905090565b600061034361033c61077b565b8484610783565b6001905092915050565b6000600254905090565b610361338261094e565b50565b6000610371848484610aae565b6000600160008673ffffffffffffffffffffffffffffffffffffffff1673ffffffffffffffffffffffffffffffffffffffff16815260200190815260200160002060006103bc61077b565b73ffffffffffffffffffffffffffffffffffffffff1673ffffffffffffffffffffffffffffffffffffffff1681526020019081526020016000205490508281101561043c576040517f08c379a0000000000000000000000000000000000000000000000000000000008152600401610433906110ab565b60405180910390fd5b6104508561044861077b565b858403610783565b60019150509392505050565b60006012905090565b600061050761047261077b565b84846001600061048061077b565b73ffffffffffffffffffffffffffffffffffffffff1673ffffffffffffffffffffffffffffffffffffffff16815260200190815260200160002060008873ffffffffffffffffffffffffffffffffffffffff1673ffffffffffffffffffffffffffffffffffffffff16815260200190815260200160002054610502919061119d565b610783565b6001905092915050565b60008060008373ffffffffffffffffffffffffffffffffffffffff1673ffffffffffffffffffffffffffffffffffffffff168152602001908152602001600020549050919050565b6060600480546105689061127b565b80601f01602080910402602001604051908101604052809291908181526020018280546105949061127b565b80156105e15780601f106105b6576101008083540402835291602001916105e1565b820191906000526020600020905b8154815290600101906020018083116105c457829003601f168201915b5050505050905090565b600080600160006105fa61077b565b73ffffffffffffffffffffffffffffffffffffffff1673ffffffffffffffffffffffffffffffffffffffff16815260200190815260200160002060008573ffffffffffffffffffffffffffffffffffffffff1673ffffffffffffffffffffffffffffffffffffffff168152602001908152602001600020549050828110156106b7576040517f08c379a00000000000000000000000000000000000000000000000000000000081526004016106ae9061110b565b60405180910390fd5b6106cb6106c261077b565b85858403610783565b600191505092915050565b60006106ea6106e361077b565b8484610aae565b6001905092915050565b6000600160008473ffffffffffffffffffffffffffffffffffffffff1673ffffffffffffffffffffffffffffffffffffffff16815260200190815260200160002060008373ffffffffffffffffffffffffffffffffffffffff1673ffffffffffffffffffffffffffffffffffffffff16815260200190815260200160002054905092915050565b600033905090565b600073ffffffffffffffffffffffffffffffffffffffff168373ffffffffffffffffffffffffffffffffffffffff1614156107f3576040517f08c379a00000000000000000000000000000000000000000000000000000000081526004016107ea906110eb565b60405180910390fd5b600073ffffffffffffffffffffffffffffffffffffffff168273ffffffffffffffffffffffffffffffffffffffff161415610863576040517f08c379a000000000000000000000000000000000000000000000000000000000815260040161085a9061106b565b60405180910390fd5b80600160008573ffffffffffffffffffffffffffffffffffffffff1673ffffffffffffffffffffffffffffffffffffffff16815260200190815260200160002060008473ffffffffffffffffffffffffffffffffffffffff1673ffffffffffffffffffffffffffffffffffffffff168152602001908152602001600020819055508173ffffffffffffffffffffffffffffffffffffffff168373ffffffffffffffffffffffffffffffffffffffff167f8c5be1e5ebec7d5bd14f71427d1e84f3dd0314c0f7b2291e5b200ac8c7c3b92583604051610941919061114b565b60405180910390a3505050565b600073ffffffffffffffffffffffffffffffffffffffff168273ffffffffffffffffffffffffffffffffffffffff1614156109be576040517f08c379a00000000000000000000000000000000000000000000000000000000081526004016109b59061112b565b60405180910390fd5b6109ca60008383610d2f565b80600260008282546109dc919061119d565b92505081905550806000808473ffffffffffffffffffffffffffffffffffffffff1673ffffffffffffffffffffffffffffffffffffffff1681526020019081526020016000206000828254610a31919061119d565b925050819055508173ffffffffffffffffffffffffffffffffffffffff16600073ffffffffffffffffffffffffffffffffffffffff167fddf252ad1be2c89b69c2b068fc378daa952ba7f163c4a11628f55a4df523b3ef83604051610a96919061114b565b60405180910390a3610aaa60008383610d34565b5050565b600073ffffffffffffffffffffffffffffffffffffffff168373ffffffffffffffffffffffffffffffffffffffff161415610b1e576040517f08c379a0000000000000000000000000000000000000000000000000000000008152600401610b15906110cb565b60405180910390fd5b600073ffffffffffffffffffffffffffffffffffffffff168273ffffffffffffffffffffffffffffffffffffffff161415610b8e576040517f08c379a0000000000000000000000000000000000000000000000000000000008152600401610b859061104b565b60405180910390fd5b610b99838383610d2f565b60008060008573ffffffffffffffffffffffffffffffffffffffff1673ffffffffffffffffffffffffffffffffffffffff16815260200190815260200160002054905081811015610c1f576040517f08c379a0000000000000000000000000000000000000000000000000000000008152600401610c169061108b565b60405180910390fd5b8181036000808673ffffffffffffffffffffffffffffffffffffffff1673ffffffffffffffffffffffffffffffffffffffff16815260200190815260200160002081905550816000808573ffffffffffffffffffffffffffffffffffffffff1673ffffffffffffffffffffffffffffffffffffffff1681526020019081526020016000206000828254610cb2919061119d565b925050819055508273ffffffffffffffffffffffffffffffffffffffff168473ffffffffffffffffffffffffffffffffffffffff167fddf252ad1be2c89b69c2b068fc378daa952ba7f163c4a11628f55a4df523b3ef84604051610d16919061114b565b60405180910390a3610d29848484610d34565b50505050565b505050565b505050565b600081359050610d4881611573565b92915050565b600081359050610d5d8161158a565b92915050565b600060208284031215610d7957610d7861130b565b5b6000610d8784828501610d39565b91505092915050565b60008060408385031215610da757610da661130b565b5b6000610db585828601610d39565b9250506020610dc685828601610d39565b9150509250929050565b600080600060608486031215610de957610de861130b565b5b6000610df786828701610d39565b9350506020610e0886828701610d39565b9250506040610e1986828701610d4e565b9150509250925092565b60008060408385031215610e3a57610e3961130b565b5b6000610e4885828601610d39565b9250506020610e5985828601610d4e565b9150509250929050565b600060208284031215610e7957610e7861130b565b5b6000610e8784828501610d4e565b91505092915050565b610e9981611205565b82525050565b6000610eaa82611181565b610eb4818561118c565b9350610ec4818560208601611248565b610ecd81611310565b840191505092915050565b6000610ee560238361118c565b9150610ef082611321565b604082019050919050565b6000610f0860228361118c565b9150610f1382611370565b604082019050919050565b6000610f2b60268361118c565b9150610f36826113bf565b604082019050919050565b6000610f4e60288361118c565b9150610f598261140e565b604082019050919050565b6000610f7160258361118c565b9150610f7c8261145d565b604082019050919050565b6000610f9460248361118c565b9150610f9f826114ac565b604082019050919050565b6000610fb760258361118c565b9150610fc2826114fb565b604082019050919050565b6000610fda601f8361118c565b9150610fe58261154a565b602082019050919050565b610ff981611231565b82525050565b6110088161123b565b82525050565b60006020820190506110236000830184610e90565b92915050565b600060208201905081810360008301526110438184610e9f565b905092915050565b6000602082019050818103600083015261106481610ed8565b9050919050565b6000602082019050818103600083015261108481610efb565b9050919050565b600060208201905081810360008301526110a481610f1e565b9050919050565b600060208201905081810360008301526110c481610f41565b9050919050565b600060208201905081810360008301526110e481610f64565b9050919050565b6000602082019050818103600083015261110481610f87565b9050919050565b6000602082019050818103600083015261112481610faa565b9050919050565b6000602082019050818103600083015261114481610fcd565b9050919050565b60006020820190506111606000830184610ff0565b92915050565b600060208201905061117b6000830184610fff565b92915050565b600081519050919050565b600082825260208201905092915050565b60006111a882611231565b91506111b383611231565b9250827fffffffffffffffffffffffffffffffffffffffffffffffffffffffffffffffff038211156111e8576111e76112ad565b5b828201905092915050565b60006111fe82611211565b9050919050565b60008115159050919050565b600073ffffffffffffffffffffffffffffffffffffffff82169050919050565b6000819050919050565b600060ff82169050919050565b60005b8381101561126657808201518184015260208101905061124b565b83811115611275576000848401525b50505050565b6000600282049050600182168061129357607f821691505b602082108114156112a7576112a66112dc565b5b50919050565b7f4e487b7100000000000000000000000000000000000000000000000000000000600052601160045260246000fd5b7f4e487b7100000000000000000000000000000000000000000000000000000000600052602260045260246000fd5b600080fd5b6000601f19601f8301169050919050565b7f45524332303a207472616e7366657220746f20746865207a65726f206164647260008201527f6573730000000000000000000000000000000000000000000000000000000000602082015250565b7f45524332303a20617070726f766520746f20746865207a65726f20616464726560008201527f7373000000000000000000000000000000000000000000000000000000000000602082015250565b7f45524332303a207472616e7366657220616d6f756e742065786365656473206260008201527f616c616e63650000000000000000000000000000000000000000000000000000602082015250565b7f45524332303a207472616e7366657220616d6f756e742065786365656473206160008201527f6c6c6f77616e6365000000000000000000000000000000000000000000000000602082015250565b7f45524332303a207472616e736665722066726f6d20746865207a65726f20616460008201527f6472657373000000000000000000000000000000000000000000000000000000602082015250565b7f45524332303a20617070726f76652066726f6d20746865207a65726f2061646460008201527f7265737300000000000000000000000000000000000000000000000000000000602082015250565b7f45524332303a2064656372656173656420616c6c6f77616e63652062656c6f7760008201527f207a65726f000000000000000000000000000000000000000000000000000000602082015250565b7f45524332303a206d696e7420746f20746865207a65726f206164647265737300600082015250565b61157c816111f3565b811461158757600080fd5b50565b61159381611231565b811461159e57600080fd5b5056fea26469706673582212209b6e1b279fef593219c9fe25897b3401a8d552fdbd9ae851210cda4f8a06647264736f6c63430008070033",
  "linkReferences": {},
  "deployedLinkReferences": {}
}