{
  "_format": "hh-sol-artifact-1",
  "contractName": "Source",
  "sourceName": "contracts/all.sol",
  "abi": [
    {
      "inputs": [
        {
          "internalType": "string",
          "name": "name",
          "type": "string"
        },
        {
          "internalType": "string",
          "name": "symbol",
          "type": "string"
        }
      ],
      "stateMutability": "nonpayable",
      "type": "constructor"
    },
    {
      "anonymous": false,
      "inputs": [
        {
          "indexed": false,
          "internalType": "address",
          "name": "_human",
          "type": "address"
        }
      ],
      "name": "HumanCreated",
      "type": "event"
    },
    {
      "anonymous": false,
      "inputs": [
        {
          "indexed": false,
          "internalType": "address",
          "name": "_project",
          "type": "address"
        }
      ],
      "name": "ProjectCreated",
      "type": "event"
    },
    {
      "inputs": [
        {
          "internalType": "address",
          "name": "",
          "type": "address"
        }
      ],
      "name": "_isProject",
      "outputs": [
        {
          "internalType": "bool",
          "name": "",
          "type": "bool"
        }
      ],
      "stateMutability": "view",
      "type": "function"
    },
    {
      "inputs": [
        {
          "internalType": "address payable",
          "name": "_client",
          "type": "address"
        },
        {
          "internalType": "address payable",
          "name": "_arbiter",
          "type": "address"
        },
        {
          "internalType": "address",
          "name": "_paymentTokenAddress",
          "type": "address"
        },
        {
          "internalType": "uint8",
          "name": "_votingDuration",
          "type": "uint8"
        }
      ],
      "name": "createProject",
      "outputs": [],
      "stateMutability": "nonpayable",
      "type": "function"
    },
    {
      "inputs": [
        {
          "internalType": "address payable",
          "name": "payee",
          "type": "address"
        },
        {
          "internalType": "uint256",
          "name": "amount",
          "type": "uint256"
        }
      ],
      "name": "mintRepTokens",
      "outputs": [],
      "stateMutability": "nonpayable",
      "type": "function"
    },
    {
      "inputs": [],
      "name": "numberOfProjects",
      "outputs": [
        {
          "internalType": "uint256",
          "name": "",
          "type": "uint256"
        }
      ],
      "stateMutability": "view",
      "type": "function"
    },
    {
      "inputs": [
        {
          "internalType": "uint256",
          "name": "",
          "type": "uint256"
        }
      ],
      "name": "projects",
      "outputs": [
        {
          "internalType": "address",
          "name": "",
          "type": "address"
        }
      ],
      "stateMutability": "view",
      "type": "function"
    },
    {
      "inputs": [],
      "name": "repToken",
      "outputs": [
        {
          "internalType": "contract RepToken",
          "name": "",
          "type": "address"
        }
      ],
      "stateMutability": "view",
      "type": "function"
    }
  ],
  "bytecode": "0x608060405260006003553480156200001657600080fd5b5060405162005fd038038062005fd083398181016040528101906200003c91906200014b565b81816040516200004c90620000bf565b6200005992919062000211565b604051809103906000f08015801562000076573d6000803e3d6000fd5b50600260006101000a81548173ffffffffffffffffffffffffffffffffffffffff021916908373ffffffffffffffffffffffffffffffffffffffff160217905550505062000387565b611afc80620044d483390190565b6000620000e4620000de8462000275565b6200024c565b90508281526020810184848401111562000103576200010262000367565b5b62000110848285620002c7565b509392505050565b600082601f83011262000130576200012f62000362565b5b815162000142848260208601620000cd565b91505092915050565b6000806040838503121562000165576200016462000371565b5b600083015167ffffffffffffffff8111156200018657620001856200036c565b5b620001948582860162000118565b925050602083015167ffffffffffffffff811115620001b857620001b76200036c565b5b620001c68582860162000118565b9150509250929050565b6000620001dd82620002ab565b620001e98185620002b6565b9350620001fb818560208601620002c7565b620002068162000376565b840191505092915050565b600060408201905081810360008301526200022d8185620001d0565b90508181036020830152620002438184620001d0565b90509392505050565b6000620002586200026b565b9050620002668282620002fd565b919050565b6000604051905090565b600067ffffffffffffffff82111562000293576200029262000333565b5b6200029e8262000376565b9050602081019050919050565b600081519050919050565b600082825260208201905092915050565b60005b83811015620002e7578082015181840152602081019050620002ca565b83811115620002f7576000848401525b50505050565b620003088262000376565b810181811067ffffffffffffffff821117156200032a576200032962000333565b5b80604052505050565b7f4e487b7100000000000000000000000000000000000000000000000000000000600052604160045260246000fd5b600080fd5b600080fd5b600080fd5b600080fd5b6000601f19601f8301169050919050565b61413d80620003976000396000f3fe60806040523480156200001157600080fd5b50600436106200006a5760003560e01c8063107046bd146200006f57806329034a5c14620000a55780638e63779614620000c7578063bca0adcb14620000e7578063db5e4c7f1462000107578063f5bea31a1462000129575b600080fd5b6200008d600480360381019062000087919062000574565b6200015f565b6040516200009c91906200061d565b60405180910390f35b620000af6200019f565b604051620000be9190620006f1565b60405180910390f35b620000e56004803603810190620000df9190620004bb565b620001c5565b005b620001056004803603810190620000ff91906200052d565b6200030b565b005b62000111620003f9565b6040516200012091906200070e565b60405180910390f35b62000147600480360381019062000141919062000489565b620003ff565b604051620001569190620006d4565b60405180910390f35b600081815481106200017057600080fd5b906000526020600020016000915054906101000a900473ffffffffffffffffffffffffffffffffffffffff1681565b600260009054906101000a900473ffffffffffffffffffffffffffffffffffffffff1681565b6000338585600260009054906101000a900473ffffffffffffffffffffffffffffffffffffffff168686604051620001fd906200041f565b6200020e969594939291906200063a565b604051809103906000f0801580156200022b573d6000803e3d6000fd5b5090506000819080600181540180825580915050600190039060005260206000200160009091909190916101000a81548173ffffffffffffffffffffffffffffffffffffffff021916908373ffffffffffffffffffffffffffffffffffffffff1602179055506001600460008373ffffffffffffffffffffffffffffffffffffffff1673ffffffffffffffffffffffffffffffffffffffff16815260200190815260200160002060006101000a81548160ff0219169083151502179055506001806000828254620002fd91906200072b565b925050819055505050505050565b600460003373ffffffffffffffffffffffffffffffffffffffff1673ffffffffffffffffffffffffffffffffffffffff16815260200190815260200160002060009054906101000a900460ff166200036257600080fd5b600260009054906101000a900473ffffffffffffffffffffffffffffffffffffffff1673ffffffffffffffffffffffffffffffffffffffff166340c10f1983836040518363ffffffff1660e01b8152600401620003c1929190620006a7565b600060405180830381600087803b158015620003dc57600080fd5b505af1158015620003f1573d6000803e3d6000fd5b505050505050565b60015481565b60046020528060005260406000206000915054906101000a900460ff1681565b61382880620008e083390190565b6000813590506200043e8162000877565b92915050565b600081359050620004558162000891565b92915050565b6000813590506200046c81620008ab565b92915050565b6000813590506200048381620008c5565b92915050565b600060208284031215620004a257620004a162000872565b5b6000620004b2848285016200042d565b91505092915050565b60008060008060808587031215620004d857620004d762000872565b5b6000620004e88782880162000444565b9450506020620004fb8782880162000444565b93505060406200050e878288016200042d565b9250506060620005218782880162000472565b91505092959194509250565b6000806040838503121562000547576200054662000872565b5b6000620005578582860162000444565b92505060206200056a858286016200045b565b9150509250929050565b6000602082840312156200058d576200058c62000872565b5b60006200059d848285016200045b565b91505092915050565b620005b181620007f3565b82525050565b620005c2816200079c565b82525050565b620005d38162000788565b82525050565b620005e481620007b0565b82525050565b620005f58162000807565b82525050565b6200060681620007dc565b82525050565b6200061781620007e6565b82525050565b6000602082019050620006346000830184620005c8565b92915050565b600060c082019050620006516000830189620005b7565b620006606020830188620005b7565b6200066f6040830187620005b7565b6200067e6060830186620005c8565b6200068d6080830185620005c8565b6200069c60a08301846200060c565b979650505050505050565b6000604082019050620006be6000830185620005a6565b620006cd6020830184620005fb565b9392505050565b6000602082019050620006eb6000830184620005d9565b92915050565b6000602082019050620007086000830184620005ea565b92915050565b6000602082019050620007256000830184620005fb565b92915050565b60006200073882620007dc565b91506200074583620007dc565b9250827fffffffffffffffffffffffffffffffffffffffffffffffffffffffffffffffff038211156200077d576200077c62000843565b5b828201905092915050565b60006200079582620007bc565b9050919050565b6000620007a982620007bc565b9050919050565b60008115159050919050565b600073ffffffffffffffffffffffffffffffffffffffff82169050919050565b6000819050919050565b600060ff82169050919050565b600062000800826200081b565b9050919050565b600062000814826200081b565b9050919050565b600062000828826200082f565b9050919050565b60006200083c82620007bc565b9050919050565b7f4e487b7100000000000000000000000000000000000000000000000000000000600052601160045260246000fd5b600080fd5b620008828162000788565b81146200088e57600080fd5b50565b6200089c816200079c565b8114620008a857600080fd5b50565b620008b681620007dc565b8114620008c257600080fd5b50565b620008d081620007e6565b8114620008dc57600080fd5b5056fe60806040526000600860006101000a81548160ff0219169083151502179055506000600e60006101000a81548160ff0219169083151502179055506000600f556032601060006101000a81548160ff021916908360ff160217905550633b9aca006011556205460060125560506018553480156200007c57600080fd5b5060405162003828380380620038288339818101604052810190620000a2919062000596565b6000600160146101000a81548160ff02191690836004811115620000cb57620000ca620006e1565b5b021790555085600960006101000a81548173ffffffffffffffffffffffffffffffffffffffff021916908373ffffffffffffffffffffffffffffffffffffffff160217905550600b600960009054906101000a900473ffffffffffffffffffffffffffffffffffffffff169080600181540180825580915050600190039060005260206000200160009091909190916101000a81548173ffffffffffffffffffffffffffffffffffffffff021916908373ffffffffffffffffffffffffffffffffffffffff160217905550600160156000600960009054906101000a900473ffffffffffffffffffffffffffffffffffffffff1673ffffffffffffffffffffffffffffffffffffffff1673ffffffffffffffffffffffffffffffffffffffff16815260200190815260200160002060006101000a81548160ff02191690831515021790555084600860016101000a81548173ffffffffffffffffffffffffffffffffffffffff021916908373ffffffffffffffffffffffffffffffffffffffff16021790555083600a60006101000a81548173ffffffffffffffffffffffffffffffffffffffff021916908373ffffffffffffffffffffffffffffffffffffffff160217905550336000806101000a81548173ffffffffffffffffffffffffffffffffffffffff021916908373ffffffffffffffffffffffffffffffffffffffff16021790555082600160006101000a81548173ffffffffffffffffffffffffffffffffffffffff021916908373ffffffffffffffffffffffffffffffffffffffff16021790555042600c8190555080600960146101000a81548160ff021916908360ff16021790555062000349826011546200035560201b60201c565b5050505050506200078c565b60008054906101000a900473ffffffffffffffffffffffffffffffffffffffff1673ffffffffffffffffffffffffffffffffffffffff163373ffffffffffffffffffffffffffffffffffffffff161480620003fd5750600960009054906101000a900473ffffffffffffffffffffffffffffffffffffffff1673ffffffffffffffffffffffffffffffffffffffff163373ffffffffffffffffffffffffffffffffffffffff16145b6200043f576040517f08c379a0000000000000000000000000000000000000000000000000000000008152600401620004369062000659565b60405180910390fd5b81600660006101000a81548173ffffffffffffffffffffffffffffffffffffffff021916908373ffffffffffffffffffffffffffffffffffffffff16021790555062000491816200049560201b60201c565b5050565b60008054906101000a900473ffffffffffffffffffffffffffffffffffffffff1673ffffffffffffffffffffffffffffffffffffffff163373ffffffffffffffffffffffffffffffffffffffff1614806200053d5750600960009054906101000a900473ffffffffffffffffffffffffffffffffffffffff1673ffffffffffffffffffffffffffffffffffffffff163373ffffffffffffffffffffffffffffffffffffffff16145b6200054757600080fd5b8060118190555050565b60008151905062000562816200073e565b92915050565b600081519050620005798162000758565b92915050565b600081519050620005908162000772565b92915050565b60008060008060008060c08789031215620005b657620005b562000710565b5b6000620005c689828a0162000568565b9650506020620005d989828a0162000568565b9550506040620005ec89828a0162000568565b9450506060620005ff89828a0162000551565b93505060806200061289828a0162000551565b92505060a06200062589828a016200057f565b9150509295509295509295565b6000620006416018836200067b565b91506200064e8262000715565b602082019050919050565b60006020820190508181036000830152620006748162000632565b9050919050565b600082825260208201905092915050565b60006200069982620006b4565b9050919050565b6000620006ad82620006b4565b9050919050565b600073ffffffffffffffffffffffffffffffffffffffff82169050919050565b600060ff82169050919050565b7f4e487b7100000000000000000000000000000000000000000000000000000000600052602160045260246000fd5b600080fd5b7f736f75726365206f7220736f757263696e67204c656164210000000000000000600082015250565b62000749816200068c565b81146200075557600080fd5b50565b6200076381620006a0565b81146200076f57600080fd5b50565b6200077d81620006d4565b81146200078957600080fd5b50565b61308c806200079c6000396000f3fe608060405234801561001057600080fd5b50600436106102325760003560e01c8063431c0c88116101305780639fa36138116100b8578063d2da01821161007c578063d2da01821461060b578063e2982c2114610629578063e3ade6d61461065a578063e89e4ed614610678578063fe25e00a146106ac57610232565b80639fa3613814610579578063b13a2c4114610595578063bd5ae89c146105b3578063c438b40f146105d1578063c9e3f0fa146105ed57610232565b80636f8a42d4116100ff5780636f8a42d4146104e95780637e96ea141461050557806386d6282c14610521578063908c36ca1461053d5780639872330b1461055b57610232565b8063431c0c881461047757806348916c891461049357806363066abd146104af57806367e828bf146104cb57610232565b806329034a5c116101be57806339518b5e1161018257806339518b5e146103d357806339d5d126146103f15780633d1c5ff31461040f5780633eb2b5ad1461042b578063417c09c01461044757610232565b806329034a5c146103415780632f8cce231461035f5780633013ce291461037b578063359d393d1461039957806335baea34146103b757610232565b8063128ef1ad11610205578063128ef1ad146102bf578063132002fc146102dd5780631703a018146102fb57806318ad3c9214610319578063200d2ed21461032357610232565b80630d581232146102375780630dff5008146102535780630e7d490d14610283578063109e94cf146102a1575b600080fd5b610251600480360381019061024c9190612456565b6106ca565b005b61026d600480360381019061026891906122aa565b6107c1565b60405161027a9190612706565b60405180910390f35b61028b61090d565b60405161029891906128dd565b60405180910390f35b6102a9610913565b6040516102b69190612670565b60405180910390f35b6102c7610939565b6040516102d491906127e0565b60405180910390f35b6102e56109c7565b6040516102f2919061294a565b60405180910390f35b6103036109da565b60405161031091906128dd565b60405180910390f35b6103216109e0565b005b61032b610a4b565b60405161033891906127c5565b60405180910390f35b610349610a5e565b604051610356919061278f565b60405180910390f35b61037960048036038101906103749190612416565b610a84565b005b610383610c5c565b6040516103909190612774565b60405180910390f35b6103a1610c82565b6040516103ae91906128dd565b60405180910390f35b6103d160048036038101906103cc919061238b565b610c88565b005b6103db610d62565b6040516103e891906128dd565b60405180910390f35b6103f9610d68565b60405161040691906128dd565b60405180910390f35b6104296004803603810190610424919061226a565b610d6e565b005b6104456004803603810190610440919061223d565b610e69565b005b610461600480360381019061045c9190612210565b610fd7565b60405161046e91906128c2565b60405180910390f35b610491600480360381019061048c9190612331565b610ff8565b005b6104ad60048036038101906104a8919061226a565b6110b2565b005b6104c960048036038101906104c49190612331565b611166565b005b6104d36111fc565b6040516104e091906127aa565b60405180910390f35b61050360048036038101906104fe9190612331565b611220565b005b61051f600480360381019061051a9190612304565b611284565b005b61053b60048036038101906105369190612331565b61141c565b005b610545611548565b60405161055291906128dd565b60405180910390f35b61056361154e565b60405161057091906128dd565b60405180910390f35b610593600480360381019061058e9190612331565b611554565b005b61059d61188c565b6040516105aa91906128dd565b60405180910390f35b6105bb611892565b6040516105c8919061294a565b60405180910390f35b6105eb60048036038101906105e69190612331565b6118a5565b005b6105f56119dd565b60405161060291906128dd565b60405180910390f35b6106136119e3565b6040516106209190612670565b60405180910390f35b610643600480360381019061063e9190612210565b611a09565b6040516106519291906128f8565b60405180910390f35b610662611a3b565b60405161066f9190612706565b60405180910390f35b610692600480360381019061068d9190612331565b611a4e565b6040516106a3959493929190612721565b60405180910390f35b6106b4611aae565b6040516106c19190612670565b60405180910390f35b600960009054906101000a900473ffffffffffffffffffffffffffffffffffffffff1673ffffffffffffffffffffffffffffffffffffffff163373ffffffffffffffffffffffffffffffffffffffff161461075a576040517f08c379a000000000000000000000000000000000000000000000000000000000815260040161075190612862565b60405180910390fd5b806013838154811061076f5761076e612dbe565b5b9060005260206000209060060201600101819055507fd63106bdd6a3a4503e009de7bdcddc32ba7d9fc512c33d2bff1accb631d88a3082826040516107b5929190612921565b60405180910390a15050565b6000600960149054906101000a900460ff1660ff16600c54426107e49190612adf565b11156107fb576107f2611ad4565b60009050610908565b6000600160009054906101000a900473ffffffffffffffffffffffffffffffffffffffff1673ffffffffffffffffffffffffffffffffffffffff166370a08231336040518263ffffffff1660e01b81526004016108589190612655565b60206040518083038186803b15801561087057600080fd5b505afa158015610884573d6000803e3d6000fd5b505050506040513d601f19601f820116820180604052508101906108a8919061235e565b905082156108ce5780600260008282546108c291906129fe565b925050819055506108e8565b80600360008282546108e091906129fe565b925050819055505b6001600460008282546108fb91906129fe565b9250508190555060019150505b919050565b60045481565b600860019054906101000a900473ffffffffffffffffffffffffffffffffffffffff1681565b6007805461094690612c56565b80601f016020809104026020016040519081016040528092919081815260200182805461097290612c56565b80156109bf5780601f10610994576101008083540402835291602001916109bf565b820191906000526020600020905b8154815290600101906020018083116109a257829003601f168201915b505050505081565b600960149054906101000a900460ff1681565b60055481565b600960149054906101000a900460ff1660ff16600c5442610a019190612adf565b11610a41576040517f08c379a0000000000000000000000000000000000000000000000000000000008152600401610a3890612802565b60405180910390fd5b610a49611ad4565b565b600160149054906101000a900460ff1681565b600160009054906101000a900473ffffffffffffffffffffffffffffffffffffffff1681565b600a60009054906101000a900473ffffffffffffffffffffffffffffffffffffffff1673ffffffffffffffffffffffffffffffffffffffff163373ffffffffffffffffffffffffffffffffffffffff16148015610b10575060138281548110610af057610aef612dbe565b5b906000526020600020906006020160000160019054906101000a900460ff165b610b1957600080fd5b8015610b6757600f54600d81905550600160138381548110610b3e57610b3d612dbe565b5b906000526020600020906006020160000160006101000a81548160ff0219169083151502179055505b610c1a600660009054906101000a900473ffffffffffffffffffffffffffffffffffffffff1673ffffffffffffffffffffffffffffffffffffffff166370a08231306040518263ffffffff1660e01b8152600401610bc59190612655565b60206040518083038186803b158015610bdd57600080fd5b505afa158015610bf1573d6000803e3d6000fd5b505050506040513d601f19601f82011682018060405250810190610c15919061235e565b611bf0565b600060138381548110610c3057610c2f612dbe565b5b906000526020600020906006020160000160016101000a81548160ff0219169083151502179055505050565b600660009054906101000a900473ffffffffffffffffffffffffffffffffffffffff1681565b60035481565b600960009054906101000a900473ffffffffffffffffffffffffffffffffffffffff1673ffffffffffffffffffffffffffffffffffffffff163373ffffffffffffffffffffffffffffffffffffffff16148015610ce6575080518251145b610cef57600080fd5b60125442610cfd91906129fe565b60138481548110610d1157610d10612dbe565b5b9060005260206000209060060201600301819055507fe35031d60f2f841b5b780ddd4c92c4ddea78f371eff5306b4edb3d14899b87c883604051610d5591906128dd565b60405180910390a1505050565b600c5481565b60025481565b6000600660009054906101000a900473ffffffffffffffffffffffffffffffffffffffff1673ffffffffffffffffffffffffffffffffffffffff166370a08231306040518263ffffffff1660e01b8152600401610dcb9190612655565b60206040518083038186803b158015610de357600080fd5b505afa158015610df7573d6000803e3d6000fd5b505050506040513d601f19601f82011682018060405250810190610e1b919061235e565b14610e5b576040517f08c379a0000000000000000000000000000000000000000000000000000000008152600401610e5290612822565b60405180910390fd5b610e658282611cc5565b5050565b600960009054906101000a900473ffffffffffffffffffffffffffffffffffffffff1673ffffffffffffffffffffffffffffffffffffffff163373ffffffffffffffffffffffffffffffffffffffff161480610f10575060008054906101000a900473ffffffffffffffffffffffffffffffffffffffff1673ffffffffffffffffffffffffffffffffffffffff163373ffffffffffffffffffffffffffffffffffffffff16145b610f1957600080fd5b600b819080600181540180825580915050600190039060005260206000200160009091909190916101000a81548173ffffffffffffffffffffffffffffffffffffffff021916908373ffffffffffffffffffffffffffffffffffffffff1602179055506001601560008373ffffffffffffffffffffffffffffffffffffffff1673ffffffffffffffffffffffffffffffffffffffff16815260200190815260200160002060006101000a81548160ff02191690831515021790555050565b60176020528060005260406000206000915054906101000a900461ffff1681565b60008054906101000a900473ffffffffffffffffffffffffffffffffffffffff1673ffffffffffffffffffffffffffffffffffffffff163373ffffffffffffffffffffffffffffffffffffffff16148061109f5750600960009054906101000a900473ffffffffffffffffffffffffffffffffffffffff1673ffffffffffffffffffffffffffffffffffffffff163373ffffffffffffffffffffffffffffffffffffffff16145b6110a857600080fd5b8060118190555050565b600160009054906101000a900473ffffffffffffffffffffffffffffffffffffffff1673ffffffffffffffffffffffffffffffffffffffff1663a9059cbb83836040518363ffffffff1660e01b815260040161110f9291906126dd565b602060405180830381600087803b15801561112957600080fd5b505af115801561113d573d6000803e3d6000fd5b505050506040513d601f19601f8201168201806040525081019061116191906122d7565b505050565b601560003373ffffffffffffffffffffffffffffffffffffffff1673ffffffffffffffffffffffffffffffffffffffff16815260200190815260200160002060009054906101000a900460ff166111bc57600080fd5b606080601383815481106111d3576111d2612dbe565b5b906000526020600020906006020160050190805190602001906111f7929190611f4d565b505050565b60008054906101000a900473ffffffffffffffffffffffffffffffffffffffff1681565b600960009054906101000a900473ffffffffffffffffffffffffffffffffffffffff1673ffffffffffffffffffffffffffffffffffffffff163373ffffffffffffffffffffffffffffffffffffffff161461127a57600080fd5b80600f8190555050565b600960009054906101000a900473ffffffffffffffffffffffffffffffffffffffff1673ffffffffffffffffffffffffffffffffffffffff163373ffffffffffffffffffffffffffffffffffffffff1614611314576040517f08c379a000000000000000000000000000000000000000000000000000000000815260040161130b906128a2565b60405180910390fd5b60608060136040518060e00160405280600015158152602001600015158152602001600081526020018581526020016000815260200184815260200183815250908060018154018082558091505060019003906000526020600020906006020160009091909190915060008201518160000160006101000a81548160ff02191690831515021790555060208201518160000160016101000a81548160ff02191690831515021790555060408201518160010155606082015181600201556080820151816003015560a08201518160040190805190602001906113f7929190611f9a565b5060c0820151816005019080519060200190611414929190611f4d565b505050505050565b600860019054906101000a900473ffffffffffffffffffffffffffffffffffffffff1673ffffffffffffffffffffffffffffffffffffffff163373ffffffffffffffffffffffffffffffffffffffff1614806114c55750600960009054906101000a900473ffffffffffffffffffffffffffffffffffffffff1673ffffffffffffffffffffffffffffffffffffffff163373ffffffffffffffffffffffffffffffffffffffff16145b6114ce57600080fd5b6001601382815481106114e4576114e3612dbe565b5b906000526020600020906006020160000160016101000a81548160ff0219169083151502179055507f94799ce1f5151942e96745d7a2d873bfb4ef3c373a34cc901e03e4fdc4c8263f338260405161153d9291906126dd565b60405180910390a150565b600d5481565b60115481565b6013818154811061156857611567612dbe565b5b906000526020600020906006020160000160009054906101000a900460ff1661159057600080fd5b601381815481106115a4576115a3612dbe565b5b90600052602060002090600602016003015442116115c157600080fd5b60005b601382815481106115d8576115d7612dbe565b5b90600052602060002090600602016004018054905081101561188857600660009054906101000a900473ffffffffffffffffffffffffffffffffffffffff1673ffffffffffffffffffffffffffffffffffffffff1663a9059cbb6013848154811061164657611645612dbe565b5b9060005260206000209060060201600401838154811061166957611668612dbe565b5b9060005260206000200160009054906101000a900473ffffffffffffffffffffffffffffffffffffffff16601385815481106116a8576116a7612dbe565b5b906000526020600020906006020160050184815481106116cb576116ca612dbe565b5b90600052602060002001546040518363ffffffff1660e01b81526004016116f39291906126b4565b602060405180830381600087803b15801561170d57600080fd5b505af1158015611721573d6000803e3d6000fd5b505050506040513d601f19601f8201168201806040525081019061174591906122d7565b5060008054906101000a900473ffffffffffffffffffffffffffffffffffffffff1673ffffffffffffffffffffffffffffffffffffffff1663bca0adcb6013848154811061179657611795612dbe565b5b906000526020600020906006020160040183815481106117b9576117b8612dbe565b5b9060005260206000200160009054906101000a900473ffffffffffffffffffffffffffffffffffffffff16601385815481106117f8576117f7612dbe565b5b9060005260206000209060060201600501848154811061181b5761181a612dbe565b5b90600052602060002001546040518363ffffffff1660e01b815260040161184392919061268b565b600060405180830381600087803b15801561185d57600080fd5b505af1158015611871573d6000803e3d6000fd5b50505050808061188090612cb9565b9150506115c4565b5050565b600f5481565b601060009054906101000a900460ff1681565b600860019054906101000a900473ffffffffffffffffffffffffffffffffffffffff1673ffffffffffffffffffffffffffffffffffffffff163373ffffffffffffffffffffffffffffffffffffffff1614611935576040517f08c379a000000000000000000000000000000000000000000000000000000000815260040161192c90612842565b60405180910390fd5b60016013828154811061194b5761194a612dbe565b5b906000526020600020906006020160000160006101000a81548160ff0219169083151502179055507f939da3b627c123c81fe5aacebf925163337a0d4f8a03724640618078cad2489481601383815481106119a9576119a8612dbe565b5b9060005260206000209060060201600101546040516119c9929190612921565b60405180910390a16119da81611df9565b50565b60125481565b600960009054906101000a900473ffffffffffffffffffffffffffffffffffffffff1681565b60146020528060005260406000206000915090508060000154908060010160009054906101000a900461ffff16905082565b600860009054906101000a900460ff1681565b60138181548110611a5e57600080fd5b90600052602060002090600602016000915090508060000160009054906101000a900460ff16908060000160019054906101000a900460ff16908060010154908060020154908060030154905085565b600a60009054906101000a900473ffffffffffffffffffffffffffffffffffffffff1681565b6003546002541115611b0f5760018060146101000a81548160ff02191690836004811115611b0557611b04612d60565b5b0217905550611bee565b6003600160146101000a81548160ff02191690836004811115611b3557611b34612d60565b5b0217905550611bed600660009054906101000a900473ffffffffffffffffffffffffffffffffffffffff1673ffffffffffffffffffffffffffffffffffffffff166370a08231306040518263ffffffff1660e01b8152600401611b989190612655565b60206040518083038186803b158015611bb057600080fd5b505afa158015611bc4573d6000803e3d6000fd5b505050506040513d601f19601f82011682018060405250810190611be8919061235e565b611bf0565b5b565b600660009054906101000a900473ffffffffffffffffffffffffffffffffffffffff1673ffffffffffffffffffffffffffffffffffffffff1663a9059cbb600860019054906101000a900473ffffffffffffffffffffffffffffffffffffffff16836040518363ffffffff1660e01b8152600401611c6f9291906126b4565b602060405180830381600087803b158015611c8957600080fd5b505af1158015611c9d573d6000803e3d6000fd5b505050506040513d601f19601f82011682018060405250810190611cc191906122d7565b5050565b60008054906101000a900473ffffffffffffffffffffffffffffffffffffffff1673ffffffffffffffffffffffffffffffffffffffff163373ffffffffffffffffffffffffffffffffffffffff161480611d6c5750600960009054906101000a900473ffffffffffffffffffffffffffffffffffffffff1673ffffffffffffffffffffffffffffffffffffffff163373ffffffffffffffffffffffffffffffffffffffff16145b611dab576040517f08c379a0000000000000000000000000000000000000000000000000000000008152600401611da290612882565b60405180910390fd5b81600660006101000a81548173ffffffffffffffffffffffffffffffffffffffff021916908373ffffffffffffffffffffffffffffffffffffffff160217905550611df581610ff8565b5050565b60138181548110611e0d57611e0c612dbe565b5b906000526020600020906006020160000160009054906101000a900460ff16611e3557600080fd5b60006127106103e860138481548110611e5157611e50612dbe565b5b906000526020600020906006020160010154611e6d9190612a85565b611e779190612a54565b9050600660009054906101000a900473ffffffffffffffffffffffffffffffffffffffff1673ffffffffffffffffffffffffffffffffffffffff1663a9059cbb60008054906101000a900473ffffffffffffffffffffffffffffffffffffffff16836040518363ffffffff1660e01b8152600401611ef69291906126dd565b602060405180830381600087803b158015611f1057600080fd5b505af1158015611f24573d6000803e3d6000fd5b505050506040513d601f19601f82011682018060405250810190611f4891906122d7565b505050565b828054828255906000526020600020908101928215611f89579160200282015b82811115611f88578251825591602001919060010190611f6d565b5b509050611f969190612024565b5090565b828054828255906000526020600020908101928215612013579160200282015b828111156120125782518260006101000a81548173ffffffffffffffffffffffffffffffffffffffff021916908373ffffffffffffffffffffffffffffffffffffffff16021790555091602001919060010190611fba565b5b5090506120209190612024565b5090565b5b8082111561203d576000816000905550600101612025565b5090565b600061205461204f8461298a565b612965565b9050808382526020820190508285602086028201111561207757612076612e21565b5b60005b858110156120a7578161208d8882612121565b84526020840193506020830192505060018101905061207a565b5050509392505050565b60006120c46120bf846129b6565b612965565b905080838252602082019050828560208602820111156120e7576120e6612e21565b5b60005b8581101561211757816120fd88826121e6565b8452602084019350602083019250506001810190506120ea565b5050509392505050565b60008135905061213081612fe3565b92915050565b60008135905061214581612ffa565b92915050565b600082601f8301126121605761215f612e1c565b5b8135612170848260208601612041565b91505092915050565b600082601f83011261218e5761218d612e1c565b5b813561219e8482602086016120b1565b91505092915050565b6000813590506121b681613011565b92915050565b6000815190506121cb81613011565b92915050565b6000813590506121e081613028565b92915050565b6000813590506121f58161303f565b92915050565b60008151905061220a8161303f565b92915050565b60006020828403121561222657612225612e2b565b5b600061223484828501612121565b91505092915050565b60006020828403121561225357612252612e2b565b5b600061226184828501612136565b91505092915050565b6000806040838503121561228157612280612e2b565b5b600061228f85828601612121565b92505060206122a0858286016121e6565b9150509250929050565b6000602082840312156122c0576122bf612e2b565b5b60006122ce848285016121a7565b91505092915050565b6000602082840312156122ed576122ec612e2b565b5b60006122fb848285016121bc565b91505092915050565b60006020828403121561231a57612319612e2b565b5b6000612328848285016121d1565b91505092915050565b60006020828403121561234757612346612e2b565b5b6000612355848285016121e6565b91505092915050565b60006020828403121561237457612373612e2b565b5b6000612382848285016121fb565b91505092915050565b6000806000606084860312156123a4576123a3612e2b565b5b60006123b2868287016121e6565b935050602084013567ffffffffffffffff8111156123d3576123d2612e26565b5b6123df8682870161214b565b925050604084013567ffffffffffffffff811115612400576123ff612e26565b5b61240c86828701612179565b9150509250925092565b6000806040838503121561242d5761242c612e2b565b5b600061243b858286016121e6565b925050602061244c858286016121a7565b9150509250929050565b6000806040838503121561246d5761246c612e2b565b5b600061247b858286016121e6565b925050602061248c858286016121e6565b9150509250929050565b61249f81612ba5565b82525050565b6124ae81612b25565b82525050565b6124bd81612b13565b82525050565b6124cc81612b37565b82525050565b6124db81612b43565b82525050565b6124ea81612bb7565b82525050565b6124f981612bc9565b82525050565b61250881612bdb565b82525050565b61251781612bed565b82525050565b6000612528826129e2565b61253281856129ed565b9350612542818560208601612c23565b61254b81612e30565b840191505092915050565b60006125636017836129ed565b915061256e82612e41565b602082019050919050565b60006125866035836129ed565b915061259182612e6a565b604082019050919050565b60006125a96027836129ed565b91506125b482612eb9565b604082019050919050565b60006125cc6036836129ed565b91506125d782612f08565b604082019050919050565b60006125ef6018836129ed565b91506125fa82612f57565b602082019050919050565b60006126126029836129ed565b915061261d82612f80565b604082019050919050565b61263181612b60565b82525050565b61264081612b8e565b82525050565b61264f81612b98565b82525050565b600060208201905061266a60008301846124b4565b92915050565b600060208201905061268560008301846124a5565b92915050565b60006040820190506126a060008301856124a5565b6126ad6020830184612637565b9392505050565b60006040820190506126c96000830185612496565b6126d66020830184612637565b9392505050565b60006040820190506126f260008301856124b4565b6126ff6020830184612637565b9392505050565b600060208201905061271b60008301846124c3565b92915050565b600060a08201905061273660008301886124c3565b61274360208301876124c3565b6127506040830186612637565b61275d60608301856124d2565b61276a6080830184612637565b9695505050505050565b600060208201905061278960008301846124e1565b92915050565b60006020820190506127a460008301846124f0565b92915050565b60006020820190506127bf60008301846124ff565b92915050565b60006020820190506127da600083018461250e565b92915050565b600060208201905081810360008301526127fa818461251d565b905092915050565b6000602082019050818103600083015261281b81612556565b9050919050565b6000602082019050818103600083015261283b81612579565b9050919050565b6000602082019050818103600083015261285b8161259c565b9050919050565b6000602082019050818103600083015261287b816125bf565b9050919050565b6000602082019050818103600083015261289b816125e2565b9050919050565b600060208201905081810360008301526128bb81612605565b9050919050565b60006020820190506128d76000830184612628565b92915050565b60006020820190506128f26000830184612637565b92915050565b600060408201905061290d6000830185612637565b61291a6020830184612628565b9392505050565b60006040820190506129366000830185612637565b6129436020830184612637565b9392505050565b600060208201905061295f6000830184612646565b92915050565b600061296f612980565b905061297b8282612c88565b919050565b6000604051905090565b600067ffffffffffffffff8211156129a5576129a4612ded565b5b602082029050602081019050919050565b600067ffffffffffffffff8211156129d1576129d0612ded565b5b602082029050602081019050919050565b600081519050919050565b600082825260208201905092915050565b6000612a0982612b8e565b9150612a1483612b8e565b9250827fffffffffffffffffffffffffffffffffffffffffffffffffffffffffffffffff03821115612a4957612a48612d02565b5b828201905092915050565b6000612a5f82612b8e565b9150612a6a83612b8e565b925082612a7a57612a79612d31565b5b828204905092915050565b6000612a9082612b8e565b9150612a9b83612b8e565b9250817fffffffffffffffffffffffffffffffffffffffffffffffffffffffffffffffff0483118215151615612ad457612ad3612d02565b5b828202905092915050565b6000612aea82612b8e565b9150612af583612b8e565b925082821015612b0857612b07612d02565b5b828203905092915050565b6000612b1e82612b6e565b9050919050565b6000612b3082612b6e565b9050919050565b60008115159050919050565b6000819050919050565b6000819050612b5b82612fcf565b919050565b600061ffff82169050919050565b600073ffffffffffffffffffffffffffffffffffffffff82169050919050565b6000819050919050565b600060ff82169050919050565b6000612bb082612bff565b9050919050565b6000612bc282612bff565b9050919050565b6000612bd482612bff565b9050919050565b6000612be682612bff565b9050919050565b6000612bf882612b4d565b9050919050565b6000612c0a82612c11565b9050919050565b6000612c1c82612b6e565b9050919050565b60005b83811015612c41578082015181840152602081019050612c26565b83811115612c50576000848401525b50505050565b60006002820490506001821680612c6e57607f821691505b60208210811415612c8257612c81612d8f565b5b50919050565b612c9182612e30565b810181811067ffffffffffffffff82111715612cb057612caf612ded565b5b80604052505050565b6000612cc482612b8e565b91507fffffffffffffffffffffffffffffffffffffffffffffffffffffffffffffffff821415612cf757612cf6612d02565b5b600182019050919050565b7f4e487b7100000000000000000000000000000000000000000000000000000000600052601160045260246000fd5b7f4e487b7100000000000000000000000000000000000000000000000000000000600052601260045260246000fd5b7f4e487b7100000000000000000000000000000000000000000000000000000000600052602160045260246000fd5b7f4e487b7100000000000000000000000000000000000000000000000000000000600052602260045260246000fd5b7f4e487b7100000000000000000000000000000000000000000000000000000000600052603260045260246000fd5b7f4e487b7100000000000000000000000000000000000000000000000000000000600052604160045260246000fd5b600080fd5b600080fd5b600080fd5b600080fd5b6000601f19601f8301169050919050565b7f566f74696e67206973207374696c6c206f6e676f696e67000000000000000000600082015250565b7f50726576696f757320546f6b656e206e6565647320746f206265206465706c6560008201527f746564206265666f726520746865206368616e67650000000000000000000000602082015250565b7f4f6e6c792074686520636c69656e742063616e20617070726f76652061206d6960008201527f6c6573746f6e6500000000000000000000000000000000000000000000000000602082015250565b7f4f6e6c792074686520736f757263696e67206c6561642063616e20726571756560008201527f7374207061796d656e742066726f6d20636c69656e7400000000000000000000602082015250565b7f736f75726365206f7220736f757263696e67204c656164210000000000000000600082015250565b7f4f6e6c792074686520736f757263696e67206c6561642063616e20616464206d60008201527f696c6573746f6e65730000000000000000000000000000000000000000000000602082015250565b60058110612fe057612fdf612d60565b5b50565b612fec81612b13565b8114612ff757600080fd5b50565b61300381612b25565b811461300e57600080fd5b50565b61301a81612b37565b811461302557600080fd5b50565b61303181612b43565b811461303c57600080fd5b50565b61304881612b8e565b811461305357600080fd5b5056fea2646970667358221220d784de5d0c7b6d085cd65c675009a9af47a506b8850590b2a417e65ea6829ee464736f6c63430008070033a2646970667358221220b37ccabb5487eca816d3eece3595bbb66dcabfd40870c94b54de43f61722a85d64736f6c6343000807003360806040523480156200001157600080fd5b5060405162001afc38038062001afc8339818101604052810190620000379190620001e4565b8181816003908051906020019062000051929190620000b6565b5080600490805190602001906200006a929190620000b6565b50505033600560006101000a81548173ffffffffffffffffffffffffffffffffffffffff021916908373ffffffffffffffffffffffffffffffffffffffff1602179055505050620003ed565b828054620000c490620002fe565b90600052602060002090601f016020900481019282620000e8576000855562000134565b82601f106200010357805160ff191683800117855562000134565b8280016001018555821562000134579182015b828111156200013357825182559160200191906001019062000116565b5b50905062000143919062000147565b5090565b5b808211156200016257600081600090555060010162000148565b5090565b60006200017d620001778462000292565b62000269565b9050828152602081018484840111156200019c576200019b620003cd565b5b620001a9848285620002c8565b509392505050565b600082601f830112620001c957620001c8620003c8565b5b8151620001db84826020860162000166565b91505092915050565b60008060408385031215620001fe57620001fd620003d7565b5b600083015167ffffffffffffffff8111156200021f576200021e620003d2565b5b6200022d85828601620001b1565b925050602083015167ffffffffffffffff811115620002515762000250620003d2565b5b6200025f85828601620001b1565b9150509250929050565b60006200027562000288565b905062000283828262000334565b919050565b6000604051905090565b600067ffffffffffffffff821115620002b057620002af62000399565b5b620002bb82620003dc565b9050602081019050919050565b60005b83811015620002e8578082015181840152602081019050620002cb565b83811115620002f8576000848401525b50505050565b600060028204905060018216806200031757607f821691505b602082108114156200032e576200032d6200036a565b5b50919050565b6200033f82620003dc565b810181811067ffffffffffffffff8211171562000361576200036062000399565b5b80604052505050565b7f4e487b7100000000000000000000000000000000000000000000000000000000600052602260045260246000fd5b7f4e487b7100000000000000000000000000000000000000000000000000000000600052604160045260246000fd5b600080fd5b600080fd5b600080fd5b600080fd5b6000601f19601f8301169050919050565b6116ff80620003fd6000396000f3fe608060405234801561001057600080fd5b50600436106100ea5760003560e01c806340c10f191161008c57806395d89b411161006657806395d89b411461025f578063a457c2d71461027d578063a9059cbb146102ad578063dd62ed3e146102dd576100ea565b806340c10f19146101f557806367e828bf1461021157806370a082311461022f576100ea565b806320e56dbd116100c857806320e56dbd1461015b57806323b872dd14610177578063313ce567146101a757806339509351146101c5576100ea565b806306fdde03146100ef578063095ea7b31461010d57806318160ddd1461013d575b600080fd5b6100f761030d565b6040516101049190611151565b60405180910390f35b61012760048036038101906101229190610f21565b61039f565b6040516101349190611136565b60405180910390f35b6101456103bd565b6040516101529190611273565b60405180910390f35b61017560048036038101906101709190610f61565b6103c7565b005b610191600480360381019061018c9190610ece565b6103d4565b60405161019e9190611136565b60405180910390f35b6101af6104cc565b6040516101bc919061128e565b60405180910390f35b6101df60048036038101906101da9190610f21565b6104d5565b6040516101ec9190611136565b60405180910390f35b61020f600480360381019061020a9190610f21565b610581565b005b6102196105e9565b604051610226919061111b565b60405180910390f35b61024960048036038101906102449190610e61565b61060f565b6040516102569190611273565b60405180910390f35b610267610657565b6040516102749190611151565b60405180910390f35b61029760048036038101906102929190610f21565b6106e9565b6040516102a49190611136565b60405180910390f35b6102c760048036038101906102c29190610f21565b6107d4565b6040516102d49190611136565b60405180910390f35b6102f760048036038101906102f29190610e8e565b6107f2565b6040516103049190611273565b60405180910390f35b60606003805461031c906113a3565b80601f0160208091040260200160405190810160405280929190818152602001828054610348906113a3565b80156103955780601f1061036a57610100808354040283529160200191610395565b820191906000526020600020905b81548152906001019060200180831161037857829003601f168201915b5050505050905090565b60006103b36103ac610879565b8484610881565b6001905092915050565b6000600254905090565b6103d13382610a4c565b50565b60006103e1848484610bac565b6000600160008673ffffffffffffffffffffffffffffffffffffffff1673ffffffffffffffffffffffffffffffffffffffff168152602001908152602001600020600061042c610879565b73ffffffffffffffffffffffffffffffffffffffff1673ffffffffffffffffffffffffffffffffffffffff168152602001908152602001600020549050828110156104ac576040517f08c379a00000000000000000000000000000000000000000000000000000000081526004016104a3906111d3565b60405180910390fd5b6104c0856104b8610879565b858403610881565b60019150509392505050565b60006012905090565b60006105776104e2610879565b8484600160006104f0610879565b73ffffffffffffffffffffffffffffffffffffffff1673ffffffffffffffffffffffffffffffffffffffff16815260200190815260200160002060008873ffffffffffffffffffffffffffffffffffffffff1673ffffffffffffffffffffffffffffffffffffffff1681526020019081526020016000205461057291906112c5565b610881565b6001905092915050565b600560009054906101000a900473ffffffffffffffffffffffffffffffffffffffff1673ffffffffffffffffffffffffffffffffffffffff163373ffffffffffffffffffffffffffffffffffffffff16146105db57600080fd5b6105e58282610a4c565b5050565b600560009054906101000a900473ffffffffffffffffffffffffffffffffffffffff1681565b60008060008373ffffffffffffffffffffffffffffffffffffffff1673ffffffffffffffffffffffffffffffffffffffff168152602001908152602001600020549050919050565b606060048054610666906113a3565b80601f0160208091040260200160405190810160405280929190818152602001828054610692906113a3565b80156106df5780601f106106b4576101008083540402835291602001916106df565b820191906000526020600020905b8154815290600101906020018083116106c257829003601f168201915b5050505050905090565b600080600160006106f8610879565b73ffffffffffffffffffffffffffffffffffffffff1673ffffffffffffffffffffffffffffffffffffffff16815260200190815260200160002060008573ffffffffffffffffffffffffffffffffffffffff1673ffffffffffffffffffffffffffffffffffffffff168152602001908152602001600020549050828110156107b5576040517f08c379a00000000000000000000000000000000000000000000000000000000081526004016107ac90611233565b60405180910390fd5b6107c96107c0610879565b85858403610881565b600191505092915050565b60006107e86107e1610879565b8484610bac565b6001905092915050565b6000600160008473ffffffffffffffffffffffffffffffffffffffff1673ffffffffffffffffffffffffffffffffffffffff16815260200190815260200160002060008373ffffffffffffffffffffffffffffffffffffffff1673ffffffffffffffffffffffffffffffffffffffff16815260200190815260200160002054905092915050565b600033905090565b600073ffffffffffffffffffffffffffffffffffffffff168373ffffffffffffffffffffffffffffffffffffffff1614156108f1576040517f08c379a00000000000000000000000000000000000000000000000000000000081526004016108e890611213565b60405180910390fd5b600073ffffffffffffffffffffffffffffffffffffffff168273ffffffffffffffffffffffffffffffffffffffff161415610961576040517f08c379a000000000000000000000000000000000000000000000000000000000815260040161095890611193565b60405180910390fd5b80600160008573ffffffffffffffffffffffffffffffffffffffff1673ffffffffffffffffffffffffffffffffffffffff16815260200190815260200160002060008473ffffffffffffffffffffffffffffffffffffffff1673ffffffffffffffffffffffffffffffffffffffff168152602001908152602001600020819055508173ffffffffffffffffffffffffffffffffffffffff168373ffffffffffffffffffffffffffffffffffffffff167f8c5be1e5ebec7d5bd14f71427d1e84f3dd0314c0f7b2291e5b200ac8c7c3b92583604051610a3f9190611273565b60405180910390a3505050565b600073ffffffffffffffffffffffffffffffffffffffff168273ffffffffffffffffffffffffffffffffffffffff161415610abc576040517f08c379a0000000000000000000000000000000000000000000000000000000008152600401610ab390611253565b60405180910390fd5b610ac860008383610e2d565b8060026000828254610ada91906112c5565b92505081905550806000808473ffffffffffffffffffffffffffffffffffffffff1673ffffffffffffffffffffffffffffffffffffffff1681526020019081526020016000206000828254610b2f91906112c5565b925050819055508173ffffffffffffffffffffffffffffffffffffffff16600073ffffffffffffffffffffffffffffffffffffffff167fddf252ad1be2c89b69c2b068fc378daa952ba7f163c4a11628f55a4df523b3ef83604051610b949190611273565b60405180910390a3610ba860008383610e32565b5050565b600073ffffffffffffffffffffffffffffffffffffffff168373ffffffffffffffffffffffffffffffffffffffff161415610c1c576040517f08c379a0000000000000000000000000000000000000000000000000000000008152600401610c13906111f3565b60405180910390fd5b600073ffffffffffffffffffffffffffffffffffffffff168273ffffffffffffffffffffffffffffffffffffffff161415610c8c576040517f08c379a0000000000000000000000000000000000000000000000000000000008152600401610c8390611173565b60405180910390fd5b610c97838383610e2d565b60008060008573ffffffffffffffffffffffffffffffffffffffff1673ffffffffffffffffffffffffffffffffffffffff16815260200190815260200160002054905081811015610d1d576040517f08c379a0000000000000000000000000000000000000000000000000000000008152600401610d14906111b3565b60405180910390fd5b8181036000808673ffffffffffffffffffffffffffffffffffffffff1673ffffffffffffffffffffffffffffffffffffffff16815260200190815260200160002081905550816000808573ffffffffffffffffffffffffffffffffffffffff1673ffffffffffffffffffffffffffffffffffffffff1681526020019081526020016000206000828254610db091906112c5565b925050819055508273ffffffffffffffffffffffffffffffffffffffff168473ffffffffffffffffffffffffffffffffffffffff167fddf252ad1be2c89b69c2b068fc378daa952ba7f163c4a11628f55a4df523b3ef84604051610e149190611273565b60405180910390a3610e27848484610e32565b50505050565b505050565b505050565b600081359050610e468161169b565b92915050565b600081359050610e5b816116b2565b92915050565b600060208284031215610e7757610e76611433565b5b6000610e8584828501610e37565b91505092915050565b60008060408385031215610ea557610ea4611433565b5b6000610eb385828601610e37565b9250506020610ec485828601610e37565b9150509250929050565b600080600060608486031215610ee757610ee6611433565b5b6000610ef586828701610e37565b9350506020610f0686828701610e37565b9250506040610f1786828701610e4c565b9150509250925092565b60008060408385031215610f3857610f37611433565b5b6000610f4685828601610e37565b9250506020610f5785828601610e4c565b9150509250929050565b600060208284031215610f7757610f76611433565b5b6000610f8584828501610e4c565b91505092915050565b610f978161131b565b82525050565b610fa68161132d565b82525050565b6000610fb7826112a9565b610fc181856112b4565b9350610fd1818560208601611370565b610fda81611438565b840191505092915050565b6000610ff26023836112b4565b9150610ffd82611449565b604082019050919050565b60006110156022836112b4565b915061102082611498565b604082019050919050565b60006110386026836112b4565b9150611043826114e7565b604082019050919050565b600061105b6028836112b4565b915061106682611536565b604082019050919050565b600061107e6025836112b4565b915061108982611585565b604082019050919050565b60006110a16024836112b4565b91506110ac826115d4565b604082019050919050565b60006110c46025836112b4565b91506110cf82611623565b604082019050919050565b60006110e7601f836112b4565b91506110f282611672565b602082019050919050565b61110681611359565b82525050565b61111581611363565b82525050565b60006020820190506111306000830184610f8e565b92915050565b600060208201905061114b6000830184610f9d565b92915050565b6000602082019050818103600083015261116b8184610fac565b905092915050565b6000602082019050818103600083015261118c81610fe5565b9050919050565b600060208201905081810360008301526111ac81611008565b9050919050565b600060208201905081810360008301526111cc8161102b565b9050919050565b600060208201905081810360008301526111ec8161104e565b9050919050565b6000602082019050818103600083015261120c81611071565b9050919050565b6000602082019050818103600083015261122c81611094565b9050919050565b6000602082019050818103600083015261124c816110b7565b9050919050565b6000602082019050818103600083015261126c816110da565b9050919050565b600060208201905061128860008301846110fd565b92915050565b60006020820190506112a3600083018461110c565b92915050565b600081519050919050565b600082825260208201905092915050565b60006112d082611359565b91506112db83611359565b9250827fffffffffffffffffffffffffffffffffffffffffffffffffffffffffffffffff038211156113105761130f6113d5565b5b828201905092915050565b600061132682611339565b9050919050565b60008115159050919050565b600073ffffffffffffffffffffffffffffffffffffffff82169050919050565b6000819050919050565b600060ff82169050919050565b60005b8381101561138e578082015181840152602081019050611373565b8381111561139d576000848401525b50505050565b600060028204905060018216806113bb57607f821691505b602082108114156113cf576113ce611404565b5b50919050565b7f4e487b7100000000000000000000000000000000000000000000000000000000600052601160045260246000fd5b7f4e487b7100000000000000000000000000000000000000000000000000000000600052602260045260246000fd5b600080fd5b6000601f19601f8301169050919050565b7f45524332303a207472616e7366657220746f20746865207a65726f206164647260008201527f6573730000000000000000000000000000000000000000000000000000000000602082015250565b7f45524332303a20617070726f766520746f20746865207a65726f20616464726560008201527f7373000000000000000000000000000000000000000000000000000000000000602082015250565b7f45524332303a207472616e7366657220616d6f756e742065786365656473206260008201527f616c616e63650000000000000000000000000000000000000000000000000000602082015250565b7f45524332303a207472616e7366657220616d6f756e742065786365656473206160008201527f6c6c6f77616e6365000000000000000000000000000000000000000000000000602082015250565b7f45524332303a207472616e736665722066726f6d20746865207a65726f20616460008201527f6472657373000000000000000000000000000000000000000000000000000000602082015250565b7f45524332303a20617070726f76652066726f6d20746865207a65726f2061646460008201527f7265737300000000000000000000000000000000000000000000000000000000602082015250565b7f45524332303a2064656372656173656420616c6c6f77616e63652062656c6f7760008201527f207a65726f000000000000000000000000000000000000000000000000000000602082015250565b7f45524332303a206d696e7420746f20746865207a65726f206164647265737300600082015250565b6116a48161131b565b81146116af57600080fd5b50565b6116bb81611359565b81146116c657600080fd5b5056fea26469706673582212205c8dea892b3d9dca5130e59afe6dac2429c04f5fb4a61fe317ba22f9970de04164736f6c63430008070033",
  "linkReferences": {},
  "deployedLinkReferences": {}
}