{
  "_format": "hh-sol-artifact-1",
  "contractName": "Source",
  "sourceName": "contracts/all.sol",
  "abi": [
    {
      "inputs": [
        {
          "internalType": "string",
          "name": "name",
          "type": "string"
        },
        {
          "internalType": "string",
          "name": "symbol",
          "type": "string"
        }
      ],
      "stateMutability": "nonpayable",
      "type": "constructor"
    },
    {
      "anonymous": false,
      "inputs": [
        {
          "indexed": false,
          "internalType": "address",
          "name": "_human",
          "type": "address"
        }
      ],
      "name": "HumanCreated",
      "type": "event"
    },
    {
      "anonymous": false,
      "inputs": [
        {
          "indexed": false,
          "internalType": "address",
          "name": "_project",
          "type": "address"
        }
      ],
      "name": "ProjectCreated",
      "type": "event"
    },
    {
      "inputs": [
        {
          "internalType": "address payable",
          "name": "_client",
          "type": "address"
        },
        {
          "internalType": "address payable",
          "name": "_arbiter",
          "type": "address"
        },
        {
          "internalType": "address",
          "name": "_paymentTokenAddress",
          "type": "address"
        },
        {
          "internalType": "uint8",
          "name": "_votingDuration",
          "type": "uint8"
        }
      ],
      "name": "createProject",
      "outputs": [],
      "stateMutability": "nonpayable",
      "type": "function"
    },
    {
      "inputs": [],
      "name": "numberOfProjects",
      "outputs": [
        {
          "internalType": "uint256",
          "name": "",
          "type": "uint256"
        }
      ],
      "stateMutability": "view",
      "type": "function"
    },
    {
      "inputs": [
        {
          "internalType": "uint256",
          "name": "",
          "type": "uint256"
        }
      ],
      "name": "projects",
      "outputs": [
        {
          "internalType": "address",
          "name": "",
          "type": "address"
        }
      ],
      "stateMutability": "view",
      "type": "function"
    },
    {
      "inputs": [],
      "name": "repToken",
      "outputs": [
        {
          "internalType": "contract RepToken",
          "name": "",
          "type": "address"
        }
      ],
      "stateMutability": "view",
      "type": "function"
    }
  ],
  "bytecode": "0x608060405260006003553480156200001657600080fd5b50604051620054573803806200545783398181016040528101906200003c91906200014f565b60035482826040516200004f90620000c3565b6200005d9392919062000226565b604051809103906000f0801580156200007a573d6000803e3d6000fd5b50600260006101000a81548173ffffffffffffffffffffffffffffffffffffffff021916908373ffffffffffffffffffffffffffffffffffffffff1602179055505050620003b6565b611cb680620037a183390190565b6000620000e8620000e2846200029a565b62000271565b90508281526020810184848401111562000107576200010662000396565b5b62000114848285620002f6565b509392505050565b600082601f83011262000134576200013362000391565b5b815162000146848260208601620000d1565b91505092915050565b60008060408385031215620001695762000168620003a0565b5b600083015167ffffffffffffffff8111156200018a57620001896200039b565b5b62000198858286016200011c565b925050602083015167ffffffffffffffff811115620001bc57620001bb6200039b565b5b620001ca858286016200011c565b9150509250929050565b6000620001e182620002d0565b620001ed8185620002db565b9350620001ff818560208601620002f6565b6200020a81620003a5565b840191505092915050565b6200022081620002ec565b82525050565b60006060820190506200023d600083018662000215565b8181036020830152620002518185620001d4565b90508181036040830152620002678184620001d4565b9050949350505050565b60006200027d62000290565b90506200028b82826200032c565b919050565b6000604051905090565b600067ffffffffffffffff821115620002b857620002b762000362565b5b620002c382620003a5565b9050602081019050919050565b600081519050919050565b600082825260208201905092915050565b6000819050919050565b60005b8381101562000316578082015181840152602081019050620002f9565b8381111562000326576000848401525b50505050565b6200033782620003a5565b810181811067ffffffffffffffff8211171562000359576200035862000362565b5b80604052505050565b7f4e487b7100000000000000000000000000000000000000000000000000000000600052604160045260246000fd5b600080fd5b600080fd5b600080fd5b600080fd5b6000601f19601f8301169050919050565b6133db80620003c66000396000f3fe60806040523480156200001157600080fd5b5060043610620000525760003560e01c8063107046bd146200005757806329034a5c146200008d5780638e63779614620000af578063db5e4c7f14620000cf575b600080fd5b6200007560048036038101906200006f919062000321565b620000f1565b604051620000849190620003a8565b60405180910390f35b6200009762000131565b604051620000a6919062000432565b60405180910390f35b620000cd6004803603810190620000c79190620002af565b62000157565b005b620000d96200023f565b604051620000e891906200044f565b60405180910390f35b600081815481106200010257600080fd5b906000526020600020016000915054906101000a900473ffffffffffffffffffffffffffffffffffffffff1681565b600260009054906101000a900473ffffffffffffffffffffffffffffffffffffffff1681565b6000338585600260009054906101000a900473ffffffffffffffffffffffffffffffffffffffff1686866040516200018f9062000245565b620001a096959493929190620003c5565b604051809103906000f080158015620001bd573d6000803e3d6000fd5b509080600181540180825580915050600190039060005260206000200160009091909190916101000a81548173ffffffffffffffffffffffffffffffffffffffff021916908373ffffffffffffffffffffffffffffffffffffffff16021790555060018060008282546200023291906200046c565b9250508190555050505050565b60015481565b612da5806200060183390190565b600081359050620002648162000598565b92915050565b6000813590506200027b81620005b2565b92915050565b6000813590506200029281620005cc565b92915050565b600081359050620002a981620005e6565b92915050565b60008060008060808587031215620002cc57620002cb62000593565b5b6000620002dc878288016200026a565b9450506020620002ef878288016200026a565b9350506040620003028782880162000253565b9250506060620003158782880162000298565b91505092959194509250565b6000602082840312156200033a576200033962000593565b5b60006200034a8482850162000281565b91505092915050565b6200035e81620004dd565b82525050565b6200036f81620004c9565b82525050565b620003808162000528565b82525050565b620003918162000511565b82525050565b620003a2816200051b565b82525050565b6000602082019050620003bf600083018462000364565b92915050565b600060c082019050620003dc600083018962000353565b620003eb602083018862000353565b620003fa604083018762000353565b62000409606083018662000364565b62000418608083018562000364565b6200042760a083018462000397565b979650505050505050565b600060208201905062000449600083018462000375565b92915050565b600060208201905062000466600083018462000386565b92915050565b6000620004798262000511565b9150620004868362000511565b9250827fffffffffffffffffffffffffffffffffffffffffffffffffffffffffffffffff03821115620004be57620004bd62000564565b5b828201905092915050565b6000620004d682620004f1565b9050919050565b6000620004ea82620004f1565b9050919050565b600073ffffffffffffffffffffffffffffffffffffffff82169050919050565b6000819050919050565b600060ff82169050919050565b600062000535826200053c565b9050919050565b6000620005498262000550565b9050919050565b60006200055d82620004f1565b9050919050565b7f4e487b7100000000000000000000000000000000000000000000000000000000600052601160045260246000fd5b600080fd5b620005a381620004c9565b8114620005af57600080fd5b50565b620005bd81620004dd565b8114620005c957600080fd5b50565b620005d78162000511565b8114620005e357600080fd5b50565b620005f1816200051b565b8114620005fd57600080fd5b5056fe60806040526000600860006101000a81548160ff0219169083151502179055506000600e60006101000a81548160ff0219169083151502179055506000600f556032601060006101000a81548160ff021916908360ff160217905550633b9aca006011553480156200007057600080fd5b5060405162002da538038062002da5833981810160405281019062000096919062000510565b6000600160146101000a81548160ff02191690836004811115620000bf57620000be6200065b565b5b021790555085600960006101000a81548173ffffffffffffffffffffffffffffffffffffffff021916908373ffffffffffffffffffffffffffffffffffffffff160217905550600b600960009054906101000a900473ffffffffffffffffffffffffffffffffffffffff169080600181540180825580915050600190039060005260206000200160009091909190916101000a81548173ffffffffffffffffffffffffffffffffffffffff021916908373ffffffffffffffffffffffffffffffffffffffff16021790555084600860016101000a81548173ffffffffffffffffffffffffffffffffffffffff021916908373ffffffffffffffffffffffffffffffffffffffff16021790555083600a60006101000a81548173ffffffffffffffffffffffffffffffffffffffff021916908373ffffffffffffffffffffffffffffffffffffffff160217905550336000806101000a81548173ffffffffffffffffffffffffffffffffffffffff021916908373ffffffffffffffffffffffffffffffffffffffff16021790555082600160006101000a81548173ffffffffffffffffffffffffffffffffffffffff021916908373ffffffffffffffffffffffffffffffffffffffff16021790555042600c8190555080600960146101000a81548160ff021916908360ff160217905550620002c382601154620002cf60201b60201c565b50505050505062000706565b60008054906101000a900473ffffffffffffffffffffffffffffffffffffffff1673ffffffffffffffffffffffffffffffffffffffff163373ffffffffffffffffffffffffffffffffffffffff161480620003775750600960009054906101000a900473ffffffffffffffffffffffffffffffffffffffff1673ffffffffffffffffffffffffffffffffffffffff163373ffffffffffffffffffffffffffffffffffffffff16145b620003b9576040517f08c379a0000000000000000000000000000000000000000000000000000000008152600401620003b090620005d3565b60405180910390fd5b81600660006101000a81548173ffffffffffffffffffffffffffffffffffffffff021916908373ffffffffffffffffffffffffffffffffffffffff1602179055506200040b816200040f60201b60201c565b5050565b60008054906101000a900473ffffffffffffffffffffffffffffffffffffffff1673ffffffffffffffffffffffffffffffffffffffff163373ffffffffffffffffffffffffffffffffffffffff161480620004b75750600960009054906101000a900473ffffffffffffffffffffffffffffffffffffffff1673ffffffffffffffffffffffffffffffffffffffff163373ffffffffffffffffffffffffffffffffffffffff16145b620004c157600080fd5b8060118190555050565b600081519050620004dc81620006b8565b92915050565b600081519050620004f381620006d2565b92915050565b6000815190506200050a81620006ec565b92915050565b60008060008060008060c0878903121562000530576200052f6200068a565b5b60006200054089828a01620004e2565b96505060206200055389828a01620004e2565b95505060406200056689828a01620004e2565b94505060606200057989828a01620004cb565b93505060806200058c89828a01620004cb565b92505060a06200059f89828a01620004f9565b9150509295509295509295565b6000620005bb601883620005f5565b9150620005c8826200068f565b602082019050919050565b60006020820190508181036000830152620005ee81620005ac565b9050919050565b600082825260208201905092915050565b600062000613826200062e565b9050919050565b600062000627826200062e565b9050919050565b600073ffffffffffffffffffffffffffffffffffffffff82169050919050565b600060ff82169050919050565b7f4e487b7100000000000000000000000000000000000000000000000000000000600052602160045260246000fd5b600080fd5b7f736f75726365206f7220736f757263696e67204c656164210000000000000000600082015250565b620006c38162000606565b8114620006cf57600080fd5b50565b620006dd816200061a565b8114620006e957600080fd5b50565b620006f7816200064e565b81146200070357600080fd5b50565b61268f80620007166000396000f3fe608060405234801561001057600080fd5b50600436106101fb5760003560e01c80633eb2b5ad1161011a578063b13a2c41116100ad578063d2da01821161007c578063d2da018214610520578063e2982c211461053e578063e3ade6d61461056f578063f240f7c31461058d578063fe25e00a14610597576101fb565b8063b13a2c41146104ac578063bad92c27146104ca578063bd5ae89c146104e6578063c438b40f14610504576101fb565b806367e828bf116100e957806367e828bf146104365780636f8a42d414610454578063908c36ca146104705780639872330b1461048e576101fb565b80633eb2b5ad146103c6578063431c0c88146103e257806348916c89146103fe5780634c5d9ddd1461041a576101fb565b80632638e16a11610192578063380d0c0811610161578063380d0c081461036457806339518b5e1461036e57806339d5d1261461038c5780633d1c5ff3146103aa576101fb565b80632638e16a146102ee57806329034a5c1461030a5780633013ce2914610328578063359d393d14610346576101fb565b8063132002fc116101ce578063132002fc1461028a5780631703a018146102a857806318ad3c92146102c6578063200d2ed2146102d0576101fb565b80630dff5008146102005780630e7d490d14610230578063109e94cf1461024e578063128ef1ad1461026c575b600080fd5b61021a60048036038101906102159190611d3f565b6105b5565b6040516102279190611fc2565b60405180910390f35b610238610701565b60405161024591906120cb565b60405180910390f35b610256610707565b6040516102639190611f55565b60405180910390f35b61027461072d565b6040516102819190612049565b60405180910390f35b6102926107bb565b60405161029f919061210f565b60405180910390f35b6102b06107ce565b6040516102bd91906120cb565b60405180910390f35b6102ce6107d4565b005b6102d861083f565b6040516102e5919061202e565b60405180910390f35b61030860048036038101906103039190611cd2565b610852565b005b6103126109fc565b60405161031f9190611ff8565b60405180910390f35b610330610a22565b60405161033d9190611fdd565b60405180910390f35b61034e610a48565b60405161035b91906120cb565b60405180910390f35b61036c610a4e565b005b610376610b33565b60405161038391906120cb565b60405180910390f35b610394610b39565b6040516103a191906120cb565b60405180910390f35b6103c460048036038101906103bf9190611cff565b610b3f565b005b6103e060048036038101906103db9190611cd2565b610c3a565b005b6103fc60048036038101906103f79190611d99565b610da8565b005b61041860048036038101906104139190611cff565b610e62565b005b610434600480360381019061042f9190611d3f565b610f16565b005b61043e610ff4565b60405161044b9190612013565b60405180910390f35b61046e60048036038101906104699190611d99565b611018565b005b61047861107c565b60405161048591906120cb565b60405180910390f35b610496611082565b6040516104a391906120cb565b60405180910390f35b6104b4611088565b6040516104c191906120cb565b60405180910390f35b6104e460048036038101906104df9190611d99565b61108e565b005b6104ee6110d8565b6040516104fb919061210f565b60405180910390f35b61051e60048036038101906105199190611d99565b6110eb565b005b610528611257565b6040516105359190611f55565b60405180910390f35b61055860048036038101906105539190611ca5565b61127d565b6040516105669291906120e6565b60405180910390f35b6105776112af565b6040516105849190611fc2565b60405180910390f35b6105956112c2565b005b61059f6113a1565b6040516105ac9190611f55565b60405180910390f35b6000600960149054906101000a900460ff1660ff16600c54426105d8919061225f565b11156105ef576105e66113c7565b600090506106fc565b6000600160009054906101000a900473ffffffffffffffffffffffffffffffffffffffff1673ffffffffffffffffffffffffffffffffffffffff166370a08231336040518263ffffffff1660e01b815260040161064c9190611f3a565b60206040518083038186803b15801561066457600080fd5b505afa158015610678573d6000803e3d6000fd5b505050506040513d601f19601f8201168201806040525081019061069c9190611dc6565b905082156106c25780600260008282546106b6919061217e565b925050819055506106dc565b80600360008282546106d4919061217e565b925050819055505b6001600460008282546106ef919061217e565b9250508190555060019150505b919050565b60045481565b600860019054906101000a900473ffffffffffffffffffffffffffffffffffffffff1681565b6007805461073a906123cc565b80601f0160208091040260200160405190810160405280929190818152602001828054610766906123cc565b80156107b35780601f10610788576101008083540402835291602001916107b3565b820191906000526020600020905b81548152906001019060200180831161079657829003601f168201915b505050505081565b600960149054906101000a900460ff1681565b60055481565b600960149054906101000a900460ff1660ff16600c54426107f5919061225f565b11610835576040517f08c379a000000000000000000000000000000000000000000000000000000000815260040161082c9061206b565b60405180910390fd5b61083d6113c7565b565b600160149054906101000a900460ff1681565b601360003373ffffffffffffffffffffffffffffffffffffffff1673ffffffffffffffffffffffffffffffffffffffff16815260200190815260200160002060009054906101000a900460ff166108a857600080fd5b6001601260008373ffffffffffffffffffffffffffffffffffffffff1673ffffffffffffffffffffffffffffffffffffffff16815260200190815260200160002060010160008282829054906101000a900461ffff166109089190612146565b92506101000a81548161ffff021916908361ffff1602179055506064601060009054906101000a900460ff1660ff16600b805490506109479190612205565b61095191906121d4565b601260008373ffffffffffffffffffffffffffffffffffffffff1673ffffffffffffffffffffffffffffffffffffffff16815260200190815260200160002060010160009054906101000a900461ffff1661ffff1611156109f9576109f881601260008473ffffffffffffffffffffffffffffffffffffffff1673ffffffffffffffffffffffffffffffffffffffff168152602001908152602001600020600001546114e3565b5b50565b600160009054906101000a900473ffffffffffffffffffffffffffffffffffffffff1681565b600660009054906101000a900473ffffffffffffffffffffffffffffffffffffffff1681565b60035481565b60005b600b80549050811015610b3057600b8181548110610a7257610a71612503565b5b9060005260206000200160009054906101000a900473ffffffffffffffffffffffffffffffffffffffff1673ffffffffffffffffffffffffffffffffffffffff163373ffffffffffffffffffffffffffffffffffffffff161415610ad557610b1d565b610b1c600b8281548110610aec57610aeb612503565b5b9060005260206000200160009054906101000a900473ffffffffffffffffffffffffffffffffffffffff16610852565b5b8080610b28906123fe565b915050610a51565b50565b600c5481565b60025481565b6000600660009054906101000a900473ffffffffffffffffffffffffffffffffffffffff1673ffffffffffffffffffffffffffffffffffffffff166370a08231306040518263ffffffff1660e01b8152600401610b9c9190611f3a565b60206040518083038186803b158015610bb457600080fd5b505afa158015610bc8573d6000803e3d6000fd5b505050506040513d601f19601f82011682018060405250810190610bec9190611dc6565b14610c2c576040517f08c379a0000000000000000000000000000000000000000000000000000000008152600401610c239061208b565b60405180910390fd5b610c36828261173e565b5050565b600960009054906101000a900473ffffffffffffffffffffffffffffffffffffffff1673ffffffffffffffffffffffffffffffffffffffff163373ffffffffffffffffffffffffffffffffffffffff161480610ce1575060008054906101000a900473ffffffffffffffffffffffffffffffffffffffff1673ffffffffffffffffffffffffffffffffffffffff163373ffffffffffffffffffffffffffffffffffffffff16145b610cea57600080fd5b600b819080600181540180825580915050600190039060005260206000200160009091909190916101000a81548173ffffffffffffffffffffffffffffffffffffffff021916908373ffffffffffffffffffffffffffffffffffffffff1602179055506001601360008373ffffffffffffffffffffffffffffffffffffffff1673ffffffffffffffffffffffffffffffffffffffff16815260200190815260200160002060006101000a81548160ff02191690831515021790555050565b60008054906101000a900473ffffffffffffffffffffffffffffffffffffffff1673ffffffffffffffffffffffffffffffffffffffff163373ffffffffffffffffffffffffffffffffffffffff161480610e4f5750600960009054906101000a900473ffffffffffffffffffffffffffffffffffffffff1673ffffffffffffffffffffffffffffffffffffffff163373ffffffffffffffffffffffffffffffffffffffff16145b610e5857600080fd5b8060118190555050565b600160009054906101000a900473ffffffffffffffffffffffffffffffffffffffff1673ffffffffffffffffffffffffffffffffffffffff1663a9059cbb83836040518363ffffffff1660e01b8152600401610ebf929190611f99565b602060405180830381600087803b158015610ed957600080fd5b505af1158015610eed573d6000803e3d6000fd5b505050506040513d601f19601f82011682018060405250810190610f119190611d6c565b505050565b600a60009054906101000a900473ffffffffffffffffffffffffffffffffffffffff1673ffffffffffffffffffffffffffffffffffffffff163373ffffffffffffffffffffffffffffffffffffffff16148015610fa6575060026004811115610f8257610f816124a5565b5b600160149054906101000a900460ff166004811115610fa457610fa36124a5565b5b145b610faf57600080fd5b8015610fbf57600f54600d819055505b60018060146101000a81548160ff02191690836004811115610fe457610fe36124a5565b5b0217905550610ff1611872565b50565b60008054906101000a900473ffffffffffffffffffffffffffffffffffffffff1681565b600960009054906101000a900473ffffffffffffffffffffffffffffffffffffffff1673ffffffffffffffffffffffffffffffffffffffff163373ffffffffffffffffffffffffffffffffffffffff161461107257600080fd5b80600f8190555050565b600d5481565b60115481565b600f5481565b80601260003373ffffffffffffffffffffffffffffffffffffffff1673ffffffffffffffffffffffffffffffffffffffff1681526020019081526020016000206000018190555050565b601060009054906101000a900460ff1681565b600860019054906101000a900473ffffffffffffffffffffffffffffffffffffffff1673ffffffffffffffffffffffffffffffffffffffff163373ffffffffffffffffffffffffffffffffffffffff1614801561114a57506000600f54115b61115357600080fd5b80600d81905550600f5481101580156112165750600660009054906101000a900473ffffffffffffffffffffffffffffffffffffffff1673ffffffffffffffffffffffffffffffffffffffff166370a08231306040518263ffffffff1660e01b81526004016111c29190611f3a565b60206040518083038186803b1580156111da57600080fd5b505afa1580156111ee573d6000803e3d6000fd5b505050506040513d601f19601f820116820180604052508101906112129190611dc6565b8111155b1561122857611223611872565b611254565b6002600160146101000a81548160ff0219169083600481111561124e5761124d6124a5565b5b02179055505b50565b600960009054906101000a900473ffffffffffffffffffffffffffffffffffffffff1681565b60126020528060005260406000206000915090508060000154908060010160009054906101000a900461ffff16905082565b600860009054906101000a900460ff1681565b600860019054906101000a900473ffffffffffffffffffffffffffffffffffffffff1673ffffffffffffffffffffffffffffffffffffffff163373ffffffffffffffffffffffffffffffffffffffff16148061136b5750600960009054906101000a900473ffffffffffffffffffffffffffffffffffffffff1673ffffffffffffffffffffffffffffffffffffffff163373ffffffffffffffffffffffffffffffffffffffff16145b61137457600080fd5b6002600160146101000a81548160ff0219169083600481111561139a576113996124a5565b5b0217905550565b600a60009054906101000a900473ffffffffffffffffffffffffffffffffffffffff1681565b60035460025411156114025760018060146101000a81548160ff021916908360048111156113f8576113f76124a5565b5b02179055506114e1565b6003600160146101000a81548160ff02191690836004811115611428576114276124a5565b5b02179055506114e0600660009054906101000a900473ffffffffffffffffffffffffffffffffffffffff1673ffffffffffffffffffffffffffffffffffffffff166370a08231306040518263ffffffff1660e01b815260040161148b9190611f3a565b60206040518083038186803b1580156114a357600080fd5b505afa1580156114b7573d6000803e3d6000fd5b505050506040513d601f19601f820116820180604052508101906114db9190611dc6565b611a8b565b5b565b600860009054906101000a900460ff166114fc57600080fd5b600660009054906101000a900473ffffffffffffffffffffffffffffffffffffffff1673ffffffffffffffffffffffffffffffffffffffff1663a9059cbb83836040518363ffffffff1660e01b8152600401611559929190611f70565b602060405180830381600087803b15801561157357600080fd5b505af1158015611587573d6000803e3d6000fd5b505050506040513d601f19601f820116820180604052508101906115ab9190611d6c565b506000633b9aca00601154836115c19190612205565b6115cb91906121d4565b9050600160009054906101000a900473ffffffffffffffffffffffffffffffffffffffff1673ffffffffffffffffffffffffffffffffffffffff1663a9059cbb84836040518363ffffffff1660e01b815260040161162a929190611f70565b602060405180830381600087803b15801561164457600080fd5b505af1158015611658573d6000803e3d6000fd5b505050506040513d601f19601f8201168201806040525081019061167c9190611d6c565b506000600660009054906101000a900473ffffffffffffffffffffffffffffffffffffffff1673ffffffffffffffffffffffffffffffffffffffff166370a08231306040518263ffffffff1660e01b81526004016116da9190611f3a565b60206040518083038186803b1580156116f257600080fd5b505afa158015611706573d6000803e3d6000fd5b505050506040513d601f19601f8201168201806040525081019061172a9190611dc6565b141561173957611738611b60565b5b505050565b60008054906101000a900473ffffffffffffffffffffffffffffffffffffffff1673ffffffffffffffffffffffffffffffffffffffff163373ffffffffffffffffffffffffffffffffffffffff1614806117e55750600960009054906101000a900473ffffffffffffffffffffffffffffffffffffffff1673ffffffffffffffffffffffffffffffffffffffff163373ffffffffffffffffffffffffffffffffffffffff16145b611824576040517f08c379a000000000000000000000000000000000000000000000000000000000815260040161181b906120ab565b60405180910390fd5b81600660006101000a81548173ffffffffffffffffffffffffffffffffffffffff021916908373ffffffffffffffffffffffffffffffffffffffff16021790555061186e81610da8565b5050565b6001600860006101000a81548160ff0219169083151502179055506000600660009054906101000a900473ffffffffffffffffffffffffffffffffffffffff1673ffffffffffffffffffffffffffffffffffffffff166370a08231306040518263ffffffff1660e01b81526004016118ea9190611f3a565b60206040518083038186803b15801561190257600080fd5b505afa158015611916573d6000803e3d6000fd5b505050506040513d601f19601f8201168201806040525081019061193a9190611dc6565b90506000600d548261194c919061225f565b905060006127106103e8600d546119639190612205565b61196d91906121d4565b9050600660009054906101000a900473ffffffffffffffffffffffffffffffffffffffff1673ffffffffffffffffffffffffffffffffffffffff1663a9059cbb60008054906101000a900473ffffffffffffffffffffffffffffffffffffffff16836040518363ffffffff1660e01b81526004016119ec929190611f99565b602060405180830381600087803b158015611a0657600080fd5b505af1158015611a1a573d6000803e3d6000fd5b505050506040513d601f19601f82011682018060405250810190611a3e9190611d6c565b506000821115611a5a57611a5182611a8b565b6000600f819055505b7fc3186fe75cb01c657dd0d1a012f72fa2ce61a25df7dae33d34a814c2e10266d260405160405180910390a1505050565b600660009054906101000a900473ffffffffffffffffffffffffffffffffffffffff1673ffffffffffffffffffffffffffffffffffffffff1663a9059cbb600860019054906101000a900473ffffffffffffffffffffffffffffffffffffffff16836040518363ffffffff1660e01b8152600401611b0a929190611f70565b602060405180830381600087803b158015611b2457600080fd5b505af1158015611b38573d6000803e3d6000fd5b505050506040513d601f19601f82011682018060405250810190611b5c9190611d6c565b5050565b6000600860006101000a81548160ff02191690831515021790555060005b600b80549050811015611c2457600060126000600b8481548110611ba557611ba4612503565b5b9060005260206000200160009054906101000a900473ffffffffffffffffffffffffffffffffffffffff1673ffffffffffffffffffffffffffffffffffffffff1673ffffffffffffffffffffffffffffffffffffffff168152602001908152602001600020600001819055508080611c1c906123fe565b915050611b7e565b50565b600081359050611c36816125fd565b92915050565b600081359050611c4b81612614565b92915050565b600081359050611c608161262b565b92915050565b600081519050611c758161262b565b92915050565b600081359050611c8a81612642565b92915050565b600081519050611c9f81612642565b92915050565b600060208284031215611cbb57611cba612532565b5b6000611cc984828501611c27565b91505092915050565b600060208284031215611ce857611ce7612532565b5b6000611cf684828501611c3c565b91505092915050565b60008060408385031215611d1657611d15612532565b5b6000611d2485828601611c27565b9250506020611d3585828601611c7b565b9150509250929050565b600060208284031215611d5557611d54612532565b5b6000611d6384828501611c51565b91505092915050565b600060208284031215611d8257611d81612532565b5b6000611d9084828501611c66565b91505092915050565b600060208284031215611daf57611dae612532565b5b6000611dbd84828501611c7b565b91505092915050565b600060208284031215611ddc57611ddb612532565b5b6000611dea84828501611c90565b91505092915050565b611dfc8161231b565b82525050565b611e0b816122a5565b82525050565b611e1a81612293565b82525050565b611e29816122b7565b82525050565b611e388161232d565b82525050565b611e478161233f565b82525050565b611e5681612351565b82525050565b611e6581612363565b82525050565b6000611e768261212a565b611e808185612135565b9350611e90818560208601612399565b611e9981612537565b840191505092915050565b6000611eb1601783612135565b9150611ebc82612548565b602082019050919050565b6000611ed4603583612135565b9150611edf82612571565b604082019050919050565b6000611ef7601883612135565b9150611f02826125c0565b602082019050919050565b611f16816122d6565b82525050565b611f2581612304565b82525050565b611f348161230e565b82525050565b6000602082019050611f4f6000830184611e11565b92915050565b6000602082019050611f6a6000830184611e02565b92915050565b6000604082019050611f856000830185611df3565b611f926020830184611f1c565b9392505050565b6000604082019050611fae6000830185611e11565b611fbb6020830184611f1c565b9392505050565b6000602082019050611fd76000830184611e20565b92915050565b6000602082019050611ff26000830184611e2f565b92915050565b600060208201905061200d6000830184611e3e565b92915050565b60006020820190506120286000830184611e4d565b92915050565b60006020820190506120436000830184611e5c565b92915050565b600060208201905081810360008301526120638184611e6b565b905092915050565b6000602082019050818103600083015261208481611ea4565b9050919050565b600060208201905081810360008301526120a481611ec7565b9050919050565b600060208201905081810360008301526120c481611eea565b9050919050565b60006020820190506120e06000830184611f1c565b92915050565b60006040820190506120fb6000830185611f1c565b6121086020830184611f0d565b9392505050565b60006020820190506121246000830184611f2b565b92915050565b600081519050919050565b600082825260208201905092915050565b6000612151826122d6565b915061215c836122d6565b92508261ffff0382111561217357612172612447565b5b828201905092915050565b600061218982612304565b915061219483612304565b9250827fffffffffffffffffffffffffffffffffffffffffffffffffffffffffffffffff038211156121c9576121c8612447565b5b828201905092915050565b60006121df82612304565b91506121ea83612304565b9250826121fa576121f9612476565b5b828204905092915050565b600061221082612304565b915061221b83612304565b9250817fffffffffffffffffffffffffffffffffffffffffffffffffffffffffffffffff048311821515161561225457612253612447565b5b828202905092915050565b600061226a82612304565b915061227583612304565b92508282101561228857612287612447565b5b828203905092915050565b600061229e826122e4565b9050919050565b60006122b0826122e4565b9050919050565b60008115159050919050565b60008190506122d1826125e9565b919050565b600061ffff82169050919050565b600073ffffffffffffffffffffffffffffffffffffffff82169050919050565b6000819050919050565b600060ff82169050919050565b600061232682612375565b9050919050565b600061233882612375565b9050919050565b600061234a82612375565b9050919050565b600061235c82612375565b9050919050565b600061236e826122c3565b9050919050565b600061238082612387565b9050919050565b6000612392826122e4565b9050919050565b60005b838110156123b757808201518184015260208101905061239c565b838111156123c6576000848401525b50505050565b600060028204905060018216806123e457607f821691505b602082108114156123f8576123f76124d4565b5b50919050565b600061240982612304565b91507fffffffffffffffffffffffffffffffffffffffffffffffffffffffffffffffff82141561243c5761243b612447565b5b600182019050919050565b7f4e487b7100000000000000000000000000000000000000000000000000000000600052601160045260246000fd5b7f4e487b7100000000000000000000000000000000000000000000000000000000600052601260045260246000fd5b7f4e487b7100000000000000000000000000000000000000000000000000000000600052602160045260246000fd5b7f4e487b7100000000000000000000000000000000000000000000000000000000600052602260045260246000fd5b7f4e487b7100000000000000000000000000000000000000000000000000000000600052603260045260246000fd5b600080fd5b6000601f19601f8301169050919050565b7f566f74696e67206973207374696c6c206f6e676f696e67000000000000000000600082015250565b7f50726576696f757320546f6b656e206e6565647320746f206265206465706c6560008201527f746564206265666f726520746865206368616e67650000000000000000000000602082015250565b7f736f75726365206f7220736f757263696e67204c656164210000000000000000600082015250565b600581106125fa576125f96124a5565b5b50565b61260681612293565b811461261157600080fd5b50565b61261d816122a5565b811461262857600080fd5b50565b612634816122b7565b811461263f57600080fd5b50565b61264b81612304565b811461265657600080fd5b5056fea26469706673582212206fc82b1f75f8502607b046be7dbcdbcfee95d5a94bc350740ae93c099088278a64736f6c63430008070033a264697066735822122023699b2675e03cdaca77e25bae96ce77757b9fa285ed2fdb20c3d0ba48d779d364736f6c6343000807003360806040523480156200001157600080fd5b5060405162001cb638038062001cb6833981810160405281019062000037919062000350565b81818160039080519060200190620000519291906200020b565b5080600490805190602001906200006a9291906200020b565b5050506200007f33846200008860201b60201c565b505050620006cf565b600073ffffffffffffffffffffffffffffffffffffffff168273ffffffffffffffffffffffffffffffffffffffff161415620000fb576040517f08c379a0000000000000000000000000000000000000000000000000000000008152600401620000f29062000422565b60405180910390fd5b6200010f600083836200020160201b60201c565b8060026000828254620001239190620004d1565b92505081905550806000808473ffffffffffffffffffffffffffffffffffffffff1673ffffffffffffffffffffffffffffffffffffffff16815260200190815260200160002060008282546200017a9190620004d1565b925050819055508173ffffffffffffffffffffffffffffffffffffffff16600073ffffffffffffffffffffffffffffffffffffffff167fddf252ad1be2c89b69c2b068fc378daa952ba7f163c4a11628f55a4df523b3ef83604051620001e1919062000444565b60405180910390a3620001fd600083836200020660201b60201c565b5050565b505050565b505050565b82805462000219906200056e565b90600052602060002090601f0160209004810192826200023d576000855562000289565b82601f106200025857805160ff191683800117855562000289565b8280016001018555821562000289579182015b82811115620002885782518255916020019190600101906200026b565b5b5090506200029891906200029c565b5090565b5b80821115620002b75760008160009055506001016200029d565b5090565b6000620002d2620002cc846200048a565b62000461565b905082815260208101848484011115620002f157620002f06200066c565b5b620002fe84828562000538565b509392505050565b600082601f8301126200031e576200031d62000667565b5b815162000330848260208601620002bb565b91505092915050565b6000815190506200034a81620006b5565b92915050565b6000806000606084860312156200036c576200036b62000676565b5b60006200037c8682870162000339565b935050602084015167ffffffffffffffff811115620003a0576200039f62000671565b5b620003ae8682870162000306565b925050604084015167ffffffffffffffff811115620003d257620003d162000671565b5b620003e08682870162000306565b9150509250925092565b6000620003f9601f83620004c0565b915062000406826200068c565b602082019050919050565b6200041c816200052e565b82525050565b600060208201905081810360008301526200043d81620003ea565b9050919050565b60006020820190506200045b600083018462000411565b92915050565b60006200046d62000480565b90506200047b8282620005a4565b919050565b6000604051905090565b600067ffffffffffffffff821115620004a857620004a762000638565b5b620004b3826200067b565b9050602081019050919050565b600082825260208201905092915050565b6000620004de826200052e565b9150620004eb836200052e565b9250827fffffffffffffffffffffffffffffffffffffffffffffffffffffffffffffffff03821115620005235762000522620005da565b5b828201905092915050565b6000819050919050565b60005b83811015620005585780820151818401526020810190506200053b565b8381111562000568576000848401525b50505050565b600060028204905060018216806200058757607f821691505b602082108114156200059e576200059d62000609565b5b50919050565b620005af826200067b565b810181811067ffffffffffffffff82111715620005d157620005d062000638565b5b80604052505050565b7f4e487b7100000000000000000000000000000000000000000000000000000000600052601160045260246000fd5b7f4e487b7100000000000000000000000000000000000000000000000000000000600052602260045260246000fd5b7f4e487b7100000000000000000000000000000000000000000000000000000000600052604160045260246000fd5b600080fd5b600080fd5b600080fd5b600080fd5b6000601f19601f8301169050919050565b7f45524332303a206d696e7420746f20746865207a65726f206164647265737300600082015250565b620006c0816200052e565b8114620006cc57600080fd5b50565b6115d780620006df6000396000f3fe608060405234801561001057600080fd5b50600436106100b45760003560e01c80633950935111610071578063395093511461018f57806370a08231146101bf57806395d89b41146101ef578063a457c2d71461020d578063a9059cbb1461023d578063dd62ed3e1461026d576100b4565b806306fdde03146100b9578063095ea7b3146100d757806318160ddd1461010757806320e56dbd1461012557806323b872dd14610141578063313ce56714610171575b600080fd5b6100c161029d565b6040516100ce9190611029565b60405180910390f35b6100f160048036038101906100ec9190610e23565b61032f565b6040516100fe919061100e565b60405180910390f35b61010f61034d565b60405161011c919061114b565b60405180910390f35b61013f600480360381019061013a9190610e63565b610357565b005b61015b60048036038101906101569190610dd0565b610364565b604051610168919061100e565b60405180910390f35b61017961045c565b6040516101869190611166565b60405180910390f35b6101a960048036038101906101a49190610e23565b610465565b6040516101b6919061100e565b60405180910390f35b6101d960048036038101906101d49190610d63565b610511565b6040516101e6919061114b565b60405180910390f35b6101f7610559565b6040516102049190611029565b60405180910390f35b61022760048036038101906102229190610e23565b6105eb565b604051610234919061100e565b60405180910390f35b61025760048036038101906102529190610e23565b6106d6565b604051610264919061100e565b60405180910390f35b61028760048036038101906102829190610d90565b6106f4565b604051610294919061114b565b60405180910390f35b6060600380546102ac9061127b565b80601f01602080910402602001604051908101604052809291908181526020018280546102d89061127b565b80156103255780601f106102fa57610100808354040283529160200191610325565b820191906000526020600020905b81548152906001019060200180831161030857829003601f168201915b5050505050905090565b600061034361033c61077b565b8484610783565b6001905092915050565b6000600254905090565b610361338261094e565b50565b6000610371848484610aae565b6000600160008673ffffffffffffffffffffffffffffffffffffffff1673ffffffffffffffffffffffffffffffffffffffff16815260200190815260200160002060006103bc61077b565b73ffffffffffffffffffffffffffffffffffffffff1673ffffffffffffffffffffffffffffffffffffffff1681526020019081526020016000205490508281101561043c576040517f08c379a0000000000000000000000000000000000000000000000000000000008152600401610433906110ab565b60405180910390fd5b6104508561044861077b565b858403610783565b60019150509392505050565b60006012905090565b600061050761047261077b565b84846001600061048061077b565b73ffffffffffffffffffffffffffffffffffffffff1673ffffffffffffffffffffffffffffffffffffffff16815260200190815260200160002060008873ffffffffffffffffffffffffffffffffffffffff1673ffffffffffffffffffffffffffffffffffffffff16815260200190815260200160002054610502919061119d565b610783565b6001905092915050565b60008060008373ffffffffffffffffffffffffffffffffffffffff1673ffffffffffffffffffffffffffffffffffffffff168152602001908152602001600020549050919050565b6060600480546105689061127b565b80601f01602080910402602001604051908101604052809291908181526020018280546105949061127b565b80156105e15780601f106105b6576101008083540402835291602001916105e1565b820191906000526020600020905b8154815290600101906020018083116105c457829003601f168201915b5050505050905090565b600080600160006105fa61077b565b73ffffffffffffffffffffffffffffffffffffffff1673ffffffffffffffffffffffffffffffffffffffff16815260200190815260200160002060008573ffffffffffffffffffffffffffffffffffffffff1673ffffffffffffffffffffffffffffffffffffffff168152602001908152602001600020549050828110156106b7576040517f08c379a00000000000000000000000000000000000000000000000000000000081526004016106ae9061110b565b60405180910390fd5b6106cb6106c261077b565b85858403610783565b600191505092915050565b60006106ea6106e361077b565b8484610aae565b6001905092915050565b6000600160008473ffffffffffffffffffffffffffffffffffffffff1673ffffffffffffffffffffffffffffffffffffffff16815260200190815260200160002060008373ffffffffffffffffffffffffffffffffffffffff1673ffffffffffffffffffffffffffffffffffffffff16815260200190815260200160002054905092915050565b600033905090565b600073ffffffffffffffffffffffffffffffffffffffff168373ffffffffffffffffffffffffffffffffffffffff1614156107f3576040517f08c379a00000000000000000000000000000000000000000000000000000000081526004016107ea906110eb565b60405180910390fd5b600073ffffffffffffffffffffffffffffffffffffffff168273ffffffffffffffffffffffffffffffffffffffff161415610863576040517f08c379a000000000000000000000000000000000000000000000000000000000815260040161085a9061106b565b60405180910390fd5b80600160008573ffffffffffffffffffffffffffffffffffffffff1673ffffffffffffffffffffffffffffffffffffffff16815260200190815260200160002060008473ffffffffffffffffffffffffffffffffffffffff1673ffffffffffffffffffffffffffffffffffffffff168152602001908152602001600020819055508173ffffffffffffffffffffffffffffffffffffffff168373ffffffffffffffffffffffffffffffffffffffff167f8c5be1e5ebec7d5bd14f71427d1e84f3dd0314c0f7b2291e5b200ac8c7c3b92583604051610941919061114b565b60405180910390a3505050565b600073ffffffffffffffffffffffffffffffffffffffff168273ffffffffffffffffffffffffffffffffffffffff1614156109be576040517f08c379a00000000000000000000000000000000000000000000000000000000081526004016109b59061112b565b60405180910390fd5b6109ca60008383610d2f565b80600260008282546109dc919061119d565b92505081905550806000808473ffffffffffffffffffffffffffffffffffffffff1673ffffffffffffffffffffffffffffffffffffffff1681526020019081526020016000206000828254610a31919061119d565b925050819055508173ffffffffffffffffffffffffffffffffffffffff16600073ffffffffffffffffffffffffffffffffffffffff167fddf252ad1be2c89b69c2b068fc378daa952ba7f163c4a11628f55a4df523b3ef83604051610a96919061114b565b60405180910390a3610aaa60008383610d34565b5050565b600073ffffffffffffffffffffffffffffffffffffffff168373ffffffffffffffffffffffffffffffffffffffff161415610b1e576040517f08c379a0000000000000000000000000000000000000000000000000000000008152600401610b15906110cb565b60405180910390fd5b600073ffffffffffffffffffffffffffffffffffffffff168273ffffffffffffffffffffffffffffffffffffffff161415610b8e576040517f08c379a0000000000000000000000000000000000000000000000000000000008152600401610b859061104b565b60405180910390fd5b610b99838383610d2f565b60008060008573ffffffffffffffffffffffffffffffffffffffff1673ffffffffffffffffffffffffffffffffffffffff16815260200190815260200160002054905081811015610c1f576040517f08c379a0000000000000000000000000000000000000000000000000000000008152600401610c169061108b565b60405180910390fd5b8181036000808673ffffffffffffffffffffffffffffffffffffffff1673ffffffffffffffffffffffffffffffffffffffff16815260200190815260200160002081905550816000808573ffffffffffffffffffffffffffffffffffffffff1673ffffffffffffffffffffffffffffffffffffffff1681526020019081526020016000206000828254610cb2919061119d565b925050819055508273ffffffffffffffffffffffffffffffffffffffff168473ffffffffffffffffffffffffffffffffffffffff167fddf252ad1be2c89b69c2b068fc378daa952ba7f163c4a11628f55a4df523b3ef84604051610d16919061114b565b60405180910390a3610d29848484610d34565b50505050565b505050565b505050565b600081359050610d4881611573565b92915050565b600081359050610d5d8161158a565b92915050565b600060208284031215610d7957610d7861130b565b5b6000610d8784828501610d39565b91505092915050565b60008060408385031215610da757610da661130b565b5b6000610db585828601610d39565b9250506020610dc685828601610d39565b9150509250929050565b600080600060608486031215610de957610de861130b565b5b6000610df786828701610d39565b9350506020610e0886828701610d39565b9250506040610e1986828701610d4e565b9150509250925092565b60008060408385031215610e3a57610e3961130b565b5b6000610e4885828601610d39565b9250506020610e5985828601610d4e565b9150509250929050565b600060208284031215610e7957610e7861130b565b5b6000610e8784828501610d4e565b91505092915050565b610e9981611205565b82525050565b6000610eaa82611181565b610eb4818561118c565b9350610ec4818560208601611248565b610ecd81611310565b840191505092915050565b6000610ee560238361118c565b9150610ef082611321565b604082019050919050565b6000610f0860228361118c565b9150610f1382611370565b604082019050919050565b6000610f2b60268361118c565b9150610f36826113bf565b604082019050919050565b6000610f4e60288361118c565b9150610f598261140e565b604082019050919050565b6000610f7160258361118c565b9150610f7c8261145d565b604082019050919050565b6000610f9460248361118c565b9150610f9f826114ac565b604082019050919050565b6000610fb760258361118c565b9150610fc2826114fb565b604082019050919050565b6000610fda601f8361118c565b9150610fe58261154a565b602082019050919050565b610ff981611231565b82525050565b6110088161123b565b82525050565b60006020820190506110236000830184610e90565b92915050565b600060208201905081810360008301526110438184610e9f565b905092915050565b6000602082019050818103600083015261106481610ed8565b9050919050565b6000602082019050818103600083015261108481610efb565b9050919050565b600060208201905081810360008301526110a481610f1e565b9050919050565b600060208201905081810360008301526110c481610f41565b9050919050565b600060208201905081810360008301526110e481610f64565b9050919050565b6000602082019050818103600083015261110481610f87565b9050919050565b6000602082019050818103600083015261112481610faa565b9050919050565b6000602082019050818103600083015261114481610fcd565b9050919050565b60006020820190506111606000830184610ff0565b92915050565b600060208201905061117b6000830184610fff565b92915050565b600081519050919050565b600082825260208201905092915050565b60006111a882611231565b91506111b383611231565b9250827fffffffffffffffffffffffffffffffffffffffffffffffffffffffffffffffff038211156111e8576111e76112ad565b5b828201905092915050565b60006111fe82611211565b9050919050565b60008115159050919050565b600073ffffffffffffffffffffffffffffffffffffffff82169050919050565b6000819050919050565b600060ff82169050919050565b60005b8381101561126657808201518184015260208101905061124b565b83811115611275576000848401525b50505050565b6000600282049050600182168061129357607f821691505b602082108114156112a7576112a66112dc565b5b50919050565b7f4e487b7100000000000000000000000000000000000000000000000000000000600052601160045260246000fd5b7f4e487b7100000000000000000000000000000000000000000000000000000000600052602260045260246000fd5b600080fd5b6000601f19601f8301169050919050565b7f45524332303a207472616e7366657220746f20746865207a65726f206164647260008201527f6573730000000000000000000000000000000000000000000000000000000000602082015250565b7f45524332303a20617070726f766520746f20746865207a65726f20616464726560008201527f7373000000000000000000000000000000000000000000000000000000000000602082015250565b7f45524332303a207472616e7366657220616d6f756e742065786365656473206260008201527f616c616e63650000000000000000000000000000000000000000000000000000602082015250565b7f45524332303a207472616e7366657220616d6f756e742065786365656473206160008201527f6c6c6f77616e6365000000000000000000000000000000000000000000000000602082015250565b7f45524332303a207472616e736665722066726f6d20746865207a65726f20616460008201527f6472657373000000000000000000000000000000000000000000000000000000602082015250565b7f45524332303a20617070726f76652066726f6d20746865207a65726f2061646460008201527f7265737300000000000000000000000000000000000000000000000000000000602082015250565b7f45524332303a2064656372656173656420616c6c6f77616e63652062656c6f7760008201527f207a65726f000000000000000000000000000000000000000000000000000000602082015250565b7f45524332303a206d696e7420746f20746865207a65726f206164647265737300600082015250565b61157c816111f3565b811461158757600080fd5b50565b61159381611231565b811461159e57600080fd5b5056fea2646970667358221220f9bd3867924faa2a380a48560eaaf24d7ad870a32faf9bd74039fd381df1d32364736f6c63430008070033",
  "linkReferences": {},
  "deployedLinkReferences": {}
}