{
  "_format": "hh-sol-artifact-1",
  "contractName": "Source",
  "sourceName": "contracts/all.sol",
  "abi": [
    {
      "inputs": [],
      "stateMutability": "nonpayable",
      "type": "constructor"
    },
    {
      "anonymous": false,
      "inputs": [
        {
          "indexed": false,
          "internalType": "address",
          "name": "_human",
          "type": "address"
        }
      ],
      "name": "HumanCreated",
      "type": "event"
    },
    {
      "anonymous": false,
      "inputs": [
        {
          "indexed": false,
          "internalType": "address",
          "name": "_project",
          "type": "address"
        }
      ],
      "name": "ProjectCreated",
      "type": "event"
    },
    {
      "inputs": [
        {
          "internalType": "address payable",
          "name": "_client",
          "type": "address"
        },
        {
          "internalType": "address payable",
          "name": "_arbiter",
          "type": "address"
        },
        {
          "internalType": "address",
          "name": "_paymentTokenAddress",
          "type": "address"
        },
        {
          "internalType": "uint8",
          "name": "_votingDuration",
          "type": "uint8"
        }
      ],
      "name": "createProject",
      "outputs": [],
      "stateMutability": "nonpayable",
      "type": "function"
    },
    {
      "inputs": [
        {
          "internalType": "uint256",
          "name": "",
          "type": "uint256"
        }
      ],
      "name": "projects",
      "outputs": [
        {
          "internalType": "address",
          "name": "",
          "type": "address"
        }
      ],
      "stateMutability": "view",
      "type": "function"
    },
    {
      "inputs": [],
      "name": "repToken",
      "outputs": [
        {
          "internalType": "contract RepToken",
          "name": "",
          "type": "address"
        }
      ],
      "stateMutability": "view",
      "type": "function"
    }
  ],
  "bytecode": "0x608060405267013fbe85edc9000060025534801561001c57600080fd5b5060025460405161002c90610098565b61003691906100b4565b604051809103906000f080158015610052573d6000803e3d6000fd5b50600160006101000a81548173ffffffffffffffffffffffffffffffffffffffff021916908373ffffffffffffffffffffffffffffffffffffffff1602179055506100d9565b6118f180612f7883390190565b6100ae816100cf565b82525050565b60006020820190506100c960008301846100a5565b92915050565b6000819050919050565b612e90806100e86000396000f3fe60806040523480156200001157600080fd5b5060043610620000465760003560e01c8063107046bd146200004b57806329034a5c14620000815780638e63779614620000a3575b600080fd5b620000696004803603810190620000639190620002d8565b620000c3565b6040516200007891906200034e565b60405180910390f35b6200008b62000103565b6040516200009a9190620003d8565b60405180910390f35b620000c16004803603810190620000bb919062000266565b62000129565b005b60008181548110620000d457600080fd5b906000526020600020016000915054906101000a900473ffffffffffffffffffffffffffffffffffffffff1681565b600160009054906101000a900473ffffffffffffffffffffffffffffffffffffffff1681565b6000338585600160009054906101000a900473ffffffffffffffffffffffffffffffffffffffff1686866040516200016190620001fc565b62000172969594939291906200036b565b604051809103906000f0801580156200018f573d6000803e3d6000fd5b5090506000819080600181540180825580915050600190039060005260206000200160009091909190916101000a81548173ffffffffffffffffffffffffffffffffffffffff021916908373ffffffffffffffffffffffffffffffffffffffff1602179055505050505050565b61295d80620004fe83390190565b6000813590506200021b8162000495565b92915050565b6000813590506200023281620004af565b92915050565b6000813590506200024981620004c9565b92915050565b6000813590506200026081620004e3565b92915050565b6000806000806080858703121562000283576200028262000490565b5b6000620002938782880162000221565b9450506020620002a68782880162000221565b9350506040620002b9878288016200020a565b9250506060620002cc878288016200024f565b91505092959194509250565b600060208284031215620002f157620002f062000490565b5b6000620003018482850162000238565b91505092915050565b620003158162000409565b82525050565b6200032681620003f5565b82525050565b620003378162000454565b82525050565b620003488162000447565b82525050565b60006020820190506200036560008301846200031b565b92915050565b600060c0820190506200038260008301896200030a565b6200039160208301886200030a565b620003a060408301876200030a565b620003af60608301866200031b565b620003be60808301856200031b565b620003cd60a08301846200033d565b979650505050505050565b6000602082019050620003ef60008301846200032c565b92915050565b600062000402826200041d565b9050919050565b600062000416826200041d565b9050919050565b600073ffffffffffffffffffffffffffffffffffffffff82169050919050565b6000819050919050565b600060ff82169050919050565b6000620004618262000468565b9050919050565b600062000475826200047c565b9050919050565b600062000489826200041d565b9050919050565b600080fd5b620004a081620003f5565b8114620004ac57600080fd5b50565b620004ba8162000409565b8114620004c657600080fd5b50565b620004d4816200043d565b8114620004e057600080fd5b50565b620004ee8162000447565b8114620004fa57600080fd5b5056fe60806040526000600860006101000a81548160ff0219169083151502179055506000600e60006101000a81548160ff0219169083151502179055506000600f556032601060006101000a81548160ff021916908360ff160217905550633b9aca006011553480156200007057600080fd5b506040516200295d3803806200295d833981810160405281019062000096919062000481565b6000600160146101000a81548160ff02191690836004811115620000bf57620000be62000572565b5b021790555085600960006101000a81548173ffffffffffffffffffffffffffffffffffffffff021916908373ffffffffffffffffffffffffffffffffffffffff160217905550600b600960009054906101000a900473ffffffffffffffffffffffffffffffffffffffff169080600181540180825580915050600190039060005260206000200160009091909190916101000a81548173ffffffffffffffffffffffffffffffffffffffff021916908373ffffffffffffffffffffffffffffffffffffffff16021790555084600860016101000a81548173ffffffffffffffffffffffffffffffffffffffff021916908373ffffffffffffffffffffffffffffffffffffffff16021790555083600a60006101000a81548173ffffffffffffffffffffffffffffffffffffffff021916908373ffffffffffffffffffffffffffffffffffffffff160217905550336000806101000a81548173ffffffffffffffffffffffffffffffffffffffff021916908373ffffffffffffffffffffffffffffffffffffffff16021790555082600160006101000a81548173ffffffffffffffffffffffffffffffffffffffff021916908373ffffffffffffffffffffffffffffffffffffffff16021790555042600c8190555080600960146101000a81548160ff021916908360ff160217905550620002c382601154620002cf60201b60201c565b505050505050620005f4565b60008054906101000a900473ffffffffffffffffffffffffffffffffffffffff1673ffffffffffffffffffffffffffffffffffffffff163373ffffffffffffffffffffffffffffffffffffffff161480620003775750600960009054906101000a900473ffffffffffffffffffffffffffffffffffffffff1673ffffffffffffffffffffffffffffffffffffffff163373ffffffffffffffffffffffffffffffffffffffff16145b6200038157600080fd5b81600660006101000a81548173ffffffffffffffffffffffffffffffffffffffff021916908373ffffffffffffffffffffffffffffffffffffffff160217905550620003d381620003d760201b60201c565b5050565b600960009054906101000a900473ffffffffffffffffffffffffffffffffffffffff1673ffffffffffffffffffffffffffffffffffffffff163373ffffffffffffffffffffffffffffffffffffffff16146200043257600080fd5b8060118190555050565b6000815190506200044d81620005a6565b92915050565b6000815190506200046481620005c0565b92915050565b6000815190506200047b81620005da565b92915050565b60008060008060008060c08789031215620004a157620004a0620005a1565b5b6000620004b189828a0162000453565b9650506020620004c489828a0162000453565b9550506040620004d789828a0162000453565b9450506060620004ea89828a016200043c565b9350506080620004fd89828a016200043c565b92505060a06200051089828a016200046a565b9150509295509295509295565b60006200052a8262000545565b9050919050565b60006200053e8262000545565b9050919050565b600073ffffffffffffffffffffffffffffffffffffffff82169050919050565b600060ff82169050919050565b7f4e487b7100000000000000000000000000000000000000000000000000000000600052602160045260246000fd5b600080fd5b620005b1816200051d565b8114620005bd57600080fd5b50565b620005cb8162000531565b8114620005d757600080fd5b50565b620005e58162000565565b8114620005f157600080fd5b50565b61235980620006046000396000f3fe608060405234801561001057600080fd5b50600436106101e55760003560e01c806348916c891161010f578063bd5ae89c116100a2578063e3ade6d611610071578063e3ade6d614610527578063f240f7c314610545578063fb0288481461054f578063fe25e00a1461056b576101e5565b8063bd5ae89c1461049e578063c438b40f146104bc578063d2da0182146104d8578063e2982c21146104f6576101e5565b80636ffa7174116100de5780636ffa71741461042a578063908c36ca146104465780639872330b14610464578063bad92c2714610482576101e5565b806348916c89146103b85780634c5d9ddd146103d457806367e828bf146103f05780636f8a42d41461040e576101e5565b80632638e16a1161018757806339518b5e1161015657806339518b5e1461034457806339d5d126146103625780633eb2b5ad14610380578063431c0c881461039c576101e5565b80632638e16a146102ce57806329034a5c146102ea5780633013ce2914610308578063359d393d14610326576101e5565b8063128ef1ad116101c3578063128ef1ad14610256578063132002fc146102745780631703a01814610292578063200d2ed2146102b0576101e5565b80630dff5008146101ea5780630e7d490d1461021a578063109e94cf14610238575b600080fd5b61020460048036038101906101ff9190611b27565b610589565b6040516102119190611d41565b60405180910390f35b6102226106e8565b60405161022f9190611dea565b60405180910390f35b6102406106ee565b60405161024d9190611cd4565b60405180910390f35b61025e610714565b60405161026b9190611dc8565b60405180910390f35b61027c6107a2565b6040516102899190611e2e565b60405180910390f35b61029a6107b5565b6040516102a79190611dea565b60405180910390f35b6102b86107bb565b6040516102c59190611dad565b60405180910390f35b6102e860048036038101906102e39190611aba565b6107ce565b005b6102f2610978565b6040516102ff9190611d77565b60405180910390f35b61031061099e565b60405161031d9190611d5c565b60405180910390f35b61032e6109c4565b60405161033b9190611dea565b60405180910390f35b61034c6109ca565b6040516103599190611dea565b60405180910390f35b61036a6109d0565b6040516103779190611dea565b60405180910390f35b61039a60048036038101906103959190611aba565b6109d6565b005b6103b660048036038101906103b19190611b81565b610b44565b005b6103d260048036038101906103cd9190611ae7565b610ba8565b005b6103ee60048036038101906103e99190611b27565b610c5c565b005b6103f8610d3a565b6040516104059190611d92565b60405180910390f35b61042860048036038101906104239190611b81565b610d5e565b005b610444600480360381019061043f9190611ae7565b610dc2565b005b61044e610ec0565b60405161045b9190611dea565b60405180910390f35b61046c610ec6565b6040516104799190611dea565b60405180910390f35b61049c60048036038101906104979190611b81565b610ecc565b005b6104a6610f16565b6040516104b39190611e2e565b60405180910390f35b6104d660048036038101906104d19190611b81565b610f29565b005b6104e0611095565b6040516104ed9190611cd4565b60405180910390f35b610510600480360381019061050b9190611a8d565b6110bb565b60405161051e929190611e05565b60405180910390f35b61052f6110ed565b60405161053c9190611d41565b60405180910390f35b61054d611100565b005b61056960048036038101906105649190611b27565b6111df565b005b6105736112c5565b6040516105809190611cd4565b60405180910390f35b600062015180600960149054906101000a900460ff1660ff166105ac9190611f24565b62ffffff16600c54426105bf9190611fbb565b11156105d6576105cd6112eb565b600090506106e3565b6000600160009054906101000a900473ffffffffffffffffffffffffffffffffffffffff1673ffffffffffffffffffffffffffffffffffffffff166370a08231336040518263ffffffff1660e01b81526004016106339190611cb9565b60206040518083038186803b15801561064b57600080fd5b505afa15801561065f573d6000803e3d6000fd5b505050506040513d601f19601f820116820180604052508101906106839190611bae565b905082156106a957806002600082825461069d9190611e9d565b925050819055506106c3565b80600360008282546106bb9190611e9d565b925050819055505b6001600460008282546106d69190611e9d565b9250508190555060019150505b919050565b60045481565b600860019054906101000a900473ffffffffffffffffffffffffffffffffffffffff1681565b6007805461072190612137565b80601f016020809104026020016040519081016040528092919081815260200182805461074d90612137565b801561079a5780601f1061076f5761010080835404028352916020019161079a565b820191906000526020600020905b81548152906001019060200180831161077d57829003601f168201915b505050505081565b600960149054906101000a900460ff1681565b60055481565b600160149054906101000a900460ff1681565b601360003373ffffffffffffffffffffffffffffffffffffffff1673ffffffffffffffffffffffffffffffffffffffff16815260200190815260200160002060009054906101000a900460ff1661082457600080fd5b6001601260008373ffffffffffffffffffffffffffffffffffffffff1673ffffffffffffffffffffffffffffffffffffffff16815260200190815260200160002060010160008282829054906101000a900461ffff166108849190611e65565b92506101000a81548161ffff021916908361ffff1602179055506064601060009054906101000a900460ff1660ff16600b805490506108c39190611f61565b6108cd9190611ef3565b601260008373ffffffffffffffffffffffffffffffffffffffff1673ffffffffffffffffffffffffffffffffffffffff16815260200190815260200160002060010160009054906101000a900461ffff1661ffff1611156109755761097481601260008473ffffffffffffffffffffffffffffffffffffffff1673ffffffffffffffffffffffffffffffffffffffff16815260200190815260200160002060000154611407565b5b50565b600160009054906101000a900473ffffffffffffffffffffffffffffffffffffffff1681565b600660009054906101000a900473ffffffffffffffffffffffffffffffffffffffff1681565b60035481565b600c5481565b60025481565b600960009054906101000a900473ffffffffffffffffffffffffffffffffffffffff1673ffffffffffffffffffffffffffffffffffffffff163373ffffffffffffffffffffffffffffffffffffffff161480610a7d575060008054906101000a900473ffffffffffffffffffffffffffffffffffffffff1673ffffffffffffffffffffffffffffffffffffffff163373ffffffffffffffffffffffffffffffffffffffff16145b610a8657600080fd5b600b819080600181540180825580915050600190039060005260206000200160009091909190916101000a81548173ffffffffffffffffffffffffffffffffffffffff021916908373ffffffffffffffffffffffffffffffffffffffff1602179055506001601360008373ffffffffffffffffffffffffffffffffffffffff1673ffffffffffffffffffffffffffffffffffffffff16815260200190815260200160002060006101000a81548160ff02191690831515021790555050565b600960009054906101000a900473ffffffffffffffffffffffffffffffffffffffff1673ffffffffffffffffffffffffffffffffffffffff163373ffffffffffffffffffffffffffffffffffffffff1614610b9e57600080fd5b8060118190555050565b600160009054906101000a900473ffffffffffffffffffffffffffffffffffffffff1673ffffffffffffffffffffffffffffffffffffffff1663a9059cbb83836040518363ffffffff1660e01b8152600401610c05929190611d18565b602060405180830381600087803b158015610c1f57600080fd5b505af1158015610c33573d6000803e3d6000fd5b505050506040513d601f19601f82011682018060405250810190610c579190611b54565b505050565b600a60009054906101000a900473ffffffffffffffffffffffffffffffffffffffff1673ffffffffffffffffffffffffffffffffffffffff163373ffffffffffffffffffffffffffffffffffffffff16148015610cec575060026004811115610cc857610cc7612210565b5b600160149054906101000a900460ff166004811115610cea57610ce9612210565b5b145b610cf557600080fd5b8015610d0557600f54600d819055505b60018060146101000a81548160ff02191690836004811115610d2a57610d29612210565b5b0217905550610d37611662565b50565b60008054906101000a900473ffffffffffffffffffffffffffffffffffffffff1681565b600960009054906101000a900473ffffffffffffffffffffffffffffffffffffffff1673ffffffffffffffffffffffffffffffffffffffff163373ffffffffffffffffffffffffffffffffffffffff1614610db857600080fd5b80600f8190555050565b60008054906101000a900473ffffffffffffffffffffffffffffffffffffffff1673ffffffffffffffffffffffffffffffffffffffff163373ffffffffffffffffffffffffffffffffffffffff161480610e695750600960009054906101000a900473ffffffffffffffffffffffffffffffffffffffff1673ffffffffffffffffffffffffffffffffffffffff163373ffffffffffffffffffffffffffffffffffffffff16145b610e7257600080fd5b81600660006101000a81548173ffffffffffffffffffffffffffffffffffffffff021916908373ffffffffffffffffffffffffffffffffffffffff160217905550610ebc81610b44565b5050565b600d5481565b60115481565b80601260003373ffffffffffffffffffffffffffffffffffffffff1673ffffffffffffffffffffffffffffffffffffffff1681526020019081526020016000206000018190555050565b601060009054906101000a900460ff1681565b600860019054906101000a900473ffffffffffffffffffffffffffffffffffffffff1673ffffffffffffffffffffffffffffffffffffffff163373ffffffffffffffffffffffffffffffffffffffff16148015610f8857506000600f54115b610f9157600080fd5b80600d81905550600f5481101580156110545750600660009054906101000a900473ffffffffffffffffffffffffffffffffffffffff1673ffffffffffffffffffffffffffffffffffffffff166370a08231306040518263ffffffff1660e01b81526004016110009190611cb9565b60206040518083038186803b15801561101857600080fd5b505afa15801561102c573d6000803e3d6000fd5b505050506040513d601f19601f820116820180604052508101906110509190611bae565b8111155b1561106657611061611662565b611092565b6002600160146101000a81548160ff0219169083600481111561108c5761108b612210565b5b02179055505b50565b600960009054906101000a900473ffffffffffffffffffffffffffffffffffffffff1681565b60126020528060005260406000206000915090508060000154908060010160009054906101000a900461ffff16905082565b600860009054906101000a900460ff1681565b600860019054906101000a900473ffffffffffffffffffffffffffffffffffffffff1673ffffffffffffffffffffffffffffffffffffffff163373ffffffffffffffffffffffffffffffffffffffff1614806111a95750600960009054906101000a900473ffffffffffffffffffffffffffffffffffffffff1673ffffffffffffffffffffffffffffffffffffffff163373ffffffffffffffffffffffffffffffffffffffff16145b6111b257600080fd5b6002600160146101000a81548160ff021916908360048111156111d8576111d7612210565b5b0217905550565b60005b600b805490508110156112c157600b81815481106112035761120261226e565b5b9060005260206000200160009054906101000a900473ffffffffffffffffffffffffffffffffffffffff1673ffffffffffffffffffffffffffffffffffffffff163373ffffffffffffffffffffffffffffffffffffffff161415611266576112ae565b6112ad600b828154811061127d5761127c61226e565b5b9060005260206000200160009054906101000a900473ffffffffffffffffffffffffffffffffffffffff166107ce565b5b80806112b990612169565b9150506111e2565b5050565b600a60009054906101000a900473ffffffffffffffffffffffffffffffffffffffff1681565b60035460025411156113265760018060146101000a81548160ff0219169083600481111561131c5761131b612210565b5b0217905550611405565b6003600160146101000a81548160ff0219169083600481111561134c5761134b612210565b5b0217905550611404600660009054906101000a900473ffffffffffffffffffffffffffffffffffffffff1673ffffffffffffffffffffffffffffffffffffffff166370a08231306040518263ffffffff1660e01b81526004016113af9190611cb9565b60206040518083038186803b1580156113c757600080fd5b505afa1580156113db573d6000803e3d6000fd5b505050506040513d601f19601f820116820180604052508101906113ff9190611bae565b611873565b5b565b600860009054906101000a900460ff1661142057600080fd5b600660009054906101000a900473ffffffffffffffffffffffffffffffffffffffff1673ffffffffffffffffffffffffffffffffffffffff1663a9059cbb83836040518363ffffffff1660e01b815260040161147d929190611cef565b602060405180830381600087803b15801561149757600080fd5b505af11580156114ab573d6000803e3d6000fd5b505050506040513d601f19601f820116820180604052508101906114cf9190611b54565b506000633b9aca00601154836114e59190611f61565b6114ef9190611ef3565b9050600160009054906101000a900473ffffffffffffffffffffffffffffffffffffffff1673ffffffffffffffffffffffffffffffffffffffff1663a9059cbb84836040518363ffffffff1660e01b815260040161154e929190611cef565b602060405180830381600087803b15801561156857600080fd5b505af115801561157c573d6000803e3d6000fd5b505050506040513d601f19601f820116820180604052508101906115a09190611b54565b506000600660009054906101000a900473ffffffffffffffffffffffffffffffffffffffff1673ffffffffffffffffffffffffffffffffffffffff166370a08231306040518263ffffffff1660e01b81526004016115fe9190611cb9565b60206040518083038186803b15801561161657600080fd5b505afa15801561162a573d6000803e3d6000fd5b505050506040513d601f19601f8201168201806040525081019061164e9190611bae565b141561165d5761165c611948565b5b505050565b6001600860006101000a81548160ff0219169083151502179055506000600660009054906101000a900473ffffffffffffffffffffffffffffffffffffffff1673ffffffffffffffffffffffffffffffffffffffff166370a08231306040518263ffffffff1660e01b81526004016116da9190611cb9565b60206040518083038186803b1580156116f257600080fd5b505afa158015611706573d6000803e3d6000fd5b505050506040513d601f19601f8201168201806040525081019061172a9190611bae565b90506000600d548261173c9190611fbb565b905060006127106103e8600d546117539190611f61565b61175d9190611ef3565b9050600660009054906101000a900473ffffffffffffffffffffffffffffffffffffffff1673ffffffffffffffffffffffffffffffffffffffff1663a9059cbb60008054906101000a900473ffffffffffffffffffffffffffffffffffffffff16836040518363ffffffff1660e01b81526004016117dc929190611d18565b602060405180830381600087803b1580156117f657600080fd5b505af115801561180a573d6000803e3d6000fd5b505050506040513d601f19601f8201168201806040525081019061182e9190611b54565b5060008211156118425761184182611873565b5b7fc3186fe75cb01c657dd0d1a012f72fa2ce61a25df7dae33d34a814c2e10266d260405160405180910390a1505050565b600660009054906101000a900473ffffffffffffffffffffffffffffffffffffffff1673ffffffffffffffffffffffffffffffffffffffff1663a9059cbb600860019054906101000a900473ffffffffffffffffffffffffffffffffffffffff16836040518363ffffffff1660e01b81526004016118f2929190611cef565b602060405180830381600087803b15801561190c57600080fd5b505af1158015611920573d6000803e3d6000fd5b505050506040513d601f19601f820116820180604052508101906119449190611b54565b5050565b6000600860006101000a81548160ff02191690831515021790555060005b600b80549050811015611a0c57600060126000600b848154811061198d5761198c61226e565b5b9060005260206000200160009054906101000a900473ffffffffffffffffffffffffffffffffffffffff1673ffffffffffffffffffffffffffffffffffffffff1673ffffffffffffffffffffffffffffffffffffffff168152602001908152602001600020600001819055508080611a0490612169565b915050611966565b50565b600081359050611a1e816122c7565b92915050565b600081359050611a33816122de565b92915050565b600081359050611a48816122f5565b92915050565b600081519050611a5d816122f5565b92915050565b600081359050611a728161230c565b92915050565b600081519050611a878161230c565b92915050565b600060208284031215611aa357611aa261229d565b5b6000611ab184828501611a0f565b91505092915050565b600060208284031215611ad057611acf61229d565b5b6000611ade84828501611a24565b91505092915050565b60008060408385031215611afe57611afd61229d565b5b6000611b0c85828601611a0f565b9250506020611b1d85828601611a63565b9150509250929050565b600060208284031215611b3d57611b3c61229d565b5b6000611b4b84828501611a39565b91505092915050565b600060208284031215611b6a57611b6961229d565b5b6000611b7884828501611a4e565b91505092915050565b600060208284031215611b9757611b9661229d565b5b6000611ba584828501611a63565b91505092915050565b600060208284031215611bc457611bc361229d565b5b6000611bd284828501611a78565b91505092915050565b611be481612086565b82525050565b611bf381612001565b82525050565b611c0281611fef565b82525050565b611c1181612013565b82525050565b611c2081612098565b82525050565b611c2f816120aa565b82525050565b611c3e816120bc565b82525050565b611c4d816120ce565b82525050565b6000611c5e82611e49565b611c688185611e54565b9350611c78818560208601612104565b611c81816122a2565b840191505092915050565b611c9581612032565b82525050565b611ca48161206f565b82525050565b611cb381612079565b82525050565b6000602082019050611cce6000830184611bf9565b92915050565b6000602082019050611ce96000830184611bea565b92915050565b6000604082019050611d046000830185611bdb565b611d116020830184611c9b565b9392505050565b6000604082019050611d2d6000830185611bf9565b611d3a6020830184611c9b565b9392505050565b6000602082019050611d566000830184611c08565b92915050565b6000602082019050611d716000830184611c17565b92915050565b6000602082019050611d8c6000830184611c26565b92915050565b6000602082019050611da76000830184611c35565b92915050565b6000602082019050611dc26000830184611c44565b92915050565b60006020820190508181036000830152611de28184611c53565b905092915050565b6000602082019050611dff6000830184611c9b565b92915050565b6000604082019050611e1a6000830185611c9b565b611e276020830184611c8c565b9392505050565b6000602082019050611e436000830184611caa565b92915050565b600081519050919050565b600082825260208201905092915050565b6000611e7082612032565b9150611e7b83612032565b92508261ffff03821115611e9257611e916121b2565b5b828201905092915050565b6000611ea88261206f565b9150611eb38361206f565b9250827fffffffffffffffffffffffffffffffffffffffffffffffffffffffffffffffff03821115611ee857611ee76121b2565b5b828201905092915050565b6000611efe8261206f565b9150611f098361206f565b925082611f1957611f186121e1565b5b828204905092915050565b6000611f2f82612060565b9150611f3a83612060565b92508162ffffff0483118215151615611f5657611f556121b2565b5b828202905092915050565b6000611f6c8261206f565b9150611f778361206f565b9250817fffffffffffffffffffffffffffffffffffffffffffffffffffffffffffffffff0483118215151615611fb057611faf6121b2565b5b828202905092915050565b6000611fc68261206f565b9150611fd18361206f565b925082821015611fe457611fe36121b2565b5b828203905092915050565b6000611ffa82612040565b9050919050565b600061200c82612040565b9050919050565b60008115159050919050565b600081905061202d826122b3565b919050565b600061ffff82169050919050565b600073ffffffffffffffffffffffffffffffffffffffff82169050919050565b600062ffffff82169050919050565b6000819050919050565b600060ff82169050919050565b6000612091826120e0565b9050919050565b60006120a3826120e0565b9050919050565b60006120b5826120e0565b9050919050565b60006120c7826120e0565b9050919050565b60006120d98261201f565b9050919050565b60006120eb826120f2565b9050919050565b60006120fd82612040565b9050919050565b60005b83811015612122578082015181840152602081019050612107565b83811115612131576000848401525b50505050565b6000600282049050600182168061214f57607f821691505b602082108114156121635761216261223f565b5b50919050565b60006121748261206f565b91507fffffffffffffffffffffffffffffffffffffffffffffffffffffffffffffffff8214156121a7576121a66121b2565b5b600182019050919050565b7f4e487b7100000000000000000000000000000000000000000000000000000000600052601160045260246000fd5b7f4e487b7100000000000000000000000000000000000000000000000000000000600052601260045260246000fd5b7f4e487b7100000000000000000000000000000000000000000000000000000000600052602160045260246000fd5b7f4e487b7100000000000000000000000000000000000000000000000000000000600052602260045260246000fd5b7f4e487b7100000000000000000000000000000000000000000000000000000000600052603260045260246000fd5b600080fd5b6000601f19601f8301169050919050565b600581106122c4576122c3612210565b5b50565b6122d081611fef565b81146122db57600080fd5b50565b6122e781612001565b81146122f257600080fd5b50565b6122fe81612013565b811461230957600080fd5b50565b6123158161206f565b811461232057600080fd5b5056fea264697066735822122081a69c857da56f3887b963438d61595e313bc4a5145883be3195cbd1794ca51164736f6c63430008070033a264697066735822122098e3962304413fa0ce92fa779f718106424d933ac8a6a557eb401d8a1fb5d20764736f6c6343000807003360806040523480156200001157600080fd5b50604051620018f1380380620018f183398181016040528101906200003791906200033a565b6040518060400160405280600f81526020017f644f52472052657075746174696f6e00000000000000000000000000000000008152506040518060400160405280600381526020017f44525400000000000000000000000000000000000000000000000000000000008152508160039080519060200190620000bb92919062000273565b508060049080519060200190620000d492919062000273565b505050620000e93382620000f060201b60201c565b5062000537565b600073ffffffffffffffffffffffffffffffffffffffff168273ffffffffffffffffffffffffffffffffffffffff16141562000163576040517f08c379a00000000000000000000000000000000000000000000000000000000081526004016200015a90620003a4565b60405180910390fd5b62000177600083836200026960201b60201c565b80600260008282546200018b9190620003f4565b92505081905550806000808473ffffffffffffffffffffffffffffffffffffffff1673ffffffffffffffffffffffffffffffffffffffff1681526020019081526020016000206000828254620001e29190620003f4565b925050819055508173ffffffffffffffffffffffffffffffffffffffff16600073ffffffffffffffffffffffffffffffffffffffff167fddf252ad1be2c89b69c2b068fc378daa952ba7f163c4a11628f55a4df523b3ef83604051620002499190620003c6565b60405180910390a362000265600083836200026e60201b60201c565b5050565b505050565b505050565b82805462000281906200045b565b90600052602060002090601f016020900481019282620002a55760008555620002f1565b82601f10620002c057805160ff1916838001178555620002f1565b82800160010185558215620002f1579182015b82811115620002f0578251825591602001919060010190620002d3565b5b50905062000300919062000304565b5090565b5b808211156200031f57600081600090555060010162000305565b5090565b60008151905062000334816200051d565b92915050565b600060208284031215620003535762000352620004ef565b5b6000620003638482850162000323565b91505092915050565b60006200037b601f83620003e3565b91506200038882620004f4565b602082019050919050565b6200039e8162000451565b82525050565b60006020820190508181036000830152620003bf816200036c565b9050919050565b6000602082019050620003dd600083018462000393565b92915050565b600082825260208201905092915050565b6000620004018262000451565b91506200040e8362000451565b9250827fffffffffffffffffffffffffffffffffffffffffffffffffffffffffffffffff0382111562000446576200044562000491565b5b828201905092915050565b6000819050919050565b600060028204905060018216806200047457607f821691505b602082108114156200048b576200048a620004c0565b5b50919050565b7f4e487b7100000000000000000000000000000000000000000000000000000000600052601160045260246000fd5b7f4e487b7100000000000000000000000000000000000000000000000000000000600052602260045260246000fd5b600080fd5b7f45524332303a206d696e7420746f20746865207a65726f206164647265737300600082015250565b620005288162000451565b81146200053457600080fd5b50565b6113aa80620005476000396000f3fe608060405234801561001057600080fd5b50600436106100a95760003560e01c80633950935111610071578063395093511461016857806370a082311461019857806395d89b41146101c8578063a457c2d7146101e6578063a9059cbb14610216578063dd62ed3e14610246576100a9565b806306fdde03146100ae578063095ea7b3146100cc57806318160ddd146100fc57806323b872dd1461011a578063313ce5671461014a575b600080fd5b6100b6610276565b6040516100c39190610e45565b60405180910390f35b6100e660048036038101906100e19190610c8f565b610308565b6040516100f39190610e2a565b60405180910390f35b610104610326565b6040516101119190610f47565b60405180910390f35b610134600480360381019061012f9190610c3c565b610330565b6040516101419190610e2a565b60405180910390f35b610152610428565b60405161015f9190610f62565b60405180910390f35b610182600480360381019061017d9190610c8f565b610431565b60405161018f9190610e2a565b60405180910390f35b6101b260048036038101906101ad9190610bcf565b6104dd565b6040516101bf9190610f47565b60405180910390f35b6101d0610525565b6040516101dd9190610e45565b60405180910390f35b61020060048036038101906101fb9190610c8f565b6105b7565b60405161020d9190610e2a565b60405180910390f35b610230600480360381019061022b9190610c8f565b6106a2565b60405161023d9190610e2a565b60405180910390f35b610260600480360381019061025b9190610bfc565b6106c0565b60405161026d9190610f47565b60405180910390f35b60606003805461028590611077565b80601f01602080910402602001604051908101604052809291908181526020018280546102b190611077565b80156102fe5780601f106102d3576101008083540402835291602001916102fe565b820191906000526020600020905b8154815290600101906020018083116102e157829003601f168201915b5050505050905090565b600061031c610315610747565b848461074f565b6001905092915050565b6000600254905090565b600061033d84848461091a565b6000600160008673ffffffffffffffffffffffffffffffffffffffff1673ffffffffffffffffffffffffffffffffffffffff1681526020019081526020016000206000610388610747565b73ffffffffffffffffffffffffffffffffffffffff1673ffffffffffffffffffffffffffffffffffffffff16815260200190815260200160002054905082811015610408576040517f08c379a00000000000000000000000000000000000000000000000000000000081526004016103ff90610ec7565b60405180910390fd5b61041c85610414610747565b85840361074f565b60019150509392505050565b60006012905090565b60006104d361043e610747565b84846001600061044c610747565b73ffffffffffffffffffffffffffffffffffffffff1673ffffffffffffffffffffffffffffffffffffffff16815260200190815260200160002060008873ffffffffffffffffffffffffffffffffffffffff1673ffffffffffffffffffffffffffffffffffffffff168152602001908152602001600020546104ce9190610f99565b61074f565b6001905092915050565b60008060008373ffffffffffffffffffffffffffffffffffffffff1673ffffffffffffffffffffffffffffffffffffffff168152602001908152602001600020549050919050565b60606004805461053490611077565b80601f016020809104026020016040519081016040528092919081815260200182805461056090611077565b80156105ad5780601f10610582576101008083540402835291602001916105ad565b820191906000526020600020905b81548152906001019060200180831161059057829003601f168201915b5050505050905090565b600080600160006105c6610747565b73ffffffffffffffffffffffffffffffffffffffff1673ffffffffffffffffffffffffffffffffffffffff16815260200190815260200160002060008573ffffffffffffffffffffffffffffffffffffffff1673ffffffffffffffffffffffffffffffffffffffff16815260200190815260200160002054905082811015610683576040517f08c379a000000000000000000000000000000000000000000000000000000000815260040161067a90610f27565b60405180910390fd5b61069761068e610747565b8585840361074f565b600191505092915050565b60006106b66106af610747565b848461091a565b6001905092915050565b6000600160008473ffffffffffffffffffffffffffffffffffffffff1673ffffffffffffffffffffffffffffffffffffffff16815260200190815260200160002060008373ffffffffffffffffffffffffffffffffffffffff1673ffffffffffffffffffffffffffffffffffffffff16815260200190815260200160002054905092915050565b600033905090565b600073ffffffffffffffffffffffffffffffffffffffff168373ffffffffffffffffffffffffffffffffffffffff1614156107bf576040517f08c379a00000000000000000000000000000000000000000000000000000000081526004016107b690610f07565b60405180910390fd5b600073ffffffffffffffffffffffffffffffffffffffff168273ffffffffffffffffffffffffffffffffffffffff16141561082f576040517f08c379a000000000000000000000000000000000000000000000000000000000815260040161082690610e87565b60405180910390fd5b80600160008573ffffffffffffffffffffffffffffffffffffffff1673ffffffffffffffffffffffffffffffffffffffff16815260200190815260200160002060008473ffffffffffffffffffffffffffffffffffffffff1673ffffffffffffffffffffffffffffffffffffffff168152602001908152602001600020819055508173ffffffffffffffffffffffffffffffffffffffff168373ffffffffffffffffffffffffffffffffffffffff167f8c5be1e5ebec7d5bd14f71427d1e84f3dd0314c0f7b2291e5b200ac8c7c3b9258360405161090d9190610f47565b60405180910390a3505050565b600073ffffffffffffffffffffffffffffffffffffffff168373ffffffffffffffffffffffffffffffffffffffff16141561098a576040517f08c379a000000000000000000000000000000000000000000000000000000000815260040161098190610ee7565b60405180910390fd5b600073ffffffffffffffffffffffffffffffffffffffff168273ffffffffffffffffffffffffffffffffffffffff1614156109fa576040517f08c379a00000000000000000000000000000000000000000000000000000000081526004016109f190610e67565b60405180910390fd5b610a05838383610b9b565b60008060008573ffffffffffffffffffffffffffffffffffffffff1673ffffffffffffffffffffffffffffffffffffffff16815260200190815260200160002054905081811015610a8b576040517f08c379a0000000000000000000000000000000000000000000000000000000008152600401610a8290610ea7565b60405180910390fd5b8181036000808673ffffffffffffffffffffffffffffffffffffffff1673ffffffffffffffffffffffffffffffffffffffff16815260200190815260200160002081905550816000808573ffffffffffffffffffffffffffffffffffffffff1673ffffffffffffffffffffffffffffffffffffffff1681526020019081526020016000206000828254610b1e9190610f99565b925050819055508273ffffffffffffffffffffffffffffffffffffffff168473ffffffffffffffffffffffffffffffffffffffff167fddf252ad1be2c89b69c2b068fc378daa952ba7f163c4a11628f55a4df523b3ef84604051610b829190610f47565b60405180910390a3610b95848484610ba0565b50505050565b505050565b505050565b600081359050610bb481611346565b92915050565b600081359050610bc98161135d565b92915050565b600060208284031215610be557610be4611107565b5b6000610bf384828501610ba5565b91505092915050565b60008060408385031215610c1357610c12611107565b5b6000610c2185828601610ba5565b9250506020610c3285828601610ba5565b9150509250929050565b600080600060608486031215610c5557610c54611107565b5b6000610c6386828701610ba5565b9350506020610c7486828701610ba5565b9250506040610c8586828701610bba565b9150509250925092565b60008060408385031215610ca657610ca5611107565b5b6000610cb485828601610ba5565b9250506020610cc585828601610bba565b9150509250929050565b610cd881611001565b82525050565b6000610ce982610f7d565b610cf38185610f88565b9350610d03818560208601611044565b610d0c8161110c565b840191505092915050565b6000610d24602383610f88565b9150610d2f8261111d565b604082019050919050565b6000610d47602283610f88565b9150610d528261116c565b604082019050919050565b6000610d6a602683610f88565b9150610d75826111bb565b604082019050919050565b6000610d8d602883610f88565b9150610d988261120a565b604082019050919050565b6000610db0602583610f88565b9150610dbb82611259565b604082019050919050565b6000610dd3602483610f88565b9150610dde826112a8565b604082019050919050565b6000610df6602583610f88565b9150610e01826112f7565b604082019050919050565b610e158161102d565b82525050565b610e2481611037565b82525050565b6000602082019050610e3f6000830184610ccf565b92915050565b60006020820190508181036000830152610e5f8184610cde565b905092915050565b60006020820190508181036000830152610e8081610d17565b9050919050565b60006020820190508181036000830152610ea081610d3a565b9050919050565b60006020820190508181036000830152610ec081610d5d565b9050919050565b60006020820190508181036000830152610ee081610d80565b9050919050565b60006020820190508181036000830152610f0081610da3565b9050919050565b60006020820190508181036000830152610f2081610dc6565b9050919050565b60006020820190508181036000830152610f4081610de9565b9050919050565b6000602082019050610f5c6000830184610e0c565b92915050565b6000602082019050610f776000830184610e1b565b92915050565b600081519050919050565b600082825260208201905092915050565b6000610fa48261102d565b9150610faf8361102d565b9250827fffffffffffffffffffffffffffffffffffffffffffffffffffffffffffffffff03821115610fe457610fe36110a9565b5b828201905092915050565b6000610ffa8261100d565b9050919050565b60008115159050919050565b600073ffffffffffffffffffffffffffffffffffffffff82169050919050565b6000819050919050565b600060ff82169050919050565b60005b83811015611062578082015181840152602081019050611047565b83811115611071576000848401525b50505050565b6000600282049050600182168061108f57607f821691505b602082108114156110a3576110a26110d8565b5b50919050565b7f4e487b7100000000000000000000000000000000000000000000000000000000600052601160045260246000fd5b7f4e487b7100000000000000000000000000000000000000000000000000000000600052602260045260246000fd5b600080fd5b6000601f19601f8301169050919050565b7f45524332303a207472616e7366657220746f20746865207a65726f206164647260008201527f6573730000000000000000000000000000000000000000000000000000000000602082015250565b7f45524332303a20617070726f766520746f20746865207a65726f20616464726560008201527f7373000000000000000000000000000000000000000000000000000000000000602082015250565b7f45524332303a207472616e7366657220616d6f756e742065786365656473206260008201527f616c616e63650000000000000000000000000000000000000000000000000000602082015250565b7f45524332303a207472616e7366657220616d6f756e742065786365656473206160008201527f6c6c6f77616e6365000000000000000000000000000000000000000000000000602082015250565b7f45524332303a207472616e736665722066726f6d20746865207a65726f20616460008201527f6472657373000000000000000000000000000000000000000000000000000000602082015250565b7f45524332303a20617070726f76652066726f6d20746865207a65726f2061646460008201527f7265737300000000000000000000000000000000000000000000000000000000602082015250565b7f45524332303a2064656372656173656420616c6c6f77616e63652062656c6f7760008201527f207a65726f000000000000000000000000000000000000000000000000000000602082015250565b61134f81610fef565b811461135a57600080fd5b50565b6113668161102d565b811461137157600080fd5b5056fea26469706673582212204f02fd7679c733d8e904028ed33a87b0fd75ae2ba23c2c66ba5c0efbd22d7eeb64736f6c63430008070033",
  "linkReferences": {},
  "deployedLinkReferences": {}
}