{
  "_format": "hh-sol-artifact-1",
  "contractName": "Source",
  "sourceName": "contracts/all.sol",
  "abi": [
    {
      "inputs": [
        {
          "internalType": "string",
          "name": "name",
          "type": "string"
        },
        {
          "internalType": "string",
          "name": "symbol",
          "type": "string"
        }
      ],
      "stateMutability": "nonpayable",
      "type": "constructor"
    },
    {
      "anonymous": false,
      "inputs": [
        {
          "indexed": false,
          "internalType": "address",
          "name": "_human",
          "type": "address"
        }
      ],
      "name": "HumanCreated",
      "type": "event"
    },
    {
      "anonymous": false,
      "inputs": [
        {
          "indexed": false,
          "internalType": "address",
          "name": "_project",
          "type": "address"
        }
      ],
      "name": "ProjectCreated",
      "type": "event"
    },
    {
      "inputs": [
        {
          "internalType": "address",
          "name": "",
          "type": "address"
        }
      ],
      "name": "_isProject",
      "outputs": [
        {
          "internalType": "bool",
          "name": "",
          "type": "bool"
        }
      ],
      "stateMutability": "view",
      "type": "function"
    },
    {
      "inputs": [],
      "name": "arbitrationEscrow",
      "outputs": [
        {
          "internalType": "contract ArbitrationEscrow",
          "name": "",
          "type": "address"
        }
      ],
      "stateMutability": "view",
      "type": "function"
    },
    {
      "inputs": [
        {
          "internalType": "address payable",
          "name": "_client",
          "type": "address"
        },
        {
          "internalType": "address payable",
          "name": "_arbiter",
          "type": "address"
        },
        {
          "internalType": "address",
          "name": "_paymentTokenAddress",
          "type": "address"
        },
        {
          "internalType": "uint8",
          "name": "_votingDuration",
          "type": "uint8"
        }
      ],
      "name": "createProject",
      "outputs": [],
      "stateMutability": "nonpayable",
      "type": "function"
    },
    {
      "inputs": [
        {
          "internalType": "address payable",
          "name": "payee",
          "type": "address"
        },
        {
          "internalType": "uint256",
          "name": "amount",
          "type": "uint256"
        }
      ],
      "name": "mintRepTokens",
      "outputs": [],
      "stateMutability": "nonpayable",
      "type": "function"
    },
    {
      "inputs": [],
      "name": "numberOfProjects",
      "outputs": [
        {
          "internalType": "uint256",
          "name": "",
          "type": "uint256"
        }
      ],
      "stateMutability": "view",
      "type": "function"
    },
    {
      "inputs": [
        {
          "internalType": "uint256",
          "name": "",
          "type": "uint256"
        }
      ],
      "name": "projects",
      "outputs": [
        {
          "internalType": "address",
          "name": "",
          "type": "address"
        }
      ],
      "stateMutability": "view",
      "type": "function"
    },
    {
      "inputs": [],
      "name": "repToken",
      "outputs": [
        {
          "internalType": "contract RepToken",
          "name": "",
          "type": "address"
        }
      ],
      "stateMutability": "view",
      "type": "function"
    }
  ],
  "bytecode": "0x608060405260006004553480156200001657600080fd5b5060405162006e2738038062006e2783398181016040528101906200003c9190620001c4565b81816040516200004c906200012b565b620000599291906200028a565b604051809103906000f08015801562000076573d6000803e3d6000fd5b50600260006101000a81548173ffffffffffffffffffffffffffffffffffffffff021916908373ffffffffffffffffffffffffffffffffffffffff160217905550604051620000c59062000139565b604051809103906000f080158015620000e2573d6000803e3d6000fd5b50600360006101000a81548173ffffffffffffffffffffffffffffffffffffffff021916908373ffffffffffffffffffffffffffffffffffffffff160217905550505062000400565b611afc80620052cf83390190565b605c8062006dcb83390190565b60006200015d6200015784620002ee565b620002c5565b9050828152602081018484840111156200017c576200017b620003e0565b5b6200018984828562000340565b509392505050565b600082601f830112620001a957620001a8620003db565b5b8151620001bb84826020860162000146565b91505092915050565b60008060408385031215620001de57620001dd620003ea565b5b600083015167ffffffffffffffff811115620001ff57620001fe620003e5565b5b6200020d8582860162000191565b925050602083015167ffffffffffffffff811115620002315762000230620003e5565b5b6200023f8582860162000191565b9150509250929050565b6000620002568262000324565b6200026281856200032f565b93506200027481856020860162000340565b6200027f81620003ef565b840191505092915050565b60006040820190508181036000830152620002a6818562000249565b90508181036020830152620002bc818462000249565b90509392505050565b6000620002d1620002e4565b9050620002df828262000376565b919050565b6000604051905090565b600067ffffffffffffffff8211156200030c576200030b620003ac565b5b6200031782620003ef565b9050602081019050919050565b600081519050919050565b600082825260208201905092915050565b60005b838110156200036057808201518184015260208101905062000343565b8381111562000370576000848401525b50505050565b6200038182620003ef565b810181811067ffffffffffffffff82111715620003a357620003a2620003ac565b5b80604052505050565b7f4e487b7100000000000000000000000000000000000000000000000000000000600052604160045260246000fd5b600080fd5b600080fd5b600080fd5b600080fd5b6000601f19601f8301169050919050565b614ebf80620004106000396000f3fe60806040523480156200001157600080fd5b5060043610620000885760003560e01c80638e63779611620000635780638e6377961462000107578063bca0adcb1462000127578063db5e4c7f1462000147578063f5bea31a14620001695762000088565b8063107046bd146200008d57806329034a5c14620000c35780632fee8e3e14620000e5575b600080fd5b620000ab6004803603810190620000a59190620005fe565b6200019f565b604051620000ba9190620006b8565b60405180910390f35b620000cd620001df565b604051620000dc9190620007b9565b60405180910390f35b620000ef62000205565b604051620000fe91906200079c565b60405180910390f35b6200012560048036038101906200011f919062000545565b6200022b565b005b6200014560048036038101906200013f9190620005b7565b62000395565b005b6200015162000483565b604051620001609190620007d6565b60405180910390f35b62000187600480360381019062000181919062000513565b62000489565b6040516200019691906200077f565b60405180910390f35b60008181548110620001b057600080fd5b906000526020600020016000915054906101000a900473ffffffffffffffffffffffffffffffffffffffff1681565b600260009054906101000a900473ffffffffffffffffffffffffffffffffffffffff1681565b600360009054906101000a900473ffffffffffffffffffffffffffffffffffffffff1681565b6000338585600260009054906101000a900473ffffffffffffffffffffffffffffffffffffffff16600360009054906101000a900473ffffffffffffffffffffffffffffffffffffffff1687876040516200028690620004a9565b620002989796959493929190620006d5565b604051809103906000f080158015620002b5573d6000803e3d6000fd5b5090506000819080600181540180825580915050600190039060005260206000200160009091909190916101000a81548173ffffffffffffffffffffffffffffffffffffffff021916908373ffffffffffffffffffffffffffffffffffffffff1602179055506001600560008373ffffffffffffffffffffffffffffffffffffffff1673ffffffffffffffffffffffffffffffffffffffff16815260200190815260200160002060006101000a81548160ff0219169083151502179055506001806000828254620003879190620007f3565b925050819055505050505050565b600560003373ffffffffffffffffffffffffffffffffffffffff1673ffffffffffffffffffffffffffffffffffffffff16815260200190815260200160002060009054906101000a900460ff16620003ec57600080fd5b600260009054906101000a900473ffffffffffffffffffffffffffffffffffffffff1673ffffffffffffffffffffffffffffffffffffffff166340c10f1983836040518363ffffffff1660e01b81526004016200044b92919062000752565b600060405180830381600087803b1580156200046657600080fd5b505af11580156200047b573d6000803e3d6000fd5b505050505050565b60015481565b60056020528060005260406000206000915054906101000a900460ff1681565b6144ce80620009bc83390190565b600081359050620004c88162000953565b92915050565b600081359050620004df816200096d565b92915050565b600081359050620004f68162000987565b92915050565b6000813590506200050d81620009a1565b92915050565b6000602082840312156200052c576200052b6200094e565b5b60006200053c84828501620004b7565b91505092915050565b600080600080608085870312156200056257620005616200094e565b5b60006200057287828801620004ce565b94505060206200058587828801620004ce565b93505060406200059887828801620004b7565b9250506060620005ab87828801620004fc565b91505092959194509250565b60008060408385031215620005d157620005d06200094e565b5b6000620005e185828601620004ce565b9250506020620005f485828601620004e5565b9150509250929050565b6000602082840312156200061757620006166200094e565b5b60006200062784828501620004e5565b91505092915050565b6200063b81620008bb565b82525050565b6200064c8162000864565b82525050565b6200065d8162000850565b82525050565b6200066e8162000878565b82525050565b6200067f81620008cf565b82525050565b6200069081620008e3565b82525050565b620006a181620008a4565b82525050565b620006b281620008ae565b82525050565b6000602082019050620006cf600083018462000652565b92915050565b600060e082019050620006ec600083018a62000641565b620006fb602083018962000641565b6200070a604083018862000641565b62000719606083018762000652565b62000728608083018662000674565b6200073760a083018562000652565b6200074660c0830184620006a7565b98975050505050505050565b600060408201905062000769600083018562000630565b62000778602083018462000696565b9392505050565b600060208201905062000796600083018462000663565b92915050565b6000602082019050620007b3600083018462000674565b92915050565b6000602082019050620007d0600083018462000685565b92915050565b6000602082019050620007ed600083018462000696565b92915050565b60006200080082620008a4565b91506200080d83620008a4565b9250827fffffffffffffffffffffffffffffffffffffffffffffffffffffffffffffffff038211156200084557620008446200091f565b5b828201905092915050565b60006200085d8262000884565b9050919050565b6000620008718262000884565b9050919050565b60008115159050919050565b600073ffffffffffffffffffffffffffffffffffffffff82169050919050565b6000819050919050565b600060ff82169050919050565b6000620008c882620008f7565b9050919050565b6000620008dc82620008f7565b9050919050565b6000620008f082620008f7565b9050919050565b600062000904826200090b565b9050919050565b6000620009188262000884565b9050919050565b7f4e487b7100000000000000000000000000000000000000000000000000000000600052601160045260246000fd5b600080fd5b6200095e8162000850565b81146200096a57600080fd5b50565b620009788162000864565b81146200098457600080fd5b50565b6200099281620008a4565b81146200099e57600080fd5b50565b620009ac81620008ae565b8114620009b857600080fd5b5056fe60806040526000600960006101000a81548160ff0219169083151502179055506000600f60006101000a81548160ff02191690831515021790555060006010556032601160006101000a81548160ff021916908360ff160217905550633b9aca00601255620546006013556032601b556032601c553480156200008157600080fd5b50604051620044ce380380620044ce8339818101604052810190620000a79190620005f4565b6000600260146101000a81548160ff02191690836005811115620000d057620000cf6200076a565b5b021790555086600a60006101000a81548173ffffffffffffffffffffffffffffffffffffffff021916908373ffffffffffffffffffffffffffffffffffffffff160217905550600c600a60009054906101000a900473ffffffffffffffffffffffffffffffffffffffff169080600181540180825580915050600190039060005260206000200160009091909190916101000a81548173ffffffffffffffffffffffffffffffffffffffff021916908373ffffffffffffffffffffffffffffffffffffffff160217905550600160166000600a60009054906101000a900473ffffffffffffffffffffffffffffffffffffffff1673ffffffffffffffffffffffffffffffffffffffff1673ffffffffffffffffffffffffffffffffffffffff16815260200190815260200160002060006101000a81548160ff02191690831515021790555085600960016101000a81548173ffffffffffffffffffffffffffffffffffffffff021916908373ffffffffffffffffffffffffffffffffffffffff16021790555082600260006101000a81548173ffffffffffffffffffffffffffffffffffffffff021916908373ffffffffffffffffffffffffffffffffffffffff16021790555084600b60006101000a81548173ffffffffffffffffffffffffffffffffffffffff021916908373ffffffffffffffffffffffffffffffffffffffff160217905550336000806101000a81548173ffffffffffffffffffffffffffffffffffffffff021916908373ffffffffffffffffffffffffffffffffffffffff16021790555083600160006101000a81548173ffffffffffffffffffffffffffffffffffffffff021916908373ffffffffffffffffffffffffffffffffffffffff16021790555042600d8190555080600a60146101000a81548160ff021916908360ff1602179055506200038f826012546200039c60201b60201c565b505050505050506200082f565b60008054906101000a900473ffffffffffffffffffffffffffffffffffffffff1673ffffffffffffffffffffffffffffffffffffffff163373ffffffffffffffffffffffffffffffffffffffff161480620004445750600a60009054906101000a900473ffffffffffffffffffffffffffffffffffffffff1673ffffffffffffffffffffffffffffffffffffffff163373ffffffffffffffffffffffffffffffffffffffff16145b62000486576040517f08c379a00000000000000000000000000000000000000000000000000000000081526004016200047d90620006ce565b60405180910390fd5b81600760006101000a81548173ffffffffffffffffffffffffffffffffffffffff021916908373ffffffffffffffffffffffffffffffffffffffff160217905550620004d881620004dc60201b60201c565b5050565b60008054906101000a900473ffffffffffffffffffffffffffffffffffffffff1673ffffffffffffffffffffffffffffffffffffffff163373ffffffffffffffffffffffffffffffffffffffff161480620005845750600a60009054906101000a900473ffffffffffffffffffffffffffffffffffffffff1673ffffffffffffffffffffffffffffffffffffffff163373ffffffffffffffffffffffffffffffffffffffff16145b6200058e57600080fd5b8060128190555050565b600081519050620005a981620007c7565b92915050565b600081519050620005c081620007e1565b92915050565b600081519050620005d781620007fb565b92915050565b600081519050620005ee8162000815565b92915050565b600080600080600080600060e0888a03121562000616576200061562000799565b5b6000620006268a828b01620005af565b9750506020620006398a828b01620005af565b96505060406200064c8a828b01620005af565b95505060606200065f8a828b0162000598565b9450506080620006728a828b01620005c6565b93505060a0620006858a828b0162000598565b92505060c0620006988a828b01620005dd565b91505092959891949750929550565b6000620006b6601883620006f0565b9150620006c3826200079e565b602082019050919050565b60006020820190508181036000830152620006e981620006a7565b9050919050565b600082825260208201905092915050565b60006200070e826200073d565b9050919050565b600062000722826200073d565b9050919050565b6000620007368262000701565b9050919050565b600073ffffffffffffffffffffffffffffffffffffffff82169050919050565b600060ff82169050919050565b7f4e487b7100000000000000000000000000000000000000000000000000000000600052602160045260246000fd5b600080fd5b7f736f75726365206f7220736f757263696e67204c656164210000000000000000600082015250565b620007d28162000701565b8114620007de57600080fd5b50565b620007ec8162000715565b8114620007f857600080fd5b50565b620008068162000729565b81146200081257600080fd5b50565b62000820816200075d565b81146200082c57600080fd5b50565b613c8f806200083f6000396000f3fe608060405234801561001057600080fd5b50600436106102a05760003560e01c806363066abd11610167578063bd5ae89c116100ce578063e3ade6d611610087578063e3ade6d6146107ba578063e6e70dd6146107d8578063e89e4ed6146107e2578063e958349314610816578063f3120c4414610834578063fe25e00a14610850576102a0565b8063bd5ae89c14610709578063c438b40f14610727578063c7656f6e14610743578063c9e3f0fa1461074d578063d2da01821461076b578063e2982c2114610789576102a0565b80639872330b116101205780639872330b1461065d5780639ec601721461067b5780639fa3613814610697578063b13a2c41146106b3578063bcba3e97146106d1578063bd238fe6146106ed576102a0565b806363066abd1461059d57806367e828bf146105b95780636f8a42d4146105d75780637e96ea14146105f35780638f320c771461060f578063908c36ca1461063f576102a0565b80632fee8e3e1161020b5780633d1c5ff3116101c45780633d1c5ff3146104df5780633eb2b5ad146104fb578063417c09c014610517578063431c0c881461054757806348916c891461056357806353f10a4b1461057f576102a0565b80632fee8e3e1461042d5780633013ce291461044b578063359d393d1461046957806335baea341461048757806339518b5e146104a357806339d5d126146104c1576102a0565b8063132002fc1161025d578063132002fc1461037b5780631703a0181461039957806318ad3c92146103b75780631dfef340146103c1578063200d2ed2146103f157806329034a5c1461040f576102a0565b806308422702146102a55780630d581232146102d55780630dff5008146102f15780630e7d490d14610321578063109e94cf1461033f578063128ef1ad1461035d575b600080fd5b6102bf60048036038101906102ba9190612db0565b61086e565b6040516102cc91906132a4565b60405180910390f35b6102ef60048036038101906102ea9190612fe5565b61089d565b005b61030b60048036038101906103069190612e79565b610994565b60405161031891906132a4565b60405180910390f35b610329610ae0565b6040516103369190613496565b60405180910390f35b610347610ae6565b604051610354919061320e565b60405180910390f35b610365610b0c565b6040516103729190613399565b60405180910390f35b610383610b9a565b6040516103909190613503565b60405180910390f35b6103a1610bad565b6040516103ae9190613496565b60405180910390f35b6103bf610bb3565b005b6103db60048036038101906103d69190612db0565b610c1e565b6040516103e89190613496565b60405180910390f35b6103f9610c43565b604051610406919061337e565b60405180910390f35b610417610c56565b6040516104249190613348565b60405180910390f35b610435610c7c565b6040516104429190613312565b60405180910390f35b610453610ca2565b604051610460919061332d565b60405180910390f35b610471610cc8565b60405161047e9190613496565b60405180910390f35b6104a1600480360381019061049c9190612f5a565b610cce565b005b6104ab610da8565b6040516104b89190613496565b60405180910390f35b6104c9610dae565b6040516104d69190613496565b60405180910390f35b6104f960048036038101906104f49190612df0565b610db4565b005b61051560048036038101906105109190612d83565b610eaf565b005b610531600480360381019061052c9190612d56565b61101d565b60405161053e919061347b565b60405180910390f35b610561600480360381019061055c9190612f00565b61103e565b005b61057d60048036038101906105789190612df0565b6110f8565b005b6105876111ac565b6040516105949190613496565b60405180910390f35b6105b760048036038101906105b29190612f00565b6111b2565b005b6105c1611248565b6040516105ce9190613363565b60405180910390f35b6105f160048036038101906105ec9190612f00565b61126c565b005b61060d60048036038101906106089190612ed3565b6112d0565b005b61062960048036038101906106249190612db0565b611468565b60405161063691906132a4565b60405180910390f35b610647611497565b6040516106549190613496565b60405180910390f35b61066561149d565b6040516106729190613496565b60405180910390f35b61069560048036038101906106909190612e30565b6114a3565b005b6106b160048036038101906106ac9190612f00565b611631565b005b6106bb611969565b6040516106c89190613496565b60405180910390f35b6106eb60048036038101906106e69190612d56565b61196f565b005b61070760048036038101906107029190612e79565b611c42565b005b610711611ea5565b60405161071e9190613503565b60405180910390f35b610741600480360381019061073c9190612f00565b611eb8565b005b61074b611ff0565b005b610755611ff2565b6040516107629190613496565b60405180910390f35b610773611ff8565b604051610780919061320e565b60405180910390f35b6107a3600480360381019061079e9190612d56565b61201e565b6040516107b19291906134b1565b60405180910390f35b6107c2612050565b6040516107cf91906132a4565b60405180910390f35b6107e0612063565b005b6107fc60048036038101906107f79190612f00565b612372565b60405161080d9594939291906132bf565b60405180910390f35b61081e6123d2565b60405161082b9190613496565b60405180910390f35b61084e60048036038101906108499190612d56565b6123d8565b005b6108586125f3565b604051610865919061320e565b60405180910390f35b601a6020528160005260406000206020528060005260406000206000915091509054906101000a900460ff1681565b600a60009054906101000a900473ffffffffffffffffffffffffffffffffffffffff1673ffffffffffffffffffffffffffffffffffffffff163373ffffffffffffffffffffffffffffffffffffffff161461092d576040517f08c379a00000000000000000000000000000000000000000000000000000000081526004016109249061341b565b60405180910390fd5b8060148381548110610942576109416139c1565b5b9060005260206000209060060201600101819055507fd63106bdd6a3a4503e009de7bdcddc32ba7d9fc512c33d2bff1accb631d88a3082826040516109889291906134da565b60405180910390a15050565b6000600a60149054906101000a900460ff1660ff16600d54426109b791906136d0565b11156109ce576109c5612619565b60009050610adb565b6000600160009054906101000a900473ffffffffffffffffffffffffffffffffffffffff1673ffffffffffffffffffffffffffffffffffffffff166370a08231336040518263ffffffff1660e01b8152600401610a2b91906131f3565b60206040518083038186803b158015610a4357600080fd5b505afa158015610a57573d6000803e3d6000fd5b505050506040513d601f19601f82011682018060405250810190610a7b9190612f2d565b90508215610aa1578060036000828254610a9591906135ef565b92505081905550610abb565b8060046000828254610ab391906135ef565b925050819055505b600160056000828254610ace91906135ef565b9250508190555060019150505b919050565b60055481565b600960019054906101000a900473ffffffffffffffffffffffffffffffffffffffff1681565b60088054610b1990613859565b80601f0160208091040260200160405190810160405280929190818152602001828054610b4590613859565b8015610b925780601f10610b6757610100808354040283529160200191610b92565b820191906000526020600020905b815481529060010190602001808311610b7557829003601f168201915b505050505081565b600a60149054906101000a900460ff1681565b60065481565b600a60149054906101000a900460ff1660ff16600d5442610bd491906136d0565b11610c14576040517f08c379a0000000000000000000000000000000000000000000000000000000008152600401610c0b906133bb565b60405180910390fd5b610c1c612619565b565b6019602052816000526040600020602052806000526040600020600091509150505481565b600260149054906101000a900460ff1681565b600160009054906101000a900473ffffffffffffffffffffffffffffffffffffffff1681565b600260009054906101000a900473ffffffffffffffffffffffffffffffffffffffff1681565b600760009054906101000a900473ffffffffffffffffffffffffffffffffffffffff1681565b60045481565b600a60009054906101000a900473ffffffffffffffffffffffffffffffffffffffff1673ffffffffffffffffffffffffffffffffffffffff163373ffffffffffffffffffffffffffffffffffffffff16148015610d2c575080518251145b610d3557600080fd5b60135442610d4391906135ef565b60148481548110610d5757610d566139c1565b5b9060005260206000209060060201600301819055507fe35031d60f2f841b5b780ddd4c92c4ddea78f371eff5306b4edb3d14899b87c883604051610d9b9190613496565b60405180910390a1505050565b600d5481565b60035481565b6000600760009054906101000a900473ffffffffffffffffffffffffffffffffffffffff1673ffffffffffffffffffffffffffffffffffffffff166370a08231306040518263ffffffff1660e01b8152600401610e1191906131f3565b60206040518083038186803b158015610e2957600080fd5b505afa158015610e3d573d6000803e3d6000fd5b505050506040513d601f19601f82011682018060405250810190610e619190612f2d565b14610ea1576040517f08c379a0000000000000000000000000000000000000000000000000000000008152600401610e98906133db565b60405180910390fd5b610eab8282612736565b5050565b600a60009054906101000a900473ffffffffffffffffffffffffffffffffffffffff1673ffffffffffffffffffffffffffffffffffffffff163373ffffffffffffffffffffffffffffffffffffffff161480610f56575060008054906101000a900473ffffffffffffffffffffffffffffffffffffffff1673ffffffffffffffffffffffffffffffffffffffff163373ffffffffffffffffffffffffffffffffffffffff16145b610f5f57600080fd5b600c819080600181540180825580915050600190039060005260206000200160009091909190916101000a81548173ffffffffffffffffffffffffffffffffffffffff021916908373ffffffffffffffffffffffffffffffffffffffff1602179055506001601660008373ffffffffffffffffffffffffffffffffffffffff1673ffffffffffffffffffffffffffffffffffffffff16815260200190815260200160002060006101000a81548160ff02191690831515021790555050565b60186020528060005260406000206000915054906101000a900461ffff1681565b60008054906101000a900473ffffffffffffffffffffffffffffffffffffffff1673ffffffffffffffffffffffffffffffffffffffff163373ffffffffffffffffffffffffffffffffffffffff1614806110e55750600a60009054906101000a900473ffffffffffffffffffffffffffffffffffffffff1673ffffffffffffffffffffffffffffffffffffffff163373ffffffffffffffffffffffffffffffffffffffff16145b6110ee57600080fd5b8060128190555050565b600160009054906101000a900473ffffffffffffffffffffffffffffffffffffffff1673ffffffffffffffffffffffffffffffffffffffff1663a9059cbb83836040518363ffffffff1660e01b815260040161115592919061327b565b602060405180830381600087803b15801561116f57600080fd5b505af1158015611183573d6000803e3d6000fd5b505050506040513d601f19601f820116820180604052508101906111a79190612ea6565b505050565b601b5481565b601660003373ffffffffffffffffffffffffffffffffffffffff1673ffffffffffffffffffffffffffffffffffffffff16815260200190815260200160002060009054906101000a900460ff1661120857600080fd5b6060806014838154811061121f5761121e6139c1565b5b90600052602060002090600602016005019080519060200190611243929190612a93565b505050565b60008054906101000a900473ffffffffffffffffffffffffffffffffffffffff1681565b600a60009054906101000a900473ffffffffffffffffffffffffffffffffffffffff1673ffffffffffffffffffffffffffffffffffffffff163373ffffffffffffffffffffffffffffffffffffffff16146112c657600080fd5b8060108190555050565b600a60009054906101000a900473ffffffffffffffffffffffffffffffffffffffff1673ffffffffffffffffffffffffffffffffffffffff163373ffffffffffffffffffffffffffffffffffffffff1614611360576040517f08c379a00000000000000000000000000000000000000000000000000000000081526004016113579061345b565b60405180910390fd5b60608060146040518060e00160405280600015158152602001600015158152602001600081526020018581526020016000815260200184815260200183815250908060018154018082558091505060019003906000526020600020906006020160009091909190915060008201518160000160006101000a81548160ff02191690831515021790555060208201518160000160016101000a81548160ff02191690831515021790555060408201518160010155606082015181600201556080820151816003015560a0820151816004019080519060200190611443929190612ae0565b5060c0820151816005019080519060200190611460929190612a93565b505050505050565b60176020528160005260406000206020528060005260406000206000915091509054906101000a900460ff1681565b600e5481565b60125481565b600960019054906101000a900473ffffffffffffffffffffffffffffffffffffffff1673ffffffffffffffffffffffffffffffffffffffff163373ffffffffffffffffffffffffffffffffffffffff16148061154c5750600a60009054906101000a900473ffffffffffffffffffffffffffffffffffffffff1673ffffffffffffffffffffffffffffffffffffffff163373ffffffffffffffffffffffffffffffffffffffff16145b61155557600080fd5b60005b81518110156115cc5760016014838381518110611578576115776139c1565b5b602002602001015181548110611591576115906139c1565b5b906000526020600020906006020160000160016101000a81548160ff02191690831515021790555080806115c4906138bc565b915050611558565b5060028060146101000a81548160ff021916908360058111156115f2576115f1613963565b5b02179055507f695fbf2fe28b4fde5705122279ffc4160ebfc0f45e4d96f7e6699001be5062ef3360405161162691906131f3565b60405180910390a150565b60148181548110611645576116446139c1565b5b906000526020600020906006020160000160009054906101000a900460ff1661166d57600080fd5b60148181548110611681576116806139c1565b5b906000526020600020906006020160030154421161169e57600080fd5b60005b601482815481106116b5576116b46139c1565b5b90600052602060002090600602016004018054905081101561196557600760009054906101000a900473ffffffffffffffffffffffffffffffffffffffff1673ffffffffffffffffffffffffffffffffffffffff1663a9059cbb60148481548110611723576117226139c1565b5b90600052602060002090600602016004018381548110611746576117456139c1565b5b9060005260206000200160009054906101000a900473ffffffffffffffffffffffffffffffffffffffff1660148581548110611785576117846139c1565b5b906000526020600020906006020160050184815481106117a8576117a76139c1565b5b90600052602060002001546040518363ffffffff1660e01b81526004016117d0929190613252565b602060405180830381600087803b1580156117ea57600080fd5b505af11580156117fe573d6000803e3d6000fd5b505050506040513d601f19601f820116820180604052508101906118229190612ea6565b5060008054906101000a900473ffffffffffffffffffffffffffffffffffffffff1673ffffffffffffffffffffffffffffffffffffffff1663bca0adcb60148481548110611873576118726139c1565b5b90600052602060002090600602016004018381548110611896576118956139c1565b5b9060005260206000200160009054906101000a900473ffffffffffffffffffffffffffffffffffffffff16601485815481106118d5576118d46139c1565b5b906000526020600020906006020160050184815481106118f8576118f76139c1565b5b90600052602060002001546040518363ffffffff1660e01b8152600401611920929190613229565b600060405180830381600087803b15801561193a57600080fd5b505af115801561194e573d6000803e3d6000fd5b50505050808061195d906138bc565b9150506116a1565b5050565b60105481565b60001515601760003373ffffffffffffffffffffffffffffffffffffffff1673ffffffffffffffffffffffffffffffffffffffff16815260200190815260200160002060008373ffffffffffffffffffffffffffffffffffffffff1673ffffffffffffffffffffffffffffffffffffffff16815260200190815260200160002060009054906101000a900460ff161515148015611a5a57508073ffffffffffffffffffffffffffffffffffffffff16600a60009054906101000a900473ffffffffffffffffffffffffffffffffffffffff1673ffffffffffffffffffffffffffffffffffffffff1614155b611a6357600080fd5b6001601760003373ffffffffffffffffffffffffffffffffffffffff1673ffffffffffffffffffffffffffffffffffffffff16815260200190815260200160002060008373ffffffffffffffffffffffffffffffffffffffff1673ffffffffffffffffffffffffffffffffffffffff16815260200190815260200160002060006101000a81548160ff0219169083151502179055506001601860008373ffffffffffffffffffffffffffffffffffffffff1673ffffffffffffffffffffffffffffffffffffffff16815260200190815260200160002060008282829054906101000a900461ffff16611b5591906135b7565b92506101000a81548161ffff021916908361ffff1602179055506064601c54600c80549050611b849190613676565b611b8e9190613645565b601860008373ffffffffffffffffffffffffffffffffffffffff1673ffffffffffffffffffffffffffffffffffffffff16815260200190815260200160002060009054906101000a900461ffff1661ffff161115611c3f576000601660008373ffffffffffffffffffffffffffffffffffffffff1673ffffffffffffffffffffffffffffffffffffffff16815260200190815260200160002060006101000a81548160ff0219169083151502179055505b50565b600b60009054906101000a900473ffffffffffffffffffffffffffffffffffffffff1673ffffffffffffffffffffffffffffffffffffffff163373ffffffffffffffffffffffffffffffffffffffff16148015611cd2575060026005811115611cae57611cad613963565b5b600260149054906101000a900460ff166005811115611cd057611ccf613963565b5b145b611cdb57600080fd5b8015611dc457601054600e8190555060005b601480549050811015611dc25760148181548110611d0e57611d0d6139c1565b5b906000526020600020906006020160000160019054906101000a900460ff1615611daf57600160148281548110611d4857611d476139c1565b5b906000526020600020906006020160000160006101000a81548160ff021916908315150217905550600060148281548110611d8657611d856139c1565b5b906000526020600020906006020160000160016101000a81548160ff0219169083151502179055505b8080611dba906138bc565b915050611ced565b505b611e77600760009054906101000a900473ffffffffffffffffffffffffffffffffffffffff1673ffffffffffffffffffffffffffffffffffffffff166370a08231306040518263ffffffff1660e01b8152600401611e2291906131f3565b60206040518083038186803b158015611e3a57600080fd5b505afa158015611e4e573d6000803e3d6000fd5b505050506040513d601f19601f82011682018060405250810190611e729190612f2d565b61286a565b6001600260146101000a81548160ff02191690836005811115611e9d57611e9c613963565b5b021790555050565b601160009054906101000a900460ff1681565b600960019054906101000a900473ffffffffffffffffffffffffffffffffffffffff1673ffffffffffffffffffffffffffffffffffffffff163373ffffffffffffffffffffffffffffffffffffffff1614611f48576040517f08c379a0000000000000000000000000000000000000000000000000000000008152600401611f3f906133fb565b60405180910390fd5b600160148281548110611f5e57611f5d6139c1565b5b906000526020600020906006020160000160006101000a81548160ff0219169083151502179055507f939da3b627c123c81fe5aacebf925163337a0d4f8a03724640618078cad248948160148381548110611fbc57611fbb6139c1565b5b906000526020600020906006020160010154604051611fdc9291906134da565b60405180910390a1611fed8161293f565b50565b565b60135481565b600a60009054906101000a900473ffffffffffffffffffffffffffffffffffffffff1681565b60156020528060005260406000206000915090508060000154908060010160009054906101000a900461ffff16905082565b600960009054906101000a900460ff1681565b6000805b600c8054905081101561214f5760196000600c838154811061208c5761208b6139c1565b5b9060005260206000200160009054906101000a900473ffffffffffffffffffffffffffffffffffffffff1673ffffffffffffffffffffffffffffffffffffffff1673ffffffffffffffffffffffffffffffffffffffff16815260200190815260200160002060003373ffffffffffffffffffffffffffffffffffffffff1673ffffffffffffffffffffffffffffffffffffffff168152602001908152602001600020548261213a91906135ef565b91508080612147906138bc565b915050612067565b506064601b54600c805490506121659190613676565b61216f9190613645565b81111561236f5733600a60006101000a81548173ffffffffffffffffffffffffffffffffffffffff021916908373ffffffffffffffffffffffffffffffffffffffff16021790555060005b600c8054905081101561236d57600060196000600c84815481106121e1576121e06139c1565b5b9060005260206000200160009054906101000a900473ffffffffffffffffffffffffffffffffffffffff1673ffffffffffffffffffffffffffffffffffffffff1673ffffffffffffffffffffffffffffffffffffffff16815260200190815260200160002060003373ffffffffffffffffffffffffffffffffffffffff1673ffffffffffffffffffffffffffffffffffffffff168152602001908152602001600020819055506000601a6000600c84815481106122a1576122a06139c1565b5b9060005260206000200160009054906101000a900473ffffffffffffffffffffffffffffffffffffffff1673ffffffffffffffffffffffffffffffffffffffff1673ffffffffffffffffffffffffffffffffffffffff16815260200190815260200160002060003373ffffffffffffffffffffffffffffffffffffffff1673ffffffffffffffffffffffffffffffffffffffff16815260200190815260200160002060006101000a81548160ff0219169083151502179055508080612365906138bc565b9150506121ba565b505b50565b6014818154811061238257600080fd5b90600052602060002090600602016000915090508060000160009054906101000a900460ff16908060000160019054906101000a900460ff16908060010154908060020154908060030154905085565b601c5481565b600a60009054906101000a900473ffffffffffffffffffffffffffffffffffffffff1673ffffffffffffffffffffffffffffffffffffffff168173ffffffffffffffffffffffffffffffffffffffff16141561243357600080fd5b601a60003373ffffffffffffffffffffffffffffffffffffffff1673ffffffffffffffffffffffffffffffffffffffff16815260200190815260200160002060008273ffffffffffffffffffffffffffffffffffffffff1673ffffffffffffffffffffffffffffffffffffffff16815260200190815260200160002060009054906101000a900460ff16156124c757600080fd5b6001601960003373ffffffffffffffffffffffffffffffffffffffff1673ffffffffffffffffffffffffffffffffffffffff16815260200190815260200160002060008373ffffffffffffffffffffffffffffffffffffffff1673ffffffffffffffffffffffffffffffffffffffff168152602001908152602001600020600082825461255491906135ef565b925050819055506001601a60003373ffffffffffffffffffffffffffffffffffffffff1673ffffffffffffffffffffffffffffffffffffffff16815260200190815260200160002060008373ffffffffffffffffffffffffffffffffffffffff1673ffffffffffffffffffffffffffffffffffffffff16815260200190815260200160002060006101000a81548160ff02191690831515021790555050565b600b60009054906101000a900473ffffffffffffffffffffffffffffffffffffffff1681565b6004546003541115612655576003600260146101000a81548160ff0219169083600581111561264b5761264a613963565b5b0217905550612734565b6005600260146101000a81548160ff0219169083600581111561267b5761267a613963565b5b0217905550612733600760009054906101000a900473ffffffffffffffffffffffffffffffffffffffff1673ffffffffffffffffffffffffffffffffffffffff166370a08231306040518263ffffffff1660e01b81526004016126de91906131f3565b60206040518083038186803b1580156126f657600080fd5b505afa15801561270a573d6000803e3d6000fd5b505050506040513d601f19601f8201168201806040525081019061272e9190612f2d565b61286a565b5b565b60008054906101000a900473ffffffffffffffffffffffffffffffffffffffff1673ffffffffffffffffffffffffffffffffffffffff163373ffffffffffffffffffffffffffffffffffffffff1614806127dd5750600a60009054906101000a900473ffffffffffffffffffffffffffffffffffffffff1673ffffffffffffffffffffffffffffffffffffffff163373ffffffffffffffffffffffffffffffffffffffff16145b61281c576040517f08c379a00000000000000000000000000000000000000000000000000000000081526004016128139061343b565b60405180910390fd5b81600760006101000a81548173ffffffffffffffffffffffffffffffffffffffff021916908373ffffffffffffffffffffffffffffffffffffffff1602179055506128668161103e565b5050565b600760009054906101000a900473ffffffffffffffffffffffffffffffffffffffff1673ffffffffffffffffffffffffffffffffffffffff1663a9059cbb600960019054906101000a900473ffffffffffffffffffffffffffffffffffffffff16836040518363ffffffff1660e01b81526004016128e9929190613252565b602060405180830381600087803b15801561290357600080fd5b505af1158015612917573d6000803e3d6000fd5b505050506040513d601f19601f8201168201806040525081019061293b9190612ea6565b5050565b60148181548110612953576129526139c1565b5b906000526020600020906006020160000160009054906101000a900460ff1661297b57600080fd5b60006127106103e860148481548110612997576129966139c1565b5b9060005260206000209060060201600101546129b39190613676565b6129bd9190613645565b9050600760009054906101000a900473ffffffffffffffffffffffffffffffffffffffff1673ffffffffffffffffffffffffffffffffffffffff1663a9059cbb60008054906101000a900473ffffffffffffffffffffffffffffffffffffffff16836040518363ffffffff1660e01b8152600401612a3c92919061327b565b602060405180830381600087803b158015612a5657600080fd5b505af1158015612a6a573d6000803e3d6000fd5b505050506040513d601f19601f82011682018060405250810190612a8e9190612ea6565b505050565b828054828255906000526020600020908101928215612acf579160200282015b82811115612ace578251825591602001919060010190612ab3565b5b509050612adc9190612b6a565b5090565b828054828255906000526020600020908101928215612b59579160200282015b82811115612b585782518260006101000a81548173ffffffffffffffffffffffffffffffffffffffff021916908373ffffffffffffffffffffffffffffffffffffffff16021790555091602001919060010190612b00565b5b509050612b669190612b6a565b5090565b5b80821115612b83576000816000905550600101612b6b565b5090565b6000612b9a612b9584613543565b61351e565b90508083825260208201905082856020860282011115612bbd57612bbc613a24565b5b60005b85811015612bed5781612bd38882612c67565b845260208401935060208301925050600181019050612bc0565b5050509392505050565b6000612c0a612c058461356f565b61351e565b90508083825260208201905082856020860282011115612c2d57612c2c613a24565b5b60005b85811015612c5d5781612c438882612d2c565b845260208401935060208301925050600181019050612c30565b5050509392505050565b600081359050612c7681613be6565b92915050565b600081359050612c8b81613bfd565b92915050565b600082601f830112612ca657612ca5613a1f565b5b8135612cb6848260208601612b87565b91505092915050565b600082601f830112612cd457612cd3613a1f565b5b8135612ce4848260208601612bf7565b91505092915050565b600081359050612cfc81613c14565b92915050565b600081519050612d1181613c14565b92915050565b600081359050612d2681613c2b565b92915050565b600081359050612d3b81613c42565b92915050565b600081519050612d5081613c42565b92915050565b600060208284031215612d6c57612d6b613a2e565b5b6000612d7a84828501612c67565b91505092915050565b600060208284031215612d9957612d98613a2e565b5b6000612da784828501612c7c565b91505092915050565b60008060408385031215612dc757612dc6613a2e565b5b6000612dd585828601612c67565b9250506020612de685828601612c67565b9150509250929050565b60008060408385031215612e0757612e06613a2e565b5b6000612e1585828601612c67565b9250506020612e2685828601612d2c565b9150509250929050565b600060208284031215612e4657612e45613a2e565b5b600082013567ffffffffffffffff811115612e6457612e63613a29565b5b612e7084828501612cbf565b91505092915050565b600060208284031215612e8f57612e8e613a2e565b5b6000612e9d84828501612ced565b91505092915050565b600060208284031215612ebc57612ebb613a2e565b5b6000612eca84828501612d02565b91505092915050565b600060208284031215612ee957612ee8613a2e565b5b6000612ef784828501612d17565b91505092915050565b600060208284031215612f1657612f15613a2e565b5b6000612f2484828501612d2c565b91505092915050565b600060208284031215612f4357612f42613a2e565b5b6000612f5184828501612d41565b91505092915050565b600080600060608486031215612f7357612f72613a2e565b5b6000612f8186828701612d2c565b935050602084013567ffffffffffffffff811115612fa257612fa1613a29565b5b612fae86828701612c91565b925050604084013567ffffffffffffffff811115612fcf57612fce613a29565b5b612fdb86828701612cbf565b9150509250925092565b60008060408385031215612ffc57612ffb613a2e565b5b600061300a85828601612d2c565b925050602061301b85828601612d2c565b9150509250929050565b61302e81613796565b82525050565b61303d81613716565b82525050565b61304c81613704565b82525050565b61305b81613728565b82525050565b61306a81613734565b82525050565b613079816137a8565b82525050565b613088816137ba565b82525050565b613097816137cc565b82525050565b6130a6816137de565b82525050565b6130b5816137f0565b82525050565b60006130c68261359b565b6130d081856135a6565b93506130e0818560208601613826565b6130e981613a33565b840191505092915050565b60006131016017836135a6565b915061310c82613a44565b602082019050919050565b60006131246035836135a6565b915061312f82613a6d565b604082019050919050565b60006131476027836135a6565b915061315282613abc565b604082019050919050565b600061316a6036836135a6565b915061317582613b0b565b604082019050919050565b600061318d6018836135a6565b915061319882613b5a565b602082019050919050565b60006131b06029836135a6565b91506131bb82613b83565b604082019050919050565b6131cf81613751565b82525050565b6131de8161377f565b82525050565b6131ed81613789565b82525050565b60006020820190506132086000830184613043565b92915050565b60006020820190506132236000830184613034565b92915050565b600060408201905061323e6000830185613034565b61324b60208301846131d5565b9392505050565b60006040820190506132676000830185613025565b61327460208301846131d5565b9392505050565b60006040820190506132906000830185613043565b61329d60208301846131d5565b9392505050565b60006020820190506132b96000830184613052565b92915050565b600060a0820190506132d46000830188613052565b6132e16020830187613052565b6132ee60408301866131d5565b6132fb6060830185613061565b61330860808301846131d5565b9695505050505050565b60006020820190506133276000830184613070565b92915050565b6000602082019050613342600083018461307f565b92915050565b600060208201905061335d600083018461308e565b92915050565b6000602082019050613378600083018461309d565b92915050565b600060208201905061339360008301846130ac565b92915050565b600060208201905081810360008301526133b381846130bb565b905092915050565b600060208201905081810360008301526133d4816130f4565b9050919050565b600060208201905081810360008301526133f481613117565b9050919050565b600060208201905081810360008301526134148161313a565b9050919050565b600060208201905081810360008301526134348161315d565b9050919050565b6000602082019050818103600083015261345481613180565b9050919050565b60006020820190508181036000830152613474816131a3565b9050919050565b600060208201905061349060008301846131c6565b92915050565b60006020820190506134ab60008301846131d5565b92915050565b60006040820190506134c660008301856131d5565b6134d360208301846131c6565b9392505050565b60006040820190506134ef60008301856131d5565b6134fc60208301846131d5565b9392505050565b600060208201905061351860008301846131e4565b92915050565b6000613528613539565b9050613534828261388b565b919050565b6000604051905090565b600067ffffffffffffffff82111561355e5761355d6139f0565b5b602082029050602081019050919050565b600067ffffffffffffffff82111561358a576135896139f0565b5b602082029050602081019050919050565b600081519050919050565b600082825260208201905092915050565b60006135c282613751565b91506135cd83613751565b92508261ffff038211156135e4576135e3613905565b5b828201905092915050565b60006135fa8261377f565b91506136058361377f565b9250827fffffffffffffffffffffffffffffffffffffffffffffffffffffffffffffffff0382111561363a57613639613905565b5b828201905092915050565b60006136508261377f565b915061365b8361377f565b92508261366b5761366a613934565b5b828204905092915050565b60006136818261377f565b915061368c8361377f565b9250817fffffffffffffffffffffffffffffffffffffffffffffffffffffffffffffffff04831182151516156136c5576136c4613905565b5b828202905092915050565b60006136db8261377f565b91506136e68361377f565b9250828210156136f9576136f8613905565b5b828203905092915050565b600061370f8261375f565b9050919050565b60006137218261375f565b9050919050565b60008115159050919050565b6000819050919050565b600081905061374c82613bd2565b919050565b600061ffff82169050919050565b600073ffffffffffffffffffffffffffffffffffffffff82169050919050565b6000819050919050565b600060ff82169050919050565b60006137a182613802565b9050919050565b60006137b382613802565b9050919050565b60006137c582613802565b9050919050565b60006137d782613802565b9050919050565b60006137e982613802565b9050919050565b60006137fb8261373e565b9050919050565b600061380d82613814565b9050919050565b600061381f8261375f565b9050919050565b60005b83811015613844578082015181840152602081019050613829565b83811115613853576000848401525b50505050565b6000600282049050600182168061387157607f821691505b6020821081141561388557613884613992565b5b50919050565b61389482613a33565b810181811067ffffffffffffffff821117156138b3576138b26139f0565b5b80604052505050565b60006138c78261377f565b91507fffffffffffffffffffffffffffffffffffffffffffffffffffffffffffffffff8214156138fa576138f9613905565b5b600182019050919050565b7f4e487b7100000000000000000000000000000000000000000000000000000000600052601160045260246000fd5b7f4e487b7100000000000000000000000000000000000000000000000000000000600052601260045260246000fd5b7f4e487b7100000000000000000000000000000000000000000000000000000000600052602160045260246000fd5b7f4e487b7100000000000000000000000000000000000000000000000000000000600052602260045260246000fd5b7f4e487b7100000000000000000000000000000000000000000000000000000000600052603260045260246000fd5b7f4e487b7100000000000000000000000000000000000000000000000000000000600052604160045260246000fd5b600080fd5b600080fd5b600080fd5b600080fd5b6000601f19601f8301169050919050565b7f566f74696e67206973207374696c6c206f6e676f696e67000000000000000000600082015250565b7f50726576696f757320546f6b656e206e6565647320746f206265206465706c6560008201527f746564206265666f726520746865206368616e67650000000000000000000000602082015250565b7f4f6e6c792074686520636c69656e742063616e20617070726f76652061206d6960008201527f6c6573746f6e6500000000000000000000000000000000000000000000000000602082015250565b7f4f6e6c792074686520736f757263696e67206c6561642063616e20726571756560008201527f7374207061796d656e742066726f6d20636c69656e7400000000000000000000602082015250565b7f736f75726365206f7220736f757263696e67204c656164210000000000000000600082015250565b7f4f6e6c792074686520736f757263696e67206c6561642063616e20616464206d60008201527f696c6573746f6e65730000000000000000000000000000000000000000000000602082015250565b60068110613be357613be2613963565b5b50565b613bef81613704565b8114613bfa57600080fd5b50565b613c0681613716565b8114613c1157600080fd5b50565b613c1d81613728565b8114613c2857600080fd5b50565b613c3481613734565b8114613c3f57600080fd5b50565b613c4b8161377f565b8114613c5657600080fd5b5056fea26469706673582212202dba7b340fb0ef1354679c6494793dbf4c411faf2b76bd58b553959569d471c164736f6c63430008070033a26469706673582212202c9c26152738f7c41c0419c4e9fa143e28028d90bdf070c412ddd957575bbd1364736f6c6343000807003360806040523480156200001157600080fd5b5060405162001afc38038062001afc8339818101604052810190620000379190620001e4565b8181816003908051906020019062000051929190620000b6565b5080600490805190602001906200006a929190620000b6565b50505033600560006101000a81548173ffffffffffffffffffffffffffffffffffffffff021916908373ffffffffffffffffffffffffffffffffffffffff1602179055505050620003ed565b828054620000c490620002fe565b90600052602060002090601f016020900481019282620000e8576000855562000134565b82601f106200010357805160ff191683800117855562000134565b8280016001018555821562000134579182015b828111156200013357825182559160200191906001019062000116565b5b50905062000143919062000147565b5090565b5b808211156200016257600081600090555060010162000148565b5090565b60006200017d620001778462000292565b62000269565b9050828152602081018484840111156200019c576200019b620003cd565b5b620001a9848285620002c8565b509392505050565b600082601f830112620001c957620001c8620003c8565b5b8151620001db84826020860162000166565b91505092915050565b60008060408385031215620001fe57620001fd620003d7565b5b600083015167ffffffffffffffff8111156200021f576200021e620003d2565b5b6200022d85828601620001b1565b925050602083015167ffffffffffffffff811115620002515762000250620003d2565b5b6200025f85828601620001b1565b9150509250929050565b60006200027562000288565b905062000283828262000334565b919050565b6000604051905090565b600067ffffffffffffffff821115620002b057620002af62000399565b5b620002bb82620003dc565b9050602081019050919050565b60005b83811015620002e8578082015181840152602081019050620002cb565b83811115620002f8576000848401525b50505050565b600060028204905060018216806200031757607f821691505b602082108114156200032e576200032d6200036a565b5b50919050565b6200033f82620003dc565b810181811067ffffffffffffffff8211171562000361576200036062000399565b5b80604052505050565b7f4e487b7100000000000000000000000000000000000000000000000000000000600052602260045260246000fd5b7f4e487b7100000000000000000000000000000000000000000000000000000000600052604160045260246000fd5b600080fd5b600080fd5b600080fd5b600080fd5b6000601f19601f8301169050919050565b6116ff80620003fd6000396000f3fe608060405234801561001057600080fd5b50600436106100ea5760003560e01c806340c10f191161008c57806395d89b411161006657806395d89b411461025f578063a457c2d71461027d578063a9059cbb146102ad578063dd62ed3e146102dd576100ea565b806340c10f19146101f557806367e828bf1461021157806370a082311461022f576100ea565b806320e56dbd116100c857806320e56dbd1461015b57806323b872dd14610177578063313ce567146101a757806339509351146101c5576100ea565b806306fdde03146100ef578063095ea7b31461010d57806318160ddd1461013d575b600080fd5b6100f761030d565b6040516101049190611151565b60405180910390f35b61012760048036038101906101229190610f21565b61039f565b6040516101349190611136565b60405180910390f35b6101456103bd565b6040516101529190611273565b60405180910390f35b61017560048036038101906101709190610f61565b6103c7565b005b610191600480360381019061018c9190610ece565b6103d4565b60405161019e9190611136565b60405180910390f35b6101af6104cc565b6040516101bc919061128e565b60405180910390f35b6101df60048036038101906101da9190610f21565b6104d5565b6040516101ec9190611136565b60405180910390f35b61020f600480360381019061020a9190610f21565b610581565b005b6102196105e9565b604051610226919061111b565b60405180910390f35b61024960048036038101906102449190610e61565b61060f565b6040516102569190611273565b60405180910390f35b610267610657565b6040516102749190611151565b60405180910390f35b61029760048036038101906102929190610f21565b6106e9565b6040516102a49190611136565b60405180910390f35b6102c760048036038101906102c29190610f21565b6107d4565b6040516102d49190611136565b60405180910390f35b6102f760048036038101906102f29190610e8e565b6107f2565b6040516103049190611273565b60405180910390f35b60606003805461031c906113a3565b80601f0160208091040260200160405190810160405280929190818152602001828054610348906113a3565b80156103955780601f1061036a57610100808354040283529160200191610395565b820191906000526020600020905b81548152906001019060200180831161037857829003601f168201915b5050505050905090565b60006103b36103ac610879565b8484610881565b6001905092915050565b6000600254905090565b6103d13382610a4c565b50565b60006103e1848484610bac565b6000600160008673ffffffffffffffffffffffffffffffffffffffff1673ffffffffffffffffffffffffffffffffffffffff168152602001908152602001600020600061042c610879565b73ffffffffffffffffffffffffffffffffffffffff1673ffffffffffffffffffffffffffffffffffffffff168152602001908152602001600020549050828110156104ac576040517f08c379a00000000000000000000000000000000000000000000000000000000081526004016104a3906111d3565b60405180910390fd5b6104c0856104b8610879565b858403610881565b60019150509392505050565b60006012905090565b60006105776104e2610879565b8484600160006104f0610879565b73ffffffffffffffffffffffffffffffffffffffff1673ffffffffffffffffffffffffffffffffffffffff16815260200190815260200160002060008873ffffffffffffffffffffffffffffffffffffffff1673ffffffffffffffffffffffffffffffffffffffff1681526020019081526020016000205461057291906112c5565b610881565b6001905092915050565b600560009054906101000a900473ffffffffffffffffffffffffffffffffffffffff1673ffffffffffffffffffffffffffffffffffffffff163373ffffffffffffffffffffffffffffffffffffffff16146105db57600080fd5b6105e58282610a4c565b5050565b600560009054906101000a900473ffffffffffffffffffffffffffffffffffffffff1681565b60008060008373ffffffffffffffffffffffffffffffffffffffff1673ffffffffffffffffffffffffffffffffffffffff168152602001908152602001600020549050919050565b606060048054610666906113a3565b80601f0160208091040260200160405190810160405280929190818152602001828054610692906113a3565b80156106df5780601f106106b4576101008083540402835291602001916106df565b820191906000526020600020905b8154815290600101906020018083116106c257829003601f168201915b5050505050905090565b600080600160006106f8610879565b73ffffffffffffffffffffffffffffffffffffffff1673ffffffffffffffffffffffffffffffffffffffff16815260200190815260200160002060008573ffffffffffffffffffffffffffffffffffffffff1673ffffffffffffffffffffffffffffffffffffffff168152602001908152602001600020549050828110156107b5576040517f08c379a00000000000000000000000000000000000000000000000000000000081526004016107ac90611233565b60405180910390fd5b6107c96107c0610879565b85858403610881565b600191505092915050565b60006107e86107e1610879565b8484610bac565b6001905092915050565b6000600160008473ffffffffffffffffffffffffffffffffffffffff1673ffffffffffffffffffffffffffffffffffffffff16815260200190815260200160002060008373ffffffffffffffffffffffffffffffffffffffff1673ffffffffffffffffffffffffffffffffffffffff16815260200190815260200160002054905092915050565b600033905090565b600073ffffffffffffffffffffffffffffffffffffffff168373ffffffffffffffffffffffffffffffffffffffff1614156108f1576040517f08c379a00000000000000000000000000000000000000000000000000000000081526004016108e890611213565b60405180910390fd5b600073ffffffffffffffffffffffffffffffffffffffff168273ffffffffffffffffffffffffffffffffffffffff161415610961576040517f08c379a000000000000000000000000000000000000000000000000000000000815260040161095890611193565b60405180910390fd5b80600160008573ffffffffffffffffffffffffffffffffffffffff1673ffffffffffffffffffffffffffffffffffffffff16815260200190815260200160002060008473ffffffffffffffffffffffffffffffffffffffff1673ffffffffffffffffffffffffffffffffffffffff168152602001908152602001600020819055508173ffffffffffffffffffffffffffffffffffffffff168373ffffffffffffffffffffffffffffffffffffffff167f8c5be1e5ebec7d5bd14f71427d1e84f3dd0314c0f7b2291e5b200ac8c7c3b92583604051610a3f9190611273565b60405180910390a3505050565b600073ffffffffffffffffffffffffffffffffffffffff168273ffffffffffffffffffffffffffffffffffffffff161415610abc576040517f08c379a0000000000000000000000000000000000000000000000000000000008152600401610ab390611253565b60405180910390fd5b610ac860008383610e2d565b8060026000828254610ada91906112c5565b92505081905550806000808473ffffffffffffffffffffffffffffffffffffffff1673ffffffffffffffffffffffffffffffffffffffff1681526020019081526020016000206000828254610b2f91906112c5565b925050819055508173ffffffffffffffffffffffffffffffffffffffff16600073ffffffffffffffffffffffffffffffffffffffff167fddf252ad1be2c89b69c2b068fc378daa952ba7f163c4a11628f55a4df523b3ef83604051610b949190611273565b60405180910390a3610ba860008383610e32565b5050565b600073ffffffffffffffffffffffffffffffffffffffff168373ffffffffffffffffffffffffffffffffffffffff161415610c1c576040517f08c379a0000000000000000000000000000000000000000000000000000000008152600401610c13906111f3565b60405180910390fd5b600073ffffffffffffffffffffffffffffffffffffffff168273ffffffffffffffffffffffffffffffffffffffff161415610c8c576040517f08c379a0000000000000000000000000000000000000000000000000000000008152600401610c8390611173565b60405180910390fd5b610c97838383610e2d565b60008060008573ffffffffffffffffffffffffffffffffffffffff1673ffffffffffffffffffffffffffffffffffffffff16815260200190815260200160002054905081811015610d1d576040517f08c379a0000000000000000000000000000000000000000000000000000000008152600401610d14906111b3565b60405180910390fd5b8181036000808673ffffffffffffffffffffffffffffffffffffffff1673ffffffffffffffffffffffffffffffffffffffff16815260200190815260200160002081905550816000808573ffffffffffffffffffffffffffffffffffffffff1673ffffffffffffffffffffffffffffffffffffffff1681526020019081526020016000206000828254610db091906112c5565b925050819055508273ffffffffffffffffffffffffffffffffffffffff168473ffffffffffffffffffffffffffffffffffffffff167fddf252ad1be2c89b69c2b068fc378daa952ba7f163c4a11628f55a4df523b3ef84604051610e149190611273565b60405180910390a3610e27848484610e32565b50505050565b505050565b505050565b600081359050610e468161169b565b92915050565b600081359050610e5b816116b2565b92915050565b600060208284031215610e7757610e76611433565b5b6000610e8584828501610e37565b91505092915050565b60008060408385031215610ea557610ea4611433565b5b6000610eb385828601610e37565b9250506020610ec485828601610e37565b9150509250929050565b600080600060608486031215610ee757610ee6611433565b5b6000610ef586828701610e37565b9350506020610f0686828701610e37565b9250506040610f1786828701610e4c565b9150509250925092565b60008060408385031215610f3857610f37611433565b5b6000610f4685828601610e37565b9250506020610f5785828601610e4c565b9150509250929050565b600060208284031215610f7757610f76611433565b5b6000610f8584828501610e4c565b91505092915050565b610f978161131b565b82525050565b610fa68161132d565b82525050565b6000610fb7826112a9565b610fc181856112b4565b9350610fd1818560208601611370565b610fda81611438565b840191505092915050565b6000610ff26023836112b4565b9150610ffd82611449565b604082019050919050565b60006110156022836112b4565b915061102082611498565b604082019050919050565b60006110386026836112b4565b9150611043826114e7565b604082019050919050565b600061105b6028836112b4565b915061106682611536565b604082019050919050565b600061107e6025836112b4565b915061108982611585565b604082019050919050565b60006110a16024836112b4565b91506110ac826115d4565b604082019050919050565b60006110c46025836112b4565b91506110cf82611623565b604082019050919050565b60006110e7601f836112b4565b91506110f282611672565b602082019050919050565b61110681611359565b82525050565b61111581611363565b82525050565b60006020820190506111306000830184610f8e565b92915050565b600060208201905061114b6000830184610f9d565b92915050565b6000602082019050818103600083015261116b8184610fac565b905092915050565b6000602082019050818103600083015261118c81610fe5565b9050919050565b600060208201905081810360008301526111ac81611008565b9050919050565b600060208201905081810360008301526111cc8161102b565b9050919050565b600060208201905081810360008301526111ec8161104e565b9050919050565b6000602082019050818103600083015261120c81611071565b9050919050565b6000602082019050818103600083015261122c81611094565b9050919050565b6000602082019050818103600083015261124c816110b7565b9050919050565b6000602082019050818103600083015261126c816110da565b9050919050565b600060208201905061128860008301846110fd565b92915050565b60006020820190506112a3600083018461110c565b92915050565b600081519050919050565b600082825260208201905092915050565b60006112d082611359565b91506112db83611359565b9250827fffffffffffffffffffffffffffffffffffffffffffffffffffffffffffffffff038211156113105761130f6113d5565b5b828201905092915050565b600061132682611339565b9050919050565b60008115159050919050565b600073ffffffffffffffffffffffffffffffffffffffff82169050919050565b6000819050919050565b600060ff82169050919050565b60005b8381101561138e578082015181840152602081019050611373565b8381111561139d576000848401525b50505050565b600060028204905060018216806113bb57607f821691505b602082108114156113cf576113ce611404565b5b50919050565b7f4e487b7100000000000000000000000000000000000000000000000000000000600052601160045260246000fd5b7f4e487b7100000000000000000000000000000000000000000000000000000000600052602260045260246000fd5b600080fd5b6000601f19601f8301169050919050565b7f45524332303a207472616e7366657220746f20746865207a65726f206164647260008201527f6573730000000000000000000000000000000000000000000000000000000000602082015250565b7f45524332303a20617070726f766520746f20746865207a65726f20616464726560008201527f7373000000000000000000000000000000000000000000000000000000000000602082015250565b7f45524332303a207472616e7366657220616d6f756e742065786365656473206260008201527f616c616e63650000000000000000000000000000000000000000000000000000602082015250565b7f45524332303a207472616e7366657220616d6f756e742065786365656473206160008201527f6c6c6f77616e6365000000000000000000000000000000000000000000000000602082015250565b7f45524332303a207472616e736665722066726f6d20746865207a65726f20616460008201527f6472657373000000000000000000000000000000000000000000000000000000602082015250565b7f45524332303a20617070726f76652066726f6d20746865207a65726f2061646460008201527f7265737300000000000000000000000000000000000000000000000000000000602082015250565b7f45524332303a2064656372656173656420616c6c6f77616e63652062656c6f7760008201527f207a65726f000000000000000000000000000000000000000000000000000000602082015250565b7f45524332303a206d696e7420746f20746865207a65726f206164647265737300600082015250565b6116a48161131b565b81146116af57600080fd5b50565b6116bb81611359565b81146116c657600080fd5b5056fea2646970667358221220dd24f57c9661a810271453b31c49d220a71efdbe88d81e47b6205d955186c57564736f6c634300080700336080604052348015600f57600080fd5b50603f80601d6000396000f3fe6080604052600080fdfea264697066735822122093e57e0679b8b3055fbcf91ce45a589f621d201e6ca1aa24510473044983ef7064736f6c63430008070033",
  "linkReferences": {},
  "deployedLinkReferences": {}
}