{
  "_format": "hh-sol-artifact-1",
  "contractName": "ClientProjectFactory",
  "sourceName": "contracts/Factory/ClientProjectFactory.sol",
  "abi": [
    {
      "inputs": [
        {
          "internalType": "address payable",
          "name": "_sourcingLead",
          "type": "address"
        },
        {
          "internalType": "address payable",
          "name": "_client",
          "type": "address"
        },
        {
          "internalType": "address payable",
          "name": "_arbiter",
          "type": "address"
        },
        {
          "internalType": "address",
          "name": "_repTokenAddress",
          "type": "address"
        },
        {
          "internalType": "address",
          "name": "_arbitrationEscrow",
          "type": "address"
        },
        {
          "internalType": "address",
          "name": "_votingAddress",
          "type": "address"
        },
        {
          "internalType": "address",
          "name": "_paymentTokenAddress",
          "type": "address"
        },
        {
          "internalType": "uint256",
          "name": "_votingDuration",
          "type": "uint256"
        }
      ],
      "name": "createClientProject",
      "outputs": [
        {
          "internalType": "address",
          "name": "",
          "type": "address"
        }
      ],
      "stateMutability": "nonpayable",
      "type": "function"
    }
  ],
  "bytecode": "0x608060405234801561001057600080fd5b506147ab806100206000396000f3fe60806040523480156200001157600080fd5b50600436106200002e5760003560e01c8063d9acec531462000033575b600080fd5b6200005160048036038101906200004b919062000115565b62000069565b60405162000060919062000211565b60405180910390f35b60003389898989898989896040516200008290620000c2565b62000096999897969594939291906200022e565b604051809103906000f080158015620000b3573d6000803e3d6000fd5b50905098975050505050505050565b614403806200037383390190565b600081359050620000e18162000324565b92915050565b600081359050620000f8816200033e565b92915050565b6000813590506200010f8162000358565b92915050565b600080600080600080600080610100898b0312156200013957620001386200031f565b5b6000620001498b828c01620000e7565b98505060206200015c8b828c01620000e7565b97505060406200016f8b828c01620000e7565b9650506060620001828b828c01620000d0565b9550506080620001958b828c01620000d0565b94505060a0620001a88b828c01620000d0565b93505060c0620001bb8b828c01620000d0565b92505060e0620001ce8b828c01620000fe565b9150509295985092959890939650565b620001e981620002e1565b82525050565b620001fa81620002cd565b82525050565b6200020b8162000315565b82525050565b6000602082019050620002286000830184620001ef565b92915050565b60006101208201905062000246600083018c620001ef565b62000255602083018b620001de565b62000264604083018a620001de565b620002736060830189620001de565b620002826080830188620001ef565b6200029160a0830187620001ef565b620002a060c0830186620001ef565b620002af60e0830185620001ef565b620002bf61010083018462000200565b9a9950505050505050505050565b6000620002da82620002f5565b9050919050565b6000620002ee82620002f5565b9050919050565b600073ffffffffffffffffffffffffffffffffffffffff82169050919050565b6000819050919050565b600080fd5b6200032f81620002cd565b81146200033b57600080fd5b50565b6200034981620002e1565b81146200035557600080fd5b50565b620003638162000315565b81146200036f57600080fd5b5056fe608060405262054600600b556101f4600e556101f4600f556000601955633b9aca00601a553480156200003157600080fd5b5060405162004403380380620044038339818101604052810190620000579190620005bc565b6000600460146101000a81548160ff0219169083600581111562000080576200007f62000747565b5b021790555087601660006101000a81548173ffffffffffffffffffffffffffffffffffffffff021916908373ffffffffffffffffffffffffffffffffffffffff1602179055506018601660009054906101000a900473ffffffffffffffffffffffffffffffffffffffff169080600181540180825580915050600190039060005260206000200160009091909190916101000a81548173ffffffffffffffffffffffffffffffffffffffff021916908373ffffffffffffffffffffffffffffffffffffffff160217905550600160106000601660009054906101000a900473ffffffffffffffffffffffffffffffffffffffff1673ffffffffffffffffffffffffffffffffffffffff1673ffffffffffffffffffffffffffffffffffffffff16815260200190815260200160002060006101000a81548160ff02191690831515021790555086601560006101000a81548173ffffffffffffffffffffffffffffffffffffffff021916908373ffffffffffffffffffffffffffffffffffffffff16021790555083600360006101000a81548173ffffffffffffffffffffffffffffffffffffffff021916908373ffffffffffffffffffffffffffffffffffffffff16021790555085601760006101000a81548173ffffffffffffffffffffffffffffffffffffffff021916908373ffffffffffffffffffffffffffffffffffffffff160217905550886000806101000a81548173ffffffffffffffffffffffffffffffffffffffff021916908373ffffffffffffffffffffffffffffffffffffffff16021790555084600160006101000a81548173ffffffffffffffffffffffffffffffffffffffff021916908373ffffffffffffffffffffffffffffffffffffffff16021790555042600c8190555080600a8190555082600460006101000a81548173ffffffffffffffffffffffffffffffffffffffff021916908373ffffffffffffffffffffffffffffffffffffffff1602179055506200036c82601a546200037b60201b60201c565b505050505050505050620007f2565b60008054906101000a900473ffffffffffffffffffffffffffffffffffffffff1673ffffffffffffffffffffffffffffffffffffffff163373ffffffffffffffffffffffffffffffffffffffff161480620004235750601660009054906101000a900473ffffffffffffffffffffffffffffffffffffffff1673ffffffffffffffffffffffffffffffffffffffff163373ffffffffffffffffffffffffffffffffffffffff16145b62000465576040517f08c379a00000000000000000000000000000000000000000000000000000000081526004016200045c90620006c2565b60405180910390fd5b81600260006101000a81548173ffffffffffffffffffffffffffffffffffffffff021916908373ffffffffffffffffffffffffffffffffffffffff160217905550620004b781620004bb60201b60201c565b5050565b60008054906101000a900473ffffffffffffffffffffffffffffffffffffffff1673ffffffffffffffffffffffffffffffffffffffff163373ffffffffffffffffffffffffffffffffffffffff161480620005635750601660009054906101000a900473ffffffffffffffffffffffffffffffffffffffff1673ffffffffffffffffffffffffffffffffffffffff163373ffffffffffffffffffffffffffffffffffffffff16145b6200056d57600080fd5b80601a8190555050565b6000815190506200058881620007a4565b92915050565b6000815190506200059f81620007be565b92915050565b600081519050620005b681620007d8565b92915050565b60008060008060008060008060006101208a8c031215620005e257620005e162000776565b5b6000620005f28c828d0162000577565b9950506020620006058c828d016200058e565b9850506040620006188c828d016200058e565b97505060606200062b8c828d016200058e565b96505060806200063e8c828d0162000577565b95505060a0620006518c828d0162000577565b94505060c0620006648c828d0162000577565b93505060e0620006778c828d0162000577565b9250506101006200068b8c828d01620005a5565b9150509295985092959850929598565b6000620006aa601883620006e4565b9150620006b7826200077b565b602082019050919050565b60006020820190508181036000830152620006dd816200069b565b9050919050565b600082825260208201905092915050565b600062000702826200071d565b9050919050565b600062000716826200071d565b9050919050565b600073ffffffffffffffffffffffffffffffffffffffff82169050919050565b6000819050919050565b7f4e487b7100000000000000000000000000000000000000000000000000000000600052602160045260246000fd5b600080fd5b7f736f75726365206f7220736f757263696e67204c656164210000000000000000600082015250565b620007af81620006f5565b8114620007bb57600080fd5b50565b620007c98162000709565b8114620007d557600080fd5b50565b620007e3816200073d565b8114620007ef57600080fd5b50565b613c0180620008026000396000f3fe608060405234801561001057600080fd5b506004361061027f5760003560e01c806363066abd1161015c578063bcba3e97116100ce578063e6e70dd611610087578063e6e70dd61461071a578063e89e4ed614610724578063e958349314610758578063f3120c4414610776578063fce1ccca14610792578063fe25e00a146107b05761027f565b8063bcba3e9714610680578063bd238fe61461069c578063c438b40f146106b8578063c7656f6e146106d4578063c9e3f0fa146106de578063d2da0182146106fc5761027f565b8063908c36ca11610120578063908c36ca146105ce5780639100b5dd146105ec5780639872330b1461060c5780639ec601721461062a5780639fa3613814610646578063b13a2c41146106625761027f565b806363066abd1461052c57806367e828bf146105485780636f8a42d4146105665780637e96ea14146105825780638f320c771461059e5761027f565b8063359d393d116101f55780633eb2b5ad116101b95780633eb2b5ad14610480578063417c09c01461049c578063431c0c88146104cc5780634596ad58146104e857806348916c89146104f257806353f10a4b1461050e5761027f565b8063359d393d146103ee57806335baea341461040c57806339518b5e1461042857806339d5d126146104465780633d1c5ff3146104645761027f565b806318ad3c921161024757806318ad3c921461033c5780631dfef34014610346578063200d2ed21461037657806329034a5c146103945780632fee8e3e146103b25780633013ce29146103d05761027f565b806308422702146102845780630d581232146102b45780630dff5008146102d0578063109e94cf14610300578063132002fc1461031e575b600080fd5b61029e60048036038101906102999190612b36565b6107ce565b6040516102ab91906130e0565b60405180910390f35b6102ce60048036038101906102c99190612d6b565b6107fd565b005b6102ea60048036038101906102e59190612bff565b6108f4565b6040516102f791906130e0565b60405180910390f35b610308610a16565b604051610315919061304a565b60405180910390f35b610326610a3c565b6040516103339190613350565b60405180910390f35b610344610a42565b005b610360600480360381019061035b9190612b36565b610a9d565b60405161036d9190613350565b60405180910390f35b61037e610ac2565b60405161038b91906131d5565b60405180910390f35b61039c610ad5565b6040516103a99190613184565b60405180910390f35b6103ba610afb565b6040516103c7919061314e565b60405180910390f35b6103d8610b21565b6040516103e59190613169565b60405180910390f35b6103f6610b47565b6040516104039190613350565b60405180910390f35b61042660048036038101906104219190612ce0565b610b4d565b005b610430610c27565b60405161043d9190613350565b60405180910390f35b61044e610c2d565b60405161045b9190613350565b60405180910390f35b61047e60048036038101906104799190612b76565b610c33565b005b61049a60048036038101906104959190612b09565b610d2e565b005b6104b660048036038101906104b19190612adc565b610e9c565b6040516104c39190613335565b60405180910390f35b6104e660048036038101906104e19190612c86565b610ebd565b005b6104f0610f77565b005b61050c60048036038101906105079190612b76565b61103e565b005b6105166110f2565b6040516105239190613350565b60405180910390f35b61054660048036038101906105419190612c86565b6110f8565b005b61055061118e565b60405161055d919061319f565b60405180910390f35b610580600480360381019061057b9190612c86565b6111b2565b005b61059c60048036038101906105979190612c59565b611216565b005b6105b860048036038101906105b39190612b36565b6113ae565b6040516105c591906130e0565b60405180910390f35b6105d66113dd565b6040516105e39190613350565b60405180910390f35b6105f46113e3565b604051610603939291906133d9565b60405180910390f35b6106146113fb565b6040516106219190613350565b60405180910390f35b610644600480360381019061063f9190612bb6565b611401565b005b610660600480360381019061065b9190612c86565b611590565b005b61066a6118c8565b6040516106779190613350565b60405180910390f35b61069a60048036038101906106959190612adc565b6118ce565b005b6106b660048036038101906106b19190612bff565b611ba1565b005b6106d260048036038101906106cd9190612c86565b611e04565b005b6106dc611f3c565b005b6106e6611f3e565b6040516106f39190613350565b60405180910390f35b610704611f44565b604051610711919061304a565b60405180910390f35b610722611f6a565b005b61073e60048036038101906107399190612c86565b612119565b60405161074f9594939291906130fb565b60405180910390f35b610760612179565b60405161076d9190613350565b60405180910390f35b610790600480360381019061078b9190612adc565b61217f565b005b61079a612329565b6040516107a791906131ba565b60405180910390f35b6107b861234f565b6040516107c5919061304a565b60405180910390f35b60146020528160005260406000206020528060005260406000206000915091509054906101000a900460ff1681565b601660009054906101000a900473ffffffffffffffffffffffffffffffffffffffff1673ffffffffffffffffffffffffffffffffffffffff163373ffffffffffffffffffffffffffffffffffffffff161461088d576040517f08c379a0000000000000000000000000000000000000000000000000000000008152600401610884906132b5565b60405180910390fd5b80601b83815481106108a2576108a16138a4565b5b9060005260206000209060060201600101819055507fd63106bdd6a3a4503e009de7bdcddc32ba7d9fc512c33d2bff1accb631d88a3082826040516108e89291906133b0565b60405180910390a15050565b6000600a54600c544261090791906135b7565b111561091e57610915612375565b60009050610a11565b6000600160009054906101000a900473ffffffffffffffffffffffffffffffffffffffff1673ffffffffffffffffffffffffffffffffffffffff166370a08231336040518263ffffffff1660e01b815260040161097b919061302f565b60206040518083038186803b15801561099357600080fd5b505afa1580156109a7573d6000803e3d6000fd5b505050506040513d601f19601f820116820180604052508101906109cb9190612cb3565b905082156109f15780600860008282546109e591906134d6565b92505081905550610a0b565b8060096000828254610a0391906134d6565b925050819055505b60019150505b919050565b601560009054906101000a900473ffffffffffffffffffffffffffffffffffffffff1681565b600a5481565b600a54600c5442610a5391906135b7565b11610a93576040517f08c379a0000000000000000000000000000000000000000000000000000000008152600401610a8a90613235565b60405180910390fd5b610a9b612375565b565b6013602052816000526040600020602052806000526040600020600091509150505481565b600460149054906101000a900460ff1681565b600160009054906101000a900473ffffffffffffffffffffffffffffffffffffffff1681565b600360009054906101000a900473ffffffffffffffffffffffffffffffffffffffff1681565b600260009054906101000a900473ffffffffffffffffffffffffffffffffffffffff1681565b60095481565b601660009054906101000a900473ffffffffffffffffffffffffffffffffffffffff1673ffffffffffffffffffffffffffffffffffffffff163373ffffffffffffffffffffffffffffffffffffffff16148015610bab575080518251145b610bb457600080fd5b600b5442610bc291906134d6565b601b8481548110610bd657610bd56138a4565b5b9060005260206000209060060201600301819055507fe35031d60f2f841b5b780ddd4c92c4ddea78f371eff5306b4edb3d14899b87c883604051610c1a9190613350565b60405180910390a1505050565b600c5481565b60085481565b6000600260009054906101000a900473ffffffffffffffffffffffffffffffffffffffff1673ffffffffffffffffffffffffffffffffffffffff166370a08231306040518263ffffffff1660e01b8152600401610c90919061302f565b60206040518083038186803b158015610ca857600080fd5b505afa158015610cbc573d6000803e3d6000fd5b505050506040513d601f19601f82011682018060405250810190610ce09190612cb3565b14610d20576040517f08c379a0000000000000000000000000000000000000000000000000000000008152600401610d1790613275565b60405180910390fd5b610d2a8282612492565b5050565b601660009054906101000a900473ffffffffffffffffffffffffffffffffffffffff1673ffffffffffffffffffffffffffffffffffffffff163373ffffffffffffffffffffffffffffffffffffffff161480610dd5575060008054906101000a900473ffffffffffffffffffffffffffffffffffffffff1673ffffffffffffffffffffffffffffffffffffffff163373ffffffffffffffffffffffffffffffffffffffff16145b610dde57600080fd5b6018819080600181540180825580915050600190039060005260206000200160009091909190916101000a81548173ffffffffffffffffffffffffffffffffffffffff021916908373ffffffffffffffffffffffffffffffffffffffff1602179055506001601060008373ffffffffffffffffffffffffffffffffffffffff1673ffffffffffffffffffffffffffffffffffffffff16815260200190815260200160002060006101000a81548160ff02191690831515021790555050565b60126020528060005260406000206000915054906101000a900461ffff1681565b60008054906101000a900473ffffffffffffffffffffffffffffffffffffffff1673ffffffffffffffffffffffffffffffffffffffff163373ffffffffffffffffffffffffffffffffffffffff161480610f645750601660009054906101000a900473ffffffffffffffffffffffffffffffffffffffff1673ffffffffffffffffffffffffffffffffffffffff163373ffffffffffffffffffffffffffffffffffffffff16145b610f6d57600080fd5b80601a8190555050565b600460009054906101000a900473ffffffffffffffffffffffffffffffffffffffff1673ffffffffffffffffffffffffffffffffffffffff16637b6e5f9c60016000600e546018805490506040518563ffffffff1660e01b8152600401610fe194939291906131f0565b602060405180830381600087803b158015610ffb57600080fd5b505af115801561100f573d6000803e3d6000fd5b505050506040513d601f19601f820116820180604052508101906110339190612cb3565b600560010181905550565b600160009054906101000a900473ffffffffffffffffffffffffffffffffffffffff1673ffffffffffffffffffffffffffffffffffffffff1663a9059cbb83836040518363ffffffff1660e01b815260040161109b9291906130b7565b602060405180830381600087803b1580156110b557600080fd5b505af11580156110c9573d6000803e3d6000fd5b505050506040513d601f19601f820116820180604052508101906110ed9190612c2c565b505050565b600e5481565b601060003373ffffffffffffffffffffffffffffffffffffffff1673ffffffffffffffffffffffffffffffffffffffff16815260200190815260200160002060009054906101000a900460ff1661114e57600080fd5b606080601b8381548110611165576111646138a4565b5b906000526020600020906006020160050190805190602001906111899291906127ef565b505050565b60008054906101000a900473ffffffffffffffffffffffffffffffffffffffff1681565b601660009054906101000a900473ffffffffffffffffffffffffffffffffffffffff1673ffffffffffffffffffffffffffffffffffffffff163373ffffffffffffffffffffffffffffffffffffffff161461120c57600080fd5b8060198190555050565b601660009054906101000a900473ffffffffffffffffffffffffffffffffffffffff1673ffffffffffffffffffffffffffffffffffffffff163373ffffffffffffffffffffffffffffffffffffffff16146112a6576040517f08c379a000000000000000000000000000000000000000000000000000000000815260040161129d906132f5565b60405180910390fd5b606080601b6040518060e00160405280600015158152602001600015158152602001600081526020018581526020016000815260200184815260200183815250908060018154018082558091505060019003906000526020600020906006020160009091909190915060008201518160000160006101000a81548160ff02191690831515021790555060208201518160000160016101000a81548160ff02191690831515021790555060408201518160010155606082015181600201556080820151816003015560a082015181600401908051906020019061138992919061283c565b5060c08201518160050190805190602001906113a69291906127ef565b505050505050565b60116020528160005260406000206020528060005260406000206000915091509054906101000a900460ff1681565b600d5481565b60058060000154908060010154908060020154905083565b601a5481565b601560009054906101000a900473ffffffffffffffffffffffffffffffffffffffff1673ffffffffffffffffffffffffffffffffffffffff163373ffffffffffffffffffffffffffffffffffffffff1614806114aa5750601660009054906101000a900473ffffffffffffffffffffffffffffffffffffffff1673ffffffffffffffffffffffffffffffffffffffff163373ffffffffffffffffffffffffffffffffffffffff16145b6114b357600080fd5b60005b815181101561152a576001601b8383815181106114d6576114d56138a4565b5b6020026020010151815481106114ef576114ee6138a4565b5b906000526020600020906006020160000160016101000a81548160ff0219169083151502179055508080611522906137ce565b9150506114b6565b506002600460146101000a81548160ff0219169083600581111561155157611550613875565b5b02179055507f695fbf2fe28b4fde5705122279ffc4160ebfc0f45e4d96f7e6699001be5062ef33604051611585919061302f565b60405180910390a150565b601b81815481106115a4576115a36138a4565b5b906000526020600020906006020160000160009054906101000a900460ff166115cc57600080fd5b601b81815481106115e0576115df6138a4565b5b90600052602060002090600602016003015442116115fd57600080fd5b60005b601b8281548110611614576116136138a4565b5b9060005260206000209060060201600401805490508110156118c457600260009054906101000a900473ffffffffffffffffffffffffffffffffffffffff1673ffffffffffffffffffffffffffffffffffffffff1663a9059cbb601b8481548110611682576116816138a4565b5b906000526020600020906006020160040183815481106116a5576116a46138a4565b5b9060005260206000200160009054906101000a900473ffffffffffffffffffffffffffffffffffffffff16601b85815481106116e4576116e36138a4565b5b90600052602060002090600602016005018481548110611707576117066138a4565b5b90600052602060002001546040518363ffffffff1660e01b815260040161172f92919061308e565b602060405180830381600087803b15801561174957600080fd5b505af115801561175d573d6000803e3d6000fd5b505050506040513d601f19601f820116820180604052508101906117819190612c2c565b5060008054906101000a900473ffffffffffffffffffffffffffffffffffffffff1673ffffffffffffffffffffffffffffffffffffffff1663bca0adcb601b84815481106117d2576117d16138a4565b5b906000526020600020906006020160040183815481106117f5576117f46138a4565b5b9060005260206000200160009054906101000a900473ffffffffffffffffffffffffffffffffffffffff16601b8581548110611834576118336138a4565b5b90600052602060002090600602016005018481548110611857576118566138a4565b5b90600052602060002001546040518363ffffffff1660e01b815260040161187f929190613065565b600060405180830381600087803b15801561189957600080fd5b505af11580156118ad573d6000803e3d6000fd5b5050505080806118bc906137ce565b915050611600565b5050565b60195481565b60001515601160003373ffffffffffffffffffffffffffffffffffffffff1673ffffffffffffffffffffffffffffffffffffffff16815260200190815260200160002060008373ffffffffffffffffffffffffffffffffffffffff1673ffffffffffffffffffffffffffffffffffffffff16815260200190815260200160002060009054906101000a900460ff1615151480156119b957508073ffffffffffffffffffffffffffffffffffffffff16601660009054906101000a900473ffffffffffffffffffffffffffffffffffffffff1673ffffffffffffffffffffffffffffffffffffffff1614155b6119c257600080fd5b6001601160003373ffffffffffffffffffffffffffffffffffffffff1673ffffffffffffffffffffffffffffffffffffffff16815260200190815260200160002060008373ffffffffffffffffffffffffffffffffffffffff1673ffffffffffffffffffffffffffffffffffffffff16815260200190815260200160002060006101000a81548160ff0219169083151502179055506001601260008373ffffffffffffffffffffffffffffffffffffffff1673ffffffffffffffffffffffffffffffffffffffff16815260200190815260200160002060008282829054906101000a900461ffff16611ab4919061349e565b92506101000a81548161ffff021916908361ffff1602179055506064600f54601880549050611ae3919061355d565b611aed919061352c565b601260008373ffffffffffffffffffffffffffffffffffffffff1673ffffffffffffffffffffffffffffffffffffffff16815260200190815260200160002060009054906101000a900461ffff1661ffff161115611b9e576000601060008373ffffffffffffffffffffffffffffffffffffffff1673ffffffffffffffffffffffffffffffffffffffff16815260200190815260200160002060006101000a81548160ff0219169083151502179055505b50565b601760009054906101000a900473ffffffffffffffffffffffffffffffffffffffff1673ffffffffffffffffffffffffffffffffffffffff163373ffffffffffffffffffffffffffffffffffffffff16148015611c31575060026005811115611c0d57611c0c613875565b5b600460149054906101000a900460ff166005811115611c2f57611c2e613875565b5b145b611c3a57600080fd5b8015611d2357601954600d8190555060005b601b80549050811015611d2157601b8181548110611c6d57611c6c6138a4565b5b906000526020600020906006020160000160019054906101000a900460ff1615611d0e576001601b8281548110611ca757611ca66138a4565b5b906000526020600020906006020160000160006101000a81548160ff0219169083151502179055506000601b8281548110611ce557611ce46138a4565b5b906000526020600020906006020160000160016101000a81548160ff0219169083151502179055505b8080611d19906137ce565b915050611c4c565b505b611dd6600260009054906101000a900473ffffffffffffffffffffffffffffffffffffffff1673ffffffffffffffffffffffffffffffffffffffff166370a08231306040518263ffffffff1660e01b8152600401611d81919061302f565b60206040518083038186803b158015611d9957600080fd5b505afa158015611dad573d6000803e3d6000fd5b505050506040513d601f19601f82011682018060405250810190611dd19190612cb3565b6125c6565b6001600460146101000a81548160ff02191690836005811115611dfc57611dfb613875565b5b021790555050565b601560009054906101000a900473ffffffffffffffffffffffffffffffffffffffff1673ffffffffffffffffffffffffffffffffffffffff163373ffffffffffffffffffffffffffffffffffffffff1614611e94576040517f08c379a0000000000000000000000000000000000000000000000000000000008152600401611e8b90613295565b60405180910390fd5b6001601b8281548110611eaa57611ea96138a4565b5b906000526020600020906006020160000160006101000a81548160ff0219169083151502179055507f939da3b627c123c81fe5aacebf925163337a0d4f8a03724640618078cad2489481601b8381548110611f0857611f076138a4565b5b906000526020600020906006020160010154604051611f289291906133b0565b60405180910390a1611f398161269b565b50565b565b600b5481565b601660009054906101000a900473ffffffffffffffffffffffffffffffffffffffff1681565b600080600460009054906101000a900473ffffffffffffffffffffffffffffffffffffffff1673ffffffffffffffffffffffffffffffffffffffff166309094c2d6005600101546040518263ffffffff1660e01b8152600401611fcd9190613350565b604080518083038186803b158015611fe457600080fd5b505afa158015611ff8573d6000803e3d6000fd5b505050506040513d601f19601f8201168201806040525081019061201c9190612dd8565b9150915060028260ff1614612066576040517f08c379a000000000000000000000000000000000000000000000000000000000815260040161205d90613255565b60405180910390fd5b3373ffffffffffffffffffffffffffffffffffffffff168173ffffffffffffffffffffffffffffffffffffffff16146120d4576040517f08c379a00000000000000000000000000000000000000000000000000000000081526004016120cb90613315565b60405180910390fd5b33601660006101000a81548173ffffffffffffffffffffffffffffffffffffffff021916908373ffffffffffffffffffffffffffffffffffffffff1602179055505050565b601b818154811061212957600080fd5b90600052602060002090600602016000915090508060000160009054906101000a900460ff16908060000160019054906101000a900460ff16908060010154908060020154908060030154905085565b600f5481565b601660009054906101000a900473ffffffffffffffffffffffffffffffffffffffff1673ffffffffffffffffffffffffffffffffffffffff168173ffffffffffffffffffffffffffffffffffffffff1614156121da57600080fd5b600460009054906101000a900473ffffffffffffffffffffffffffffffffffffffff1673ffffffffffffffffffffffffffffffffffffffff1663901d40e7600560010154338460016040518563ffffffff1660e01b8152600401612241949392919061336b565b600060405180830381600087803b15801561225b57600080fd5b505af115801561226f573d6000803e3d6000fd5b50505050600460009054906101000a900473ffffffffffffffffffffffffffffffffffffffff1673ffffffffffffffffffffffffffffffffffffffff16635c622a0e6005600101546040518263ffffffff1660e01b81526004016122d39190613350565b602060405180830381600087803b1580156122ed57600080fd5b505af1158015612301573d6000803e3d6000fd5b505050506040513d601f19601f820116820180604052508101906123259190612dab565b5050565b600460009054906101000a900473ffffffffffffffffffffffffffffffffffffffff1681565b601760009054906101000a900473ffffffffffffffffffffffffffffffffffffffff1681565b60095460085411156123b1576003600460146101000a81548160ff021916908360058111156123a7576123a6613875565b5b0217905550612490565b6005600460146101000a81548160ff021916908360058111156123d7576123d6613875565b5b021790555061248f600260009054906101000a900473ffffffffffffffffffffffffffffffffffffffff1673ffffffffffffffffffffffffffffffffffffffff166370a08231306040518263ffffffff1660e01b815260040161243a919061302f565b60206040518083038186803b15801561245257600080fd5b505afa158015612466573d6000803e3d6000fd5b505050506040513d601f19601f8201168201806040525081019061248a9190612cb3565b6125c6565b5b565b60008054906101000a900473ffffffffffffffffffffffffffffffffffffffff1673ffffffffffffffffffffffffffffffffffffffff163373ffffffffffffffffffffffffffffffffffffffff1614806125395750601660009054906101000a900473ffffffffffffffffffffffffffffffffffffffff1673ffffffffffffffffffffffffffffffffffffffff163373ffffffffffffffffffffffffffffffffffffffff16145b612578576040517f08c379a000000000000000000000000000000000000000000000000000000000815260040161256f906132d5565b60405180910390fd5b81600260006101000a81548173ffffffffffffffffffffffffffffffffffffffff021916908373ffffffffffffffffffffffffffffffffffffffff1602179055506125c281610ebd565b5050565b600260009054906101000a900473ffffffffffffffffffffffffffffffffffffffff1673ffffffffffffffffffffffffffffffffffffffff1663a9059cbb601560009054906101000a900473ffffffffffffffffffffffffffffffffffffffff16836040518363ffffffff1660e01b815260040161264592919061308e565b602060405180830381600087803b15801561265f57600080fd5b505af1158015612673573d6000803e3d6000fd5b505050506040513d601f19601f820116820180604052508101906126979190612c2c565b5050565b601b81815481106126af576126ae6138a4565b5b906000526020600020906006020160000160009054906101000a900460ff166126d757600080fd5b60006127106103e8601b84815481106126f3576126f26138a4565b5b90600052602060002090600602016001015461270f919061355d565b612719919061352c565b9050600260009054906101000a900473ffffffffffffffffffffffffffffffffffffffff1673ffffffffffffffffffffffffffffffffffffffff1663a9059cbb60008054906101000a900473ffffffffffffffffffffffffffffffffffffffff16836040518363ffffffff1660e01b81526004016127989291906130b7565b602060405180830381600087803b1580156127b257600080fd5b505af11580156127c6573d6000803e3d6000fd5b505050506040513d601f19601f820116820180604052508101906127ea9190612c2c565b505050565b82805482825590600052602060002090810192821561282b579160200282015b8281111561282a57825182559160200191906001019061280f565b5b50905061283891906128c6565b5090565b8280548282559060005260206000209081019282156128b5579160200282015b828111156128b45782518260006101000a81548173ffffffffffffffffffffffffffffffffffffffff021916908373ffffffffffffffffffffffffffffffffffffffff1602179055509160200191906001019061285c565b5b5090506128c291906128c6565b5090565b5b808211156128df5760008160009055506001016128c7565b5090565b60006128f66128f184613435565b613410565b9050808382526020820190508285602086028201111561291957612918613907565b5b60005b85811015612949578161292f88826129c3565b84526020840193506020830192505060018101905061291c565b5050509392505050565b600061296661296184613461565b613410565b9050808382526020820190508285602086028201111561298957612988613907565b5b60005b858110156129b9578161299f8882612a9d565b84526020840193506020830192505060018101905061298c565b5050509392505050565b6000813590506129d281613b41565b92915050565b6000815190506129e781613b41565b92915050565b6000813590506129fc81613b58565b92915050565b600082601f830112612a1757612a16613902565b5b8135612a278482602086016128e3565b91505092915050565b600082601f830112612a4557612a44613902565b5b8135612a55848260208601612953565b91505092915050565b600081359050612a6d81613b6f565b92915050565b600081519050612a8281613b6f565b92915050565b600081359050612a9781613b86565b92915050565b600081359050612aac81613b9d565b92915050565b600081519050612ac181613b9d565b92915050565b600081519050612ad681613bb4565b92915050565b600060208284031215612af257612af1613911565b5b6000612b00848285016129c3565b91505092915050565b600060208284031215612b1f57612b1e613911565b5b6000612b2d848285016129ed565b91505092915050565b60008060408385031215612b4d57612b4c613911565b5b6000612b5b858286016129c3565b9250506020612b6c858286016129c3565b9150509250929050565b60008060408385031215612b8d57612b8c613911565b5b6000612b9b858286016129c3565b9250506020612bac85828601612a9d565b9150509250929050565b600060208284031215612bcc57612bcb613911565b5b600082013567ffffffffffffffff811115612bea57612be961390c565b5b612bf684828501612a30565b91505092915050565b600060208284031215612c1557612c14613911565b5b6000612c2384828501612a5e565b91505092915050565b600060208284031215612c4257612c41613911565b5b6000612c5084828501612a73565b91505092915050565b600060208284031215612c6f57612c6e613911565b5b6000612c7d84828501612a88565b91505092915050565b600060208284031215612c9c57612c9b613911565b5b6000612caa84828501612a9d565b91505092915050565b600060208284031215612cc957612cc8613911565b5b6000612cd784828501612ab2565b91505092915050565b600080600060608486031215612cf957612cf8613911565b5b6000612d0786828701612a9d565b935050602084013567ffffffffffffffff811115612d2857612d2761390c565b5b612d3486828701612a02565b925050604084013567ffffffffffffffff811115612d5557612d5461390c565b5b612d6186828701612a30565b9150509250925092565b60008060408385031215612d8257612d81613911565b5b6000612d9085828601612a9d565b9250506020612da185828601612a9d565b9150509250929050565b600060208284031215612dc157612dc0613911565b5b6000612dcf84828501612ac7565b91505092915050565b60008060408385031215612def57612dee613911565b5b6000612dfd85828601612ac7565b9250506020612e0e858286016129d8565b9150509250929050565b612e21816136c5565b82525050565b612e30816135fd565b82525050565b612e3f816135eb565b82525050565b612e4e8161360f565b82525050565b612e5d8161361b565b82525050565b612e6c816136d7565b82525050565b612e7b816136e9565b82525050565b612e8a816136fb565b82525050565b612e998161370d565b82525050565b612ea88161371f565b82525050565b612eb781613731565b82525050565b612ec681613743565b82525050565b612ed581613755565b82525050565b612ee481613767565b82525050565b6000612ef760178361348d565b9150612f0282613927565b602082019050919050565b6000612f1a60158361348d565b9150612f2582613950565b602082019050919050565b6000612f3d60358361348d565b9150612f4882613979565b604082019050919050565b6000612f6060278361348d565b9150612f6b826139c8565b604082019050919050565b6000612f8360368361348d565b9150612f8e82613a17565b604082019050919050565b6000612fa660188361348d565b9150612fb182613a66565b602082019050919050565b6000612fc960298361348d565b9150612fd482613a8f565b604082019050919050565b6000612fec60278361348d565b9150612ff782613ade565b604082019050919050565b61300b81613638565b82525050565b61301a8161366f565b82525050565b6130298161369d565b82525050565b60006020820190506130446000830184612e36565b92915050565b600060208201905061305f6000830184612e27565b92915050565b600060408201905061307a6000830185612e27565b6130876020830184613020565b9392505050565b60006040820190506130a36000830185612e18565b6130b06020830184613020565b9392505050565b60006040820190506130cc6000830185612e36565b6130d96020830184613020565b9392505050565b60006020820190506130f56000830184612e45565b92915050565b600060a0820190506131106000830188612e45565b61311d6020830187612e45565b61312a6040830186613020565b6131376060830185612e54565b6131446080830184613020565b9695505050505050565b60006020820190506131636000830184612e63565b92915050565b600060208201905061317e6000830184612e72565b92915050565b60006020820190506131996000830184612e81565b92915050565b60006020820190506131b46000830184612e90565b92915050565b60006020820190506131cf6000830184612e9f565b92915050565b60006020820190506131ea6000830184612eae565b92915050565b60006080820190506132056000830187612edb565b6132126020830186612ebd565b61321f6040830185613002565b61322c6060830184613002565b95945050505050565b6000602082019050818103600083015261324e81612eea565b9050919050565b6000602082019050818103600083015261326e81612f0d565b9050919050565b6000602082019050818103600083015261328e81612f30565b9050919050565b600060208201905081810360008301526132ae81612f53565b9050919050565b600060208201905081810360008301526132ce81612f76565b9050919050565b600060208201905081810360008301526132ee81612f99565b9050919050565b6000602082019050818103600083015261330e81612fbc565b9050919050565b6000602082019050818103600083015261332e81612fdf565b9050919050565b600060208201905061334a6000830184613011565b92915050565b60006020820190506133656000830184613020565b92915050565b60006080820190506133806000830187613020565b61338d6020830186612e36565b61339a6040830185612e36565b6133a76060830184612ecc565b95945050505050565b60006040820190506133c56000830185613020565b6133d26020830184613020565b9392505050565b60006060820190506133ee6000830186613020565b6133fb6020830185613020565b6134086040830184613020565b949350505050565b600061341a61342b565b9050613426828261379d565b919050565b6000604051905090565b600067ffffffffffffffff8211156134505761344f6138d3565b5b602082029050602081019050919050565b600067ffffffffffffffff82111561347c5761347b6138d3565b5b602082029050602081019050919050565b600082825260208201905092915050565b60006134a98261366f565b91506134b48361366f565b92508261ffff038211156134cb576134ca613817565b5b828201905092915050565b60006134e18261369d565b91506134ec8361369d565b9250827fffffffffffffffffffffffffffffffffffffffffffffffffffffffffffffffff0382111561352157613520613817565b5b828201905092915050565b60006135378261369d565b91506135428361369d565b92508261355257613551613846565b5b828204905092915050565b60006135688261369d565b91506135738361369d565b9250817fffffffffffffffffffffffffffffffffffffffffffffffffffffffffffffffff04831182151516156135ac576135ab613817565b5b828202905092915050565b60006135c28261369d565b91506135cd8361369d565b9250828210156135e0576135df613817565b5b828203905092915050565b60006135f68261367d565b9050919050565b60006136088261367d565b9050919050565b60008115159050919050565b6000819050919050565b600081905061363382613b2d565b919050565b60006effffffffffffffffffffffffffffff82169050919050565b60006fffffffffffffffffffffffffffffffff82169050919050565b600061ffff82169050919050565b600073ffffffffffffffffffffffffffffffffffffffff82169050919050565b6000819050919050565b600064ffffffffff82169050919050565b600060ff82169050919050565b60006136d082613779565b9050919050565b60006136e282613779565b9050919050565b60006136f482613779565b9050919050565b600061370682613779565b9050919050565b600061371882613779565b9050919050565b600061372a82613779565b9050919050565b600061373c82613625565b9050919050565b600061374e826136a7565b9050919050565b600061376082613653565b9050919050565b6000613772826136b8565b9050919050565b60006137848261378b565b9050919050565b60006137968261367d565b9050919050565b6137a682613916565b810181811067ffffffffffffffff821117156137c5576137c46138d3565b5b80604052505050565b60006137d98261369d565b91507fffffffffffffffffffffffffffffffffffffffffffffffffffffffffffffffff82141561380c5761380b613817565b5b600182019050919050565b7f4e487b7100000000000000000000000000000000000000000000000000000000600052601160045260246000fd5b7f4e487b7100000000000000000000000000000000000000000000000000000000600052601260045260246000fd5b7f4e487b7100000000000000000000000000000000000000000000000000000000600052602160045260246000fd5b7f4e487b7100000000000000000000000000000000000000000000000000000000600052603260045260246000fd5b7f4e487b7100000000000000000000000000000000000000000000000000000000600052604160045260246000fd5b600080fd5b600080fd5b600080fd5b600080fd5b6000601f19601f8301169050919050565b7f566f74696e67206973207374696c6c206f6e676f696e67000000000000000000600082015250565b7f566f74696e6720686173206e6f74207061737365640000000000000000000000600082015250565b7f50726576696f757320546f6b656e206e6565647320746f206265206465706c6560008201527f746564206265666f726520746865206368616e67650000000000000000000000602082015250565b7f4f6e6c792074686520636c69656e742063616e20617070726f76652061206d6960008201527f6c6573746f6e6500000000000000000000000000000000000000000000000000602082015250565b7f4f6e6c792074686520736f757263696e67206c6561642063616e20726571756560008201527f7374207061796d656e742066726f6d20636c69656e7400000000000000000000602082015250565b7f736f75726365206f7220736f757263696e67204c656164210000000000000000600082015250565b7f4f6e6c792074686520736f757263696e67206c6561642063616e20616464206d60008201527f696c6573746f6e65730000000000000000000000000000000000000000000000602082015250565b7f4f6e6c7920656c65637465642050726f6a656374204d616e616765722063616e60008201527f20636c61696d2100000000000000000000000000000000000000000000000000602082015250565b60068110613b3e57613b3d613875565b5b50565b613b4a816135eb565b8114613b5557600080fd5b50565b613b61816135fd565b8114613b6c57600080fd5b50565b613b788161360f565b8114613b8357600080fd5b50565b613b8f8161361b565b8114613b9a57600080fd5b50565b613ba68161369d565b8114613bb157600080fd5b50565b613bbd816136b8565b8114613bc857600080fd5b5056fea264697066735822122085e32da1a24cf30471c48c07e86cca69b1494d8c4b9a5b8ac80de2afc5a17a4064736f6c63430008070033a26469706673582212208d7a94d6cf13d8594e89159fc7cd1202b4bcc76204503ef59df984a224f0bd3664736f6c63430008070033",
  "linkReferences": {},
  "deployedLinkReferences": {}
}