{
  "_format": "hh-sol-artifact-1",
  "contractName": "InternalProject",
  "sourceName": "contracts/Department.sol",
  "abi": [
    {
      "inputs": [
        {
          "internalType": "address payable",
          "name": "_teamLead",
          "type": "address"
        },
        {
          "internalType": "address",
          "name": "repTokenAddress",
          "type": "address"
        },
        {
          "internalType": "address",
          "name": "paymentTokenAddress",
          "type": "address"
        },
        {
          "internalType": "address",
          "name": "_votingAddress",
          "type": "address"
        },
        {
          "internalType": "uint256",
          "name": "_votingDuration",
          "type": "uint256"
        },
        {
          "internalType": "uint256",
          "name": "_paymentInterval",
          "type": "uint256"
        },
        {
          "internalType": "uint256",
          "name": "_requestedAmount",
          "type": "uint256"
        }
      ],
      "stateMutability": "nonpayable",
      "type": "constructor"
    },
    {
      "anonymous": false,
      "inputs": [],
      "name": "PayrollRosterSubmitted",
      "type": "event"
    },
    {
      "inputs": [
        {
          "internalType": "uint256",
          "name": "",
          "type": "uint256"
        }
      ],
      "name": "amounts",
      "outputs": [
        {
          "internalType": "uint256",
          "name": "",
          "type": "uint256"
        }
      ],
      "stateMutability": "view",
      "type": "function"
    },
    {
      "inputs": [],
      "name": "funds",
      "outputs": [
        {
          "internalType": "uint256",
          "name": "",
          "type": "uint256"
        }
      ],
      "stateMutability": "view",
      "type": "function"
    },
    {
      "inputs": [],
      "name": "numberOfVotes",
      "outputs": [
        {
          "internalType": "uint256",
          "name": "",
          "type": "uint256"
        }
      ],
      "stateMutability": "view",
      "type": "function"
    },
    {
      "inputs": [],
      "name": "pay",
      "outputs": [],
      "stateMutability": "nonpayable",
      "type": "function"
    },
    {
      "inputs": [
        {
          "internalType": "address",
          "name": "",
          "type": "address"
        }
      ],
      "name": "payeeSplitting",
      "outputs": [
        {
          "internalType": "enum InternalProject.repSplittingOption",
          "name": "",
          "type": "uint8"
        }
      ],
      "stateMutability": "view",
      "type": "function"
    },
    {
      "inputs": [
        {
          "internalType": "uint256",
          "name": "",
          "type": "uint256"
        }
      ],
      "name": "payees",
      "outputs": [
        {
          "internalType": "address payable",
          "name": "",
          "type": "address"
        }
      ],
      "stateMutability": "view",
      "type": "function"
    },
    {
      "inputs": [],
      "name": "paymentInterval",
      "outputs": [
        {
          "internalType": "uint256",
          "name": "",
          "type": "uint256"
        }
      ],
      "stateMutability": "view",
      "type": "function"
    },
    {
      "inputs": [],
      "name": "paymentToken",
      "outputs": [
        {
          "internalType": "contract IERC20",
          "name": "",
          "type": "address"
        }
      ],
      "stateMutability": "view",
      "type": "function"
    },
    {
      "inputs": [],
      "name": "projectType",
      "outputs": [
        {
          "internalType": "enum InternalProject.ProjectType",
          "name": "",
          "type": "uint8"
        }
      ],
      "stateMutability": "view",
      "type": "function"
    },
    {
      "inputs": [],
      "name": "registerVote",
      "outputs": [],
      "stateMutability": "nonpayable",
      "type": "function"
    },
    {
      "inputs": [],
      "name": "repToken",
      "outputs": [
        {
          "internalType": "contract IRepToken",
          "name": "",
          "type": "address"
        }
      ],
      "stateMutability": "view",
      "type": "function"
    },
    {
      "inputs": [
        {
          "internalType": "uint8",
          "name": "_newOption",
          "type": "uint8"
        }
      ],
      "name": "setSplitting",
      "outputs": [],
      "stateMutability": "nonpayable",
      "type": "function"
    },
    {
      "inputs": [],
      "name": "source",
      "outputs": [
        {
          "internalType": "contract ISource",
          "name": "",
          "type": "address"
        }
      ],
      "stateMutability": "view",
      "type": "function"
    },
    {
      "inputs": [],
      "name": "startingTime",
      "outputs": [
        {
          "internalType": "uint256",
          "name": "",
          "type": "uint256"
        }
      ],
      "stateMutability": "view",
      "type": "function"
    },
    {
      "inputs": [],
      "name": "status",
      "outputs": [
        {
          "internalType": "enum InternalProject.ProjectStatus",
          "name": "",
          "type": "uint8"
        }
      ],
      "stateMutability": "view",
      "type": "function"
    },
    {
      "inputs": [
        {
          "internalType": "address payable[]",
          "name": "_payees",
          "type": "address[]"
        },
        {
          "internalType": "uint256[]",
          "name": "_amounts",
          "type": "uint256[]"
        }
      ],
      "name": "submitPayrollRoster",
      "outputs": [],
      "stateMutability": "nonpayable",
      "type": "function"
    },
    {
      "inputs": [],
      "name": "teamLead",
      "outputs": [
        {
          "internalType": "address payable",
          "name": "",
          "type": "address"
        }
      ],
      "stateMutability": "view",
      "type": "function"
    },
    {
      "inputs": [
        {
          "internalType": "bool",
          "name": "decision",
          "type": "bool"
        }
      ],
      "name": "voteOnProject",
      "outputs": [
        {
          "internalType": "bool",
          "name": "",
          "type": "bool"
        }
      ],
      "stateMutability": "nonpayable",
      "type": "function"
    },
    {
      "inputs": [],
      "name": "votes_against",
      "outputs": [
        {
          "internalType": "uint256",
          "name": "",
          "type": "uint256"
        }
      ],
      "stateMutability": "view",
      "type": "function"
    },
    {
      "inputs": [],
      "name": "votes_pro",
      "outputs": [
        {
          "internalType": "uint256",
          "name": "",
          "type": "uint256"
        }
      ],
      "stateMutability": "view",
      "type": "function"
    },
    {
      "inputs": [],
      "name": "voting",
      "outputs": [
        {
          "internalType": "contract IVoting",
          "name": "",
          "type": "address"
        }
      ],
      "stateMutability": "view",
      "type": "function"
    },
    {
      "inputs": [],
      "name": "votingDuration",
      "outputs": [
        {
          "internalType": "uint256",
          "name": "",
          "type": "uint256"
        }
      ],
      "stateMutability": "view",
      "type": "function"
    },
    {
      "inputs": [],
      "name": "withdraw",
      "outputs": [],
      "stateMutability": "nonpayable",
      "type": "function"
    }
  ],
  "bytecode": "0x60806040523480156200001157600080fd5b506040516200218b3803806200218b833981810160405281019062000037919062000316565b8160098190555080600c8190555060008060006101000a81548160ff021916908360048111156200006d576200006c6200041b565b5b021790555086600d60006101000a81548173ffffffffffffffffffffffffffffffffffffffff021916908373ffffffffffffffffffffffffffffffffffffffff160217905550600a600d60009054906101000a900473ffffffffffffffffffffffffffffffffffffffff169080600181540180825580915050600190039060005260206000200160009091909190916101000a81548173ffffffffffffffffffffffffffffffffffffffff021916908373ffffffffffffffffffffffffffffffffffffffff1602179055506001600b6000600d60009054906101000a900473ffffffffffffffffffffffffffffffffffffffff1673ffffffffffffffffffffffffffffffffffffffff1673ffffffffffffffffffffffffffffffffffffffff16815260200190815260200160002060006101000a81548160ff02191690831515021790555033600260006101000a81548173ffffffffffffffffffffffffffffffffffffffff021916908373ffffffffffffffffffffffffffffffffffffffff16021790555085600160006101000a81548173ffffffffffffffffffffffffffffffffffffffff021916908373ffffffffffffffffffffffffffffffffffffffff16021790555084600360006101000a81548173ffffffffffffffffffffffffffffffffffffffff021916908373ffffffffffffffffffffffffffffffffffffffff160217905550426004819055508260058190555083600060026101000a81548173ffffffffffffffffffffffffffffffffffffffff021916908373ffffffffffffffffffffffffffffffffffffffff160217905550505050505050506200049d565b600081519050620002e2816200044f565b92915050565b600081519050620002f98162000469565b92915050565b600081519050620003108162000483565b92915050565b600080600080600080600060e0888a0312156200033857620003376200044a565b5b6000620003488a828b01620002e8565b97505060206200035b8a828b01620002d1565b96505060406200036e8a828b01620002d1565b9550506060620003818a828b01620002d1565b9450506080620003948a828b01620002ff565b93505060a0620003a78a828b01620002ff565b92505060c0620003ba8a828b01620002ff565b91505092959891949750929550565b6000620003d682620003f1565b9050919050565b6000620003ea82620003f1565b9050919050565b600073ffffffffffffffffffffffffffffffffffffffff82169050919050565b6000819050919050565b7f4e487b7100000000000000000000000000000000000000000000000000000000600052602160045260246000fd5b600080fd5b6200045a81620003c9565b81146200046657600080fd5b50565b6200047481620003dd565b81146200048057600080fd5b50565b6200048e8162000411565b81146200049a57600080fd5b50565b611cde80620004ad6000396000f3fe608060405234801561001057600080fd5b506004361061014d5760003560e01c806339d5d126116100c3578063a3e5c7db1161007c578063a3e5c7db14610348578063c2fc0d2614610378578063c89f2ce414610396578063e4777968146103b4578063f4f0b4a8146103d0578063fce1ccca146103ee5761014d565b806339d5d126146102865780633ccfd60b146102a457806345f0a44f146102ae57806363037b0c146102de57806367e828bf1461030e5780637a43bfbc1461032c5761014d565b80631cc1cf46116101155780631cc1cf46146101d2578063200d2ed2146101f057806329034a5c1461020e5780633013ce291461022c578063359d393d1461024a57806339518b5e146102685761014d565b80630dff5008146101525780630e7d490d14610182578063132002fc146101a057806318ad3c92146101be5780631b9265b8146101c8575b600080fd5b61016c600480360381019061016791906113b9565b61040c565b60405161017991906115f3565b60405180910390f35b61018a6106c3565b604051610197919061170b565b60405180910390f35b6101a86106c9565b6040516101b5919061170b565b60405180910390f35b6101c66106cf565b005b6101d06108a4565b005b6101da610a83565b6040516101e7919061170b565b60405180910390f35b6101f8610a89565b604051610205919061167a565b60405180910390f35b610216610a9a565b6040516102239190611629565b60405180910390f35b610234610ac0565b604051610241919061160e565b60405180910390f35b610252610ae6565b60405161025f919061170b565b60405180910390f35b610270610aec565b60405161027d919061170b565b60405180910390f35b61028e610af2565b60405161029b919061170b565b60405180910390f35b6102ac610af8565b005b6102c860048036038101906102c39190611413565b610b54565b6040516102d5919061170b565b60405180910390f35b6102f860048036038101906102f39190611413565b610b78565b60405161030591906115af565b60405180910390f35b610316610bb7565b6040516103239190611644565b60405180910390f35b6103466004803603810190610341919061146d565b610bdd565b005b610362600480360381019061035d9190611314565b610c5c565b60405161036f91906116b0565b60405180910390f35b610380610c7c565b60405161038d9190611695565b60405180910390f35b61039e610c8f565b6040516103ab919061170b565b60405180910390f35b6103ce60048036038101906103c99190611341565b610c95565b005b6103d8610eba565b6040516103e591906115af565b60405180910390f35b6103f6610ee0565b604051610403919061165f565b60405180910390f35b600080600554600454426104209190611895565b11905060006002600160009054906101000a900473ffffffffffffffffffffffffffffffffffffffff1673ffffffffffffffffffffffffffffffffffffffff166318160ddd6040518163ffffffff1660e01b815260040160206040518083038186803b15801561048f57600080fd5b505afa1580156104a3573d6000803e3d6000fd5b505050506040513d601f19601f820116820180604052508101906104c79190611440565b6104d1919061180a565b600654118061058c57506002600160009054906101000a900473ffffffffffffffffffffffffffffffffffffffff1673ffffffffffffffffffffffffffffffffffffffff166318160ddd6040518163ffffffff1660e01b815260040160206040518083038186803b15801561054557600080fd5b505afa158015610559573d6000803e3d6000fd5b505050506040513d601f19601f8201168201806040525081019061057d9190611440565b610587919061180a565b600754115b905081806105975750805b156105af576105a4610f06565b6000925050506106be565b6000600160009054906101000a900473ffffffffffffffffffffffffffffffffffffffff1673ffffffffffffffffffffffffffffffffffffffff166370a08231336040518263ffffffff1660e01b815260040161060c9190611594565b60206040518083038186803b15801561062457600080fd5b505afa158015610638573d6000803e3d6000fd5b505050506040513d601f19601f8201168201806040525081019061065c9190611440565b9050841561068257806006600082825461067691906117b4565b9250508190555061069c565b806007600082825461069491906117b4565b925050819055505b6001600860008282546106af91906117b4565b92505081905550600193505050505b919050565b60085481565b60055481565b6000600554600454426106e29190611895565b11905060006002600160009054906101000a900473ffffffffffffffffffffffffffffffffffffffff1673ffffffffffffffffffffffffffffffffffffffff166318160ddd6040518163ffffffff1660e01b815260040160206040518083038186803b15801561075157600080fd5b505afa158015610765573d6000803e3d6000fd5b505050506040513d601f19601f820116820180604052508101906107899190611440565b610793919061180a565b600654118061084e57506002600160009054906101000a900473ffffffffffffffffffffffffffffffffffffffff1673ffffffffffffffffffffffffffffffffffffffff166318160ddd6040518163ffffffff1660e01b815260040160206040518083038186803b15801561080757600080fd5b505afa15801561081b573d6000803e3d6000fd5b505050506040513d601f19601f8201168201806040525081019061083f9190611440565b610849919061180a565b600754115b905081806108595750805b610898576040517f08c379a000000000000000000000000000000000000000000000000000000000815260040161088f906116cb565b60405180910390fd5b6108a0610f06565b5050565b600260009054906101000a900473ffffffffffffffffffffffffffffffffffffffff1673ffffffffffffffffffffffffffffffffffffffff163373ffffffffffffffffffffffffffffffffffffffff16146108fe57600080fd5b60005b600e80549050811015610a6457600360009054906101000a900473ffffffffffffffffffffffffffffffffffffffff1673ffffffffffffffffffffffffffffffffffffffff1663a9059cbb600e83815481106109605761095f611b24565b5b9060005260206000200160009054906101000a900473ffffffffffffffffffffffffffffffffffffffff16600f848154811061099f5761099e611b24565b5b90600052602060002001546040518363ffffffff1660e01b81526004016109c79291906115ca565b602060405180830381600087803b1580156109e157600080fd5b505af11580156109f5573d6000803e3d6000fd5b505050506040513d601f19601f82011682018060405250810190610a1991906113e6565b50600f8181548110610a2e57610a2d611b24565b5b9060005260206000200154600c6000828254610a4a9190611895565b925050819055508080610a5c90611a4e565b915050610901565b50600e6000610a73919061100f565b600f6000610a819190611030565b565b60095481565b60008054906101000a900460ff1681565b600160009054906101000a900473ffffffffffffffffffffffffffffffffffffffff1681565b600360009054906101000a900473ffffffffffffffffffffffffffffffffffffffff1681565b60075481565b60045481565b60065481565b600260009054906101000a900473ffffffffffffffffffffffffffffffffffffffff1673ffffffffffffffffffffffffffffffffffffffff163373ffffffffffffffffffffffffffffffffffffffff1614610b5257600080fd5b565b600f8181548110610b6457600080fd5b906000526020600020016000915090505481565b600e8181548110610b8857600080fd5b906000526020600020016000915054906101000a900473ffffffffffffffffffffffffffffffffffffffff1681565b600260009054906101000a900473ffffffffffffffffffffffffffffffffffffffff1681565b8060ff166002811115610bf357610bf2611af5565b5b601060003373ffffffffffffffffffffffffffffffffffffffff1673ffffffffffffffffffffffffffffffffffffffff16815260200190815260200160002060006101000a81548160ff02191690836002811115610c5457610c53611af5565b5b021790555050565b60106020528060005260406000206000915054906101000a900460ff1681565b600060019054906101000a900460ff1681565b600c5481565b600d60009054906101000a900473ffffffffffffffffffffffffffffffffffffffff1673ffffffffffffffffffffffffffffffffffffffff163373ffffffffffffffffffffffffffffffffffffffff16148015610cf3575080518251145b610cfc57600080fd5b60046003600954610d0d919061183b565b610d17919061180a565b600260009054906101000a900473ffffffffffffffffffffffffffffffffffffffff1673ffffffffffffffffffffffffffffffffffffffff16631c0701df6040518163ffffffff1660e01b8152600401602060405180830381600087803b158015610d8157600080fd5b505af1158015610d95573d6000803e3d6000fd5b505050506040513d601f19601f82011682018060405250810190610db99190611440565b42610dc49190611895565b10610dce57600080fd5b6000805b8351811015610e1657828181518110610dee57610ded611b24565b5b602002602001015182610e0191906117b4565b91508080610e0e90611a4e565b915050610dd2565b50600c548110610e5b576040517f08c379a0000000000000000000000000000000000000000000000000000000008152600401610e52906116eb565b60405180910390fd5b82600e9080519060200190610e71929190611051565b5081600f9080519060200190610e889291906110db565b507f3c3310c1ef683c833d748aaef5ca6ac91aadd9b4bf0561667faf9261a4f593d760405160405180910390a1505050565b600d60009054906101000a900473ffffffffffffffffffffffffffffffffffffffff1681565b600060029054906101000a900473ffffffffffffffffffffffffffffffffffffffff1681565b60075460065411610f18576004610f1b565b60015b6000806101000a81548160ff02191690836004811115610f3e57610f3d611af5565b5b021790555060016004811115610f5757610f56611af5565b5b60008054906101000a900460ff166004811115610f7757610f76611af5565b5b141561100d57600260009054906101000a900473ffffffffffffffffffffffffffffffffffffffff1673ffffffffffffffffffffffffffffffffffffffff166312514bba600c546040518263ffffffff1660e01b8152600401610fda919061170b565b600060405180830381600087803b158015610ff457600080fd5b505af1158015611008573d6000803e3d6000fd5b505050505b565b508054600082559060005260206000209081019061102d9190611128565b50565b508054600082559060005260206000209081019061104e9190611128565b50565b8280548282559060005260206000209081019282156110ca579160200282015b828111156110c95782518260006101000a81548173ffffffffffffffffffffffffffffffffffffffff021916908373ffffffffffffffffffffffffffffffffffffffff16021790555091602001919060010190611071565b5b5090506110d79190611128565b5090565b828054828255906000526020600020908101928215611117579160200282015b828111156111165782518255916020019190600101906110fb565b5b5090506111249190611128565b5090565b5b80821115611141576000816000905550600101611129565b5090565b60006111586111538461174b565b611726565b9050808382526020820190508285602086028201111561117b5761117a611b87565b5b60005b858110156111ab5781611191888261123a565b84526020840193506020830192505060018101905061117e565b5050509392505050565b60006111c86111c384611777565b611726565b905080838252602082019050828560208602820111156111eb576111ea611b87565b5b60005b8581101561121b578161120188826112d5565b8452602084019350602083019250506001810190506111ee565b5050509392505050565b60008135905061123481611c35565b92915050565b60008135905061124981611c4c565b92915050565b600082601f83011261126457611263611b82565b5b8135611274848260208601611145565b91505092915050565b600082601f83011261129257611291611b82565b5b81356112a28482602086016111b5565b91505092915050565b6000813590506112ba81611c63565b92915050565b6000815190506112cf81611c63565b92915050565b6000813590506112e481611c7a565b92915050565b6000815190506112f981611c7a565b92915050565b60008135905061130e81611c91565b92915050565b60006020828403121561132a57611329611b91565b5b600061133884828501611225565b91505092915050565b6000806040838503121561135857611357611b91565b5b600083013567ffffffffffffffff81111561137657611375611b8c565b5b6113828582860161124f565b925050602083013567ffffffffffffffff8111156113a3576113a2611b8c565b5b6113af8582860161127d565b9150509250929050565b6000602082840312156113cf576113ce611b91565b5b60006113dd848285016112ab565b91505092915050565b6000602082840312156113fc576113fb611b91565b5b600061140a848285016112c0565b91505092915050565b60006020828403121561142957611428611b91565b5b6000611437848285016112d5565b91505092915050565b60006020828403121561145657611455611b91565b5b6000611464848285016112ea565b91505092915050565b60006020828403121561148357611482611b91565b5b6000611491848285016112ff565b91505092915050565b6114a381611969565b82525050565b6114b2816118db565b82525050565b6114c1816118c9565b82525050565b6114d0816118ed565b82525050565b6114df8161197b565b82525050565b6114ee8161198d565b82525050565b6114fd8161199f565b82525050565b61150c816119b1565b82525050565b61151b816119c3565b82525050565b61152a816119d5565b82525050565b611539816119e7565b82525050565b600061154c6017836117a3565b915061155782611ba7565b602082019050919050565b600061156f601c836117a3565b915061157a82611bd0565b602082019050919050565b61158e81611952565b82525050565b60006020820190506115a960008301846114b8565b92915050565b60006020820190506115c460008301846114a9565b92915050565b60006040820190506115df600083018561149a565b6115ec6020830184611585565b9392505050565b600060208201905061160860008301846114c7565b92915050565b600060208201905061162360008301846114d6565b92915050565b600060208201905061163e60008301846114e5565b92915050565b600060208201905061165960008301846114f4565b92915050565b60006020820190506116746000830184611503565b92915050565b600060208201905061168f6000830184611512565b92915050565b60006020820190506116aa6000830184611521565b92915050565b60006020820190506116c56000830184611530565b92915050565b600060208201905081810360008301526116e48161153f565b9050919050565b6000602082019050818103600083015261170481611562565b9050919050565b60006020820190506117206000830184611585565b92915050565b6000611730611741565b905061173c8282611a1d565b919050565b6000604051905090565b600067ffffffffffffffff82111561176657611765611b53565b5b602082029050602081019050919050565b600067ffffffffffffffff82111561179257611791611b53565b5b602082029050602081019050919050565b600082825260208201905092915050565b60006117bf82611952565b91506117ca83611952565b9250827fffffffffffffffffffffffffffffffffffffffffffffffffffffffffffffffff038211156117ff576117fe611a97565b5b828201905092915050565b600061181582611952565b915061182083611952565b9250826118305761182f611ac6565b5b828204905092915050565b600061184682611952565b915061185183611952565b9250817fffffffffffffffffffffffffffffffffffffffffffffffffffffffffffffffff048311821515161561188a57611889611a97565b5b828202905092915050565b60006118a082611952565b91506118ab83611952565b9250828210156118be576118bd611a97565b5b828203905092915050565b60006118d482611932565b9050919050565b60006118e682611932565b9050919050565b60008115159050919050565b600081905061190782611bf9565b919050565b600081905061191a82611c0d565b919050565b600081905061192d82611c21565b919050565b600073ffffffffffffffffffffffffffffffffffffffff82169050919050565b6000819050919050565b600060ff82169050919050565b6000611974826119f9565b9050919050565b6000611986826119f9565b9050919050565b6000611998826119f9565b9050919050565b60006119aa826119f9565b9050919050565b60006119bc826119f9565b9050919050565b60006119ce826118f9565b9050919050565b60006119e08261190c565b9050919050565b60006119f28261191f565b9050919050565b6000611a0482611a0b565b9050919050565b6000611a1682611932565b9050919050565b611a2682611b96565b810181811067ffffffffffffffff82111715611a4557611a44611b53565b5b80604052505050565b6000611a5982611952565b91507fffffffffffffffffffffffffffffffffffffffffffffffffffffffffffffffff821415611a8c57611a8b611a97565b5b600182019050919050565b7f4e487b7100000000000000000000000000000000000000000000000000000000600052601160045260246000fd5b7f4e487b7100000000000000000000000000000000000000000000000000000000600052601260045260246000fd5b7f4e487b7100000000000000000000000000000000000000000000000000000000600052602160045260246000fd5b7f4e487b7100000000000000000000000000000000000000000000000000000000600052603260045260246000fd5b7f4e487b7100000000000000000000000000000000000000000000000000000000600052604160045260246000fd5b600080fd5b600080fd5b600080fd5b600080fd5b6000601f19601f8301169050919050565b7f566f74696e67206973207374696c6c206f6e676f696e67000000000000000000600082015250565b7f4e6f7420656e6f7567682066756e647320696e20636f6e747261637400000000600082015250565b60058110611c0a57611c09611af5565b5b50565b60028110611c1e57611c1d611af5565b5b50565b60038110611c3257611c31611af5565b5b50565b611c3e816118c9565b8114611c4957600080fd5b50565b611c55816118db565b8114611c6057600080fd5b50565b611c6c816118ed565b8114611c7757600080fd5b50565b611c8381611952565b8114611c8e57600080fd5b50565b611c9a8161195c565b8114611ca557600080fd5b5056fea2646970667358221220e4548b483f665b7a7f44230a2b64df560d93b3c0eaf47b6be1769cf03c4281ae64736f6c63430008070033",
  "linkReferences": {},
  "deployedLinkReferences": {}
}