{
  "_format": "hh-sol-artifact-1",
  "contractName": "Source",
  "sourceName": "contracts/DAO.sol",
  "abi": [
    {
      "inputs": [
        {
          "internalType": "address",
          "name": "paymentToken",
          "type": "address"
        },
        {
          "internalType": "address",
          "name": "votingContract",
          "type": "address"
        },
        {
          "internalType": "string",
          "name": "name",
          "type": "string"
        },
        {
          "internalType": "string",
          "name": "symbol",
          "type": "string"
        }
      ],
      "stateMutability": "nonpayable",
      "type": "constructor"
    },
    {
      "anonymous": false,
      "inputs": [
        {
          "indexed": false,
          "internalType": "address",
          "name": "_project",
          "type": "address"
        }
      ],
      "name": "ProjectCreated",
      "type": "event"
    },
    {
      "inputs": [
        {
          "internalType": "address",
          "name": "_erc20TokenAddress",
          "type": "address"
        }
      ],
      "name": "addPaymentToken",
      "outputs": [],
      "stateMutability": "nonpayable",
      "type": "function"
    },
    {
      "inputs": [],
      "name": "arbitrationEscrow",
      "outputs": [
        {
          "internalType": "contract ArbitrationEscrow",
          "name": "",
          "type": "address"
        }
      ],
      "stateMutability": "view",
      "type": "function"
    },
    {
      "inputs": [],
      "name": "changePaymentInterval",
      "outputs": [],
      "stateMutability": "nonpayable",
      "type": "function"
    },
    {
      "inputs": [
        {
          "internalType": "uint256",
          "name": "",
          "type": "uint256"
        }
      ],
      "name": "clientProjects",
      "outputs": [
        {
          "internalType": "address",
          "name": "",
          "type": "address"
        }
      ],
      "stateMutability": "view",
      "type": "function"
    },
    {
      "inputs": [
        {
          "internalType": "address payable",
          "name": "_client",
          "type": "address"
        },
        {
          "internalType": "address payable",
          "name": "_arbiter",
          "type": "address"
        },
        {
          "internalType": "address",
          "name": "_paymentTokenAddress",
          "type": "address"
        }
      ],
      "name": "createClientProject",
      "outputs": [],
      "stateMutability": "nonpayable",
      "type": "function"
    },
    {
      "inputs": [
        {
          "internalType": "uint256",
          "name": "_requestedAmount",
          "type": "uint256"
        }
      ],
      "name": "createInternalProject",
      "outputs": [],
      "stateMutability": "nonpayable",
      "type": "function"
    },
    {
      "inputs": [],
      "name": "defaultPaymentToken",
      "outputs": [
        {
          "internalType": "contract IERC20",
          "name": "",
          "type": "address"
        }
      ],
      "stateMutability": "view",
      "type": "function"
    },
    {
      "inputs": [],
      "name": "getStartPaymentTimer",
      "outputs": [
        {
          "internalType": "uint256",
          "name": "",
          "type": "uint256"
        }
      ],
      "stateMutability": "view",
      "type": "function"
    },
    {
      "inputs": [
        {
          "internalType": "uint256",
          "name": "",
          "type": "uint256"
        }
      ],
      "name": "internalProjects",
      "outputs": [
        {
          "internalType": "address",
          "name": "",
          "type": "address"
        }
      ],
      "stateMutability": "view",
      "type": "function"
    },
    {
      "inputs": [
        {
          "internalType": "address payable",
          "name": "payee",
          "type": "address"
        },
        {
          "internalType": "uint256",
          "name": "amount",
          "type": "uint256"
        }
      ],
      "name": "mintRepTokens",
      "outputs": [],
      "stateMutability": "nonpayable",
      "type": "function"
    },
    {
      "inputs": [],
      "name": "numberOfProjects",
      "outputs": [
        {
          "internalType": "uint256",
          "name": "",
          "type": "uint256"
        }
      ],
      "stateMutability": "view",
      "type": "function"
    },
    {
      "inputs": [],
      "name": "paymentInterval",
      "outputs": [
        {
          "internalType": "uint256",
          "name": "",
          "type": "uint256"
        }
      ],
      "stateMutability": "view",
      "type": "function"
    },
    {
      "inputs": [
        {
          "internalType": "uint256",
          "name": "",
          "type": "uint256"
        }
      ],
      "name": "paymentTokens",
      "outputs": [
        {
          "internalType": "address",
          "name": "",
          "type": "address"
        }
      ],
      "stateMutability": "view",
      "type": "function"
    },
    {
      "inputs": [],
      "name": "payout",
      "outputs": [],
      "stateMutability": "nonpayable",
      "type": "function"
    },
    {
      "inputs": [
        {
          "internalType": "address",
          "name": "_erc20TokenAddress",
          "type": "address"
        }
      ],
      "name": "removePaymentToken",
      "outputs": [],
      "stateMutability": "nonpayable",
      "type": "function"
    },
    {
      "inputs": [],
      "name": "repToken",
      "outputs": [
        {
          "internalType": "contract RepToken",
          "name": "",
          "type": "address"
        }
      ],
      "stateMutability": "view",
      "type": "function"
    },
    {
      "inputs": [
        {
          "internalType": "address",
          "name": "_erc20TokenAddress",
          "type": "address"
        }
      ],
      "name": "setDefaultPaymentToken",
      "outputs": [],
      "stateMutability": "nonpayable",
      "type": "function"
    },
    {
      "inputs": [],
      "name": "setStartPaymentTimer",
      "outputs": [],
      "stateMutability": "nonpayable",
      "type": "function"
    },
    {
      "inputs": [],
      "name": "startPaymentTimer",
      "outputs": [
        {
          "internalType": "uint256",
          "name": "",
          "type": "uint256"
        }
      ],
      "stateMutability": "view",
      "type": "function"
    },
    {
      "inputs": [
        {
          "internalType": "uint256",
          "name": "_amount",
          "type": "uint256"
        }
      ],
      "name": "transfer",
      "outputs": [],
      "stateMutability": "nonpayable",
      "type": "function"
    },
    {
      "inputs": [],
      "name": "voting",
      "outputs": [
        {
          "internalType": "contract IVoting",
          "name": "",
          "type": "address"
        }
      ],
      "stateMutability": "view",
      "type": "function"
    },
    {
      "inputs": [],
      "name": "votingDuration",
      "outputs": [
        {
          "internalType": "uint256",
          "name": "",
          "type": "uint256"
        }
      ],
      "stateMutability": "view",
      "type": "function"
    }
  ],
  "bytecode": "0x608060405262054600600a553480156200001857600080fd5b5060405162009e5938038062009e5983398181016040528101906200003e919062000385565b826000806101000a81548173ffffffffffffffffffffffffffffffffffffffff021916908373ffffffffffffffffffffffffffffffffffffffff16021790555081816040516200008e90620002d5565b6200009b92919062000476565b604051809103906000f080158015620000b8573d6000803e3d6000fd5b50600160006101000a81548173ffffffffffffffffffffffffffffffffffffffff021916908373ffffffffffffffffffffffffffffffffffffffff1602179055506040516200010790620002e3565b604051809103906000f08015801562000124573d6000803e3d6000fd5b50600260006101000a81548173ffffffffffffffffffffffffffffffffffffffff021916908373ffffffffffffffffffffffffffffffffffffffff160217905550600360009080600181540180825580915050600190039060005260206000200160009091909190916101000a81548173ffffffffffffffffffffffffffffffffffffffff021916908373ffffffffffffffffffffffffffffffffffffffff160217905550620001da84620001e460201b60201c565b505050506200063a565b80600460006101000a81548173ffffffffffffffffffffffffffffffffffffffff021916908373ffffffffffffffffffffffffffffffffffffffff1602179055506000600560008373ffffffffffffffffffffffffffffffffffffffff1673ffffffffffffffffffffffffffffffffffffffff168152602001908152602001600020541115620002d2576003819080600181540180825580915050600190039060005260206000200160009091909190916101000a81548173ffffffffffffffffffffffffffffffffffffffff021916908373ffffffffffffffffffffffffffffffffffffffff1602179055505b50565b611afc806200830183390190565b605c8062009dfd83390190565b6000620003076200030184620004da565b620004b1565b90508281526020810184848401111562000326576200032562000600565b5b6200033384828562000560565b509392505050565b6000815190506200034c8162000620565b92915050565b600082601f8301126200036a5762000369620005fb565b5b81516200037c848260208601620002f0565b91505092915050565b60008060008060808587031215620003a257620003a16200060a565b5b6000620003b2878288016200033b565b9450506020620003c5878288016200033b565b935050604085015167ffffffffffffffff811115620003e957620003e862000605565b5b620003f78782880162000352565b925050606085015167ffffffffffffffff8111156200041b576200041a62000605565b5b620004298782880162000352565b91505092959194509250565b6000620004428262000510565b6200044e81856200051b565b93506200046081856020860162000560565b6200046b816200060f565b840191505092915050565b6000604082019050818103600083015262000492818562000435565b90508181036020830152620004a8818462000435565b90509392505050565b6000620004bd620004d0565b9050620004cb828262000596565b919050565b6000604051905090565b600067ffffffffffffffff821115620004f857620004f7620005cc565b5b62000503826200060f565b9050602081019050919050565b600081519050919050565b600082825260208201905092915050565b6000620005398262000540565b9050919050565b600073ffffffffffffffffffffffffffffffffffffffff82169050919050565b60005b838110156200058057808201518184015260208101905062000563565b8381111562000590576000848401525b50505050565b620005a1826200060f565b810181811067ffffffffffffffff82111715620005c357620005c2620005cc565b5b80604052505050565b7f4e487b7100000000000000000000000000000000000000000000000000000000600052604160045260246000fd5b600080fd5b600080fd5b600080fd5b600080fd5b6000601f19601f8301169050919050565b6200062b816200052c565b81146200063757600080fd5b50565b617cb7806200064a6000396000f3fe60806040523480156200001157600080fd5b5060043610620001605760003560e01c80636412173e11620000c9578063bca0adcb1162000087578063bca0adcb1462000377578063cc694fd71462000397578063db5e4c7f14620003a3578063de66084114620003c5578063f74b059e14620003fb578063fce1ccca146200041b5762000160565b80636412173e14620002bd5780638a14ae8a14620002df57806398ba130b14620003015780639ca09d1c1462000337578063a512542114620003575762000160565b806329034a5c116200012357806329034a5c146200020b5780632fee8e3e146200022d578063376a2873146200024f5780634a7dc8e0146200025b57806350fa62e3146200027b57806363bd1d4a14620002b15762000160565b806312514bba1462000165578063132002fc14620001855780631727e67914620001a75780631c0701df14620001c75780631cc1cf4614620001e9575b600080fd5b6200018360048036038101906200017d9190620010be565b6200043d565b005b6200018f6200054d565b6040516200019e9190620013b7565b60405180910390f35b620001c56004803603810190620001bf919062000fe9565b62000553565b005b620001d1620006e1565b604051620001e09190620013b7565b60405180910390f35b620001f3620006eb565b604051620002029190620013b7565b60405180910390f35b62000215620006f1565b60405162000224919062001378565b60405180910390f35b6200023762000717565b60405162000246919062001321565b60405180910390f35b620002596200073d565b005b62000279600480360381019062000273919062000fb7565b6200073f565b005b620002996004803603810190620002939190620010be565b62000881565b604051620002a891906200119f565b60405180910390f35b620002bb620008c1565b005b620002c7620009bd565b604051620002d691906200133e565b60405180910390f35b620002e9620009e3565b604051620002f89190620013b7565b60405180910390f35b6200031f6004803603810190620003199190620010be565b620009e9565b6040516200032e91906200119f565b60405180910390f35b6200035560048036038101906200034f9190620010be565b62000a29565b005b6200037560048036038101906200036f919062000fb7565b62000bb5565b005b6200039560048036038101906200038f919062001045565b62000c9d565b005b620003a162000d8b565b005b620003ad62000d8d565b604051620003bc9190620013b7565b60405180910390f35b620003e36004803603810190620003dd9190620010be565b62000d93565b604051620003f291906200119f565b60405180910390f35b62000419600480360381019062000413919062000fb7565b62000dd3565b005b6200042562000ec4565b6040516200043491906200135b565b60405180910390f35b600960003373ffffffffffffffffffffffffffffffffffffffff1673ffffffffffffffffffffffffffffffffffffffff16815260200190815260200160002060009054906101000a900460ff166200049457600080fd5b600460009054906101000a900473ffffffffffffffffffffffffffffffffffffffff1673ffffffffffffffffffffffffffffffffffffffff1663a9059cbb33836040518363ffffffff1660e01b8152600401620004f3929190620012f4565b602060405180830381600087803b1580156200050e57600080fd5b505af115801562000523573d6000803e3d6000fd5b505050506040513d601f19601f820116820180604052508101906200054991906200108c565b5050565b600a5481565b6000338484600160009054906101000a900473ffffffffffffffffffffffffffffffffffffffff16600260009054906101000a900473ffffffffffffffffffffffffffffffffffffffff1660008054906101000a900473ffffffffffffffffffffffffffffffffffffffff1687600a54604051620005d19062000f3f565b620005e4989796959493929190620011bc565b604051809103906000f08015801562000601573d6000803e3d6000fd5b5090506006819080600181540180825580915050600190039060005260206000200160009091909190916101000a81548173ffffffffffffffffffffffffffffffffffffffff021916908373ffffffffffffffffffffffffffffffffffffffff1602179055506001600960008373ffffffffffffffffffffffffffffffffffffffff1673ffffffffffffffffffffffffffffffffffffffff16815260200190815260200160002060006101000a81548160ff021916908315150217905550600160086000828254620006d49190620013e5565b9250508190555050505050565b6000600c54905090565b600b5481565b600160009054906101000a900473ffffffffffffffffffffffffffffffffffffffff1681565b600260009054906101000a900473ffffffffffffffffffffffffffffffffffffffff1681565b565b6000600560008373ffffffffffffffffffffffffffffffffffffffff1673ffffffffffffffffffffffffffffffffffffffff1681526020019081526020016000205414620007c4576040517f08c379a0000000000000000000000000000000000000000000000000000000008152600401620007bb9062001395565b60405180910390fd5b6003819080600181540180825580915050600190039060005260206000200160009091909190916101000a81548173ffffffffffffffffffffffffffffffffffffffff021916908373ffffffffffffffffffffffffffffffffffffffff16021790555060016003805490506200083b9190620014a3565b600560008373ffffffffffffffffffffffffffffffffffffffff1673ffffffffffffffffffffffffffffffffffffffff1681526020019081526020016000208190555050565b600681815481106200089257600080fd5b906000526020600020016000915054906101000a900473ffffffffffffffffffffffffffffffffffffffff1681565b600b54600c5442620008d49190620014a3565b11620008df57600080fd5b60005b600780549050811015620009a9576007818154811062000907576200090662001645565b5b9060005260206000200160009054906101000a900473ffffffffffffffffffffffffffffffffffffffff1673ffffffffffffffffffffffffffffffffffffffff16631b9265b86040518163ffffffff1660e01b8152600401600060405180830381600087803b1580156200097a57600080fd5b505af11580156200098f573d6000803e3d6000fd5b505050508080620009a090620015c8565b915050620008e2565b5042600c81905550620009bb62000ee8565b565b600460009054906101000a900473ffffffffffffffffffffffffffffffffffffffff1681565b600c5481565b60078181548110620009fa57600080fd5b906000526020600020016000915054906101000a900473ffffffffffffffffffffffffffffffffffffffff1681565b600033600160009054906101000a900473ffffffffffffffffffffffffffffffffffffffff16600460009054906101000a900473ffffffffffffffffffffffffffffffffffffffff1660008054906101000a900473ffffffffffffffffffffffffffffffffffffffff16600b54600a548760405162000aa89062000f4d565b62000aba97969594939291906200124a565b604051809103906000f08015801562000ad7573d6000803e3d6000fd5b5090506007819080600181540180825580915050600190039060005260206000200160009091909190916101000a81548173ffffffffffffffffffffffffffffffffffffffff021916908373ffffffffffffffffffffffffffffffffffffffff1602179055506001600960008373ffffffffffffffffffffffffffffffffffffffff1673ffffffffffffffffffffffffffffffffffffffff16815260200190815260200160002060006101000a81548160ff02191690831515021790555060016008600082825462000baa9190620013e5565b925050819055505050565b60006003600560008473ffffffffffffffffffffffffffffffffffffffff1673ffffffffffffffffffffffffffffffffffffffff168152602001908152602001600020548154811062000c0d5762000c0c62001645565b5b9060005260206000200160006101000a81548173ffffffffffffffffffffffffffffffffffffffff021916908373ffffffffffffffffffffffffffffffffffffffff1602179055506000600560008373ffffffffffffffffffffffffffffffffffffffff1673ffffffffffffffffffffffffffffffffffffffff1681526020019081526020016000208190555050565b600960003373ffffffffffffffffffffffffffffffffffffffff1673ffffffffffffffffffffffffffffffffffffffff16815260200190815260200160002060009054906101000a900460ff1662000cf457600080fd5b600160009054906101000a900473ffffffffffffffffffffffffffffffffffffffff1673ffffffffffffffffffffffffffffffffffffffff166340c10f1983836040518363ffffffff1660e01b815260040162000d53929190620012c7565b600060405180830381600087803b15801562000d6e57600080fd5b505af115801562000d83573d6000803e3d6000fd5b505050505050565b565b60085481565b6003818154811062000da457600080fd5b906000526020600020016000915054906101000a900473ffffffffffffffffffffffffffffffffffffffff1681565b80600460006101000a81548173ffffffffffffffffffffffffffffffffffffffff021916908373ffffffffffffffffffffffffffffffffffffffff1602179055506000600560008373ffffffffffffffffffffffffffffffffffffffff1673ffffffffffffffffffffffffffffffffffffffff16815260200190815260200160002054111562000ec1576003819080600181540180825580915050600190039060005260206000200160009091909190916101000a81548173ffffffffffffffffffffffffffffffffffffffff021916908373ffffffffffffffffffffffffffffffffffffffff1602179055505b50565b60008054906101000a900473ffffffffffffffffffffffffffffffffffffffff1681565b60001562000f3d576000620f424090503373ffffffffffffffffffffffffffffffffffffffff166108fc3a8362000f20919062001442565b9081150290604051600060405180830381858888f1935050505050505b565b6143ec806200170b83390190565b61218b8062005af783390190565b60008135905062000f6c81620016a2565b92915050565b60008135905062000f8381620016bc565b92915050565b60008151905062000f9a81620016d6565b92915050565b60008135905062000fb181620016f0565b92915050565b60006020828403121562000fd05762000fcf62001674565b5b600062000fe08482850162000f5b565b91505092915050565b60008060006060848603121562001005576200100462001674565b5b6000620010158682870162000f72565b9350506020620010288682870162000f72565b92505060406200103b8682870162000f5b565b9150509250925092565b600080604083850312156200105f576200105e62001674565b5b60006200106f8582860162000f72565b9250506020620010828582860162000fa0565b9150509250929050565b600060208284031215620010a557620010a462001674565b5b6000620010b58482850162000f89565b91505092915050565b600060208284031215620010d757620010d662001674565b5b6000620010e78482850162000fa0565b91505092915050565b620010fb816200153c565b82525050565b6200110c81620014f2565b82525050565b6200111d81620014de565b82525050565b6200112e8162001550565b82525050565b6200113f8162001564565b82525050565b620011508162001578565b82525050565b62001161816200158c565b82525050565b600062001176601083620013d4565b9150620011838262001679565b602082019050919050565b620011998162001532565b82525050565b6000602082019050620011b6600083018462001112565b92915050565b600061010082019050620011d4600083018b62001101565b620011e3602083018a62001101565b620011f2604083018962001101565b62001201606083018862001112565b62001210608083018762001112565b6200121f60a083018662001112565b6200122e60c083018562001112565b6200123d60e08301846200118e565b9998505050505050505050565b600060e08201905062001261600083018a62001101565b62001270602083018962001112565b6200127f604083018862001112565b6200128e606083018762001112565b6200129d60808301866200118e565b620012ac60a08301856200118e565b620012bb60c08301846200118e565b98975050505050505050565b6000604082019050620012de6000830185620010f0565b620012ed60208301846200118e565b9392505050565b60006040820190506200130b600083018562001112565b6200131a60208301846200118e565b9392505050565b600060208201905062001338600083018462001123565b92915050565b600060208201905062001355600083018462001134565b92915050565b600060208201905062001372600083018462001145565b92915050565b60006020820190506200138f600083018462001156565b92915050565b60006020820190508181036000830152620013b08162001167565b9050919050565b6000602082019050620013ce60008301846200118e565b92915050565b600082825260208201905092915050565b6000620013f28262001532565b9150620013ff8362001532565b9250827fffffffffffffffffffffffffffffffffffffffffffffffffffffffffffffffff0382111562001437576200143662001616565b5b828201905092915050565b60006200144f8262001532565b91506200145c8362001532565b9250817fffffffffffffffffffffffffffffffffffffffffffffffffffffffffffffffff048311821515161562001498576200149762001616565b5b828202905092915050565b6000620014b08262001532565b9150620014bd8362001532565b925082821015620014d357620014d262001616565b5b828203905092915050565b6000620014eb8262001512565b9050919050565b6000620014ff8262001512565b9050919050565b60008115159050919050565b600073ffffffffffffffffffffffffffffffffffffffff82169050919050565b6000819050919050565b60006200154982620015a0565b9050919050565b60006200155d82620015a0565b9050919050565b60006200157182620015a0565b9050919050565b60006200158582620015a0565b9050919050565b60006200159982620015a0565b9050919050565b6000620015ad82620015b4565b9050919050565b6000620015c18262001512565b9050919050565b6000620015d58262001532565b91507fffffffffffffffffffffffffffffffffffffffffffffffffffffffffffffffff8214156200160b576200160a62001616565b5b600182019050919050565b7f4e487b7100000000000000000000000000000000000000000000000000000000600052601160045260246000fd5b7f4e487b7100000000000000000000000000000000000000000000000000000000600052603260045260246000fd5b600080fd5b7f646f65736e742065786973742079657400000000000000000000000000000000600082015250565b620016ad81620014de565b8114620016b957600080fd5b50565b620016c781620014f2565b8114620016d357600080fd5b50565b620016e18162001506565b8114620016ed57600080fd5b50565b620016fb8162001532565b81146200170757600080fd5b5056fe608060405262054600600b556101f4600e556101f4600f556000601955633b9aca00601a553480156200003157600080fd5b50604051620043ec380380620043ec8339818101604052810190620000579190620005bb565b6000600460146101000a81548160ff0219169083600581111562000080576200007f62000730565b5b021790555087601660006101000a81548173ffffffffffffffffffffffffffffffffffffffff021916908373ffffffffffffffffffffffffffffffffffffffff1602179055506018601660009054906101000a900473ffffffffffffffffffffffffffffffffffffffff169080600181540180825580915050600190039060005260206000200160009091909190916101000a81548173ffffffffffffffffffffffffffffffffffffffff021916908373ffffffffffffffffffffffffffffffffffffffff160217905550600160106000601660009054906101000a900473ffffffffffffffffffffffffffffffffffffffff1673ffffffffffffffffffffffffffffffffffffffff1673ffffffffffffffffffffffffffffffffffffffff16815260200190815260200160002060006101000a81548160ff02191690831515021790555086601560006101000a81548173ffffffffffffffffffffffffffffffffffffffff021916908373ffffffffffffffffffffffffffffffffffffffff16021790555083600360006101000a81548173ffffffffffffffffffffffffffffffffffffffff021916908373ffffffffffffffffffffffffffffffffffffffff16021790555085601760006101000a81548173ffffffffffffffffffffffffffffffffffffffff021916908373ffffffffffffffffffffffffffffffffffffffff160217905550336000806101000a81548173ffffffffffffffffffffffffffffffffffffffff021916908373ffffffffffffffffffffffffffffffffffffffff16021790555084600160006101000a81548173ffffffffffffffffffffffffffffffffffffffff021916908373ffffffffffffffffffffffffffffffffffffffff16021790555042600c8190555080600a8190555082600460006101000a81548173ffffffffffffffffffffffffffffffffffffffff021916908373ffffffffffffffffffffffffffffffffffffffff1602179055506200036c82601a546200037a60201b60201c565b5050505050505050620007db565b60008054906101000a900473ffffffffffffffffffffffffffffffffffffffff1673ffffffffffffffffffffffffffffffffffffffff163373ffffffffffffffffffffffffffffffffffffffff161480620004225750601660009054906101000a900473ffffffffffffffffffffffffffffffffffffffff1673ffffffffffffffffffffffffffffffffffffffff163373ffffffffffffffffffffffffffffffffffffffff16145b62000464576040517f08c379a00000000000000000000000000000000000000000000000000000000081526004016200045b90620006ab565b60405180910390fd5b81600260006101000a81548173ffffffffffffffffffffffffffffffffffffffff021916908373ffffffffffffffffffffffffffffffffffffffff160217905550620004b681620004ba60201b60201c565b5050565b60008054906101000a900473ffffffffffffffffffffffffffffffffffffffff1673ffffffffffffffffffffffffffffffffffffffff163373ffffffffffffffffffffffffffffffffffffffff161480620005625750601660009054906101000a900473ffffffffffffffffffffffffffffffffffffffff1673ffffffffffffffffffffffffffffffffffffffff163373ffffffffffffffffffffffffffffffffffffffff16145b6200056c57600080fd5b80601a8190555050565b60008151905062000587816200078d565b92915050565b6000815190506200059e81620007a7565b92915050565b600081519050620005b581620007c1565b92915050565b600080600080600080600080610100898b031215620005df57620005de6200075f565b5b6000620005ef8b828c016200058d565b9850506020620006028b828c016200058d565b9750506040620006158b828c016200058d565b9650506060620006288b828c0162000576565b95505060806200063b8b828c0162000576565b94505060a06200064e8b828c0162000576565b93505060c0620006618b828c0162000576565b92505060e0620006748b828c01620005a4565b9150509295985092959890939650565b600062000693601883620006cd565b9150620006a08262000764565b602082019050919050565b60006020820190508181036000830152620006c68162000684565b9050919050565b600082825260208201905092915050565b6000620006eb8262000706565b9050919050565b6000620006ff8262000706565b9050919050565b600073ffffffffffffffffffffffffffffffffffffffff82169050919050565b6000819050919050565b7f4e487b7100000000000000000000000000000000000000000000000000000000600052602160045260246000fd5b600080fd5b7f736f75726365206f7220736f757263696e67204c656164210000000000000000600082015250565b6200079881620006de565b8114620007a457600080fd5b50565b620007b281620006f2565b8114620007be57600080fd5b50565b620007cc8162000726565b8114620007d857600080fd5b50565b613c0180620007eb6000396000f3fe608060405234801561001057600080fd5b506004361061027f5760003560e01c806363066abd1161015c578063bcba3e97116100ce578063e6e70dd611610087578063e6e70dd61461071a578063e89e4ed614610724578063e958349314610758578063f3120c4414610776578063fce1ccca14610792578063fe25e00a146107b05761027f565b8063bcba3e9714610680578063bd238fe61461069c578063c438b40f146106b8578063c7656f6e146106d4578063c9e3f0fa146106de578063d2da0182146106fc5761027f565b8063908c36ca11610120578063908c36ca146105ce5780639100b5dd146105ec5780639872330b1461060c5780639ec601721461062a5780639fa3613814610646578063b13a2c41146106625761027f565b806363066abd1461052c57806367e828bf146105485780636f8a42d4146105665780637e96ea14146105825780638f320c771461059e5761027f565b8063359d393d116101f55780633eb2b5ad116101b95780633eb2b5ad14610480578063417c09c01461049c578063431c0c88146104cc5780634596ad58146104e857806348916c89146104f257806353f10a4b1461050e5761027f565b8063359d393d146103ee57806335baea341461040c57806339518b5e1461042857806339d5d126146104465780633d1c5ff3146104645761027f565b806318ad3c921161024757806318ad3c921461033c5780631dfef34014610346578063200d2ed21461037657806329034a5c146103945780632fee8e3e146103b25780633013ce29146103d05761027f565b806308422702146102845780630d581232146102b45780630dff5008146102d0578063109e94cf14610300578063132002fc1461031e575b600080fd5b61029e60048036038101906102999190612b36565b6107ce565b6040516102ab91906130e0565b60405180910390f35b6102ce60048036038101906102c99190612d6b565b6107fd565b005b6102ea60048036038101906102e59190612bff565b6108f4565b6040516102f791906130e0565b60405180910390f35b610308610a16565b604051610315919061304a565b60405180910390f35b610326610a3c565b6040516103339190613350565b60405180910390f35b610344610a42565b005b610360600480360381019061035b9190612b36565b610a9d565b60405161036d9190613350565b60405180910390f35b61037e610ac2565b60405161038b91906131d5565b60405180910390f35b61039c610ad5565b6040516103a99190613184565b60405180910390f35b6103ba610afb565b6040516103c7919061314e565b60405180910390f35b6103d8610b21565b6040516103e59190613169565b60405180910390f35b6103f6610b47565b6040516104039190613350565b60405180910390f35b61042660048036038101906104219190612ce0565b610b4d565b005b610430610c27565b60405161043d9190613350565b60405180910390f35b61044e610c2d565b60405161045b9190613350565b60405180910390f35b61047e60048036038101906104799190612b76565b610c33565b005b61049a60048036038101906104959190612b09565b610d2e565b005b6104b660048036038101906104b19190612adc565b610e9c565b6040516104c39190613335565b60405180910390f35b6104e660048036038101906104e19190612c86565b610ebd565b005b6104f0610f77565b005b61050c60048036038101906105079190612b76565b61103e565b005b6105166110f2565b6040516105239190613350565b60405180910390f35b61054660048036038101906105419190612c86565b6110f8565b005b61055061118e565b60405161055d919061319f565b60405180910390f35b610580600480360381019061057b9190612c86565b6111b2565b005b61059c60048036038101906105979190612c59565b611216565b005b6105b860048036038101906105b39190612b36565b6113ae565b6040516105c591906130e0565b60405180910390f35b6105d66113dd565b6040516105e39190613350565b60405180910390f35b6105f46113e3565b604051610603939291906133d9565b60405180910390f35b6106146113fb565b6040516106219190613350565b60405180910390f35b610644600480360381019061063f9190612bb6565b611401565b005b610660600480360381019061065b9190612c86565b611590565b005b61066a6118c8565b6040516106779190613350565b60405180910390f35b61069a60048036038101906106959190612adc565b6118ce565b005b6106b660048036038101906106b19190612bff565b611ba1565b005b6106d260048036038101906106cd9190612c86565b611e04565b005b6106dc611f3c565b005b6106e6611f3e565b6040516106f39190613350565b60405180910390f35b610704611f44565b604051610711919061304a565b60405180910390f35b610722611f6a565b005b61073e60048036038101906107399190612c86565b612119565b60405161074f9594939291906130fb565b60405180910390f35b610760612179565b60405161076d9190613350565b60405180910390f35b610790600480360381019061078b9190612adc565b61217f565b005b61079a612329565b6040516107a791906131ba565b60405180910390f35b6107b861234f565b6040516107c5919061304a565b60405180910390f35b60146020528160005260406000206020528060005260406000206000915091509054906101000a900460ff1681565b601660009054906101000a900473ffffffffffffffffffffffffffffffffffffffff1673ffffffffffffffffffffffffffffffffffffffff163373ffffffffffffffffffffffffffffffffffffffff161461088d576040517f08c379a0000000000000000000000000000000000000000000000000000000008152600401610884906132b5565b60405180910390fd5b80601b83815481106108a2576108a16138a4565b5b9060005260206000209060060201600101819055507fd63106bdd6a3a4503e009de7bdcddc32ba7d9fc512c33d2bff1accb631d88a3082826040516108e89291906133b0565b60405180910390a15050565b6000600a54600c544261090791906135b7565b111561091e57610915612375565b60009050610a11565b6000600160009054906101000a900473ffffffffffffffffffffffffffffffffffffffff1673ffffffffffffffffffffffffffffffffffffffff166370a08231336040518263ffffffff1660e01b815260040161097b919061302f565b60206040518083038186803b15801561099357600080fd5b505afa1580156109a7573d6000803e3d6000fd5b505050506040513d601f19601f820116820180604052508101906109cb9190612cb3565b905082156109f15780600860008282546109e591906134d6565b92505081905550610a0b565b8060096000828254610a0391906134d6565b925050819055505b60019150505b919050565b601560009054906101000a900473ffffffffffffffffffffffffffffffffffffffff1681565b600a5481565b600a54600c5442610a5391906135b7565b11610a93576040517f08c379a0000000000000000000000000000000000000000000000000000000008152600401610a8a90613235565b60405180910390fd5b610a9b612375565b565b6013602052816000526040600020602052806000526040600020600091509150505481565b600460149054906101000a900460ff1681565b600160009054906101000a900473ffffffffffffffffffffffffffffffffffffffff1681565b600360009054906101000a900473ffffffffffffffffffffffffffffffffffffffff1681565b600260009054906101000a900473ffffffffffffffffffffffffffffffffffffffff1681565b60095481565b601660009054906101000a900473ffffffffffffffffffffffffffffffffffffffff1673ffffffffffffffffffffffffffffffffffffffff163373ffffffffffffffffffffffffffffffffffffffff16148015610bab575080518251145b610bb457600080fd5b600b5442610bc291906134d6565b601b8481548110610bd657610bd56138a4565b5b9060005260206000209060060201600301819055507fe35031d60f2f841b5b780ddd4c92c4ddea78f371eff5306b4edb3d14899b87c883604051610c1a9190613350565b60405180910390a1505050565b600c5481565b60085481565b6000600260009054906101000a900473ffffffffffffffffffffffffffffffffffffffff1673ffffffffffffffffffffffffffffffffffffffff166370a08231306040518263ffffffff1660e01b8152600401610c90919061302f565b60206040518083038186803b158015610ca857600080fd5b505afa158015610cbc573d6000803e3d6000fd5b505050506040513d601f19601f82011682018060405250810190610ce09190612cb3565b14610d20576040517f08c379a0000000000000000000000000000000000000000000000000000000008152600401610d1790613275565b60405180910390fd5b610d2a8282612492565b5050565b601660009054906101000a900473ffffffffffffffffffffffffffffffffffffffff1673ffffffffffffffffffffffffffffffffffffffff163373ffffffffffffffffffffffffffffffffffffffff161480610dd5575060008054906101000a900473ffffffffffffffffffffffffffffffffffffffff1673ffffffffffffffffffffffffffffffffffffffff163373ffffffffffffffffffffffffffffffffffffffff16145b610dde57600080fd5b6018819080600181540180825580915050600190039060005260206000200160009091909190916101000a81548173ffffffffffffffffffffffffffffffffffffffff021916908373ffffffffffffffffffffffffffffffffffffffff1602179055506001601060008373ffffffffffffffffffffffffffffffffffffffff1673ffffffffffffffffffffffffffffffffffffffff16815260200190815260200160002060006101000a81548160ff02191690831515021790555050565b60126020528060005260406000206000915054906101000a900461ffff1681565b60008054906101000a900473ffffffffffffffffffffffffffffffffffffffff1673ffffffffffffffffffffffffffffffffffffffff163373ffffffffffffffffffffffffffffffffffffffff161480610f645750601660009054906101000a900473ffffffffffffffffffffffffffffffffffffffff1673ffffffffffffffffffffffffffffffffffffffff163373ffffffffffffffffffffffffffffffffffffffff16145b610f6d57600080fd5b80601a8190555050565b600460009054906101000a900473ffffffffffffffffffffffffffffffffffffffff1673ffffffffffffffffffffffffffffffffffffffff16637b6e5f9c60016000600e546018805490506040518563ffffffff1660e01b8152600401610fe194939291906131f0565b602060405180830381600087803b158015610ffb57600080fd5b505af115801561100f573d6000803e3d6000fd5b505050506040513d601f19601f820116820180604052508101906110339190612cb3565b600560010181905550565b600160009054906101000a900473ffffffffffffffffffffffffffffffffffffffff1673ffffffffffffffffffffffffffffffffffffffff1663a9059cbb83836040518363ffffffff1660e01b815260040161109b9291906130b7565b602060405180830381600087803b1580156110b557600080fd5b505af11580156110c9573d6000803e3d6000fd5b505050506040513d601f19601f820116820180604052508101906110ed9190612c2c565b505050565b600e5481565b601060003373ffffffffffffffffffffffffffffffffffffffff1673ffffffffffffffffffffffffffffffffffffffff16815260200190815260200160002060009054906101000a900460ff1661114e57600080fd5b606080601b8381548110611165576111646138a4565b5b906000526020600020906006020160050190805190602001906111899291906127ef565b505050565b60008054906101000a900473ffffffffffffffffffffffffffffffffffffffff1681565b601660009054906101000a900473ffffffffffffffffffffffffffffffffffffffff1673ffffffffffffffffffffffffffffffffffffffff163373ffffffffffffffffffffffffffffffffffffffff161461120c57600080fd5b8060198190555050565b601660009054906101000a900473ffffffffffffffffffffffffffffffffffffffff1673ffffffffffffffffffffffffffffffffffffffff163373ffffffffffffffffffffffffffffffffffffffff16146112a6576040517f08c379a000000000000000000000000000000000000000000000000000000000815260040161129d906132f5565b60405180910390fd5b606080601b6040518060e00160405280600015158152602001600015158152602001600081526020018581526020016000815260200184815260200183815250908060018154018082558091505060019003906000526020600020906006020160009091909190915060008201518160000160006101000a81548160ff02191690831515021790555060208201518160000160016101000a81548160ff02191690831515021790555060408201518160010155606082015181600201556080820151816003015560a082015181600401908051906020019061138992919061283c565b5060c08201518160050190805190602001906113a69291906127ef565b505050505050565b60116020528160005260406000206020528060005260406000206000915091509054906101000a900460ff1681565b600d5481565b60058060000154908060010154908060020154905083565b601a5481565b601560009054906101000a900473ffffffffffffffffffffffffffffffffffffffff1673ffffffffffffffffffffffffffffffffffffffff163373ffffffffffffffffffffffffffffffffffffffff1614806114aa5750601660009054906101000a900473ffffffffffffffffffffffffffffffffffffffff1673ffffffffffffffffffffffffffffffffffffffff163373ffffffffffffffffffffffffffffffffffffffff16145b6114b357600080fd5b60005b815181101561152a576001601b8383815181106114d6576114d56138a4565b5b6020026020010151815481106114ef576114ee6138a4565b5b906000526020600020906006020160000160016101000a81548160ff0219169083151502179055508080611522906137ce565b9150506114b6565b506002600460146101000a81548160ff0219169083600581111561155157611550613875565b5b02179055507f695fbf2fe28b4fde5705122279ffc4160ebfc0f45e4d96f7e6699001be5062ef33604051611585919061302f565b60405180910390a150565b601b81815481106115a4576115a36138a4565b5b906000526020600020906006020160000160009054906101000a900460ff166115cc57600080fd5b601b81815481106115e0576115df6138a4565b5b90600052602060002090600602016003015442116115fd57600080fd5b60005b601b8281548110611614576116136138a4565b5b9060005260206000209060060201600401805490508110156118c457600260009054906101000a900473ffffffffffffffffffffffffffffffffffffffff1673ffffffffffffffffffffffffffffffffffffffff1663a9059cbb601b8481548110611682576116816138a4565b5b906000526020600020906006020160040183815481106116a5576116a46138a4565b5b9060005260206000200160009054906101000a900473ffffffffffffffffffffffffffffffffffffffff16601b85815481106116e4576116e36138a4565b5b90600052602060002090600602016005018481548110611707576117066138a4565b5b90600052602060002001546040518363ffffffff1660e01b815260040161172f92919061308e565b602060405180830381600087803b15801561174957600080fd5b505af115801561175d573d6000803e3d6000fd5b505050506040513d601f19601f820116820180604052508101906117819190612c2c565b5060008054906101000a900473ffffffffffffffffffffffffffffffffffffffff1673ffffffffffffffffffffffffffffffffffffffff1663bca0adcb601b84815481106117d2576117d16138a4565b5b906000526020600020906006020160040183815481106117f5576117f46138a4565b5b9060005260206000200160009054906101000a900473ffffffffffffffffffffffffffffffffffffffff16601b8581548110611834576118336138a4565b5b90600052602060002090600602016005018481548110611857576118566138a4565b5b90600052602060002001546040518363ffffffff1660e01b815260040161187f929190613065565b600060405180830381600087803b15801561189957600080fd5b505af11580156118ad573d6000803e3d6000fd5b5050505080806118bc906137ce565b915050611600565b5050565b60195481565b60001515601160003373ffffffffffffffffffffffffffffffffffffffff1673ffffffffffffffffffffffffffffffffffffffff16815260200190815260200160002060008373ffffffffffffffffffffffffffffffffffffffff1673ffffffffffffffffffffffffffffffffffffffff16815260200190815260200160002060009054906101000a900460ff1615151480156119b957508073ffffffffffffffffffffffffffffffffffffffff16601660009054906101000a900473ffffffffffffffffffffffffffffffffffffffff1673ffffffffffffffffffffffffffffffffffffffff1614155b6119c257600080fd5b6001601160003373ffffffffffffffffffffffffffffffffffffffff1673ffffffffffffffffffffffffffffffffffffffff16815260200190815260200160002060008373ffffffffffffffffffffffffffffffffffffffff1673ffffffffffffffffffffffffffffffffffffffff16815260200190815260200160002060006101000a81548160ff0219169083151502179055506001601260008373ffffffffffffffffffffffffffffffffffffffff1673ffffffffffffffffffffffffffffffffffffffff16815260200190815260200160002060008282829054906101000a900461ffff16611ab4919061349e565b92506101000a81548161ffff021916908361ffff1602179055506064600f54601880549050611ae3919061355d565b611aed919061352c565b601260008373ffffffffffffffffffffffffffffffffffffffff1673ffffffffffffffffffffffffffffffffffffffff16815260200190815260200160002060009054906101000a900461ffff1661ffff161115611b9e576000601060008373ffffffffffffffffffffffffffffffffffffffff1673ffffffffffffffffffffffffffffffffffffffff16815260200190815260200160002060006101000a81548160ff0219169083151502179055505b50565b601760009054906101000a900473ffffffffffffffffffffffffffffffffffffffff1673ffffffffffffffffffffffffffffffffffffffff163373ffffffffffffffffffffffffffffffffffffffff16148015611c31575060026005811115611c0d57611c0c613875565b5b600460149054906101000a900460ff166005811115611c2f57611c2e613875565b5b145b611c3a57600080fd5b8015611d2357601954600d8190555060005b601b80549050811015611d2157601b8181548110611c6d57611c6c6138a4565b5b906000526020600020906006020160000160019054906101000a900460ff1615611d0e576001601b8281548110611ca757611ca66138a4565b5b906000526020600020906006020160000160006101000a81548160ff0219169083151502179055506000601b8281548110611ce557611ce46138a4565b5b906000526020600020906006020160000160016101000a81548160ff0219169083151502179055505b8080611d19906137ce565b915050611c4c565b505b611dd6600260009054906101000a900473ffffffffffffffffffffffffffffffffffffffff1673ffffffffffffffffffffffffffffffffffffffff166370a08231306040518263ffffffff1660e01b8152600401611d81919061302f565b60206040518083038186803b158015611d9957600080fd5b505afa158015611dad573d6000803e3d6000fd5b505050506040513d601f19601f82011682018060405250810190611dd19190612cb3565b6125c6565b6001600460146101000a81548160ff02191690836005811115611dfc57611dfb613875565b5b021790555050565b601560009054906101000a900473ffffffffffffffffffffffffffffffffffffffff1673ffffffffffffffffffffffffffffffffffffffff163373ffffffffffffffffffffffffffffffffffffffff1614611e94576040517f08c379a0000000000000000000000000000000000000000000000000000000008152600401611e8b90613295565b60405180910390fd5b6001601b8281548110611eaa57611ea96138a4565b5b906000526020600020906006020160000160006101000a81548160ff0219169083151502179055507f939da3b627c123c81fe5aacebf925163337a0d4f8a03724640618078cad2489481601b8381548110611f0857611f076138a4565b5b906000526020600020906006020160010154604051611f289291906133b0565b60405180910390a1611f398161269b565b50565b565b600b5481565b601660009054906101000a900473ffffffffffffffffffffffffffffffffffffffff1681565b600080600460009054906101000a900473ffffffffffffffffffffffffffffffffffffffff1673ffffffffffffffffffffffffffffffffffffffff166308a1db856005600101546040518263ffffffff1660e01b8152600401611fcd9190613350565b604080518083038186803b158015611fe457600080fd5b505afa158015611ff8573d6000803e3d6000fd5b505050506040513d601f19601f8201168201806040525081019061201c9190612dd8565b9150915060028260ff1614612066576040517f08c379a000000000000000000000000000000000000000000000000000000000815260040161205d90613255565b60405180910390fd5b3373ffffffffffffffffffffffffffffffffffffffff168173ffffffffffffffffffffffffffffffffffffffff16146120d4576040517f08c379a00000000000000000000000000000000000000000000000000000000081526004016120cb90613315565b60405180910390fd5b33601660006101000a81548173ffffffffffffffffffffffffffffffffffffffff021916908373ffffffffffffffffffffffffffffffffffffffff1602179055505050565b601b818154811061212957600080fd5b90600052602060002090600602016000915090508060000160009054906101000a900460ff16908060000160019054906101000a900460ff16908060010154908060020154908060030154905085565b600f5481565b601660009054906101000a900473ffffffffffffffffffffffffffffffffffffffff1673ffffffffffffffffffffffffffffffffffffffff168173ffffffffffffffffffffffffffffffffffffffff1614156121da57600080fd5b600460009054906101000a900473ffffffffffffffffffffffffffffffffffffffff1673ffffffffffffffffffffffffffffffffffffffff1663901d40e7600560010154338460016040518563ffffffff1660e01b8152600401612241949392919061336b565b600060405180830381600087803b15801561225b57600080fd5b505af115801561226f573d6000803e3d6000fd5b50505050600460009054906101000a900473ffffffffffffffffffffffffffffffffffffffff1673ffffffffffffffffffffffffffffffffffffffff16635c622a0e6005600101546040518263ffffffff1660e01b81526004016122d39190613350565b602060405180830381600087803b1580156122ed57600080fd5b505af1158015612301573d6000803e3d6000fd5b505050506040513d601f19601f820116820180604052508101906123259190612dab565b5050565b600460009054906101000a900473ffffffffffffffffffffffffffffffffffffffff1681565b601760009054906101000a900473ffffffffffffffffffffffffffffffffffffffff1681565b60095460085411156123b1576003600460146101000a81548160ff021916908360058111156123a7576123a6613875565b5b0217905550612490565b6005600460146101000a81548160ff021916908360058111156123d7576123d6613875565b5b021790555061248f600260009054906101000a900473ffffffffffffffffffffffffffffffffffffffff1673ffffffffffffffffffffffffffffffffffffffff166370a08231306040518263ffffffff1660e01b815260040161243a919061302f565b60206040518083038186803b15801561245257600080fd5b505afa158015612466573d6000803e3d6000fd5b505050506040513d601f19601f8201168201806040525081019061248a9190612cb3565b6125c6565b5b565b60008054906101000a900473ffffffffffffffffffffffffffffffffffffffff1673ffffffffffffffffffffffffffffffffffffffff163373ffffffffffffffffffffffffffffffffffffffff1614806125395750601660009054906101000a900473ffffffffffffffffffffffffffffffffffffffff1673ffffffffffffffffffffffffffffffffffffffff163373ffffffffffffffffffffffffffffffffffffffff16145b612578576040517f08c379a000000000000000000000000000000000000000000000000000000000815260040161256f906132d5565b60405180910390fd5b81600260006101000a81548173ffffffffffffffffffffffffffffffffffffffff021916908373ffffffffffffffffffffffffffffffffffffffff1602179055506125c281610ebd565b5050565b600260009054906101000a900473ffffffffffffffffffffffffffffffffffffffff1673ffffffffffffffffffffffffffffffffffffffff1663a9059cbb601560009054906101000a900473ffffffffffffffffffffffffffffffffffffffff16836040518363ffffffff1660e01b815260040161264592919061308e565b602060405180830381600087803b15801561265f57600080fd5b505af1158015612673573d6000803e3d6000fd5b505050506040513d601f19601f820116820180604052508101906126979190612c2c565b5050565b601b81815481106126af576126ae6138a4565b5b906000526020600020906006020160000160009054906101000a900460ff166126d757600080fd5b60006127106103e8601b84815481106126f3576126f26138a4565b5b90600052602060002090600602016001015461270f919061355d565b612719919061352c565b9050600260009054906101000a900473ffffffffffffffffffffffffffffffffffffffff1673ffffffffffffffffffffffffffffffffffffffff1663a9059cbb60008054906101000a900473ffffffffffffffffffffffffffffffffffffffff16836040518363ffffffff1660e01b81526004016127989291906130b7565b602060405180830381600087803b1580156127b257600080fd5b505af11580156127c6573d6000803e3d6000fd5b505050506040513d601f19601f820116820180604052508101906127ea9190612c2c565b505050565b82805482825590600052602060002090810192821561282b579160200282015b8281111561282a57825182559160200191906001019061280f565b5b50905061283891906128c6565b5090565b8280548282559060005260206000209081019282156128b5579160200282015b828111156128b45782518260006101000a81548173ffffffffffffffffffffffffffffffffffffffff021916908373ffffffffffffffffffffffffffffffffffffffff1602179055509160200191906001019061285c565b5b5090506128c291906128c6565b5090565b5b808211156128df5760008160009055506001016128c7565b5090565b60006128f66128f184613435565b613410565b9050808382526020820190508285602086028201111561291957612918613907565b5b60005b85811015612949578161292f88826129c3565b84526020840193506020830192505060018101905061291c565b5050509392505050565b600061296661296184613461565b613410565b9050808382526020820190508285602086028201111561298957612988613907565b5b60005b858110156129b9578161299f8882612a9d565b84526020840193506020830192505060018101905061298c565b5050509392505050565b6000813590506129d281613b41565b92915050565b6000815190506129e781613b41565b92915050565b6000813590506129fc81613b58565b92915050565b600082601f830112612a1757612a16613902565b5b8135612a278482602086016128e3565b91505092915050565b600082601f830112612a4557612a44613902565b5b8135612a55848260208601612953565b91505092915050565b600081359050612a6d81613b6f565b92915050565b600081519050612a8281613b6f565b92915050565b600081359050612a9781613b86565b92915050565b600081359050612aac81613b9d565b92915050565b600081519050612ac181613b9d565b92915050565b600081519050612ad681613bb4565b92915050565b600060208284031215612af257612af1613911565b5b6000612b00848285016129c3565b91505092915050565b600060208284031215612b1f57612b1e613911565b5b6000612b2d848285016129ed565b91505092915050565b60008060408385031215612b4d57612b4c613911565b5b6000612b5b858286016129c3565b9250506020612b6c858286016129c3565b9150509250929050565b60008060408385031215612b8d57612b8c613911565b5b6000612b9b858286016129c3565b9250506020612bac85828601612a9d565b9150509250929050565b600060208284031215612bcc57612bcb613911565b5b600082013567ffffffffffffffff811115612bea57612be961390c565b5b612bf684828501612a30565b91505092915050565b600060208284031215612c1557612c14613911565b5b6000612c2384828501612a5e565b91505092915050565b600060208284031215612c4257612c41613911565b5b6000612c5084828501612a73565b91505092915050565b600060208284031215612c6f57612c6e613911565b5b6000612c7d84828501612a88565b91505092915050565b600060208284031215612c9c57612c9b613911565b5b6000612caa84828501612a9d565b91505092915050565b600060208284031215612cc957612cc8613911565b5b6000612cd784828501612ab2565b91505092915050565b600080600060608486031215612cf957612cf8613911565b5b6000612d0786828701612a9d565b935050602084013567ffffffffffffffff811115612d2857612d2761390c565b5b612d3486828701612a02565b925050604084013567ffffffffffffffff811115612d5557612d5461390c565b5b612d6186828701612a30565b9150509250925092565b60008060408385031215612d8257612d81613911565b5b6000612d9085828601612a9d565b9250506020612da185828601612a9d565b9150509250929050565b600060208284031215612dc157612dc0613911565b5b6000612dcf84828501612ac7565b91505092915050565b60008060408385031215612def57612dee613911565b5b6000612dfd85828601612ac7565b9250506020612e0e858286016129d8565b9150509250929050565b612e21816136c5565b82525050565b612e30816135fd565b82525050565b612e3f816135eb565b82525050565b612e4e8161360f565b82525050565b612e5d8161361b565b82525050565b612e6c816136d7565b82525050565b612e7b816136e9565b82525050565b612e8a816136fb565b82525050565b612e998161370d565b82525050565b612ea88161371f565b82525050565b612eb781613731565b82525050565b612ec681613743565b82525050565b612ed581613755565b82525050565b612ee481613767565b82525050565b6000612ef760178361348d565b9150612f0282613927565b602082019050919050565b6000612f1a60158361348d565b9150612f2582613950565b602082019050919050565b6000612f3d60358361348d565b9150612f4882613979565b604082019050919050565b6000612f6060278361348d565b9150612f6b826139c8565b604082019050919050565b6000612f8360368361348d565b9150612f8e82613a17565b604082019050919050565b6000612fa660188361348d565b9150612fb182613a66565b602082019050919050565b6000612fc960298361348d565b9150612fd482613a8f565b604082019050919050565b6000612fec60278361348d565b9150612ff782613ade565b604082019050919050565b61300b81613638565b82525050565b61301a8161366f565b82525050565b6130298161369d565b82525050565b60006020820190506130446000830184612e36565b92915050565b600060208201905061305f6000830184612e27565b92915050565b600060408201905061307a6000830185612e27565b6130876020830184613020565b9392505050565b60006040820190506130a36000830185612e18565b6130b06020830184613020565b9392505050565b60006040820190506130cc6000830185612e36565b6130d96020830184613020565b9392505050565b60006020820190506130f56000830184612e45565b92915050565b600060a0820190506131106000830188612e45565b61311d6020830187612e45565b61312a6040830186613020565b6131376060830185612e54565b6131446080830184613020565b9695505050505050565b60006020820190506131636000830184612e63565b92915050565b600060208201905061317e6000830184612e72565b92915050565b60006020820190506131996000830184612e81565b92915050565b60006020820190506131b46000830184612e90565b92915050565b60006020820190506131cf6000830184612e9f565b92915050565b60006020820190506131ea6000830184612eae565b92915050565b60006080820190506132056000830187612edb565b6132126020830186612ebd565b61321f6040830185613002565b61322c6060830184613002565b95945050505050565b6000602082019050818103600083015261324e81612eea565b9050919050565b6000602082019050818103600083015261326e81612f0d565b9050919050565b6000602082019050818103600083015261328e81612f30565b9050919050565b600060208201905081810360008301526132ae81612f53565b9050919050565b600060208201905081810360008301526132ce81612f76565b9050919050565b600060208201905081810360008301526132ee81612f99565b9050919050565b6000602082019050818103600083015261330e81612fbc565b9050919050565b6000602082019050818103600083015261332e81612fdf565b9050919050565b600060208201905061334a6000830184613011565b92915050565b60006020820190506133656000830184613020565b92915050565b60006080820190506133806000830187613020565b61338d6020830186612e36565b61339a6040830185612e36565b6133a76060830184612ecc565b95945050505050565b60006040820190506133c56000830185613020565b6133d26020830184613020565b9392505050565b60006060820190506133ee6000830186613020565b6133fb6020830185613020565b6134086040830184613020565b949350505050565b600061341a61342b565b9050613426828261379d565b919050565b6000604051905090565b600067ffffffffffffffff8211156134505761344f6138d3565b5b602082029050602081019050919050565b600067ffffffffffffffff82111561347c5761347b6138d3565b5b602082029050602081019050919050565b600082825260208201905092915050565b60006134a98261366f565b91506134b48361366f565b92508261ffff038211156134cb576134ca613817565b5b828201905092915050565b60006134e18261369d565b91506134ec8361369d565b9250827fffffffffffffffffffffffffffffffffffffffffffffffffffffffffffffffff0382111561352157613520613817565b5b828201905092915050565b60006135378261369d565b91506135428361369d565b92508261355257613551613846565b5b828204905092915050565b60006135688261369d565b91506135738361369d565b9250817fffffffffffffffffffffffffffffffffffffffffffffffffffffffffffffffff04831182151516156135ac576135ab613817565b5b828202905092915050565b60006135c28261369d565b91506135cd8361369d565b9250828210156135e0576135df613817565b5b828203905092915050565b60006135f68261367d565b9050919050565b60006136088261367d565b9050919050565b60008115159050919050565b6000819050919050565b600081905061363382613b2d565b919050565b60006effffffffffffffffffffffffffffff82169050919050565b60006fffffffffffffffffffffffffffffffff82169050919050565b600061ffff82169050919050565b600073ffffffffffffffffffffffffffffffffffffffff82169050919050565b6000819050919050565b600064ffffffffff82169050919050565b600060ff82169050919050565b60006136d082613779565b9050919050565b60006136e282613779565b9050919050565b60006136f482613779565b9050919050565b600061370682613779565b9050919050565b600061371882613779565b9050919050565b600061372a82613779565b9050919050565b600061373c82613625565b9050919050565b600061374e826136a7565b9050919050565b600061376082613653565b9050919050565b6000613772826136b8565b9050919050565b60006137848261378b565b9050919050565b60006137968261367d565b9050919050565b6137a682613916565b810181811067ffffffffffffffff821117156137c5576137c46138d3565b5b80604052505050565b60006137d98261369d565b91507fffffffffffffffffffffffffffffffffffffffffffffffffffffffffffffffff82141561380c5761380b613817565b5b600182019050919050565b7f4e487b7100000000000000000000000000000000000000000000000000000000600052601160045260246000fd5b7f4e487b7100000000000000000000000000000000000000000000000000000000600052601260045260246000fd5b7f4e487b7100000000000000000000000000000000000000000000000000000000600052602160045260246000fd5b7f4e487b7100000000000000000000000000000000000000000000000000000000600052603260045260246000fd5b7f4e487b7100000000000000000000000000000000000000000000000000000000600052604160045260246000fd5b600080fd5b600080fd5b600080fd5b600080fd5b6000601f19601f8301169050919050565b7f566f74696e67206973207374696c6c206f6e676f696e67000000000000000000600082015250565b7f566f74696e6720686173206e6f74207061737365640000000000000000000000600082015250565b7f50726576696f757320546f6b656e206e6565647320746f206265206465706c6560008201527f746564206265666f726520746865206368616e67650000000000000000000000602082015250565b7f4f6e6c792074686520636c69656e742063616e20617070726f76652061206d6960008201527f6c6573746f6e6500000000000000000000000000000000000000000000000000602082015250565b7f4f6e6c792074686520736f757263696e67206c6561642063616e20726571756560008201527f7374207061796d656e742066726f6d20636c69656e7400000000000000000000602082015250565b7f736f75726365206f7220736f757263696e67204c656164210000000000000000600082015250565b7f4f6e6c792074686520736f757263696e67206c6561642063616e20616464206d60008201527f696c6573746f6e65730000000000000000000000000000000000000000000000602082015250565b7f4f6e6c7920656c65637465642050726f6a656374204d616e616765722063616e60008201527f20636c61696d2100000000000000000000000000000000000000000000000000602082015250565b60068110613b3e57613b3d613875565b5b50565b613b4a816135eb565b8114613b5557600080fd5b50565b613b61816135fd565b8114613b6c57600080fd5b50565b613b788161360f565b8114613b8357600080fd5b50565b613b8f8161361b565b8114613b9a57600080fd5b50565b613ba68161369d565b8114613bb157600080fd5b50565b613bbd816136b8565b8114613bc857600080fd5b5056fea2646970667358221220dd2d366028dd0c23c0a319a377771d46c78ddd3b4e0a51b773df6d71903dea3864736f6c6343000807003360806040523480156200001157600080fd5b506040516200218b3803806200218b833981810160405281019062000037919062000316565b8160098190555080600c8190555060008060006101000a81548160ff021916908360048111156200006d576200006c6200041b565b5b021790555086600d60006101000a81548173ffffffffffffffffffffffffffffffffffffffff021916908373ffffffffffffffffffffffffffffffffffffffff160217905550600a600d60009054906101000a900473ffffffffffffffffffffffffffffffffffffffff169080600181540180825580915050600190039060005260206000200160009091909190916101000a81548173ffffffffffffffffffffffffffffffffffffffff021916908373ffffffffffffffffffffffffffffffffffffffff1602179055506001600b6000600d60009054906101000a900473ffffffffffffffffffffffffffffffffffffffff1673ffffffffffffffffffffffffffffffffffffffff1673ffffffffffffffffffffffffffffffffffffffff16815260200190815260200160002060006101000a81548160ff02191690831515021790555033600260006101000a81548173ffffffffffffffffffffffffffffffffffffffff021916908373ffffffffffffffffffffffffffffffffffffffff16021790555085600160006101000a81548173ffffffffffffffffffffffffffffffffffffffff021916908373ffffffffffffffffffffffffffffffffffffffff16021790555084600360006101000a81548173ffffffffffffffffffffffffffffffffffffffff021916908373ffffffffffffffffffffffffffffffffffffffff160217905550426004819055508260058190555083600060026101000a81548173ffffffffffffffffffffffffffffffffffffffff021916908373ffffffffffffffffffffffffffffffffffffffff160217905550505050505050506200049d565b600081519050620002e2816200044f565b92915050565b600081519050620002f98162000469565b92915050565b600081519050620003108162000483565b92915050565b600080600080600080600060e0888a0312156200033857620003376200044a565b5b6000620003488a828b01620002e8565b97505060206200035b8a828b01620002d1565b96505060406200036e8a828b01620002d1565b9550506060620003818a828b01620002d1565b9450506080620003948a828b01620002ff565b93505060a0620003a78a828b01620002ff565b92505060c0620003ba8a828b01620002ff565b91505092959891949750929550565b6000620003d682620003f1565b9050919050565b6000620003ea82620003f1565b9050919050565b600073ffffffffffffffffffffffffffffffffffffffff82169050919050565b6000819050919050565b7f4e487b7100000000000000000000000000000000000000000000000000000000600052602160045260246000fd5b600080fd5b6200045a81620003c9565b81146200046657600080fd5b50565b6200047481620003dd565b81146200048057600080fd5b50565b6200048e8162000411565b81146200049a57600080fd5b50565b611cde80620004ad6000396000f3fe608060405234801561001057600080fd5b506004361061014d5760003560e01c806339d5d126116100c3578063a3e5c7db1161007c578063a3e5c7db14610348578063c2fc0d2614610378578063c89f2ce414610396578063e4777968146103b4578063f4f0b4a8146103d0578063fce1ccca146103ee5761014d565b806339d5d126146102865780633ccfd60b146102a457806345f0a44f146102ae57806363037b0c146102de57806367e828bf1461030e5780637a43bfbc1461032c5761014d565b80631cc1cf46116101155780631cc1cf46146101d2578063200d2ed2146101f057806329034a5c1461020e5780633013ce291461022c578063359d393d1461024a57806339518b5e146102685761014d565b80630dff5008146101525780630e7d490d14610182578063132002fc146101a057806318ad3c92146101be5780631b9265b8146101c8575b600080fd5b61016c600480360381019061016791906113b9565b61040c565b60405161017991906115f3565b60405180910390f35b61018a6106c3565b604051610197919061170b565b60405180910390f35b6101a86106c9565b6040516101b5919061170b565b60405180910390f35b6101c66106cf565b005b6101d06108a4565b005b6101da610a83565b6040516101e7919061170b565b60405180910390f35b6101f8610a89565b604051610205919061167a565b60405180910390f35b610216610a9a565b6040516102239190611629565b60405180910390f35b610234610ac0565b604051610241919061160e565b60405180910390f35b610252610ae6565b60405161025f919061170b565b60405180910390f35b610270610aec565b60405161027d919061170b565b60405180910390f35b61028e610af2565b60405161029b919061170b565b60405180910390f35b6102ac610af8565b005b6102c860048036038101906102c39190611413565b610b54565b6040516102d5919061170b565b60405180910390f35b6102f860048036038101906102f39190611413565b610b78565b60405161030591906115af565b60405180910390f35b610316610bb7565b6040516103239190611644565b60405180910390f35b6103466004803603810190610341919061146d565b610bdd565b005b610362600480360381019061035d9190611314565b610c5c565b60405161036f91906116b0565b60405180910390f35b610380610c7c565b60405161038d9190611695565b60405180910390f35b61039e610c8f565b6040516103ab919061170b565b60405180910390f35b6103ce60048036038101906103c99190611341565b610c95565b005b6103d8610eba565b6040516103e591906115af565b60405180910390f35b6103f6610ee0565b604051610403919061165f565b60405180910390f35b600080600554600454426104209190611895565b11905060006002600160009054906101000a900473ffffffffffffffffffffffffffffffffffffffff1673ffffffffffffffffffffffffffffffffffffffff166318160ddd6040518163ffffffff1660e01b815260040160206040518083038186803b15801561048f57600080fd5b505afa1580156104a3573d6000803e3d6000fd5b505050506040513d601f19601f820116820180604052508101906104c79190611440565b6104d1919061180a565b600654118061058c57506002600160009054906101000a900473ffffffffffffffffffffffffffffffffffffffff1673ffffffffffffffffffffffffffffffffffffffff166318160ddd6040518163ffffffff1660e01b815260040160206040518083038186803b15801561054557600080fd5b505afa158015610559573d6000803e3d6000fd5b505050506040513d601f19601f8201168201806040525081019061057d9190611440565b610587919061180a565b600754115b905081806105975750805b156105af576105a4610f06565b6000925050506106be565b6000600160009054906101000a900473ffffffffffffffffffffffffffffffffffffffff1673ffffffffffffffffffffffffffffffffffffffff166370a08231336040518263ffffffff1660e01b815260040161060c9190611594565b60206040518083038186803b15801561062457600080fd5b505afa158015610638573d6000803e3d6000fd5b505050506040513d601f19601f8201168201806040525081019061065c9190611440565b9050841561068257806006600082825461067691906117b4565b9250508190555061069c565b806007600082825461069491906117b4565b925050819055505b6001600860008282546106af91906117b4565b92505081905550600193505050505b919050565b60085481565b60055481565b6000600554600454426106e29190611895565b11905060006002600160009054906101000a900473ffffffffffffffffffffffffffffffffffffffff1673ffffffffffffffffffffffffffffffffffffffff166318160ddd6040518163ffffffff1660e01b815260040160206040518083038186803b15801561075157600080fd5b505afa158015610765573d6000803e3d6000fd5b505050506040513d601f19601f820116820180604052508101906107899190611440565b610793919061180a565b600654118061084e57506002600160009054906101000a900473ffffffffffffffffffffffffffffffffffffffff1673ffffffffffffffffffffffffffffffffffffffff166318160ddd6040518163ffffffff1660e01b815260040160206040518083038186803b15801561080757600080fd5b505afa15801561081b573d6000803e3d6000fd5b505050506040513d601f19601f8201168201806040525081019061083f9190611440565b610849919061180a565b600754115b905081806108595750805b610898576040517f08c379a000000000000000000000000000000000000000000000000000000000815260040161088f906116cb565b60405180910390fd5b6108a0610f06565b5050565b600260009054906101000a900473ffffffffffffffffffffffffffffffffffffffff1673ffffffffffffffffffffffffffffffffffffffff163373ffffffffffffffffffffffffffffffffffffffff16146108fe57600080fd5b60005b600e80549050811015610a6457600360009054906101000a900473ffffffffffffffffffffffffffffffffffffffff1673ffffffffffffffffffffffffffffffffffffffff1663a9059cbb600e83815481106109605761095f611b24565b5b9060005260206000200160009054906101000a900473ffffffffffffffffffffffffffffffffffffffff16600f848154811061099f5761099e611b24565b5b90600052602060002001546040518363ffffffff1660e01b81526004016109c79291906115ca565b602060405180830381600087803b1580156109e157600080fd5b505af11580156109f5573d6000803e3d6000fd5b505050506040513d601f19601f82011682018060405250810190610a1991906113e6565b50600f8181548110610a2e57610a2d611b24565b5b9060005260206000200154600c6000828254610a4a9190611895565b925050819055508080610a5c90611a4e565b915050610901565b50600e6000610a73919061100f565b600f6000610a819190611030565b565b60095481565b60008054906101000a900460ff1681565b600160009054906101000a900473ffffffffffffffffffffffffffffffffffffffff1681565b600360009054906101000a900473ffffffffffffffffffffffffffffffffffffffff1681565b60075481565b60045481565b60065481565b600260009054906101000a900473ffffffffffffffffffffffffffffffffffffffff1673ffffffffffffffffffffffffffffffffffffffff163373ffffffffffffffffffffffffffffffffffffffff1614610b5257600080fd5b565b600f8181548110610b6457600080fd5b906000526020600020016000915090505481565b600e8181548110610b8857600080fd5b906000526020600020016000915054906101000a900473ffffffffffffffffffffffffffffffffffffffff1681565b600260009054906101000a900473ffffffffffffffffffffffffffffffffffffffff1681565b8060ff166002811115610bf357610bf2611af5565b5b601060003373ffffffffffffffffffffffffffffffffffffffff1673ffffffffffffffffffffffffffffffffffffffff16815260200190815260200160002060006101000a81548160ff02191690836002811115610c5457610c53611af5565b5b021790555050565b60106020528060005260406000206000915054906101000a900460ff1681565b600060019054906101000a900460ff1681565b600c5481565b600d60009054906101000a900473ffffffffffffffffffffffffffffffffffffffff1673ffffffffffffffffffffffffffffffffffffffff163373ffffffffffffffffffffffffffffffffffffffff16148015610cf3575080518251145b610cfc57600080fd5b60046003600954610d0d919061183b565b610d17919061180a565b600260009054906101000a900473ffffffffffffffffffffffffffffffffffffffff1673ffffffffffffffffffffffffffffffffffffffff16631c0701df6040518163ffffffff1660e01b8152600401602060405180830381600087803b158015610d8157600080fd5b505af1158015610d95573d6000803e3d6000fd5b505050506040513d601f19601f82011682018060405250810190610db99190611440565b42610dc49190611895565b10610dce57600080fd5b6000805b8351811015610e1657828181518110610dee57610ded611b24565b5b602002602001015182610e0191906117b4565b91508080610e0e90611a4e565b915050610dd2565b50600c548110610e5b576040517f08c379a0000000000000000000000000000000000000000000000000000000008152600401610e52906116eb565b60405180910390fd5b82600e9080519060200190610e71929190611051565b5081600f9080519060200190610e889291906110db565b507f3c3310c1ef683c833d748aaef5ca6ac91aadd9b4bf0561667faf9261a4f593d760405160405180910390a1505050565b600d60009054906101000a900473ffffffffffffffffffffffffffffffffffffffff1681565b600060029054906101000a900473ffffffffffffffffffffffffffffffffffffffff1681565b60075460065411610f18576004610f1b565b60015b6000806101000a81548160ff02191690836004811115610f3e57610f3d611af5565b5b021790555060016004811115610f5757610f56611af5565b5b60008054906101000a900460ff166004811115610f7757610f76611af5565b5b141561100d57600260009054906101000a900473ffffffffffffffffffffffffffffffffffffffff1673ffffffffffffffffffffffffffffffffffffffff166312514bba600c546040518263ffffffff1660e01b8152600401610fda919061170b565b600060405180830381600087803b158015610ff457600080fd5b505af1158015611008573d6000803e3d6000fd5b505050505b565b508054600082559060005260206000209081019061102d9190611128565b50565b508054600082559060005260206000209081019061104e9190611128565b50565b8280548282559060005260206000209081019282156110ca579160200282015b828111156110c95782518260006101000a81548173ffffffffffffffffffffffffffffffffffffffff021916908373ffffffffffffffffffffffffffffffffffffffff16021790555091602001919060010190611071565b5b5090506110d79190611128565b5090565b828054828255906000526020600020908101928215611117579160200282015b828111156111165782518255916020019190600101906110fb565b5b5090506111249190611128565b5090565b5b80821115611141576000816000905550600101611129565b5090565b60006111586111538461174b565b611726565b9050808382526020820190508285602086028201111561117b5761117a611b87565b5b60005b858110156111ab5781611191888261123a565b84526020840193506020830192505060018101905061117e565b5050509392505050565b60006111c86111c384611777565b611726565b905080838252602082019050828560208602820111156111eb576111ea611b87565b5b60005b8581101561121b578161120188826112d5565b8452602084019350602083019250506001810190506111ee565b5050509392505050565b60008135905061123481611c35565b92915050565b60008135905061124981611c4c565b92915050565b600082601f83011261126457611263611b82565b5b8135611274848260208601611145565b91505092915050565b600082601f83011261129257611291611b82565b5b81356112a28482602086016111b5565b91505092915050565b6000813590506112ba81611c63565b92915050565b6000815190506112cf81611c63565b92915050565b6000813590506112e481611c7a565b92915050565b6000815190506112f981611c7a565b92915050565b60008135905061130e81611c91565b92915050565b60006020828403121561132a57611329611b91565b5b600061133884828501611225565b91505092915050565b6000806040838503121561135857611357611b91565b5b600083013567ffffffffffffffff81111561137657611375611b8c565b5b6113828582860161124f565b925050602083013567ffffffffffffffff8111156113a3576113a2611b8c565b5b6113af8582860161127d565b9150509250929050565b6000602082840312156113cf576113ce611b91565b5b60006113dd848285016112ab565b91505092915050565b6000602082840312156113fc576113fb611b91565b5b600061140a848285016112c0565b91505092915050565b60006020828403121561142957611428611b91565b5b6000611437848285016112d5565b91505092915050565b60006020828403121561145657611455611b91565b5b6000611464848285016112ea565b91505092915050565b60006020828403121561148357611482611b91565b5b6000611491848285016112ff565b91505092915050565b6114a381611969565b82525050565b6114b2816118db565b82525050565b6114c1816118c9565b82525050565b6114d0816118ed565b82525050565b6114df8161197b565b82525050565b6114ee8161198d565b82525050565b6114fd8161199f565b82525050565b61150c816119b1565b82525050565b61151b816119c3565b82525050565b61152a816119d5565b82525050565b611539816119e7565b82525050565b600061154c6017836117a3565b915061155782611ba7565b602082019050919050565b600061156f601c836117a3565b915061157a82611bd0565b602082019050919050565b61158e81611952565b82525050565b60006020820190506115a960008301846114b8565b92915050565b60006020820190506115c460008301846114a9565b92915050565b60006040820190506115df600083018561149a565b6115ec6020830184611585565b9392505050565b600060208201905061160860008301846114c7565b92915050565b600060208201905061162360008301846114d6565b92915050565b600060208201905061163e60008301846114e5565b92915050565b600060208201905061165960008301846114f4565b92915050565b60006020820190506116746000830184611503565b92915050565b600060208201905061168f6000830184611512565b92915050565b60006020820190506116aa6000830184611521565b92915050565b60006020820190506116c56000830184611530565b92915050565b600060208201905081810360008301526116e48161153f565b9050919050565b6000602082019050818103600083015261170481611562565b9050919050565b60006020820190506117206000830184611585565b92915050565b6000611730611741565b905061173c8282611a1d565b919050565b6000604051905090565b600067ffffffffffffffff82111561176657611765611b53565b5b602082029050602081019050919050565b600067ffffffffffffffff82111561179257611791611b53565b5b602082029050602081019050919050565b600082825260208201905092915050565b60006117bf82611952565b91506117ca83611952565b9250827fffffffffffffffffffffffffffffffffffffffffffffffffffffffffffffffff038211156117ff576117fe611a97565b5b828201905092915050565b600061181582611952565b915061182083611952565b9250826118305761182f611ac6565b5b828204905092915050565b600061184682611952565b915061185183611952565b9250817fffffffffffffffffffffffffffffffffffffffffffffffffffffffffffffffff048311821515161561188a57611889611a97565b5b828202905092915050565b60006118a082611952565b91506118ab83611952565b9250828210156118be576118bd611a97565b5b828203905092915050565b60006118d482611932565b9050919050565b60006118e682611932565b9050919050565b60008115159050919050565b600081905061190782611bf9565b919050565b600081905061191a82611c0d565b919050565b600081905061192d82611c21565b919050565b600073ffffffffffffffffffffffffffffffffffffffff82169050919050565b6000819050919050565b600060ff82169050919050565b6000611974826119f9565b9050919050565b6000611986826119f9565b9050919050565b6000611998826119f9565b9050919050565b60006119aa826119f9565b9050919050565b60006119bc826119f9565b9050919050565b60006119ce826118f9565b9050919050565b60006119e08261190c565b9050919050565b60006119f28261191f565b9050919050565b6000611a0482611a0b565b9050919050565b6000611a1682611932565b9050919050565b611a2682611b96565b810181811067ffffffffffffffff82111715611a4557611a44611b53565b5b80604052505050565b6000611a5982611952565b91507fffffffffffffffffffffffffffffffffffffffffffffffffffffffffffffffff821415611a8c57611a8b611a97565b5b600182019050919050565b7f4e487b7100000000000000000000000000000000000000000000000000000000600052601160045260246000fd5b7f4e487b7100000000000000000000000000000000000000000000000000000000600052601260045260246000fd5b7f4e487b7100000000000000000000000000000000000000000000000000000000600052602160045260246000fd5b7f4e487b7100000000000000000000000000000000000000000000000000000000600052603260045260246000fd5b7f4e487b7100000000000000000000000000000000000000000000000000000000600052604160045260246000fd5b600080fd5b600080fd5b600080fd5b600080fd5b6000601f19601f8301169050919050565b7f566f74696e67206973207374696c6c206f6e676f696e67000000000000000000600082015250565b7f4e6f7420656e6f7567682066756e647320696e20636f6e747261637400000000600082015250565b60058110611c0a57611c09611af5565b5b50565b60028110611c1e57611c1d611af5565b5b50565b60038110611c3257611c31611af5565b5b50565b611c3e816118c9565b8114611c4957600080fd5b50565b611c55816118db565b8114611c6057600080fd5b50565b611c6c816118ed565b8114611c7757600080fd5b50565b611c8381611952565b8114611c8e57600080fd5b50565b611c9a8161195c565b8114611ca557600080fd5b5056fea2646970667358221220e4548b483f665b7a7f44230a2b64df560d93b3c0eaf47b6be1769cf03c4281ae64736f6c63430008070033a2646970667358221220ba6cf912226cf37938f0d12c6b860323182c004862e38986719e8f1aed5db8a264736f6c6343000807003360806040523480156200001157600080fd5b5060405162001afc38038062001afc8339818101604052810190620000379190620001e4565b8181816003908051906020019062000051929190620000b6565b5080600490805190602001906200006a929190620000b6565b50505033600560006101000a81548173ffffffffffffffffffffffffffffffffffffffff021916908373ffffffffffffffffffffffffffffffffffffffff1602179055505050620003ed565b828054620000c490620002fe565b90600052602060002090601f016020900481019282620000e8576000855562000134565b82601f106200010357805160ff191683800117855562000134565b8280016001018555821562000134579182015b828111156200013357825182559160200191906001019062000116565b5b50905062000143919062000147565b5090565b5b808211156200016257600081600090555060010162000148565b5090565b60006200017d620001778462000292565b62000269565b9050828152602081018484840111156200019c576200019b620003cd565b5b620001a9848285620002c8565b509392505050565b600082601f830112620001c957620001c8620003c8565b5b8151620001db84826020860162000166565b91505092915050565b60008060408385031215620001fe57620001fd620003d7565b5b600083015167ffffffffffffffff8111156200021f576200021e620003d2565b5b6200022d85828601620001b1565b925050602083015167ffffffffffffffff811115620002515762000250620003d2565b5b6200025f85828601620001b1565b9150509250929050565b60006200027562000288565b905062000283828262000334565b919050565b6000604051905090565b600067ffffffffffffffff821115620002b057620002af62000399565b5b620002bb82620003dc565b9050602081019050919050565b60005b83811015620002e8578082015181840152602081019050620002cb565b83811115620002f8576000848401525b50505050565b600060028204905060018216806200031757607f821691505b602082108114156200032e576200032d6200036a565b5b50919050565b6200033f82620003dc565b810181811067ffffffffffffffff8211171562000361576200036062000399565b5b80604052505050565b7f4e487b7100000000000000000000000000000000000000000000000000000000600052602260045260246000fd5b7f4e487b7100000000000000000000000000000000000000000000000000000000600052604160045260246000fd5b600080fd5b600080fd5b600080fd5b600080fd5b6000601f19601f8301169050919050565b6116ff80620003fd6000396000f3fe608060405234801561001057600080fd5b50600436106100ea5760003560e01c806340c10f191161008c57806395d89b411161006657806395d89b411461025f578063a457c2d71461027d578063a9059cbb146102ad578063dd62ed3e146102dd576100ea565b806340c10f19146101f557806367e828bf1461021157806370a082311461022f576100ea565b806320e56dbd116100c857806320e56dbd1461015b57806323b872dd14610177578063313ce567146101a757806339509351146101c5576100ea565b806306fdde03146100ef578063095ea7b31461010d57806318160ddd1461013d575b600080fd5b6100f761030d565b6040516101049190611151565b60405180910390f35b61012760048036038101906101229190610f21565b61039f565b6040516101349190611136565b60405180910390f35b6101456103bd565b6040516101529190611273565b60405180910390f35b61017560048036038101906101709190610f61565b6103c7565b005b610191600480360381019061018c9190610ece565b6103d4565b60405161019e9190611136565b60405180910390f35b6101af6104cc565b6040516101bc919061128e565b60405180910390f35b6101df60048036038101906101da9190610f21565b6104d5565b6040516101ec9190611136565b60405180910390f35b61020f600480360381019061020a9190610f21565b610581565b005b6102196105e9565b604051610226919061111b565b60405180910390f35b61024960048036038101906102449190610e61565b61060f565b6040516102569190611273565b60405180910390f35b610267610657565b6040516102749190611151565b60405180910390f35b61029760048036038101906102929190610f21565b6106e9565b6040516102a49190611136565b60405180910390f35b6102c760048036038101906102c29190610f21565b6107d4565b6040516102d49190611136565b60405180910390f35b6102f760048036038101906102f29190610e8e565b6107f2565b6040516103049190611273565b60405180910390f35b60606003805461031c906113a3565b80601f0160208091040260200160405190810160405280929190818152602001828054610348906113a3565b80156103955780601f1061036a57610100808354040283529160200191610395565b820191906000526020600020905b81548152906001019060200180831161037857829003601f168201915b5050505050905090565b60006103b36103ac610879565b8484610881565b6001905092915050565b6000600254905090565b6103d13382610a4c565b50565b60006103e1848484610bac565b6000600160008673ffffffffffffffffffffffffffffffffffffffff1673ffffffffffffffffffffffffffffffffffffffff168152602001908152602001600020600061042c610879565b73ffffffffffffffffffffffffffffffffffffffff1673ffffffffffffffffffffffffffffffffffffffff168152602001908152602001600020549050828110156104ac576040517f08c379a00000000000000000000000000000000000000000000000000000000081526004016104a3906111d3565b60405180910390fd5b6104c0856104b8610879565b858403610881565b60019150509392505050565b60006012905090565b60006105776104e2610879565b8484600160006104f0610879565b73ffffffffffffffffffffffffffffffffffffffff1673ffffffffffffffffffffffffffffffffffffffff16815260200190815260200160002060008873ffffffffffffffffffffffffffffffffffffffff1673ffffffffffffffffffffffffffffffffffffffff1681526020019081526020016000205461057291906112c5565b610881565b6001905092915050565b600560009054906101000a900473ffffffffffffffffffffffffffffffffffffffff1673ffffffffffffffffffffffffffffffffffffffff163373ffffffffffffffffffffffffffffffffffffffff16146105db57600080fd5b6105e58282610a4c565b5050565b600560009054906101000a900473ffffffffffffffffffffffffffffffffffffffff1681565b60008060008373ffffffffffffffffffffffffffffffffffffffff1673ffffffffffffffffffffffffffffffffffffffff168152602001908152602001600020549050919050565b606060048054610666906113a3565b80601f0160208091040260200160405190810160405280929190818152602001828054610692906113a3565b80156106df5780601f106106b4576101008083540402835291602001916106df565b820191906000526020600020905b8154815290600101906020018083116106c257829003601f168201915b5050505050905090565b600080600160006106f8610879565b73ffffffffffffffffffffffffffffffffffffffff1673ffffffffffffffffffffffffffffffffffffffff16815260200190815260200160002060008573ffffffffffffffffffffffffffffffffffffffff1673ffffffffffffffffffffffffffffffffffffffff168152602001908152602001600020549050828110156107b5576040517f08c379a00000000000000000000000000000000000000000000000000000000081526004016107ac90611233565b60405180910390fd5b6107c96107c0610879565b85858403610881565b600191505092915050565b60006107e86107e1610879565b8484610bac565b6001905092915050565b6000600160008473ffffffffffffffffffffffffffffffffffffffff1673ffffffffffffffffffffffffffffffffffffffff16815260200190815260200160002060008373ffffffffffffffffffffffffffffffffffffffff1673ffffffffffffffffffffffffffffffffffffffff16815260200190815260200160002054905092915050565b600033905090565b600073ffffffffffffffffffffffffffffffffffffffff168373ffffffffffffffffffffffffffffffffffffffff1614156108f1576040517f08c379a00000000000000000000000000000000000000000000000000000000081526004016108e890611213565b60405180910390fd5b600073ffffffffffffffffffffffffffffffffffffffff168273ffffffffffffffffffffffffffffffffffffffff161415610961576040517f08c379a000000000000000000000000000000000000000000000000000000000815260040161095890611193565b60405180910390fd5b80600160008573ffffffffffffffffffffffffffffffffffffffff1673ffffffffffffffffffffffffffffffffffffffff16815260200190815260200160002060008473ffffffffffffffffffffffffffffffffffffffff1673ffffffffffffffffffffffffffffffffffffffff168152602001908152602001600020819055508173ffffffffffffffffffffffffffffffffffffffff168373ffffffffffffffffffffffffffffffffffffffff167f8c5be1e5ebec7d5bd14f71427d1e84f3dd0314c0f7b2291e5b200ac8c7c3b92583604051610a3f9190611273565b60405180910390a3505050565b600073ffffffffffffffffffffffffffffffffffffffff168273ffffffffffffffffffffffffffffffffffffffff161415610abc576040517f08c379a0000000000000000000000000000000000000000000000000000000008152600401610ab390611253565b60405180910390fd5b610ac860008383610e2d565b8060026000828254610ada91906112c5565b92505081905550806000808473ffffffffffffffffffffffffffffffffffffffff1673ffffffffffffffffffffffffffffffffffffffff1681526020019081526020016000206000828254610b2f91906112c5565b925050819055508173ffffffffffffffffffffffffffffffffffffffff16600073ffffffffffffffffffffffffffffffffffffffff167fddf252ad1be2c89b69c2b068fc378daa952ba7f163c4a11628f55a4df523b3ef83604051610b949190611273565b60405180910390a3610ba860008383610e32565b5050565b600073ffffffffffffffffffffffffffffffffffffffff168373ffffffffffffffffffffffffffffffffffffffff161415610c1c576040517f08c379a0000000000000000000000000000000000000000000000000000000008152600401610c13906111f3565b60405180910390fd5b600073ffffffffffffffffffffffffffffffffffffffff168273ffffffffffffffffffffffffffffffffffffffff161415610c8c576040517f08c379a0000000000000000000000000000000000000000000000000000000008152600401610c8390611173565b60405180910390fd5b610c97838383610e2d565b60008060008573ffffffffffffffffffffffffffffffffffffffff1673ffffffffffffffffffffffffffffffffffffffff16815260200190815260200160002054905081811015610d1d576040517f08c379a0000000000000000000000000000000000000000000000000000000008152600401610d14906111b3565b60405180910390fd5b8181036000808673ffffffffffffffffffffffffffffffffffffffff1673ffffffffffffffffffffffffffffffffffffffff16815260200190815260200160002081905550816000808573ffffffffffffffffffffffffffffffffffffffff1673ffffffffffffffffffffffffffffffffffffffff1681526020019081526020016000206000828254610db091906112c5565b925050819055508273ffffffffffffffffffffffffffffffffffffffff168473ffffffffffffffffffffffffffffffffffffffff167fddf252ad1be2c89b69c2b068fc378daa952ba7f163c4a11628f55a4df523b3ef84604051610e149190611273565b60405180910390a3610e27848484610e32565b50505050565b505050565b505050565b600081359050610e468161169b565b92915050565b600081359050610e5b816116b2565b92915050565b600060208284031215610e7757610e76611433565b5b6000610e8584828501610e37565b91505092915050565b60008060408385031215610ea557610ea4611433565b5b6000610eb385828601610e37565b9250506020610ec485828601610e37565b9150509250929050565b600080600060608486031215610ee757610ee6611433565b5b6000610ef586828701610e37565b9350506020610f0686828701610e37565b9250506040610f1786828701610e4c565b9150509250925092565b60008060408385031215610f3857610f37611433565b5b6000610f4685828601610e37565b9250506020610f5785828601610e4c565b9150509250929050565b600060208284031215610f7757610f76611433565b5b6000610f8584828501610e4c565b91505092915050565b610f978161131b565b82525050565b610fa68161132d565b82525050565b6000610fb7826112a9565b610fc181856112b4565b9350610fd1818560208601611370565b610fda81611438565b840191505092915050565b6000610ff26023836112b4565b9150610ffd82611449565b604082019050919050565b60006110156022836112b4565b915061102082611498565b604082019050919050565b60006110386026836112b4565b9150611043826114e7565b604082019050919050565b600061105b6028836112b4565b915061106682611536565b604082019050919050565b600061107e6025836112b4565b915061108982611585565b604082019050919050565b60006110a16024836112b4565b91506110ac826115d4565b604082019050919050565b60006110c46025836112b4565b91506110cf82611623565b604082019050919050565b60006110e7601f836112b4565b91506110f282611672565b602082019050919050565b61110681611359565b82525050565b61111581611363565b82525050565b60006020820190506111306000830184610f8e565b92915050565b600060208201905061114b6000830184610f9d565b92915050565b6000602082019050818103600083015261116b8184610fac565b905092915050565b6000602082019050818103600083015261118c81610fe5565b9050919050565b600060208201905081810360008301526111ac81611008565b9050919050565b600060208201905081810360008301526111cc8161102b565b9050919050565b600060208201905081810360008301526111ec8161104e565b9050919050565b6000602082019050818103600083015261120c81611071565b9050919050565b6000602082019050818103600083015261122c81611094565b9050919050565b6000602082019050818103600083015261124c816110b7565b9050919050565b6000602082019050818103600083015261126c816110da565b9050919050565b600060208201905061128860008301846110fd565b92915050565b60006020820190506112a3600083018461110c565b92915050565b600081519050919050565b600082825260208201905092915050565b60006112d082611359565b91506112db83611359565b9250827fffffffffffffffffffffffffffffffffffffffffffffffffffffffffffffffff038211156113105761130f6113d5565b5b828201905092915050565b600061132682611339565b9050919050565b60008115159050919050565b600073ffffffffffffffffffffffffffffffffffffffff82169050919050565b6000819050919050565b600060ff82169050919050565b60005b8381101561138e578082015181840152602081019050611373565b8381111561139d576000848401525b50505050565b600060028204905060018216806113bb57607f821691505b602082108114156113cf576113ce611404565b5b50919050565b7f4e487b7100000000000000000000000000000000000000000000000000000000600052601160045260246000fd5b7f4e487b7100000000000000000000000000000000000000000000000000000000600052602260045260246000fd5b600080fd5b6000601f19601f8301169050919050565b7f45524332303a207472616e7366657220746f20746865207a65726f206164647260008201527f6573730000000000000000000000000000000000000000000000000000000000602082015250565b7f45524332303a20617070726f766520746f20746865207a65726f20616464726560008201527f7373000000000000000000000000000000000000000000000000000000000000602082015250565b7f45524332303a207472616e7366657220616d6f756e742065786365656473206260008201527f616c616e63650000000000000000000000000000000000000000000000000000602082015250565b7f45524332303a207472616e7366657220616d6f756e742065786365656473206160008201527f6c6c6f77616e6365000000000000000000000000000000000000000000000000602082015250565b7f45524332303a207472616e736665722066726f6d20746865207a65726f20616460008201527f6472657373000000000000000000000000000000000000000000000000000000602082015250565b7f45524332303a20617070726f76652066726f6d20746865207a65726f2061646460008201527f7265737300000000000000000000000000000000000000000000000000000000602082015250565b7f45524332303a2064656372656173656420616c6c6f77616e63652062656c6f7760008201527f207a65726f000000000000000000000000000000000000000000000000000000602082015250565b7f45524332303a206d696e7420746f20746865207a65726f206164647265737300600082015250565b6116a48161131b565b81146116af57600080fd5b50565b6116bb81611359565b81146116c657600080fd5b5056fea264697066735822122039d3ba4f771f09b6d8eba8fa05ecd43944ed1a65d23b567b0409efd1a53adf6f64736f6c634300080700336080604052348015600f57600080fd5b50603f80601d6000396000f3fe6080604052600080fdfea26469706673582212202c3364c28b61185db0e1e5a52c114292673b00936d3798ce3b5cb468bc02e05d64736f6c63430008070033",
  "linkReferences": {},
  "deployedLinkReferences": {}
}