{
  "_format": "hh-sol-artifact-1",
  "contractName": "Source",
  "sourceName": "contracts/DAO.sol",
  "abi": [
    {
      "inputs": [
        {
          "internalType": "string",
          "name": "name",
          "type": "string"
        },
        {
          "internalType": "string",
          "name": "symbol",
          "type": "string"
        }
      ],
      "stateMutability": "nonpayable",
      "type": "constructor"
    },
    {
      "anonymous": false,
      "inputs": [
        {
          "indexed": false,
          "internalType": "address",
          "name": "_human",
          "type": "address"
        }
      ],
      "name": "HumanCreated",
      "type": "event"
    },
    {
      "anonymous": false,
      "inputs": [
        {
          "indexed": false,
          "internalType": "address",
          "name": "_project",
          "type": "address"
        }
      ],
      "name": "ProjectCreated",
      "type": "event"
    },
    {
      "inputs": [],
      "name": "arbitrationEscrow",
      "outputs": [
        {
          "internalType": "contract ArbitrationEscrow",
          "name": "",
          "type": "address"
        }
      ],
      "stateMutability": "view",
      "type": "function"
    },
    {
      "inputs": [
        {
          "internalType": "address payable",
          "name": "_client",
          "type": "address"
        },
        {
          "internalType": "address payable",
          "name": "_arbiter",
          "type": "address"
        },
        {
          "internalType": "address",
          "name": "_paymentTokenAddress",
          "type": "address"
        },
        {
          "internalType": "uint8",
          "name": "_votingDuration",
          "type": "uint8"
        }
      ],
      "name": "createProject",
      "outputs": [],
      "stateMutability": "nonpayable",
      "type": "function"
    },
    {
      "inputs": [
        {
          "internalType": "address payable",
          "name": "payee",
          "type": "address"
        },
        {
          "internalType": "uint256",
          "name": "amount",
          "type": "uint256"
        }
      ],
      "name": "mintRepTokens",
      "outputs": [],
      "stateMutability": "nonpayable",
      "type": "function"
    },
    {
      "inputs": [],
      "name": "numberOfProjects",
      "outputs": [
        {
          "internalType": "uint256",
          "name": "",
          "type": "uint256"
        }
      ],
      "stateMutability": "view",
      "type": "function"
    },
    {
      "inputs": [
        {
          "internalType": "uint256",
          "name": "",
          "type": "uint256"
        }
      ],
      "name": "projects",
      "outputs": [
        {
          "internalType": "address",
          "name": "",
          "type": "address"
        }
      ],
      "stateMutability": "view",
      "type": "function"
    },
    {
      "inputs": [],
      "name": "repToken",
      "outputs": [
        {
          "internalType": "contract RepToken",
          "name": "",
          "type": "address"
        }
      ],
      "stateMutability": "view",
      "type": "function"
    }
  ],
  "bytecode": "0x60806040523480156200001157600080fd5b5060405162006a2b38038062006a2b8339818101604052810190620000379190620001be565b8181604051620000479062000125565b6200005492919062000284565b604051809103906000f08015801562000071573d6000803e3d6000fd5b506000806101000a81548173ffffffffffffffffffffffffffffffffffffffff021916908373ffffffffffffffffffffffffffffffffffffffff160217905550604051620000bf9062000133565b604051809103906000f080158015620000dc573d6000803e3d6000fd5b50600160006101000a81548173ffffffffffffffffffffffffffffffffffffffff021916908373ffffffffffffffffffffffffffffffffffffffff1602179055505050620003fa565b611afc8062004ed383390190565b605c80620069cf83390190565b6000620001576200015184620002e8565b620002bf565b905082815260208101848484011115620001765762000175620003da565b5b620001838482856200033a565b509392505050565b600082601f830112620001a357620001a2620003d5565b5b8151620001b584826020860162000140565b91505092915050565b60008060408385031215620001d857620001d7620003e4565b5b600083015167ffffffffffffffff811115620001f957620001f8620003df565b5b62000207858286016200018b565b925050602083015167ffffffffffffffff8111156200022b576200022a620003df565b5b62000239858286016200018b565b9150509250929050565b600062000250826200031e565b6200025c818562000329565b93506200026e8185602086016200033a565b6200027981620003e9565b840191505092915050565b60006040820190508181036000830152620002a0818562000243565b90508181036020830152620002b6818462000243565b90509392505050565b6000620002cb620002de565b9050620002d9828262000370565b919050565b6000604051905090565b600067ffffffffffffffff821115620003065762000305620003a6565b5b6200031182620003e9565b9050602081019050919050565b600081519050919050565b600082825260208201905092915050565b60005b838110156200035a5780820151818401526020810190506200033d565b838111156200036a576000848401525b50505050565b6200037b82620003e9565b810181811067ffffffffffffffff821117156200039d576200039c620003a6565b5b80604052505050565b7f4e487b7100000000000000000000000000000000000000000000000000000000600052604160045260246000fd5b600080fd5b600080fd5b600080fd5b600080fd5b6000601f19601f8301169050919050565b614ac9806200040a6000396000f3fe60806040523480156200001157600080fd5b50600436106200006a5760003560e01c8063107046bd146200006f57806329034a5c14620000a55780632fee8e3e14620000c75780638e63779614620000e9578063bca0adcb1462000109578063db5e4c7f1462000129575b600080fd5b6200008d600480360381019062000087919062000553565b6200014b565b6040516200009c9190620005fc565b60405180910390f35b620000af6200018b565b604051620000be9190620006e0565b60405180910390f35b620000d1620001af565b604051620000e09190620006c3565b60405180910390f35b6200010760048036038101906200010191906200049a565b620001d5565b005b6200012760048036038101906200012191906200050c565b6200033e565b005b620001336200042a565b604051620001429190620006fd565b60405180910390f35b600281815481106200015c57600080fd5b906000526020600020016000915054906101000a900473ffffffffffffffffffffffffffffffffffffffff1681565b60008054906101000a900473ffffffffffffffffffffffffffffffffffffffff1681565b600160009054906101000a900473ffffffffffffffffffffffffffffffffffffffff1681565b600033858560008054906101000a900473ffffffffffffffffffffffffffffffffffffffff16600160009054906101000a900473ffffffffffffffffffffffffffffffffffffffff1687876040516200022e9062000430565b62000240979695949392919062000619565b604051809103906000f0801580156200025d573d6000803e3d6000fd5b5090506002819080600181540180825580915050600190039060005260206000200160009091909190916101000a81548173ffffffffffffffffffffffffffffffffffffffff021916908373ffffffffffffffffffffffffffffffffffffffff1602179055506001600460008373ffffffffffffffffffffffffffffffffffffffff1673ffffffffffffffffffffffffffffffffffffffff16815260200190815260200160002060006101000a81548160ff0219169083151502179055506001600360008282546200033091906200071a565b925050819055505050505050565b600460003373ffffffffffffffffffffffffffffffffffffffff1673ffffffffffffffffffffffffffffffffffffffff16815260200190815260200160002060009054906101000a900460ff166200039557600080fd5b60008054906101000a900473ffffffffffffffffffffffffffffffffffffffff1673ffffffffffffffffffffffffffffffffffffffff166340c10f1983836040518363ffffffff1660e01b8152600401620003f292919062000696565b600060405180830381600087803b1580156200040d57600080fd5b505af115801562000422573d6000803e3d6000fd5b505050505050565b60035481565b6141a980620008eb83390190565b6000813590506200044f8162000882565b92915050565b60008135905062000466816200089c565b92915050565b6000813590506200047d81620008b6565b92915050565b6000813590506200049481620008d0565b92915050565b60008060008060808587031215620004b757620004b66200087d565b5b6000620004c78782880162000455565b9450506020620004da8782880162000455565b9350506040620004ed878288016200043e565b9250506060620005008782880162000483565b91505092959194509250565b600080604083850312156200052657620005256200087d565b5b6000620005368582860162000455565b925050602062000549858286016200046c565b9150509250929050565b6000602082840312156200056c576200056b6200087d565b5b60006200057c848285016200046c565b91505092915050565b6200059081620007d6565b82525050565b620005a1816200078b565b82525050565b620005b28162000777565b82525050565b620005c381620007ea565b82525050565b620005d481620007fe565b82525050565b620005e581620007bf565b82525050565b620005f6816200083a565b82525050565b6000602082019050620006136000830184620005a7565b92915050565b600060e08201905062000630600083018a62000596565b6200063f602083018962000596565b6200064e604083018862000596565b6200065d6060830187620005a7565b6200066c6080830186620005b8565b6200067b60a0830185620005a7565b6200068a60c0830184620005eb565b98975050505050505050565b6000604082019050620006ad600083018562000585565b620006bc6020830184620005da565b9392505050565b6000602082019050620006da6000830184620005b8565b92915050565b6000602082019050620006f76000830184620005c9565b92915050565b6000602082019050620007146000830184620005da565b92915050565b60006200072782620007bf565b91506200073483620007bf565b9250827fffffffffffffffffffffffffffffffffffffffffffffffffffffffffffffffff038211156200076c576200076b6200084e565b5b828201905092915050565b600062000784826200079f565b9050919050565b600062000798826200079f565b9050919050565b600073ffffffffffffffffffffffffffffffffffffffff82169050919050565b6000819050919050565b600060ff82169050919050565b6000620007e38262000812565b9050919050565b6000620007f78262000812565b9050919050565b60006200080b8262000812565b9050919050565b60006200081f8262000826565b9050919050565b600062000833826200079f565b9050919050565b60006200084782620007c9565b9050919050565b7f4e487b7100000000000000000000000000000000000000000000000000000000600052601160045260246000fd5b600080fd5b6200088d8162000777565b81146200089957600080fd5b50565b620008a7816200078b565b8114620008b357600080fd5b50565b620008c181620007bf565b8114620008cd57600080fd5b50565b620008db81620007c9565b8114620008e757600080fd5b5056fe6080604052620546006008556032600b556032600c556000601655633b9aca006017553480156200002f57600080fd5b50604051620041a9380380620041a983398181016040528101906200005591906200058e565b6000600360146101000a81548160ff021916908360058111156200007e576200007d62000701565b5b021790555086601360006101000a81548173ffffffffffffffffffffffffffffffffffffffff021916908373ffffffffffffffffffffffffffffffffffffffff1602179055506015601360009054906101000a900473ffffffffffffffffffffffffffffffffffffffff169080600181540180825580915050600190039060005260206000200160009091909190916101000a81548173ffffffffffffffffffffffffffffffffffffffff021916908373ffffffffffffffffffffffffffffffffffffffff1602179055506001600d6000601360009054906101000a900473ffffffffffffffffffffffffffffffffffffffff1673ffffffffffffffffffffffffffffffffffffffff1673ffffffffffffffffffffffffffffffffffffffff16815260200190815260200160002060006101000a81548160ff02191690831515021790555085601260006101000a81548173ffffffffffffffffffffffffffffffffffffffff021916908373ffffffffffffffffffffffffffffffffffffffff16021790555082600360006101000a81548173ffffffffffffffffffffffffffffffffffffffff021916908373ffffffffffffffffffffffffffffffffffffffff16021790555084601460006101000a81548173ffffffffffffffffffffffffffffffffffffffff021916908373ffffffffffffffffffffffffffffffffffffffff160217905550336000806101000a81548173ffffffffffffffffffffffffffffffffffffffff021916908373ffffffffffffffffffffffffffffffffffffffff16021790555083600160006101000a81548173ffffffffffffffffffffffffffffffffffffffff021916908373ffffffffffffffffffffffffffffffffffffffff160217905550426009819055508060078190555062000329826017546200033660201b60201c565b50505050505050620007c6565b60008054906101000a900473ffffffffffffffffffffffffffffffffffffffff1673ffffffffffffffffffffffffffffffffffffffff163373ffffffffffffffffffffffffffffffffffffffff161480620003de5750601360009054906101000a900473ffffffffffffffffffffffffffffffffffffffff1673ffffffffffffffffffffffffffffffffffffffff163373ffffffffffffffffffffffffffffffffffffffff16145b62000420576040517f08c379a0000000000000000000000000000000000000000000000000000000008152600401620004179062000668565b60405180910390fd5b81600260006101000a81548173ffffffffffffffffffffffffffffffffffffffff021916908373ffffffffffffffffffffffffffffffffffffffff16021790555062000472816200047660201b60201c565b5050565b60008054906101000a900473ffffffffffffffffffffffffffffffffffffffff1673ffffffffffffffffffffffffffffffffffffffff163373ffffffffffffffffffffffffffffffffffffffff1614806200051e5750601360009054906101000a900473ffffffffffffffffffffffffffffffffffffffff1673ffffffffffffffffffffffffffffffffffffffff163373ffffffffffffffffffffffffffffffffffffffff16145b6200052857600080fd5b8060178190555050565b60008151905062000543816200075e565b92915050565b6000815190506200055a8162000778565b92915050565b600081519050620005718162000792565b92915050565b6000815190506200058881620007ac565b92915050565b600080600080600080600060e0888a031215620005b057620005af62000730565b5b6000620005c08a828b0162000549565b9750506020620005d38a828b0162000549565b9650506040620005e68a828b0162000549565b9550506060620005f98a828b0162000532565b94505060806200060c8a828b0162000560565b93505060a06200061f8a828b0162000532565b92505060c0620006328a828b0162000577565b91505092959891949750929550565b6000620006506018836200068a565b91506200065d8262000735565b602082019050919050565b60006020820190508181036000830152620006838162000641565b9050919050565b600082825260208201905092915050565b6000620006a882620006d7565b9050919050565b6000620006bc82620006d7565b9050919050565b6000620006d0826200069b565b9050919050565b600073ffffffffffffffffffffffffffffffffffffffff82169050919050565b6000819050919050565b7f4e487b7100000000000000000000000000000000000000000000000000000000600052602160045260246000fd5b600080fd5b7f736f75726365206f7220736f757263696e67204c656164210000000000000000600082015250565b62000769816200069b565b81146200077557600080fd5b50565b6200078381620006af565b81146200078f57600080fd5b50565b6200079d81620006c3565b8114620007a957600080fd5b50565b620007b781620006f7565b8114620007c357600080fd5b50565b6139d380620007d66000396000f3fe608060405234801561001057600080fd5b50600436106102745760003560e01c806363066abd11610151578063bd238fe6116100c3578063e2982c2111610087578063e2982c2114610703578063e6e70dd614610734578063e89e4ed61461073e578063e958349314610772578063f3120c4414610790578063fe25e00a146107ac57610274565b8063bd238fe614610685578063c438b40f146106a1578063c7656f6e146106bd578063c9e3f0fa146106c7578063d2da0182146106e557610274565b8063908c36ca11610115578063908c36ca146105d75780639872330b146105f55780639ec60172146106135780639fa361381461062f578063b13a2c411461064b578063bcba3e971461066957610274565b806363066abd1461053557806367e828bf146105515780636f8a42d41461056f5780637e96ea141461058b5780638f320c77146105a757610274565b80633013ce29116101ea5780633d1c5ff3116101ae5780633d1c5ff3146104775780633eb2b5ad14610493578063417c09c0146104af578063431c0c88146104df57806348916c89146104fb57806353f10a4b1461051757610274565b80633013ce29146103e3578063359d393d1461040157806335baea341461041f57806339518b5e1461043b57806339d5d1261461045957610274565b8063132002fc1161023c578063132002fc1461033157806318ad3c921461034f5780631dfef34014610359578063200d2ed21461038957806329034a5c146103a75780632fee8e3e146103c557610274565b806308422702146102795780630d581232146102a95780630dff5008146102c55780630e7d490d146102f5578063109e94cf14610313575b600080fd5b610293600480360381019061028e9190612c25565b6107ca565b6040516102a091906130d1565b60405180910390f35b6102c360048036038101906102be9190612e5a565b6107f9565b005b6102df60048036038101906102da9190612cee565b6108f0565b6040516102ec91906130d1565b60405180910390f35b6102fd610a2c565b60405161030a91906132a1565b60405180910390f35b61031b610a32565b604051610328919061303b565b60405180910390f35b610339610a58565b60405161034691906132a1565b60405180910390f35b610357610a5e565b005b610373600480360381019061036e9190612c25565b610ab9565b60405161038091906132a1565b60405180910390f35b610391610ade565b60405161039e91906131ab565b60405180910390f35b6103af610af1565b6040516103bc9190613175565b60405180910390f35b6103cd610b17565b6040516103da919061313f565b60405180910390f35b6103eb610b3d565b6040516103f8919061315a565b60405180910390f35b610409610b63565b60405161041691906132a1565b60405180910390f35b61043960048036038101906104349190612dcf565b610b69565b005b610443610c43565b60405161045091906132a1565b60405180910390f35b610461610c49565b60405161046e91906132a1565b60405180910390f35b610491600480360381019061048c9190612c65565b610c4f565b005b6104ad60048036038101906104a89190612bf8565b610d4a565b005b6104c960048036038101906104c49190612bcb565b610eb8565b6040516104d69190613286565b60405180910390f35b6104f960048036038101906104f49190612d75565b610ed9565b005b61051560048036038101906105109190612c65565b610f93565b005b61051f611047565b60405161052c91906132a1565b60405180910390f35b61054f600480360381019061054a9190612d75565b61104d565b005b6105596110e3565b6040516105669190613190565b60405180910390f35b61058960048036038101906105849190612d75565b611107565b005b6105a560048036038101906105a09190612d48565b61116b565b005b6105c160048036038101906105bc9190612c25565b611303565b6040516105ce91906130d1565b60405180910390f35b6105df611332565b6040516105ec91906132a1565b60405180910390f35b6105fd611338565b60405161060a91906132a1565b60405180910390f35b61062d60048036038101906106289190612ca5565b61133e565b005b61064960048036038101906106449190612d75565b6114cd565b005b610653611805565b60405161066091906132a1565b60405180910390f35b610683600480360381019061067e9190612bcb565b61180b565b005b61069f600480360381019061069a9190612cee565b611ade565b005b6106bb60048036038101906106b69190612d75565b611d41565b005b6106c5611e79565b005b6106cf611e7b565b6040516106dc91906132a1565b60405180910390f35b6106ed611e81565b6040516106fa919061303b565b60405180910390f35b61071d60048036038101906107189190612bcb565b611ea7565b60405161072b9291906132bc565b60405180910390f35b61073c611ed9565b005b61075860048036038101906107539190612d75565b6121e8565b6040516107699594939291906130ec565b60405180910390f35b61077a612248565b60405161078791906132a1565b60405180910390f35b6107aa60048036038101906107a59190612bcb565b61224e565b005b6107b4612469565b6040516107c1919061303b565b60405180910390f35b60116020528160005260406000206020528060005260406000206000915091509054906101000a900460ff1681565b601360009054906101000a900473ffffffffffffffffffffffffffffffffffffffff1673ffffffffffffffffffffffffffffffffffffffff163373ffffffffffffffffffffffffffffffffffffffff1614610889576040517f08c379a000000000000000000000000000000000000000000000000000000000815260040161088090613226565b60405180910390fd5b806019838154811061089e5761089d613705565b5b9060005260206000209060060201600101819055507fd63106bdd6a3a4503e009de7bdcddc32ba7d9fc512c33d2bff1accb631d88a3082826040516108e49291906132e5565b60405180910390a15050565b60006007546009544261090391906134b5565b111561091a5761091161248f565b60009050610a27565b6000600160009054906101000a900473ffffffffffffffffffffffffffffffffffffffff1673ffffffffffffffffffffffffffffffffffffffff166370a08231336040518263ffffffff1660e01b81526004016109779190613020565b60206040518083038186803b15801561098f57600080fd5b505afa1580156109a3573d6000803e3d6000fd5b505050506040513d601f19601f820116820180604052508101906109c79190612da2565b905082156109ed5780600460008282546109e191906133d4565b92505081905550610a07565b80600560008282546109ff91906133d4565b925050819055505b600160066000828254610a1a91906133d4565b9250508190555060019150505b919050565b60065481565b601260009054906101000a900473ffffffffffffffffffffffffffffffffffffffff1681565b60075481565b60075460095442610a6f91906134b5565b11610aaf576040517f08c379a0000000000000000000000000000000000000000000000000000000008152600401610aa6906131c6565b60405180910390fd5b610ab761248f565b565b6010602052816000526040600020602052806000526040600020600091509150505481565b600360149054906101000a900460ff1681565b600160009054906101000a900473ffffffffffffffffffffffffffffffffffffffff1681565b600360009054906101000a900473ffffffffffffffffffffffffffffffffffffffff1681565b600260009054906101000a900473ffffffffffffffffffffffffffffffffffffffff1681565b60055481565b601360009054906101000a900473ffffffffffffffffffffffffffffffffffffffff1673ffffffffffffffffffffffffffffffffffffffff163373ffffffffffffffffffffffffffffffffffffffff16148015610bc7575080518251145b610bd057600080fd5b60085442610bde91906133d4565b60198481548110610bf257610bf1613705565b5b9060005260206000209060060201600301819055507fe35031d60f2f841b5b780ddd4c92c4ddea78f371eff5306b4edb3d14899b87c883604051610c3691906132a1565b60405180910390a1505050565b60095481565b60045481565b6000600260009054906101000a900473ffffffffffffffffffffffffffffffffffffffff1673ffffffffffffffffffffffffffffffffffffffff166370a08231306040518263ffffffff1660e01b8152600401610cac9190613020565b60206040518083038186803b158015610cc457600080fd5b505afa158015610cd8573d6000803e3d6000fd5b505050506040513d601f19601f82011682018060405250810190610cfc9190612da2565b14610d3c576040517f08c379a0000000000000000000000000000000000000000000000000000000008152600401610d33906131e6565b60405180910390fd5b610d4682826125ab565b5050565b601360009054906101000a900473ffffffffffffffffffffffffffffffffffffffff1673ffffffffffffffffffffffffffffffffffffffff163373ffffffffffffffffffffffffffffffffffffffff161480610df1575060008054906101000a900473ffffffffffffffffffffffffffffffffffffffff1673ffffffffffffffffffffffffffffffffffffffff163373ffffffffffffffffffffffffffffffffffffffff16145b610dfa57600080fd5b6015819080600181540180825580915050600190039060005260206000200160009091909190916101000a81548173ffffffffffffffffffffffffffffffffffffffff021916908373ffffffffffffffffffffffffffffffffffffffff1602179055506001600d60008373ffffffffffffffffffffffffffffffffffffffff1673ffffffffffffffffffffffffffffffffffffffff16815260200190815260200160002060006101000a81548160ff02191690831515021790555050565b600f6020528060005260406000206000915054906101000a900461ffff1681565b60008054906101000a900473ffffffffffffffffffffffffffffffffffffffff1673ffffffffffffffffffffffffffffffffffffffff163373ffffffffffffffffffffffffffffffffffffffff161480610f805750601360009054906101000a900473ffffffffffffffffffffffffffffffffffffffff1673ffffffffffffffffffffffffffffffffffffffff163373ffffffffffffffffffffffffffffffffffffffff16145b610f8957600080fd5b8060178190555050565b600160009054906101000a900473ffffffffffffffffffffffffffffffffffffffff1673ffffffffffffffffffffffffffffffffffffffff1663a9059cbb83836040518363ffffffff1660e01b8152600401610ff09291906130a8565b602060405180830381600087803b15801561100a57600080fd5b505af115801561101e573d6000803e3d6000fd5b505050506040513d601f19601f820116820180604052508101906110429190612d1b565b505050565b600b5481565b600d60003373ffffffffffffffffffffffffffffffffffffffff1673ffffffffffffffffffffffffffffffffffffffff16815260200190815260200160002060009054906101000a900460ff166110a357600080fd5b606080601983815481106110ba576110b9613705565b5b906000526020600020906006020160050190805190602001906110de929190612908565b505050565b60008054906101000a900473ffffffffffffffffffffffffffffffffffffffff1681565b601360009054906101000a900473ffffffffffffffffffffffffffffffffffffffff1673ffffffffffffffffffffffffffffffffffffffff163373ffffffffffffffffffffffffffffffffffffffff161461116157600080fd5b8060168190555050565b601360009054906101000a900473ffffffffffffffffffffffffffffffffffffffff1673ffffffffffffffffffffffffffffffffffffffff163373ffffffffffffffffffffffffffffffffffffffff16146111fb576040517f08c379a00000000000000000000000000000000000000000000000000000000081526004016111f290613266565b60405180910390fd5b60608060196040518060e00160405280600015158152602001600015158152602001600081526020018581526020016000815260200184815260200183815250908060018154018082558091505060019003906000526020600020906006020160009091909190915060008201518160000160006101000a81548160ff02191690831515021790555060208201518160000160016101000a81548160ff02191690831515021790555060408201518160010155606082015181600201556080820151816003015560a08201518160040190805190602001906112de929190612955565b5060c08201518160050190805190602001906112fb929190612908565b505050505050565b600e6020528160005260406000206020528060005260406000206000915091509054906101000a900460ff1681565b600a5481565b60175481565b601260009054906101000a900473ffffffffffffffffffffffffffffffffffffffff1673ffffffffffffffffffffffffffffffffffffffff163373ffffffffffffffffffffffffffffffffffffffff1614806113e75750601360009054906101000a900473ffffffffffffffffffffffffffffffffffffffff1673ffffffffffffffffffffffffffffffffffffffff163373ffffffffffffffffffffffffffffffffffffffff16145b6113f057600080fd5b60005b8151811015611467576001601983838151811061141357611412613705565b5b60200260200101518154811061142c5761142b613705565b5b906000526020600020906006020160000160016101000a81548160ff021916908315150217905550808061145f9061362f565b9150506113f3565b506002600360146101000a81548160ff0219169083600581111561148e5761148d6136d6565b5b02179055507f695fbf2fe28b4fde5705122279ffc4160ebfc0f45e4d96f7e6699001be5062ef336040516114c29190613020565b60405180910390a150565b601981815481106114e1576114e0613705565b5b906000526020600020906006020160000160009054906101000a900460ff1661150957600080fd5b6019818154811061151d5761151c613705565b5b906000526020600020906006020160030154421161153a57600080fd5b60005b6019828154811061155157611550613705565b5b90600052602060002090600602016004018054905081101561180157600260009054906101000a900473ffffffffffffffffffffffffffffffffffffffff1673ffffffffffffffffffffffffffffffffffffffff1663a9059cbb601984815481106115bf576115be613705565b5b906000526020600020906006020160040183815481106115e2576115e1613705565b5b9060005260206000200160009054906101000a900473ffffffffffffffffffffffffffffffffffffffff166019858154811061162157611620613705565b5b9060005260206000209060060201600501848154811061164457611643613705565b5b90600052602060002001546040518363ffffffff1660e01b815260040161166c92919061307f565b602060405180830381600087803b15801561168657600080fd5b505af115801561169a573d6000803e3d6000fd5b505050506040513d601f19601f820116820180604052508101906116be9190612d1b565b5060008054906101000a900473ffffffffffffffffffffffffffffffffffffffff1673ffffffffffffffffffffffffffffffffffffffff1663bca0adcb6019848154811061170f5761170e613705565b5b9060005260206000209060060201600401838154811061173257611731613705565b5b9060005260206000200160009054906101000a900473ffffffffffffffffffffffffffffffffffffffff166019858154811061177157611770613705565b5b9060005260206000209060060201600501848154811061179457611793613705565b5b90600052602060002001546040518363ffffffff1660e01b81526004016117bc929190613056565b600060405180830381600087803b1580156117d657600080fd5b505af11580156117ea573d6000803e3d6000fd5b5050505080806117f99061362f565b91505061153d565b5050565b60165481565b60001515600e60003373ffffffffffffffffffffffffffffffffffffffff1673ffffffffffffffffffffffffffffffffffffffff16815260200190815260200160002060008373ffffffffffffffffffffffffffffffffffffffff1673ffffffffffffffffffffffffffffffffffffffff16815260200190815260200160002060009054906101000a900460ff1615151480156118f657508073ffffffffffffffffffffffffffffffffffffffff16601360009054906101000a900473ffffffffffffffffffffffffffffffffffffffff1673ffffffffffffffffffffffffffffffffffffffff1614155b6118ff57600080fd5b6001600e60003373ffffffffffffffffffffffffffffffffffffffff1673ffffffffffffffffffffffffffffffffffffffff16815260200190815260200160002060008373ffffffffffffffffffffffffffffffffffffffff1673ffffffffffffffffffffffffffffffffffffffff16815260200190815260200160002060006101000a81548160ff0219169083151502179055506001600f60008373ffffffffffffffffffffffffffffffffffffffff1673ffffffffffffffffffffffffffffffffffffffff16815260200190815260200160002060008282829054906101000a900461ffff166119f1919061339c565b92506101000a81548161ffff021916908361ffff1602179055506064600c54601580549050611a20919061345b565b611a2a919061342a565b600f60008373ffffffffffffffffffffffffffffffffffffffff1673ffffffffffffffffffffffffffffffffffffffff16815260200190815260200160002060009054906101000a900461ffff1661ffff161115611adb576000600d60008373ffffffffffffffffffffffffffffffffffffffff1673ffffffffffffffffffffffffffffffffffffffff16815260200190815260200160002060006101000a81548160ff0219169083151502179055505b50565b601460009054906101000a900473ffffffffffffffffffffffffffffffffffffffff1673ffffffffffffffffffffffffffffffffffffffff163373ffffffffffffffffffffffffffffffffffffffff16148015611b6e575060026005811115611b4a57611b496136d6565b5b600360149054906101000a900460ff166005811115611b6c57611b6b6136d6565b5b145b611b7757600080fd5b8015611c6057601654600a8190555060005b601980549050811015611c5e5760198181548110611baa57611ba9613705565b5b906000526020600020906006020160000160019054906101000a900460ff1615611c4b57600160198281548110611be457611be3613705565b5b906000526020600020906006020160000160006101000a81548160ff021916908315150217905550600060198281548110611c2257611c21613705565b5b906000526020600020906006020160000160016101000a81548160ff0219169083151502179055505b8080611c569061362f565b915050611b89565b505b611d13600260009054906101000a900473ffffffffffffffffffffffffffffffffffffffff1673ffffffffffffffffffffffffffffffffffffffff166370a08231306040518263ffffffff1660e01b8152600401611cbe9190613020565b60206040518083038186803b158015611cd657600080fd5b505afa158015611cea573d6000803e3d6000fd5b505050506040513d601f19601f82011682018060405250810190611d0e9190612da2565b6126df565b6001600360146101000a81548160ff02191690836005811115611d3957611d386136d6565b5b021790555050565b601260009054906101000a900473ffffffffffffffffffffffffffffffffffffffff1673ffffffffffffffffffffffffffffffffffffffff163373ffffffffffffffffffffffffffffffffffffffff1614611dd1576040517f08c379a0000000000000000000000000000000000000000000000000000000008152600401611dc890613206565b60405180910390fd5b600160198281548110611de757611de6613705565b5b906000526020600020906006020160000160006101000a81548160ff0219169083151502179055507f939da3b627c123c81fe5aacebf925163337a0d4f8a03724640618078cad248948160198381548110611e4557611e44613705565b5b906000526020600020906006020160010154604051611e659291906132e5565b60405180910390a1611e76816127b4565b50565b565b60085481565b601360009054906101000a900473ffffffffffffffffffffffffffffffffffffffff1681565b60186020528060005260406000206000915090508060000154908060010160009054906101000a900461ffff16905082565b6000805b601580549050811015611fc5576010600060158381548110611f0257611f01613705565b5b9060005260206000200160009054906101000a900473ffffffffffffffffffffffffffffffffffffffff1673ffffffffffffffffffffffffffffffffffffffff1673ffffffffffffffffffffffffffffffffffffffff16815260200190815260200160002060003373ffffffffffffffffffffffffffffffffffffffff1673ffffffffffffffffffffffffffffffffffffffff1681526020019081526020016000205482611fb091906133d4565b91508080611fbd9061362f565b915050611edd565b506064600b54601580549050611fdb919061345b565b611fe5919061342a565b8111156121e55733601360006101000a81548173ffffffffffffffffffffffffffffffffffffffff021916908373ffffffffffffffffffffffffffffffffffffffff16021790555060005b6015805490508110156121e3576000601060006015848154811061205757612056613705565b5b9060005260206000200160009054906101000a900473ffffffffffffffffffffffffffffffffffffffff1673ffffffffffffffffffffffffffffffffffffffff1673ffffffffffffffffffffffffffffffffffffffff16815260200190815260200160002060003373ffffffffffffffffffffffffffffffffffffffff1673ffffffffffffffffffffffffffffffffffffffff168152602001908152602001600020819055506000601160006015848154811061211757612116613705565b5b9060005260206000200160009054906101000a900473ffffffffffffffffffffffffffffffffffffffff1673ffffffffffffffffffffffffffffffffffffffff1673ffffffffffffffffffffffffffffffffffffffff16815260200190815260200160002060003373ffffffffffffffffffffffffffffffffffffffff1673ffffffffffffffffffffffffffffffffffffffff16815260200190815260200160002060006101000a81548160ff02191690831515021790555080806121db9061362f565b915050612030565b505b50565b601981815481106121f857600080fd5b90600052602060002090600602016000915090508060000160009054906101000a900460ff16908060000160019054906101000a900460ff16908060010154908060020154908060030154905085565b600c5481565b601360009054906101000a900473ffffffffffffffffffffffffffffffffffffffff1673ffffffffffffffffffffffffffffffffffffffff168173ffffffffffffffffffffffffffffffffffffffff1614156122a957600080fd5b601160003373ffffffffffffffffffffffffffffffffffffffff1673ffffffffffffffffffffffffffffffffffffffff16815260200190815260200160002060008273ffffffffffffffffffffffffffffffffffffffff1673ffffffffffffffffffffffffffffffffffffffff16815260200190815260200160002060009054906101000a900460ff161561233d57600080fd5b6001601060003373ffffffffffffffffffffffffffffffffffffffff1673ffffffffffffffffffffffffffffffffffffffff16815260200190815260200160002060008373ffffffffffffffffffffffffffffffffffffffff1673ffffffffffffffffffffffffffffffffffffffff16815260200190815260200160002060008282546123ca91906133d4565b925050819055506001601160003373ffffffffffffffffffffffffffffffffffffffff1673ffffffffffffffffffffffffffffffffffffffff16815260200190815260200160002060008373ffffffffffffffffffffffffffffffffffffffff1673ffffffffffffffffffffffffffffffffffffffff16815260200190815260200160002060006101000a81548160ff02191690831515021790555050565b601460009054906101000a900473ffffffffffffffffffffffffffffffffffffffff1681565b60055460045411156124ca5760038060146101000a81548160ff021916908360058111156124c0576124bf6136d6565b5b02179055506125a9565b6005600360146101000a81548160ff021916908360058111156124f0576124ef6136d6565b5b02179055506125a8600260009054906101000a900473ffffffffffffffffffffffffffffffffffffffff1673ffffffffffffffffffffffffffffffffffffffff166370a08231306040518263ffffffff1660e01b81526004016125539190613020565b60206040518083038186803b15801561256b57600080fd5b505afa15801561257f573d6000803e3d6000fd5b505050506040513d601f19601f820116820180604052508101906125a39190612da2565b6126df565b5b565b60008054906101000a900473ffffffffffffffffffffffffffffffffffffffff1673ffffffffffffffffffffffffffffffffffffffff163373ffffffffffffffffffffffffffffffffffffffff1614806126525750601360009054906101000a900473ffffffffffffffffffffffffffffffffffffffff1673ffffffffffffffffffffffffffffffffffffffff163373ffffffffffffffffffffffffffffffffffffffff16145b612691576040517f08c379a000000000000000000000000000000000000000000000000000000000815260040161268890613246565b60405180910390fd5b81600260006101000a81548173ffffffffffffffffffffffffffffffffffffffff021916908373ffffffffffffffffffffffffffffffffffffffff1602179055506126db81610ed9565b5050565b600260009054906101000a900473ffffffffffffffffffffffffffffffffffffffff1673ffffffffffffffffffffffffffffffffffffffff1663a9059cbb601260009054906101000a900473ffffffffffffffffffffffffffffffffffffffff16836040518363ffffffff1660e01b815260040161275e92919061307f565b602060405180830381600087803b15801561277857600080fd5b505af115801561278c573d6000803e3d6000fd5b505050506040513d601f19601f820116820180604052508101906127b09190612d1b565b5050565b601981815481106127c8576127c7613705565b5b906000526020600020906006020160000160009054906101000a900460ff166127f057600080fd5b60006127106103e86019848154811061280c5761280b613705565b5b906000526020600020906006020160010154612828919061345b565b612832919061342a565b9050600260009054906101000a900473ffffffffffffffffffffffffffffffffffffffff1673ffffffffffffffffffffffffffffffffffffffff1663a9059cbb60008054906101000a900473ffffffffffffffffffffffffffffffffffffffff16836040518363ffffffff1660e01b81526004016128b19291906130a8565b602060405180830381600087803b1580156128cb57600080fd5b505af11580156128df573d6000803e3d6000fd5b505050506040513d601f19601f820116820180604052508101906129039190612d1b565b505050565b828054828255906000526020600020908101928215612944579160200282015b82811115612943578251825591602001919060010190612928565b5b50905061295191906129df565b5090565b8280548282559060005260206000209081019282156129ce579160200282015b828111156129cd5782518260006101000a81548173ffffffffffffffffffffffffffffffffffffffff021916908373ffffffffffffffffffffffffffffffffffffffff16021790555091602001919060010190612975565b5b5090506129db91906129df565b5090565b5b808211156129f85760008160009055506001016129e0565b5090565b6000612a0f612a0a84613333565b61330e565b90508083825260208201905082856020860282011115612a3257612a31613768565b5b60005b85811015612a625781612a488882612adc565b845260208401935060208301925050600181019050612a35565b5050509392505050565b6000612a7f612a7a8461335f565b61330e565b90508083825260208201905082856020860282011115612aa257612aa1613768565b5b60005b85811015612ad25781612ab88882612ba1565b845260208401935060208301925050600181019050612aa5565b5050509392505050565b600081359050612aeb8161392a565b92915050565b600081359050612b0081613941565b92915050565b600082601f830112612b1b57612b1a613763565b5b8135612b2b8482602086016129fc565b91505092915050565b600082601f830112612b4957612b48613763565b5b8135612b59848260208601612a6c565b91505092915050565b600081359050612b7181613958565b92915050565b600081519050612b8681613958565b92915050565b600081359050612b9b8161396f565b92915050565b600081359050612bb081613986565b92915050565b600081519050612bc581613986565b92915050565b600060208284031215612be157612be0613772565b5b6000612bef84828501612adc565b91505092915050565b600060208284031215612c0e57612c0d613772565b5b6000612c1c84828501612af1565b91505092915050565b60008060408385031215612c3c57612c3b613772565b5b6000612c4a85828601612adc565b9250506020612c5b85828601612adc565b9150509250929050565b60008060408385031215612c7c57612c7b613772565b5b6000612c8a85828601612adc565b9250506020612c9b85828601612ba1565b9150509250929050565b600060208284031215612cbb57612cba613772565b5b600082013567ffffffffffffffff811115612cd957612cd861376d565b5b612ce584828501612b34565b91505092915050565b600060208284031215612d0457612d03613772565b5b6000612d1284828501612b62565b91505092915050565b600060208284031215612d3157612d30613772565b5b6000612d3f84828501612b77565b91505092915050565b600060208284031215612d5e57612d5d613772565b5b6000612d6c84828501612b8c565b91505092915050565b600060208284031215612d8b57612d8a613772565b5b6000612d9984828501612ba1565b91505092915050565b600060208284031215612db857612db7613772565b5b6000612dc684828501612bb6565b91505092915050565b600080600060608486031215612de857612de7613772565b5b6000612df686828701612ba1565b935050602084013567ffffffffffffffff811115612e1757612e1661376d565b5b612e2386828701612b06565b925050604084013567ffffffffffffffff811115612e4457612e4361376d565b5b612e5086828701612b34565b9150509250925092565b60008060408385031215612e7157612e70613772565b5b6000612e7f85828601612ba1565b9250506020612e9085828601612ba1565b9150509250929050565b612ea38161356e565b82525050565b612eb2816134fb565b82525050565b612ec1816134e9565b82525050565b612ed08161350d565b82525050565b612edf81613519565b82525050565b612eee81613580565b82525050565b612efd81613592565b82525050565b612f0c816135a4565b82525050565b612f1b816135b6565b82525050565b612f2a816135c8565b82525050565b6000612f3d60178361338b565b9150612f4882613788565b602082019050919050565b6000612f6060358361338b565b9150612f6b826137b1565b604082019050919050565b6000612f8360278361338b565b9150612f8e82613800565b604082019050919050565b6000612fa660368361338b565b9150612fb18261384f565b604082019050919050565b6000612fc960188361338b565b9150612fd48261389e565b602082019050919050565b6000612fec60298361338b565b9150612ff7826138c7565b604082019050919050565b61300b81613536565b82525050565b61301a81613564565b82525050565b60006020820190506130356000830184612eb8565b92915050565b60006020820190506130506000830184612ea9565b92915050565b600060408201905061306b6000830185612ea9565b6130786020830184613011565b9392505050565b60006040820190506130946000830185612e9a565b6130a16020830184613011565b9392505050565b60006040820190506130bd6000830185612eb8565b6130ca6020830184613011565b9392505050565b60006020820190506130e66000830184612ec7565b92915050565b600060a0820190506131016000830188612ec7565b61310e6020830187612ec7565b61311b6040830186613011565b6131286060830185612ed6565b6131356080830184613011565b9695505050505050565b60006020820190506131546000830184612ee5565b92915050565b600060208201905061316f6000830184612ef4565b92915050565b600060208201905061318a6000830184612f03565b92915050565b60006020820190506131a56000830184612f12565b92915050565b60006020820190506131c06000830184612f21565b92915050565b600060208201905081810360008301526131df81612f30565b9050919050565b600060208201905081810360008301526131ff81612f53565b9050919050565b6000602082019050818103600083015261321f81612f76565b9050919050565b6000602082019050818103600083015261323f81612f99565b9050919050565b6000602082019050818103600083015261325f81612fbc565b9050919050565b6000602082019050818103600083015261327f81612fdf565b9050919050565b600060208201905061329b6000830184613002565b92915050565b60006020820190506132b66000830184613011565b92915050565b60006040820190506132d16000830185613011565b6132de6020830184613002565b9392505050565b60006040820190506132fa6000830185613011565b6133076020830184613011565b9392505050565b6000613318613329565b905061332482826135fe565b919050565b6000604051905090565b600067ffffffffffffffff82111561334e5761334d613734565b5b602082029050602081019050919050565b600067ffffffffffffffff82111561337a57613379613734565b5b602082029050602081019050919050565b600082825260208201905092915050565b60006133a782613536565b91506133b283613536565b92508261ffff038211156133c9576133c8613678565b5b828201905092915050565b60006133df82613564565b91506133ea83613564565b9250827fffffffffffffffffffffffffffffffffffffffffffffffffffffffffffffffff0382111561341f5761341e613678565b5b828201905092915050565b600061343582613564565b915061344083613564565b9250826134505761344f6136a7565b5b828204905092915050565b600061346682613564565b915061347183613564565b9250817fffffffffffffffffffffffffffffffffffffffffffffffffffffffffffffffff04831182151516156134aa576134a9613678565b5b828202905092915050565b60006134c082613564565b91506134cb83613564565b9250828210156134de576134dd613678565b5b828203905092915050565b60006134f482613544565b9050919050565b600061350682613544565b9050919050565b60008115159050919050565b6000819050919050565b600081905061353182613916565b919050565b600061ffff82169050919050565b600073ffffffffffffffffffffffffffffffffffffffff82169050919050565b6000819050919050565b6000613579826135da565b9050919050565b600061358b826135da565b9050919050565b600061359d826135da565b9050919050565b60006135af826135da565b9050919050565b60006135c1826135da565b9050919050565b60006135d382613523565b9050919050565b60006135e5826135ec565b9050919050565b60006135f782613544565b9050919050565b61360782613777565b810181811067ffffffffffffffff8211171561362657613625613734565b5b80604052505050565b600061363a82613564565b91507fffffffffffffffffffffffffffffffffffffffffffffffffffffffffffffffff82141561366d5761366c613678565b5b600182019050919050565b7f4e487b7100000000000000000000000000000000000000000000000000000000600052601160045260246000fd5b7f4e487b7100000000000000000000000000000000000000000000000000000000600052601260045260246000fd5b7f4e487b7100000000000000000000000000000000000000000000000000000000600052602160045260246000fd5b7f4e487b7100000000000000000000000000000000000000000000000000000000600052603260045260246000fd5b7f4e487b7100000000000000000000000000000000000000000000000000000000600052604160045260246000fd5b600080fd5b600080fd5b600080fd5b600080fd5b6000601f19601f8301169050919050565b7f566f74696e67206973207374696c6c206f6e676f696e67000000000000000000600082015250565b7f50726576696f757320546f6b656e206e6565647320746f206265206465706c6560008201527f746564206265666f726520746865206368616e67650000000000000000000000602082015250565b7f4f6e6c792074686520636c69656e742063616e20617070726f76652061206d6960008201527f6c6573746f6e6500000000000000000000000000000000000000000000000000602082015250565b7f4f6e6c792074686520736f757263696e67206c6561642063616e20726571756560008201527f7374207061796d656e742066726f6d20636c69656e7400000000000000000000602082015250565b7f736f75726365206f7220736f757263696e67204c656164210000000000000000600082015250565b7f4f6e6c792074686520736f757263696e67206c6561642063616e20616464206d60008201527f696c6573746f6e65730000000000000000000000000000000000000000000000602082015250565b60068110613927576139266136d6565b5b50565b613933816134e9565b811461393e57600080fd5b50565b61394a816134fb565b811461395557600080fd5b50565b6139618161350d565b811461396c57600080fd5b50565b61397881613519565b811461398357600080fd5b50565b61398f81613564565b811461399a57600080fd5b5056fea26469706673582212205646cdd17e27f9652eef8d7cd41552777521d7cd0177ad91f88a73a81d515e7764736f6c63430008070033a26469706673582212205ca63630df8cf062cb1d0e8b63ab1e797ab7d3a1d024603fa0e54a1b2a6d506e64736f6c6343000807003360806040523480156200001157600080fd5b5060405162001afc38038062001afc8339818101604052810190620000379190620001e4565b8181816003908051906020019062000051929190620000b6565b5080600490805190602001906200006a929190620000b6565b50505033600560006101000a81548173ffffffffffffffffffffffffffffffffffffffff021916908373ffffffffffffffffffffffffffffffffffffffff1602179055505050620003ed565b828054620000c490620002fe565b90600052602060002090601f016020900481019282620000e8576000855562000134565b82601f106200010357805160ff191683800117855562000134565b8280016001018555821562000134579182015b828111156200013357825182559160200191906001019062000116565b5b50905062000143919062000147565b5090565b5b808211156200016257600081600090555060010162000148565b5090565b60006200017d620001778462000292565b62000269565b9050828152602081018484840111156200019c576200019b620003cd565b5b620001a9848285620002c8565b509392505050565b600082601f830112620001c957620001c8620003c8565b5b8151620001db84826020860162000166565b91505092915050565b60008060408385031215620001fe57620001fd620003d7565b5b600083015167ffffffffffffffff8111156200021f576200021e620003d2565b5b6200022d85828601620001b1565b925050602083015167ffffffffffffffff811115620002515762000250620003d2565b5b6200025f85828601620001b1565b9150509250929050565b60006200027562000288565b905062000283828262000334565b919050565b6000604051905090565b600067ffffffffffffffff821115620002b057620002af62000399565b5b620002bb82620003dc565b9050602081019050919050565b60005b83811015620002e8578082015181840152602081019050620002cb565b83811115620002f8576000848401525b50505050565b600060028204905060018216806200031757607f821691505b602082108114156200032e576200032d6200036a565b5b50919050565b6200033f82620003dc565b810181811067ffffffffffffffff8211171562000361576200036062000399565b5b80604052505050565b7f4e487b7100000000000000000000000000000000000000000000000000000000600052602260045260246000fd5b7f4e487b7100000000000000000000000000000000000000000000000000000000600052604160045260246000fd5b600080fd5b600080fd5b600080fd5b600080fd5b6000601f19601f8301169050919050565b6116ff80620003fd6000396000f3fe608060405234801561001057600080fd5b50600436106100ea5760003560e01c806340c10f191161008c57806395d89b411161006657806395d89b411461025f578063a457c2d71461027d578063a9059cbb146102ad578063dd62ed3e146102dd576100ea565b806340c10f19146101f557806367e828bf1461021157806370a082311461022f576100ea565b806320e56dbd116100c857806320e56dbd1461015b57806323b872dd14610177578063313ce567146101a757806339509351146101c5576100ea565b806306fdde03146100ef578063095ea7b31461010d57806318160ddd1461013d575b600080fd5b6100f761030d565b6040516101049190611151565b60405180910390f35b61012760048036038101906101229190610f21565b61039f565b6040516101349190611136565b60405180910390f35b6101456103bd565b6040516101529190611273565b60405180910390f35b61017560048036038101906101709190610f61565b6103c7565b005b610191600480360381019061018c9190610ece565b6103d4565b60405161019e9190611136565b60405180910390f35b6101af6104cc565b6040516101bc919061128e565b60405180910390f35b6101df60048036038101906101da9190610f21565b6104d5565b6040516101ec9190611136565b60405180910390f35b61020f600480360381019061020a9190610f21565b610581565b005b6102196105e9565b604051610226919061111b565b60405180910390f35b61024960048036038101906102449190610e61565b61060f565b6040516102569190611273565b60405180910390f35b610267610657565b6040516102749190611151565b60405180910390f35b61029760048036038101906102929190610f21565b6106e9565b6040516102a49190611136565b60405180910390f35b6102c760048036038101906102c29190610f21565b6107d4565b6040516102d49190611136565b60405180910390f35b6102f760048036038101906102f29190610e8e565b6107f2565b6040516103049190611273565b60405180910390f35b60606003805461031c906113a3565b80601f0160208091040260200160405190810160405280929190818152602001828054610348906113a3565b80156103955780601f1061036a57610100808354040283529160200191610395565b820191906000526020600020905b81548152906001019060200180831161037857829003601f168201915b5050505050905090565b60006103b36103ac610879565b8484610881565b6001905092915050565b6000600254905090565b6103d13382610a4c565b50565b60006103e1848484610bac565b6000600160008673ffffffffffffffffffffffffffffffffffffffff1673ffffffffffffffffffffffffffffffffffffffff168152602001908152602001600020600061042c610879565b73ffffffffffffffffffffffffffffffffffffffff1673ffffffffffffffffffffffffffffffffffffffff168152602001908152602001600020549050828110156104ac576040517f08c379a00000000000000000000000000000000000000000000000000000000081526004016104a3906111d3565b60405180910390fd5b6104c0856104b8610879565b858403610881565b60019150509392505050565b60006012905090565b60006105776104e2610879565b8484600160006104f0610879565b73ffffffffffffffffffffffffffffffffffffffff1673ffffffffffffffffffffffffffffffffffffffff16815260200190815260200160002060008873ffffffffffffffffffffffffffffffffffffffff1673ffffffffffffffffffffffffffffffffffffffff1681526020019081526020016000205461057291906112c5565b610881565b6001905092915050565b600560009054906101000a900473ffffffffffffffffffffffffffffffffffffffff1673ffffffffffffffffffffffffffffffffffffffff163373ffffffffffffffffffffffffffffffffffffffff16146105db57600080fd5b6105e58282610a4c565b5050565b600560009054906101000a900473ffffffffffffffffffffffffffffffffffffffff1681565b60008060008373ffffffffffffffffffffffffffffffffffffffff1673ffffffffffffffffffffffffffffffffffffffff168152602001908152602001600020549050919050565b606060048054610666906113a3565b80601f0160208091040260200160405190810160405280929190818152602001828054610692906113a3565b80156106df5780601f106106b4576101008083540402835291602001916106df565b820191906000526020600020905b8154815290600101906020018083116106c257829003601f168201915b5050505050905090565b600080600160006106f8610879565b73ffffffffffffffffffffffffffffffffffffffff1673ffffffffffffffffffffffffffffffffffffffff16815260200190815260200160002060008573ffffffffffffffffffffffffffffffffffffffff1673ffffffffffffffffffffffffffffffffffffffff168152602001908152602001600020549050828110156107b5576040517f08c379a00000000000000000000000000000000000000000000000000000000081526004016107ac90611233565b60405180910390fd5b6107c96107c0610879565b85858403610881565b600191505092915050565b60006107e86107e1610879565b8484610bac565b6001905092915050565b6000600160008473ffffffffffffffffffffffffffffffffffffffff1673ffffffffffffffffffffffffffffffffffffffff16815260200190815260200160002060008373ffffffffffffffffffffffffffffffffffffffff1673ffffffffffffffffffffffffffffffffffffffff16815260200190815260200160002054905092915050565b600033905090565b600073ffffffffffffffffffffffffffffffffffffffff168373ffffffffffffffffffffffffffffffffffffffff1614156108f1576040517f08c379a00000000000000000000000000000000000000000000000000000000081526004016108e890611213565b60405180910390fd5b600073ffffffffffffffffffffffffffffffffffffffff168273ffffffffffffffffffffffffffffffffffffffff161415610961576040517f08c379a000000000000000000000000000000000000000000000000000000000815260040161095890611193565b60405180910390fd5b80600160008573ffffffffffffffffffffffffffffffffffffffff1673ffffffffffffffffffffffffffffffffffffffff16815260200190815260200160002060008473ffffffffffffffffffffffffffffffffffffffff1673ffffffffffffffffffffffffffffffffffffffff168152602001908152602001600020819055508173ffffffffffffffffffffffffffffffffffffffff168373ffffffffffffffffffffffffffffffffffffffff167f8c5be1e5ebec7d5bd14f71427d1e84f3dd0314c0f7b2291e5b200ac8c7c3b92583604051610a3f9190611273565b60405180910390a3505050565b600073ffffffffffffffffffffffffffffffffffffffff168273ffffffffffffffffffffffffffffffffffffffff161415610abc576040517f08c379a0000000000000000000000000000000000000000000000000000000008152600401610ab390611253565b60405180910390fd5b610ac860008383610e2d565b8060026000828254610ada91906112c5565b92505081905550806000808473ffffffffffffffffffffffffffffffffffffffff1673ffffffffffffffffffffffffffffffffffffffff1681526020019081526020016000206000828254610b2f91906112c5565b925050819055508173ffffffffffffffffffffffffffffffffffffffff16600073ffffffffffffffffffffffffffffffffffffffff167fddf252ad1be2c89b69c2b068fc378daa952ba7f163c4a11628f55a4df523b3ef83604051610b949190611273565b60405180910390a3610ba860008383610e32565b5050565b600073ffffffffffffffffffffffffffffffffffffffff168373ffffffffffffffffffffffffffffffffffffffff161415610c1c576040517f08c379a0000000000000000000000000000000000000000000000000000000008152600401610c13906111f3565b60405180910390fd5b600073ffffffffffffffffffffffffffffffffffffffff168273ffffffffffffffffffffffffffffffffffffffff161415610c8c576040517f08c379a0000000000000000000000000000000000000000000000000000000008152600401610c8390611173565b60405180910390fd5b610c97838383610e2d565b60008060008573ffffffffffffffffffffffffffffffffffffffff1673ffffffffffffffffffffffffffffffffffffffff16815260200190815260200160002054905081811015610d1d576040517f08c379a0000000000000000000000000000000000000000000000000000000008152600401610d14906111b3565b60405180910390fd5b8181036000808673ffffffffffffffffffffffffffffffffffffffff1673ffffffffffffffffffffffffffffffffffffffff16815260200190815260200160002081905550816000808573ffffffffffffffffffffffffffffffffffffffff1673ffffffffffffffffffffffffffffffffffffffff1681526020019081526020016000206000828254610db091906112c5565b925050819055508273ffffffffffffffffffffffffffffffffffffffff168473ffffffffffffffffffffffffffffffffffffffff167fddf252ad1be2c89b69c2b068fc378daa952ba7f163c4a11628f55a4df523b3ef84604051610e149190611273565b60405180910390a3610e27848484610e32565b50505050565b505050565b505050565b600081359050610e468161169b565b92915050565b600081359050610e5b816116b2565b92915050565b600060208284031215610e7757610e76611433565b5b6000610e8584828501610e37565b91505092915050565b60008060408385031215610ea557610ea4611433565b5b6000610eb385828601610e37565b9250506020610ec485828601610e37565b9150509250929050565b600080600060608486031215610ee757610ee6611433565b5b6000610ef586828701610e37565b9350506020610f0686828701610e37565b9250506040610f1786828701610e4c565b9150509250925092565b60008060408385031215610f3857610f37611433565b5b6000610f4685828601610e37565b9250506020610f5785828601610e4c565b9150509250929050565b600060208284031215610f7757610f76611433565b5b6000610f8584828501610e4c565b91505092915050565b610f978161131b565b82525050565b610fa68161132d565b82525050565b6000610fb7826112a9565b610fc181856112b4565b9350610fd1818560208601611370565b610fda81611438565b840191505092915050565b6000610ff26023836112b4565b9150610ffd82611449565b604082019050919050565b60006110156022836112b4565b915061102082611498565b604082019050919050565b60006110386026836112b4565b9150611043826114e7565b604082019050919050565b600061105b6028836112b4565b915061106682611536565b604082019050919050565b600061107e6025836112b4565b915061108982611585565b604082019050919050565b60006110a16024836112b4565b91506110ac826115d4565b604082019050919050565b60006110c46025836112b4565b91506110cf82611623565b604082019050919050565b60006110e7601f836112b4565b91506110f282611672565b602082019050919050565b61110681611359565b82525050565b61111581611363565b82525050565b60006020820190506111306000830184610f8e565b92915050565b600060208201905061114b6000830184610f9d565b92915050565b6000602082019050818103600083015261116b8184610fac565b905092915050565b6000602082019050818103600083015261118c81610fe5565b9050919050565b600060208201905081810360008301526111ac81611008565b9050919050565b600060208201905081810360008301526111cc8161102b565b9050919050565b600060208201905081810360008301526111ec8161104e565b9050919050565b6000602082019050818103600083015261120c81611071565b9050919050565b6000602082019050818103600083015261122c81611094565b9050919050565b6000602082019050818103600083015261124c816110b7565b9050919050565b6000602082019050818103600083015261126c816110da565b9050919050565b600060208201905061128860008301846110fd565b92915050565b60006020820190506112a3600083018461110c565b92915050565b600081519050919050565b600082825260208201905092915050565b60006112d082611359565b91506112db83611359565b9250827fffffffffffffffffffffffffffffffffffffffffffffffffffffffffffffffff038211156113105761130f6113d5565b5b828201905092915050565b600061132682611339565b9050919050565b60008115159050919050565b600073ffffffffffffffffffffffffffffffffffffffff82169050919050565b6000819050919050565b600060ff82169050919050565b60005b8381101561138e578082015181840152602081019050611373565b8381111561139d576000848401525b50505050565b600060028204905060018216806113bb57607f821691505b602082108114156113cf576113ce611404565b5b50919050565b7f4e487b7100000000000000000000000000000000000000000000000000000000600052601160045260246000fd5b7f4e487b7100000000000000000000000000000000000000000000000000000000600052602260045260246000fd5b600080fd5b6000601f19601f8301169050919050565b7f45524332303a207472616e7366657220746f20746865207a65726f206164647260008201527f6573730000000000000000000000000000000000000000000000000000000000602082015250565b7f45524332303a20617070726f766520746f20746865207a65726f20616464726560008201527f7373000000000000000000000000000000000000000000000000000000000000602082015250565b7f45524332303a207472616e7366657220616d6f756e742065786365656473206260008201527f616c616e63650000000000000000000000000000000000000000000000000000602082015250565b7f45524332303a207472616e7366657220616d6f756e742065786365656473206160008201527f6c6c6f77616e6365000000000000000000000000000000000000000000000000602082015250565b7f45524332303a207472616e736665722066726f6d20746865207a65726f20616460008201527f6472657373000000000000000000000000000000000000000000000000000000602082015250565b7f45524332303a20617070726f76652066726f6d20746865207a65726f2061646460008201527f7265737300000000000000000000000000000000000000000000000000000000602082015250565b7f45524332303a2064656372656173656420616c6c6f77616e63652062656c6f7760008201527f207a65726f000000000000000000000000000000000000000000000000000000602082015250565b7f45524332303a206d696e7420746f20746865207a65726f206164647265737300600082015250565b6116a48161131b565b81146116af57600080fd5b50565b6116bb81611359565b81146116c657600080fd5b5056fea264697066735822122039d3ba4f771f09b6d8eba8fa05ecd43944ed1a65d23b567b0409efd1a53adf6f64736f6c634300080700336080604052348015600f57600080fd5b50603f80601d6000396000f3fe6080604052600080fdfea26469706673582212202c3364c28b61185db0e1e5a52c114292673b00936d3798ce3b5cb468bc02e05d64736f6c63430008070033",
  "linkReferences": {},
  "deployedLinkReferences": {}
}