{
  "_format": "hh-sol-artifact-1",
  "contractName": "Source",
  "sourceName": "contracts/DAO/DAO.sol",
  "abi": [
    {
      "inputs": [
        {
          "internalType": "address",
          "name": "votingContract",
          "type": "address"
        },
        {
          "internalType": "string",
          "name": "name",
          "type": "string"
        },
        {
          "internalType": "string",
          "name": "symbol",
          "type": "string"
        }
      ],
      "stateMutability": "nonpayable",
      "type": "constructor"
    },
    {
      "anonymous": false,
      "inputs": [
        {
          "indexed": false,
          "internalType": "address",
          "name": "_project",
          "type": "address"
        }
      ],
      "name": "ProjectCreated",
      "type": "event"
    },
    {
      "inputs": [
        {
          "internalType": "address",
          "name": "_erc20TokenAddress",
          "type": "address"
        }
      ],
      "name": "addPaymentToken",
      "outputs": [],
      "stateMutability": "nonpayable",
      "type": "function"
    },
    {
      "inputs": [],
      "name": "arbitrationEscrow",
      "outputs": [
        {
          "internalType": "contract ArbitrationEscrow",
          "name": "",
          "type": "address"
        }
      ],
      "stateMutability": "view",
      "type": "function"
    },
    {
      "inputs": [],
      "name": "burnRep",
      "outputs": [],
      "stateMutability": "nonpayable",
      "type": "function"
    },
    {
      "inputs": [],
      "name": "changePaymentInterval",
      "outputs": [],
      "stateMutability": "nonpayable",
      "type": "function"
    },
    {
      "inputs": [],
      "name": "clientProjectFactory",
      "outputs": [
        {
          "internalType": "contract IClientProjectFactory",
          "name": "",
          "type": "address"
        }
      ],
      "stateMutability": "view",
      "type": "function"
    },
    {
      "inputs": [
        {
          "internalType": "uint256",
          "name": "",
          "type": "uint256"
        }
      ],
      "name": "clientProjects",
      "outputs": [
        {
          "internalType": "address",
          "name": "",
          "type": "address"
        }
      ],
      "stateMutability": "view",
      "type": "function"
    },
    {
      "inputs": [
        {
          "internalType": "address payable",
          "name": "_client",
          "type": "address"
        },
        {
          "internalType": "address payable",
          "name": "_arbiter",
          "type": "address"
        }
      ],
      "name": "createClientProject",
      "outputs": [],
      "stateMutability": "nonpayable",
      "type": "function"
    },
    {
      "inputs": [
        {
          "internalType": "uint256",
          "name": "_requestedAmount",
          "type": "uint256"
        }
      ],
      "name": "createInternalProject",
      "outputs": [],
      "stateMutability": "nonpayable",
      "type": "function"
    },
    {
      "inputs": [],
      "name": "defaultPaymentToken",
      "outputs": [
        {
          "internalType": "contract IERC20",
          "name": "",
          "type": "address"
        }
      ],
      "stateMutability": "view",
      "type": "function"
    },
    {
      "inputs": [],
      "name": "getStartPaymentTimer",
      "outputs": [
        {
          "internalType": "uint256",
          "name": "",
          "type": "uint256"
        }
      ],
      "stateMutability": "view",
      "type": "function"
    },
    {
      "inputs": [],
      "name": "internalProjectFactory",
      "outputs": [
        {
          "internalType": "contract IInternalProjectFactory",
          "name": "",
          "type": "address"
        }
      ],
      "stateMutability": "view",
      "type": "function"
    },
    {
      "inputs": [
        {
          "internalType": "uint256",
          "name": "",
          "type": "uint256"
        }
      ],
      "name": "internalProjects",
      "outputs": [
        {
          "internalType": "address",
          "name": "",
          "type": "address"
        }
      ],
      "stateMutability": "view",
      "type": "function"
    },
    {
      "inputs": [
        {
          "internalType": "address",
          "name": "_project",
          "type": "address"
        }
      ],
      "name": "liquidateInternalProject",
      "outputs": [],
      "stateMutability": "nonpayable",
      "type": "function"
    },
    {
      "inputs": [
        {
          "internalType": "uint256",
          "name": "_amount",
          "type": "uint256"
        }
      ],
      "name": "mintRep",
      "outputs": [],
      "stateMutability": "nonpayable",
      "type": "function"
    },
    {
      "inputs": [
        {
          "internalType": "address payable",
          "name": "payee",
          "type": "address"
        },
        {
          "internalType": "uint256",
          "name": "amount",
          "type": "uint256"
        }
      ],
      "name": "mintRepTokens",
      "outputs": [],
      "stateMutability": "nonpayable",
      "type": "function"
    },
    {
      "inputs": [],
      "name": "numberOfProjects",
      "outputs": [
        {
          "internalType": "uint256",
          "name": "",
          "type": "uint256"
        }
      ],
      "stateMutability": "view",
      "type": "function"
    },
    {
      "inputs": [],
      "name": "paymentInterval",
      "outputs": [
        {
          "internalType": "uint256",
          "name": "",
          "type": "uint256"
        }
      ],
      "stateMutability": "view",
      "type": "function"
    },
    {
      "inputs": [
        {
          "internalType": "uint256",
          "name": "",
          "type": "uint256"
        }
      ],
      "name": "paymentTokens",
      "outputs": [
        {
          "internalType": "address",
          "name": "",
          "type": "address"
        }
      ],
      "stateMutability": "view",
      "type": "function"
    },
    {
      "inputs": [],
      "name": "payout",
      "outputs": [],
      "stateMutability": "nonpayable",
      "type": "function"
    },
    {
      "inputs": [
        {
          "internalType": "address",
          "name": "_erc20TokenAddress",
          "type": "address"
        }
      ],
      "name": "removePaymentToken",
      "outputs": [],
      "stateMutability": "nonpayable",
      "type": "function"
    },
    {
      "inputs": [],
      "name": "repToken",
      "outputs": [
        {
          "internalType": "contract RepToken",
          "name": "",
          "type": "address"
        }
      ],
      "stateMutability": "view",
      "type": "function"
    },
    {
      "inputs": [
        {
          "internalType": "address",
          "name": "_erc20TokenAddress",
          "type": "address"
        }
      ],
      "name": "setDefaultPaymentToken",
      "outputs": [],
      "stateMutability": "nonpayable",
      "type": "function"
    },
    {
      "inputs": [
        {
          "internalType": "address",
          "name": "_clientProjectFactory",
          "type": "address"
        },
        {
          "internalType": "address",
          "name": "_internalProjectFactory",
          "type": "address"
        }
      ],
      "name": "setDeploymentFactories",
      "outputs": [],
      "stateMutability": "nonpayable",
      "type": "function"
    },
    {
      "inputs": [],
      "name": "setStartPaymentTimer",
      "outputs": [],
      "stateMutability": "nonpayable",
      "type": "function"
    },
    {
      "inputs": [],
      "name": "startPaymentTimer",
      "outputs": [
        {
          "internalType": "uint256",
          "name": "",
          "type": "uint256"
        }
      ],
      "stateMutability": "view",
      "type": "function"
    },
    {
      "inputs": [
        {
          "internalType": "uint256",
          "name": "_amount",
          "type": "uint256"
        }
      ],
      "name": "transfer",
      "outputs": [],
      "stateMutability": "nonpayable",
      "type": "function"
    },
    {
      "inputs": [],
      "name": "voting",
      "outputs": [
        {
          "internalType": "contract IVoting",
          "name": "",
          "type": "address"
        }
      ],
      "stateMutability": "view",
      "type": "function"
    },
    {
      "inputs": [],
      "name": "votingDuration",
      "outputs": [
        {
          "internalType": "uint256",
          "name": "",
          "type": "uint256"
        }
      ],
      "stateMutability": "view",
      "type": "function"
    }
  ],
  "bytecode": "0x608060405262054600600c553480156200001857600080fd5b506040516200420c3803806200420c83398181016040528101906200003e919062000282565b826000806101000a81548173ffffffffffffffffffffffffffffffffffffffff021916908373ffffffffffffffffffffffffffffffffffffffff16021790555081816040516200008e90620001d2565b6200009b9291906200035d565b604051809103906000f080158015620000b8573d6000803e3d6000fd5b50600160006101000a81548173ffffffffffffffffffffffffffffffffffffffff021916908373ffffffffffffffffffffffffffffffffffffffff1602179055506040516200010790620001e0565b604051809103906000f08015801562000124573d6000803e3d6000fd5b50600260006101000a81548173ffffffffffffffffffffffffffffffffffffffff021916908373ffffffffffffffffffffffffffffffffffffffff160217905550600560009080600181540180825580915050600190039060005260206000200160009091909190916101000a81548173ffffffffffffffffffffffffffffffffffffffff021916908373ffffffffffffffffffffffffffffffffffffffff16021790555050505062000521565b611eba80620022f683390190565b605c80620041b083390190565b600062000204620001fe84620003c1565b62000398565b905082815260208101848484011115620002235762000222620004e7565b5b6200023084828562000447565b509392505050565b600081519050620002498162000507565b92915050565b600082601f830112620002675762000266620004e2565b5b815162000279848260208601620001ed565b91505092915050565b6000806000606084860312156200029e576200029d620004f1565b5b6000620002ae8682870162000238565b935050602084015167ffffffffffffffff811115620002d257620002d1620004ec565b5b620002e0868287016200024f565b925050604084015167ffffffffffffffff811115620003045762000303620004ec565b5b62000312868287016200024f565b9150509250925092565b60006200032982620003f7565b62000335818562000402565b93506200034781856020860162000447565b6200035281620004f6565b840191505092915050565b600060408201905081810360008301526200037981856200031c565b905081810360208301526200038f81846200031c565b90509392505050565b6000620003a4620003b7565b9050620003b282826200047d565b919050565b6000604051905090565b600067ffffffffffffffff821115620003df57620003de620004b3565b5b620003ea82620004f6565b9050602081019050919050565b600081519050919050565b600082825260208201905092915050565b6000620004208262000427565b9050919050565b600073ffffffffffffffffffffffffffffffffffffffff82169050919050565b60005b83811015620004675780820151818401526020810190506200044a565b8381111562000477576000848401525b50505050565b6200048882620004f6565b810181811067ffffffffffffffff82111715620004aa57620004a9620004b3565b5b80604052505050565b7f4e487b7100000000000000000000000000000000000000000000000000000000600052604160045260246000fd5b600080fd5b600080fd5b600080fd5b600080fd5b6000601f19601f8301169050919050565b620005128162000413565b81146200051e57600080fd5b50565b611dc580620005316000396000f3fe608060405234801561001057600080fd5b50600436106101c45760003560e01c80638005bc95116100f9578063bca0adcb11610097578063db5e4c7f11610071578063db5e4c7f1461045b578063de66084114610479578063f74b059e146104a9578063fce1ccca146104c5576101c4565b8063bca0adcb14610419578063cc694fd714610435578063d98d79551461043f576101c4565b806398ba130b116100d357806398ba130b146103935780639ca09d1c146103c35780639cc52b5d146103df578063a5125421146103fd576101c4565b80638005bc951461033d57806382d6ddff146103595780638a14ae8a14610375576101c4565b8063360610811161016657806350fa62e31161014057806350fa62e3146102c75780635ab2ec0d146102f757806363bd1d4a146103155780636412173e1461031f576101c4565b80633606108114610297578063376a2873146102a15780634a7dc8e0146102ab576101c4565b80631c0701df116101a25780631c0701df1461021f5780631cc1cf461461023d57806329034a5c1461025b5780632fee8e3e14610279576101c4565b806312514bba146101c9578063132002fc146101e55780631b6405fe14610203575b600080fd5b6101e360048036038101906101de9190611691565b6104e3565b005b6101ed6105ec565b6040516101fa9190611a03565b60405180910390f35b61021d600480360381019061021891906115a4565b6105f2565b005b610227610813565b6040516102349190611a03565b60405180910390f35b61024561081d565b6040516102529190611a03565b60405180910390f35b610263610823565b60405161027091906119a8565b60405180910390f35b610281610849565b60405161028e9190611921565b60405180910390f35b61029f61086f565b005b6102a9610a00565b005b6102c560048036038101906102c0919061154a565b610a02565b005b6102e160048036038101906102dc9190611691565b610b3f565b6040516102ee91906117c7565b60405180910390f35b6102ff610b7e565b60405161030c9190611972565b60405180910390f35b61031d610ba4565b005b610327610c92565b6040516103349190611957565b60405180910390f35b6103576004803603810190610352919061154a565b610cb8565b005b610373600480360381019061036e9190611691565b610d1b565b005b61037d610e03565b60405161038a9190611a03565b60405180910390f35b6103ad60048036038101906103a89190611691565b610e09565b6040516103ba91906117c7565b60405180910390f35b6103dd60048036038101906103d89190611691565b610e48565b005b6103e7611046565b6040516103f4919061193c565b60405180910390f35b6104176004803603810190610412919061154a565b61106c565b005b610433600480360381019061042e91906115e4565b611151565b005b61043d61123a565b005b61045960048036038101906104549190611624565b61123c565b005b610463611303565b6040516104709190611a03565b60405180910390f35b610493600480360381019061048e9190611691565b611309565b6040516104a091906117c7565b60405180910390f35b6104c360048036038101906104be919061154a565b611348565b005b6104cd611443565b6040516104da919061198d565b60405180910390f35b600b60003373ffffffffffffffffffffffffffffffffffffffff1673ffffffffffffffffffffffffffffffffffffffff16815260200190815260200160002060009054906101000a900460ff1661053957600080fd5b600660009054906101000a900473ffffffffffffffffffffffffffffffffffffffff1673ffffffffffffffffffffffffffffffffffffffff1663a9059cbb33836040518363ffffffff1660e01b81526004016105969291906118f8565b602060405180830381600087803b1580156105b057600080fd5b505af11580156105c4573d6000803e3d6000fd5b505050506040513d601f19601f820116820180604052508101906105e89190611664565b5050565b600c5481565b6000600360009054906101000a900473ffffffffffffffffffffffffffffffffffffffff1673ffffffffffffffffffffffffffffffffffffffff1663d9acec53338585600160009054906101000a900473ffffffffffffffffffffffffffffffffffffffff16600260009054906101000a900473ffffffffffffffffffffffffffffffffffffffff1660008054906101000a900473ffffffffffffffffffffffffffffffffffffffff16600660009054906101000a900473ffffffffffffffffffffffffffffffffffffffff16600c546040518963ffffffff1660e01b81526004016106e59897969594939291906117e2565b602060405180830381600087803b1580156106ff57600080fd5b505af1158015610713573d6000803e3d6000fd5b505050506040513d601f19601f820116820180604052508101906107379190611577565b90506008819080600181540180825580915050600190039060005260206000200160009091909190916101000a81548173ffffffffffffffffffffffffffffffffffffffff021916908373ffffffffffffffffffffffffffffffffffffffff1602179055506001600b60008373ffffffffffffffffffffffffffffffffffffffff1673ffffffffffffffffffffffffffffffffffffffff16815260200190815260200160002060006101000a81548160ff0219169083151502179055506001600a60008282546108079190611a2f565b92505081905550505050565b6000600e54905090565b600d5481565b600160009054906101000a900473ffffffffffffffffffffffffffffffffffffffff1681565b600260009054906101000a900473ffffffffffffffffffffffffffffffffffffffff1681565b600b60003373ffffffffffffffffffffffffffffffffffffffff1673ffffffffffffffffffffffffffffffffffffffff16815260200190815260200160002060009054906101000a900460ff166108c557600080fd5b600160009054906101000a900473ffffffffffffffffffffffffffffffffffffffff1673ffffffffffffffffffffffffffffffffffffffff16639dc29fac33600160009054906101000a900473ffffffffffffffffffffffffffffffffffffffff1673ffffffffffffffffffffffffffffffffffffffff166370a08231336040518263ffffffff1660e01b815260040161095f91906117c7565b60206040518083038186803b15801561097757600080fd5b505afa15801561098b573d6000803e3d6000fd5b505050506040513d601f19601f820116820180604052508101906109af91906116be565b6040518363ffffffff1660e01b81526004016109cc9291906118f8565b600060405180830381600087803b1580156109e657600080fd5b505af11580156109fa573d6000803e3d6000fd5b50505050565b565b6000600760008373ffffffffffffffffffffffffffffffffffffffff1673ffffffffffffffffffffffffffffffffffffffff1681526020019081526020016000205414610a84576040517f08c379a0000000000000000000000000000000000000000000000000000000008152600401610a7b906119e3565b60405180910390fd5b6005819080600181540180825580915050600190039060005260206000200160009091909190916101000a81548173ffffffffffffffffffffffffffffffffffffffff021916908373ffffffffffffffffffffffffffffffffffffffff1602179055506001600580549050610af99190611adf565b600760008373ffffffffffffffffffffffffffffffffffffffff1673ffffffffffffffffffffffffffffffffffffffff1681526020019081526020016000208190555050565b60088181548110610b4f57600080fd5b906000526020600020016000915054906101000a900473ffffffffffffffffffffffffffffffffffffffff1681565b600460009054906101000a900473ffffffffffffffffffffffffffffffffffffffff1681565b600d54600e5442610bb59190611adf565b11610bbf57600080fd5b60005b600980549050811015610c805760098181548110610be357610be2611c87565b5b9060005260206000200160009054906101000a900473ffffffffffffffffffffffffffffffffffffffff1673ffffffffffffffffffffffffffffffffffffffff16631b9265b86040518163ffffffff1660e01b8152600401600060405180830381600087803b158015610c5557600080fd5b505af1158015610c69573d6000803e3d6000fd5b505050508080610c7890611c0f565b915050610bc2565b5042600e81905550610c90611467565b565b600660009054906101000a900473ffffffffffffffffffffffffffffffffffffffff1681565b8073ffffffffffffffffffffffffffffffffffffffff16633ccfd60b6040518163ffffffff1660e01b8152600401600060405180830381600087803b158015610d0057600080fd5b505af1158015610d14573d6000803e3d6000fd5b5050505050565b600b60003373ffffffffffffffffffffffffffffffffffffffff1673ffffffffffffffffffffffffffffffffffffffff16815260200190815260200160002060009054906101000a900460ff16610d7157600080fd5b600160009054906101000a900473ffffffffffffffffffffffffffffffffffffffff1673ffffffffffffffffffffffffffffffffffffffff166340c10f1933836040518363ffffffff1660e01b8152600401610dce9291906118f8565b600060405180830381600087803b158015610de857600080fd5b505af1158015610dfc573d6000803e3d6000fd5b5050505050565b600e5481565b60098181548110610e1957600080fd5b906000526020600020016000915054906101000a900473ffffffffffffffffffffffffffffffffffffffff1681565b6000600460009054906101000a900473ffffffffffffffffffffffffffffffffffffffff1673ffffffffffffffffffffffffffffffffffffffff1663842d201a33600160009054906101000a900473ffffffffffffffffffffffffffffffffffffffff16600660009054906101000a900473ffffffffffffffffffffffffffffffffffffffff1660008054906101000a900473ffffffffffffffffffffffffffffffffffffffff16600c54600d54896040518863ffffffff1660e01b8152600401610f199796959493929190611860565b602060405180830381600087803b158015610f3357600080fd5b505af1158015610f47573d6000803e3d6000fd5b505050506040513d601f19601f82011682018060405250810190610f6b9190611577565b90506009819080600181540180825580915050600190039060005260206000200160009091909190916101000a81548173ffffffffffffffffffffffffffffffffffffffff021916908373ffffffffffffffffffffffffffffffffffffffff1602179055506001600b60008373ffffffffffffffffffffffffffffffffffffffff1673ffffffffffffffffffffffffffffffffffffffff16815260200190815260200160002060006101000a81548160ff0219169083151502179055506001600a600082825461103b9190611a2f565b925050819055505050565b600360009054906101000a900473ffffffffffffffffffffffffffffffffffffffff1681565b60006005600760008473ffffffffffffffffffffffffffffffffffffffff1673ffffffffffffffffffffffffffffffffffffffff16815260200190815260200160002054815481106110c1576110c0611c87565b5b9060005260206000200160006101000a81548173ffffffffffffffffffffffffffffffffffffffff021916908373ffffffffffffffffffffffffffffffffffffffff1602179055506000600760008373ffffffffffffffffffffffffffffffffffffffff1673ffffffffffffffffffffffffffffffffffffffff1681526020019081526020016000208190555050565b600b60003373ffffffffffffffffffffffffffffffffffffffff1673ffffffffffffffffffffffffffffffffffffffff16815260200190815260200160002060009054906101000a900460ff166111a757600080fd5b600160009054906101000a900473ffffffffffffffffffffffffffffffffffffffff1673ffffffffffffffffffffffffffffffffffffffff166340c10f1983836040518363ffffffff1660e01b81526004016112049291906118cf565b600060405180830381600087803b15801561121e57600080fd5b505af1158015611232573d6000803e3d6000fd5b505050505050565b565b600061127d576040517f08c379a0000000000000000000000000000000000000000000000000000000008152600401611274906119c3565b60405180910390fd5b81600360006101000a81548173ffffffffffffffffffffffffffffffffffffffff021916908373ffffffffffffffffffffffffffffffffffffffff16021790555080600460006101000a81548173ffffffffffffffffffffffffffffffffffffffff021916908373ffffffffffffffffffffffffffffffffffffffff1602179055505050565b600a5481565b6005818154811061131957600080fd5b906000526020600020016000915054906101000a900473ffffffffffffffffffffffffffffffffffffffff1681565b600061135357600080fd5b80600660006101000a81548173ffffffffffffffffffffffffffffffffffffffff021916908373ffffffffffffffffffffffffffffffffffffffff1602179055506000600760008373ffffffffffffffffffffffffffffffffffffffff1673ffffffffffffffffffffffffffffffffffffffff168152602001908152602001600020541115611440576005819080600181540180825580915050600190039060005260206000200160009091909190916101000a81548173ffffffffffffffffffffffffffffffffffffffff021916908373ffffffffffffffffffffffffffffffffffffffff1602179055505b50565b60008054906101000a900473ffffffffffffffffffffffffffffffffffffffff1681565b6000156114ca576000620f424090503373ffffffffffffffffffffffffffffffffffffffff166108fc3a8361149c9190611a85565b9081150290604051600060405180830381858888f193505050501580156114c7573d6000803e3d6000fd5b50505b565b6000813590506114db81611d33565b92915050565b6000815190506114f081611d33565b92915050565b60008135905061150581611d4a565b92915050565b60008151905061151a81611d61565b92915050565b60008135905061152f81611d78565b92915050565b60008151905061154481611d78565b92915050565b6000602082840312156115605761155f611cb6565b5b600061156e848285016114cc565b91505092915050565b60006020828403121561158d5761158c611cb6565b5b600061159b848285016114e1565b91505092915050565b600080604083850312156115bb576115ba611cb6565b5b60006115c9858286016114f6565b92505060206115da858286016114f6565b9150509250929050565b600080604083850312156115fb576115fa611cb6565b5b6000611609858286016114f6565b925050602061161a85828601611520565b9150509250929050565b6000806040838503121561163b5761163a611cb6565b5b6000611649858286016114cc565b925050602061165a858286016114cc565b9150509250929050565b60006020828403121561167a57611679611cb6565b5b60006116888482850161150b565b91505092915050565b6000602082840312156116a7576116a6611cb6565b5b60006116b584828501611520565b91505092915050565b6000602082840312156116d4576116d3611cb6565b5b60006116e284828501611535565b91505092915050565b6116f481611b6d565b82525050565b61170381611b25565b82525050565b61171281611b13565b82525050565b61172181611b7f565b82525050565b61173081611b91565b82525050565b61173f81611ba3565b82525050565b61174e81611bb5565b82525050565b61175d81611bc7565b82525050565b61176c81611bd9565b82525050565b600061177f602583611a1e565b915061178a82611cbb565b604082019050919050565b60006117a2601083611a1e565b91506117ad82611d0a565b602082019050919050565b6117c181611b63565b82525050565b60006020820190506117dc6000830184611709565b92915050565b6000610100820190506117f8600083018b6116fa565b611805602083018a6116eb565b61181260408301896116eb565b61181f6060830188611709565b61182c6080830187611709565b61183960a0830186611709565b61184660c0830185611709565b61185360e08301846117b8565b9998505050505050505050565b600060e082019050611875600083018a6116fa565b6118826020830189611709565b61188f6040830188611709565b61189c6060830187611709565b6118a960808301866117b8565b6118b660a08301856117b8565b6118c360c08301846117b8565b98975050505050505050565b60006040820190506118e460008301856116eb565b6118f160208301846117b8565b9392505050565b600060408201905061190d6000830185611709565b61191a60208301846117b8565b9392505050565b60006020820190506119366000830184611718565b92915050565b60006020820190506119516000830184611727565b92915050565b600060208201905061196c6000830184611736565b92915050565b60006020820190506119876000830184611745565b92915050565b60006020820190506119a26000830184611754565b92915050565b60006020820190506119bd6000830184611763565b92915050565b600060208201905081810360008301526119dc81611772565b9050919050565b600060208201905081810360008301526119fc81611795565b9050919050565b6000602082019050611a1860008301846117b8565b92915050565b600082825260208201905092915050565b6000611a3a82611b63565b9150611a4583611b63565b9250827fffffffffffffffffffffffffffffffffffffffffffffffffffffffffffffffff03821115611a7a57611a79611c58565b5b828201905092915050565b6000611a9082611b63565b9150611a9b83611b63565b9250817fffffffffffffffffffffffffffffffffffffffffffffffffffffffffffffffff0483118215151615611ad457611ad3611c58565b5b828202905092915050565b6000611aea82611b63565b9150611af583611b63565b925082821015611b0857611b07611c58565b5b828203905092915050565b6000611b1e82611b43565b9050919050565b6000611b3082611b43565b9050919050565b60008115159050919050565b600073ffffffffffffffffffffffffffffffffffffffff82169050919050565b6000819050919050565b6000611b7882611beb565b9050919050565b6000611b8a82611beb565b9050919050565b6000611b9c82611beb565b9050919050565b6000611bae82611beb565b9050919050565b6000611bc082611beb565b9050919050565b6000611bd282611beb565b9050919050565b6000611be482611beb565b9050919050565b6000611bf682611bfd565b9050919050565b6000611c0882611b43565b9050919050565b6000611c1a82611b63565b91507fffffffffffffffffffffffffffffffffffffffffffffffffffffffffffffffff821415611c4d57611c4c611c58565b5b600182019050919050565b7f4e487b7100000000000000000000000000000000000000000000000000000000600052601160045260246000fd5b7f4e487b7100000000000000000000000000000000000000000000000000000000600052603260045260246000fd5b600080fd5b7f2072657175697265732044414f20564f54452e20546f20626520696d706c656d60008201527f656e746564000000000000000000000000000000000000000000000000000000602082015250565b7f646f65736e742065786973742079657400000000000000000000000000000000600082015250565b611d3c81611b13565b8114611d4757600080fd5b50565b611d5381611b25565b8114611d5e57600080fd5b50565b611d6a81611b37565b8114611d7557600080fd5b50565b611d8181611b63565b8114611d8c57600080fd5b5056fea26469706673582212206019e58a196d8401339428df877aba959943450661c5ff2cd751c9bb2a9645c764736f6c6343000807003360806040523480156200001157600080fd5b5060405162001eba38038062001eba8339818101604052810190620000379190620001e4565b8181816003908051906020019062000051929190620000b6565b5080600490805190602001906200006a929190620000b6565b50505033600560006101000a81548173ffffffffffffffffffffffffffffffffffffffff021916908373ffffffffffffffffffffffffffffffffffffffff1602179055505050620003ed565b828054620000c490620002fe565b90600052602060002090601f016020900481019282620000e8576000855562000134565b82601f106200010357805160ff191683800117855562000134565b8280016001018555821562000134579182015b828111156200013357825182559160200191906001019062000116565b5b50905062000143919062000147565b5090565b5b808211156200016257600081600090555060010162000148565b5090565b60006200017d620001778462000292565b62000269565b9050828152602081018484840111156200019c576200019b620003cd565b5b620001a9848285620002c8565b509392505050565b600082601f830112620001c957620001c8620003c8565b5b8151620001db84826020860162000166565b91505092915050565b60008060408385031215620001fe57620001fd620003d7565b5b600083015167ffffffffffffffff8111156200021f576200021e620003d2565b5b6200022d85828601620001b1565b925050602083015167ffffffffffffffff811115620002515762000250620003d2565b5b6200025f85828601620001b1565b9150509250929050565b60006200027562000288565b905062000283828262000334565b919050565b6000604051905090565b600067ffffffffffffffff821115620002b057620002af62000399565b5b620002bb82620003dc565b9050602081019050919050565b60005b83811015620002e8578082015181840152602081019050620002cb565b83811115620002f8576000848401525b50505050565b600060028204905060018216806200031757607f821691505b602082108114156200032e576200032d6200036a565b5b50919050565b6200033f82620003dc565b810181811067ffffffffffffffff8211171562000361576200036062000399565b5b80604052505050565b7f4e487b7100000000000000000000000000000000000000000000000000000000600052602260045260246000fd5b7f4e487b7100000000000000000000000000000000000000000000000000000000600052604160045260246000fd5b600080fd5b600080fd5b600080fd5b600080fd5b6000601f19601f8301169050919050565b611abd80620003fd6000396000f3fe608060405234801561001057600080fd5b50600436106100f55760003560e01c806340c10f19116100975780639dc29fac116100665780639dc29fac14610288578063a457c2d7146102a4578063a9059cbb146102d4578063dd62ed3e14610304576100f5565b806340c10f191461020057806367e828bf1461021c57806370a082311461023a57806395d89b411461026a576100f5565b806320e56dbd116100d357806320e56dbd1461016657806323b872dd14610182578063313ce567146101b257806339509351146101d0576100f5565b806306fdde03146100fa578063095ea7b31461011857806318160ddd14610148575b600080fd5b610102610334565b60405161010f91906113fd565b60405180910390f35b610132600480360381019061012d9190611187565b6103c6565b60405161013f91906113e2565b60405180910390f35b6101506103e4565b60405161015d919061155f565b60405180910390f35b610180600480360381019061017b91906111c7565b6103ee565b005b61019c60048036038101906101979190611134565b6103fb565b6040516101a991906113e2565b60405180910390f35b6101ba6104f3565b6040516101c7919061157a565b60405180910390f35b6101ea60048036038101906101e59190611187565b6104fc565b6040516101f791906113e2565b60405180910390f35b61021a60048036038101906102159190611187565b6105a8565b005b610224610610565b60405161023191906113c7565b60405180910390f35b610254600480360381019061024f91906110c7565b610636565b604051610261919061155f565b60405180910390f35b61027261067e565b60405161027f91906113fd565b60405180910390f35b6102a2600480360381019061029d9190611187565b610710565b005b6102be60048036038101906102b99190611187565b610778565b6040516102cb91906113e2565b60405180910390f35b6102ee60048036038101906102e99190611187565b610863565b6040516102fb91906113e2565b60405180910390f35b61031e600480360381019061031991906110f4565b610881565b60405161032b919061155f565b60405180910390f35b606060038054610343906116c3565b80601f016020809104026020016040519081016040528092919081815260200182805461036f906116c3565b80156103bc5780601f10610391576101008083540402835291602001916103bc565b820191906000526020600020905b81548152906001019060200180831161039f57829003601f168201915b5050505050905090565b60006103da6103d3610908565b8484610910565b6001905092915050565b6000600254905090565b6103f83382610adb565b50565b6000610408848484610c3b565b6000600160008673ffffffffffffffffffffffffffffffffffffffff1673ffffffffffffffffffffffffffffffffffffffff1681526020019081526020016000206000610453610908565b73ffffffffffffffffffffffffffffffffffffffff1673ffffffffffffffffffffffffffffffffffffffff168152602001908152602001600020549050828110156104d3576040517f08c379a00000000000000000000000000000000000000000000000000000000081526004016104ca9061149f565b60405180910390fd5b6104e7856104df610908565b858403610910565b60019150509392505050565b60006012905090565b600061059e610509610908565b848460016000610517610908565b73ffffffffffffffffffffffffffffffffffffffff1673ffffffffffffffffffffffffffffffffffffffff16815260200190815260200160002060008873ffffffffffffffffffffffffffffffffffffffff1673ffffffffffffffffffffffffffffffffffffffff1681526020019081526020016000205461059991906115b1565b610910565b6001905092915050565b600560009054906101000a900473ffffffffffffffffffffffffffffffffffffffff1673ffffffffffffffffffffffffffffffffffffffff163373ffffffffffffffffffffffffffffffffffffffff161461060257600080fd5b61060c8282610adb565b5050565b600560009054906101000a900473ffffffffffffffffffffffffffffffffffffffff1681565b60008060008373ffffffffffffffffffffffffffffffffffffffff1673ffffffffffffffffffffffffffffffffffffffff168152602001908152602001600020549050919050565b60606004805461068d906116c3565b80601f01602080910402602001604051908101604052809291908181526020018280546106b9906116c3565b80156107065780601f106106db57610100808354040283529160200191610706565b820191906000526020600020905b8154815290600101906020018083116106e957829003601f168201915b5050505050905090565b600560009054906101000a900473ffffffffffffffffffffffffffffffffffffffff1673ffffffffffffffffffffffffffffffffffffffff163373ffffffffffffffffffffffffffffffffffffffff161461076a57600080fd5b6107748282610ebc565b5050565b60008060016000610787610908565b73ffffffffffffffffffffffffffffffffffffffff1673ffffffffffffffffffffffffffffffffffffffff16815260200190815260200160002060008573ffffffffffffffffffffffffffffffffffffffff1673ffffffffffffffffffffffffffffffffffffffff16815260200190815260200160002054905082811015610844576040517f08c379a000000000000000000000000000000000000000000000000000000000815260040161083b9061151f565b60405180910390fd5b61085861084f610908565b85858403610910565b600191505092915050565b6000610877610870610908565b8484610c3b565b6001905092915050565b6000600160008473ffffffffffffffffffffffffffffffffffffffff1673ffffffffffffffffffffffffffffffffffffffff16815260200190815260200160002060008373ffffffffffffffffffffffffffffffffffffffff1673ffffffffffffffffffffffffffffffffffffffff16815260200190815260200160002054905092915050565b600033905090565b600073ffffffffffffffffffffffffffffffffffffffff168373ffffffffffffffffffffffffffffffffffffffff161415610980576040517f08c379a0000000000000000000000000000000000000000000000000000000008152600401610977906114ff565b60405180910390fd5b600073ffffffffffffffffffffffffffffffffffffffff168273ffffffffffffffffffffffffffffffffffffffff1614156109f0576040517f08c379a00000000000000000000000000000000000000000000000000000000081526004016109e79061145f565b60405180910390fd5b80600160008573ffffffffffffffffffffffffffffffffffffffff1673ffffffffffffffffffffffffffffffffffffffff16815260200190815260200160002060008473ffffffffffffffffffffffffffffffffffffffff1673ffffffffffffffffffffffffffffffffffffffff168152602001908152602001600020819055508173ffffffffffffffffffffffffffffffffffffffff168373ffffffffffffffffffffffffffffffffffffffff167f8c5be1e5ebec7d5bd14f71427d1e84f3dd0314c0f7b2291e5b200ac8c7c3b92583604051610ace919061155f565b60405180910390a3505050565b600073ffffffffffffffffffffffffffffffffffffffff168273ffffffffffffffffffffffffffffffffffffffff161415610b4b576040517f08c379a0000000000000000000000000000000000000000000000000000000008152600401610b429061153f565b60405180910390fd5b610b5760008383611093565b8060026000828254610b6991906115b1565b92505081905550806000808473ffffffffffffffffffffffffffffffffffffffff1673ffffffffffffffffffffffffffffffffffffffff1681526020019081526020016000206000828254610bbe91906115b1565b925050819055508173ffffffffffffffffffffffffffffffffffffffff16600073ffffffffffffffffffffffffffffffffffffffff167fddf252ad1be2c89b69c2b068fc378daa952ba7f163c4a11628f55a4df523b3ef83604051610c23919061155f565b60405180910390a3610c3760008383611098565b5050565b600073ffffffffffffffffffffffffffffffffffffffff168373ffffffffffffffffffffffffffffffffffffffff161415610cab576040517f08c379a0000000000000000000000000000000000000000000000000000000008152600401610ca2906114df565b60405180910390fd5b600073ffffffffffffffffffffffffffffffffffffffff168273ffffffffffffffffffffffffffffffffffffffff161415610d1b576040517f08c379a0000000000000000000000000000000000000000000000000000000008152600401610d129061141f565b60405180910390fd5b610d26838383611093565b60008060008573ffffffffffffffffffffffffffffffffffffffff1673ffffffffffffffffffffffffffffffffffffffff16815260200190815260200160002054905081811015610dac576040517f08c379a0000000000000000000000000000000000000000000000000000000008152600401610da39061147f565b60405180910390fd5b8181036000808673ffffffffffffffffffffffffffffffffffffffff1673ffffffffffffffffffffffffffffffffffffffff16815260200190815260200160002081905550816000808573ffffffffffffffffffffffffffffffffffffffff1673ffffffffffffffffffffffffffffffffffffffff1681526020019081526020016000206000828254610e3f91906115b1565b925050819055508273ffffffffffffffffffffffffffffffffffffffff168473ffffffffffffffffffffffffffffffffffffffff167fddf252ad1be2c89b69c2b068fc378daa952ba7f163c4a11628f55a4df523b3ef84604051610ea3919061155f565b60405180910390a3610eb6848484611098565b50505050565b600073ffffffffffffffffffffffffffffffffffffffff168273ffffffffffffffffffffffffffffffffffffffff161415610f2c576040517f08c379a0000000000000000000000000000000000000000000000000000000008152600401610f23906114bf565b60405180910390fd5b610f3882600083611093565b60008060008473ffffffffffffffffffffffffffffffffffffffff1673ffffffffffffffffffffffffffffffffffffffff16815260200190815260200160002054905081811015610fbe576040517f08c379a0000000000000000000000000000000000000000000000000000000008152600401610fb59061143f565b60405180910390fd5b8181036000808573ffffffffffffffffffffffffffffffffffffffff1673ffffffffffffffffffffffffffffffffffffffff1681526020019081526020016000208190555081600260008282546110159190611607565b92505081905550600073ffffffffffffffffffffffffffffffffffffffff168373ffffffffffffffffffffffffffffffffffffffff167fddf252ad1be2c89b69c2b068fc378daa952ba7f163c4a11628f55a4df523b3ef8460405161107a919061155f565b60405180910390a361108e83600084611098565b505050565b505050565b505050565b6000813590506110ac81611a59565b92915050565b6000813590506110c181611a70565b92915050565b6000602082840312156110dd576110dc611753565b5b60006110eb8482850161109d565b91505092915050565b6000806040838503121561110b5761110a611753565b5b60006111198582860161109d565b925050602061112a8582860161109d565b9150509250929050565b60008060006060848603121561114d5761114c611753565b5b600061115b8682870161109d565b935050602061116c8682870161109d565b925050604061117d868287016110b2565b9150509250925092565b6000806040838503121561119e5761119d611753565b5b60006111ac8582860161109d565b92505060206111bd858286016110b2565b9150509250929050565b6000602082840312156111dd576111dc611753565b5b60006111eb848285016110b2565b91505092915050565b6111fd8161163b565b82525050565b61120c8161164d565b82525050565b600061121d82611595565b61122781856115a0565b9350611237818560208601611690565b61124081611758565b840191505092915050565b60006112586023836115a0565b915061126382611769565b604082019050919050565b600061127b6022836115a0565b9150611286826117b8565b604082019050919050565b600061129e6022836115a0565b91506112a982611807565b604082019050919050565b60006112c16026836115a0565b91506112cc82611856565b604082019050919050565b60006112e46028836115a0565b91506112ef826118a5565b604082019050919050565b60006113076021836115a0565b9150611312826118f4565b604082019050919050565b600061132a6025836115a0565b915061133582611943565b604082019050919050565b600061134d6024836115a0565b915061135882611992565b604082019050919050565b60006113706025836115a0565b915061137b826119e1565b604082019050919050565b6000611393601f836115a0565b915061139e82611a30565b602082019050919050565b6113b281611679565b82525050565b6113c181611683565b82525050565b60006020820190506113dc60008301846111f4565b92915050565b60006020820190506113f76000830184611203565b92915050565b600060208201905081810360008301526114178184611212565b905092915050565b600060208201905081810360008301526114388161124b565b9050919050565b600060208201905081810360008301526114588161126e565b9050919050565b6000602082019050818103600083015261147881611291565b9050919050565b60006020820190508181036000830152611498816112b4565b9050919050565b600060208201905081810360008301526114b8816112d7565b9050919050565b600060208201905081810360008301526114d8816112fa565b9050919050565b600060208201905081810360008301526114f88161131d565b9050919050565b6000602082019050818103600083015261151881611340565b9050919050565b6000602082019050818103600083015261153881611363565b9050919050565b6000602082019050818103600083015261155881611386565b9050919050565b600060208201905061157460008301846113a9565b92915050565b600060208201905061158f60008301846113b8565b92915050565b600081519050919050565b600082825260208201905092915050565b60006115bc82611679565b91506115c783611679565b9250827fffffffffffffffffffffffffffffffffffffffffffffffffffffffffffffffff038211156115fc576115fb6116f5565b5b828201905092915050565b600061161282611679565b915061161d83611679565b9250828210156116305761162f6116f5565b5b828203905092915050565b600061164682611659565b9050919050565b60008115159050919050565b600073ffffffffffffffffffffffffffffffffffffffff82169050919050565b6000819050919050565b600060ff82169050919050565b60005b838110156116ae578082015181840152602081019050611693565b838111156116bd576000848401525b50505050565b600060028204905060018216806116db57607f821691505b602082108114156116ef576116ee611724565b5b50919050565b7f4e487b7100000000000000000000000000000000000000000000000000000000600052601160045260246000fd5b7f4e487b7100000000000000000000000000000000000000000000000000000000600052602260045260246000fd5b600080fd5b6000601f19601f8301169050919050565b7f45524332303a207472616e7366657220746f20746865207a65726f206164647260008201527f6573730000000000000000000000000000000000000000000000000000000000602082015250565b7f45524332303a206275726e20616d6f756e7420657863656564732062616c616e60008201527f6365000000000000000000000000000000000000000000000000000000000000602082015250565b7f45524332303a20617070726f766520746f20746865207a65726f20616464726560008201527f7373000000000000000000000000000000000000000000000000000000000000602082015250565b7f45524332303a207472616e7366657220616d6f756e742065786365656473206260008201527f616c616e63650000000000000000000000000000000000000000000000000000602082015250565b7f45524332303a207472616e7366657220616d6f756e742065786365656473206160008201527f6c6c6f77616e6365000000000000000000000000000000000000000000000000602082015250565b7f45524332303a206275726e2066726f6d20746865207a65726f2061646472657360008201527f7300000000000000000000000000000000000000000000000000000000000000602082015250565b7f45524332303a207472616e736665722066726f6d20746865207a65726f20616460008201527f6472657373000000000000000000000000000000000000000000000000000000602082015250565b7f45524332303a20617070726f76652066726f6d20746865207a65726f2061646460008201527f7265737300000000000000000000000000000000000000000000000000000000602082015250565b7f45524332303a2064656372656173656420616c6c6f77616e63652062656c6f7760008201527f207a65726f000000000000000000000000000000000000000000000000000000602082015250565b7f45524332303a206d696e7420746f20746865207a65726f206164647265737300600082015250565b611a628161163b565b8114611a6d57600080fd5b50565b611a7981611679565b8114611a8457600080fd5b5056fea2646970667358221220137e71639e802e6b9b9d84e9a7961f881a5c612a5a60c3541b9e0b0f4562851464736f6c634300080700336080604052348015600f57600080fd5b50603f80601d6000396000f3fe6080604052600080fdfea2646970667358221220c139efeb2d1b64d42aa0d3796f49c67072e0819abc8274d7121cd986035f3a5364736f6c63430008070033",
  "linkReferences": {},
  "deployedLinkReferences": {}
}