{
  "_format": "hh-sol-artifact-1",
  "contractName": "Source",
  "sourceName": "contracts/DAO/DAO.sol",
  "abi": [
    {
      "inputs": [
        {
          "internalType": "address",
          "name": "votingContract",
          "type": "address"
        },
        {
          "internalType": "string",
          "name": "name",
          "type": "string"
        },
        {
          "internalType": "string",
          "name": "symbol",
          "type": "string"
        }
      ],
      "stateMutability": "nonpayable",
      "type": "constructor"
    },
    {
      "anonymous": false,
      "inputs": [
        {
          "indexed": false,
          "internalType": "address",
          "name": "_project",
          "type": "address"
        }
      ],
      "name": "ProjectCreated",
      "type": "event"
    },
    {
      "inputs": [
        {
          "internalType": "address",
          "name": "_erc20TokenAddress",
          "type": "address"
        }
      ],
      "name": "addPaymentToken",
      "outputs": [],
      "stateMutability": "nonpayable",
      "type": "function"
    },
    {
      "inputs": [],
      "name": "arbitrationEscrow",
      "outputs": [
        {
          "internalType": "contract ArbitrationEscrow",
          "name": "",
          "type": "address"
        }
      ],
      "stateMutability": "view",
      "type": "function"
    },
    {
      "inputs": [],
      "name": "burnRep",
      "outputs": [],
      "stateMutability": "nonpayable",
      "type": "function"
    },
    {
      "inputs": [
        {
          "internalType": "uint160",
          "name": "duration",
          "type": "uint160"
        }
      ],
      "name": "changePaymentInterval",
      "outputs": [],
      "stateMutability": "nonpayable",
      "type": "function"
    },
    {
      "inputs": [],
      "name": "clientProjectFactory",
      "outputs": [
        {
          "internalType": "contract IClientProjectFactory",
          "name": "",
          "type": "address"
        }
      ],
      "stateMutability": "view",
      "type": "function"
    },
    {
      "inputs": [
        {
          "internalType": "uint256",
          "name": "",
          "type": "uint256"
        }
      ],
      "name": "clientProjects",
      "outputs": [
        {
          "internalType": "address",
          "name": "",
          "type": "address"
        }
      ],
      "stateMutability": "view",
      "type": "function"
    },
    {
      "inputs": [
        {
          "internalType": "address payable",
          "name": "_client",
          "type": "address"
        },
        {
          "internalType": "address payable",
          "name": "_arbiter",
          "type": "address"
        }
      ],
      "name": "createClientProject",
      "outputs": [],
      "stateMutability": "nonpayable",
      "type": "function"
    },
    {
      "inputs": [
        {
          "internalType": "uint256",
          "name": "_requestedAmount",
          "type": "uint256"
        }
      ],
      "name": "createInternalProject",
      "outputs": [],
      "stateMutability": "nonpayable",
      "type": "function"
    },
    {
      "inputs": [
        {
          "internalType": "uint8",
          "name": "",
          "type": "uint8"
        }
      ],
      "name": "currentPoll",
      "outputs": [
        {
          "internalType": "uint256",
          "name": "index",
          "type": "uint256"
        },
        {
          "internalType": "uint8",
          "name": "status",
          "type": "uint8"
        }
      ],
      "stateMutability": "view",
      "type": "function"
    },
    {
      "inputs": [],
      "name": "defaultPaymentToken",
      "outputs": [
        {
          "internalType": "contract IERC20",
          "name": "",
          "type": "address"
        }
      ],
      "stateMutability": "view",
      "type": "function"
    },
    {
      "inputs": [],
      "name": "defaultPermilleThreshold",
      "outputs": [
        {
          "internalType": "uint120",
          "name": "",
          "type": "uint120"
        }
      ],
      "stateMutability": "view",
      "type": "function"
    },
    {
      "inputs": [],
      "name": "defaultVotingDuration",
      "outputs": [
        {
          "internalType": "uint40",
          "name": "",
          "type": "uint40"
        }
      ],
      "stateMutability": "view",
      "type": "function"
    },
    {
      "inputs": [],
      "name": "getStartPaymentTimer",
      "outputs": [
        {
          "internalType": "uint256",
          "name": "",
          "type": "uint256"
        }
      ],
      "stateMutability": "view",
      "type": "function"
    },
    {
      "inputs": [],
      "name": "initialVotingDuration",
      "outputs": [
        {
          "internalType": "uint256",
          "name": "",
          "type": "uint256"
        }
      ],
      "stateMutability": "view",
      "type": "function"
    },
    {
      "inputs": [],
      "name": "internalProjectFactory",
      "outputs": [
        {
          "internalType": "contract IInternalProjectFactory",
          "name": "",
          "type": "address"
        }
      ],
      "stateMutability": "view",
      "type": "function"
    },
    {
      "inputs": [
        {
          "internalType": "uint256",
          "name": "",
          "type": "uint256"
        }
      ],
      "name": "internalProjects",
      "outputs": [
        {
          "internalType": "address",
          "name": "",
          "type": "address"
        }
      ],
      "stateMutability": "view",
      "type": "function"
    },
    {
      "inputs": [
        {
          "internalType": "address",
          "name": "_project",
          "type": "address"
        }
      ],
      "name": "liquidateInternalProject",
      "outputs": [],
      "stateMutability": "nonpayable",
      "type": "function"
    },
    {
      "inputs": [
        {
          "internalType": "uint256",
          "name": "_amount",
          "type": "uint256"
        }
      ],
      "name": "mintRep",
      "outputs": [],
      "stateMutability": "nonpayable",
      "type": "function"
    },
    {
      "inputs": [
        {
          "internalType": "address payable",
          "name": "payee",
          "type": "address"
        },
        {
          "internalType": "uint256",
          "name": "amount",
          "type": "uint256"
        }
      ],
      "name": "mintRepTokens",
      "outputs": [],
      "stateMutability": "nonpayable",
      "type": "function"
    },
    {
      "inputs": [],
      "name": "numberOfProjects",
      "outputs": [
        {
          "internalType": "uint256",
          "name": "",
          "type": "uint256"
        }
      ],
      "stateMutability": "view",
      "type": "function"
    },
    {
      "inputs": [],
      "name": "paymentInterval",
      "outputs": [
        {
          "internalType": "uint256",
          "name": "",
          "type": "uint256"
        }
      ],
      "stateMutability": "view",
      "type": "function"
    },
    {
      "inputs": [
        {
          "internalType": "uint256",
          "name": "",
          "type": "uint256"
        }
      ],
      "name": "paymentTokens",
      "outputs": [
        {
          "internalType": "address",
          "name": "",
          "type": "address"
        }
      ],
      "stateMutability": "view",
      "type": "function"
    },
    {
      "inputs": [],
      "name": "payout",
      "outputs": [],
      "stateMutability": "nonpayable",
      "type": "function"
    },
    {
      "inputs": [
        {
          "internalType": "address",
          "name": "_erc20TokenAddress",
          "type": "address"
        }
      ],
      "name": "removePaymentToken",
      "outputs": [],
      "stateMutability": "nonpayable",
      "type": "function"
    },
    {
      "inputs": [],
      "name": "repToken",
      "outputs": [
        {
          "internalType": "contract RepToken",
          "name": "",
          "type": "address"
        }
      ],
      "stateMutability": "view",
      "type": "function"
    },
    {
      "inputs": [],
      "name": "resetPaymentTimer",
      "outputs": [],
      "stateMutability": "nonpayable",
      "type": "function"
    },
    {
      "inputs": [
        {
          "internalType": "address",
          "name": "_erc20TokenAddress",
          "type": "address"
        }
      ],
      "name": "setDefaultPaymentToken",
      "outputs": [],
      "stateMutability": "nonpayable",
      "type": "function"
    },
    {
      "inputs": [
        {
          "internalType": "address",
          "name": "_clientProjectFactory",
          "type": "address"
        },
        {
          "internalType": "address",
          "name": "_internalProjectFactory",
          "type": "address"
        }
      ],
      "name": "setDeploymentFactories",
      "outputs": [],
      "stateMutability": "nonpayable",
      "type": "function"
    },
    {
      "inputs": [],
      "name": "startPaymentTimer",
      "outputs": [
        {
          "internalType": "uint256",
          "name": "",
          "type": "uint256"
        }
      ],
      "stateMutability": "view",
      "type": "function"
    },
    {
      "inputs": [
        {
          "internalType": "uint256",
          "name": "_amount",
          "type": "uint256"
        }
      ],
      "name": "transfer",
      "outputs": [],
      "stateMutability": "nonpayable",
      "type": "function"
    },
    {
      "inputs": [],
      "name": "voting",
      "outputs": [
        {
          "internalType": "contract IVoting",
          "name": "",
          "type": "address"
        }
      ],
      "stateMutability": "view",
      "type": "function"
    }
  ],
  "bytecode": "0x608060405262093a80600e556101f4601060006101000a8154816effffffffffffffffffffffffffffff02191690836effffffffffffffffffffffffffffff160217905550620d2f006010600f6101000a81548164ffffffffff021916908364ffffffffff1602179055503480156200007757600080fd5b5060405162005bed38038062005bed83398181016040528101906200009d9190620002e8565b826000806101000a81548173ffffffffffffffffffffffffffffffffffffffff021916908373ffffffffffffffffffffffffffffffffffffffff1602179055508181604051620000ed9062000238565b620000fa929190620003c3565b604051809103906000f08015801562000117573d6000803e3d6000fd5b50600160006101000a81548173ffffffffffffffffffffffffffffffffffffffff021916908373ffffffffffffffffffffffffffffffffffffffff160217905550604051620001669062000246565b604051809103906000f08015801562000183573d6000803e3d6000fd5b50600260006101000a81548173ffffffffffffffffffffffffffffffffffffffff021916908373ffffffffffffffffffffffffffffffffffffffff160217905550600760009080600181540180825580915050600190039060005260206000200160009091909190916101000a81548173ffffffffffffffffffffffffffffffffffffffff021916908373ffffffffffffffffffffffffffffffffffffffff1602179055504260068190555050505062000587565b611eba8062003cd783390190565b605c8062005b9183390190565b60006200026a620002648462000427565b620003fe565b9050828152602081018484840111156200028957620002886200054d565b5b62000296848285620004ad565b509392505050565b600081519050620002af816200056d565b92915050565b600082601f830112620002cd57620002cc62000548565b5b8151620002df84826020860162000253565b91505092915050565b60008060006060848603121562000304576200030362000557565b5b600062000314868287016200029e565b935050602084015167ffffffffffffffff81111562000338576200033762000552565b5b6200034686828701620002b5565b925050604084015167ffffffffffffffff8111156200036a576200036962000552565b5b6200037886828701620002b5565b9150509250925092565b60006200038f826200045d565b6200039b818562000468565b9350620003ad818560208601620004ad565b620003b8816200055c565b840191505092915050565b60006040820190508181036000830152620003df818562000382565b90508181036020830152620003f5818462000382565b90509392505050565b60006200040a6200041d565b9050620004188282620004e3565b919050565b6000604051905090565b600067ffffffffffffffff82111562000445576200044462000519565b5b62000450826200055c565b9050602081019050919050565b600081519050919050565b600082825260208201905092915050565b600062000486826200048d565b9050919050565b600073ffffffffffffffffffffffffffffffffffffffff82169050919050565b60005b83811015620004cd578082015181840152602081019050620004b0565b83811115620004dd576000848401525b50505050565b620004ee826200055c565b810181811067ffffffffffffffff8211171562000510576200050f62000519565b5b80604052505050565b7f4e487b7100000000000000000000000000000000000000000000000000000000600052604160045260246000fd5b600080fd5b600080fd5b600080fd5b600080fd5b6000601f19601f8301169050919050565b620005788162000479565b81146200058457600080fd5b50565b61374080620005976000396000f3fe608060405234801561001057600080fd5b50600436106101e45760003560e01c806382d6ddff1161010f578063a5125421116100a2578063de66084111610071578063de660841146104e7578063e093ba8214610517578063f74b059e14610548578063fce1ccca14610564576101e4565b8063a512542114610475578063bca0adcb14610491578063d98d7955146104ad578063db5e4c7f146104c9576101e4565b80639ca09d1c116100de5780639ca09d1c146103ff5780639cc52b5d1461041b578063a09312fd14610439578063a3db1d2014610457576101e4565b806382d6ddff1461037757806382f072e8146103935780638a14ae8a146103b157806398ba130b146103cf576101e4565b80632fee8e3e116101875780635ab2ec0d116101565780635ab2ec0d1461031557806363bd1d4a146103335780636412173e1461033d5780638005bc951461035b576101e4565b80632fee8e3e146102a157806336061081146102bf5780634a7dc8e0146102c957806350fa62e3146102e5576101e4565b80631b6405fe116101c35780631b6405fe1461022b5780631c0701df146102475780631cc1cf461461026557806329034a5c14610283576101e4565b8062d117d4146101e957806312514bba1461020557806313f6d05c14610221575b600080fd5b61020360048036038101906101fe9190612d50565b610582565b005b61021f600480360381019061021a9190612d7d565b610b47565b005b610229610c50565b005b61024560048036038101906102409190612c63565b611137565b005b61024f611358565b60405161025c9190613237565b60405180910390f35b61026d611362565b60405161027a9190613237565b60405180910390f35b61028b611368565b604051610298919061315c565b60405180910390f35b6102a961138e565b6040516102b691906130d5565b60405180910390f35b6102c76113b4565b005b6102e360048036038101906102de9190612c09565b611545565b005b6102ff60048036038101906102fa9190612d7d565b611739565b60405161030c9190612f7b565b60405180910390f35b61031d611778565b60405161032a9190613126565b60405180910390f35b61033b61179e565b005b61034561188c565b604051610352919061310b565b60405180910390f35b61037560048036038101906103709190612c09565b6118b2565b005b610391600480360381019061038c9190612d7d565b611df2565b005b61039b611eda565b6040516103a8919061321c565b60405180910390f35b6103b9611efb565b6040516103c69190613237565b60405180910390f35b6103e960048036038101906103e49190612d7d565b611f01565b6040516103f69190612f7b565b60405180910390f35b61041960048036038101906104149190612d7d565b611f40565b005b61042361213e565b60405161043091906130f0565b60405180910390f35b610441612164565b60405161044e91906132c0565b60405180910390f35b61045f61217b565b60405161046c9190613237565b60405180910390f35b61048f600480360381019061048a9190612c09565b612181565b005b6104ab60048036038101906104a69190612ca3565b612266565b005b6104c760048036038101906104c29190612ce3565b61234f565b005b6104d1612416565b6040516104de9190613237565b60405180910390f35b61050160048036038101906104fc9190612d7d565b61241c565b60405161050e9190612f7b565b60405180910390f35b610531600480360381019061052c9190612dd7565b61245b565b60405161053f929190613297565b60405180910390f35b610562600480360381019061055d9190612c09565b61248c565b005b61056c612ac3565b6040516105799190613141565b60405180910390f35b6002816001600560008460ff1660ff16815260200190815260200160002060010160009054906101000a900460ff1660ff1611156105f5576040517f08c379a00000000000000000000000000000000000000000000000000000000081526004016105ec906131bc565b60405180910390fd5b6000600560008460ff1660ff16815260200190815260200160002060010160009054906101000a900460ff1660ff1614156108025760008054906101000a900473ffffffffffffffffffffffffffffffffffffffff1673ffffffffffffffffffffffffffffffffffffffff16637b6e5f9c60046010600f9054906101000a900464ffffffffff16601060009054906101000a90046effffffffffffffffffffffffffffff16600160009054906101000a900473ffffffffffffffffffffffffffffffffffffffff1673ffffffffffffffffffffffffffffffffffffffff166318160ddd6040518163ffffffff1660e01b815260040160206040518083038186803b15801561070257600080fd5b505afa158015610716573d6000803e3d6000fd5b505050506040513d601f19601f8201168201806040525081019061073a9190612daa565b6040518563ffffffff1660e01b81526004016107599493929190613177565b602060405180830381600087803b15801561077357600080fd5b505af1158015610787573d6000803e3d6000fd5b505050506040513d601f19601f820116820180604052508101906107ab9190612daa565b600560008460ff1660ff168152602001908152602001600020600001819055506001600560008460ff1660ff16815260200190815260200160002060010160006101000a81548160ff021916908360ff1602179055505b60008054906101000a900473ffffffffffffffffffffffffffffffffffffffff1673ffffffffffffffffffffffffffffffffffffffff1663e31f7b28600560008060ff168152602001908152602001600020600001543384600160009054906101000a900473ffffffffffffffffffffffffffffffffffffffff1673ffffffffffffffffffffffffffffffffffffffff166370a08231336040518263ffffffff1660e01b81526004016108b59190612f7b565b60206040518083038186803b1580156108cd57600080fd5b505afa1580156108e1573d6000803e3d6000fd5b505050506040513d601f19601f820116820180604052508101906109059190612daa565b6040518563ffffffff1660e01b81526004016109249493929190613252565b602060405180830381600087803b15801561093e57600080fd5b505af1158015610952573d6000803e3d6000fd5b505050506040513d601f19601f820116820180604052508101906109769190612e04565b600560008060ff16815260200190815260200160002060010160006101000a81548160ff021916908360ff1602179055506002600560008060ff16815260200190815260200160002060010160009054906101000a900460ff1660ff161415610ae75760008060009054906101000a900473ffffffffffffffffffffffffffffffffffffffff1673ffffffffffffffffffffffffffffffffffffffff1663b17979a6600560008060ff168152602001908152602001600020600001546040518263ffffffff1660e01b8152600401610a4e9190613237565b60206040518083038186803b158015610a6657600080fd5b505afa158015610a7a573d6000803e3d6000fd5b505050506040513d601f19601f82011682018060405250810190610a9e9190612c36565b90508073ffffffffffffffffffffffffffffffffffffffff16600f81905550506000600560008060ff16815260200190815260200160002060010160009054906101000a905050505b6003600560008060ff16815260200190815260200160002060010160009054906101000a900460ff1660ff161415610b42576000600560008060ff16815260200190815260200160002060010160009054906101000a905050505b505050565b600d60003373ffffffffffffffffffffffffffffffffffffffff1673ffffffffffffffffffffffffffffffffffffffff16815260200190815260200160002060009054906101000a900460ff16610b9d57600080fd5b600860009054906101000a900473ffffffffffffffffffffffffffffffffffffffff1673ffffffffffffffffffffffffffffffffffffffff1663a9059cbb33836040518363ffffffff1660e01b8152600401610bfa9291906130ac565b602060405180830381600087803b158015610c1457600080fd5b505af1158015610c28573d6000803e3d6000fd5b505050506040513d601f19601f82011682018060405250810190610c4c9190612d23565b5050565b600360006001600560008460ff1660ff16815260200190815260200160002060010160009054906101000a900460ff1660ff161115610cc4576040517f08c379a0000000000000000000000000000000000000000000000000000000008152600401610cbb906131bc565b60405180910390fd5b6000600560008460ff1660ff16815260200190815260200160002060010160009054906101000a900460ff1660ff161415610ed15760008054906101000a900473ffffffffffffffffffffffffffffffffffffffff1673ffffffffffffffffffffffffffffffffffffffff16637b6e5f9c60046010600f9054906101000a900464ffffffffff16601060009054906101000a90046effffffffffffffffffffffffffffff16600160009054906101000a900473ffffffffffffffffffffffffffffffffffffffff1673ffffffffffffffffffffffffffffffffffffffff166318160ddd6040518163ffffffff1660e01b815260040160206040518083038186803b158015610dd157600080fd5b505afa158015610de5573d6000803e3d6000fd5b505050506040513d601f19601f82011682018060405250810190610e099190612daa565b6040518563ffffffff1660e01b8152600401610e289493929190613177565b602060405180830381600087803b158015610e4257600080fd5b505af1158015610e56573d6000803e3d6000fd5b505050506040513d601f19601f82011682018060405250810190610e7a9190612daa565b600560008460ff1660ff168152602001908152602001600020600001819055506001600560008460ff1660ff16815260200190815260200160002060010160006101000a81548160ff021916908360ff1602179055505b60008054906101000a900473ffffffffffffffffffffffffffffffffffffffff1673ffffffffffffffffffffffffffffffffffffffff1663e31f7b28600560008060ff168152602001908152602001600020600001543384600160009054906101000a900473ffffffffffffffffffffffffffffffffffffffff1673ffffffffffffffffffffffffffffffffffffffff166370a08231336040518263ffffffff1660e01b8152600401610f849190612f7b565b60206040518083038186803b158015610f9c57600080fd5b505afa158015610fb0573d6000803e3d6000fd5b505050506040513d601f19601f82011682018060405250810190610fd49190612daa565b6040518563ffffffff1660e01b8152600401610ff39493929190613252565b602060405180830381600087803b15801561100d57600080fd5b505af1158015611021573d6000803e3d6000fd5b505050506040513d601f19601f820116820180604052508101906110459190612e04565b600560008060ff16815260200190815260200160002060010160006101000a81548160ff021916908360ff1602179055506002600560008060ff16815260200190815260200160002060010160009054906101000a900460ff1660ff1614156110d857426006819055506000600560008060ff16815260200190815260200160002060010160009054906101000a905050505b6003600560008060ff16815260200190815260200160002060010160009054906101000a900460ff1660ff161415611133576000600560008060ff16815260200190815260200160002060010160009054906101000a905050505b5050565b6000600360009054906101000a900473ffffffffffffffffffffffffffffffffffffffff1673ffffffffffffffffffffffffffffffffffffffff1663d9acec53338585600160009054906101000a900473ffffffffffffffffffffffffffffffffffffffff16600260009054906101000a900473ffffffffffffffffffffffffffffffffffffffff1660008054906101000a900473ffffffffffffffffffffffffffffffffffffffff16600860009054906101000a900473ffffffffffffffffffffffffffffffffffffffff16600e546040518963ffffffff1660e01b815260040161122a989796959493929190612f96565b602060405180830381600087803b15801561124457600080fd5b505af1158015611258573d6000803e3d6000fd5b505050506040513d601f19601f8201168201806040525081019061127c9190612c36565b9050600a819080600181540180825580915050600190039060005260206000200160009091909190916101000a81548173ffffffffffffffffffffffffffffffffffffffff021916908373ffffffffffffffffffffffffffffffffffffffff1602179055506001600d60008373ffffffffffffffffffffffffffffffffffffffff1673ffffffffffffffffffffffffffffffffffffffff16815260200190815260200160002060006101000a81548160ff0219169083151502179055506001600c600082825461134c91906132ec565b92505081905550505050565b6000600654905090565b600f5481565b600160009054906101000a900473ffffffffffffffffffffffffffffffffffffffff1681565b600260009054906101000a900473ffffffffffffffffffffffffffffffffffffffff1681565b600d60003373ffffffffffffffffffffffffffffffffffffffff1673ffffffffffffffffffffffffffffffffffffffff16815260200190815260200160002060009054906101000a900460ff1661140a57600080fd5b600160009054906101000a900473ffffffffffffffffffffffffffffffffffffffff1673ffffffffffffffffffffffffffffffffffffffff16639dc29fac33600160009054906101000a900473ffffffffffffffffffffffffffffffffffffffff1673ffffffffffffffffffffffffffffffffffffffff166370a08231336040518263ffffffff1660e01b81526004016114a49190612f7b565b60206040518083038186803b1580156114bc57600080fd5b505afa1580156114d0573d6000803e3d6000fd5b505050506040513d601f19601f820116820180604052508101906114f49190612daa565b6040518363ffffffff1660e01b81526004016115119291906130ac565b600060405180830381600087803b15801561152b57600080fd5b505af115801561153f573d6000803e3d6000fd5b50505050565b6000600160009054906101000a900473ffffffffffffffffffffffffffffffffffffffff1673ffffffffffffffffffffffffffffffffffffffff166370a08231336040518263ffffffff1660e01b81526004016115a29190612f7b565b60206040518083038186803b1580156115ba57600080fd5b505afa1580156115ce573d6000803e3d6000fd5b505050506040513d601f19601f820116820180604052508101906115f29190612daa565b116115fc57600080fd5b6000600960008373ffffffffffffffffffffffffffffffffffffffff1673ffffffffffffffffffffffffffffffffffffffff168152602001908152602001600020541461167e576040517f08c379a0000000000000000000000000000000000000000000000000000000008152600401611675906131fc565b60405180910390fd5b6007819080600181540180825580915050600190039060005260206000200160009091909190916101000a81548173ffffffffffffffffffffffffffffffffffffffff021916908373ffffffffffffffffffffffffffffffffffffffff16021790555060016007805490506116f3919061339c565b600960008373ffffffffffffffffffffffffffffffffffffffff1673ffffffffffffffffffffffffffffffffffffffff1681526020019081526020016000208190555050565b600a818154811061174957600080fd5b906000526020600020016000915054906101000a900473ffffffffffffffffffffffffffffffffffffffff1681565b600460009054906101000a900473ffffffffffffffffffffffffffffffffffffffff1681565b600f54600654426117af919061339c565b116117b957600080fd5b60005b600b8054905081101561187a57600b81815481106117dd576117dc6135ab565b5b9060005260206000200160009054906101000a900473ffffffffffffffffffffffffffffffffffffffff1673ffffffffffffffffffffffffffffffffffffffff16631b9265b86040518163ffffffff1660e01b8152600401600060405180830381600087803b15801561184f57600080fd5b505af1158015611863573d6000803e3d6000fd5b50505050808061187290613533565b9150506117bc565b504260068190555061188a612ae7565b565b600860009054906101000a900473ffffffffffffffffffffffffffffffffffffffff1681565b6004816001600560008460ff1660ff16815260200190815260200160002060010160009054906101000a900460ff1660ff161115611925576040517f08c379a000000000000000000000000000000000000000000000000000000000815260040161191c906131bc565b60405180910390fd5b6000600560008460ff1660ff16815260200190815260200160002060010160009054906101000a900460ff1660ff161415611b325760008054906101000a900473ffffffffffffffffffffffffffffffffffffffff1673ffffffffffffffffffffffffffffffffffffffff16637b6e5f9c60046010600f9054906101000a900464ffffffffff16601060009054906101000a90046effffffffffffffffffffffffffffff16600160009054906101000a900473ffffffffffffffffffffffffffffffffffffffff1673ffffffffffffffffffffffffffffffffffffffff166318160ddd6040518163ffffffff1660e01b815260040160206040518083038186803b158015611a3257600080fd5b505afa158015611a46573d6000803e3d6000fd5b505050506040513d601f19601f82011682018060405250810190611a6a9190612daa565b6040518563ffffffff1660e01b8152600401611a899493929190613177565b602060405180830381600087803b158015611aa357600080fd5b505af1158015611ab7573d6000803e3d6000fd5b505050506040513d601f19601f82011682018060405250810190611adb9190612daa565b600560008460ff1660ff168152602001908152602001600020600001819055506001600560008460ff1660ff16815260200190815260200160002060010160006101000a81548160ff021916908360ff1602179055505b60008054906101000a900473ffffffffffffffffffffffffffffffffffffffff1673ffffffffffffffffffffffffffffffffffffffff1663e31f7b28600560008060ff168152602001908152602001600020600001543384600160009054906101000a900473ffffffffffffffffffffffffffffffffffffffff1673ffffffffffffffffffffffffffffffffffffffff166370a08231336040518263ffffffff1660e01b8152600401611be59190612f7b565b60206040518083038186803b158015611bfd57600080fd5b505afa158015611c11573d6000803e3d6000fd5b505050506040513d601f19601f82011682018060405250810190611c359190612daa565b6040518563ffffffff1660e01b8152600401611c549493929190613252565b602060405180830381600087803b158015611c6e57600080fd5b505af1158015611c82573d6000803e3d6000fd5b505050506040513d601f19601f82011682018060405250810190611ca69190612e04565b600560008060ff16815260200190815260200160002060010160006101000a81548160ff021916908360ff1602179055506002600560008060ff16815260200190815260200160002060010160009054906101000a900460ff1660ff161415611d92578273ffffffffffffffffffffffffffffffffffffffff16633ccfd60b6040518163ffffffff1660e01b8152600401600060405180830381600087803b158015611d5157600080fd5b505af1158015611d65573d6000803e3d6000fd5b505050506000600560008060ff16815260200190815260200160002060010160009054906101000a905050505b6003600560008060ff16815260200190815260200160002060010160009054906101000a900460ff1660ff161415611ded576000600560008060ff16815260200190815260200160002060010160009054906101000a905050505b505050565b600d60003373ffffffffffffffffffffffffffffffffffffffff1673ffffffffffffffffffffffffffffffffffffffff16815260200190815260200160002060009054906101000a900460ff16611e4857600080fd5b600160009054906101000a900473ffffffffffffffffffffffffffffffffffffffff1673ffffffffffffffffffffffffffffffffffffffff166340c10f1933836040518363ffffffff1660e01b8152600401611ea59291906130ac565b600060405180830381600087803b158015611ebf57600080fd5b505af1158015611ed3573d6000803e3d6000fd5b5050505050565b601060009054906101000a90046effffffffffffffffffffffffffffff1681565b60065481565b600b8181548110611f1157600080fd5b906000526020600020016000915054906101000a900473ffffffffffffffffffffffffffffffffffffffff1681565b6000600460009054906101000a900473ffffffffffffffffffffffffffffffffffffffff1673ffffffffffffffffffffffffffffffffffffffff1663842d201a33600160009054906101000a900473ffffffffffffffffffffffffffffffffffffffff16600860009054906101000a900473ffffffffffffffffffffffffffffffffffffffff1660008054906101000a900473ffffffffffffffffffffffffffffffffffffffff16600e54600f54896040518863ffffffff1660e01b81526004016120119796959493929190613014565b602060405180830381600087803b15801561202b57600080fd5b505af115801561203f573d6000803e3d6000fd5b505050506040513d601f19601f820116820180604052508101906120639190612c36565b9050600b819080600181540180825580915050600190039060005260206000200160009091909190916101000a81548173ffffffffffffffffffffffffffffffffffffffff021916908373ffffffffffffffffffffffffffffffffffffffff1602179055506001600d60008373ffffffffffffffffffffffffffffffffffffffff1673ffffffffffffffffffffffffffffffffffffffff16815260200190815260200160002060006101000a81548160ff0219169083151502179055506001600c600082825461213391906132ec565b925050819055505050565b600360009054906101000a900473ffffffffffffffffffffffffffffffffffffffff1681565b6010600f9054906101000a900464ffffffffff1681565b600e5481565b60006007600960008473ffffffffffffffffffffffffffffffffffffffff1673ffffffffffffffffffffffffffffffffffffffff16815260200190815260200160002054815481106121d6576121d56135ab565b5b9060005260206000200160006101000a81548173ffffffffffffffffffffffffffffffffffffffff021916908373ffffffffffffffffffffffffffffffffffffffff1602179055506000600960008373ffffffffffffffffffffffffffffffffffffffff1673ffffffffffffffffffffffffffffffffffffffff1681526020019081526020016000208190555050565b600d60003373ffffffffffffffffffffffffffffffffffffffff1673ffffffffffffffffffffffffffffffffffffffff16815260200190815260200160002060009054906101000a900460ff166122bc57600080fd5b600160009054906101000a900473ffffffffffffffffffffffffffffffffffffffff1673ffffffffffffffffffffffffffffffffffffffff166340c10f1983836040518363ffffffff1660e01b8152600401612319929190613083565b600060405180830381600087803b15801561233357600080fd5b505af1158015612347573d6000803e3d6000fd5b505050505050565b6000612390576040517f08c379a0000000000000000000000000000000000000000000000000000000008152600401612387906131dc565b60405180910390fd5b81600360006101000a81548173ffffffffffffffffffffffffffffffffffffffff021916908373ffffffffffffffffffffffffffffffffffffffff16021790555080600460006101000a81548173ffffffffffffffffffffffffffffffffffffffff021916908373ffffffffffffffffffffffffffffffffffffffff1602179055505050565b600c5481565b6007818154811061242c57600080fd5b906000526020600020016000915054906101000a900473ffffffffffffffffffffffffffffffffffffffff1681565b60056020528060005260406000206000915090508060000154908060010160009054906101000a900460ff16905082565b806000600960008373ffffffffffffffffffffffffffffffffffffffff1673ffffffffffffffffffffffffffffffffffffffff16815260200190815260200160002054116124d957600080fd5b6000826001600560008460ff1660ff16815260200190815260200160002060010160009054906101000a900460ff1660ff16111561254c576040517f08c379a0000000000000000000000000000000000000000000000000000000008152600401612543906131bc565b60405180910390fd5b6000600560008460ff1660ff16815260200190815260200160002060010160009054906101000a900460ff1660ff1614156127595760008054906101000a900473ffffffffffffffffffffffffffffffffffffffff1673ffffffffffffffffffffffffffffffffffffffff16637b6e5f9c60046010600f9054906101000a900464ffffffffff16601060009054906101000a90046effffffffffffffffffffffffffffff16600160009054906101000a900473ffffffffffffffffffffffffffffffffffffffff1673ffffffffffffffffffffffffffffffffffffffff166318160ddd6040518163ffffffff1660e01b815260040160206040518083038186803b15801561265957600080fd5b505afa15801561266d573d6000803e3d6000fd5b505050506040513d601f19601f820116820180604052508101906126919190612daa565b6040518563ffffffff1660e01b81526004016126b09493929190613177565b602060405180830381600087803b1580156126ca57600080fd5b505af11580156126de573d6000803e3d6000fd5b505050506040513d601f19601f820116820180604052508101906127029190612daa565b600560008460ff1660ff168152602001908152602001600020600001819055506001600560008460ff1660ff16815260200190815260200160002060010160006101000a81548160ff021916908360ff1602179055505b60008054906101000a900473ffffffffffffffffffffffffffffffffffffffff1673ffffffffffffffffffffffffffffffffffffffff1663e31f7b28600560008060ff168152602001908152602001600020600001543384600160009054906101000a900473ffffffffffffffffffffffffffffffffffffffff1673ffffffffffffffffffffffffffffffffffffffff166370a08231336040518263ffffffff1660e01b815260040161280c9190612f7b565b60206040518083038186803b15801561282457600080fd5b505afa158015612838573d6000803e3d6000fd5b505050506040513d601f19601f8201168201806040525081019061285c9190612daa565b6040518563ffffffff1660e01b815260040161287b9493929190613252565b602060405180830381600087803b15801561289557600080fd5b505af11580156128a9573d6000803e3d6000fd5b505050506040513d601f19601f820116820180604052508101906128cd9190612e04565b600560008060ff16815260200190815260200160002060010160006101000a81548160ff021916908360ff1602179055506002600560008060ff16815260200190815260200160002060010160009054906101000a900460ff1660ff161415612a625760008060009054906101000a900473ffffffffffffffffffffffffffffffffffffffff1673ffffffffffffffffffffffffffffffffffffffff1663b17979a6600560008060ff168152602001908152602001600020600001546040518263ffffffff1660e01b81526004016129a59190613237565b60206040518083038186803b1580156129bd57600080fd5b505afa1580156129d1573d6000803e3d6000fd5b505050506040513d601f19601f820116820180604052508101906129f59190612c36565b905080600860006101000a81548173ffffffffffffffffffffffffffffffffffffffff021916908373ffffffffffffffffffffffffffffffffffffffff160217905550506000600560008060ff16815260200190815260200160002060010160009054906101000a905050505b6003600560008060ff16815260200190815260200160002060010160009054906101000a900460ff1660ff161415612abd576000600560008060ff16815260200190815260200160002060010160009054906101000a905050505b50505050565b60008054906101000a900473ffffffffffffffffffffffffffffffffffffffff1681565b600015612b4a576000620f424090503373ffffffffffffffffffffffffffffffffffffffff166108fc3a83612b1c9190613342565b9081150290604051600060405180830381858888f19350505050158015612b47573d6000803e3d6000fd5b50505b565b600081359050612b5b81613680565b92915050565b600081519050612b7081613680565b92915050565b600081359050612b8581613697565b92915050565b600081519050612b9a816136ae565b92915050565b600081359050612baf816136c5565b92915050565b600081359050612bc4816136dc565b92915050565b600081519050612bd9816136dc565b92915050565b600081359050612bee816136f3565b92915050565b600081519050612c03816136f3565b92915050565b600060208284031215612c1f57612c1e6135da565b5b6000612c2d84828501612b4c565b91505092915050565b600060208284031215612c4c57612c4b6135da565b5b6000612c5a84828501612b61565b91505092915050565b60008060408385031215612c7a57612c796135da565b5b6000612c8885828601612b76565b9250506020612c9985828601612b76565b9150509250929050565b60008060408385031215612cba57612cb96135da565b5b6000612cc885828601612b76565b9250506020612cd985828601612bb5565b9150509250929050565b60008060408385031215612cfa57612cf96135da565b5b6000612d0885828601612b4c565b9250506020612d1985828601612b4c565b9150509250929050565b600060208284031215612d3957612d386135da565b5b6000612d4784828501612b8b565b91505092915050565b600060208284031215612d6657612d656135da565b5b6000612d7484828501612ba0565b91505092915050565b600060208284031215612d9357612d926135da565b5b6000612da184828501612bb5565b91505092915050565b600060208284031215612dc057612dbf6135da565b5b6000612dce84828501612bca565b91505092915050565b600060208284031215612ded57612dec6135da565b5b6000612dfb84828501612bdf565b91505092915050565b600060208284031215612e1a57612e196135da565b5b6000612e2884828501612bf4565b91505092915050565b612e3a8161347f565b82525050565b612e49816133e2565b82525050565b612e58816133d0565b82525050565b612e6781613491565b82525050565b612e76816134a3565b82525050565b612e85816134b5565b82525050565b612e94816134c7565b82525050565b612ea3816134d9565b82525050565b612eb2816134eb565b82525050565b612ec1816134fd565b82525050565b6000612ed46012836132db565b9150612edf826135df565b602082019050919050565b6000612ef76025836132db565b9150612f0282613608565b604082019050919050565b6000612f1a6010836132db565b9150612f2582613657565b602082019050919050565b612f3981613400565b82525050565b612f488161341b565b82525050565b612f5781613457565b82525050565b612f6681613461565b82525050565b612f7581613472565b82525050565b6000602082019050612f906000830184612e4f565b92915050565b600061010082019050612fac600083018b612e40565b612fb9602083018a612e31565b612fc66040830189612e31565b612fd36060830188612e4f565b612fe06080830187612e4f565b612fed60a0830186612e4f565b612ffa60c0830185612e4f565b61300760e0830184612f4e565b9998505050505050505050565b600060e082019050613029600083018a612e40565b6130366020830189612e4f565b6130436040830188612e4f565b6130506060830187612e4f565b61305d6080830186612f4e565b61306a60a0830185612f4e565b61307760c0830184612f4e565b98975050505050505050565b60006040820190506130986000830185612e31565b6130a56020830184612f4e565b9392505050565b60006040820190506130c16000830185612e4f565b6130ce6020830184612f4e565b9392505050565b60006020820190506130ea6000830184612e5e565b92915050565b60006020820190506131056000830184612e6d565b92915050565b60006020820190506131206000830184612e7c565b92915050565b600060208201905061313b6000830184612e8b565b92915050565b60006020820190506131566000830184612e9a565b92915050565b60006020820190506131716000830184612ea9565b92915050565b600060808201905061318c6000830187612eb8565b6131996020830186612f5d565b6131a66040830185612f30565b6131b36060830184612f30565b95945050505050565b600060208201905081810360008301526131d581612ec7565b9050919050565b600060208201905081810360008301526131f581612eea565b9050919050565b6000602082019050818103600083015261321581612f0d565b9050919050565b60006020820190506132316000830184612f30565b92915050565b600060208201905061324c6000830184612f4e565b92915050565b60006080820190506132676000830187612f4e565b6132746020830186612e4f565b6132816040830185612e4f565b61328e6060830184612f3f565b95945050505050565b60006040820190506132ac6000830185612f4e565b6132b96020830184612f6c565b9392505050565b60006020820190506132d56000830184612f5d565b92915050565b600082825260208201905092915050565b60006132f782613457565b915061330283613457565b9250827fffffffffffffffffffffffffffffffffffffffffffffffffffffffffffffffff038211156133375761333661357c565b5b828201905092915050565b600061334d82613457565b915061335883613457565b9250817fffffffffffffffffffffffffffffffffffffffffffffffffffffffffffffffff04831182151516156133915761339061357c565b5b828202905092915050565b60006133a782613457565b91506133b283613457565b9250828210156133c5576133c461357c565b5b828203905092915050565b60006133db82613437565b9050919050565b60006133ed82613437565b9050919050565b60008115159050919050565b60006effffffffffffffffffffffffffffff82169050919050565b60006fffffffffffffffffffffffffffffffff82169050919050565b600073ffffffffffffffffffffffffffffffffffffffff82169050919050565b6000819050919050565b600064ffffffffff82169050919050565b600060ff82169050919050565b600061348a8261350f565b9050919050565b600061349c8261350f565b9050919050565b60006134ae8261350f565b9050919050565b60006134c08261350f565b9050919050565b60006134d28261350f565b9050919050565b60006134e48261350f565b9050919050565b60006134f68261350f565b9050919050565b600061350882613472565b9050919050565b600061351a82613521565b9050919050565b600061352c82613437565b9050919050565b600061353e82613457565b91507fffffffffffffffffffffffffffffffffffffffffffffffffffffffffffffffff8214156135715761357061357c565b5b600182019050919050565b7f4e487b7100000000000000000000000000000000000000000000000000000000600052601160045260246000fd5b7f4e487b7100000000000000000000000000000000000000000000000000000000600052603260045260246000fd5b600080fd5b7f696e616374697665206f72206163746976650000000000000000000000000000600082015250565b7f2072657175697265732044414f20564f54452e20546f20626520696d706c656d60008201527f656e746564000000000000000000000000000000000000000000000000000000602082015250565b7f646f65736e742065786973742079657400000000000000000000000000000000600082015250565b613689816133d0565b811461369457600080fd5b50565b6136a0816133e2565b81146136ab57600080fd5b50565b6136b7816133f4565b81146136c257600080fd5b50565b6136ce81613437565b81146136d957600080fd5b50565b6136e581613457565b81146136f057600080fd5b50565b6136fc81613472565b811461370757600080fd5b5056fea2646970667358221220ba23cd0b15b7ec0f83442a486b71d2551921aad331f177b7b196747d6a45a97b64736f6c6343000807003360806040523480156200001157600080fd5b5060405162001eba38038062001eba8339818101604052810190620000379190620001e4565b8181816003908051906020019062000051929190620000b6565b5080600490805190602001906200006a929190620000b6565b50505033600560006101000a81548173ffffffffffffffffffffffffffffffffffffffff021916908373ffffffffffffffffffffffffffffffffffffffff1602179055505050620003ed565b828054620000c490620002fe565b90600052602060002090601f016020900481019282620000e8576000855562000134565b82601f106200010357805160ff191683800117855562000134565b8280016001018555821562000134579182015b828111156200013357825182559160200191906001019062000116565b5b50905062000143919062000147565b5090565b5b808211156200016257600081600090555060010162000148565b5090565b60006200017d620001778462000292565b62000269565b9050828152602081018484840111156200019c576200019b620003cd565b5b620001a9848285620002c8565b509392505050565b600082601f830112620001c957620001c8620003c8565b5b8151620001db84826020860162000166565b91505092915050565b60008060408385031215620001fe57620001fd620003d7565b5b600083015167ffffffffffffffff8111156200021f576200021e620003d2565b5b6200022d85828601620001b1565b925050602083015167ffffffffffffffff811115620002515762000250620003d2565b5b6200025f85828601620001b1565b9150509250929050565b60006200027562000288565b905062000283828262000334565b919050565b6000604051905090565b600067ffffffffffffffff821115620002b057620002af62000399565b5b620002bb82620003dc565b9050602081019050919050565b60005b83811015620002e8578082015181840152602081019050620002cb565b83811115620002f8576000848401525b50505050565b600060028204905060018216806200031757607f821691505b602082108114156200032e576200032d6200036a565b5b50919050565b6200033f82620003dc565b810181811067ffffffffffffffff8211171562000361576200036062000399565b5b80604052505050565b7f4e487b7100000000000000000000000000000000000000000000000000000000600052602260045260246000fd5b7f4e487b7100000000000000000000000000000000000000000000000000000000600052604160045260246000fd5b600080fd5b600080fd5b600080fd5b600080fd5b6000601f19601f8301169050919050565b611abd80620003fd6000396000f3fe608060405234801561001057600080fd5b50600436106100f55760003560e01c806340c10f19116100975780639dc29fac116100665780639dc29fac14610288578063a457c2d7146102a4578063a9059cbb146102d4578063dd62ed3e14610304576100f5565b806340c10f191461020057806367e828bf1461021c57806370a082311461023a57806395d89b411461026a576100f5565b806320e56dbd116100d357806320e56dbd1461016657806323b872dd14610182578063313ce567146101b257806339509351146101d0576100f5565b806306fdde03146100fa578063095ea7b31461011857806318160ddd14610148575b600080fd5b610102610334565b60405161010f91906113fd565b60405180910390f35b610132600480360381019061012d9190611187565b6103c6565b60405161013f91906113e2565b60405180910390f35b6101506103e4565b60405161015d919061155f565b60405180910390f35b610180600480360381019061017b91906111c7565b6103ee565b005b61019c60048036038101906101979190611134565b6103fb565b6040516101a991906113e2565b60405180910390f35b6101ba6104f3565b6040516101c7919061157a565b60405180910390f35b6101ea60048036038101906101e59190611187565b6104fc565b6040516101f791906113e2565b60405180910390f35b61021a60048036038101906102159190611187565b6105a8565b005b610224610610565b60405161023191906113c7565b60405180910390f35b610254600480360381019061024f91906110c7565b610636565b604051610261919061155f565b60405180910390f35b61027261067e565b60405161027f91906113fd565b60405180910390f35b6102a2600480360381019061029d9190611187565b610710565b005b6102be60048036038101906102b99190611187565b610778565b6040516102cb91906113e2565b60405180910390f35b6102ee60048036038101906102e99190611187565b610863565b6040516102fb91906113e2565b60405180910390f35b61031e600480360381019061031991906110f4565b610881565b60405161032b919061155f565b60405180910390f35b606060038054610343906116c3565b80601f016020809104026020016040519081016040528092919081815260200182805461036f906116c3565b80156103bc5780601f10610391576101008083540402835291602001916103bc565b820191906000526020600020905b81548152906001019060200180831161039f57829003601f168201915b5050505050905090565b60006103da6103d3610908565b8484610910565b6001905092915050565b6000600254905090565b6103f83382610adb565b50565b6000610408848484610c3b565b6000600160008673ffffffffffffffffffffffffffffffffffffffff1673ffffffffffffffffffffffffffffffffffffffff1681526020019081526020016000206000610453610908565b73ffffffffffffffffffffffffffffffffffffffff1673ffffffffffffffffffffffffffffffffffffffff168152602001908152602001600020549050828110156104d3576040517f08c379a00000000000000000000000000000000000000000000000000000000081526004016104ca9061149f565b60405180910390fd5b6104e7856104df610908565b858403610910565b60019150509392505050565b60006012905090565b600061059e610509610908565b848460016000610517610908565b73ffffffffffffffffffffffffffffffffffffffff1673ffffffffffffffffffffffffffffffffffffffff16815260200190815260200160002060008873ffffffffffffffffffffffffffffffffffffffff1673ffffffffffffffffffffffffffffffffffffffff1681526020019081526020016000205461059991906115b1565b610910565b6001905092915050565b600560009054906101000a900473ffffffffffffffffffffffffffffffffffffffff1673ffffffffffffffffffffffffffffffffffffffff163373ffffffffffffffffffffffffffffffffffffffff161461060257600080fd5b61060c8282610adb565b5050565b600560009054906101000a900473ffffffffffffffffffffffffffffffffffffffff1681565b60008060008373ffffffffffffffffffffffffffffffffffffffff1673ffffffffffffffffffffffffffffffffffffffff168152602001908152602001600020549050919050565b60606004805461068d906116c3565b80601f01602080910402602001604051908101604052809291908181526020018280546106b9906116c3565b80156107065780601f106106db57610100808354040283529160200191610706565b820191906000526020600020905b8154815290600101906020018083116106e957829003601f168201915b5050505050905090565b600560009054906101000a900473ffffffffffffffffffffffffffffffffffffffff1673ffffffffffffffffffffffffffffffffffffffff163373ffffffffffffffffffffffffffffffffffffffff161461076a57600080fd5b6107748282610ebc565b5050565b60008060016000610787610908565b73ffffffffffffffffffffffffffffffffffffffff1673ffffffffffffffffffffffffffffffffffffffff16815260200190815260200160002060008573ffffffffffffffffffffffffffffffffffffffff1673ffffffffffffffffffffffffffffffffffffffff16815260200190815260200160002054905082811015610844576040517f08c379a000000000000000000000000000000000000000000000000000000000815260040161083b9061151f565b60405180910390fd5b61085861084f610908565b85858403610910565b600191505092915050565b6000610877610870610908565b8484610c3b565b6001905092915050565b6000600160008473ffffffffffffffffffffffffffffffffffffffff1673ffffffffffffffffffffffffffffffffffffffff16815260200190815260200160002060008373ffffffffffffffffffffffffffffffffffffffff1673ffffffffffffffffffffffffffffffffffffffff16815260200190815260200160002054905092915050565b600033905090565b600073ffffffffffffffffffffffffffffffffffffffff168373ffffffffffffffffffffffffffffffffffffffff161415610980576040517f08c379a0000000000000000000000000000000000000000000000000000000008152600401610977906114ff565b60405180910390fd5b600073ffffffffffffffffffffffffffffffffffffffff168273ffffffffffffffffffffffffffffffffffffffff1614156109f0576040517f08c379a00000000000000000000000000000000000000000000000000000000081526004016109e79061145f565b60405180910390fd5b80600160008573ffffffffffffffffffffffffffffffffffffffff1673ffffffffffffffffffffffffffffffffffffffff16815260200190815260200160002060008473ffffffffffffffffffffffffffffffffffffffff1673ffffffffffffffffffffffffffffffffffffffff168152602001908152602001600020819055508173ffffffffffffffffffffffffffffffffffffffff168373ffffffffffffffffffffffffffffffffffffffff167f8c5be1e5ebec7d5bd14f71427d1e84f3dd0314c0f7b2291e5b200ac8c7c3b92583604051610ace919061155f565b60405180910390a3505050565b600073ffffffffffffffffffffffffffffffffffffffff168273ffffffffffffffffffffffffffffffffffffffff161415610b4b576040517f08c379a0000000000000000000000000000000000000000000000000000000008152600401610b429061153f565b60405180910390fd5b610b5760008383611093565b8060026000828254610b6991906115b1565b92505081905550806000808473ffffffffffffffffffffffffffffffffffffffff1673ffffffffffffffffffffffffffffffffffffffff1681526020019081526020016000206000828254610bbe91906115b1565b925050819055508173ffffffffffffffffffffffffffffffffffffffff16600073ffffffffffffffffffffffffffffffffffffffff167fddf252ad1be2c89b69c2b068fc378daa952ba7f163c4a11628f55a4df523b3ef83604051610c23919061155f565b60405180910390a3610c3760008383611098565b5050565b600073ffffffffffffffffffffffffffffffffffffffff168373ffffffffffffffffffffffffffffffffffffffff161415610cab576040517f08c379a0000000000000000000000000000000000000000000000000000000008152600401610ca2906114df565b60405180910390fd5b600073ffffffffffffffffffffffffffffffffffffffff168273ffffffffffffffffffffffffffffffffffffffff161415610d1b576040517f08c379a0000000000000000000000000000000000000000000000000000000008152600401610d129061141f565b60405180910390fd5b610d26838383611093565b60008060008573ffffffffffffffffffffffffffffffffffffffff1673ffffffffffffffffffffffffffffffffffffffff16815260200190815260200160002054905081811015610dac576040517f08c379a0000000000000000000000000000000000000000000000000000000008152600401610da39061147f565b60405180910390fd5b8181036000808673ffffffffffffffffffffffffffffffffffffffff1673ffffffffffffffffffffffffffffffffffffffff16815260200190815260200160002081905550816000808573ffffffffffffffffffffffffffffffffffffffff1673ffffffffffffffffffffffffffffffffffffffff1681526020019081526020016000206000828254610e3f91906115b1565b925050819055508273ffffffffffffffffffffffffffffffffffffffff168473ffffffffffffffffffffffffffffffffffffffff167fddf252ad1be2c89b69c2b068fc378daa952ba7f163c4a11628f55a4df523b3ef84604051610ea3919061155f565b60405180910390a3610eb6848484611098565b50505050565b600073ffffffffffffffffffffffffffffffffffffffff168273ffffffffffffffffffffffffffffffffffffffff161415610f2c576040517f08c379a0000000000000000000000000000000000000000000000000000000008152600401610f23906114bf565b60405180910390fd5b610f3882600083611093565b60008060008473ffffffffffffffffffffffffffffffffffffffff1673ffffffffffffffffffffffffffffffffffffffff16815260200190815260200160002054905081811015610fbe576040517f08c379a0000000000000000000000000000000000000000000000000000000008152600401610fb59061143f565b60405180910390fd5b8181036000808573ffffffffffffffffffffffffffffffffffffffff1673ffffffffffffffffffffffffffffffffffffffff1681526020019081526020016000208190555081600260008282546110159190611607565b92505081905550600073ffffffffffffffffffffffffffffffffffffffff168373ffffffffffffffffffffffffffffffffffffffff167fddf252ad1be2c89b69c2b068fc378daa952ba7f163c4a11628f55a4df523b3ef8460405161107a919061155f565b60405180910390a361108e83600084611098565b505050565b505050565b505050565b6000813590506110ac81611a59565b92915050565b6000813590506110c181611a70565b92915050565b6000602082840312156110dd576110dc611753565b5b60006110eb8482850161109d565b91505092915050565b6000806040838503121561110b5761110a611753565b5b60006111198582860161109d565b925050602061112a8582860161109d565b9150509250929050565b60008060006060848603121561114d5761114c611753565b5b600061115b8682870161109d565b935050602061116c8682870161109d565b925050604061117d868287016110b2565b9150509250925092565b6000806040838503121561119e5761119d611753565b5b60006111ac8582860161109d565b92505060206111bd858286016110b2565b9150509250929050565b6000602082840312156111dd576111dc611753565b5b60006111eb848285016110b2565b91505092915050565b6111fd8161163b565b82525050565b61120c8161164d565b82525050565b600061121d82611595565b61122781856115a0565b9350611237818560208601611690565b61124081611758565b840191505092915050565b60006112586023836115a0565b915061126382611769565b604082019050919050565b600061127b6022836115a0565b9150611286826117b8565b604082019050919050565b600061129e6022836115a0565b91506112a982611807565b604082019050919050565b60006112c16026836115a0565b91506112cc82611856565b604082019050919050565b60006112e46028836115a0565b91506112ef826118a5565b604082019050919050565b60006113076021836115a0565b9150611312826118f4565b604082019050919050565b600061132a6025836115a0565b915061133582611943565b604082019050919050565b600061134d6024836115a0565b915061135882611992565b604082019050919050565b60006113706025836115a0565b915061137b826119e1565b604082019050919050565b6000611393601f836115a0565b915061139e82611a30565b602082019050919050565b6113b281611679565b82525050565b6113c181611683565b82525050565b60006020820190506113dc60008301846111f4565b92915050565b60006020820190506113f76000830184611203565b92915050565b600060208201905081810360008301526114178184611212565b905092915050565b600060208201905081810360008301526114388161124b565b9050919050565b600060208201905081810360008301526114588161126e565b9050919050565b6000602082019050818103600083015261147881611291565b9050919050565b60006020820190508181036000830152611498816112b4565b9050919050565b600060208201905081810360008301526114b8816112d7565b9050919050565b600060208201905081810360008301526114d8816112fa565b9050919050565b600060208201905081810360008301526114f88161131d565b9050919050565b6000602082019050818103600083015261151881611340565b9050919050565b6000602082019050818103600083015261153881611363565b9050919050565b6000602082019050818103600083015261155881611386565b9050919050565b600060208201905061157460008301846113a9565b92915050565b600060208201905061158f60008301846113b8565b92915050565b600081519050919050565b600082825260208201905092915050565b60006115bc82611679565b91506115c783611679565b9250827fffffffffffffffffffffffffffffffffffffffffffffffffffffffffffffffff038211156115fc576115fb6116f5565b5b828201905092915050565b600061161282611679565b915061161d83611679565b9250828210156116305761162f6116f5565b5b828203905092915050565b600061164682611659565b9050919050565b60008115159050919050565b600073ffffffffffffffffffffffffffffffffffffffff82169050919050565b6000819050919050565b600060ff82169050919050565b60005b838110156116ae578082015181840152602081019050611693565b838111156116bd576000848401525b50505050565b600060028204905060018216806116db57607f821691505b602082108114156116ef576116ee611724565b5b50919050565b7f4e487b7100000000000000000000000000000000000000000000000000000000600052601160045260246000fd5b7f4e487b7100000000000000000000000000000000000000000000000000000000600052602260045260246000fd5b600080fd5b6000601f19601f8301169050919050565b7f45524332303a207472616e7366657220746f20746865207a65726f206164647260008201527f6573730000000000000000000000000000000000000000000000000000000000602082015250565b7f45524332303a206275726e20616d6f756e7420657863656564732062616c616e60008201527f6365000000000000000000000000000000000000000000000000000000000000602082015250565b7f45524332303a20617070726f766520746f20746865207a65726f20616464726560008201527f7373000000000000000000000000000000000000000000000000000000000000602082015250565b7f45524332303a207472616e7366657220616d6f756e742065786365656473206260008201527f616c616e63650000000000000000000000000000000000000000000000000000602082015250565b7f45524332303a207472616e7366657220616d6f756e742065786365656473206160008201527f6c6c6f77616e6365000000000000000000000000000000000000000000000000602082015250565b7f45524332303a206275726e2066726f6d20746865207a65726f2061646472657360008201527f7300000000000000000000000000000000000000000000000000000000000000602082015250565b7f45524332303a207472616e736665722066726f6d20746865207a65726f20616460008201527f6472657373000000000000000000000000000000000000000000000000000000602082015250565b7f45524332303a20617070726f76652066726f6d20746865207a65726f2061646460008201527f7265737300000000000000000000000000000000000000000000000000000000602082015250565b7f45524332303a2064656372656173656420616c6c6f77616e63652062656c6f7760008201527f207a65726f000000000000000000000000000000000000000000000000000000602082015250565b7f45524332303a206d696e7420746f20746865207a65726f206164647265737300600082015250565b611a628161163b565b8114611a6d57600080fd5b50565b611a7981611679565b8114611a8457600080fd5b5056fea2646970667358221220137e71639e802e6b9b9d84e9a7961f881a5c612a5a60c3541b9e0b0f4562851464736f6c634300080700336080604052348015600f57600080fd5b50603f80601d6000396000f3fe6080604052600080fdfea2646970667358221220c139efeb2d1b64d42aa0d3796f49c67072e0819abc8274d7121cd986035f3a5364736f6c63430008070033",
  "linkReferences": {},
  "deployedLinkReferences": {}
}