{
  "_format": "hh-sol-artifact-1",
  "contractName": "Source",
  "sourceName": "contracts/DAO/DAO.sol",
  "abi": [
    {
      "inputs": [
        {
          "internalType": "address",
          "name": "votingContract",
          "type": "address"
        },
        {
          "internalType": "string",
          "name": "name",
          "type": "string"
        },
        {
          "internalType": "string",
          "name": "symbol",
          "type": "string"
        }
      ],
      "stateMutability": "nonpayable",
      "type": "constructor"
    },
    {
      "anonymous": false,
      "inputs": [
        {
          "indexed": false,
          "internalType": "address",
          "name": "_project",
          "type": "address"
        }
      ],
      "name": "ProjectCreated",
      "type": "event"
    },
    {
      "inputs": [
        {
          "internalType": "address",
          "name": "_erc20TokenAddress",
          "type": "address"
        }
      ],
      "name": "addPaymentToken",
      "outputs": [],
      "stateMutability": "nonpayable",
      "type": "function"
    },
    {
      "inputs": [],
      "name": "arbitrationEscrow",
      "outputs": [
        {
          "internalType": "contract ArbitrationEscrow",
          "name": "",
          "type": "address"
        }
      ],
      "stateMutability": "view",
      "type": "function"
    },
    {
      "inputs": [],
      "name": "changePaymentInterval",
      "outputs": [],
      "stateMutability": "nonpayable",
      "type": "function"
    },
    {
      "inputs": [],
      "name": "clientProjectFactory",
      "outputs": [
        {
          "internalType": "contract IClientProjectFactory",
          "name": "",
          "type": "address"
        }
      ],
      "stateMutability": "view",
      "type": "function"
    },
    {
      "inputs": [
        {
          "internalType": "uint256",
          "name": "",
          "type": "uint256"
        }
      ],
      "name": "clientProjects",
      "outputs": [
        {
          "internalType": "address",
          "name": "",
          "type": "address"
        }
      ],
      "stateMutability": "view",
      "type": "function"
    },
    {
      "inputs": [
        {
          "internalType": "address payable",
          "name": "_client",
          "type": "address"
        },
        {
          "internalType": "address payable",
          "name": "_arbiter",
          "type": "address"
        }
      ],
      "name": "createClientProject",
      "outputs": [],
      "stateMutability": "nonpayable",
      "type": "function"
    },
    {
      "inputs": [
        {
          "internalType": "uint256",
          "name": "_requestedAmount",
          "type": "uint256"
        }
      ],
      "name": "createInternalProject",
      "outputs": [],
      "stateMutability": "nonpayable",
      "type": "function"
    },
    {
      "inputs": [],
      "name": "defaultPaymentToken",
      "outputs": [
        {
          "internalType": "contract IERC20",
          "name": "",
          "type": "address"
        }
      ],
      "stateMutability": "view",
      "type": "function"
    },
    {
      "inputs": [],
      "name": "getStartPaymentTimer",
      "outputs": [
        {
          "internalType": "uint256",
          "name": "",
          "type": "uint256"
        }
      ],
      "stateMutability": "view",
      "type": "function"
    },
    {
      "inputs": [],
      "name": "internalProjectFactory",
      "outputs": [
        {
          "internalType": "contract IInternalProjectFactory",
          "name": "",
          "type": "address"
        }
      ],
      "stateMutability": "view",
      "type": "function"
    },
    {
      "inputs": [
        {
          "internalType": "uint256",
          "name": "",
          "type": "uint256"
        }
      ],
      "name": "internalProjects",
      "outputs": [
        {
          "internalType": "address",
          "name": "",
          "type": "address"
        }
      ],
      "stateMutability": "view",
      "type": "function"
    },
    {
      "inputs": [
        {
          "internalType": "address",
          "name": "_project",
          "type": "address"
        }
      ],
      "name": "liquidateInternalProject",
      "outputs": [],
      "stateMutability": "nonpayable",
      "type": "function"
    },
    {
      "inputs": [
        {
          "internalType": "address payable",
          "name": "payee",
          "type": "address"
        },
        {
          "internalType": "uint256",
          "name": "amount",
          "type": "uint256"
        }
      ],
      "name": "mintRepTokens",
      "outputs": [],
      "stateMutability": "nonpayable",
      "type": "function"
    },
    {
      "inputs": [],
      "name": "numberOfProjects",
      "outputs": [
        {
          "internalType": "uint256",
          "name": "",
          "type": "uint256"
        }
      ],
      "stateMutability": "view",
      "type": "function"
    },
    {
      "inputs": [],
      "name": "paymentInterval",
      "outputs": [
        {
          "internalType": "uint256",
          "name": "",
          "type": "uint256"
        }
      ],
      "stateMutability": "view",
      "type": "function"
    },
    {
      "inputs": [
        {
          "internalType": "uint256",
          "name": "",
          "type": "uint256"
        }
      ],
      "name": "paymentTokens",
      "outputs": [
        {
          "internalType": "address",
          "name": "",
          "type": "address"
        }
      ],
      "stateMutability": "view",
      "type": "function"
    },
    {
      "inputs": [],
      "name": "payout",
      "outputs": [],
      "stateMutability": "nonpayable",
      "type": "function"
    },
    {
      "inputs": [
        {
          "internalType": "address",
          "name": "_erc20TokenAddress",
          "type": "address"
        }
      ],
      "name": "removePaymentToken",
      "outputs": [],
      "stateMutability": "nonpayable",
      "type": "function"
    },
    {
      "inputs": [],
      "name": "repToken",
      "outputs": [
        {
          "internalType": "contract RepToken",
          "name": "",
          "type": "address"
        }
      ],
      "stateMutability": "view",
      "type": "function"
    },
    {
      "inputs": [
        {
          "internalType": "address",
          "name": "_erc20TokenAddress",
          "type": "address"
        }
      ],
      "name": "setDefaultPaymentToken",
      "outputs": [],
      "stateMutability": "nonpayable",
      "type": "function"
    },
    {
      "inputs": [
        {
          "internalType": "address",
          "name": "_clientProjectFactory",
          "type": "address"
        },
        {
          "internalType": "address",
          "name": "_internalProjectFactory",
          "type": "address"
        }
      ],
      "name": "setDeploymentFactories",
      "outputs": [],
      "stateMutability": "nonpayable",
      "type": "function"
    },
    {
      "inputs": [],
      "name": "setStartPaymentTimer",
      "outputs": [],
      "stateMutability": "nonpayable",
      "type": "function"
    },
    {
      "inputs": [],
      "name": "startPaymentTimer",
      "outputs": [
        {
          "internalType": "uint256",
          "name": "",
          "type": "uint256"
        }
      ],
      "stateMutability": "view",
      "type": "function"
    },
    {
      "inputs": [
        {
          "internalType": "uint256",
          "name": "_amount",
          "type": "uint256"
        }
      ],
      "name": "transfer",
      "outputs": [],
      "stateMutability": "nonpayable",
      "type": "function"
    },
    {
      "inputs": [],
      "name": "voting",
      "outputs": [
        {
          "internalType": "contract IVoting",
          "name": "",
          "type": "address"
        }
      ],
      "stateMutability": "view",
      "type": "function"
    },
    {
      "inputs": [],
      "name": "votingDuration",
      "outputs": [
        {
          "internalType": "uint256",
          "name": "",
          "type": "uint256"
        }
      ],
      "stateMutability": "view",
      "type": "function"
    }
  ],
  "bytecode": "0x608060405262054600600c553480156200001857600080fd5b5060405162003b3738038062003b3783398181016040528101906200003e919062000282565b826000806101000a81548173ffffffffffffffffffffffffffffffffffffffff021916908373ffffffffffffffffffffffffffffffffffffffff16021790555081816040516200008e90620001d2565b6200009b9291906200035d565b604051809103906000f080158015620000b8573d6000803e3d6000fd5b50600160006101000a81548173ffffffffffffffffffffffffffffffffffffffff021916908373ffffffffffffffffffffffffffffffffffffffff1602179055506040516200010790620001e0565b604051809103906000f08015801562000124573d6000803e3d6000fd5b50600260006101000a81548173ffffffffffffffffffffffffffffffffffffffff021916908373ffffffffffffffffffffffffffffffffffffffff160217905550600560009080600181540180825580915050600190039060005260206000200160009091909190916101000a81548173ffffffffffffffffffffffffffffffffffffffff021916908373ffffffffffffffffffffffffffffffffffffffff16021790555050505062000521565b611afc8062001fdf83390190565b605c8062003adb83390190565b600062000204620001fe84620003c1565b62000398565b905082815260208101848484011115620002235762000222620004e7565b5b6200023084828562000447565b509392505050565b600081519050620002498162000507565b92915050565b600082601f830112620002675762000266620004e2565b5b815162000279848260208601620001ed565b91505092915050565b6000806000606084860312156200029e576200029d620004f1565b5b6000620002ae8682870162000238565b935050602084015167ffffffffffffffff811115620002d257620002d1620004ec565b5b620002e0868287016200024f565b925050604084015167ffffffffffffffff811115620003045762000303620004ec565b5b62000312868287016200024f565b9150509250925092565b60006200032982620003f7565b62000335818562000402565b93506200034781856020860162000447565b6200035281620004f6565b840191505092915050565b600060408201905081810360008301526200037981856200031c565b905081810360208301526200038f81846200031c565b90509392505050565b6000620003a4620003b7565b9050620003b282826200047d565b919050565b6000604051905090565b600067ffffffffffffffff821115620003df57620003de620004b3565b5b620003ea82620004f6565b9050602081019050919050565b600081519050919050565b600082825260208201905092915050565b6000620004208262000427565b9050919050565b600073ffffffffffffffffffffffffffffffffffffffff82169050919050565b60005b83811015620004675780820151818401526020810190506200044a565b8381111562000477576000848401525b50505050565b6200048882620004f6565b810181811067ffffffffffffffff82111715620004aa57620004a9620004b3565b5b80604052505050565b7f4e487b7100000000000000000000000000000000000000000000000000000000600052604160045260246000fd5b600080fd5b600080fd5b600080fd5b600080fd5b6000601f19601f8301169050919050565b620005128162000413565b81146200051e57600080fd5b50565b611aae80620005316000396000f3fe608060405234801561001057600080fd5b506004361061018e5760003560e01c80638005bc95116100de578063bca0adcb11610097578063db5e4c7f11610071578063db5e4c7f146103ff578063de6608411461041d578063f74b059e1461044d578063fce1ccca146104695761018e565b8063bca0adcb146103bd578063cc694fd7146103d9578063d98d7955146103e35761018e565b80638005bc95146102fd5780638a14ae8a1461031957806398ba130b146103375780639ca09d1c146103675780639cc52b5d14610383578063a5125421146103a15761018e565b80632fee8e3e1161014b57806350fa62e31161012557806350fa62e3146102875780635ab2ec0d146102b757806363bd1d4a146102d55780636412173e146102df5761018e565b80632fee8e3e14610243578063376a2873146102615780634a7dc8e01461026b5761018e565b806312514bba14610193578063132002fc146101af5780631b6405fe146101cd5780631c0701df146101e95780631cc1cf461461020757806329034a5c14610225575b600080fd5b6101ad60048036038101906101a891906113a7565b610487565b005b6101b7610590565b6040516101c491906116ec565b60405180910390f35b6101e760048036038101906101e291906112ba565b610596565b005b6101f16107b7565b6040516101fe91906116ec565b60405180910390f35b61020f6107c1565b60405161021c91906116ec565b60405180910390f35b61022d6107c7565b60405161023a9190611691565b60405180910390f35b61024b6107ed565b604051610258919061160a565b60405180910390f35b610269610813565b005b61028560048036038101906102809190611260565b610815565b005b6102a1600480360381019061029c91906113a7565b610952565b6040516102ae91906114b0565b60405180910390f35b6102bf610991565b6040516102cc919061165b565b60405180910390f35b6102dd6109b7565b005b6102e7610aa5565b6040516102f49190611640565b60405180910390f35b61031760048036038101906103129190611260565b610acb565b005b610321610b2e565b60405161032e91906116ec565b60405180910390f35b610351600480360381019061034c91906113a7565b610b34565b60405161035e91906114b0565b60405180910390f35b610381600480360381019061037c91906113a7565b610b73565b005b61038b610d71565b6040516103989190611625565b60405180910390f35b6103bb60048036038101906103b69190611260565b610d97565b005b6103d760048036038101906103d291906112fa565b610e7c565b005b6103e1610f65565b005b6103fd60048036038101906103f8919061133a565b610f67565b005b61040761102e565b60405161041491906116ec565b60405180910390f35b610437600480360381019061043291906113a7565b611034565b60405161044491906114b0565b60405180910390f35b61046760048036038101906104629190611260565b611073565b005b61047161116e565b60405161047e9190611676565b60405180910390f35b600b60003373ffffffffffffffffffffffffffffffffffffffff1673ffffffffffffffffffffffffffffffffffffffff16815260200190815260200160002060009054906101000a900460ff166104dd57600080fd5b600660009054906101000a900473ffffffffffffffffffffffffffffffffffffffff1673ffffffffffffffffffffffffffffffffffffffff1663a9059cbb33836040518363ffffffff1660e01b815260040161053a9291906115e1565b602060405180830381600087803b15801561055457600080fd5b505af1158015610568573d6000803e3d6000fd5b505050506040513d601f19601f8201168201806040525081019061058c919061137a565b5050565b600c5481565b6000600360009054906101000a900473ffffffffffffffffffffffffffffffffffffffff1673ffffffffffffffffffffffffffffffffffffffff1663d9acec53338585600160009054906101000a900473ffffffffffffffffffffffffffffffffffffffff16600260009054906101000a900473ffffffffffffffffffffffffffffffffffffffff1660008054906101000a900473ffffffffffffffffffffffffffffffffffffffff16600660009054906101000a900473ffffffffffffffffffffffffffffffffffffffff16600c546040518963ffffffff1660e01b81526004016106899897969594939291906114cb565b602060405180830381600087803b1580156106a357600080fd5b505af11580156106b7573d6000803e3d6000fd5b505050506040513d601f19601f820116820180604052508101906106db919061128d565b90506008819080600181540180825580915050600190039060005260206000200160009091909190916101000a81548173ffffffffffffffffffffffffffffffffffffffff021916908373ffffffffffffffffffffffffffffffffffffffff1602179055506001600b60008373ffffffffffffffffffffffffffffffffffffffff1673ffffffffffffffffffffffffffffffffffffffff16815260200190815260200160002060006101000a81548160ff0219169083151502179055506001600a60008282546107ab9190611718565b92505081905550505050565b6000600e54905090565b600d5481565b600160009054906101000a900473ffffffffffffffffffffffffffffffffffffffff1681565b600260009054906101000a900473ffffffffffffffffffffffffffffffffffffffff1681565b565b6000600760008373ffffffffffffffffffffffffffffffffffffffff1673ffffffffffffffffffffffffffffffffffffffff1681526020019081526020016000205414610897576040517f08c379a000000000000000000000000000000000000000000000000000000000815260040161088e906116cc565b60405180910390fd5b6005819080600181540180825580915050600190039060005260206000200160009091909190916101000a81548173ffffffffffffffffffffffffffffffffffffffff021916908373ffffffffffffffffffffffffffffffffffffffff160217905550600160058054905061090c91906117c8565b600760008373ffffffffffffffffffffffffffffffffffffffff1673ffffffffffffffffffffffffffffffffffffffff1681526020019081526020016000208190555050565b6008818154811061096257600080fd5b906000526020600020016000915054906101000a900473ffffffffffffffffffffffffffffffffffffffff1681565b600460009054906101000a900473ffffffffffffffffffffffffffffffffffffffff1681565b600d54600e54426109c891906117c8565b116109d257600080fd5b60005b600980549050811015610a9357600981815481106109f6576109f5611970565b5b9060005260206000200160009054906101000a900473ffffffffffffffffffffffffffffffffffffffff1673ffffffffffffffffffffffffffffffffffffffff16631b9265b86040518163ffffffff1660e01b8152600401600060405180830381600087803b158015610a6857600080fd5b505af1158015610a7c573d6000803e3d6000fd5b505050508080610a8b906118f8565b9150506109d5565b5042600e81905550610aa3611192565b565b600660009054906101000a900473ffffffffffffffffffffffffffffffffffffffff1681565b8073ffffffffffffffffffffffffffffffffffffffff16633ccfd60b6040518163ffffffff1660e01b8152600401600060405180830381600087803b158015610b1357600080fd5b505af1158015610b27573d6000803e3d6000fd5b5050505050565b600e5481565b60098181548110610b4457600080fd5b906000526020600020016000915054906101000a900473ffffffffffffffffffffffffffffffffffffffff1681565b6000600460009054906101000a900473ffffffffffffffffffffffffffffffffffffffff1673ffffffffffffffffffffffffffffffffffffffff1663842d201a33600160009054906101000a900473ffffffffffffffffffffffffffffffffffffffff16600660009054906101000a900473ffffffffffffffffffffffffffffffffffffffff1660008054906101000a900473ffffffffffffffffffffffffffffffffffffffff16600c54600d54896040518863ffffffff1660e01b8152600401610c449796959493929190611549565b602060405180830381600087803b158015610c5e57600080fd5b505af1158015610c72573d6000803e3d6000fd5b505050506040513d601f19601f82011682018060405250810190610c96919061128d565b90506009819080600181540180825580915050600190039060005260206000200160009091909190916101000a81548173ffffffffffffffffffffffffffffffffffffffff021916908373ffffffffffffffffffffffffffffffffffffffff1602179055506001600b60008373ffffffffffffffffffffffffffffffffffffffff1673ffffffffffffffffffffffffffffffffffffffff16815260200190815260200160002060006101000a81548160ff0219169083151502179055506001600a6000828254610d669190611718565b925050819055505050565b600360009054906101000a900473ffffffffffffffffffffffffffffffffffffffff1681565b60006005600760008473ffffffffffffffffffffffffffffffffffffffff1673ffffffffffffffffffffffffffffffffffffffff1681526020019081526020016000205481548110610dec57610deb611970565b5b9060005260206000200160006101000a81548173ffffffffffffffffffffffffffffffffffffffff021916908373ffffffffffffffffffffffffffffffffffffffff1602179055506000600760008373ffffffffffffffffffffffffffffffffffffffff1673ffffffffffffffffffffffffffffffffffffffff1681526020019081526020016000208190555050565b600b60003373ffffffffffffffffffffffffffffffffffffffff1673ffffffffffffffffffffffffffffffffffffffff16815260200190815260200160002060009054906101000a900460ff16610ed257600080fd5b600160009054906101000a900473ffffffffffffffffffffffffffffffffffffffff1673ffffffffffffffffffffffffffffffffffffffff166340c10f1983836040518363ffffffff1660e01b8152600401610f2f9291906115b8565b600060405180830381600087803b158015610f4957600080fd5b505af1158015610f5d573d6000803e3d6000fd5b505050505050565b565b6000610fa8576040517f08c379a0000000000000000000000000000000000000000000000000000000008152600401610f9f906116ac565b60405180910390fd5b81600360006101000a81548173ffffffffffffffffffffffffffffffffffffffff021916908373ffffffffffffffffffffffffffffffffffffffff16021790555080600460006101000a81548173ffffffffffffffffffffffffffffffffffffffff021916908373ffffffffffffffffffffffffffffffffffffffff1602179055505050565b600a5481565b6005818154811061104457600080fd5b906000526020600020016000915054906101000a900473ffffffffffffffffffffffffffffffffffffffff1681565b600061107e57600080fd5b80600660006101000a81548173ffffffffffffffffffffffffffffffffffffffff021916908373ffffffffffffffffffffffffffffffffffffffff1602179055506000600760008373ffffffffffffffffffffffffffffffffffffffff1673ffffffffffffffffffffffffffffffffffffffff16815260200190815260200160002054111561116b576005819080600181540180825580915050600190039060005260206000200160009091909190916101000a81548173ffffffffffffffffffffffffffffffffffffffff021916908373ffffffffffffffffffffffffffffffffffffffff1602179055505b50565b60008054906101000a900473ffffffffffffffffffffffffffffffffffffffff1681565b6000156111f5576000620f424090503373ffffffffffffffffffffffffffffffffffffffff166108fc3a836111c7919061176e565b9081150290604051600060405180830381858888f193505050501580156111f2573d6000803e3d6000fd5b50505b565b60008135905061120681611a1c565b92915050565b60008151905061121b81611a1c565b92915050565b60008135905061123081611a33565b92915050565b60008151905061124581611a4a565b92915050565b60008135905061125a81611a61565b92915050565b6000602082840312156112765761127561199f565b5b6000611284848285016111f7565b91505092915050565b6000602082840312156112a3576112a261199f565b5b60006112b18482850161120c565b91505092915050565b600080604083850312156112d1576112d061199f565b5b60006112df85828601611221565b92505060206112f085828601611221565b9150509250929050565b600080604083850312156113115761131061199f565b5b600061131f85828601611221565b92505060206113308582860161124b565b9150509250929050565b600080604083850312156113515761135061199f565b5b600061135f858286016111f7565b9250506020611370858286016111f7565b9150509250929050565b6000602082840312156113905761138f61199f565b5b600061139e84828501611236565b91505092915050565b6000602082840312156113bd576113bc61199f565b5b60006113cb8482850161124b565b91505092915050565b6113dd81611856565b82525050565b6113ec8161180e565b82525050565b6113fb816117fc565b82525050565b61140a81611868565b82525050565b6114198161187a565b82525050565b6114288161188c565b82525050565b6114378161189e565b82525050565b611446816118b0565b82525050565b611455816118c2565b82525050565b6000611468602583611707565b9150611473826119a4565b604082019050919050565b600061148b601083611707565b9150611496826119f3565b602082019050919050565b6114aa8161184c565b82525050565b60006020820190506114c560008301846113f2565b92915050565b6000610100820190506114e1600083018b6113e3565b6114ee602083018a6113d4565b6114fb60408301896113d4565b61150860608301886113f2565b61151560808301876113f2565b61152260a08301866113f2565b61152f60c08301856113f2565b61153c60e08301846114a1565b9998505050505050505050565b600060e08201905061155e600083018a6113e3565b61156b60208301896113f2565b61157860408301886113f2565b61158560608301876113f2565b61159260808301866114a1565b61159f60a08301856114a1565b6115ac60c08301846114a1565b98975050505050505050565b60006040820190506115cd60008301856113d4565b6115da60208301846114a1565b9392505050565b60006040820190506115f660008301856113f2565b61160360208301846114a1565b9392505050565b600060208201905061161f6000830184611401565b92915050565b600060208201905061163a6000830184611410565b92915050565b6000602082019050611655600083018461141f565b92915050565b6000602082019050611670600083018461142e565b92915050565b600060208201905061168b600083018461143d565b92915050565b60006020820190506116a6600083018461144c565b92915050565b600060208201905081810360008301526116c58161145b565b9050919050565b600060208201905081810360008301526116e58161147e565b9050919050565b600060208201905061170160008301846114a1565b92915050565b600082825260208201905092915050565b60006117238261184c565b915061172e8361184c565b9250827fffffffffffffffffffffffffffffffffffffffffffffffffffffffffffffffff0382111561176357611762611941565b5b828201905092915050565b60006117798261184c565b91506117848361184c565b9250817fffffffffffffffffffffffffffffffffffffffffffffffffffffffffffffffff04831182151516156117bd576117bc611941565b5b828202905092915050565b60006117d38261184c565b91506117de8361184c565b9250828210156117f1576117f0611941565b5b828203905092915050565b60006118078261182c565b9050919050565b60006118198261182c565b9050919050565b60008115159050919050565b600073ffffffffffffffffffffffffffffffffffffffff82169050919050565b6000819050919050565b6000611861826118d4565b9050919050565b6000611873826118d4565b9050919050565b6000611885826118d4565b9050919050565b6000611897826118d4565b9050919050565b60006118a9826118d4565b9050919050565b60006118bb826118d4565b9050919050565b60006118cd826118d4565b9050919050565b60006118df826118e6565b9050919050565b60006118f18261182c565b9050919050565b60006119038261184c565b91507fffffffffffffffffffffffffffffffffffffffffffffffffffffffffffffffff82141561193657611935611941565b5b600182019050919050565b7f4e487b7100000000000000000000000000000000000000000000000000000000600052601160045260246000fd5b7f4e487b7100000000000000000000000000000000000000000000000000000000600052603260045260246000fd5b600080fd5b7f2072657175697265732044414f20564f54452e20546f20626520696d706c656d60008201527f656e746564000000000000000000000000000000000000000000000000000000602082015250565b7f646f65736e742065786973742079657400000000000000000000000000000000600082015250565b611a25816117fc565b8114611a3057600080fd5b50565b611a3c8161180e565b8114611a4757600080fd5b50565b611a5381611820565b8114611a5e57600080fd5b50565b611a6a8161184c565b8114611a7557600080fd5b5056fea26469706673582212203d9d096fce6af5adab1c23ff475a59018bb1adb94a3052bdfbd1bd63b69d8b7364736f6c6343000807003360806040523480156200001157600080fd5b5060405162001afc38038062001afc8339818101604052810190620000379190620001e4565b8181816003908051906020019062000051929190620000b6565b5080600490805190602001906200006a929190620000b6565b50505033600560006101000a81548173ffffffffffffffffffffffffffffffffffffffff021916908373ffffffffffffffffffffffffffffffffffffffff1602179055505050620003ed565b828054620000c490620002fe565b90600052602060002090601f016020900481019282620000e8576000855562000134565b82601f106200010357805160ff191683800117855562000134565b8280016001018555821562000134579182015b828111156200013357825182559160200191906001019062000116565b5b50905062000143919062000147565b5090565b5b808211156200016257600081600090555060010162000148565b5090565b60006200017d620001778462000292565b62000269565b9050828152602081018484840111156200019c576200019b620003cd565b5b620001a9848285620002c8565b509392505050565b600082601f830112620001c957620001c8620003c8565b5b8151620001db84826020860162000166565b91505092915050565b60008060408385031215620001fe57620001fd620003d7565b5b600083015167ffffffffffffffff8111156200021f576200021e620003d2565b5b6200022d85828601620001b1565b925050602083015167ffffffffffffffff811115620002515762000250620003d2565b5b6200025f85828601620001b1565b9150509250929050565b60006200027562000288565b905062000283828262000334565b919050565b6000604051905090565b600067ffffffffffffffff821115620002b057620002af62000399565b5b620002bb82620003dc565b9050602081019050919050565b60005b83811015620002e8578082015181840152602081019050620002cb565b83811115620002f8576000848401525b50505050565b600060028204905060018216806200031757607f821691505b602082108114156200032e576200032d6200036a565b5b50919050565b6200033f82620003dc565b810181811067ffffffffffffffff8211171562000361576200036062000399565b5b80604052505050565b7f4e487b7100000000000000000000000000000000000000000000000000000000600052602260045260246000fd5b7f4e487b7100000000000000000000000000000000000000000000000000000000600052604160045260246000fd5b600080fd5b600080fd5b600080fd5b600080fd5b6000601f19601f8301169050919050565b6116ff80620003fd6000396000f3fe608060405234801561001057600080fd5b50600436106100ea5760003560e01c806340c10f191161008c57806395d89b411161006657806395d89b411461025f578063a457c2d71461027d578063a9059cbb146102ad578063dd62ed3e146102dd576100ea565b806340c10f19146101f557806367e828bf1461021157806370a082311461022f576100ea565b806320e56dbd116100c857806320e56dbd1461015b57806323b872dd14610177578063313ce567146101a757806339509351146101c5576100ea565b806306fdde03146100ef578063095ea7b31461010d57806318160ddd1461013d575b600080fd5b6100f761030d565b6040516101049190611151565b60405180910390f35b61012760048036038101906101229190610f21565b61039f565b6040516101349190611136565b60405180910390f35b6101456103bd565b6040516101529190611273565b60405180910390f35b61017560048036038101906101709190610f61565b6103c7565b005b610191600480360381019061018c9190610ece565b6103d4565b60405161019e9190611136565b60405180910390f35b6101af6104cc565b6040516101bc919061128e565b60405180910390f35b6101df60048036038101906101da9190610f21565b6104d5565b6040516101ec9190611136565b60405180910390f35b61020f600480360381019061020a9190610f21565b610581565b005b6102196105e9565b604051610226919061111b565b60405180910390f35b61024960048036038101906102449190610e61565b61060f565b6040516102569190611273565b60405180910390f35b610267610657565b6040516102749190611151565b60405180910390f35b61029760048036038101906102929190610f21565b6106e9565b6040516102a49190611136565b60405180910390f35b6102c760048036038101906102c29190610f21565b6107d4565b6040516102d49190611136565b60405180910390f35b6102f760048036038101906102f29190610e8e565b6107f2565b6040516103049190611273565b60405180910390f35b60606003805461031c906113a3565b80601f0160208091040260200160405190810160405280929190818152602001828054610348906113a3565b80156103955780601f1061036a57610100808354040283529160200191610395565b820191906000526020600020905b81548152906001019060200180831161037857829003601f168201915b5050505050905090565b60006103b36103ac610879565b8484610881565b6001905092915050565b6000600254905090565b6103d13382610a4c565b50565b60006103e1848484610bac565b6000600160008673ffffffffffffffffffffffffffffffffffffffff1673ffffffffffffffffffffffffffffffffffffffff168152602001908152602001600020600061042c610879565b73ffffffffffffffffffffffffffffffffffffffff1673ffffffffffffffffffffffffffffffffffffffff168152602001908152602001600020549050828110156104ac576040517f08c379a00000000000000000000000000000000000000000000000000000000081526004016104a3906111d3565b60405180910390fd5b6104c0856104b8610879565b858403610881565b60019150509392505050565b60006012905090565b60006105776104e2610879565b8484600160006104f0610879565b73ffffffffffffffffffffffffffffffffffffffff1673ffffffffffffffffffffffffffffffffffffffff16815260200190815260200160002060008873ffffffffffffffffffffffffffffffffffffffff1673ffffffffffffffffffffffffffffffffffffffff1681526020019081526020016000205461057291906112c5565b610881565b6001905092915050565b600560009054906101000a900473ffffffffffffffffffffffffffffffffffffffff1673ffffffffffffffffffffffffffffffffffffffff163373ffffffffffffffffffffffffffffffffffffffff16146105db57600080fd5b6105e58282610a4c565b5050565b600560009054906101000a900473ffffffffffffffffffffffffffffffffffffffff1681565b60008060008373ffffffffffffffffffffffffffffffffffffffff1673ffffffffffffffffffffffffffffffffffffffff168152602001908152602001600020549050919050565b606060048054610666906113a3565b80601f0160208091040260200160405190810160405280929190818152602001828054610692906113a3565b80156106df5780601f106106b4576101008083540402835291602001916106df565b820191906000526020600020905b8154815290600101906020018083116106c257829003601f168201915b5050505050905090565b600080600160006106f8610879565b73ffffffffffffffffffffffffffffffffffffffff1673ffffffffffffffffffffffffffffffffffffffff16815260200190815260200160002060008573ffffffffffffffffffffffffffffffffffffffff1673ffffffffffffffffffffffffffffffffffffffff168152602001908152602001600020549050828110156107b5576040517f08c379a00000000000000000000000000000000000000000000000000000000081526004016107ac90611233565b60405180910390fd5b6107c96107c0610879565b85858403610881565b600191505092915050565b60006107e86107e1610879565b8484610bac565b6001905092915050565b6000600160008473ffffffffffffffffffffffffffffffffffffffff1673ffffffffffffffffffffffffffffffffffffffff16815260200190815260200160002060008373ffffffffffffffffffffffffffffffffffffffff1673ffffffffffffffffffffffffffffffffffffffff16815260200190815260200160002054905092915050565b600033905090565b600073ffffffffffffffffffffffffffffffffffffffff168373ffffffffffffffffffffffffffffffffffffffff1614156108f1576040517f08c379a00000000000000000000000000000000000000000000000000000000081526004016108e890611213565b60405180910390fd5b600073ffffffffffffffffffffffffffffffffffffffff168273ffffffffffffffffffffffffffffffffffffffff161415610961576040517f08c379a000000000000000000000000000000000000000000000000000000000815260040161095890611193565b60405180910390fd5b80600160008573ffffffffffffffffffffffffffffffffffffffff1673ffffffffffffffffffffffffffffffffffffffff16815260200190815260200160002060008473ffffffffffffffffffffffffffffffffffffffff1673ffffffffffffffffffffffffffffffffffffffff168152602001908152602001600020819055508173ffffffffffffffffffffffffffffffffffffffff168373ffffffffffffffffffffffffffffffffffffffff167f8c5be1e5ebec7d5bd14f71427d1e84f3dd0314c0f7b2291e5b200ac8c7c3b92583604051610a3f9190611273565b60405180910390a3505050565b600073ffffffffffffffffffffffffffffffffffffffff168273ffffffffffffffffffffffffffffffffffffffff161415610abc576040517f08c379a0000000000000000000000000000000000000000000000000000000008152600401610ab390611253565b60405180910390fd5b610ac860008383610e2d565b8060026000828254610ada91906112c5565b92505081905550806000808473ffffffffffffffffffffffffffffffffffffffff1673ffffffffffffffffffffffffffffffffffffffff1681526020019081526020016000206000828254610b2f91906112c5565b925050819055508173ffffffffffffffffffffffffffffffffffffffff16600073ffffffffffffffffffffffffffffffffffffffff167fddf252ad1be2c89b69c2b068fc378daa952ba7f163c4a11628f55a4df523b3ef83604051610b949190611273565b60405180910390a3610ba860008383610e32565b5050565b600073ffffffffffffffffffffffffffffffffffffffff168373ffffffffffffffffffffffffffffffffffffffff161415610c1c576040517f08c379a0000000000000000000000000000000000000000000000000000000008152600401610c13906111f3565b60405180910390fd5b600073ffffffffffffffffffffffffffffffffffffffff168273ffffffffffffffffffffffffffffffffffffffff161415610c8c576040517f08c379a0000000000000000000000000000000000000000000000000000000008152600401610c8390611173565b60405180910390fd5b610c97838383610e2d565b60008060008573ffffffffffffffffffffffffffffffffffffffff1673ffffffffffffffffffffffffffffffffffffffff16815260200190815260200160002054905081811015610d1d576040517f08c379a0000000000000000000000000000000000000000000000000000000008152600401610d14906111b3565b60405180910390fd5b8181036000808673ffffffffffffffffffffffffffffffffffffffff1673ffffffffffffffffffffffffffffffffffffffff16815260200190815260200160002081905550816000808573ffffffffffffffffffffffffffffffffffffffff1673ffffffffffffffffffffffffffffffffffffffff1681526020019081526020016000206000828254610db091906112c5565b925050819055508273ffffffffffffffffffffffffffffffffffffffff168473ffffffffffffffffffffffffffffffffffffffff167fddf252ad1be2c89b69c2b068fc378daa952ba7f163c4a11628f55a4df523b3ef84604051610e149190611273565b60405180910390a3610e27848484610e32565b50505050565b505050565b505050565b600081359050610e468161169b565b92915050565b600081359050610e5b816116b2565b92915050565b600060208284031215610e7757610e76611433565b5b6000610e8584828501610e37565b91505092915050565b60008060408385031215610ea557610ea4611433565b5b6000610eb385828601610e37565b9250506020610ec485828601610e37565b9150509250929050565b600080600060608486031215610ee757610ee6611433565b5b6000610ef586828701610e37565b9350506020610f0686828701610e37565b9250506040610f1786828701610e4c565b9150509250925092565b60008060408385031215610f3857610f37611433565b5b6000610f4685828601610e37565b9250506020610f5785828601610e4c565b9150509250929050565b600060208284031215610f7757610f76611433565b5b6000610f8584828501610e4c565b91505092915050565b610f978161131b565b82525050565b610fa68161132d565b82525050565b6000610fb7826112a9565b610fc181856112b4565b9350610fd1818560208601611370565b610fda81611438565b840191505092915050565b6000610ff26023836112b4565b9150610ffd82611449565b604082019050919050565b60006110156022836112b4565b915061102082611498565b604082019050919050565b60006110386026836112b4565b9150611043826114e7565b604082019050919050565b600061105b6028836112b4565b915061106682611536565b604082019050919050565b600061107e6025836112b4565b915061108982611585565b604082019050919050565b60006110a16024836112b4565b91506110ac826115d4565b604082019050919050565b60006110c46025836112b4565b91506110cf82611623565b604082019050919050565b60006110e7601f836112b4565b91506110f282611672565b602082019050919050565b61110681611359565b82525050565b61111581611363565b82525050565b60006020820190506111306000830184610f8e565b92915050565b600060208201905061114b6000830184610f9d565b92915050565b6000602082019050818103600083015261116b8184610fac565b905092915050565b6000602082019050818103600083015261118c81610fe5565b9050919050565b600060208201905081810360008301526111ac81611008565b9050919050565b600060208201905081810360008301526111cc8161102b565b9050919050565b600060208201905081810360008301526111ec8161104e565b9050919050565b6000602082019050818103600083015261120c81611071565b9050919050565b6000602082019050818103600083015261122c81611094565b9050919050565b6000602082019050818103600083015261124c816110b7565b9050919050565b6000602082019050818103600083015261126c816110da565b9050919050565b600060208201905061128860008301846110fd565b92915050565b60006020820190506112a3600083018461110c565b92915050565b600081519050919050565b600082825260208201905092915050565b60006112d082611359565b91506112db83611359565b9250827fffffffffffffffffffffffffffffffffffffffffffffffffffffffffffffffff038211156113105761130f6113d5565b5b828201905092915050565b600061132682611339565b9050919050565b60008115159050919050565b600073ffffffffffffffffffffffffffffffffffffffff82169050919050565b6000819050919050565b600060ff82169050919050565b60005b8381101561138e578082015181840152602081019050611373565b8381111561139d576000848401525b50505050565b600060028204905060018216806113bb57607f821691505b602082108114156113cf576113ce611404565b5b50919050565b7f4e487b7100000000000000000000000000000000000000000000000000000000600052601160045260246000fd5b7f4e487b7100000000000000000000000000000000000000000000000000000000600052602260045260246000fd5b600080fd5b6000601f19601f8301169050919050565b7f45524332303a207472616e7366657220746f20746865207a65726f206164647260008201527f6573730000000000000000000000000000000000000000000000000000000000602082015250565b7f45524332303a20617070726f766520746f20746865207a65726f20616464726560008201527f7373000000000000000000000000000000000000000000000000000000000000602082015250565b7f45524332303a207472616e7366657220616d6f756e742065786365656473206260008201527f616c616e63650000000000000000000000000000000000000000000000000000602082015250565b7f45524332303a207472616e7366657220616d6f756e742065786365656473206160008201527f6c6c6f77616e6365000000000000000000000000000000000000000000000000602082015250565b7f45524332303a207472616e736665722066726f6d20746865207a65726f20616460008201527f6472657373000000000000000000000000000000000000000000000000000000602082015250565b7f45524332303a20617070726f76652066726f6d20746865207a65726f2061646460008201527f7265737300000000000000000000000000000000000000000000000000000000602082015250565b7f45524332303a2064656372656173656420616c6c6f77616e63652062656c6f7760008201527f207a65726f000000000000000000000000000000000000000000000000000000602082015250565b7f45524332303a206d696e7420746f20746865207a65726f206164647265737300600082015250565b6116a48161131b565b81146116af57600080fd5b50565b6116bb81611359565b81146116c657600080fd5b5056fea2646970667358221220039a77c3a044fec0e4e4496331cc9833981ce8917e12ca9dde63bfcc13150cc964736f6c634300080700336080604052348015600f57600080fd5b50603f80601d6000396000f3fe6080604052600080fdfea2646970667358221220c139efeb2d1b64d42aa0d3796f49c67072e0819abc8274d7121cd986035f3a5364736f6c63430008070033",
  "linkReferences": {},
  "deployedLinkReferences": {}
}