{
  "_format": "hh-sol-artifact-1",
  "contractName": "Source",
  "sourceName": "contracts/DAO/DAO.sol",
  "abi": [
    {
      "inputs": [
        {
          "internalType": "address",
          "name": "votingContract",
          "type": "address"
        },
        {
          "internalType": "string",
          "name": "name",
          "type": "string"
        },
        {
          "internalType": "string",
          "name": "symbol",
          "type": "string"
        }
      ],
      "stateMutability": "nonpayable",
      "type": "constructor"
    },
    {
      "anonymous": false,
      "inputs": [
        {
          "indexed": false,
          "internalType": "address",
          "name": "_project",
          "type": "address"
        }
      ],
      "name": "ProjectCreated",
      "type": "event"
    },
    {
      "inputs": [
        {
          "internalType": "address",
          "name": "_erc20TokenAddress",
          "type": "address"
        }
      ],
      "name": "addPaymentToken",
      "outputs": [],
      "stateMutability": "nonpayable",
      "type": "function"
    },
    {
      "inputs": [],
      "name": "arbitrationEscrow",
      "outputs": [
        {
          "internalType": "contract ArbitrationEscrow",
          "name": "",
          "type": "address"
        }
      ],
      "stateMutability": "view",
      "type": "function"
    },
    {
      "inputs": [],
      "name": "burnRep",
      "outputs": [],
      "stateMutability": "nonpayable",
      "type": "function"
    },
    {
      "inputs": [],
      "name": "changePaymentInterval",
      "outputs": [],
      "stateMutability": "nonpayable",
      "type": "function"
    },
    {
      "inputs": [],
      "name": "clientProjectFactory",
      "outputs": [
        {
          "internalType": "contract IClientProjectFactory",
          "name": "",
          "type": "address"
        }
      ],
      "stateMutability": "view",
      "type": "function"
    },
    {
      "inputs": [
        {
          "internalType": "uint256",
          "name": "",
          "type": "uint256"
        }
      ],
      "name": "clientProjects",
      "outputs": [
        {
          "internalType": "address",
          "name": "",
          "type": "address"
        }
      ],
      "stateMutability": "view",
      "type": "function"
    },
    {
      "inputs": [
        {
          "internalType": "address payable",
          "name": "_client",
          "type": "address"
        },
        {
          "internalType": "address payable",
          "name": "_arbiter",
          "type": "address"
        }
      ],
      "name": "createClientProject",
      "outputs": [],
      "stateMutability": "nonpayable",
      "type": "function"
    },
    {
      "inputs": [
        {
          "internalType": "uint256",
          "name": "_requestedAmount",
          "type": "uint256"
        }
      ],
      "name": "createInternalProject",
      "outputs": [],
      "stateMutability": "nonpayable",
      "type": "function"
    },
    {
      "inputs": [
        {
          "internalType": "uint8",
          "name": "",
          "type": "uint8"
        }
      ],
      "name": "currentPoll",
      "outputs": [
        {
          "internalType": "uint256",
          "name": "index",
          "type": "uint256"
        },
        {
          "internalType": "uint8",
          "name": "status",
          "type": "uint8"
        }
      ],
      "stateMutability": "view",
      "type": "function"
    },
    {
      "inputs": [],
      "name": "defaultPaymentToken",
      "outputs": [
        {
          "internalType": "contract IERC20",
          "name": "",
          "type": "address"
        }
      ],
      "stateMutability": "view",
      "type": "function"
    },
    {
      "inputs": [],
      "name": "defaultPermilleThreshold",
      "outputs": [
        {
          "internalType": "uint120",
          "name": "",
          "type": "uint120"
        }
      ],
      "stateMutability": "view",
      "type": "function"
    },
    {
      "inputs": [],
      "name": "defaultVotingDuration",
      "outputs": [
        {
          "internalType": "uint40",
          "name": "",
          "type": "uint40"
        }
      ],
      "stateMutability": "view",
      "type": "function"
    },
    {
      "inputs": [],
      "name": "getStartPaymentTimer",
      "outputs": [
        {
          "internalType": "uint256",
          "name": "",
          "type": "uint256"
        }
      ],
      "stateMutability": "view",
      "type": "function"
    },
    {
      "inputs": [],
      "name": "initialVotingDuration",
      "outputs": [
        {
          "internalType": "uint256",
          "name": "",
          "type": "uint256"
        }
      ],
      "stateMutability": "view",
      "type": "function"
    },
    {
      "inputs": [],
      "name": "internalProjectFactory",
      "outputs": [
        {
          "internalType": "contract IInternalProjectFactory",
          "name": "",
          "type": "address"
        }
      ],
      "stateMutability": "view",
      "type": "function"
    },
    {
      "inputs": [
        {
          "internalType": "uint256",
          "name": "",
          "type": "uint256"
        }
      ],
      "name": "internalProjects",
      "outputs": [
        {
          "internalType": "address",
          "name": "",
          "type": "address"
        }
      ],
      "stateMutability": "view",
      "type": "function"
    },
    {
      "inputs": [
        {
          "internalType": "address",
          "name": "_project",
          "type": "address"
        }
      ],
      "name": "liquidateInternalProject",
      "outputs": [],
      "stateMutability": "nonpayable",
      "type": "function"
    },
    {
      "inputs": [
        {
          "internalType": "uint256",
          "name": "_amount",
          "type": "uint256"
        }
      ],
      "name": "mintRep",
      "outputs": [],
      "stateMutability": "nonpayable",
      "type": "function"
    },
    {
      "inputs": [
        {
          "internalType": "address payable",
          "name": "payee",
          "type": "address"
        },
        {
          "internalType": "uint256",
          "name": "amount",
          "type": "uint256"
        }
      ],
      "name": "mintRepTokens",
      "outputs": [],
      "stateMutability": "nonpayable",
      "type": "function"
    },
    {
      "inputs": [],
      "name": "numberOfProjects",
      "outputs": [
        {
          "internalType": "uint256",
          "name": "",
          "type": "uint256"
        }
      ],
      "stateMutability": "view",
      "type": "function"
    },
    {
      "inputs": [],
      "name": "paymentInterval",
      "outputs": [
        {
          "internalType": "uint256",
          "name": "",
          "type": "uint256"
        }
      ],
      "stateMutability": "view",
      "type": "function"
    },
    {
      "inputs": [
        {
          "internalType": "uint256",
          "name": "",
          "type": "uint256"
        }
      ],
      "name": "paymentTokens",
      "outputs": [
        {
          "internalType": "address",
          "name": "",
          "type": "address"
        }
      ],
      "stateMutability": "view",
      "type": "function"
    },
    {
      "inputs": [],
      "name": "payout",
      "outputs": [],
      "stateMutability": "nonpayable",
      "type": "function"
    },
    {
      "inputs": [
        {
          "internalType": "address",
          "name": "_erc20TokenAddress",
          "type": "address"
        }
      ],
      "name": "removePaymentToken",
      "outputs": [],
      "stateMutability": "nonpayable",
      "type": "function"
    },
    {
      "inputs": [],
      "name": "repToken",
      "outputs": [
        {
          "internalType": "contract RepToken",
          "name": "",
          "type": "address"
        }
      ],
      "stateMutability": "view",
      "type": "function"
    },
    {
      "inputs": [],
      "name": "resetPaymentTimer",
      "outputs": [],
      "stateMutability": "nonpayable",
      "type": "function"
    },
    {
      "inputs": [
        {
          "internalType": "address",
          "name": "_erc20TokenAddress",
          "type": "address"
        }
      ],
      "name": "setDefaultPaymentToken",
      "outputs": [],
      "stateMutability": "nonpayable",
      "type": "function"
    },
    {
      "inputs": [
        {
          "internalType": "address",
          "name": "_clientProjectFactory",
          "type": "address"
        },
        {
          "internalType": "address",
          "name": "_internalProjectFactory",
          "type": "address"
        }
      ],
      "name": "setDeploymentFactories",
      "outputs": [],
      "stateMutability": "nonpayable",
      "type": "function"
    },
    {
      "inputs": [],
      "name": "startPaymentTimer",
      "outputs": [
        {
          "internalType": "uint256",
          "name": "",
          "type": "uint256"
        }
      ],
      "stateMutability": "view",
      "type": "function"
    },
    {
      "inputs": [
        {
          "internalType": "uint256",
          "name": "_amount",
          "type": "uint256"
        }
      ],
      "name": "transfer",
      "outputs": [],
      "stateMutability": "nonpayable",
      "type": "function"
    },
    {
      "inputs": [],
      "name": "voting",
      "outputs": [
        {
          "internalType": "contract IVoting",
          "name": "",
          "type": "address"
        }
      ],
      "stateMutability": "view",
      "type": "function"
    }
  ],
  "bytecode": "0x608060405262093a80600e556101f4601060006101000a8154816effffffffffffffffffffffffffffff02191690836effffffffffffffffffffffffffffff160217905550620d2f006010600f6101000a81548164ffffffffff021916908364ffffffffff1602179055503480156200007757600080fd5b5060405162004add38038062004add83398181016040528101906200009d9190620002e8565b826000806101000a81548173ffffffffffffffffffffffffffffffffffffffff021916908373ffffffffffffffffffffffffffffffffffffffff1602179055508181604051620000ed9062000238565b620000fa929190620003c3565b604051809103906000f08015801562000117573d6000803e3d6000fd5b50600160006101000a81548173ffffffffffffffffffffffffffffffffffffffff021916908373ffffffffffffffffffffffffffffffffffffffff160217905550604051620001669062000246565b604051809103906000f08015801562000183573d6000803e3d6000fd5b50600260006101000a81548173ffffffffffffffffffffffffffffffffffffffff021916908373ffffffffffffffffffffffffffffffffffffffff160217905550600760009080600181540180825580915050600190039060005260206000200160009091909190916101000a81548173ffffffffffffffffffffffffffffffffffffffff021916908373ffffffffffffffffffffffffffffffffffffffff1602179055504260068190555050505062000587565b611eba8062002bc783390190565b605c8062004a8183390190565b60006200026a620002648462000427565b620003fe565b9050828152602081018484840111156200028957620002886200054d565b5b62000296848285620004ad565b509392505050565b600081519050620002af816200056d565b92915050565b600082601f830112620002cd57620002cc62000548565b5b8151620002df84826020860162000253565b91505092915050565b60008060006060848603121562000304576200030362000557565b5b600062000314868287016200029e565b935050602084015167ffffffffffffffff81111562000338576200033762000552565b5b6200034686828701620002b5565b925050604084015167ffffffffffffffff8111156200036a576200036962000552565b5b6200037886828701620002b5565b9150509250925092565b60006200038f826200045d565b6200039b818562000468565b9350620003ad818560208601620004ad565b620003b8816200055c565b840191505092915050565b60006040820190508181036000830152620003df818562000382565b90508181036020830152620003f5818462000382565b90509392505050565b60006200040a6200041d565b9050620004188282620004e3565b919050565b6000604051905090565b600067ffffffffffffffff82111562000445576200044462000519565b5b62000450826200055c565b9050602081019050919050565b600081519050919050565b600082825260208201905092915050565b600062000486826200048d565b9050919050565b600073ffffffffffffffffffffffffffffffffffffffff82169050919050565b60005b83811015620004cd578082015181840152602081019050620004b0565b83811115620004dd576000848401525b50505050565b620004ee826200055c565b810181811067ffffffffffffffff8211171562000510576200050f62000519565b5b80604052505050565b7f4e487b7100000000000000000000000000000000000000000000000000000000600052604160045260246000fd5b600080fd5b600080fd5b600080fd5b600080fd5b6000601f19601f8301169050919050565b620005788162000479565b81146200058457600080fd5b50565b61263080620005976000396000f3fe608060405234801561001057600080fd5b50600436106101e55760003560e01c806382d6ddff1161010f578063a5125421116100a2578063de66084111610071578063de660841146104d6578063e093ba8214610506578063f74b059e14610537578063fce1ccca14610553576101e5565b8063a512542114610464578063bca0adcb14610480578063d98d79551461049c578063db5e4c7f146104b8576101e5565b80639ca09d1c116100de5780639ca09d1c146103ee5780639cc52b5d1461040a578063a09312fd14610428578063a3db1d2014610446576101e5565b806382d6ddff1461036657806382f072e8146103825780638a14ae8a146103a057806398ba130b146103be576101e5565b806336061081116101875780635ab2ec0d116101565780635ab2ec0d1461030457806363bd1d4a146103225780636412173e1461032c5780638005bc951461034a576101e5565b806336061081146102a4578063376a2873146102ae5780634a7dc8e0146102b857806350fa62e3146102d4576101e5565b80631c0701df116101c35780631c0701df1461022c5780631cc1cf461461024a57806329034a5c146102685780632fee8e3e14610286576101e5565b806312514bba146101ea57806313f6d05c146102065780631b6405fe14610210575b600080fd5b61020460048036038101906101ff9190611c84565b610571565b005b61020e61067a565b005b61022a60048036038101906102259190611b97565b61067c565b005b61023461089d565b604051610241919061213e565b60405180910390f35b6102526108a7565b60405161025f919061213e565b60405180910390f35b6102706108ad565b60405161027d9190612063565b60405180910390f35b61028e6108d3565b60405161029b9190611fdc565b60405180910390f35b6102ac6108f9565b005b6102b6610a8a565b005b6102d260048036038101906102cd9190611b3d565b610a8c565b005b6102ee60048036038101906102e99190611c84565b610bc9565b6040516102fb9190611e82565b60405180910390f35b61030c610c08565b604051610319919061202d565b60405180910390f35b61032a610c2e565b005b610334610d1c565b6040516103419190612012565b60405180910390f35b610364600480360381019061035f9190611b3d565b610d42565b005b610380600480360381019061037b9190611c84565b610da5565b005b61038a610e8d565b6040516103979190612123565b60405180910390f35b6103a8610eae565b6040516103b5919061213e565b60405180910390f35b6103d860048036038101906103d39190611c84565b610eb4565b6040516103e59190611e82565b60405180910390f35b61040860048036038101906104039190611c84565b610ef3565b005b6104126110f1565b60405161041f9190611ff7565b60405180910390f35b610430611117565b60405161043d91906121c7565b60405180910390f35b61044e61112e565b60405161045b919061213e565b60405180910390f35b61047e60048036038101906104799190611b3d565b611134565b005b61049a60048036038101906104959190611bd7565b611219565b005b6104b660048036038101906104b19190611c17565b611302565b005b6104c06113c9565b6040516104cd919061213e565b60405180910390f35b6104f060048036038101906104eb9190611c84565b6113cf565b6040516104fd9190611e82565b60405180910390f35b610520600480360381019061051b9190611cde565b61140e565b60405161052e92919061219e565b60405180910390f35b610551600480360381019061054c9190611b3d565b61143f565b005b61055b611a0c565b6040516105689190612048565b60405180910390f35b600d60003373ffffffffffffffffffffffffffffffffffffffff1673ffffffffffffffffffffffffffffffffffffffff16815260200190815260200160002060009054906101000a900460ff166105c757600080fd5b600860009054906101000a900473ffffffffffffffffffffffffffffffffffffffff1673ffffffffffffffffffffffffffffffffffffffff1663a9059cbb33836040518363ffffffff1660e01b8152600401610624929190611fb3565b602060405180830381600087803b15801561063e57600080fd5b505af1158015610652573d6000803e3d6000fd5b505050506040513d601f19601f820116820180604052508101906106769190611c57565b5050565b565b6000600360009054906101000a900473ffffffffffffffffffffffffffffffffffffffff1673ffffffffffffffffffffffffffffffffffffffff1663d9acec53338585600160009054906101000a900473ffffffffffffffffffffffffffffffffffffffff16600260009054906101000a900473ffffffffffffffffffffffffffffffffffffffff1660008054906101000a900473ffffffffffffffffffffffffffffffffffffffff16600860009054906101000a900473ffffffffffffffffffffffffffffffffffffffff16600e546040518963ffffffff1660e01b815260040161076f989796959493929190611e9d565b602060405180830381600087803b15801561078957600080fd5b505af115801561079d573d6000803e3d6000fd5b505050506040513d601f19601f820116820180604052508101906107c19190611b6a565b9050600a819080600181540180825580915050600190039060005260206000200160009091909190916101000a81548173ffffffffffffffffffffffffffffffffffffffff021916908373ffffffffffffffffffffffffffffffffffffffff1602179055506001600d60008373ffffffffffffffffffffffffffffffffffffffff1673ffffffffffffffffffffffffffffffffffffffff16815260200190815260200160002060006101000a81548160ff0219169083151502179055506001600c600082825461089191906121f3565b92505081905550505050565b6000600654905090565b600f5481565b600160009054906101000a900473ffffffffffffffffffffffffffffffffffffffff1681565b600260009054906101000a900473ffffffffffffffffffffffffffffffffffffffff1681565b600d60003373ffffffffffffffffffffffffffffffffffffffff1673ffffffffffffffffffffffffffffffffffffffff16815260200190815260200160002060009054906101000a900460ff1661094f57600080fd5b600160009054906101000a900473ffffffffffffffffffffffffffffffffffffffff1673ffffffffffffffffffffffffffffffffffffffff16639dc29fac33600160009054906101000a900473ffffffffffffffffffffffffffffffffffffffff1673ffffffffffffffffffffffffffffffffffffffff166370a08231336040518263ffffffff1660e01b81526004016109e99190611e82565b60206040518083038186803b158015610a0157600080fd5b505afa158015610a15573d6000803e3d6000fd5b505050506040513d601f19601f82011682018060405250810190610a399190611cb1565b6040518363ffffffff1660e01b8152600401610a56929190611fb3565b600060405180830381600087803b158015610a7057600080fd5b505af1158015610a84573d6000803e3d6000fd5b50505050565b565b6000600960008373ffffffffffffffffffffffffffffffffffffffff1673ffffffffffffffffffffffffffffffffffffffff1681526020019081526020016000205414610b0e576040517f08c379a0000000000000000000000000000000000000000000000000000000008152600401610b0590612103565b60405180910390fd5b6007819080600181540180825580915050600190039060005260206000200160009091909190916101000a81548173ffffffffffffffffffffffffffffffffffffffff021916908373ffffffffffffffffffffffffffffffffffffffff1602179055506001600780549050610b8391906122a3565b600960008373ffffffffffffffffffffffffffffffffffffffff1673ffffffffffffffffffffffffffffffffffffffff1681526020019081526020016000208190555050565b600a8181548110610bd957600080fd5b906000526020600020016000915054906101000a900473ffffffffffffffffffffffffffffffffffffffff1681565b600460009054906101000a900473ffffffffffffffffffffffffffffffffffffffff1681565b600f5460065442610c3f91906122a3565b11610c4957600080fd5b60005b600b80549050811015610d0a57600b8181548110610c6d57610c6c6124b2565b5b9060005260206000200160009054906101000a900473ffffffffffffffffffffffffffffffffffffffff1673ffffffffffffffffffffffffffffffffffffffff16631b9265b86040518163ffffffff1660e01b8152600401600060405180830381600087803b158015610cdf57600080fd5b505af1158015610cf3573d6000803e3d6000fd5b505050508080610d029061243a565b915050610c4c565b5042600681905550610d1a611a30565b565b600860009054906101000a900473ffffffffffffffffffffffffffffffffffffffff1681565b8073ffffffffffffffffffffffffffffffffffffffff16633ccfd60b6040518163ffffffff1660e01b8152600401600060405180830381600087803b158015610d8a57600080fd5b505af1158015610d9e573d6000803e3d6000fd5b5050505050565b600d60003373ffffffffffffffffffffffffffffffffffffffff1673ffffffffffffffffffffffffffffffffffffffff16815260200190815260200160002060009054906101000a900460ff16610dfb57600080fd5b600160009054906101000a900473ffffffffffffffffffffffffffffffffffffffff1673ffffffffffffffffffffffffffffffffffffffff166340c10f1933836040518363ffffffff1660e01b8152600401610e58929190611fb3565b600060405180830381600087803b158015610e7257600080fd5b505af1158015610e86573d6000803e3d6000fd5b5050505050565b601060009054906101000a90046effffffffffffffffffffffffffffff1681565b60065481565b600b8181548110610ec457600080fd5b906000526020600020016000915054906101000a900473ffffffffffffffffffffffffffffffffffffffff1681565b6000600460009054906101000a900473ffffffffffffffffffffffffffffffffffffffff1673ffffffffffffffffffffffffffffffffffffffff1663842d201a33600160009054906101000a900473ffffffffffffffffffffffffffffffffffffffff16600860009054906101000a900473ffffffffffffffffffffffffffffffffffffffff1660008054906101000a900473ffffffffffffffffffffffffffffffffffffffff16600e54600f54896040518863ffffffff1660e01b8152600401610fc49796959493929190611f1b565b602060405180830381600087803b158015610fde57600080fd5b505af1158015610ff2573d6000803e3d6000fd5b505050506040513d601f19601f820116820180604052508101906110169190611b6a565b9050600b819080600181540180825580915050600190039060005260206000200160009091909190916101000a81548173ffffffffffffffffffffffffffffffffffffffff021916908373ffffffffffffffffffffffffffffffffffffffff1602179055506001600d60008373ffffffffffffffffffffffffffffffffffffffff1673ffffffffffffffffffffffffffffffffffffffff16815260200190815260200160002060006101000a81548160ff0219169083151502179055506001600c60008282546110e691906121f3565b925050819055505050565b600360009054906101000a900473ffffffffffffffffffffffffffffffffffffffff1681565b6010600f9054906101000a900464ffffffffff1681565b600e5481565b60006007600960008473ffffffffffffffffffffffffffffffffffffffff1673ffffffffffffffffffffffffffffffffffffffff1681526020019081526020016000205481548110611189576111886124b2565b5b9060005260206000200160006101000a81548173ffffffffffffffffffffffffffffffffffffffff021916908373ffffffffffffffffffffffffffffffffffffffff1602179055506000600960008373ffffffffffffffffffffffffffffffffffffffff1673ffffffffffffffffffffffffffffffffffffffff1681526020019081526020016000208190555050565b600d60003373ffffffffffffffffffffffffffffffffffffffff1673ffffffffffffffffffffffffffffffffffffffff16815260200190815260200160002060009054906101000a900460ff1661126f57600080fd5b600160009054906101000a900473ffffffffffffffffffffffffffffffffffffffff1673ffffffffffffffffffffffffffffffffffffffff166340c10f1983836040518363ffffffff1660e01b81526004016112cc929190611f8a565b600060405180830381600087803b1580156112e657600080fd5b505af11580156112fa573d6000803e3d6000fd5b505050505050565b6000611343576040517f08c379a000000000000000000000000000000000000000000000000000000000815260040161133a906120e3565b60405180910390fd5b81600360006101000a81548173ffffffffffffffffffffffffffffffffffffffff021916908373ffffffffffffffffffffffffffffffffffffffff16021790555080600460006101000a81548173ffffffffffffffffffffffffffffffffffffffff021916908373ffffffffffffffffffffffffffffffffffffffff1602179055505050565b600c5481565b600781815481106113df57600080fd5b906000526020600020016000915054906101000a900473ffffffffffffffffffffffffffffffffffffffff1681565b60056020528060005260406000206000915090508060000154908060010160009054906101000a900460ff16905082565b6000816001600560008460ff1660ff16815260200190815260200160002060010160009054906101000a900460ff1660ff1611156114b2576040517f08c379a00000000000000000000000000000000000000000000000000000000081526004016114a9906120c3565b60405180910390fd5b6000600560008460ff1660ff16815260200190815260200160002060010160009054906101000a900460ff1660ff1614156116bf5760008054906101000a900473ffffffffffffffffffffffffffffffffffffffff1673ffffffffffffffffffffffffffffffffffffffff16637b6e5f9c60046010600f9054906101000a900464ffffffffff16601060009054906101000a90046effffffffffffffffffffffffffffff16600160009054906101000a900473ffffffffffffffffffffffffffffffffffffffff1673ffffffffffffffffffffffffffffffffffffffff166318160ddd6040518163ffffffff1660e01b815260040160206040518083038186803b1580156115bf57600080fd5b505afa1580156115d3573d6000803e3d6000fd5b505050506040513d601f19601f820116820180604052508101906115f79190611cb1565b6040518563ffffffff1660e01b8152600401611616949392919061207e565b602060405180830381600087803b15801561163057600080fd5b505af1158015611644573d6000803e3d6000fd5b505050506040513d601f19601f820116820180604052508101906116689190611cb1565b600560008460ff1660ff168152602001908152602001600020600001819055506001600560008460ff1660ff16815260200190815260200160002060010160006101000a81548160ff021916908360ff1602179055505b60008054906101000a900473ffffffffffffffffffffffffffffffffffffffff1673ffffffffffffffffffffffffffffffffffffffff1663e31f7b28600560008060ff168152602001908152602001600020600001543384600160009054906101000a900473ffffffffffffffffffffffffffffffffffffffff1673ffffffffffffffffffffffffffffffffffffffff166370a08231336040518263ffffffff1660e01b81526004016117729190611e82565b60206040518083038186803b15801561178a57600080fd5b505afa15801561179e573d6000803e3d6000fd5b505050506040513d601f19601f820116820180604052508101906117c29190611cb1565b6040518563ffffffff1660e01b81526004016117e19493929190612159565b602060405180830381600087803b1580156117fb57600080fd5b505af115801561180f573d6000803e3d6000fd5b505050506040513d601f19601f820116820180604052508101906118339190611d0b565b600560008060ff16815260200190815260200160002060010160006101000a81548160ff021916908360ff1602179055506002600560008060ff16815260200190815260200160002060010160009054906101000a900460ff1660ff1614156119ac5782600860006101000a81548173ffffffffffffffffffffffffffffffffffffffff021916908373ffffffffffffffffffffffffffffffffffffffff1602179055506000600960008573ffffffffffffffffffffffffffffffffffffffff1673ffffffffffffffffffffffffffffffffffffffff168152602001908152602001600020541115611983576007839080600181540180825580915050600190039060005260206000200160009091909190916101000a81548173ffffffffffffffffffffffffffffffffffffffff021916908373ffffffffffffffffffffffffffffffffffffffff1602179055505b6000600560008060ff16815260200190815260200160002060010160009054906101000a905050505b6003600560008060ff16815260200190815260200160002060010160009054906101000a900460ff1660ff161415611a07576000600560008060ff16815260200190815260200160002060010160009054906101000a905050505b505050565b60008054906101000a900473ffffffffffffffffffffffffffffffffffffffff1681565b600015611a93576000620f424090503373ffffffffffffffffffffffffffffffffffffffff166108fc3a83611a659190612249565b9081150290604051600060405180830381858888f19350505050158015611a90573d6000803e3d6000fd5b50505b565b600081359050611aa481612587565b92915050565b600081519050611ab981612587565b92915050565b600081359050611ace8161259e565b92915050565b600081519050611ae3816125b5565b92915050565b600081359050611af8816125cc565b92915050565b600081519050611b0d816125cc565b92915050565b600081359050611b22816125e3565b92915050565b600081519050611b37816125e3565b92915050565b600060208284031215611b5357611b526124e1565b5b6000611b6184828501611a95565b91505092915050565b600060208284031215611b8057611b7f6124e1565b5b6000611b8e84828501611aaa565b91505092915050565b60008060408385031215611bae57611bad6124e1565b5b6000611bbc85828601611abf565b9250506020611bcd85828601611abf565b9150509250929050565b60008060408385031215611bee57611bed6124e1565b5b6000611bfc85828601611abf565b9250506020611c0d85828601611ae9565b9150509250929050565b60008060408385031215611c2e57611c2d6124e1565b5b6000611c3c85828601611a95565b9250506020611c4d85828601611a95565b9150509250929050565b600060208284031215611c6d57611c6c6124e1565b5b6000611c7b84828501611ad4565b91505092915050565b600060208284031215611c9a57611c996124e1565b5b6000611ca884828501611ae9565b91505092915050565b600060208284031215611cc757611cc66124e1565b5b6000611cd584828501611afe565b91505092915050565b600060208284031215611cf457611cf36124e1565b5b6000611d0284828501611b13565b91505092915050565b600060208284031215611d2157611d206124e1565b5b6000611d2f84828501611b28565b91505092915050565b611d4181612386565b82525050565b611d50816122e9565b82525050565b611d5f816122d7565b82525050565b611d6e81612398565b82525050565b611d7d816123aa565b82525050565b611d8c816123bc565b82525050565b611d9b816123ce565b82525050565b611daa816123e0565b82525050565b611db9816123f2565b82525050565b611dc881612404565b82525050565b6000611ddb6012836121e2565b9150611de6826124e6565b602082019050919050565b6000611dfe6025836121e2565b9150611e098261250f565b604082019050919050565b6000611e216010836121e2565b9150611e2c8261255e565b602082019050919050565b611e4081612307565b82525050565b611e4f81612322565b82525050565b611e5e8161235e565b82525050565b611e6d81612368565b82525050565b611e7c81612379565b82525050565b6000602082019050611e976000830184611d56565b92915050565b600061010082019050611eb3600083018b611d47565b611ec0602083018a611d38565b611ecd6040830189611d38565b611eda6060830188611d56565b611ee76080830187611d56565b611ef460a0830186611d56565b611f0160c0830185611d56565b611f0e60e0830184611e55565b9998505050505050505050565b600060e082019050611f30600083018a611d47565b611f3d6020830189611d56565b611f4a6040830188611d56565b611f576060830187611d56565b611f646080830186611e55565b611f7160a0830185611e55565b611f7e60c0830184611e55565b98975050505050505050565b6000604082019050611f9f6000830185611d38565b611fac6020830184611e55565b9392505050565b6000604082019050611fc86000830185611d56565b611fd56020830184611e55565b9392505050565b6000602082019050611ff16000830184611d65565b92915050565b600060208201905061200c6000830184611d74565b92915050565b60006020820190506120276000830184611d83565b92915050565b60006020820190506120426000830184611d92565b92915050565b600060208201905061205d6000830184611da1565b92915050565b60006020820190506120786000830184611db0565b92915050565b60006080820190506120936000830187611dbf565b6120a06020830186611e64565b6120ad6040830185611e37565b6120ba6060830184611e37565b95945050505050565b600060208201905081810360008301526120dc81611dce565b9050919050565b600060208201905081810360008301526120fc81611df1565b9050919050565b6000602082019050818103600083015261211c81611e14565b9050919050565b60006020820190506121386000830184611e37565b92915050565b60006020820190506121536000830184611e55565b92915050565b600060808201905061216e6000830187611e55565b61217b6020830186611d56565b6121886040830185611d56565b6121956060830184611e46565b95945050505050565b60006040820190506121b36000830185611e55565b6121c06020830184611e73565b9392505050565b60006020820190506121dc6000830184611e64565b92915050565b600082825260208201905092915050565b60006121fe8261235e565b91506122098361235e565b9250827fffffffffffffffffffffffffffffffffffffffffffffffffffffffffffffffff0382111561223e5761223d612483565b5b828201905092915050565b60006122548261235e565b915061225f8361235e565b9250817fffffffffffffffffffffffffffffffffffffffffffffffffffffffffffffffff048311821515161561229857612297612483565b5b828202905092915050565b60006122ae8261235e565b91506122b98361235e565b9250828210156122cc576122cb612483565b5b828203905092915050565b60006122e28261233e565b9050919050565b60006122f48261233e565b9050919050565b60008115159050919050565b60006effffffffffffffffffffffffffffff82169050919050565b60006fffffffffffffffffffffffffffffffff82169050919050565b600073ffffffffffffffffffffffffffffffffffffffff82169050919050565b6000819050919050565b600064ffffffffff82169050919050565b600060ff82169050919050565b600061239182612416565b9050919050565b60006123a382612416565b9050919050565b60006123b582612416565b9050919050565b60006123c782612416565b9050919050565b60006123d982612416565b9050919050565b60006123eb82612416565b9050919050565b60006123fd82612416565b9050919050565b600061240f82612379565b9050919050565b600061242182612428565b9050919050565b60006124338261233e565b9050919050565b60006124458261235e565b91507fffffffffffffffffffffffffffffffffffffffffffffffffffffffffffffffff82141561247857612477612483565b5b600182019050919050565b7f4e487b7100000000000000000000000000000000000000000000000000000000600052601160045260246000fd5b7f4e487b7100000000000000000000000000000000000000000000000000000000600052603260045260246000fd5b600080fd5b7f696e616374697665206f72206163746976650000000000000000000000000000600082015250565b7f2072657175697265732044414f20564f54452e20546f20626520696d706c656d60008201527f656e746564000000000000000000000000000000000000000000000000000000602082015250565b7f646f65736e742065786973742079657400000000000000000000000000000000600082015250565b612590816122d7565b811461259b57600080fd5b50565b6125a7816122e9565b81146125b257600080fd5b50565b6125be816122fb565b81146125c957600080fd5b50565b6125d58161235e565b81146125e057600080fd5b50565b6125ec81612379565b81146125f757600080fd5b5056fea2646970667358221220351bb06994c1ea1d80c5f3a1cc334e04df5f64b09f2800fe5b3d1906c891b96364736f6c6343000807003360806040523480156200001157600080fd5b5060405162001eba38038062001eba8339818101604052810190620000379190620001e4565b8181816003908051906020019062000051929190620000b6565b5080600490805190602001906200006a929190620000b6565b50505033600560006101000a81548173ffffffffffffffffffffffffffffffffffffffff021916908373ffffffffffffffffffffffffffffffffffffffff1602179055505050620003ed565b828054620000c490620002fe565b90600052602060002090601f016020900481019282620000e8576000855562000134565b82601f106200010357805160ff191683800117855562000134565b8280016001018555821562000134579182015b828111156200013357825182559160200191906001019062000116565b5b50905062000143919062000147565b5090565b5b808211156200016257600081600090555060010162000148565b5090565b60006200017d620001778462000292565b62000269565b9050828152602081018484840111156200019c576200019b620003cd565b5b620001a9848285620002c8565b509392505050565b600082601f830112620001c957620001c8620003c8565b5b8151620001db84826020860162000166565b91505092915050565b60008060408385031215620001fe57620001fd620003d7565b5b600083015167ffffffffffffffff8111156200021f576200021e620003d2565b5b6200022d85828601620001b1565b925050602083015167ffffffffffffffff811115620002515762000250620003d2565b5b6200025f85828601620001b1565b9150509250929050565b60006200027562000288565b905062000283828262000334565b919050565b6000604051905090565b600067ffffffffffffffff821115620002b057620002af62000399565b5b620002bb82620003dc565b9050602081019050919050565b60005b83811015620002e8578082015181840152602081019050620002cb565b83811115620002f8576000848401525b50505050565b600060028204905060018216806200031757607f821691505b602082108114156200032e576200032d6200036a565b5b50919050565b6200033f82620003dc565b810181811067ffffffffffffffff8211171562000361576200036062000399565b5b80604052505050565b7f4e487b7100000000000000000000000000000000000000000000000000000000600052602260045260246000fd5b7f4e487b7100000000000000000000000000000000000000000000000000000000600052604160045260246000fd5b600080fd5b600080fd5b600080fd5b600080fd5b6000601f19601f8301169050919050565b611abd80620003fd6000396000f3fe608060405234801561001057600080fd5b50600436106100f55760003560e01c806340c10f19116100975780639dc29fac116100665780639dc29fac14610288578063a457c2d7146102a4578063a9059cbb146102d4578063dd62ed3e14610304576100f5565b806340c10f191461020057806367e828bf1461021c57806370a082311461023a57806395d89b411461026a576100f5565b806320e56dbd116100d357806320e56dbd1461016657806323b872dd14610182578063313ce567146101b257806339509351146101d0576100f5565b806306fdde03146100fa578063095ea7b31461011857806318160ddd14610148575b600080fd5b610102610334565b60405161010f91906113fd565b60405180910390f35b610132600480360381019061012d9190611187565b6103c6565b60405161013f91906113e2565b60405180910390f35b6101506103e4565b60405161015d919061155f565b60405180910390f35b610180600480360381019061017b91906111c7565b6103ee565b005b61019c60048036038101906101979190611134565b6103fb565b6040516101a991906113e2565b60405180910390f35b6101ba6104f3565b6040516101c7919061157a565b60405180910390f35b6101ea60048036038101906101e59190611187565b6104fc565b6040516101f791906113e2565b60405180910390f35b61021a60048036038101906102159190611187565b6105a8565b005b610224610610565b60405161023191906113c7565b60405180910390f35b610254600480360381019061024f91906110c7565b610636565b604051610261919061155f565b60405180910390f35b61027261067e565b60405161027f91906113fd565b60405180910390f35b6102a2600480360381019061029d9190611187565b610710565b005b6102be60048036038101906102b99190611187565b610778565b6040516102cb91906113e2565b60405180910390f35b6102ee60048036038101906102e99190611187565b610863565b6040516102fb91906113e2565b60405180910390f35b61031e600480360381019061031991906110f4565b610881565b60405161032b919061155f565b60405180910390f35b606060038054610343906116c3565b80601f016020809104026020016040519081016040528092919081815260200182805461036f906116c3565b80156103bc5780601f10610391576101008083540402835291602001916103bc565b820191906000526020600020905b81548152906001019060200180831161039f57829003601f168201915b5050505050905090565b60006103da6103d3610908565b8484610910565b6001905092915050565b6000600254905090565b6103f83382610adb565b50565b6000610408848484610c3b565b6000600160008673ffffffffffffffffffffffffffffffffffffffff1673ffffffffffffffffffffffffffffffffffffffff1681526020019081526020016000206000610453610908565b73ffffffffffffffffffffffffffffffffffffffff1673ffffffffffffffffffffffffffffffffffffffff168152602001908152602001600020549050828110156104d3576040517f08c379a00000000000000000000000000000000000000000000000000000000081526004016104ca9061149f565b60405180910390fd5b6104e7856104df610908565b858403610910565b60019150509392505050565b60006012905090565b600061059e610509610908565b848460016000610517610908565b73ffffffffffffffffffffffffffffffffffffffff1673ffffffffffffffffffffffffffffffffffffffff16815260200190815260200160002060008873ffffffffffffffffffffffffffffffffffffffff1673ffffffffffffffffffffffffffffffffffffffff1681526020019081526020016000205461059991906115b1565b610910565b6001905092915050565b600560009054906101000a900473ffffffffffffffffffffffffffffffffffffffff1673ffffffffffffffffffffffffffffffffffffffff163373ffffffffffffffffffffffffffffffffffffffff161461060257600080fd5b61060c8282610adb565b5050565b600560009054906101000a900473ffffffffffffffffffffffffffffffffffffffff1681565b60008060008373ffffffffffffffffffffffffffffffffffffffff1673ffffffffffffffffffffffffffffffffffffffff168152602001908152602001600020549050919050565b60606004805461068d906116c3565b80601f01602080910402602001604051908101604052809291908181526020018280546106b9906116c3565b80156107065780601f106106db57610100808354040283529160200191610706565b820191906000526020600020905b8154815290600101906020018083116106e957829003601f168201915b5050505050905090565b600560009054906101000a900473ffffffffffffffffffffffffffffffffffffffff1673ffffffffffffffffffffffffffffffffffffffff163373ffffffffffffffffffffffffffffffffffffffff161461076a57600080fd5b6107748282610ebc565b5050565b60008060016000610787610908565b73ffffffffffffffffffffffffffffffffffffffff1673ffffffffffffffffffffffffffffffffffffffff16815260200190815260200160002060008573ffffffffffffffffffffffffffffffffffffffff1673ffffffffffffffffffffffffffffffffffffffff16815260200190815260200160002054905082811015610844576040517f08c379a000000000000000000000000000000000000000000000000000000000815260040161083b9061151f565b60405180910390fd5b61085861084f610908565b85858403610910565b600191505092915050565b6000610877610870610908565b8484610c3b565b6001905092915050565b6000600160008473ffffffffffffffffffffffffffffffffffffffff1673ffffffffffffffffffffffffffffffffffffffff16815260200190815260200160002060008373ffffffffffffffffffffffffffffffffffffffff1673ffffffffffffffffffffffffffffffffffffffff16815260200190815260200160002054905092915050565b600033905090565b600073ffffffffffffffffffffffffffffffffffffffff168373ffffffffffffffffffffffffffffffffffffffff161415610980576040517f08c379a0000000000000000000000000000000000000000000000000000000008152600401610977906114ff565b60405180910390fd5b600073ffffffffffffffffffffffffffffffffffffffff168273ffffffffffffffffffffffffffffffffffffffff1614156109f0576040517f08c379a00000000000000000000000000000000000000000000000000000000081526004016109e79061145f565b60405180910390fd5b80600160008573ffffffffffffffffffffffffffffffffffffffff1673ffffffffffffffffffffffffffffffffffffffff16815260200190815260200160002060008473ffffffffffffffffffffffffffffffffffffffff1673ffffffffffffffffffffffffffffffffffffffff168152602001908152602001600020819055508173ffffffffffffffffffffffffffffffffffffffff168373ffffffffffffffffffffffffffffffffffffffff167f8c5be1e5ebec7d5bd14f71427d1e84f3dd0314c0f7b2291e5b200ac8c7c3b92583604051610ace919061155f565b60405180910390a3505050565b600073ffffffffffffffffffffffffffffffffffffffff168273ffffffffffffffffffffffffffffffffffffffff161415610b4b576040517f08c379a0000000000000000000000000000000000000000000000000000000008152600401610b429061153f565b60405180910390fd5b610b5760008383611093565b8060026000828254610b6991906115b1565b92505081905550806000808473ffffffffffffffffffffffffffffffffffffffff1673ffffffffffffffffffffffffffffffffffffffff1681526020019081526020016000206000828254610bbe91906115b1565b925050819055508173ffffffffffffffffffffffffffffffffffffffff16600073ffffffffffffffffffffffffffffffffffffffff167fddf252ad1be2c89b69c2b068fc378daa952ba7f163c4a11628f55a4df523b3ef83604051610c23919061155f565b60405180910390a3610c3760008383611098565b5050565b600073ffffffffffffffffffffffffffffffffffffffff168373ffffffffffffffffffffffffffffffffffffffff161415610cab576040517f08c379a0000000000000000000000000000000000000000000000000000000008152600401610ca2906114df565b60405180910390fd5b600073ffffffffffffffffffffffffffffffffffffffff168273ffffffffffffffffffffffffffffffffffffffff161415610d1b576040517f08c379a0000000000000000000000000000000000000000000000000000000008152600401610d129061141f565b60405180910390fd5b610d26838383611093565b60008060008573ffffffffffffffffffffffffffffffffffffffff1673ffffffffffffffffffffffffffffffffffffffff16815260200190815260200160002054905081811015610dac576040517f08c379a0000000000000000000000000000000000000000000000000000000008152600401610da39061147f565b60405180910390fd5b8181036000808673ffffffffffffffffffffffffffffffffffffffff1673ffffffffffffffffffffffffffffffffffffffff16815260200190815260200160002081905550816000808573ffffffffffffffffffffffffffffffffffffffff1673ffffffffffffffffffffffffffffffffffffffff1681526020019081526020016000206000828254610e3f91906115b1565b925050819055508273ffffffffffffffffffffffffffffffffffffffff168473ffffffffffffffffffffffffffffffffffffffff167fddf252ad1be2c89b69c2b068fc378daa952ba7f163c4a11628f55a4df523b3ef84604051610ea3919061155f565b60405180910390a3610eb6848484611098565b50505050565b600073ffffffffffffffffffffffffffffffffffffffff168273ffffffffffffffffffffffffffffffffffffffff161415610f2c576040517f08c379a0000000000000000000000000000000000000000000000000000000008152600401610f23906114bf565b60405180910390fd5b610f3882600083611093565b60008060008473ffffffffffffffffffffffffffffffffffffffff1673ffffffffffffffffffffffffffffffffffffffff16815260200190815260200160002054905081811015610fbe576040517f08c379a0000000000000000000000000000000000000000000000000000000008152600401610fb59061143f565b60405180910390fd5b8181036000808573ffffffffffffffffffffffffffffffffffffffff1673ffffffffffffffffffffffffffffffffffffffff1681526020019081526020016000208190555081600260008282546110159190611607565b92505081905550600073ffffffffffffffffffffffffffffffffffffffff168373ffffffffffffffffffffffffffffffffffffffff167fddf252ad1be2c89b69c2b068fc378daa952ba7f163c4a11628f55a4df523b3ef8460405161107a919061155f565b60405180910390a361108e83600084611098565b505050565b505050565b505050565b6000813590506110ac81611a59565b92915050565b6000813590506110c181611a70565b92915050565b6000602082840312156110dd576110dc611753565b5b60006110eb8482850161109d565b91505092915050565b6000806040838503121561110b5761110a611753565b5b60006111198582860161109d565b925050602061112a8582860161109d565b9150509250929050565b60008060006060848603121561114d5761114c611753565b5b600061115b8682870161109d565b935050602061116c8682870161109d565b925050604061117d868287016110b2565b9150509250925092565b6000806040838503121561119e5761119d611753565b5b60006111ac8582860161109d565b92505060206111bd858286016110b2565b9150509250929050565b6000602082840312156111dd576111dc611753565b5b60006111eb848285016110b2565b91505092915050565b6111fd8161163b565b82525050565b61120c8161164d565b82525050565b600061121d82611595565b61122781856115a0565b9350611237818560208601611690565b61124081611758565b840191505092915050565b60006112586023836115a0565b915061126382611769565b604082019050919050565b600061127b6022836115a0565b9150611286826117b8565b604082019050919050565b600061129e6022836115a0565b91506112a982611807565b604082019050919050565b60006112c16026836115a0565b91506112cc82611856565b604082019050919050565b60006112e46028836115a0565b91506112ef826118a5565b604082019050919050565b60006113076021836115a0565b9150611312826118f4565b604082019050919050565b600061132a6025836115a0565b915061133582611943565b604082019050919050565b600061134d6024836115a0565b915061135882611992565b604082019050919050565b60006113706025836115a0565b915061137b826119e1565b604082019050919050565b6000611393601f836115a0565b915061139e82611a30565b602082019050919050565b6113b281611679565b82525050565b6113c181611683565b82525050565b60006020820190506113dc60008301846111f4565b92915050565b60006020820190506113f76000830184611203565b92915050565b600060208201905081810360008301526114178184611212565b905092915050565b600060208201905081810360008301526114388161124b565b9050919050565b600060208201905081810360008301526114588161126e565b9050919050565b6000602082019050818103600083015261147881611291565b9050919050565b60006020820190508181036000830152611498816112b4565b9050919050565b600060208201905081810360008301526114b8816112d7565b9050919050565b600060208201905081810360008301526114d8816112fa565b9050919050565b600060208201905081810360008301526114f88161131d565b9050919050565b6000602082019050818103600083015261151881611340565b9050919050565b6000602082019050818103600083015261153881611363565b9050919050565b6000602082019050818103600083015261155881611386565b9050919050565b600060208201905061157460008301846113a9565b92915050565b600060208201905061158f60008301846113b8565b92915050565b600081519050919050565b600082825260208201905092915050565b60006115bc82611679565b91506115c783611679565b9250827fffffffffffffffffffffffffffffffffffffffffffffffffffffffffffffffff038211156115fc576115fb6116f5565b5b828201905092915050565b600061161282611679565b915061161d83611679565b9250828210156116305761162f6116f5565b5b828203905092915050565b600061164682611659565b9050919050565b60008115159050919050565b600073ffffffffffffffffffffffffffffffffffffffff82169050919050565b6000819050919050565b600060ff82169050919050565b60005b838110156116ae578082015181840152602081019050611693565b838111156116bd576000848401525b50505050565b600060028204905060018216806116db57607f821691505b602082108114156116ef576116ee611724565b5b50919050565b7f4e487b7100000000000000000000000000000000000000000000000000000000600052601160045260246000fd5b7f4e487b7100000000000000000000000000000000000000000000000000000000600052602260045260246000fd5b600080fd5b6000601f19601f8301169050919050565b7f45524332303a207472616e7366657220746f20746865207a65726f206164647260008201527f6573730000000000000000000000000000000000000000000000000000000000602082015250565b7f45524332303a206275726e20616d6f756e7420657863656564732062616c616e60008201527f6365000000000000000000000000000000000000000000000000000000000000602082015250565b7f45524332303a20617070726f766520746f20746865207a65726f20616464726560008201527f7373000000000000000000000000000000000000000000000000000000000000602082015250565b7f45524332303a207472616e7366657220616d6f756e742065786365656473206260008201527f616c616e63650000000000000000000000000000000000000000000000000000602082015250565b7f45524332303a207472616e7366657220616d6f756e742065786365656473206160008201527f6c6c6f77616e6365000000000000000000000000000000000000000000000000602082015250565b7f45524332303a206275726e2066726f6d20746865207a65726f2061646472657360008201527f7300000000000000000000000000000000000000000000000000000000000000602082015250565b7f45524332303a207472616e736665722066726f6d20746865207a65726f20616460008201527f6472657373000000000000000000000000000000000000000000000000000000602082015250565b7f45524332303a20617070726f76652066726f6d20746865207a65726f2061646460008201527f7265737300000000000000000000000000000000000000000000000000000000602082015250565b7f45524332303a2064656372656173656420616c6c6f77616e63652062656c6f7760008201527f207a65726f000000000000000000000000000000000000000000000000000000602082015250565b7f45524332303a206d696e7420746f20746865207a65726f206164647265737300600082015250565b611a628161163b565b8114611a6d57600080fd5b50565b611a7981611679565b8114611a8457600080fd5b5056fea2646970667358221220137e71639e802e6b9b9d84e9a7961f881a5c612a5a60c3541b9e0b0f4562851464736f6c634300080700336080604052348015600f57600080fd5b50603f80601d6000396000f3fe6080604052600080fdfea2646970667358221220c139efeb2d1b64d42aa0d3796f49c67072e0819abc8274d7121cd986035f3a5364736f6c63430008070033",
  "linkReferences": {},
  "deployedLinkReferences": {}
}