{
  "_format": "hh-sol-artifact-1",
  "contractName": "dOrgFactory",
  "sourceName": "contracts/Factory/dOrgFactory.sol",
  "abi": [
    {
      "inputs": [
        {
          "internalType": "address",
          "name": "votingAddress",
          "type": "address"
        },
        {
          "internalType": "address",
          "name": "repTokenAddress",
          "type": "address"
        }
      ],
      "stateMutability": "nonpayable",
      "type": "constructor"
    },
    {
      "inputs": [
        {
          "internalType": "address",
          "name": "votingAddress",
          "type": "address"
        },
        {
          "internalType": "address",
          "name": "repTokenAddress",
          "type": "address"
        },
        {
          "internalType": "bool",
          "name": "setAsNewMaster",
          "type": "bool"
        }
      ],
      "name": "createDORG",
      "outputs": [
        {
          "internalType": "address",
          "name": "",
          "type": "address"
        }
      ],
      "stateMutability": "nonpayable",
      "type": "function"
    },
    {
      "inputs": [],
      "name": "getMasterDorg",
      "outputs": [
        {
          "internalType": "address",
          "name": "",
          "type": "address"
        }
      ],
      "stateMutability": "view",
      "type": "function"
    },
    {
      "inputs": [],
      "name": "masterDORG",
      "outputs": [
        {
          "internalType": "address",
          "name": "",
          "type": "address"
        }
      ],
      "stateMutability": "view",
      "type": "function"
    }
  ],
  "bytecode": "0x608060405234801561001057600080fd5b5060405162009bf938038062009bf9833981810160405281019061003491906101ad565b6100468282600161004e60201b60201c565b505050610273565b60008180156100a8575060008054906101000a900473ffffffffffffffffffffffffffffffffffffffff1673ffffffffffffffffffffffffffffffffffffffff163373ffffffffffffffffffffffffffffffffffffffff16145b1561014a5783836040516100bb9061018a565b6100c69291906101fc565b604051809103906000f0801580156100e2573d6000803e3d6000fd5b506000806101000a81548173ffffffffffffffffffffffffffffffffffffffff021916908373ffffffffffffffffffffffffffffffffffffffff16021790555060008054906101000a900473ffffffffffffffffffffffffffffffffffffffff169050610183565b83836040516101589061018a565b6101639291906101fc565b604051809103906000f08015801561017f573d6000803e3d6000fd5b5090505b9392505050565b614adb806200511e83390190565b6000815190506101a78161025c565b92915050565b600080604083850312156101c4576101c3610257565b5b60006101d285828601610198565b92505060206101e385828601610198565b9150509250929050565b6101f681610225565b82525050565b600060408201905061021160008301856101ed565b61021e60208301846101ed565b9392505050565b600061023082610237565b9050919050565b600073ffffffffffffffffffffffffffffffffffffffff82169050919050565b600080fd5b61026581610225565b811461027057600080fd5b50565b614e9b80620002836000396000f3fe608060405234801561001057600080fd5b50600436106100415760003560e01c806302e3fff9146100465780630785ca30146100645780636b57886414610094575b600080fd5b61004e6100b2565b60405161005b91906102d5565b60405180910390f35b61007e60048036038101906100799190610273565b6100db565b60405161008b91906102d5565b60405180910390f35b61009c610217565b6040516100a991906102d5565b60405180910390f35b60008060009054906101000a900473ffffffffffffffffffffffffffffffffffffffff16905090565b6000818015610135575060008054906101000a900473ffffffffffffffffffffffffffffffffffffffff1673ffffffffffffffffffffffffffffffffffffffff163373ffffffffffffffffffffffffffffffffffffffff16145b156101d75783836040516101489061023b565b6101539291906102f0565b604051809103906000f08015801561016f573d6000803e3d6000fd5b506000806101000a81548173ffffffffffffffffffffffffffffffffffffffff021916908373ffffffffffffffffffffffffffffffffffffffff16021790555060008054906101000a900473ffffffffffffffffffffffffffffffffffffffff169050610210565b83836040516101e59061023b565b6101f09291906102f0565b604051809103906000f08015801561020c573d6000803e3d6000fd5b5090505b9392505050565b60008054906101000a900473ffffffffffffffffffffffffffffffffffffffff1681565b614adb806200038b83390190565b6000813590506102588161035c565b92915050565b60008135905061026d81610373565b92915050565b60008060006060848603121561028c5761028b610357565b5b600061029a86828701610249565b93505060206102ab86828701610249565b92505060406102bc8682870161025e565b9150509250925092565b6102cf81610319565b82525050565b60006020820190506102ea60008301846102c6565b92915050565b600060408201905061030560008301856102c6565b61031260208301846102c6565b9392505050565b600061032482610337565b9050919050565b60008115159050919050565b600073ffffffffffffffffffffffffffffffffffffffff82169050919050565b600080fd5b61036581610319565b811461037057600080fd5b50565b61037c8161032b565b811461038757600080fd5b5056fe608060405262093a806010556101f4601260006101000a8154816effffffffffffffffffffffffffffff02191690836effffffffffffffffffffffffffffff160217905550620d2f006012600f6101000a81548164ffffffffff021916908364ffffffffff1602179055503480156200007757600080fd5b5060405162004adb38038062004adb83398181016040528101906200009d919062000263565b33600660006101000a81548173ffffffffffffffffffffffffffffffffffffffff021916908373ffffffffffffffffffffffffffffffffffffffff16021790555081600060016101000a81548173ffffffffffffffffffffffffffffffffffffffff021916908373ffffffffffffffffffffffffffffffffffffffff16021790555080600160006101000a81548173ffffffffffffffffffffffffffffffffffffffff021916908373ffffffffffffffffffffffffffffffffffffffff1602179055506040516200016e906200023f565b604051809103906000f0801580156200018b573d6000803e3d6000fd5b50600360006101000a81548173ffffffffffffffffffffffffffffffffffffffff021916908373ffffffffffffffffffffffffffffffffffffffff160217905550600960009080600181540180825580915050600190039060005260206000200160009091909190916101000a81548173ffffffffffffffffffffffffffffffffffffffff021916908373ffffffffffffffffffffffffffffffffffffffff160217905550426008819055505050620002fd565b605c8062004a7f83390190565b6000815190506200025d81620002e3565b92915050565b600080604083850312156200027d576200027c620002de565b5b60006200028d858286016200024c565b9250506020620002a0858286016200024c565b9150509250929050565b6000620002b782620002be565b9050919050565b600073ffffffffffffffffffffffffffffffffffffffff82169050919050565b600080fd5b620002ee81620002aa565b8114620002fa57600080fd5b50565b614772806200030d6000396000f3fe608060405234801561001057600080fd5b50600436106102265760003560e01c80638005bc9511610130578063a5125421116100b8578063db5e4c7f1161007c578063db5e4c7f14610595578063de660841146105b3578063e093ba82146105e3578063f74b059e14610614578063fce1ccca1461063057610226565b8063a512542114610507578063bca0adcb14610523578063bdaf56a31461053f578063c48ea1ff1461055b578063d98d79551461057957610226565b806398ba130b116100ff57806398ba130b146104615780639ca09d1c146104915780639cc52b5d146104ad578063a09312fd146104cb578063a3db1d20146104e957610226565b80638005bc95146103ed57806382d6ddff1461040957806382f072e8146104255780638a14ae8a1461044357610226565b806329034a5c116101b357806350fa62e31161018257806350fa62e3146103595780635ab2ec0d146103895780635b63f661146103a757806363bd1d4a146103c55780636412173e146103cf57610226565b806329034a5c146102f75780632fee8e3e1461031557806336061081146103335780634a7dc8e01461033d57610226565b806316ac3265116101fa57806316ac32651461028b5780631b6405fe146102955780631c0701df146102b15780631cc1cf46146102cf57806324bc8d05146102ed57610226565b8062d117d41461022b5780630e136b191461024757806312514bba1461026557806313f6d05c14610281575b600080fd5b61024560048036038101906102409190613ce5565b61064e565b005b61024f610c17565b60405161025c91906140bf565b60405180910390f35b61027f600480360381019061027a9190613d12565b610c28565b005b610289610d31565b005b61029361121c565b005b6102af60048036038101906102aa9190613bf8565b6113f9565b005b6102b9611634565b6040516102c69190614257565b60405180910390f35b6102d761163e565b6040516102e49190614257565b60405180910390f35b6102f5611644565b005b6102ff611c41565b60405161030c9190614146565b60405180910390f35b61031d611c67565b60405161032a91906140da565b60405180910390f35b61033b611c8d565b005b61035760048036038101906103529190613b9e565b611e1e565b005b610373600480360381019061036e9190613d12565b612012565b6040516103809190613f2e565b60405180910390f35b610391612051565b60405161039e919061412b565b60405180910390f35b6103af612077565b6040516103bc9190614146565b60405180910390f35b6103cd61209d565b005b6103d761218b565b6040516103e49190614110565b60405180910390f35b61040760048036038101906104029190613b9e565b6121b1565b005b610423600480360381019061041e9190613d12565b6126f5565b005b61042d6127dd565b60405161043a919061423c565b60405180910390f35b61044b6127fe565b6040516104589190614257565b60405180910390f35b61047b60048036038101906104769190613d12565b612804565b6040516104889190613f2e565b60405180910390f35b6104ab60048036038101906104a69190613d12565b612843565b005b6104b5612a5b565b6040516104c291906140f5565b60405180910390f35b6104d3612a81565b6040516104e091906142e0565b60405180910390f35b6104f1612a98565b6040516104fe9190614257565b60405180910390f35b610521600480360381019061051c9190613b9e565b612a9e565b005b61053d60048036038101906105389190613c38565b612b83565b005b61055960048036038101906105549190613b9e565b612c6c565b005b6105636132b8565b604051610570919061417c565b60405180910390f35b610593600480360381019061058e9190613c78565b6132de565b005b61059d6133a5565b6040516105aa9190614257565b60405180910390f35b6105cd60048036038101906105c89190613d12565b6133ab565b6040516105da9190613f2e565b60405180910390f35b6105fd60048036038101906105f89190613d6c565b6133ea565b60405161060b9291906142b7565b60405180910390f35b61062e60048036038101906106299190613b9e565b61341b565b005b610638613a56565b6040516106459190614161565b60405180910390f35b6002816001600760008460ff1660ff16815260200190815260200160002060010160009054906101000a900460ff1660ff1611156106c1576040517f08c379a00000000000000000000000000000000000000000000000000000000081526004016106b8906141dc565b60405180910390fd5b6000600760008460ff1660ff16815260200190815260200160002060010160009054906101000a900460ff1660ff1614156108d057600060019054906101000a900473ffffffffffffffffffffffffffffffffffffffff1673ffffffffffffffffffffffffffffffffffffffff16637b6e5f9c60046012600f9054906101000a900464ffffffffff16601260009054906101000a90046effffffffffffffffffffffffffffff16600160009054906101000a900473ffffffffffffffffffffffffffffffffffffffff1673ffffffffffffffffffffffffffffffffffffffff166318160ddd6040518163ffffffff1660e01b815260040160206040518083038186803b1580156107d057600080fd5b505afa1580156107e4573d6000803e3d6000fd5b505050506040513d601f19601f820116820180604052508101906108089190613d3f565b6040518563ffffffff1660e01b81526004016108279493929190614197565b602060405180830381600087803b15801561084157600080fd5b505af1158015610855573d6000803e3d6000fd5b505050506040513d601f19601f820116820180604052508101906108799190613d3f565b600760008460ff1660ff168152602001908152602001600020600001819055506001600760008460ff1660ff16815260200190815260200160002060010160006101000a81548160ff021916908360ff1602179055505b600060019054906101000a900473ffffffffffffffffffffffffffffffffffffffff1673ffffffffffffffffffffffffffffffffffffffff1663e31f7b28600760008060ff168152602001908152602001600020600001543384600160009054906101000a900473ffffffffffffffffffffffffffffffffffffffff1673ffffffffffffffffffffffffffffffffffffffff166370a08231336040518263ffffffff1660e01b81526004016109859190613f2e565b60206040518083038186803b15801561099d57600080fd5b505afa1580156109b1573d6000803e3d6000fd5b505050506040513d601f19601f820116820180604052508101906109d59190613d3f565b6040518563ffffffff1660e01b81526004016109f49493929190614272565b602060405180830381600087803b158015610a0e57600080fd5b505af1158015610a22573d6000803e3d6000fd5b505050506040513d601f19601f82011682018060405250810190610a469190613d99565b600760008060ff16815260200190815260200160002060010160006101000a81548160ff021916908360ff1602179055506002600760008060ff16815260200190815260200160002060010160009054906101000a900460ff1660ff161415610bb75760008060019054906101000a900473ffffffffffffffffffffffffffffffffffffffff1673ffffffffffffffffffffffffffffffffffffffff1663b17979a6600760008060ff168152602001908152602001600020600001546040518263ffffffff1660e01b8152600401610b1e9190614257565b60206040518083038186803b158015610b3657600080fd5b505afa158015610b4a573d6000803e3d6000fd5b505050506040513d601f19601f82011682018060405250810190610b6e9190613bcb565b90508073ffffffffffffffffffffffffffffffffffffffff16601181905550506000600760008060ff16815260200190815260200160002060010160009054906101000a905050505b6003600760008060ff16815260200190815260200160002060010160009054906101000a900460ff1660ff161415610c12576000600760008060ff16815260200190815260200160002060010160009054906101000a905050505b505050565b60008054906101000a900460ff1681565b600f60003373ffffffffffffffffffffffffffffffffffffffff1673ffffffffffffffffffffffffffffffffffffffff16815260200190815260200160002060009054906101000a900460ff16610c7e57600080fd5b600a60009054906101000a900473ffffffffffffffffffffffffffffffffffffffff1673ffffffffffffffffffffffffffffffffffffffff1663a9059cbb33836040518363ffffffff1660e01b8152600401610cdb929190614096565b602060405180830381600087803b158015610cf557600080fd5b505af1158015610d09573d6000803e3d6000fd5b505050506040513d601f19601f82011682018060405250810190610d2d9190613cb8565b5050565b600360006001600760008460ff1660ff16815260200190815260200160002060010160009054906101000a900460ff1660ff161115610da5576040517f08c379a0000000000000000000000000000000000000000000000000000000008152600401610d9c906141dc565b60405180910390fd5b6000600760008460ff1660ff16815260200190815260200160002060010160009054906101000a900460ff1660ff161415610fb457600060019054906101000a900473ffffffffffffffffffffffffffffffffffffffff1673ffffffffffffffffffffffffffffffffffffffff16637b6e5f9c60046012600f9054906101000a900464ffffffffff16601260009054906101000a90046effffffffffffffffffffffffffffff16600160009054906101000a900473ffffffffffffffffffffffffffffffffffffffff1673ffffffffffffffffffffffffffffffffffffffff166318160ddd6040518163ffffffff1660e01b815260040160206040518083038186803b158015610eb457600080fd5b505afa158015610ec8573d6000803e3d6000fd5b505050506040513d601f19601f82011682018060405250810190610eec9190613d3f565b6040518563ffffffff1660e01b8152600401610f0b9493929190614197565b602060405180830381600087803b158015610f2557600080fd5b505af1158015610f39573d6000803e3d6000fd5b505050506040513d601f19601f82011682018060405250810190610f5d9190613d3f565b600760008460ff1660ff168152602001908152602001600020600001819055506001600760008460ff1660ff16815260200190815260200160002060010160006101000a81548160ff021916908360ff1602179055505b600060019054906101000a900473ffffffffffffffffffffffffffffffffffffffff1673ffffffffffffffffffffffffffffffffffffffff1663e31f7b28600760008060ff168152602001908152602001600020600001543384600160009054906101000a900473ffffffffffffffffffffffffffffffffffffffff1673ffffffffffffffffffffffffffffffffffffffff166370a08231336040518263ffffffff1660e01b81526004016110699190613f2e565b60206040518083038186803b15801561108157600080fd5b505afa158015611095573d6000803e3d6000fd5b505050506040513d601f19601f820116820180604052508101906110b99190613d3f565b6040518563ffffffff1660e01b81526004016110d89493929190614272565b602060405180830381600087803b1580156110f257600080fd5b505af1158015611106573d6000803e3d6000fd5b505050506040513d601f19601f8201168201806040525081019061112a9190613d99565b600760008060ff16815260200190815260200160002060010160006101000a81548160ff021916908360ff1602179055506002600760008060ff16815260200190815260200160002060010160009054906101000a900460ff1660ff1614156111bd57426008819055506000600760008060ff16815260200190815260200160002060010160009054906101000a905050505b6003600760008060ff16815260200190815260200160002060010160009054906101000a900460ff1660ff161415611218576000600760008060ff16815260200190815260200160002060010160009054906101000a905050505b5050565b6000600260009054906101000a900473ffffffffffffffffffffffffffffffffffffffff1673ffffffffffffffffffffffffffffffffffffffff166370a08231336040518263ffffffff1660e01b81526004016112799190613f2e565b60206040518083038186803b15801561129157600080fd5b505afa1580156112a5573d6000803e3d6000fd5b505050506040513d601f19601f820116820180604052508101906112c99190613d3f565b9050600081116112d857600080fd5b600160009054906101000a900473ffffffffffffffffffffffffffffffffffffffff1673ffffffffffffffffffffffffffffffffffffffff166340c10f1933836040518363ffffffff1660e01b8152600401611335929190614096565b600060405180830381600087803b15801561134f57600080fd5b505af1158015611363573d6000803e3d6000fd5b50505050600260009054906101000a900473ffffffffffffffffffffffffffffffffffffffff1673ffffffffffffffffffffffffffffffffffffffff16639dc29fac33836040518363ffffffff1660e01b81526004016113c4929190614096565b600060405180830381600087803b1580156113de57600080fd5b505af11580156113f2573d6000803e3d6000fd5b5050505050565b60008054906101000a900460ff161561141157600080fd5b6000600460009054906101000a900473ffffffffffffffffffffffffffffffffffffffff1673ffffffffffffffffffffffffffffffffffffffff1663d9acec53338585600160009054906101000a900473ffffffffffffffffffffffffffffffffffffffff16600360009054906101000a900473ffffffffffffffffffffffffffffffffffffffff16600060019054906101000a900473ffffffffffffffffffffffffffffffffffffffff16600a60009054906101000a900473ffffffffffffffffffffffffffffffffffffffff166010546040518963ffffffff1660e01b8152600401611506989796959493929190613f49565b602060405180830381600087803b15801561152057600080fd5b505af1158015611534573d6000803e3d6000fd5b505050506040513d601f19601f820116820180604052508101906115589190613bcb565b9050600c819080600181540180825580915050600190039060005260206000200160009091909190916101000a81548173ffffffffffffffffffffffffffffffffffffffff021916908373ffffffffffffffffffffffffffffffffffffffff1602179055506001600f60008373ffffffffffffffffffffffffffffffffffffffff1673ffffffffffffffffffffffffffffffffffffffff16815260200190815260200160002060006101000a81548160ff0219169083151502179055506001600e6000828254611628919061430c565b92505081905550505050565b6000600854905090565b60115481565b600560006001600760008460ff1660ff16815260200190815260200160002060010160009054906101000a900460ff1660ff1611156116b8576040517f08c379a00000000000000000000000000000000000000000000000000000000081526004016116af906141dc565b60405180910390fd5b6000600760008460ff1660ff16815260200190815260200160002060010160009054906101000a900460ff1660ff1614156118c757600060019054906101000a900473ffffffffffffffffffffffffffffffffffffffff1673ffffffffffffffffffffffffffffffffffffffff16637b6e5f9c60046012600f9054906101000a900464ffffffffff16601260009054906101000a90046effffffffffffffffffffffffffffff16600160009054906101000a900473ffffffffffffffffffffffffffffffffffffffff1673ffffffffffffffffffffffffffffffffffffffff166318160ddd6040518163ffffffff1660e01b815260040160206040518083038186803b1580156117c757600080fd5b505afa1580156117db573d6000803e3d6000fd5b505050506040513d601f19601f820116820180604052508101906117ff9190613d3f565b6040518563ffffffff1660e01b815260040161181e9493929190614197565b602060405180830381600087803b15801561183857600080fd5b505af115801561184c573d6000803e3d6000fd5b505050506040513d601f19601f820116820180604052508101906118709190613d3f565b600760008460ff1660ff168152602001908152602001600020600001819055506001600760008460ff1660ff16815260200190815260200160002060010160006101000a81548160ff021916908360ff1602179055505b600060019054906101000a900473ffffffffffffffffffffffffffffffffffffffff1673ffffffffffffffffffffffffffffffffffffffff1663e31f7b28600760008060ff168152602001908152602001600020600001543384600160009054906101000a900473ffffffffffffffffffffffffffffffffffffffff1673ffffffffffffffffffffffffffffffffffffffff166370a08231336040518263ffffffff1660e01b815260040161197c9190613f2e565b60206040518083038186803b15801561199457600080fd5b505afa1580156119a8573d6000803e3d6000fd5b505050506040513d601f19601f820116820180604052508101906119cc9190613d3f565b6040518563ffffffff1660e01b81526004016119eb9493929190614272565b602060405180830381600087803b158015611a0557600080fd5b505af1158015611a19573d6000803e3d6000fd5b505050506040513d601f19601f82011682018060405250810190611a3d9190613d99565b600760008060ff16815260200190815260200160002060010160006101000a81548160ff021916908360ff1602179055506002600760008060ff16815260200190815260200160002060010160009054906101000a900460ff1660ff161415611be257600660009054906101000a900473ffffffffffffffffffffffffffffffffffffffff1673ffffffffffffffffffffffffffffffffffffffff16630785ca30600060019054906101000a900473ffffffffffffffffffffffffffffffffffffffff16600160009054906101000a900473ffffffffffffffffffffffffffffffffffffffff1660016040518463ffffffff1660e01b8152600401611b449392919061405f565b602060405180830381600087803b158015611b5e57600080fd5b505af1158015611b72573d6000803e3d6000fd5b505050506040513d601f19601f82011682018060405250810190611b969190613bcb565b5060016000806101000a81548160ff021916908315150217905550611bb9613a7c565b6000600760008060ff16815260200190815260200160002060010160009054906101000a905050505b6003600760008060ff16815260200190815260200160002060010160009054906101000a900460ff1660ff161415611c3d576000600760008060ff16815260200190815260200160002060010160009054906101000a905050505b5050565b600160009054906101000a900473ffffffffffffffffffffffffffffffffffffffff1681565b600360009054906101000a900473ffffffffffffffffffffffffffffffffffffffff1681565b600f60003373ffffffffffffffffffffffffffffffffffffffff1673ffffffffffffffffffffffffffffffffffffffff16815260200190815260200160002060009054906101000a900460ff16611ce357600080fd5b600160009054906101000a900473ffffffffffffffffffffffffffffffffffffffff1673ffffffffffffffffffffffffffffffffffffffff16639dc29fac33600160009054906101000a900473ffffffffffffffffffffffffffffffffffffffff1673ffffffffffffffffffffffffffffffffffffffff166370a08231336040518263ffffffff1660e01b8152600401611d7d9190613f2e565b60206040518083038186803b158015611d9557600080fd5b505afa158015611da9573d6000803e3d6000fd5b505050506040513d601f19601f82011682018060405250810190611dcd9190613d3f565b6040518363ffffffff1660e01b8152600401611dea929190614096565b600060405180830381600087803b158015611e0457600080fd5b505af1158015611e18573d6000803e3d6000fd5b50505050565b6000600160009054906101000a900473ffffffffffffffffffffffffffffffffffffffff1673ffffffffffffffffffffffffffffffffffffffff166370a08231336040518263ffffffff1660e01b8152600401611e7b9190613f2e565b60206040518083038186803b158015611e9357600080fd5b505afa158015611ea7573d6000803e3d6000fd5b505050506040513d601f19601f82011682018060405250810190611ecb9190613d3f565b11611ed557600080fd5b6000600b60008373ffffffffffffffffffffffffffffffffffffffff1673ffffffffffffffffffffffffffffffffffffffff1681526020019081526020016000205414611f57576040517f08c379a0000000000000000000000000000000000000000000000000000000008152600401611f4e9061421c565b60405180910390fd5b6009819080600181540180825580915050600190039060005260206000200160009091909190916101000a81548173ffffffffffffffffffffffffffffffffffffffff021916908373ffffffffffffffffffffffffffffffffffffffff1602179055506001600980549050611fcc91906143bc565b600b60008373ffffffffffffffffffffffffffffffffffffffff1673ffffffffffffffffffffffffffffffffffffffff1681526020019081526020016000208190555050565b600c818154811061202257600080fd5b906000526020600020016000915054906101000a900473ffffffffffffffffffffffffffffffffffffffff1681565b600560009054906101000a900473ffffffffffffffffffffffffffffffffffffffff1681565b600260009054906101000a900473ffffffffffffffffffffffffffffffffffffffff1681565b601154600854426120ae91906143bc565b116120b857600080fd5b60005b600d8054905081101561217957600d81815481106120dc576120db6145dd565b5b9060005260206000200160009054906101000a900473ffffffffffffffffffffffffffffffffffffffff1673ffffffffffffffffffffffffffffffffffffffff16631b9265b86040518163ffffffff1660e01b8152600401600060405180830381600087803b15801561214e57600080fd5b505af1158015612162573d6000803e3d6000fd5b50505050808061217190614565565b9150506120bb565b5042600881905550612189613a7c565b565b600a60009054906101000a900473ffffffffffffffffffffffffffffffffffffffff1681565b6004816001600760008460ff1660ff16815260200190815260200160002060010160009054906101000a900460ff1660ff161115612224576040517f08c379a000000000000000000000000000000000000000000000000000000000815260040161221b906141dc565b60405180910390fd5b6000600760008460ff1660ff16815260200190815260200160002060010160009054906101000a900460ff1660ff16141561243357600060019054906101000a900473ffffffffffffffffffffffffffffffffffffffff1673ffffffffffffffffffffffffffffffffffffffff16637b6e5f9c60046012600f9054906101000a900464ffffffffff16601260009054906101000a90046effffffffffffffffffffffffffffff16600160009054906101000a900473ffffffffffffffffffffffffffffffffffffffff1673ffffffffffffffffffffffffffffffffffffffff166318160ddd6040518163ffffffff1660e01b815260040160206040518083038186803b15801561233357600080fd5b505afa158015612347573d6000803e3d6000fd5b505050506040513d601f19601f8201168201806040525081019061236b9190613d3f565b6040518563ffffffff1660e01b815260040161238a9493929190614197565b602060405180830381600087803b1580156123a457600080fd5b505af11580156123b8573d6000803e3d6000fd5b505050506040513d601f19601f820116820180604052508101906123dc9190613d3f565b600760008460ff1660ff168152602001908152602001600020600001819055506001600760008460ff1660ff16815260200190815260200160002060010160006101000a81548160ff021916908360ff1602179055505b600060019054906101000a900473ffffffffffffffffffffffffffffffffffffffff1673ffffffffffffffffffffffffffffffffffffffff1663e31f7b28600760008060ff168152602001908152602001600020600001543384600160009054906101000a900473ffffffffffffffffffffffffffffffffffffffff1673ffffffffffffffffffffffffffffffffffffffff166370a08231336040518263ffffffff1660e01b81526004016124e89190613f2e565b60206040518083038186803b15801561250057600080fd5b505afa158015612514573d6000803e3d6000fd5b505050506040513d601f19601f820116820180604052508101906125389190613d3f565b6040518563ffffffff1660e01b81526004016125579493929190614272565b602060405180830381600087803b15801561257157600080fd5b505af1158015612585573d6000803e3d6000fd5b505050506040513d601f19601f820116820180604052508101906125a99190613d99565b600760008060ff16815260200190815260200160002060010160006101000a81548160ff021916908360ff1602179055506002600760008060ff16815260200190815260200160002060010160009054906101000a900460ff1660ff161415612695578273ffffffffffffffffffffffffffffffffffffffff16633ccfd60b6040518163ffffffff1660e01b8152600401600060405180830381600087803b15801561265457600080fd5b505af1158015612668573d6000803e3d6000fd5b505050506000600760008060ff16815260200190815260200160002060010160009054906101000a905050505b6003600760008060ff16815260200190815260200160002060010160009054906101000a900460ff1660ff1614156126f0576000600760008060ff16815260200190815260200160002060010160009054906101000a905050505b505050565b600f60003373ffffffffffffffffffffffffffffffffffffffff1673ffffffffffffffffffffffffffffffffffffffff16815260200190815260200160002060009054906101000a900460ff1661274b57600080fd5b600160009054906101000a900473ffffffffffffffffffffffffffffffffffffffff1673ffffffffffffffffffffffffffffffffffffffff166340c10f1933836040518363ffffffff1660e01b81526004016127a8929190614096565b600060405180830381600087803b1580156127c257600080fd5b505af11580156127d6573d6000803e3d6000fd5b5050505050565b601260009054906101000a90046effffffffffffffffffffffffffffff1681565b60085481565b600d818154811061281457600080fd5b906000526020600020016000915054906101000a900473ffffffffffffffffffffffffffffffffffffffff1681565b60008054906101000a900460ff161561285b57600080fd5b6000600560009054906101000a900473ffffffffffffffffffffffffffffffffffffffff1673ffffffffffffffffffffffffffffffffffffffff1663842d201a33600160009054906101000a900473ffffffffffffffffffffffffffffffffffffffff16600a60009054906101000a900473ffffffffffffffffffffffffffffffffffffffff16600060019054906101000a900473ffffffffffffffffffffffffffffffffffffffff16601054601154896040518863ffffffff1660e01b815260040161292e9796959493929190613fc7565b602060405180830381600087803b15801561294857600080fd5b505af115801561295c573d6000803e3d6000fd5b505050506040513d601f19601f820116820180604052508101906129809190613bcb565b9050600d819080600181540180825580915050600190039060005260206000200160009091909190916101000a81548173ffffffffffffffffffffffffffffffffffffffff021916908373ffffffffffffffffffffffffffffffffffffffff1602179055506001600f60008373ffffffffffffffffffffffffffffffffffffffff1673ffffffffffffffffffffffffffffffffffffffff16815260200190815260200160002060006101000a81548160ff0219169083151502179055506001600e6000828254612a50919061430c565b925050819055505050565b600460009054906101000a900473ffffffffffffffffffffffffffffffffffffffff1681565b6012600f9054906101000a900464ffffffffff1681565b60105481565b60006009600b60008473ffffffffffffffffffffffffffffffffffffffff1673ffffffffffffffffffffffffffffffffffffffff1681526020019081526020016000205481548110612af357612af26145dd565b5b9060005260206000200160006101000a81548173ffffffffffffffffffffffffffffffffffffffff021916908373ffffffffffffffffffffffffffffffffffffffff1602179055506000600b60008373ffffffffffffffffffffffffffffffffffffffff1673ffffffffffffffffffffffffffffffffffffffff1681526020019081526020016000208190555050565b600f60003373ffffffffffffffffffffffffffffffffffffffff1673ffffffffffffffffffffffffffffffffffffffff16815260200190815260200160002060009054906101000a900460ff16612bd957600080fd5b600160009054906101000a900473ffffffffffffffffffffffffffffffffffffffff1673ffffffffffffffffffffffffffffffffffffffff166340c10f1983836040518363ffffffff1660e01b8152600401612c36929190614036565b600060405180830381600087803b158015612c5057600080fd5b505af1158015612c64573d6000803e3d6000fd5b505050505050565b6006816001600760008460ff1660ff16815260200190815260200160002060010160009054906101000a900460ff1660ff161115612cdf576040517f08c379a0000000000000000000000000000000000000000000000000000000008152600401612cd6906141dc565b60405180910390fd5b6000600760008460ff1660ff16815260200190815260200160002060010160009054906101000a900460ff1660ff161415612eee57600060019054906101000a900473ffffffffffffffffffffffffffffffffffffffff1673ffffffffffffffffffffffffffffffffffffffff16637b6e5f9c60046012600f9054906101000a900464ffffffffff16601260009054906101000a90046effffffffffffffffffffffffffffff16600160009054906101000a900473ffffffffffffffffffffffffffffffffffffffff1673ffffffffffffffffffffffffffffffffffffffff166318160ddd6040518163ffffffff1660e01b815260040160206040518083038186803b158015612dee57600080fd5b505afa158015612e02573d6000803e3d6000fd5b505050506040513d601f19601f82011682018060405250810190612e269190613d3f565b6040518563ffffffff1660e01b8152600401612e459493929190614197565b602060405180830381600087803b158015612e5f57600080fd5b505af1158015612e73573d6000803e3d6000fd5b505050506040513d601f19601f82011682018060405250810190612e979190613d3f565b600760008460ff1660ff168152602001908152602001600020600001819055506001600760008460ff1660ff16815260200190815260200160002060010160006101000a81548160ff021916908360ff1602179055505b600060019054906101000a900473ffffffffffffffffffffffffffffffffffffffff1673ffffffffffffffffffffffffffffffffffffffff1663e31f7b28600760008060ff168152602001908152602001600020600001543384600160009054906101000a900473ffffffffffffffffffffffffffffffffffffffff1673ffffffffffffffffffffffffffffffffffffffff166370a08231336040518263ffffffff1660e01b8152600401612fa39190613f2e565b60206040518083038186803b158015612fbb57600080fd5b505afa158015612fcf573d6000803e3d6000fd5b505050506040513d601f19601f82011682018060405250810190612ff39190613d3f565b6040518563ffffffff1660e01b81526004016130129493929190614272565b602060405180830381600087803b15801561302c57600080fd5b505af1158015613040573d6000803e3d6000fd5b505050506040513d601f19601f820116820180604052508101906130649190613d99565b600760008060ff16815260200190815260200160002060010160006101000a81548160ff021916908360ff1602179055506002600760008060ff16815260200190815260200160002060010160009054906101000a900460ff1660ff16141561325857600160009054906101000a900473ffffffffffffffffffffffffffffffffffffffff16600260006101000a81548173ffffffffffffffffffffffffffffffffffffffff021916908373ffffffffffffffffffffffffffffffffffffffff160217905550600060019054906101000a900473ffffffffffffffffffffffffffffffffffffffff1673ffffffffffffffffffffffffffffffffffffffff1663b17979a660076000600660ff168152602001908152602001600020600001546040518263ffffffff1660e01b815260040161319f9190614257565b60206040518083038186803b1580156131b757600080fd5b505afa1580156131cb573d6000803e3d6000fd5b505050506040513d601f19601f820116820180604052508101906131ef9190613bcb565b600160006101000a81548173ffffffffffffffffffffffffffffffffffffffff021916908373ffffffffffffffffffffffffffffffffffffffff1602179055506000600760008060ff16815260200190815260200160002060010160009054906101000a905050505b6003600760008060ff16815260200190815260200160002060010160009054906101000a900460ff1660ff1614156132b3576000600760008060ff16815260200190815260200160002060010160009054906101000a905050505b505050565b600660009054906101000a900473ffffffffffffffffffffffffffffffffffffffff1681565b600061331f576040517f08c379a0000000000000000000000000000000000000000000000000000000008152600401613316906141fc565b60405180910390fd5b81600460006101000a81548173ffffffffffffffffffffffffffffffffffffffff021916908373ffffffffffffffffffffffffffffffffffffffff16021790555080600560006101000a81548173ffffffffffffffffffffffffffffffffffffffff021916908373ffffffffffffffffffffffffffffffffffffffff1602179055505050565b600e5481565b600981815481106133bb57600080fd5b906000526020600020016000915054906101000a900473ffffffffffffffffffffffffffffffffffffffff1681565b60076020528060005260406000206000915090508060000154908060010160009054906101000a900460ff16905082565b806000600b60008373ffffffffffffffffffffffffffffffffffffffff1673ffffffffffffffffffffffffffffffffffffffff168152602001908152602001600020541161346857600080fd5b6000826001600760008460ff1660ff16815260200190815260200160002060010160009054906101000a900460ff1660ff1611156134db576040517f08c379a00000000000000000000000000000000000000000000000000000000081526004016134d2906141dc565b60405180910390fd5b6000600760008460ff1660ff16815260200190815260200160002060010160009054906101000a900460ff1660ff1614156136ea57600060019054906101000a900473ffffffffffffffffffffffffffffffffffffffff1673ffffffffffffffffffffffffffffffffffffffff16637b6e5f9c60046012600f9054906101000a900464ffffffffff16601260009054906101000a90046effffffffffffffffffffffffffffff16600160009054906101000a900473ffffffffffffffffffffffffffffffffffffffff1673ffffffffffffffffffffffffffffffffffffffff166318160ddd6040518163ffffffff1660e01b815260040160206040518083038186803b1580156135ea57600080fd5b505afa1580156135fe573d6000803e3d6000fd5b505050506040513d601f19601f820116820180604052508101906136229190613d3f565b6040518563ffffffff1660e01b81526004016136419493929190614197565b602060405180830381600087803b15801561365b57600080fd5b505af115801561366f573d6000803e3d6000fd5b505050506040513d601f19601f820116820180604052508101906136939190613d3f565b600760008460ff1660ff168152602001908152602001600020600001819055506001600760008460ff1660ff16815260200190815260200160002060010160006101000a81548160ff021916908360ff1602179055505b600060019054906101000a900473ffffffffffffffffffffffffffffffffffffffff1673ffffffffffffffffffffffffffffffffffffffff1663e31f7b28600760008060ff168152602001908152602001600020600001543384600160009054906101000a900473ffffffffffffffffffffffffffffffffffffffff1673ffffffffffffffffffffffffffffffffffffffff166370a08231336040518263ffffffff1660e01b815260040161379f9190613f2e565b60206040518083038186803b1580156137b757600080fd5b505afa1580156137cb573d6000803e3d6000fd5b505050506040513d601f19601f820116820180604052508101906137ef9190613d3f565b6040518563ffffffff1660e01b815260040161380e9493929190614272565b602060405180830381600087803b15801561382857600080fd5b505af115801561383c573d6000803e3d6000fd5b505050506040513d601f19601f820116820180604052508101906138609190613d99565b600760008060ff16815260200190815260200160002060010160006101000a81548160ff021916908360ff1602179055506002600760008060ff16815260200190815260200160002060010160009054906101000a900460ff1660ff1614156139f55760008060019054906101000a900473ffffffffffffffffffffffffffffffffffffffff1673ffffffffffffffffffffffffffffffffffffffff1663b17979a6600760008060ff168152602001908152602001600020600001546040518263ffffffff1660e01b81526004016139389190614257565b60206040518083038186803b15801561395057600080fd5b505afa158015613964573d6000803e3d6000fd5b505050506040513d601f19601f820116820180604052508101906139889190613bcb565b905080600a60006101000a81548173ffffffffffffffffffffffffffffffffffffffff021916908373ffffffffffffffffffffffffffffffffffffffff160217905550506000600760008060ff16815260200190815260200160002060010160009054906101000a905050505b6003600760008060ff16815260200190815260200160002060010160009054906101000a900460ff1660ff161415613a50576000600760008060ff16815260200190815260200160002060010160009054906101000a905050505b50505050565b600060019054906101000a900473ffffffffffffffffffffffffffffffffffffffff1681565b600015613adf576000620f424090503373ffffffffffffffffffffffffffffffffffffffff166108fc3a83613ab19190614362565b9081150290604051600060405180830381858888f19350505050158015613adc573d6000803e3d6000fd5b50505b565b600081359050613af0816146b2565b92915050565b600081519050613b05816146b2565b92915050565b600081359050613b1a816146c9565b92915050565b600081519050613b2f816146e0565b92915050565b600081359050613b44816146f7565b92915050565b600081359050613b598161470e565b92915050565b600081519050613b6e8161470e565b92915050565b600081359050613b8381614725565b92915050565b600081519050613b9881614725565b92915050565b600060208284031215613bb457613bb361460c565b5b6000613bc284828501613ae1565b91505092915050565b600060208284031215613be157613be061460c565b5b6000613bef84828501613af6565b91505092915050565b60008060408385031215613c0f57613c0e61460c565b5b6000613c1d85828601613b0b565b9250506020613c2e85828601613b0b565b9150509250929050565b60008060408385031215613c4f57613c4e61460c565b5b6000613c5d85828601613b0b565b9250506020613c6e85828601613b4a565b9150509250929050565b60008060408385031215613c8f57613c8e61460c565b5b6000613c9d85828601613ae1565b9250506020613cae85828601613ae1565b9150509250929050565b600060208284031215613cce57613ccd61460c565b5b6000613cdc84828501613b20565b91505092915050565b600060208284031215613cfb57613cfa61460c565b5b6000613d0984828501613b35565b91505092915050565b600060208284031215613d2857613d2761460c565b5b6000613d3684828501613b4a565b91505092915050565b600060208284031215613d5557613d5461460c565b5b6000613d6384828501613b5f565b91505092915050565b600060208284031215613d8257613d8161460c565b5b6000613d9084828501613b74565b91505092915050565b600060208284031215613daf57613dae61460c565b5b6000613dbd84828501613b89565b91505092915050565b613dcf8161449f565b82525050565b613dde81614402565b82525050565b613ded816143f0565b82525050565b613dfc81614414565b82525050565b613e0b816144b1565b82525050565b613e1a816144c3565b82525050565b613e29816144d5565b82525050565b613e38816144e7565b82525050565b613e47816144f9565b82525050565b613e568161450b565b82525050565b613e658161451d565b82525050565b613e748161452f565b82525050565b6000613e876012836142fb565b9150613e9282614611565b602082019050919050565b6000613eaa6025836142fb565b9150613eb58261463a565b604082019050919050565b6000613ecd600e836142fb565b9150613ed882614689565b602082019050919050565b613eec81614420565b82525050565b613efb8161443b565b82525050565b613f0a81614477565b82525050565b613f1981614481565b82525050565b613f2881614492565b82525050565b6000602082019050613f436000830184613de4565b92915050565b600061010082019050613f5f600083018b613dd5565b613f6c602083018a613dc6565b613f796040830189613dc6565b613f866060830188613de4565b613f936080830187613de4565b613fa060a0830186613de4565b613fad60c0830185613de4565b613fba60e0830184613f01565b9998505050505050505050565b600060e082019050613fdc600083018a613dd5565b613fe96020830189613de4565b613ff66040830188613de4565b6140036060830187613de4565b6140106080830186613f01565b61401d60a0830185613f01565b61402a60c0830184613f01565b98975050505050505050565b600060408201905061404b6000830185613dc6565b6140586020830184613f01565b9392505050565b60006060820190506140746000830186613de4565b6140816020830185613de4565b61408e6040830184613df3565b949350505050565b60006040820190506140ab6000830185613de4565b6140b86020830184613f01565b9392505050565b60006020820190506140d46000830184613df3565b92915050565b60006020820190506140ef6000830184613e02565b92915050565b600060208201905061410a6000830184613e11565b92915050565b60006020820190506141256000830184613e20565b92915050565b60006020820190506141406000830184613e2f565b92915050565b600060208201905061415b6000830184613e3e565b92915050565b60006020820190506141766000830184613e4d565b92915050565b60006020820190506141916000830184613e5c565b92915050565b60006080820190506141ac6000830187613e6b565b6141b96020830186613f10565b6141c66040830185613ee3565b6141d36060830184613ee3565b95945050505050565b600060208201905081810360008301526141f581613e7a565b9050919050565b6000602082019050818103600083015261421581613e9d565b9050919050565b6000602082019050818103600083015261423581613ec0565b9050919050565b60006020820190506142516000830184613ee3565b92915050565b600060208201905061426c6000830184613f01565b92915050565b60006080820190506142876000830187613f01565b6142946020830186613de4565b6142a16040830185613de4565b6142ae6060830184613ef2565b95945050505050565b60006040820190506142cc6000830185613f01565b6142d96020830184613f1f565b9392505050565b60006020820190506142f56000830184613f10565b92915050565b600082825260208201905092915050565b600061431782614477565b915061432283614477565b9250827fffffffffffffffffffffffffffffffffffffffffffffffffffffffffffffffff03821115614357576143566145ae565b5b828201905092915050565b600061436d82614477565b915061437883614477565b9250817fffffffffffffffffffffffffffffffffffffffffffffffffffffffffffffffff04831182151516156143b1576143b06145ae565b5b828202905092915050565b60006143c782614477565b91506143d283614477565b9250828210156143e5576143e46145ae565b5b828203905092915050565b60006143fb82614457565b9050919050565b600061440d82614457565b9050919050565b60008115159050919050565b60006effffffffffffffffffffffffffffff82169050919050565b60006fffffffffffffffffffffffffffffffff82169050919050565b600073ffffffffffffffffffffffffffffffffffffffff82169050919050565b6000819050919050565b600064ffffffffff82169050919050565b600060ff82169050919050565b60006144aa82614541565b9050919050565b60006144bc82614541565b9050919050565b60006144ce82614541565b9050919050565b60006144e082614541565b9050919050565b60006144f282614541565b9050919050565b600061450482614541565b9050919050565b600061451682614541565b9050919050565b600061452882614541565b9050919050565b600061453a82614492565b9050919050565b600061454c82614553565b9050919050565b600061455e82614457565b9050919050565b600061457082614477565b91507fffffffffffffffffffffffffffffffffffffffffffffffffffffffffffffffff8214156145a3576145a26145ae565b5b600182019050919050565b7f4e487b7100000000000000000000000000000000000000000000000000000000600052601160045260246000fd5b7f4e487b7100000000000000000000000000000000000000000000000000000000600052603260045260246000fd5b600080fd5b7f696e616374697665206f72206163746976650000000000000000000000000000600082015250565b7f2072657175697265732044414f20564f54452e20546f20626520696d706c656d60008201527f656e746564000000000000000000000000000000000000000000000000000000602082015250565b7f616c726561647920657869737473000000000000000000000000000000000000600082015250565b6146bb816143f0565b81146146c657600080fd5b50565b6146d281614402565b81146146dd57600080fd5b50565b6146e981614414565b81146146f457600080fd5b50565b61470081614457565b811461470b57600080fd5b50565b61471781614477565b811461472257600080fd5b50565b61472e81614492565b811461473957600080fd5b5056fea26469706673582212205cad84e8fac8ca713a8843f2383482e7a68f44b6099c8a300444230cbb081ac164736f6c634300080700336080604052348015600f57600080fd5b50603f80601d6000396000f3fe6080604052600080fdfea2646970667358221220c139efeb2d1b64d42aa0d3796f49c67072e0819abc8274d7121cd986035f3a5364736f6c63430008070033a2646970667358221220d33835c21e4c2c1df2fa690f6fb0a84bfbae9499beb1a7f041c33052db35354e64736f6c63430008070033608060405262093a806010556101f4601260006101000a8154816effffffffffffffffffffffffffffff02191690836effffffffffffffffffffffffffffff160217905550620d2f006012600f6101000a81548164ffffffffff021916908364ffffffffff1602179055503480156200007757600080fd5b5060405162004adb38038062004adb83398181016040528101906200009d919062000263565b33600660006101000a81548173ffffffffffffffffffffffffffffffffffffffff021916908373ffffffffffffffffffffffffffffffffffffffff16021790555081600060016101000a81548173ffffffffffffffffffffffffffffffffffffffff021916908373ffffffffffffffffffffffffffffffffffffffff16021790555080600160006101000a81548173ffffffffffffffffffffffffffffffffffffffff021916908373ffffffffffffffffffffffffffffffffffffffff1602179055506040516200016e906200023f565b604051809103906000f0801580156200018b573d6000803e3d6000fd5b50600360006101000a81548173ffffffffffffffffffffffffffffffffffffffff021916908373ffffffffffffffffffffffffffffffffffffffff160217905550600960009080600181540180825580915050600190039060005260206000200160009091909190916101000a81548173ffffffffffffffffffffffffffffffffffffffff021916908373ffffffffffffffffffffffffffffffffffffffff160217905550426008819055505050620002fd565b605c8062004a7f83390190565b6000815190506200025d81620002e3565b92915050565b600080604083850312156200027d576200027c620002de565b5b60006200028d858286016200024c565b9250506020620002a0858286016200024c565b9150509250929050565b6000620002b782620002be565b9050919050565b600073ffffffffffffffffffffffffffffffffffffffff82169050919050565b600080fd5b620002ee81620002aa565b8114620002fa57600080fd5b50565b614772806200030d6000396000f3fe608060405234801561001057600080fd5b50600436106102265760003560e01c80638005bc9511610130578063a5125421116100b8578063db5e4c7f1161007c578063db5e4c7f14610595578063de660841146105b3578063e093ba82146105e3578063f74b059e14610614578063fce1ccca1461063057610226565b8063a512542114610507578063bca0adcb14610523578063bdaf56a31461053f578063c48ea1ff1461055b578063d98d79551461057957610226565b806398ba130b116100ff57806398ba130b146104615780639ca09d1c146104915780639cc52b5d146104ad578063a09312fd146104cb578063a3db1d20146104e957610226565b80638005bc95146103ed57806382d6ddff1461040957806382f072e8146104255780638a14ae8a1461044357610226565b806329034a5c116101b357806350fa62e31161018257806350fa62e3146103595780635ab2ec0d146103895780635b63f661146103a757806363bd1d4a146103c55780636412173e146103cf57610226565b806329034a5c146102f75780632fee8e3e1461031557806336061081146103335780634a7dc8e01461033d57610226565b806316ac3265116101fa57806316ac32651461028b5780631b6405fe146102955780631c0701df146102b15780631cc1cf46146102cf57806324bc8d05146102ed57610226565b8062d117d41461022b5780630e136b191461024757806312514bba1461026557806313f6d05c14610281575b600080fd5b61024560048036038101906102409190613ce5565b61064e565b005b61024f610c17565b60405161025c91906140bf565b60405180910390f35b61027f600480360381019061027a9190613d12565b610c28565b005b610289610d31565b005b61029361121c565b005b6102af60048036038101906102aa9190613bf8565b6113f9565b005b6102b9611634565b6040516102c69190614257565b60405180910390f35b6102d761163e565b6040516102e49190614257565b60405180910390f35b6102f5611644565b005b6102ff611c41565b60405161030c9190614146565b60405180910390f35b61031d611c67565b60405161032a91906140da565b60405180910390f35b61033b611c8d565b005b61035760048036038101906103529190613b9e565b611e1e565b005b610373600480360381019061036e9190613d12565b612012565b6040516103809190613f2e565b60405180910390f35b610391612051565b60405161039e919061412b565b60405180910390f35b6103af612077565b6040516103bc9190614146565b60405180910390f35b6103cd61209d565b005b6103d761218b565b6040516103e49190614110565b60405180910390f35b61040760048036038101906104029190613b9e565b6121b1565b005b610423600480360381019061041e9190613d12565b6126f5565b005b61042d6127dd565b60405161043a919061423c565b60405180910390f35b61044b6127fe565b6040516104589190614257565b60405180910390f35b61047b60048036038101906104769190613d12565b612804565b6040516104889190613f2e565b60405180910390f35b6104ab60048036038101906104a69190613d12565b612843565b005b6104b5612a5b565b6040516104c291906140f5565b60405180910390f35b6104d3612a81565b6040516104e091906142e0565b60405180910390f35b6104f1612a98565b6040516104fe9190614257565b60405180910390f35b610521600480360381019061051c9190613b9e565b612a9e565b005b61053d60048036038101906105389190613c38565b612b83565b005b61055960048036038101906105549190613b9e565b612c6c565b005b6105636132b8565b604051610570919061417c565b60405180910390f35b610593600480360381019061058e9190613c78565b6132de565b005b61059d6133a5565b6040516105aa9190614257565b60405180910390f35b6105cd60048036038101906105c89190613d12565b6133ab565b6040516105da9190613f2e565b60405180910390f35b6105fd60048036038101906105f89190613d6c565b6133ea565b60405161060b9291906142b7565b60405180910390f35b61062e60048036038101906106299190613b9e565b61341b565b005b610638613a56565b6040516106459190614161565b60405180910390f35b6002816001600760008460ff1660ff16815260200190815260200160002060010160009054906101000a900460ff1660ff1611156106c1576040517f08c379a00000000000000000000000000000000000000000000000000000000081526004016106b8906141dc565b60405180910390fd5b6000600760008460ff1660ff16815260200190815260200160002060010160009054906101000a900460ff1660ff1614156108d057600060019054906101000a900473ffffffffffffffffffffffffffffffffffffffff1673ffffffffffffffffffffffffffffffffffffffff16637b6e5f9c60046012600f9054906101000a900464ffffffffff16601260009054906101000a90046effffffffffffffffffffffffffffff16600160009054906101000a900473ffffffffffffffffffffffffffffffffffffffff1673ffffffffffffffffffffffffffffffffffffffff166318160ddd6040518163ffffffff1660e01b815260040160206040518083038186803b1580156107d057600080fd5b505afa1580156107e4573d6000803e3d6000fd5b505050506040513d601f19601f820116820180604052508101906108089190613d3f565b6040518563ffffffff1660e01b81526004016108279493929190614197565b602060405180830381600087803b15801561084157600080fd5b505af1158015610855573d6000803e3d6000fd5b505050506040513d601f19601f820116820180604052508101906108799190613d3f565b600760008460ff1660ff168152602001908152602001600020600001819055506001600760008460ff1660ff16815260200190815260200160002060010160006101000a81548160ff021916908360ff1602179055505b600060019054906101000a900473ffffffffffffffffffffffffffffffffffffffff1673ffffffffffffffffffffffffffffffffffffffff1663e31f7b28600760008060ff168152602001908152602001600020600001543384600160009054906101000a900473ffffffffffffffffffffffffffffffffffffffff1673ffffffffffffffffffffffffffffffffffffffff166370a08231336040518263ffffffff1660e01b81526004016109859190613f2e565b60206040518083038186803b15801561099d57600080fd5b505afa1580156109b1573d6000803e3d6000fd5b505050506040513d601f19601f820116820180604052508101906109d59190613d3f565b6040518563ffffffff1660e01b81526004016109f49493929190614272565b602060405180830381600087803b158015610a0e57600080fd5b505af1158015610a22573d6000803e3d6000fd5b505050506040513d601f19601f82011682018060405250810190610a469190613d99565b600760008060ff16815260200190815260200160002060010160006101000a81548160ff021916908360ff1602179055506002600760008060ff16815260200190815260200160002060010160009054906101000a900460ff1660ff161415610bb75760008060019054906101000a900473ffffffffffffffffffffffffffffffffffffffff1673ffffffffffffffffffffffffffffffffffffffff1663b17979a6600760008060ff168152602001908152602001600020600001546040518263ffffffff1660e01b8152600401610b1e9190614257565b60206040518083038186803b158015610b3657600080fd5b505afa158015610b4a573d6000803e3d6000fd5b505050506040513d601f19601f82011682018060405250810190610b6e9190613bcb565b90508073ffffffffffffffffffffffffffffffffffffffff16601181905550506000600760008060ff16815260200190815260200160002060010160009054906101000a905050505b6003600760008060ff16815260200190815260200160002060010160009054906101000a900460ff1660ff161415610c12576000600760008060ff16815260200190815260200160002060010160009054906101000a905050505b505050565b60008054906101000a900460ff1681565b600f60003373ffffffffffffffffffffffffffffffffffffffff1673ffffffffffffffffffffffffffffffffffffffff16815260200190815260200160002060009054906101000a900460ff16610c7e57600080fd5b600a60009054906101000a900473ffffffffffffffffffffffffffffffffffffffff1673ffffffffffffffffffffffffffffffffffffffff1663a9059cbb33836040518363ffffffff1660e01b8152600401610cdb929190614096565b602060405180830381600087803b158015610cf557600080fd5b505af1158015610d09573d6000803e3d6000fd5b505050506040513d601f19601f82011682018060405250810190610d2d9190613cb8565b5050565b600360006001600760008460ff1660ff16815260200190815260200160002060010160009054906101000a900460ff1660ff161115610da5576040517f08c379a0000000000000000000000000000000000000000000000000000000008152600401610d9c906141dc565b60405180910390fd5b6000600760008460ff1660ff16815260200190815260200160002060010160009054906101000a900460ff1660ff161415610fb457600060019054906101000a900473ffffffffffffffffffffffffffffffffffffffff1673ffffffffffffffffffffffffffffffffffffffff16637b6e5f9c60046012600f9054906101000a900464ffffffffff16601260009054906101000a90046effffffffffffffffffffffffffffff16600160009054906101000a900473ffffffffffffffffffffffffffffffffffffffff1673ffffffffffffffffffffffffffffffffffffffff166318160ddd6040518163ffffffff1660e01b815260040160206040518083038186803b158015610eb457600080fd5b505afa158015610ec8573d6000803e3d6000fd5b505050506040513d601f19601f82011682018060405250810190610eec9190613d3f565b6040518563ffffffff1660e01b8152600401610f0b9493929190614197565b602060405180830381600087803b158015610f2557600080fd5b505af1158015610f39573d6000803e3d6000fd5b505050506040513d601f19601f82011682018060405250810190610f5d9190613d3f565b600760008460ff1660ff168152602001908152602001600020600001819055506001600760008460ff1660ff16815260200190815260200160002060010160006101000a81548160ff021916908360ff1602179055505b600060019054906101000a900473ffffffffffffffffffffffffffffffffffffffff1673ffffffffffffffffffffffffffffffffffffffff1663e31f7b28600760008060ff168152602001908152602001600020600001543384600160009054906101000a900473ffffffffffffffffffffffffffffffffffffffff1673ffffffffffffffffffffffffffffffffffffffff166370a08231336040518263ffffffff1660e01b81526004016110699190613f2e565b60206040518083038186803b15801561108157600080fd5b505afa158015611095573d6000803e3d6000fd5b505050506040513d601f19601f820116820180604052508101906110b99190613d3f565b6040518563ffffffff1660e01b81526004016110d89493929190614272565b602060405180830381600087803b1580156110f257600080fd5b505af1158015611106573d6000803e3d6000fd5b505050506040513d601f19601f8201168201806040525081019061112a9190613d99565b600760008060ff16815260200190815260200160002060010160006101000a81548160ff021916908360ff1602179055506002600760008060ff16815260200190815260200160002060010160009054906101000a900460ff1660ff1614156111bd57426008819055506000600760008060ff16815260200190815260200160002060010160009054906101000a905050505b6003600760008060ff16815260200190815260200160002060010160009054906101000a900460ff1660ff161415611218576000600760008060ff16815260200190815260200160002060010160009054906101000a905050505b5050565b6000600260009054906101000a900473ffffffffffffffffffffffffffffffffffffffff1673ffffffffffffffffffffffffffffffffffffffff166370a08231336040518263ffffffff1660e01b81526004016112799190613f2e565b60206040518083038186803b15801561129157600080fd5b505afa1580156112a5573d6000803e3d6000fd5b505050506040513d601f19601f820116820180604052508101906112c99190613d3f565b9050600081116112d857600080fd5b600160009054906101000a900473ffffffffffffffffffffffffffffffffffffffff1673ffffffffffffffffffffffffffffffffffffffff166340c10f1933836040518363ffffffff1660e01b8152600401611335929190614096565b600060405180830381600087803b15801561134f57600080fd5b505af1158015611363573d6000803e3d6000fd5b50505050600260009054906101000a900473ffffffffffffffffffffffffffffffffffffffff1673ffffffffffffffffffffffffffffffffffffffff16639dc29fac33836040518363ffffffff1660e01b81526004016113c4929190614096565b600060405180830381600087803b1580156113de57600080fd5b505af11580156113f2573d6000803e3d6000fd5b5050505050565b60008054906101000a900460ff161561141157600080fd5b6000600460009054906101000a900473ffffffffffffffffffffffffffffffffffffffff1673ffffffffffffffffffffffffffffffffffffffff1663d9acec53338585600160009054906101000a900473ffffffffffffffffffffffffffffffffffffffff16600360009054906101000a900473ffffffffffffffffffffffffffffffffffffffff16600060019054906101000a900473ffffffffffffffffffffffffffffffffffffffff16600a60009054906101000a900473ffffffffffffffffffffffffffffffffffffffff166010546040518963ffffffff1660e01b8152600401611506989796959493929190613f49565b602060405180830381600087803b15801561152057600080fd5b505af1158015611534573d6000803e3d6000fd5b505050506040513d601f19601f820116820180604052508101906115589190613bcb565b9050600c819080600181540180825580915050600190039060005260206000200160009091909190916101000a81548173ffffffffffffffffffffffffffffffffffffffff021916908373ffffffffffffffffffffffffffffffffffffffff1602179055506001600f60008373ffffffffffffffffffffffffffffffffffffffff1673ffffffffffffffffffffffffffffffffffffffff16815260200190815260200160002060006101000a81548160ff0219169083151502179055506001600e6000828254611628919061430c565b92505081905550505050565b6000600854905090565b60115481565b600560006001600760008460ff1660ff16815260200190815260200160002060010160009054906101000a900460ff1660ff1611156116b8576040517f08c379a00000000000000000000000000000000000000000000000000000000081526004016116af906141dc565b60405180910390fd5b6000600760008460ff1660ff16815260200190815260200160002060010160009054906101000a900460ff1660ff1614156118c757600060019054906101000a900473ffffffffffffffffffffffffffffffffffffffff1673ffffffffffffffffffffffffffffffffffffffff16637b6e5f9c60046012600f9054906101000a900464ffffffffff16601260009054906101000a90046effffffffffffffffffffffffffffff16600160009054906101000a900473ffffffffffffffffffffffffffffffffffffffff1673ffffffffffffffffffffffffffffffffffffffff166318160ddd6040518163ffffffff1660e01b815260040160206040518083038186803b1580156117c757600080fd5b505afa1580156117db573d6000803e3d6000fd5b505050506040513d601f19601f820116820180604052508101906117ff9190613d3f565b6040518563ffffffff1660e01b815260040161181e9493929190614197565b602060405180830381600087803b15801561183857600080fd5b505af115801561184c573d6000803e3d6000fd5b505050506040513d601f19601f820116820180604052508101906118709190613d3f565b600760008460ff1660ff168152602001908152602001600020600001819055506001600760008460ff1660ff16815260200190815260200160002060010160006101000a81548160ff021916908360ff1602179055505b600060019054906101000a900473ffffffffffffffffffffffffffffffffffffffff1673ffffffffffffffffffffffffffffffffffffffff1663e31f7b28600760008060ff168152602001908152602001600020600001543384600160009054906101000a900473ffffffffffffffffffffffffffffffffffffffff1673ffffffffffffffffffffffffffffffffffffffff166370a08231336040518263ffffffff1660e01b815260040161197c9190613f2e565b60206040518083038186803b15801561199457600080fd5b505afa1580156119a8573d6000803e3d6000fd5b505050506040513d601f19601f820116820180604052508101906119cc9190613d3f565b6040518563ffffffff1660e01b81526004016119eb9493929190614272565b602060405180830381600087803b158015611a0557600080fd5b505af1158015611a19573d6000803e3d6000fd5b505050506040513d601f19601f82011682018060405250810190611a3d9190613d99565b600760008060ff16815260200190815260200160002060010160006101000a81548160ff021916908360ff1602179055506002600760008060ff16815260200190815260200160002060010160009054906101000a900460ff1660ff161415611be257600660009054906101000a900473ffffffffffffffffffffffffffffffffffffffff1673ffffffffffffffffffffffffffffffffffffffff16630785ca30600060019054906101000a900473ffffffffffffffffffffffffffffffffffffffff16600160009054906101000a900473ffffffffffffffffffffffffffffffffffffffff1660016040518463ffffffff1660e01b8152600401611b449392919061405f565b602060405180830381600087803b158015611b5e57600080fd5b505af1158015611b72573d6000803e3d6000fd5b505050506040513d601f19601f82011682018060405250810190611b969190613bcb565b5060016000806101000a81548160ff021916908315150217905550611bb9613a7c565b6000600760008060ff16815260200190815260200160002060010160009054906101000a905050505b6003600760008060ff16815260200190815260200160002060010160009054906101000a900460ff1660ff161415611c3d576000600760008060ff16815260200190815260200160002060010160009054906101000a905050505b5050565b600160009054906101000a900473ffffffffffffffffffffffffffffffffffffffff1681565b600360009054906101000a900473ffffffffffffffffffffffffffffffffffffffff1681565b600f60003373ffffffffffffffffffffffffffffffffffffffff1673ffffffffffffffffffffffffffffffffffffffff16815260200190815260200160002060009054906101000a900460ff16611ce357600080fd5b600160009054906101000a900473ffffffffffffffffffffffffffffffffffffffff1673ffffffffffffffffffffffffffffffffffffffff16639dc29fac33600160009054906101000a900473ffffffffffffffffffffffffffffffffffffffff1673ffffffffffffffffffffffffffffffffffffffff166370a08231336040518263ffffffff1660e01b8152600401611d7d9190613f2e565b60206040518083038186803b158015611d9557600080fd5b505afa158015611da9573d6000803e3d6000fd5b505050506040513d601f19601f82011682018060405250810190611dcd9190613d3f565b6040518363ffffffff1660e01b8152600401611dea929190614096565b600060405180830381600087803b158015611e0457600080fd5b505af1158015611e18573d6000803e3d6000fd5b50505050565b6000600160009054906101000a900473ffffffffffffffffffffffffffffffffffffffff1673ffffffffffffffffffffffffffffffffffffffff166370a08231336040518263ffffffff1660e01b8152600401611e7b9190613f2e565b60206040518083038186803b158015611e9357600080fd5b505afa158015611ea7573d6000803e3d6000fd5b505050506040513d601f19601f82011682018060405250810190611ecb9190613d3f565b11611ed557600080fd5b6000600b60008373ffffffffffffffffffffffffffffffffffffffff1673ffffffffffffffffffffffffffffffffffffffff1681526020019081526020016000205414611f57576040517f08c379a0000000000000000000000000000000000000000000000000000000008152600401611f4e9061421c565b60405180910390fd5b6009819080600181540180825580915050600190039060005260206000200160009091909190916101000a81548173ffffffffffffffffffffffffffffffffffffffff021916908373ffffffffffffffffffffffffffffffffffffffff1602179055506001600980549050611fcc91906143bc565b600b60008373ffffffffffffffffffffffffffffffffffffffff1673ffffffffffffffffffffffffffffffffffffffff1681526020019081526020016000208190555050565b600c818154811061202257600080fd5b906000526020600020016000915054906101000a900473ffffffffffffffffffffffffffffffffffffffff1681565b600560009054906101000a900473ffffffffffffffffffffffffffffffffffffffff1681565b600260009054906101000a900473ffffffffffffffffffffffffffffffffffffffff1681565b601154600854426120ae91906143bc565b116120b857600080fd5b60005b600d8054905081101561217957600d81815481106120dc576120db6145dd565b5b9060005260206000200160009054906101000a900473ffffffffffffffffffffffffffffffffffffffff1673ffffffffffffffffffffffffffffffffffffffff16631b9265b86040518163ffffffff1660e01b8152600401600060405180830381600087803b15801561214e57600080fd5b505af1158015612162573d6000803e3d6000fd5b50505050808061217190614565565b9150506120bb565b5042600881905550612189613a7c565b565b600a60009054906101000a900473ffffffffffffffffffffffffffffffffffffffff1681565b6004816001600760008460ff1660ff16815260200190815260200160002060010160009054906101000a900460ff1660ff161115612224576040517f08c379a000000000000000000000000000000000000000000000000000000000815260040161221b906141dc565b60405180910390fd5b6000600760008460ff1660ff16815260200190815260200160002060010160009054906101000a900460ff1660ff16141561243357600060019054906101000a900473ffffffffffffffffffffffffffffffffffffffff1673ffffffffffffffffffffffffffffffffffffffff16637b6e5f9c60046012600f9054906101000a900464ffffffffff16601260009054906101000a90046effffffffffffffffffffffffffffff16600160009054906101000a900473ffffffffffffffffffffffffffffffffffffffff1673ffffffffffffffffffffffffffffffffffffffff166318160ddd6040518163ffffffff1660e01b815260040160206040518083038186803b15801561233357600080fd5b505afa158015612347573d6000803e3d6000fd5b505050506040513d601f19601f8201168201806040525081019061236b9190613d3f565b6040518563ffffffff1660e01b815260040161238a9493929190614197565b602060405180830381600087803b1580156123a457600080fd5b505af11580156123b8573d6000803e3d6000fd5b505050506040513d601f19601f820116820180604052508101906123dc9190613d3f565b600760008460ff1660ff168152602001908152602001600020600001819055506001600760008460ff1660ff16815260200190815260200160002060010160006101000a81548160ff021916908360ff1602179055505b600060019054906101000a900473ffffffffffffffffffffffffffffffffffffffff1673ffffffffffffffffffffffffffffffffffffffff1663e31f7b28600760008060ff168152602001908152602001600020600001543384600160009054906101000a900473ffffffffffffffffffffffffffffffffffffffff1673ffffffffffffffffffffffffffffffffffffffff166370a08231336040518263ffffffff1660e01b81526004016124e89190613f2e565b60206040518083038186803b15801561250057600080fd5b505afa158015612514573d6000803e3d6000fd5b505050506040513d601f19601f820116820180604052508101906125389190613d3f565b6040518563ffffffff1660e01b81526004016125579493929190614272565b602060405180830381600087803b15801561257157600080fd5b505af1158015612585573d6000803e3d6000fd5b505050506040513d601f19601f820116820180604052508101906125a99190613d99565b600760008060ff16815260200190815260200160002060010160006101000a81548160ff021916908360ff1602179055506002600760008060ff16815260200190815260200160002060010160009054906101000a900460ff1660ff161415612695578273ffffffffffffffffffffffffffffffffffffffff16633ccfd60b6040518163ffffffff1660e01b8152600401600060405180830381600087803b15801561265457600080fd5b505af1158015612668573d6000803e3d6000fd5b505050506000600760008060ff16815260200190815260200160002060010160009054906101000a905050505b6003600760008060ff16815260200190815260200160002060010160009054906101000a900460ff1660ff1614156126f0576000600760008060ff16815260200190815260200160002060010160009054906101000a905050505b505050565b600f60003373ffffffffffffffffffffffffffffffffffffffff1673ffffffffffffffffffffffffffffffffffffffff16815260200190815260200160002060009054906101000a900460ff1661274b57600080fd5b600160009054906101000a900473ffffffffffffffffffffffffffffffffffffffff1673ffffffffffffffffffffffffffffffffffffffff166340c10f1933836040518363ffffffff1660e01b81526004016127a8929190614096565b600060405180830381600087803b1580156127c257600080fd5b505af11580156127d6573d6000803e3d6000fd5b5050505050565b601260009054906101000a90046effffffffffffffffffffffffffffff1681565b60085481565b600d818154811061281457600080fd5b906000526020600020016000915054906101000a900473ffffffffffffffffffffffffffffffffffffffff1681565b60008054906101000a900460ff161561285b57600080fd5b6000600560009054906101000a900473ffffffffffffffffffffffffffffffffffffffff1673ffffffffffffffffffffffffffffffffffffffff1663842d201a33600160009054906101000a900473ffffffffffffffffffffffffffffffffffffffff16600a60009054906101000a900473ffffffffffffffffffffffffffffffffffffffff16600060019054906101000a900473ffffffffffffffffffffffffffffffffffffffff16601054601154896040518863ffffffff1660e01b815260040161292e9796959493929190613fc7565b602060405180830381600087803b15801561294857600080fd5b505af115801561295c573d6000803e3d6000fd5b505050506040513d601f19601f820116820180604052508101906129809190613bcb565b9050600d819080600181540180825580915050600190039060005260206000200160009091909190916101000a81548173ffffffffffffffffffffffffffffffffffffffff021916908373ffffffffffffffffffffffffffffffffffffffff1602179055506001600f60008373ffffffffffffffffffffffffffffffffffffffff1673ffffffffffffffffffffffffffffffffffffffff16815260200190815260200160002060006101000a81548160ff0219169083151502179055506001600e6000828254612a50919061430c565b925050819055505050565b600460009054906101000a900473ffffffffffffffffffffffffffffffffffffffff1681565b6012600f9054906101000a900464ffffffffff1681565b60105481565b60006009600b60008473ffffffffffffffffffffffffffffffffffffffff1673ffffffffffffffffffffffffffffffffffffffff1681526020019081526020016000205481548110612af357612af26145dd565b5b9060005260206000200160006101000a81548173ffffffffffffffffffffffffffffffffffffffff021916908373ffffffffffffffffffffffffffffffffffffffff1602179055506000600b60008373ffffffffffffffffffffffffffffffffffffffff1673ffffffffffffffffffffffffffffffffffffffff1681526020019081526020016000208190555050565b600f60003373ffffffffffffffffffffffffffffffffffffffff1673ffffffffffffffffffffffffffffffffffffffff16815260200190815260200160002060009054906101000a900460ff16612bd957600080fd5b600160009054906101000a900473ffffffffffffffffffffffffffffffffffffffff1673ffffffffffffffffffffffffffffffffffffffff166340c10f1983836040518363ffffffff1660e01b8152600401612c36929190614036565b600060405180830381600087803b158015612c5057600080fd5b505af1158015612c64573d6000803e3d6000fd5b505050505050565b6006816001600760008460ff1660ff16815260200190815260200160002060010160009054906101000a900460ff1660ff161115612cdf576040517f08c379a0000000000000000000000000000000000000000000000000000000008152600401612cd6906141dc565b60405180910390fd5b6000600760008460ff1660ff16815260200190815260200160002060010160009054906101000a900460ff1660ff161415612eee57600060019054906101000a900473ffffffffffffffffffffffffffffffffffffffff1673ffffffffffffffffffffffffffffffffffffffff16637b6e5f9c60046012600f9054906101000a900464ffffffffff16601260009054906101000a90046effffffffffffffffffffffffffffff16600160009054906101000a900473ffffffffffffffffffffffffffffffffffffffff1673ffffffffffffffffffffffffffffffffffffffff166318160ddd6040518163ffffffff1660e01b815260040160206040518083038186803b158015612dee57600080fd5b505afa158015612e02573d6000803e3d6000fd5b505050506040513d601f19601f82011682018060405250810190612e269190613d3f565b6040518563ffffffff1660e01b8152600401612e459493929190614197565b602060405180830381600087803b158015612e5f57600080fd5b505af1158015612e73573d6000803e3d6000fd5b505050506040513d601f19601f82011682018060405250810190612e979190613d3f565b600760008460ff1660ff168152602001908152602001600020600001819055506001600760008460ff1660ff16815260200190815260200160002060010160006101000a81548160ff021916908360ff1602179055505b600060019054906101000a900473ffffffffffffffffffffffffffffffffffffffff1673ffffffffffffffffffffffffffffffffffffffff1663e31f7b28600760008060ff168152602001908152602001600020600001543384600160009054906101000a900473ffffffffffffffffffffffffffffffffffffffff1673ffffffffffffffffffffffffffffffffffffffff166370a08231336040518263ffffffff1660e01b8152600401612fa39190613f2e565b60206040518083038186803b158015612fbb57600080fd5b505afa158015612fcf573d6000803e3d6000fd5b505050506040513d601f19601f82011682018060405250810190612ff39190613d3f565b6040518563ffffffff1660e01b81526004016130129493929190614272565b602060405180830381600087803b15801561302c57600080fd5b505af1158015613040573d6000803e3d6000fd5b505050506040513d601f19601f820116820180604052508101906130649190613d99565b600760008060ff16815260200190815260200160002060010160006101000a81548160ff021916908360ff1602179055506002600760008060ff16815260200190815260200160002060010160009054906101000a900460ff1660ff16141561325857600160009054906101000a900473ffffffffffffffffffffffffffffffffffffffff16600260006101000a81548173ffffffffffffffffffffffffffffffffffffffff021916908373ffffffffffffffffffffffffffffffffffffffff160217905550600060019054906101000a900473ffffffffffffffffffffffffffffffffffffffff1673ffffffffffffffffffffffffffffffffffffffff1663b17979a660076000600660ff168152602001908152602001600020600001546040518263ffffffff1660e01b815260040161319f9190614257565b60206040518083038186803b1580156131b757600080fd5b505afa1580156131cb573d6000803e3d6000fd5b505050506040513d601f19601f820116820180604052508101906131ef9190613bcb565b600160006101000a81548173ffffffffffffffffffffffffffffffffffffffff021916908373ffffffffffffffffffffffffffffffffffffffff1602179055506000600760008060ff16815260200190815260200160002060010160009054906101000a905050505b6003600760008060ff16815260200190815260200160002060010160009054906101000a900460ff1660ff1614156132b3576000600760008060ff16815260200190815260200160002060010160009054906101000a905050505b505050565b600660009054906101000a900473ffffffffffffffffffffffffffffffffffffffff1681565b600061331f576040517f08c379a0000000000000000000000000000000000000000000000000000000008152600401613316906141fc565b60405180910390fd5b81600460006101000a81548173ffffffffffffffffffffffffffffffffffffffff021916908373ffffffffffffffffffffffffffffffffffffffff16021790555080600560006101000a81548173ffffffffffffffffffffffffffffffffffffffff021916908373ffffffffffffffffffffffffffffffffffffffff1602179055505050565b600e5481565b600981815481106133bb57600080fd5b906000526020600020016000915054906101000a900473ffffffffffffffffffffffffffffffffffffffff1681565b60076020528060005260406000206000915090508060000154908060010160009054906101000a900460ff16905082565b806000600b60008373ffffffffffffffffffffffffffffffffffffffff1673ffffffffffffffffffffffffffffffffffffffff168152602001908152602001600020541161346857600080fd5b6000826001600760008460ff1660ff16815260200190815260200160002060010160009054906101000a900460ff1660ff1611156134db576040517f08c379a00000000000000000000000000000000000000000000000000000000081526004016134d2906141dc565b60405180910390fd5b6000600760008460ff1660ff16815260200190815260200160002060010160009054906101000a900460ff1660ff1614156136ea57600060019054906101000a900473ffffffffffffffffffffffffffffffffffffffff1673ffffffffffffffffffffffffffffffffffffffff16637b6e5f9c60046012600f9054906101000a900464ffffffffff16601260009054906101000a90046effffffffffffffffffffffffffffff16600160009054906101000a900473ffffffffffffffffffffffffffffffffffffffff1673ffffffffffffffffffffffffffffffffffffffff166318160ddd6040518163ffffffff1660e01b815260040160206040518083038186803b1580156135ea57600080fd5b505afa1580156135fe573d6000803e3d6000fd5b505050506040513d601f19601f820116820180604052508101906136229190613d3f565b6040518563ffffffff1660e01b81526004016136419493929190614197565b602060405180830381600087803b15801561365b57600080fd5b505af115801561366f573d6000803e3d6000fd5b505050506040513d601f19601f820116820180604052508101906136939190613d3f565b600760008460ff1660ff168152602001908152602001600020600001819055506001600760008460ff1660ff16815260200190815260200160002060010160006101000a81548160ff021916908360ff1602179055505b600060019054906101000a900473ffffffffffffffffffffffffffffffffffffffff1673ffffffffffffffffffffffffffffffffffffffff1663e31f7b28600760008060ff168152602001908152602001600020600001543384600160009054906101000a900473ffffffffffffffffffffffffffffffffffffffff1673ffffffffffffffffffffffffffffffffffffffff166370a08231336040518263ffffffff1660e01b815260040161379f9190613f2e565b60206040518083038186803b1580156137b757600080fd5b505afa1580156137cb573d6000803e3d6000fd5b505050506040513d601f19601f820116820180604052508101906137ef9190613d3f565b6040518563ffffffff1660e01b815260040161380e9493929190614272565b602060405180830381600087803b15801561382857600080fd5b505af115801561383c573d6000803e3d6000fd5b505050506040513d601f19601f820116820180604052508101906138609190613d99565b600760008060ff16815260200190815260200160002060010160006101000a81548160ff021916908360ff1602179055506002600760008060ff16815260200190815260200160002060010160009054906101000a900460ff1660ff1614156139f55760008060019054906101000a900473ffffffffffffffffffffffffffffffffffffffff1673ffffffffffffffffffffffffffffffffffffffff1663b17979a6600760008060ff168152602001908152602001600020600001546040518263ffffffff1660e01b81526004016139389190614257565b60206040518083038186803b15801561395057600080fd5b505afa158015613964573d6000803e3d6000fd5b505050506040513d601f19601f820116820180604052508101906139889190613bcb565b905080600a60006101000a81548173ffffffffffffffffffffffffffffffffffffffff021916908373ffffffffffffffffffffffffffffffffffffffff160217905550506000600760008060ff16815260200190815260200160002060010160009054906101000a905050505b6003600760008060ff16815260200190815260200160002060010160009054906101000a900460ff1660ff161415613a50576000600760008060ff16815260200190815260200160002060010160009054906101000a905050505b50505050565b600060019054906101000a900473ffffffffffffffffffffffffffffffffffffffff1681565b600015613adf576000620f424090503373ffffffffffffffffffffffffffffffffffffffff166108fc3a83613ab19190614362565b9081150290604051600060405180830381858888f19350505050158015613adc573d6000803e3d6000fd5b50505b565b600081359050613af0816146b2565b92915050565b600081519050613b05816146b2565b92915050565b600081359050613b1a816146c9565b92915050565b600081519050613b2f816146e0565b92915050565b600081359050613b44816146f7565b92915050565b600081359050613b598161470e565b92915050565b600081519050613b6e8161470e565b92915050565b600081359050613b8381614725565b92915050565b600081519050613b9881614725565b92915050565b600060208284031215613bb457613bb361460c565b5b6000613bc284828501613ae1565b91505092915050565b600060208284031215613be157613be061460c565b5b6000613bef84828501613af6565b91505092915050565b60008060408385031215613c0f57613c0e61460c565b5b6000613c1d85828601613b0b565b9250506020613c2e85828601613b0b565b9150509250929050565b60008060408385031215613c4f57613c4e61460c565b5b6000613c5d85828601613b0b565b9250506020613c6e85828601613b4a565b9150509250929050565b60008060408385031215613c8f57613c8e61460c565b5b6000613c9d85828601613ae1565b9250506020613cae85828601613ae1565b9150509250929050565b600060208284031215613cce57613ccd61460c565b5b6000613cdc84828501613b20565b91505092915050565b600060208284031215613cfb57613cfa61460c565b5b6000613d0984828501613b35565b91505092915050565b600060208284031215613d2857613d2761460c565b5b6000613d3684828501613b4a565b91505092915050565b600060208284031215613d5557613d5461460c565b5b6000613d6384828501613b5f565b91505092915050565b600060208284031215613d8257613d8161460c565b5b6000613d9084828501613b74565b91505092915050565b600060208284031215613daf57613dae61460c565b5b6000613dbd84828501613b89565b91505092915050565b613dcf8161449f565b82525050565b613dde81614402565b82525050565b613ded816143f0565b82525050565b613dfc81614414565b82525050565b613e0b816144b1565b82525050565b613e1a816144c3565b82525050565b613e29816144d5565b82525050565b613e38816144e7565b82525050565b613e47816144f9565b82525050565b613e568161450b565b82525050565b613e658161451d565b82525050565b613e748161452f565b82525050565b6000613e876012836142fb565b9150613e9282614611565b602082019050919050565b6000613eaa6025836142fb565b9150613eb58261463a565b604082019050919050565b6000613ecd600e836142fb565b9150613ed882614689565b602082019050919050565b613eec81614420565b82525050565b613efb8161443b565b82525050565b613f0a81614477565b82525050565b613f1981614481565b82525050565b613f2881614492565b82525050565b6000602082019050613f436000830184613de4565b92915050565b600061010082019050613f5f600083018b613dd5565b613f6c602083018a613dc6565b613f796040830189613dc6565b613f866060830188613de4565b613f936080830187613de4565b613fa060a0830186613de4565b613fad60c0830185613de4565b613fba60e0830184613f01565b9998505050505050505050565b600060e082019050613fdc600083018a613dd5565b613fe96020830189613de4565b613ff66040830188613de4565b6140036060830187613de4565b6140106080830186613f01565b61401d60a0830185613f01565b61402a60c0830184613f01565b98975050505050505050565b600060408201905061404b6000830185613dc6565b6140586020830184613f01565b9392505050565b60006060820190506140746000830186613de4565b6140816020830185613de4565b61408e6040830184613df3565b949350505050565b60006040820190506140ab6000830185613de4565b6140b86020830184613f01565b9392505050565b60006020820190506140d46000830184613df3565b92915050565b60006020820190506140ef6000830184613e02565b92915050565b600060208201905061410a6000830184613e11565b92915050565b60006020820190506141256000830184613e20565b92915050565b60006020820190506141406000830184613e2f565b92915050565b600060208201905061415b6000830184613e3e565b92915050565b60006020820190506141766000830184613e4d565b92915050565b60006020820190506141916000830184613e5c565b92915050565b60006080820190506141ac6000830187613e6b565b6141b96020830186613f10565b6141c66040830185613ee3565b6141d36060830184613ee3565b95945050505050565b600060208201905081810360008301526141f581613e7a565b9050919050565b6000602082019050818103600083015261421581613e9d565b9050919050565b6000602082019050818103600083015261423581613ec0565b9050919050565b60006020820190506142516000830184613ee3565b92915050565b600060208201905061426c6000830184613f01565b92915050565b60006080820190506142876000830187613f01565b6142946020830186613de4565b6142a16040830185613de4565b6142ae6060830184613ef2565b95945050505050565b60006040820190506142cc6000830185613f01565b6142d96020830184613f1f565b9392505050565b60006020820190506142f56000830184613f10565b92915050565b600082825260208201905092915050565b600061431782614477565b915061432283614477565b9250827fffffffffffffffffffffffffffffffffffffffffffffffffffffffffffffffff03821115614357576143566145ae565b5b828201905092915050565b600061436d82614477565b915061437883614477565b9250817fffffffffffffffffffffffffffffffffffffffffffffffffffffffffffffffff04831182151516156143b1576143b06145ae565b5b828202905092915050565b60006143c782614477565b91506143d283614477565b9250828210156143e5576143e46145ae565b5b828203905092915050565b60006143fb82614457565b9050919050565b600061440d82614457565b9050919050565b60008115159050919050565b60006effffffffffffffffffffffffffffff82169050919050565b60006fffffffffffffffffffffffffffffffff82169050919050565b600073ffffffffffffffffffffffffffffffffffffffff82169050919050565b6000819050919050565b600064ffffffffff82169050919050565b600060ff82169050919050565b60006144aa82614541565b9050919050565b60006144bc82614541565b9050919050565b60006144ce82614541565b9050919050565b60006144e082614541565b9050919050565b60006144f282614541565b9050919050565b600061450482614541565b9050919050565b600061451682614541565b9050919050565b600061452882614541565b9050919050565b600061453a82614492565b9050919050565b600061454c82614553565b9050919050565b600061455e82614457565b9050919050565b600061457082614477565b91507fffffffffffffffffffffffffffffffffffffffffffffffffffffffffffffffff8214156145a3576145a26145ae565b5b600182019050919050565b7f4e487b7100000000000000000000000000000000000000000000000000000000600052601160045260246000fd5b7f4e487b7100000000000000000000000000000000000000000000000000000000600052603260045260246000fd5b600080fd5b7f696e616374697665206f72206163746976650000000000000000000000000000600082015250565b7f2072657175697265732044414f20564f54452e20546f20626520696d706c656d60008201527f656e746564000000000000000000000000000000000000000000000000000000602082015250565b7f616c726561647920657869737473000000000000000000000000000000000000600082015250565b6146bb816143f0565b81146146c657600080fd5b50565b6146d281614402565b81146146dd57600080fd5b50565b6146e981614414565b81146146f457600080fd5b50565b61470081614457565b811461470b57600080fd5b50565b61471781614477565b811461472257600080fd5b50565b61472e81614492565b811461473957600080fd5b5056fea26469706673582212205cad84e8fac8ca713a8843f2383482e7a68f44b6099c8a300444230cbb081ac164736f6c634300080700336080604052348015600f57600080fd5b50603f80601d6000396000f3fe6080604052600080fdfea2646970667358221220c139efeb2d1b64d42aa0d3796f49c67072e0819abc8274d7121cd986035f3a5364736f6c63430008070033",
  "linkReferences": {},
  "deployedLinkReferences": {}
}