{
  "_format": "hh-sol-artifact-1",
  "contractName": "dOrgFactory",
  "sourceName": "contracts/Factory/dOrgFactory.sol",
  "abi": [
    {
      "inputs": [
        {
          "internalType": "address",
          "name": "votingAddress",
          "type": "address"
        },
        {
          "internalType": "address",
          "name": "repTokenAddress",
          "type": "address"
        }
      ],
      "stateMutability": "nonpayable",
      "type": "constructor"
    },
    {
      "inputs": [
        {
          "internalType": "address",
          "name": "votingAddress",
          "type": "address"
        },
        {
          "internalType": "address",
          "name": "repTokenAddress",
          "type": "address"
        },
        {
          "internalType": "bool",
          "name": "setAsNewMaster",
          "type": "bool"
        }
      ],
      "name": "createDORG",
      "outputs": [
        {
          "internalType": "address",
          "name": "",
          "type": "address"
        }
      ],
      "stateMutability": "nonpayable",
      "type": "function"
    },
    {
      "inputs": [],
      "name": "getMasterDorg",
      "outputs": [
        {
          "internalType": "address",
          "name": "",
          "type": "address"
        }
      ],
      "stateMutability": "view",
      "type": "function"
    },
    {
      "inputs": [],
      "name": "masterDORG",
      "outputs": [
        {
          "internalType": "address",
          "name": "",
          "type": "address"
        }
      ],
      "stateMutability": "view",
      "type": "function"
    }
  ],
  "bytecode": "0x608060405234801561001057600080fd5b5060405162009c0938038062009c09833981810160405281019061003491906101ad565b6100468282600161004e60201b60201c565b505050610273565b60008180156100a8575060008054906101000a900473ffffffffffffffffffffffffffffffffffffffff1673ffffffffffffffffffffffffffffffffffffffff163373ffffffffffffffffffffffffffffffffffffffff16145b1561014a5783836040516100bb9061018a565b6100c69291906101fc565b604051809103906000f0801580156100e2573d6000803e3d6000fd5b506000806101000a81548173ffffffffffffffffffffffffffffffffffffffff021916908373ffffffffffffffffffffffffffffffffffffffff16021790555060008054906101000a900473ffffffffffffffffffffffffffffffffffffffff169050610183565b83836040516101589061018a565b6101639291906101fc565b604051809103906000f08015801561017f573d6000803e3d6000fd5b5090505b9392505050565b614ae3806200512683390190565b6000815190506101a78161025c565b92915050565b600080604083850312156101c4576101c3610257565b5b60006101d285828601610198565b92505060206101e385828601610198565b9150509250929050565b6101f681610225565b82525050565b600060408201905061021160008301856101ed565b61021e60208301846101ed565b9392505050565b600061023082610237565b9050919050565b600073ffffffffffffffffffffffffffffffffffffffff82169050919050565b600080fd5b61026581610225565b811461027057600080fd5b50565b614ea380620002836000396000f3fe608060405234801561001057600080fd5b50600436106100415760003560e01c806302e3fff9146100465780630785ca30146100645780636b57886414610094575b600080fd5b61004e6100b2565b60405161005b91906102d5565b60405180910390f35b61007e60048036038101906100799190610273565b6100db565b60405161008b91906102d5565b60405180910390f35b61009c610217565b6040516100a991906102d5565b60405180910390f35b60008060009054906101000a900473ffffffffffffffffffffffffffffffffffffffff16905090565b6000818015610135575060008054906101000a900473ffffffffffffffffffffffffffffffffffffffff1673ffffffffffffffffffffffffffffffffffffffff163373ffffffffffffffffffffffffffffffffffffffff16145b156101d75783836040516101489061023b565b6101539291906102f0565b604051809103906000f08015801561016f573d6000803e3d6000fd5b506000806101000a81548173ffffffffffffffffffffffffffffffffffffffff021916908373ffffffffffffffffffffffffffffffffffffffff16021790555060008054906101000a900473ffffffffffffffffffffffffffffffffffffffff169050610210565b83836040516101e59061023b565b6101f09291906102f0565b604051809103906000f08015801561020c573d6000803e3d6000fd5b5090505b9392505050565b60008054906101000a900473ffffffffffffffffffffffffffffffffffffffff1681565b614ae3806200038b83390190565b6000813590506102588161035c565b92915050565b60008135905061026d81610373565b92915050565b60008060006060848603121561028c5761028b610357565b5b600061029a86828701610249565b93505060206102ab86828701610249565b92505060406102bc8682870161025e565b9150509250925092565b6102cf81610319565b82525050565b60006020820190506102ea60008301846102c6565b92915050565b600060408201905061030560008301856102c6565b61031260208301846102c6565b9392505050565b600061032482610337565b9050919050565b60008115159050919050565b600073ffffffffffffffffffffffffffffffffffffffff82169050919050565b600080fd5b61036581610319565b811461037057600080fd5b50565b61037c8161032b565b811461038757600080fd5b5056fe608060405262093a806010556101f4601260006101000a8154816effffffffffffffffffffffffffffff02191690836effffffffffffffffffffffffffffff160217905550620d2f006012600f6101000a81548164ffffffffff021916908364ffffffffff1602179055503480156200007757600080fd5b5060405162004ae338038062004ae383398181016040528101906200009d919062000263565b33600660006101000a81548173ffffffffffffffffffffffffffffffffffffffff021916908373ffffffffffffffffffffffffffffffffffffffff16021790555081600060016101000a81548173ffffffffffffffffffffffffffffffffffffffff021916908373ffffffffffffffffffffffffffffffffffffffff16021790555080600160006101000a81548173ffffffffffffffffffffffffffffffffffffffff021916908373ffffffffffffffffffffffffffffffffffffffff1602179055506040516200016e906200023f565b604051809103906000f0801580156200018b573d6000803e3d6000fd5b50600360006101000a81548173ffffffffffffffffffffffffffffffffffffffff021916908373ffffffffffffffffffffffffffffffffffffffff160217905550600960009080600181540180825580915050600190039060005260206000200160009091909190916101000a81548173ffffffffffffffffffffffffffffffffffffffff021916908373ffffffffffffffffffffffffffffffffffffffff160217905550426008819055505050620002fd565b605c8062004a8783390190565b6000815190506200025d81620002e3565b92915050565b600080604083850312156200027d576200027c620002de565b5b60006200028d858286016200024c565b9250506020620002a0858286016200024c565b9150509250929050565b6000620002b782620002be565b9050919050565b600073ffffffffffffffffffffffffffffffffffffffff82169050919050565b600080fd5b620002ee81620002aa565b8114620002fa57600080fd5b50565b61477a806200030d6000396000f3fe608060405234801561001057600080fd5b50600436106102265760003560e01c80638005bc9511610130578063a5125421116100b8578063db5e4c7f1161007c578063db5e4c7f14610595578063de660841146105b3578063e093ba82146105e3578063f74b059e14610614578063fce1ccca1461063057610226565b8063a512542114610507578063bca0adcb14610523578063bdaf56a31461053f578063c48ea1ff1461055b578063d98d79551461057957610226565b806398ba130b116100ff57806398ba130b146104615780639ca09d1c146104915780639cc52b5d146104ad578063a09312fd146104cb578063a3db1d20146104e957610226565b80638005bc95146103ed57806382d6ddff1461040957806382f072e8146104255780638a14ae8a1461044357610226565b806329034a5c116101b357806350fa62e31161018257806350fa62e3146103595780635ab2ec0d146103895780635b63f661146103a757806363bd1d4a146103c55780636412173e146103cf57610226565b806329034a5c146102f75780632fee8e3e1461031557806336061081146103335780634a7dc8e01461033d57610226565b806316ac3265116101fa57806316ac32651461028b5780631b6405fe146102955780631c0701df146102b15780631cc1cf46146102cf57806324bc8d05146102ed57610226565b8062d117d41461022b5780630e136b191461024757806312514bba1461026557806313f6d05c14610281575b600080fd5b61024560048036038101906102409190613ced565b61064e565b005b61024f610c17565b60405161025c91906140c7565b60405180910390f35b61027f600480360381019061027a9190613d1a565b610c28565b005b610289610d31565b005b61029361121c565b005b6102af60048036038101906102aa9190613c00565b6113f9565b005b6102b9611634565b6040516102c6919061425f565b60405180910390f35b6102d761163e565b6040516102e4919061425f565b60405180910390f35b6102f5611644565b005b6102ff611c41565b60405161030c919061414e565b60405180910390f35b61031d611c67565b60405161032a91906140e2565b60405180910390f35b61033b611c8d565b005b61035760048036038101906103529190613ba6565b611e1e565b005b610373600480360381019061036e9190613d1a565b612012565b6040516103809190613f36565b60405180910390f35b610391612051565b60405161039e9190614133565b60405180910390f35b6103af612077565b6040516103bc919061414e565b60405180910390f35b6103cd61209d565b005b6103d761218b565b6040516103e49190614118565b60405180910390f35b61040760048036038101906104029190613ba6565b6121b1565b005b610423600480360381019061041e9190613d1a565b6126f5565b005b61042d6127dd565b60405161043a9190614244565b60405180910390f35b61044b6127fe565b604051610458919061425f565b60405180910390f35b61047b60048036038101906104769190613d1a565b612804565b6040516104889190613f36565b60405180910390f35b6104ab60048036038101906104a69190613d1a565b612843565b005b6104b5612a5b565b6040516104c291906140fd565b60405180910390f35b6104d3612a81565b6040516104e091906142e8565b60405180910390f35b6104f1612a98565b6040516104fe919061425f565b60405180910390f35b610521600480360381019061051c9190613ba6565b612a9e565b005b61053d60048036038101906105389190613c40565b612b83565b005b61055960048036038101906105549190613ba6565b612c6c565b005b6105636132c0565b6040516105709190614184565b60405180910390f35b610593600480360381019061058e9190613c80565b6132e6565b005b61059d6133ad565b6040516105aa919061425f565b60405180910390f35b6105cd60048036038101906105c89190613d1a565b6133b3565b6040516105da9190613f36565b60405180910390f35b6105fd60048036038101906105f89190613d74565b6133f2565b60405161060b9291906142bf565b60405180910390f35b61062e60048036038101906106299190613ba6565b613423565b005b610638613a5e565b6040516106459190614169565b60405180910390f35b6002816001600760008460ff1660ff16815260200190815260200160002060010160009054906101000a900460ff1660ff1611156106c1576040517f08c379a00000000000000000000000000000000000000000000000000000000081526004016106b8906141e4565b60405180910390fd5b6000600760008460ff1660ff16815260200190815260200160002060010160009054906101000a900460ff1660ff1614156108d057600060019054906101000a900473ffffffffffffffffffffffffffffffffffffffff1673ffffffffffffffffffffffffffffffffffffffff16637b6e5f9c60046012600f9054906101000a900464ffffffffff16601260009054906101000a90046effffffffffffffffffffffffffffff16600160009054906101000a900473ffffffffffffffffffffffffffffffffffffffff1673ffffffffffffffffffffffffffffffffffffffff166318160ddd6040518163ffffffff1660e01b815260040160206040518083038186803b1580156107d057600080fd5b505afa1580156107e4573d6000803e3d6000fd5b505050506040513d601f19601f820116820180604052508101906108089190613d47565b6040518563ffffffff1660e01b8152600401610827949392919061419f565b602060405180830381600087803b15801561084157600080fd5b505af1158015610855573d6000803e3d6000fd5b505050506040513d601f19601f820116820180604052508101906108799190613d47565b600760008460ff1660ff168152602001908152602001600020600001819055506001600760008460ff1660ff16815260200190815260200160002060010160006101000a81548160ff021916908360ff1602179055505b600060019054906101000a900473ffffffffffffffffffffffffffffffffffffffff1673ffffffffffffffffffffffffffffffffffffffff1663e31f7b28600760008060ff168152602001908152602001600020600001543384600160009054906101000a900473ffffffffffffffffffffffffffffffffffffffff1673ffffffffffffffffffffffffffffffffffffffff166370a08231336040518263ffffffff1660e01b81526004016109859190613f36565b60206040518083038186803b15801561099d57600080fd5b505afa1580156109b1573d6000803e3d6000fd5b505050506040513d601f19601f820116820180604052508101906109d59190613d47565b6040518563ffffffff1660e01b81526004016109f4949392919061427a565b602060405180830381600087803b158015610a0e57600080fd5b505af1158015610a22573d6000803e3d6000fd5b505050506040513d601f19601f82011682018060405250810190610a469190613da1565b600760008060ff16815260200190815260200160002060010160006101000a81548160ff021916908360ff1602179055506002600760008060ff16815260200190815260200160002060010160009054906101000a900460ff1660ff161415610bb75760008060019054906101000a900473ffffffffffffffffffffffffffffffffffffffff1673ffffffffffffffffffffffffffffffffffffffff1663b17979a6600760008060ff168152602001908152602001600020600001546040518263ffffffff1660e01b8152600401610b1e919061425f565b60206040518083038186803b158015610b3657600080fd5b505afa158015610b4a573d6000803e3d6000fd5b505050506040513d601f19601f82011682018060405250810190610b6e9190613bd3565b90508073ffffffffffffffffffffffffffffffffffffffff16601181905550506000600760008060ff16815260200190815260200160002060010160009054906101000a905050505b6003600760008060ff16815260200190815260200160002060010160009054906101000a900460ff1660ff161415610c12576000600760008060ff16815260200190815260200160002060010160009054906101000a905050505b505050565b60008054906101000a900460ff1681565b600f60003373ffffffffffffffffffffffffffffffffffffffff1673ffffffffffffffffffffffffffffffffffffffff16815260200190815260200160002060009054906101000a900460ff16610c7e57600080fd5b600a60009054906101000a900473ffffffffffffffffffffffffffffffffffffffff1673ffffffffffffffffffffffffffffffffffffffff1663a9059cbb33836040518363ffffffff1660e01b8152600401610cdb92919061409e565b602060405180830381600087803b158015610cf557600080fd5b505af1158015610d09573d6000803e3d6000fd5b505050506040513d601f19601f82011682018060405250810190610d2d9190613cc0565b5050565b600360006001600760008460ff1660ff16815260200190815260200160002060010160009054906101000a900460ff1660ff161115610da5576040517f08c379a0000000000000000000000000000000000000000000000000000000008152600401610d9c906141e4565b60405180910390fd5b6000600760008460ff1660ff16815260200190815260200160002060010160009054906101000a900460ff1660ff161415610fb457600060019054906101000a900473ffffffffffffffffffffffffffffffffffffffff1673ffffffffffffffffffffffffffffffffffffffff16637b6e5f9c60046012600f9054906101000a900464ffffffffff16601260009054906101000a90046effffffffffffffffffffffffffffff16600160009054906101000a900473ffffffffffffffffffffffffffffffffffffffff1673ffffffffffffffffffffffffffffffffffffffff166318160ddd6040518163ffffffff1660e01b815260040160206040518083038186803b158015610eb457600080fd5b505afa158015610ec8573d6000803e3d6000fd5b505050506040513d601f19601f82011682018060405250810190610eec9190613d47565b6040518563ffffffff1660e01b8152600401610f0b949392919061419f565b602060405180830381600087803b158015610f2557600080fd5b505af1158015610f39573d6000803e3d6000fd5b505050506040513d601f19601f82011682018060405250810190610f5d9190613d47565b600760008460ff1660ff168152602001908152602001600020600001819055506001600760008460ff1660ff16815260200190815260200160002060010160006101000a81548160ff021916908360ff1602179055505b600060019054906101000a900473ffffffffffffffffffffffffffffffffffffffff1673ffffffffffffffffffffffffffffffffffffffff1663e31f7b28600760008060ff168152602001908152602001600020600001543384600160009054906101000a900473ffffffffffffffffffffffffffffffffffffffff1673ffffffffffffffffffffffffffffffffffffffff166370a08231336040518263ffffffff1660e01b81526004016110699190613f36565b60206040518083038186803b15801561108157600080fd5b505afa158015611095573d6000803e3d6000fd5b505050506040513d601f19601f820116820180604052508101906110b99190613d47565b6040518563ffffffff1660e01b81526004016110d8949392919061427a565b602060405180830381600087803b1580156110f257600080fd5b505af1158015611106573d6000803e3d6000fd5b505050506040513d601f19601f8201168201806040525081019061112a9190613da1565b600760008060ff16815260200190815260200160002060010160006101000a81548160ff021916908360ff1602179055506002600760008060ff16815260200190815260200160002060010160009054906101000a900460ff1660ff1614156111bd57426008819055506000600760008060ff16815260200190815260200160002060010160009054906101000a905050505b6003600760008060ff16815260200190815260200160002060010160009054906101000a900460ff1660ff161415611218576000600760008060ff16815260200190815260200160002060010160009054906101000a905050505b5050565b6000600260009054906101000a900473ffffffffffffffffffffffffffffffffffffffff1673ffffffffffffffffffffffffffffffffffffffff166370a08231336040518263ffffffff1660e01b81526004016112799190613f36565b60206040518083038186803b15801561129157600080fd5b505afa1580156112a5573d6000803e3d6000fd5b505050506040513d601f19601f820116820180604052508101906112c99190613d47565b9050600081116112d857600080fd5b600160009054906101000a900473ffffffffffffffffffffffffffffffffffffffff1673ffffffffffffffffffffffffffffffffffffffff166340c10f1933836040518363ffffffff1660e01b815260040161133592919061409e565b600060405180830381600087803b15801561134f57600080fd5b505af1158015611363573d6000803e3d6000fd5b50505050600260009054906101000a900473ffffffffffffffffffffffffffffffffffffffff1673ffffffffffffffffffffffffffffffffffffffff16639dc29fac33836040518363ffffffff1660e01b81526004016113c492919061409e565b600060405180830381600087803b1580156113de57600080fd5b505af11580156113f2573d6000803e3d6000fd5b5050505050565b60008054906101000a900460ff161561141157600080fd5b6000600460009054906101000a900473ffffffffffffffffffffffffffffffffffffffff1673ffffffffffffffffffffffffffffffffffffffff1663d9acec53338585600160009054906101000a900473ffffffffffffffffffffffffffffffffffffffff16600360009054906101000a900473ffffffffffffffffffffffffffffffffffffffff16600060019054906101000a900473ffffffffffffffffffffffffffffffffffffffff16600a60009054906101000a900473ffffffffffffffffffffffffffffffffffffffff166010546040518963ffffffff1660e01b8152600401611506989796959493929190613f51565b602060405180830381600087803b15801561152057600080fd5b505af1158015611534573d6000803e3d6000fd5b505050506040513d601f19601f820116820180604052508101906115589190613bd3565b9050600c819080600181540180825580915050600190039060005260206000200160009091909190916101000a81548173ffffffffffffffffffffffffffffffffffffffff021916908373ffffffffffffffffffffffffffffffffffffffff1602179055506001600f60008373ffffffffffffffffffffffffffffffffffffffff1673ffffffffffffffffffffffffffffffffffffffff16815260200190815260200160002060006101000a81548160ff0219169083151502179055506001600e60008282546116289190614314565b92505081905550505050565b6000600854905090565b60115481565b600560006001600760008460ff1660ff16815260200190815260200160002060010160009054906101000a900460ff1660ff1611156116b8576040517f08c379a00000000000000000000000000000000000000000000000000000000081526004016116af906141e4565b60405180910390fd5b6000600760008460ff1660ff16815260200190815260200160002060010160009054906101000a900460ff1660ff1614156118c757600060019054906101000a900473ffffffffffffffffffffffffffffffffffffffff1673ffffffffffffffffffffffffffffffffffffffff16637b6e5f9c60046012600f9054906101000a900464ffffffffff16601260009054906101000a90046effffffffffffffffffffffffffffff16600160009054906101000a900473ffffffffffffffffffffffffffffffffffffffff1673ffffffffffffffffffffffffffffffffffffffff166318160ddd6040518163ffffffff1660e01b815260040160206040518083038186803b1580156117c757600080fd5b505afa1580156117db573d6000803e3d6000fd5b505050506040513d601f19601f820116820180604052508101906117ff9190613d47565b6040518563ffffffff1660e01b815260040161181e949392919061419f565b602060405180830381600087803b15801561183857600080fd5b505af115801561184c573d6000803e3d6000fd5b505050506040513d601f19601f820116820180604052508101906118709190613d47565b600760008460ff1660ff168152602001908152602001600020600001819055506001600760008460ff1660ff16815260200190815260200160002060010160006101000a81548160ff021916908360ff1602179055505b600060019054906101000a900473ffffffffffffffffffffffffffffffffffffffff1673ffffffffffffffffffffffffffffffffffffffff1663e31f7b28600760008060ff168152602001908152602001600020600001543384600160009054906101000a900473ffffffffffffffffffffffffffffffffffffffff1673ffffffffffffffffffffffffffffffffffffffff166370a08231336040518263ffffffff1660e01b815260040161197c9190613f36565b60206040518083038186803b15801561199457600080fd5b505afa1580156119a8573d6000803e3d6000fd5b505050506040513d601f19601f820116820180604052508101906119cc9190613d47565b6040518563ffffffff1660e01b81526004016119eb949392919061427a565b602060405180830381600087803b158015611a0557600080fd5b505af1158015611a19573d6000803e3d6000fd5b505050506040513d601f19601f82011682018060405250810190611a3d9190613da1565b600760008060ff16815260200190815260200160002060010160006101000a81548160ff021916908360ff1602179055506002600760008060ff16815260200190815260200160002060010160009054906101000a900460ff1660ff161415611be257600660009054906101000a900473ffffffffffffffffffffffffffffffffffffffff1673ffffffffffffffffffffffffffffffffffffffff16630785ca30600060019054906101000a900473ffffffffffffffffffffffffffffffffffffffff16600160009054906101000a900473ffffffffffffffffffffffffffffffffffffffff1660016040518463ffffffff1660e01b8152600401611b4493929190614067565b602060405180830381600087803b158015611b5e57600080fd5b505af1158015611b72573d6000803e3d6000fd5b505050506040513d601f19601f82011682018060405250810190611b969190613bd3565b5060016000806101000a81548160ff021916908315150217905550611bb9613a84565b6000600760008060ff16815260200190815260200160002060010160009054906101000a905050505b6003600760008060ff16815260200190815260200160002060010160009054906101000a900460ff1660ff161415611c3d576000600760008060ff16815260200190815260200160002060010160009054906101000a905050505b5050565b600160009054906101000a900473ffffffffffffffffffffffffffffffffffffffff1681565b600360009054906101000a900473ffffffffffffffffffffffffffffffffffffffff1681565b600f60003373ffffffffffffffffffffffffffffffffffffffff1673ffffffffffffffffffffffffffffffffffffffff16815260200190815260200160002060009054906101000a900460ff16611ce357600080fd5b600160009054906101000a900473ffffffffffffffffffffffffffffffffffffffff1673ffffffffffffffffffffffffffffffffffffffff16639dc29fac33600160009054906101000a900473ffffffffffffffffffffffffffffffffffffffff1673ffffffffffffffffffffffffffffffffffffffff166370a08231336040518263ffffffff1660e01b8152600401611d7d9190613f36565b60206040518083038186803b158015611d9557600080fd5b505afa158015611da9573d6000803e3d6000fd5b505050506040513d601f19601f82011682018060405250810190611dcd9190613d47565b6040518363ffffffff1660e01b8152600401611dea92919061409e565b600060405180830381600087803b158015611e0457600080fd5b505af1158015611e18573d6000803e3d6000fd5b50505050565b6000600160009054906101000a900473ffffffffffffffffffffffffffffffffffffffff1673ffffffffffffffffffffffffffffffffffffffff166370a08231336040518263ffffffff1660e01b8152600401611e7b9190613f36565b60206040518083038186803b158015611e9357600080fd5b505afa158015611ea7573d6000803e3d6000fd5b505050506040513d601f19601f82011682018060405250810190611ecb9190613d47565b11611ed557600080fd5b6000600b60008373ffffffffffffffffffffffffffffffffffffffff1673ffffffffffffffffffffffffffffffffffffffff1681526020019081526020016000205414611f57576040517f08c379a0000000000000000000000000000000000000000000000000000000008152600401611f4e90614224565b60405180910390fd5b6009819080600181540180825580915050600190039060005260206000200160009091909190916101000a81548173ffffffffffffffffffffffffffffffffffffffff021916908373ffffffffffffffffffffffffffffffffffffffff1602179055506001600980549050611fcc91906143c4565b600b60008373ffffffffffffffffffffffffffffffffffffffff1673ffffffffffffffffffffffffffffffffffffffff1681526020019081526020016000208190555050565b600c818154811061202257600080fd5b906000526020600020016000915054906101000a900473ffffffffffffffffffffffffffffffffffffffff1681565b600560009054906101000a900473ffffffffffffffffffffffffffffffffffffffff1681565b600260009054906101000a900473ffffffffffffffffffffffffffffffffffffffff1681565b601154600854426120ae91906143c4565b116120b857600080fd5b60005b600d8054905081101561217957600d81815481106120dc576120db6145e5565b5b9060005260206000200160009054906101000a900473ffffffffffffffffffffffffffffffffffffffff1673ffffffffffffffffffffffffffffffffffffffff16631b9265b86040518163ffffffff1660e01b8152600401600060405180830381600087803b15801561214e57600080fd5b505af1158015612162573d6000803e3d6000fd5b5050505080806121719061456d565b9150506120bb565b5042600881905550612189613a84565b565b600a60009054906101000a900473ffffffffffffffffffffffffffffffffffffffff1681565b6004816001600760008460ff1660ff16815260200190815260200160002060010160009054906101000a900460ff1660ff161115612224576040517f08c379a000000000000000000000000000000000000000000000000000000000815260040161221b906141e4565b60405180910390fd5b6000600760008460ff1660ff16815260200190815260200160002060010160009054906101000a900460ff1660ff16141561243357600060019054906101000a900473ffffffffffffffffffffffffffffffffffffffff1673ffffffffffffffffffffffffffffffffffffffff16637b6e5f9c60046012600f9054906101000a900464ffffffffff16601260009054906101000a90046effffffffffffffffffffffffffffff16600160009054906101000a900473ffffffffffffffffffffffffffffffffffffffff1673ffffffffffffffffffffffffffffffffffffffff166318160ddd6040518163ffffffff1660e01b815260040160206040518083038186803b15801561233357600080fd5b505afa158015612347573d6000803e3d6000fd5b505050506040513d601f19601f8201168201806040525081019061236b9190613d47565b6040518563ffffffff1660e01b815260040161238a949392919061419f565b602060405180830381600087803b1580156123a457600080fd5b505af11580156123b8573d6000803e3d6000fd5b505050506040513d601f19601f820116820180604052508101906123dc9190613d47565b600760008460ff1660ff168152602001908152602001600020600001819055506001600760008460ff1660ff16815260200190815260200160002060010160006101000a81548160ff021916908360ff1602179055505b600060019054906101000a900473ffffffffffffffffffffffffffffffffffffffff1673ffffffffffffffffffffffffffffffffffffffff1663e31f7b28600760008060ff168152602001908152602001600020600001543384600160009054906101000a900473ffffffffffffffffffffffffffffffffffffffff1673ffffffffffffffffffffffffffffffffffffffff166370a08231336040518263ffffffff1660e01b81526004016124e89190613f36565b60206040518083038186803b15801561250057600080fd5b505afa158015612514573d6000803e3d6000fd5b505050506040513d601f19601f820116820180604052508101906125389190613d47565b6040518563ffffffff1660e01b8152600401612557949392919061427a565b602060405180830381600087803b15801561257157600080fd5b505af1158015612585573d6000803e3d6000fd5b505050506040513d601f19601f820116820180604052508101906125a99190613da1565b600760008060ff16815260200190815260200160002060010160006101000a81548160ff021916908360ff1602179055506002600760008060ff16815260200190815260200160002060010160009054906101000a900460ff1660ff161415612695578273ffffffffffffffffffffffffffffffffffffffff16633ccfd60b6040518163ffffffff1660e01b8152600401600060405180830381600087803b15801561265457600080fd5b505af1158015612668573d6000803e3d6000fd5b505050506000600760008060ff16815260200190815260200160002060010160009054906101000a905050505b6003600760008060ff16815260200190815260200160002060010160009054906101000a900460ff1660ff1614156126f0576000600760008060ff16815260200190815260200160002060010160009054906101000a905050505b505050565b600f60003373ffffffffffffffffffffffffffffffffffffffff1673ffffffffffffffffffffffffffffffffffffffff16815260200190815260200160002060009054906101000a900460ff1661274b57600080fd5b600160009054906101000a900473ffffffffffffffffffffffffffffffffffffffff1673ffffffffffffffffffffffffffffffffffffffff166340c10f1933836040518363ffffffff1660e01b81526004016127a892919061409e565b600060405180830381600087803b1580156127c257600080fd5b505af11580156127d6573d6000803e3d6000fd5b5050505050565b601260009054906101000a90046effffffffffffffffffffffffffffff1681565b60085481565b600d818154811061281457600080fd5b906000526020600020016000915054906101000a900473ffffffffffffffffffffffffffffffffffffffff1681565b60008054906101000a900460ff161561285b57600080fd5b6000600560009054906101000a900473ffffffffffffffffffffffffffffffffffffffff1673ffffffffffffffffffffffffffffffffffffffff1663842d201a33600160009054906101000a900473ffffffffffffffffffffffffffffffffffffffff16600a60009054906101000a900473ffffffffffffffffffffffffffffffffffffffff16600060019054906101000a900473ffffffffffffffffffffffffffffffffffffffff16601054601154896040518863ffffffff1660e01b815260040161292e9796959493929190613fcf565b602060405180830381600087803b15801561294857600080fd5b505af115801561295c573d6000803e3d6000fd5b505050506040513d601f19601f820116820180604052508101906129809190613bd3565b9050600d819080600181540180825580915050600190039060005260206000200160009091909190916101000a81548173ffffffffffffffffffffffffffffffffffffffff021916908373ffffffffffffffffffffffffffffffffffffffff1602179055506001600f60008373ffffffffffffffffffffffffffffffffffffffff1673ffffffffffffffffffffffffffffffffffffffff16815260200190815260200160002060006101000a81548160ff0219169083151502179055506001600e6000828254612a509190614314565b925050819055505050565b600460009054906101000a900473ffffffffffffffffffffffffffffffffffffffff1681565b6012600f9054906101000a900464ffffffffff1681565b60105481565b60006009600b60008473ffffffffffffffffffffffffffffffffffffffff1673ffffffffffffffffffffffffffffffffffffffff1681526020019081526020016000205481548110612af357612af26145e5565b5b9060005260206000200160006101000a81548173ffffffffffffffffffffffffffffffffffffffff021916908373ffffffffffffffffffffffffffffffffffffffff1602179055506000600b60008373ffffffffffffffffffffffffffffffffffffffff1673ffffffffffffffffffffffffffffffffffffffff1681526020019081526020016000208190555050565b600f60003373ffffffffffffffffffffffffffffffffffffffff1673ffffffffffffffffffffffffffffffffffffffff16815260200190815260200160002060009054906101000a900460ff16612bd957600080fd5b600160009054906101000a900473ffffffffffffffffffffffffffffffffffffffff1673ffffffffffffffffffffffffffffffffffffffff166340c10f1983836040518363ffffffff1660e01b8152600401612c3692919061403e565b600060405180830381600087803b158015612c5057600080fd5b505af1158015612c64573d6000803e3d6000fd5b505050505050565b6006816001600760008460ff1660ff16815260200190815260200160002060010160009054906101000a900460ff1660ff161115612cdf576040517f08c379a0000000000000000000000000000000000000000000000000000000008152600401612cd6906141e4565b60405180910390fd5b6000600760008460ff1660ff16815260200190815260200160002060010160009054906101000a900460ff1660ff161415612eee57600060019054906101000a900473ffffffffffffffffffffffffffffffffffffffff1673ffffffffffffffffffffffffffffffffffffffff16637b6e5f9c60046012600f9054906101000a900464ffffffffff16601260009054906101000a90046effffffffffffffffffffffffffffff16600160009054906101000a900473ffffffffffffffffffffffffffffffffffffffff1673ffffffffffffffffffffffffffffffffffffffff166318160ddd6040518163ffffffff1660e01b815260040160206040518083038186803b158015612dee57600080fd5b505afa158015612e02573d6000803e3d6000fd5b505050506040513d601f19601f82011682018060405250810190612e269190613d47565b6040518563ffffffff1660e01b8152600401612e45949392919061419f565b602060405180830381600087803b158015612e5f57600080fd5b505af1158015612e73573d6000803e3d6000fd5b505050506040513d601f19601f82011682018060405250810190612e979190613d47565b600760008460ff1660ff168152602001908152602001600020600001819055506001600760008460ff1660ff16815260200190815260200160002060010160006101000a81548160ff021916908360ff1602179055505b600060019054906101000a900473ffffffffffffffffffffffffffffffffffffffff1673ffffffffffffffffffffffffffffffffffffffff1663e31f7b28600760008060ff168152602001908152602001600020600001543384600160009054906101000a900473ffffffffffffffffffffffffffffffffffffffff1673ffffffffffffffffffffffffffffffffffffffff166370a08231336040518263ffffffff1660e01b8152600401612fa39190613f36565b60206040518083038186803b158015612fbb57600080fd5b505afa158015612fcf573d6000803e3d6000fd5b505050506040513d601f19601f82011682018060405250810190612ff39190613d47565b6040518563ffffffff1660e01b8152600401613012949392919061427a565b602060405180830381600087803b15801561302c57600080fd5b505af1158015613040573d6000803e3d6000fd5b505050506040513d601f19601f820116820180604052508101906130649190613da1565b600760008060ff16815260200190815260200160002060010160006101000a81548160ff021916908360ff1602179055506002600760008060ff16815260200190815260200160002060010160009054906101000a900460ff1660ff16141561326057600160009054906101000a900473ffffffffffffffffffffffffffffffffffffffff16600260006101000a81548173ffffffffffffffffffffffffffffffffffffffff021916908373ffffffffffffffffffffffffffffffffffffffff160217905550600060019054906101000a900473ffffffffffffffffffffffffffffffffffffffff1673ffffffffffffffffffffffffffffffffffffffff1663b17979a660076000600660ff168152602001908152602001600020600001546040518263ffffffff1660e01b815260040161319f919061425f565b60206040518083038186803b1580156131b757600080fd5b505afa1580156131cb573d6000803e3d6000fd5b505050506040513d601f19601f820116820180604052508101906131ef9190613bd3565b600160006101000a81548173ffffffffffffffffffffffffffffffffffffffff021916908373ffffffffffffffffffffffffffffffffffffffff160217905550613237613a84565b6000600760008060ff16815260200190815260200160002060010160009054906101000a905050505b6003600760008060ff16815260200190815260200160002060010160009054906101000a900460ff1660ff1614156132bb576000600760008060ff16815260200190815260200160002060010160009054906101000a905050505b505050565b600660009054906101000a900473ffffffffffffffffffffffffffffffffffffffff1681565b6000613327576040517f08c379a000000000000000000000000000000000000000000000000000000000815260040161331e90614204565b60405180910390fd5b81600460006101000a81548173ffffffffffffffffffffffffffffffffffffffff021916908373ffffffffffffffffffffffffffffffffffffffff16021790555080600560006101000a81548173ffffffffffffffffffffffffffffffffffffffff021916908373ffffffffffffffffffffffffffffffffffffffff1602179055505050565b600e5481565b600981815481106133c357600080fd5b906000526020600020016000915054906101000a900473ffffffffffffffffffffffffffffffffffffffff1681565b60076020528060005260406000206000915090508060000154908060010160009054906101000a900460ff16905082565b806000600b60008373ffffffffffffffffffffffffffffffffffffffff1673ffffffffffffffffffffffffffffffffffffffff168152602001908152602001600020541161347057600080fd5b6000826001600760008460ff1660ff16815260200190815260200160002060010160009054906101000a900460ff1660ff1611156134e3576040517f08c379a00000000000000000000000000000000000000000000000000000000081526004016134da906141e4565b60405180910390fd5b6000600760008460ff1660ff16815260200190815260200160002060010160009054906101000a900460ff1660ff1614156136f257600060019054906101000a900473ffffffffffffffffffffffffffffffffffffffff1673ffffffffffffffffffffffffffffffffffffffff16637b6e5f9c60046012600f9054906101000a900464ffffffffff16601260009054906101000a90046effffffffffffffffffffffffffffff16600160009054906101000a900473ffffffffffffffffffffffffffffffffffffffff1673ffffffffffffffffffffffffffffffffffffffff166318160ddd6040518163ffffffff1660e01b815260040160206040518083038186803b1580156135f257600080fd5b505afa158015613606573d6000803e3d6000fd5b505050506040513d601f19601f8201168201806040525081019061362a9190613d47565b6040518563ffffffff1660e01b8152600401613649949392919061419f565b602060405180830381600087803b15801561366357600080fd5b505af1158015613677573d6000803e3d6000fd5b505050506040513d601f19601f8201168201806040525081019061369b9190613d47565b600760008460ff1660ff168152602001908152602001600020600001819055506001600760008460ff1660ff16815260200190815260200160002060010160006101000a81548160ff021916908360ff1602179055505b600060019054906101000a900473ffffffffffffffffffffffffffffffffffffffff1673ffffffffffffffffffffffffffffffffffffffff1663e31f7b28600760008060ff168152602001908152602001600020600001543384600160009054906101000a900473ffffffffffffffffffffffffffffffffffffffff1673ffffffffffffffffffffffffffffffffffffffff166370a08231336040518263ffffffff1660e01b81526004016137a79190613f36565b60206040518083038186803b1580156137bf57600080fd5b505afa1580156137d3573d6000803e3d6000fd5b505050506040513d601f19601f820116820180604052508101906137f79190613d47565b6040518563ffffffff1660e01b8152600401613816949392919061427a565b602060405180830381600087803b15801561383057600080fd5b505af1158015613844573d6000803e3d6000fd5b505050506040513d601f19601f820116820180604052508101906138689190613da1565b600760008060ff16815260200190815260200160002060010160006101000a81548160ff021916908360ff1602179055506002600760008060ff16815260200190815260200160002060010160009054906101000a900460ff1660ff1614156139fd5760008060019054906101000a900473ffffffffffffffffffffffffffffffffffffffff1673ffffffffffffffffffffffffffffffffffffffff1663b17979a6600760008060ff168152602001908152602001600020600001546040518263ffffffff1660e01b8152600401613940919061425f565b60206040518083038186803b15801561395857600080fd5b505afa15801561396c573d6000803e3d6000fd5b505050506040513d601f19601f820116820180604052508101906139909190613bd3565b905080600a60006101000a81548173ffffffffffffffffffffffffffffffffffffffff021916908373ffffffffffffffffffffffffffffffffffffffff160217905550506000600760008060ff16815260200190815260200160002060010160009054906101000a905050505b6003600760008060ff16815260200190815260200160002060010160009054906101000a900460ff1660ff161415613a58576000600760008060ff16815260200190815260200160002060010160009054906101000a905050505b50505050565b600060019054906101000a900473ffffffffffffffffffffffffffffffffffffffff1681565b600015613ae7576000620f424090503373ffffffffffffffffffffffffffffffffffffffff166108fc3a83613ab9919061436a565b9081150290604051600060405180830381858888f19350505050158015613ae4573d6000803e3d6000fd5b50505b565b600081359050613af8816146ba565b92915050565b600081519050613b0d816146ba565b92915050565b600081359050613b22816146d1565b92915050565b600081519050613b37816146e8565b92915050565b600081359050613b4c816146ff565b92915050565b600081359050613b6181614716565b92915050565b600081519050613b7681614716565b92915050565b600081359050613b8b8161472d565b92915050565b600081519050613ba08161472d565b92915050565b600060208284031215613bbc57613bbb614614565b5b6000613bca84828501613ae9565b91505092915050565b600060208284031215613be957613be8614614565b5b6000613bf784828501613afe565b91505092915050565b60008060408385031215613c1757613c16614614565b5b6000613c2585828601613b13565b9250506020613c3685828601613b13565b9150509250929050565b60008060408385031215613c5757613c56614614565b5b6000613c6585828601613b13565b9250506020613c7685828601613b52565b9150509250929050565b60008060408385031215613c9757613c96614614565b5b6000613ca585828601613ae9565b9250506020613cb685828601613ae9565b9150509250929050565b600060208284031215613cd657613cd5614614565b5b6000613ce484828501613b28565b91505092915050565b600060208284031215613d0357613d02614614565b5b6000613d1184828501613b3d565b91505092915050565b600060208284031215613d3057613d2f614614565b5b6000613d3e84828501613b52565b91505092915050565b600060208284031215613d5d57613d5c614614565b5b6000613d6b84828501613b67565b91505092915050565b600060208284031215613d8a57613d89614614565b5b6000613d9884828501613b7c565b91505092915050565b600060208284031215613db757613db6614614565b5b6000613dc584828501613b91565b91505092915050565b613dd7816144a7565b82525050565b613de68161440a565b82525050565b613df5816143f8565b82525050565b613e048161441c565b82525050565b613e13816144b9565b82525050565b613e22816144cb565b82525050565b613e31816144dd565b82525050565b613e40816144ef565b82525050565b613e4f81614501565b82525050565b613e5e81614513565b82525050565b613e6d81614525565b82525050565b613e7c81614537565b82525050565b6000613e8f601283614303565b9150613e9a82614619565b602082019050919050565b6000613eb2602583614303565b9150613ebd82614642565b604082019050919050565b6000613ed5600e83614303565b9150613ee082614691565b602082019050919050565b613ef481614428565b82525050565b613f0381614443565b82525050565b613f128161447f565b82525050565b613f2181614489565b82525050565b613f308161449a565b82525050565b6000602082019050613f4b6000830184613dec565b92915050565b600061010082019050613f67600083018b613ddd565b613f74602083018a613dce565b613f816040830189613dce565b613f8e6060830188613dec565b613f9b6080830187613dec565b613fa860a0830186613dec565b613fb560c0830185613dec565b613fc260e0830184613f09565b9998505050505050505050565b600060e082019050613fe4600083018a613ddd565b613ff16020830189613dec565b613ffe6040830188613dec565b61400b6060830187613dec565b6140186080830186613f09565b61402560a0830185613f09565b61403260c0830184613f09565b98975050505050505050565b60006040820190506140536000830185613dce565b6140606020830184613f09565b9392505050565b600060608201905061407c6000830186613dec565b6140896020830185613dec565b6140966040830184613dfb565b949350505050565b60006040820190506140b36000830185613dec565b6140c06020830184613f09565b9392505050565b60006020820190506140dc6000830184613dfb565b92915050565b60006020820190506140f76000830184613e0a565b92915050565b60006020820190506141126000830184613e19565b92915050565b600060208201905061412d6000830184613e28565b92915050565b60006020820190506141486000830184613e37565b92915050565b60006020820190506141636000830184613e46565b92915050565b600060208201905061417e6000830184613e55565b92915050565b60006020820190506141996000830184613e64565b92915050565b60006080820190506141b46000830187613e73565b6141c16020830186613f18565b6141ce6040830185613eeb565b6141db6060830184613eeb565b95945050505050565b600060208201905081810360008301526141fd81613e82565b9050919050565b6000602082019050818103600083015261421d81613ea5565b9050919050565b6000602082019050818103600083015261423d81613ec8565b9050919050565b60006020820190506142596000830184613eeb565b92915050565b60006020820190506142746000830184613f09565b92915050565b600060808201905061428f6000830187613f09565b61429c6020830186613dec565b6142a96040830185613dec565b6142b66060830184613efa565b95945050505050565b60006040820190506142d46000830185613f09565b6142e16020830184613f27565b9392505050565b60006020820190506142fd6000830184613f18565b92915050565b600082825260208201905092915050565b600061431f8261447f565b915061432a8361447f565b9250827fffffffffffffffffffffffffffffffffffffffffffffffffffffffffffffffff0382111561435f5761435e6145b6565b5b828201905092915050565b60006143758261447f565b91506143808361447f565b9250817fffffffffffffffffffffffffffffffffffffffffffffffffffffffffffffffff04831182151516156143b9576143b86145b6565b5b828202905092915050565b60006143cf8261447f565b91506143da8361447f565b9250828210156143ed576143ec6145b6565b5b828203905092915050565b60006144038261445f565b9050919050565b60006144158261445f565b9050919050565b60008115159050919050565b60006effffffffffffffffffffffffffffff82169050919050565b60006fffffffffffffffffffffffffffffffff82169050919050565b600073ffffffffffffffffffffffffffffffffffffffff82169050919050565b6000819050919050565b600064ffffffffff82169050919050565b600060ff82169050919050565b60006144b282614549565b9050919050565b60006144c482614549565b9050919050565b60006144d682614549565b9050919050565b60006144e882614549565b9050919050565b60006144fa82614549565b9050919050565b600061450c82614549565b9050919050565b600061451e82614549565b9050919050565b600061453082614549565b9050919050565b60006145428261449a565b9050919050565b60006145548261455b565b9050919050565b60006145668261445f565b9050919050565b60006145788261447f565b91507fffffffffffffffffffffffffffffffffffffffffffffffffffffffffffffffff8214156145ab576145aa6145b6565b5b600182019050919050565b7f4e487b7100000000000000000000000000000000000000000000000000000000600052601160045260246000fd5b7f4e487b7100000000000000000000000000000000000000000000000000000000600052603260045260246000fd5b600080fd5b7f696e616374697665206f72206163746976650000000000000000000000000000600082015250565b7f2072657175697265732044414f20564f54452e20546f20626520696d706c656d60008201527f656e746564000000000000000000000000000000000000000000000000000000602082015250565b7f616c726561647920657869737473000000000000000000000000000000000000600082015250565b6146c3816143f8565b81146146ce57600080fd5b50565b6146da8161440a565b81146146e557600080fd5b50565b6146f18161441c565b81146146fc57600080fd5b50565b6147088161445f565b811461471357600080fd5b50565b61471f8161447f565b811461472a57600080fd5b50565b6147368161449a565b811461474157600080fd5b5056fea2646970667358221220687dccbe4dc5c1690dfeb50e71259dc2dd4dcd9522d658cf230b2d062f95418c64736f6c634300080700336080604052348015600f57600080fd5b50603f80601d6000396000f3fe6080604052600080fdfea2646970667358221220c139efeb2d1b64d42aa0d3796f49c67072e0819abc8274d7121cd986035f3a5364736f6c63430008070033a26469706673582212207002bee2d2684878f8b1f9d431d20a1cb8870aed2a2ae6751f00070237a7e0d964736f6c63430008070033608060405262093a806010556101f4601260006101000a8154816effffffffffffffffffffffffffffff02191690836effffffffffffffffffffffffffffff160217905550620d2f006012600f6101000a81548164ffffffffff021916908364ffffffffff1602179055503480156200007757600080fd5b5060405162004ae338038062004ae383398181016040528101906200009d919062000263565b33600660006101000a81548173ffffffffffffffffffffffffffffffffffffffff021916908373ffffffffffffffffffffffffffffffffffffffff16021790555081600060016101000a81548173ffffffffffffffffffffffffffffffffffffffff021916908373ffffffffffffffffffffffffffffffffffffffff16021790555080600160006101000a81548173ffffffffffffffffffffffffffffffffffffffff021916908373ffffffffffffffffffffffffffffffffffffffff1602179055506040516200016e906200023f565b604051809103906000f0801580156200018b573d6000803e3d6000fd5b50600360006101000a81548173ffffffffffffffffffffffffffffffffffffffff021916908373ffffffffffffffffffffffffffffffffffffffff160217905550600960009080600181540180825580915050600190039060005260206000200160009091909190916101000a81548173ffffffffffffffffffffffffffffffffffffffff021916908373ffffffffffffffffffffffffffffffffffffffff160217905550426008819055505050620002fd565b605c8062004a8783390190565b6000815190506200025d81620002e3565b92915050565b600080604083850312156200027d576200027c620002de565b5b60006200028d858286016200024c565b9250506020620002a0858286016200024c565b9150509250929050565b6000620002b782620002be565b9050919050565b600073ffffffffffffffffffffffffffffffffffffffff82169050919050565b600080fd5b620002ee81620002aa565b8114620002fa57600080fd5b50565b61477a806200030d6000396000f3fe608060405234801561001057600080fd5b50600436106102265760003560e01c80638005bc9511610130578063a5125421116100b8578063db5e4c7f1161007c578063db5e4c7f14610595578063de660841146105b3578063e093ba82146105e3578063f74b059e14610614578063fce1ccca1461063057610226565b8063a512542114610507578063bca0adcb14610523578063bdaf56a31461053f578063c48ea1ff1461055b578063d98d79551461057957610226565b806398ba130b116100ff57806398ba130b146104615780639ca09d1c146104915780639cc52b5d146104ad578063a09312fd146104cb578063a3db1d20146104e957610226565b80638005bc95146103ed57806382d6ddff1461040957806382f072e8146104255780638a14ae8a1461044357610226565b806329034a5c116101b357806350fa62e31161018257806350fa62e3146103595780635ab2ec0d146103895780635b63f661146103a757806363bd1d4a146103c55780636412173e146103cf57610226565b806329034a5c146102f75780632fee8e3e1461031557806336061081146103335780634a7dc8e01461033d57610226565b806316ac3265116101fa57806316ac32651461028b5780631b6405fe146102955780631c0701df146102b15780631cc1cf46146102cf57806324bc8d05146102ed57610226565b8062d117d41461022b5780630e136b191461024757806312514bba1461026557806313f6d05c14610281575b600080fd5b61024560048036038101906102409190613ced565b61064e565b005b61024f610c17565b60405161025c91906140c7565b60405180910390f35b61027f600480360381019061027a9190613d1a565b610c28565b005b610289610d31565b005b61029361121c565b005b6102af60048036038101906102aa9190613c00565b6113f9565b005b6102b9611634565b6040516102c6919061425f565b60405180910390f35b6102d761163e565b6040516102e4919061425f565b60405180910390f35b6102f5611644565b005b6102ff611c41565b60405161030c919061414e565b60405180910390f35b61031d611c67565b60405161032a91906140e2565b60405180910390f35b61033b611c8d565b005b61035760048036038101906103529190613ba6565b611e1e565b005b610373600480360381019061036e9190613d1a565b612012565b6040516103809190613f36565b60405180910390f35b610391612051565b60405161039e9190614133565b60405180910390f35b6103af612077565b6040516103bc919061414e565b60405180910390f35b6103cd61209d565b005b6103d761218b565b6040516103e49190614118565b60405180910390f35b61040760048036038101906104029190613ba6565b6121b1565b005b610423600480360381019061041e9190613d1a565b6126f5565b005b61042d6127dd565b60405161043a9190614244565b60405180910390f35b61044b6127fe565b604051610458919061425f565b60405180910390f35b61047b60048036038101906104769190613d1a565b612804565b6040516104889190613f36565b60405180910390f35b6104ab60048036038101906104a69190613d1a565b612843565b005b6104b5612a5b565b6040516104c291906140fd565b60405180910390f35b6104d3612a81565b6040516104e091906142e8565b60405180910390f35b6104f1612a98565b6040516104fe919061425f565b60405180910390f35b610521600480360381019061051c9190613ba6565b612a9e565b005b61053d60048036038101906105389190613c40565b612b83565b005b61055960048036038101906105549190613ba6565b612c6c565b005b6105636132c0565b6040516105709190614184565b60405180910390f35b610593600480360381019061058e9190613c80565b6132e6565b005b61059d6133ad565b6040516105aa919061425f565b60405180910390f35b6105cd60048036038101906105c89190613d1a565b6133b3565b6040516105da9190613f36565b60405180910390f35b6105fd60048036038101906105f89190613d74565b6133f2565b60405161060b9291906142bf565b60405180910390f35b61062e60048036038101906106299190613ba6565b613423565b005b610638613a5e565b6040516106459190614169565b60405180910390f35b6002816001600760008460ff1660ff16815260200190815260200160002060010160009054906101000a900460ff1660ff1611156106c1576040517f08c379a00000000000000000000000000000000000000000000000000000000081526004016106b8906141e4565b60405180910390fd5b6000600760008460ff1660ff16815260200190815260200160002060010160009054906101000a900460ff1660ff1614156108d057600060019054906101000a900473ffffffffffffffffffffffffffffffffffffffff1673ffffffffffffffffffffffffffffffffffffffff16637b6e5f9c60046012600f9054906101000a900464ffffffffff16601260009054906101000a90046effffffffffffffffffffffffffffff16600160009054906101000a900473ffffffffffffffffffffffffffffffffffffffff1673ffffffffffffffffffffffffffffffffffffffff166318160ddd6040518163ffffffff1660e01b815260040160206040518083038186803b1580156107d057600080fd5b505afa1580156107e4573d6000803e3d6000fd5b505050506040513d601f19601f820116820180604052508101906108089190613d47565b6040518563ffffffff1660e01b8152600401610827949392919061419f565b602060405180830381600087803b15801561084157600080fd5b505af1158015610855573d6000803e3d6000fd5b505050506040513d601f19601f820116820180604052508101906108799190613d47565b600760008460ff1660ff168152602001908152602001600020600001819055506001600760008460ff1660ff16815260200190815260200160002060010160006101000a81548160ff021916908360ff1602179055505b600060019054906101000a900473ffffffffffffffffffffffffffffffffffffffff1673ffffffffffffffffffffffffffffffffffffffff1663e31f7b28600760008060ff168152602001908152602001600020600001543384600160009054906101000a900473ffffffffffffffffffffffffffffffffffffffff1673ffffffffffffffffffffffffffffffffffffffff166370a08231336040518263ffffffff1660e01b81526004016109859190613f36565b60206040518083038186803b15801561099d57600080fd5b505afa1580156109b1573d6000803e3d6000fd5b505050506040513d601f19601f820116820180604052508101906109d59190613d47565b6040518563ffffffff1660e01b81526004016109f4949392919061427a565b602060405180830381600087803b158015610a0e57600080fd5b505af1158015610a22573d6000803e3d6000fd5b505050506040513d601f19601f82011682018060405250810190610a469190613da1565b600760008060ff16815260200190815260200160002060010160006101000a81548160ff021916908360ff1602179055506002600760008060ff16815260200190815260200160002060010160009054906101000a900460ff1660ff161415610bb75760008060019054906101000a900473ffffffffffffffffffffffffffffffffffffffff1673ffffffffffffffffffffffffffffffffffffffff1663b17979a6600760008060ff168152602001908152602001600020600001546040518263ffffffff1660e01b8152600401610b1e919061425f565b60206040518083038186803b158015610b3657600080fd5b505afa158015610b4a573d6000803e3d6000fd5b505050506040513d601f19601f82011682018060405250810190610b6e9190613bd3565b90508073ffffffffffffffffffffffffffffffffffffffff16601181905550506000600760008060ff16815260200190815260200160002060010160009054906101000a905050505b6003600760008060ff16815260200190815260200160002060010160009054906101000a900460ff1660ff161415610c12576000600760008060ff16815260200190815260200160002060010160009054906101000a905050505b505050565b60008054906101000a900460ff1681565b600f60003373ffffffffffffffffffffffffffffffffffffffff1673ffffffffffffffffffffffffffffffffffffffff16815260200190815260200160002060009054906101000a900460ff16610c7e57600080fd5b600a60009054906101000a900473ffffffffffffffffffffffffffffffffffffffff1673ffffffffffffffffffffffffffffffffffffffff1663a9059cbb33836040518363ffffffff1660e01b8152600401610cdb92919061409e565b602060405180830381600087803b158015610cf557600080fd5b505af1158015610d09573d6000803e3d6000fd5b505050506040513d601f19601f82011682018060405250810190610d2d9190613cc0565b5050565b600360006001600760008460ff1660ff16815260200190815260200160002060010160009054906101000a900460ff1660ff161115610da5576040517f08c379a0000000000000000000000000000000000000000000000000000000008152600401610d9c906141e4565b60405180910390fd5b6000600760008460ff1660ff16815260200190815260200160002060010160009054906101000a900460ff1660ff161415610fb457600060019054906101000a900473ffffffffffffffffffffffffffffffffffffffff1673ffffffffffffffffffffffffffffffffffffffff16637b6e5f9c60046012600f9054906101000a900464ffffffffff16601260009054906101000a90046effffffffffffffffffffffffffffff16600160009054906101000a900473ffffffffffffffffffffffffffffffffffffffff1673ffffffffffffffffffffffffffffffffffffffff166318160ddd6040518163ffffffff1660e01b815260040160206040518083038186803b158015610eb457600080fd5b505afa158015610ec8573d6000803e3d6000fd5b505050506040513d601f19601f82011682018060405250810190610eec9190613d47565b6040518563ffffffff1660e01b8152600401610f0b949392919061419f565b602060405180830381600087803b158015610f2557600080fd5b505af1158015610f39573d6000803e3d6000fd5b505050506040513d601f19601f82011682018060405250810190610f5d9190613d47565b600760008460ff1660ff168152602001908152602001600020600001819055506001600760008460ff1660ff16815260200190815260200160002060010160006101000a81548160ff021916908360ff1602179055505b600060019054906101000a900473ffffffffffffffffffffffffffffffffffffffff1673ffffffffffffffffffffffffffffffffffffffff1663e31f7b28600760008060ff168152602001908152602001600020600001543384600160009054906101000a900473ffffffffffffffffffffffffffffffffffffffff1673ffffffffffffffffffffffffffffffffffffffff166370a08231336040518263ffffffff1660e01b81526004016110699190613f36565b60206040518083038186803b15801561108157600080fd5b505afa158015611095573d6000803e3d6000fd5b505050506040513d601f19601f820116820180604052508101906110b99190613d47565b6040518563ffffffff1660e01b81526004016110d8949392919061427a565b602060405180830381600087803b1580156110f257600080fd5b505af1158015611106573d6000803e3d6000fd5b505050506040513d601f19601f8201168201806040525081019061112a9190613da1565b600760008060ff16815260200190815260200160002060010160006101000a81548160ff021916908360ff1602179055506002600760008060ff16815260200190815260200160002060010160009054906101000a900460ff1660ff1614156111bd57426008819055506000600760008060ff16815260200190815260200160002060010160009054906101000a905050505b6003600760008060ff16815260200190815260200160002060010160009054906101000a900460ff1660ff161415611218576000600760008060ff16815260200190815260200160002060010160009054906101000a905050505b5050565b6000600260009054906101000a900473ffffffffffffffffffffffffffffffffffffffff1673ffffffffffffffffffffffffffffffffffffffff166370a08231336040518263ffffffff1660e01b81526004016112799190613f36565b60206040518083038186803b15801561129157600080fd5b505afa1580156112a5573d6000803e3d6000fd5b505050506040513d601f19601f820116820180604052508101906112c99190613d47565b9050600081116112d857600080fd5b600160009054906101000a900473ffffffffffffffffffffffffffffffffffffffff1673ffffffffffffffffffffffffffffffffffffffff166340c10f1933836040518363ffffffff1660e01b815260040161133592919061409e565b600060405180830381600087803b15801561134f57600080fd5b505af1158015611363573d6000803e3d6000fd5b50505050600260009054906101000a900473ffffffffffffffffffffffffffffffffffffffff1673ffffffffffffffffffffffffffffffffffffffff16639dc29fac33836040518363ffffffff1660e01b81526004016113c492919061409e565b600060405180830381600087803b1580156113de57600080fd5b505af11580156113f2573d6000803e3d6000fd5b5050505050565b60008054906101000a900460ff161561141157600080fd5b6000600460009054906101000a900473ffffffffffffffffffffffffffffffffffffffff1673ffffffffffffffffffffffffffffffffffffffff1663d9acec53338585600160009054906101000a900473ffffffffffffffffffffffffffffffffffffffff16600360009054906101000a900473ffffffffffffffffffffffffffffffffffffffff16600060019054906101000a900473ffffffffffffffffffffffffffffffffffffffff16600a60009054906101000a900473ffffffffffffffffffffffffffffffffffffffff166010546040518963ffffffff1660e01b8152600401611506989796959493929190613f51565b602060405180830381600087803b15801561152057600080fd5b505af1158015611534573d6000803e3d6000fd5b505050506040513d601f19601f820116820180604052508101906115589190613bd3565b9050600c819080600181540180825580915050600190039060005260206000200160009091909190916101000a81548173ffffffffffffffffffffffffffffffffffffffff021916908373ffffffffffffffffffffffffffffffffffffffff1602179055506001600f60008373ffffffffffffffffffffffffffffffffffffffff1673ffffffffffffffffffffffffffffffffffffffff16815260200190815260200160002060006101000a81548160ff0219169083151502179055506001600e60008282546116289190614314565b92505081905550505050565b6000600854905090565b60115481565b600560006001600760008460ff1660ff16815260200190815260200160002060010160009054906101000a900460ff1660ff1611156116b8576040517f08c379a00000000000000000000000000000000000000000000000000000000081526004016116af906141e4565b60405180910390fd5b6000600760008460ff1660ff16815260200190815260200160002060010160009054906101000a900460ff1660ff1614156118c757600060019054906101000a900473ffffffffffffffffffffffffffffffffffffffff1673ffffffffffffffffffffffffffffffffffffffff16637b6e5f9c60046012600f9054906101000a900464ffffffffff16601260009054906101000a90046effffffffffffffffffffffffffffff16600160009054906101000a900473ffffffffffffffffffffffffffffffffffffffff1673ffffffffffffffffffffffffffffffffffffffff166318160ddd6040518163ffffffff1660e01b815260040160206040518083038186803b1580156117c757600080fd5b505afa1580156117db573d6000803e3d6000fd5b505050506040513d601f19601f820116820180604052508101906117ff9190613d47565b6040518563ffffffff1660e01b815260040161181e949392919061419f565b602060405180830381600087803b15801561183857600080fd5b505af115801561184c573d6000803e3d6000fd5b505050506040513d601f19601f820116820180604052508101906118709190613d47565b600760008460ff1660ff168152602001908152602001600020600001819055506001600760008460ff1660ff16815260200190815260200160002060010160006101000a81548160ff021916908360ff1602179055505b600060019054906101000a900473ffffffffffffffffffffffffffffffffffffffff1673ffffffffffffffffffffffffffffffffffffffff1663e31f7b28600760008060ff168152602001908152602001600020600001543384600160009054906101000a900473ffffffffffffffffffffffffffffffffffffffff1673ffffffffffffffffffffffffffffffffffffffff166370a08231336040518263ffffffff1660e01b815260040161197c9190613f36565b60206040518083038186803b15801561199457600080fd5b505afa1580156119a8573d6000803e3d6000fd5b505050506040513d601f19601f820116820180604052508101906119cc9190613d47565b6040518563ffffffff1660e01b81526004016119eb949392919061427a565b602060405180830381600087803b158015611a0557600080fd5b505af1158015611a19573d6000803e3d6000fd5b505050506040513d601f19601f82011682018060405250810190611a3d9190613da1565b600760008060ff16815260200190815260200160002060010160006101000a81548160ff021916908360ff1602179055506002600760008060ff16815260200190815260200160002060010160009054906101000a900460ff1660ff161415611be257600660009054906101000a900473ffffffffffffffffffffffffffffffffffffffff1673ffffffffffffffffffffffffffffffffffffffff16630785ca30600060019054906101000a900473ffffffffffffffffffffffffffffffffffffffff16600160009054906101000a900473ffffffffffffffffffffffffffffffffffffffff1660016040518463ffffffff1660e01b8152600401611b4493929190614067565b602060405180830381600087803b158015611b5e57600080fd5b505af1158015611b72573d6000803e3d6000fd5b505050506040513d601f19601f82011682018060405250810190611b969190613bd3565b5060016000806101000a81548160ff021916908315150217905550611bb9613a84565b6000600760008060ff16815260200190815260200160002060010160009054906101000a905050505b6003600760008060ff16815260200190815260200160002060010160009054906101000a900460ff1660ff161415611c3d576000600760008060ff16815260200190815260200160002060010160009054906101000a905050505b5050565b600160009054906101000a900473ffffffffffffffffffffffffffffffffffffffff1681565b600360009054906101000a900473ffffffffffffffffffffffffffffffffffffffff1681565b600f60003373ffffffffffffffffffffffffffffffffffffffff1673ffffffffffffffffffffffffffffffffffffffff16815260200190815260200160002060009054906101000a900460ff16611ce357600080fd5b600160009054906101000a900473ffffffffffffffffffffffffffffffffffffffff1673ffffffffffffffffffffffffffffffffffffffff16639dc29fac33600160009054906101000a900473ffffffffffffffffffffffffffffffffffffffff1673ffffffffffffffffffffffffffffffffffffffff166370a08231336040518263ffffffff1660e01b8152600401611d7d9190613f36565b60206040518083038186803b158015611d9557600080fd5b505afa158015611da9573d6000803e3d6000fd5b505050506040513d601f19601f82011682018060405250810190611dcd9190613d47565b6040518363ffffffff1660e01b8152600401611dea92919061409e565b600060405180830381600087803b158015611e0457600080fd5b505af1158015611e18573d6000803e3d6000fd5b50505050565b6000600160009054906101000a900473ffffffffffffffffffffffffffffffffffffffff1673ffffffffffffffffffffffffffffffffffffffff166370a08231336040518263ffffffff1660e01b8152600401611e7b9190613f36565b60206040518083038186803b158015611e9357600080fd5b505afa158015611ea7573d6000803e3d6000fd5b505050506040513d601f19601f82011682018060405250810190611ecb9190613d47565b11611ed557600080fd5b6000600b60008373ffffffffffffffffffffffffffffffffffffffff1673ffffffffffffffffffffffffffffffffffffffff1681526020019081526020016000205414611f57576040517f08c379a0000000000000000000000000000000000000000000000000000000008152600401611f4e90614224565b60405180910390fd5b6009819080600181540180825580915050600190039060005260206000200160009091909190916101000a81548173ffffffffffffffffffffffffffffffffffffffff021916908373ffffffffffffffffffffffffffffffffffffffff1602179055506001600980549050611fcc91906143c4565b600b60008373ffffffffffffffffffffffffffffffffffffffff1673ffffffffffffffffffffffffffffffffffffffff1681526020019081526020016000208190555050565b600c818154811061202257600080fd5b906000526020600020016000915054906101000a900473ffffffffffffffffffffffffffffffffffffffff1681565b600560009054906101000a900473ffffffffffffffffffffffffffffffffffffffff1681565b600260009054906101000a900473ffffffffffffffffffffffffffffffffffffffff1681565b601154600854426120ae91906143c4565b116120b857600080fd5b60005b600d8054905081101561217957600d81815481106120dc576120db6145e5565b5b9060005260206000200160009054906101000a900473ffffffffffffffffffffffffffffffffffffffff1673ffffffffffffffffffffffffffffffffffffffff16631b9265b86040518163ffffffff1660e01b8152600401600060405180830381600087803b15801561214e57600080fd5b505af1158015612162573d6000803e3d6000fd5b5050505080806121719061456d565b9150506120bb565b5042600881905550612189613a84565b565b600a60009054906101000a900473ffffffffffffffffffffffffffffffffffffffff1681565b6004816001600760008460ff1660ff16815260200190815260200160002060010160009054906101000a900460ff1660ff161115612224576040517f08c379a000000000000000000000000000000000000000000000000000000000815260040161221b906141e4565b60405180910390fd5b6000600760008460ff1660ff16815260200190815260200160002060010160009054906101000a900460ff1660ff16141561243357600060019054906101000a900473ffffffffffffffffffffffffffffffffffffffff1673ffffffffffffffffffffffffffffffffffffffff16637b6e5f9c60046012600f9054906101000a900464ffffffffff16601260009054906101000a90046effffffffffffffffffffffffffffff16600160009054906101000a900473ffffffffffffffffffffffffffffffffffffffff1673ffffffffffffffffffffffffffffffffffffffff166318160ddd6040518163ffffffff1660e01b815260040160206040518083038186803b15801561233357600080fd5b505afa158015612347573d6000803e3d6000fd5b505050506040513d601f19601f8201168201806040525081019061236b9190613d47565b6040518563ffffffff1660e01b815260040161238a949392919061419f565b602060405180830381600087803b1580156123a457600080fd5b505af11580156123b8573d6000803e3d6000fd5b505050506040513d601f19601f820116820180604052508101906123dc9190613d47565b600760008460ff1660ff168152602001908152602001600020600001819055506001600760008460ff1660ff16815260200190815260200160002060010160006101000a81548160ff021916908360ff1602179055505b600060019054906101000a900473ffffffffffffffffffffffffffffffffffffffff1673ffffffffffffffffffffffffffffffffffffffff1663e31f7b28600760008060ff168152602001908152602001600020600001543384600160009054906101000a900473ffffffffffffffffffffffffffffffffffffffff1673ffffffffffffffffffffffffffffffffffffffff166370a08231336040518263ffffffff1660e01b81526004016124e89190613f36565b60206040518083038186803b15801561250057600080fd5b505afa158015612514573d6000803e3d6000fd5b505050506040513d601f19601f820116820180604052508101906125389190613d47565b6040518563ffffffff1660e01b8152600401612557949392919061427a565b602060405180830381600087803b15801561257157600080fd5b505af1158015612585573d6000803e3d6000fd5b505050506040513d601f19601f820116820180604052508101906125a99190613da1565b600760008060ff16815260200190815260200160002060010160006101000a81548160ff021916908360ff1602179055506002600760008060ff16815260200190815260200160002060010160009054906101000a900460ff1660ff161415612695578273ffffffffffffffffffffffffffffffffffffffff16633ccfd60b6040518163ffffffff1660e01b8152600401600060405180830381600087803b15801561265457600080fd5b505af1158015612668573d6000803e3d6000fd5b505050506000600760008060ff16815260200190815260200160002060010160009054906101000a905050505b6003600760008060ff16815260200190815260200160002060010160009054906101000a900460ff1660ff1614156126f0576000600760008060ff16815260200190815260200160002060010160009054906101000a905050505b505050565b600f60003373ffffffffffffffffffffffffffffffffffffffff1673ffffffffffffffffffffffffffffffffffffffff16815260200190815260200160002060009054906101000a900460ff1661274b57600080fd5b600160009054906101000a900473ffffffffffffffffffffffffffffffffffffffff1673ffffffffffffffffffffffffffffffffffffffff166340c10f1933836040518363ffffffff1660e01b81526004016127a892919061409e565b600060405180830381600087803b1580156127c257600080fd5b505af11580156127d6573d6000803e3d6000fd5b5050505050565b601260009054906101000a90046effffffffffffffffffffffffffffff1681565b60085481565b600d818154811061281457600080fd5b906000526020600020016000915054906101000a900473ffffffffffffffffffffffffffffffffffffffff1681565b60008054906101000a900460ff161561285b57600080fd5b6000600560009054906101000a900473ffffffffffffffffffffffffffffffffffffffff1673ffffffffffffffffffffffffffffffffffffffff1663842d201a33600160009054906101000a900473ffffffffffffffffffffffffffffffffffffffff16600a60009054906101000a900473ffffffffffffffffffffffffffffffffffffffff16600060019054906101000a900473ffffffffffffffffffffffffffffffffffffffff16601054601154896040518863ffffffff1660e01b815260040161292e9796959493929190613fcf565b602060405180830381600087803b15801561294857600080fd5b505af115801561295c573d6000803e3d6000fd5b505050506040513d601f19601f820116820180604052508101906129809190613bd3565b9050600d819080600181540180825580915050600190039060005260206000200160009091909190916101000a81548173ffffffffffffffffffffffffffffffffffffffff021916908373ffffffffffffffffffffffffffffffffffffffff1602179055506001600f60008373ffffffffffffffffffffffffffffffffffffffff1673ffffffffffffffffffffffffffffffffffffffff16815260200190815260200160002060006101000a81548160ff0219169083151502179055506001600e6000828254612a509190614314565b925050819055505050565b600460009054906101000a900473ffffffffffffffffffffffffffffffffffffffff1681565b6012600f9054906101000a900464ffffffffff1681565b60105481565b60006009600b60008473ffffffffffffffffffffffffffffffffffffffff1673ffffffffffffffffffffffffffffffffffffffff1681526020019081526020016000205481548110612af357612af26145e5565b5b9060005260206000200160006101000a81548173ffffffffffffffffffffffffffffffffffffffff021916908373ffffffffffffffffffffffffffffffffffffffff1602179055506000600b60008373ffffffffffffffffffffffffffffffffffffffff1673ffffffffffffffffffffffffffffffffffffffff1681526020019081526020016000208190555050565b600f60003373ffffffffffffffffffffffffffffffffffffffff1673ffffffffffffffffffffffffffffffffffffffff16815260200190815260200160002060009054906101000a900460ff16612bd957600080fd5b600160009054906101000a900473ffffffffffffffffffffffffffffffffffffffff1673ffffffffffffffffffffffffffffffffffffffff166340c10f1983836040518363ffffffff1660e01b8152600401612c3692919061403e565b600060405180830381600087803b158015612c5057600080fd5b505af1158015612c64573d6000803e3d6000fd5b505050505050565b6006816001600760008460ff1660ff16815260200190815260200160002060010160009054906101000a900460ff1660ff161115612cdf576040517f08c379a0000000000000000000000000000000000000000000000000000000008152600401612cd6906141e4565b60405180910390fd5b6000600760008460ff1660ff16815260200190815260200160002060010160009054906101000a900460ff1660ff161415612eee57600060019054906101000a900473ffffffffffffffffffffffffffffffffffffffff1673ffffffffffffffffffffffffffffffffffffffff16637b6e5f9c60046012600f9054906101000a900464ffffffffff16601260009054906101000a90046effffffffffffffffffffffffffffff16600160009054906101000a900473ffffffffffffffffffffffffffffffffffffffff1673ffffffffffffffffffffffffffffffffffffffff166318160ddd6040518163ffffffff1660e01b815260040160206040518083038186803b158015612dee57600080fd5b505afa158015612e02573d6000803e3d6000fd5b505050506040513d601f19601f82011682018060405250810190612e269190613d47565b6040518563ffffffff1660e01b8152600401612e45949392919061419f565b602060405180830381600087803b158015612e5f57600080fd5b505af1158015612e73573d6000803e3d6000fd5b505050506040513d601f19601f82011682018060405250810190612e979190613d47565b600760008460ff1660ff168152602001908152602001600020600001819055506001600760008460ff1660ff16815260200190815260200160002060010160006101000a81548160ff021916908360ff1602179055505b600060019054906101000a900473ffffffffffffffffffffffffffffffffffffffff1673ffffffffffffffffffffffffffffffffffffffff1663e31f7b28600760008060ff168152602001908152602001600020600001543384600160009054906101000a900473ffffffffffffffffffffffffffffffffffffffff1673ffffffffffffffffffffffffffffffffffffffff166370a08231336040518263ffffffff1660e01b8152600401612fa39190613f36565b60206040518083038186803b158015612fbb57600080fd5b505afa158015612fcf573d6000803e3d6000fd5b505050506040513d601f19601f82011682018060405250810190612ff39190613d47565b6040518563ffffffff1660e01b8152600401613012949392919061427a565b602060405180830381600087803b15801561302c57600080fd5b505af1158015613040573d6000803e3d6000fd5b505050506040513d601f19601f820116820180604052508101906130649190613da1565b600760008060ff16815260200190815260200160002060010160006101000a81548160ff021916908360ff1602179055506002600760008060ff16815260200190815260200160002060010160009054906101000a900460ff1660ff16141561326057600160009054906101000a900473ffffffffffffffffffffffffffffffffffffffff16600260006101000a81548173ffffffffffffffffffffffffffffffffffffffff021916908373ffffffffffffffffffffffffffffffffffffffff160217905550600060019054906101000a900473ffffffffffffffffffffffffffffffffffffffff1673ffffffffffffffffffffffffffffffffffffffff1663b17979a660076000600660ff168152602001908152602001600020600001546040518263ffffffff1660e01b815260040161319f919061425f565b60206040518083038186803b1580156131b757600080fd5b505afa1580156131cb573d6000803e3d6000fd5b505050506040513d601f19601f820116820180604052508101906131ef9190613bd3565b600160006101000a81548173ffffffffffffffffffffffffffffffffffffffff021916908373ffffffffffffffffffffffffffffffffffffffff160217905550613237613a84565b6000600760008060ff16815260200190815260200160002060010160009054906101000a905050505b6003600760008060ff16815260200190815260200160002060010160009054906101000a900460ff1660ff1614156132bb576000600760008060ff16815260200190815260200160002060010160009054906101000a905050505b505050565b600660009054906101000a900473ffffffffffffffffffffffffffffffffffffffff1681565b6000613327576040517f08c379a000000000000000000000000000000000000000000000000000000000815260040161331e90614204565b60405180910390fd5b81600460006101000a81548173ffffffffffffffffffffffffffffffffffffffff021916908373ffffffffffffffffffffffffffffffffffffffff16021790555080600560006101000a81548173ffffffffffffffffffffffffffffffffffffffff021916908373ffffffffffffffffffffffffffffffffffffffff1602179055505050565b600e5481565b600981815481106133c357600080fd5b906000526020600020016000915054906101000a900473ffffffffffffffffffffffffffffffffffffffff1681565b60076020528060005260406000206000915090508060000154908060010160009054906101000a900460ff16905082565b806000600b60008373ffffffffffffffffffffffffffffffffffffffff1673ffffffffffffffffffffffffffffffffffffffff168152602001908152602001600020541161347057600080fd5b6000826001600760008460ff1660ff16815260200190815260200160002060010160009054906101000a900460ff1660ff1611156134e3576040517f08c379a00000000000000000000000000000000000000000000000000000000081526004016134da906141e4565b60405180910390fd5b6000600760008460ff1660ff16815260200190815260200160002060010160009054906101000a900460ff1660ff1614156136f257600060019054906101000a900473ffffffffffffffffffffffffffffffffffffffff1673ffffffffffffffffffffffffffffffffffffffff16637b6e5f9c60046012600f9054906101000a900464ffffffffff16601260009054906101000a90046effffffffffffffffffffffffffffff16600160009054906101000a900473ffffffffffffffffffffffffffffffffffffffff1673ffffffffffffffffffffffffffffffffffffffff166318160ddd6040518163ffffffff1660e01b815260040160206040518083038186803b1580156135f257600080fd5b505afa158015613606573d6000803e3d6000fd5b505050506040513d601f19601f8201168201806040525081019061362a9190613d47565b6040518563ffffffff1660e01b8152600401613649949392919061419f565b602060405180830381600087803b15801561366357600080fd5b505af1158015613677573d6000803e3d6000fd5b505050506040513d601f19601f8201168201806040525081019061369b9190613d47565b600760008460ff1660ff168152602001908152602001600020600001819055506001600760008460ff1660ff16815260200190815260200160002060010160006101000a81548160ff021916908360ff1602179055505b600060019054906101000a900473ffffffffffffffffffffffffffffffffffffffff1673ffffffffffffffffffffffffffffffffffffffff1663e31f7b28600760008060ff168152602001908152602001600020600001543384600160009054906101000a900473ffffffffffffffffffffffffffffffffffffffff1673ffffffffffffffffffffffffffffffffffffffff166370a08231336040518263ffffffff1660e01b81526004016137a79190613f36565b60206040518083038186803b1580156137bf57600080fd5b505afa1580156137d3573d6000803e3d6000fd5b505050506040513d601f19601f820116820180604052508101906137f79190613d47565b6040518563ffffffff1660e01b8152600401613816949392919061427a565b602060405180830381600087803b15801561383057600080fd5b505af1158015613844573d6000803e3d6000fd5b505050506040513d601f19601f820116820180604052508101906138689190613da1565b600760008060ff16815260200190815260200160002060010160006101000a81548160ff021916908360ff1602179055506002600760008060ff16815260200190815260200160002060010160009054906101000a900460ff1660ff1614156139fd5760008060019054906101000a900473ffffffffffffffffffffffffffffffffffffffff1673ffffffffffffffffffffffffffffffffffffffff1663b17979a6600760008060ff168152602001908152602001600020600001546040518263ffffffff1660e01b8152600401613940919061425f565b60206040518083038186803b15801561395857600080fd5b505afa15801561396c573d6000803e3d6000fd5b505050506040513d601f19601f820116820180604052508101906139909190613bd3565b905080600a60006101000a81548173ffffffffffffffffffffffffffffffffffffffff021916908373ffffffffffffffffffffffffffffffffffffffff160217905550506000600760008060ff16815260200190815260200160002060010160009054906101000a905050505b6003600760008060ff16815260200190815260200160002060010160009054906101000a900460ff1660ff161415613a58576000600760008060ff16815260200190815260200160002060010160009054906101000a905050505b50505050565b600060019054906101000a900473ffffffffffffffffffffffffffffffffffffffff1681565b600015613ae7576000620f424090503373ffffffffffffffffffffffffffffffffffffffff166108fc3a83613ab9919061436a565b9081150290604051600060405180830381858888f19350505050158015613ae4573d6000803e3d6000fd5b50505b565b600081359050613af8816146ba565b92915050565b600081519050613b0d816146ba565b92915050565b600081359050613b22816146d1565b92915050565b600081519050613b37816146e8565b92915050565b600081359050613b4c816146ff565b92915050565b600081359050613b6181614716565b92915050565b600081519050613b7681614716565b92915050565b600081359050613b8b8161472d565b92915050565b600081519050613ba08161472d565b92915050565b600060208284031215613bbc57613bbb614614565b5b6000613bca84828501613ae9565b91505092915050565b600060208284031215613be957613be8614614565b5b6000613bf784828501613afe565b91505092915050565b60008060408385031215613c1757613c16614614565b5b6000613c2585828601613b13565b9250506020613c3685828601613b13565b9150509250929050565b60008060408385031215613c5757613c56614614565b5b6000613c6585828601613b13565b9250506020613c7685828601613b52565b9150509250929050565b60008060408385031215613c9757613c96614614565b5b6000613ca585828601613ae9565b9250506020613cb685828601613ae9565b9150509250929050565b600060208284031215613cd657613cd5614614565b5b6000613ce484828501613b28565b91505092915050565b600060208284031215613d0357613d02614614565b5b6000613d1184828501613b3d565b91505092915050565b600060208284031215613d3057613d2f614614565b5b6000613d3e84828501613b52565b91505092915050565b600060208284031215613d5d57613d5c614614565b5b6000613d6b84828501613b67565b91505092915050565b600060208284031215613d8a57613d89614614565b5b6000613d9884828501613b7c565b91505092915050565b600060208284031215613db757613db6614614565b5b6000613dc584828501613b91565b91505092915050565b613dd7816144a7565b82525050565b613de68161440a565b82525050565b613df5816143f8565b82525050565b613e048161441c565b82525050565b613e13816144b9565b82525050565b613e22816144cb565b82525050565b613e31816144dd565b82525050565b613e40816144ef565b82525050565b613e4f81614501565b82525050565b613e5e81614513565b82525050565b613e6d81614525565b82525050565b613e7c81614537565b82525050565b6000613e8f601283614303565b9150613e9a82614619565b602082019050919050565b6000613eb2602583614303565b9150613ebd82614642565b604082019050919050565b6000613ed5600e83614303565b9150613ee082614691565b602082019050919050565b613ef481614428565b82525050565b613f0381614443565b82525050565b613f128161447f565b82525050565b613f2181614489565b82525050565b613f308161449a565b82525050565b6000602082019050613f4b6000830184613dec565b92915050565b600061010082019050613f67600083018b613ddd565b613f74602083018a613dce565b613f816040830189613dce565b613f8e6060830188613dec565b613f9b6080830187613dec565b613fa860a0830186613dec565b613fb560c0830185613dec565b613fc260e0830184613f09565b9998505050505050505050565b600060e082019050613fe4600083018a613ddd565b613ff16020830189613dec565b613ffe6040830188613dec565b61400b6060830187613dec565b6140186080830186613f09565b61402560a0830185613f09565b61403260c0830184613f09565b98975050505050505050565b60006040820190506140536000830185613dce565b6140606020830184613f09565b9392505050565b600060608201905061407c6000830186613dec565b6140896020830185613dec565b6140966040830184613dfb565b949350505050565b60006040820190506140b36000830185613dec565b6140c06020830184613f09565b9392505050565b60006020820190506140dc6000830184613dfb565b92915050565b60006020820190506140f76000830184613e0a565b92915050565b60006020820190506141126000830184613e19565b92915050565b600060208201905061412d6000830184613e28565b92915050565b60006020820190506141486000830184613e37565b92915050565b60006020820190506141636000830184613e46565b92915050565b600060208201905061417e6000830184613e55565b92915050565b60006020820190506141996000830184613e64565b92915050565b60006080820190506141b46000830187613e73565b6141c16020830186613f18565b6141ce6040830185613eeb565b6141db6060830184613eeb565b95945050505050565b600060208201905081810360008301526141fd81613e82565b9050919050565b6000602082019050818103600083015261421d81613ea5565b9050919050565b6000602082019050818103600083015261423d81613ec8565b9050919050565b60006020820190506142596000830184613eeb565b92915050565b60006020820190506142746000830184613f09565b92915050565b600060808201905061428f6000830187613f09565b61429c6020830186613dec565b6142a96040830185613dec565b6142b66060830184613efa565b95945050505050565b60006040820190506142d46000830185613f09565b6142e16020830184613f27565b9392505050565b60006020820190506142fd6000830184613f18565b92915050565b600082825260208201905092915050565b600061431f8261447f565b915061432a8361447f565b9250827fffffffffffffffffffffffffffffffffffffffffffffffffffffffffffffffff0382111561435f5761435e6145b6565b5b828201905092915050565b60006143758261447f565b91506143808361447f565b9250817fffffffffffffffffffffffffffffffffffffffffffffffffffffffffffffffff04831182151516156143b9576143b86145b6565b5b828202905092915050565b60006143cf8261447f565b91506143da8361447f565b9250828210156143ed576143ec6145b6565b5b828203905092915050565b60006144038261445f565b9050919050565b60006144158261445f565b9050919050565b60008115159050919050565b60006effffffffffffffffffffffffffffff82169050919050565b60006fffffffffffffffffffffffffffffffff82169050919050565b600073ffffffffffffffffffffffffffffffffffffffff82169050919050565b6000819050919050565b600064ffffffffff82169050919050565b600060ff82169050919050565b60006144b282614549565b9050919050565b60006144c482614549565b9050919050565b60006144d682614549565b9050919050565b60006144e882614549565b9050919050565b60006144fa82614549565b9050919050565b600061450c82614549565b9050919050565b600061451e82614549565b9050919050565b600061453082614549565b9050919050565b60006145428261449a565b9050919050565b60006145548261455b565b9050919050565b60006145668261445f565b9050919050565b60006145788261447f565b91507fffffffffffffffffffffffffffffffffffffffffffffffffffffffffffffffff8214156145ab576145aa6145b6565b5b600182019050919050565b7f4e487b7100000000000000000000000000000000000000000000000000000000600052601160045260246000fd5b7f4e487b7100000000000000000000000000000000000000000000000000000000600052603260045260246000fd5b600080fd5b7f696e616374697665206f72206163746976650000000000000000000000000000600082015250565b7f2072657175697265732044414f20564f54452e20546f20626520696d706c656d60008201527f656e746564000000000000000000000000000000000000000000000000000000602082015250565b7f616c726561647920657869737473000000000000000000000000000000000000600082015250565b6146c3816143f8565b81146146ce57600080fd5b50565b6146da8161440a565b81146146e557600080fd5b50565b6146f18161441c565b81146146fc57600080fd5b50565b6147088161445f565b811461471357600080fd5b50565b61471f8161447f565b811461472a57600080fd5b50565b6147368161449a565b811461474157600080fd5b5056fea2646970667358221220687dccbe4dc5c1690dfeb50e71259dc2dd4dcd9522d658cf230b2d062f95418c64736f6c634300080700336080604052348015600f57600080fd5b50603f80601d6000396000f3fe6080604052600080fdfea2646970667358221220c139efeb2d1b64d42aa0d3796f49c67072e0819abc8274d7121cd986035f3a5364736f6c63430008070033",
  "linkReferences": {},
  "deployedLinkReferences": {}
}