{
  "_format": "hh-sol-artifact-1",
  "contractName": "dOrgFactory",
  "sourceName": "contracts/Factory/dOrgFactory.sol",
  "abi": [
    {
      "inputs": [
        {
          "internalType": "address",
          "name": "votingAddress",
          "type": "address"
        },
        {
          "internalType": "address",
          "name": "repTokenAddress",
          "type": "address"
        }
      ],
      "stateMutability": "nonpayable",
      "type": "constructor"
    },
    {
      "inputs": [
        {
          "internalType": "address",
          "name": "votingAddress",
          "type": "address"
        },
        {
          "internalType": "address",
          "name": "repTokenAddress",
          "type": "address"
        },
        {
          "internalType": "bool",
          "name": "setAsNewMaster",
          "type": "bool"
        }
      ],
      "name": "createDORG",
      "outputs": [
        {
          "internalType": "address",
          "name": "",
          "type": "address"
        }
      ],
      "stateMutability": "nonpayable",
      "type": "function"
    },
    {
      "inputs": [],
      "name": "masterDORG",
      "outputs": [
        {
          "internalType": "address",
          "name": "",
          "type": "address"
        }
      ],
      "stateMutability": "view",
      "type": "function"
    }
  ],
  "bytecode": "0x608060405234801561001057600080fd5b50604051617aba380380617aba833981810160405281019061003291906101aa565b6100448282600161004c60201b60201c565b505050610270565b60008180156100a6575060008054906101000a900473ffffffffffffffffffffffffffffffffffffffff1673ffffffffffffffffffffffffffffffffffffffff163373ffffffffffffffffffffffffffffffffffffffff16145b156101485783836040516100b990610188565b6100c49291906101f9565b604051809103906000f0801580156100e0573d6000803e3d6000fd5b506000806101000a81548173ffffffffffffffffffffffffffffffffffffffff021916908373ffffffffffffffffffffffffffffffffffffffff16021790555060008054906101000a900473ffffffffffffffffffffffffffffffffffffffff169050610181565b838360405161015690610188565b6101619291906101f9565b604051809103906000f08015801561017d573d6000803e3d6000fd5b5090505b9392505050565b613a678061405383390190565b6000815190506101a481610259565b92915050565b600080604083850312156101c1576101c0610254565b5b60006101cf85828601610195565b92505060206101e085828601610195565b9150509250929050565b6101f381610222565b82525050565b600060408201905061020e60008301856101ea565b61021b60208301846101ea565b9392505050565b600061022d82610234565b9050919050565b600073ffffffffffffffffffffffffffffffffffffffff82169050919050565b600080fd5b61026281610222565b811461026d57600080fd5b50565b613dd48061027f6000396000f3fe608060405234801561001057600080fd5b50600436106100365760003560e01c80630785ca301461003b5780636b5788641461006b575b600080fd5b61005560048036038101906100509190610220565b610089565b6040516100629190610282565b60405180910390f35b6100736101c5565b6040516100809190610282565b60405180910390f35b60008180156100e3575060008054906101000a900473ffffffffffffffffffffffffffffffffffffffff1673ffffffffffffffffffffffffffffffffffffffff163373ffffffffffffffffffffffffffffffffffffffff16145b156101855783836040516100f6906101e9565b61010192919061029d565b604051809103906000f08015801561011d573d6000803e3d6000fd5b506000806101000a81548173ffffffffffffffffffffffffffffffffffffffff021916908373ffffffffffffffffffffffffffffffffffffffff16021790555060008054906101000a900473ffffffffffffffffffffffffffffffffffffffff1690506101be565b8383604051610193906101e9565b61019e92919061029d565b604051809103906000f0801580156101ba573d6000803e3d6000fd5b5090505b9392505050565b60008054906101000a900473ffffffffffffffffffffffffffffffffffffffff1681565b613a678061033883390190565b60008135905061020581610309565b92915050565b60008135905061021a81610320565b92915050565b60008060006060848603121561023957610238610304565b5b6000610247868287016101f6565b9350506020610258868287016101f6565b92505060406102698682870161020b565b9150509250925092565b61027c816102c6565b82525050565b60006020820190506102976000830184610273565b92915050565b60006040820190506102b26000830185610273565b6102bf6020830184610273565b9392505050565b60006102d1826102e4565b9050919050565b60008115159050919050565b600073ffffffffffffffffffffffffffffffffffffffff82169050919050565b600080fd5b610312816102c6565b811461031d57600080fd5b50565b610329816102d8565b811461033457600080fd5b5056fe608060405262093a80600e556101f4601060006101000a8154816effffffffffffffffffffffffffffff02191690836effffffffffffffffffffffffffffff160217905550620d2f006010600f6101000a81548164ffffffffff021916908364ffffffffff1602179055503480156200007757600080fd5b5060405162003a6738038062003a6783398181016040528101906200009d919062000221565b816000806101000a81548173ffffffffffffffffffffffffffffffffffffffff021916908373ffffffffffffffffffffffffffffffffffffffff16021790555080600160006101000a81548173ffffffffffffffffffffffffffffffffffffffff021916908373ffffffffffffffffffffffffffffffffffffffff1602179055506040516200012c90620001fd565b604051809103906000f08015801562000149573d6000803e3d6000fd5b50600260006101000a81548173ffffffffffffffffffffffffffffffffffffffff021916908373ffffffffffffffffffffffffffffffffffffffff160217905550600760009080600181540180825580915050600190039060005260206000200160009091909190916101000a81548173ffffffffffffffffffffffffffffffffffffffff021916908373ffffffffffffffffffffffffffffffffffffffff160217905550426006819055505050620002bb565b605c8062003a0b83390190565b6000815190506200021b81620002a1565b92915050565b600080604083850312156200023b576200023a6200029c565b5b60006200024b858286016200020a565b92505060206200025e858286016200020a565b9150509250929050565b600062000275826200027c565b9050919050565b600073ffffffffffffffffffffffffffffffffffffffff82169050919050565b600080fd5b620002ac8162000268565b8114620002b857600080fd5b50565b61374080620002cb6000396000f3fe608060405234801561001057600080fd5b50600436106101e45760003560e01c806382d6ddff1161010f578063a5125421116100a2578063de66084111610071578063de660841146104e7578063e093ba8214610517578063f74b059e14610548578063fce1ccca14610564576101e4565b8063a512542114610475578063bca0adcb14610491578063d98d7955146104ad578063db5e4c7f146104c9576101e4565b80639ca09d1c116100de5780639ca09d1c146103ff5780639cc52b5d1461041b578063a09312fd14610439578063a3db1d2014610457576101e4565b806382d6ddff1461037757806382f072e8146103935780638a14ae8a146103b157806398ba130b146103cf576101e4565b80632fee8e3e116101875780635ab2ec0d116101565780635ab2ec0d1461031557806363bd1d4a146103335780636412173e1461033d5780638005bc951461035b576101e4565b80632fee8e3e146102a157806336061081146102bf5780634a7dc8e0146102c957806350fa62e3146102e5576101e4565b80631b6405fe116101c35780631b6405fe1461022b5780631c0701df146102475780631cc1cf461461026557806329034a5c14610283576101e4565b8062d117d4146101e957806312514bba1461020557806313f6d05c14610221575b600080fd5b61020360048036038101906101fe9190612d50565b610582565b005b61021f600480360381019061021a9190612d7d565b610b47565b005b610229610c50565b005b61024560048036038101906102409190612c63565b611137565b005b61024f611358565b60405161025c9190613237565b60405180910390f35b61026d611362565b60405161027a9190613237565b60405180910390f35b61028b611368565b6040516102989190613141565b60405180910390f35b6102a961138e565b6040516102b691906130d5565b60405180910390f35b6102c76113b4565b005b6102e360048036038101906102de9190612c09565b611545565b005b6102ff60048036038101906102fa9190612d7d565b611739565b60405161030c9190612f7b565b60405180910390f35b61031d611778565b60405161032a9190613126565b60405180910390f35b61033b61179e565b005b61034561188c565b604051610352919061310b565b60405180910390f35b61037560048036038101906103709190612c09565b6118b2565b005b610391600480360381019061038c9190612d7d565b611df2565b005b61039b611eda565b6040516103a8919061321c565b60405180910390f35b6103b9611efb565b6040516103c69190613237565b60405180910390f35b6103e960048036038101906103e49190612d7d565b611f01565b6040516103f69190612f7b565b60405180910390f35b61041960048036038101906104149190612d7d565b611f40565b005b61042361213e565b60405161043091906130f0565b60405180910390f35b610441612164565b60405161044e91906132c0565b60405180910390f35b61045f61217b565b60405161046c9190613237565b60405180910390f35b61048f600480360381019061048a9190612c09565b612181565b005b6104ab60048036038101906104a69190612ca3565b612266565b005b6104c760048036038101906104c29190612ce3565b61234f565b005b6104d1612416565b6040516104de9190613237565b60405180910390f35b61050160048036038101906104fc9190612d7d565b61241c565b60405161050e9190612f7b565b60405180910390f35b610531600480360381019061052c9190612dd7565b61245b565b60405161053f929190613297565b60405180910390f35b610562600480360381019061055d9190612c09565b61248c565b005b61056c612ac3565b604051610579919061315c565b60405180910390f35b6002816001600560008460ff1660ff16815260200190815260200160002060010160009054906101000a900460ff1660ff1611156105f5576040517f08c379a00000000000000000000000000000000000000000000000000000000081526004016105ec906131bc565b60405180910390fd5b6000600560008460ff1660ff16815260200190815260200160002060010160009054906101000a900460ff1660ff1614156108025760008054906101000a900473ffffffffffffffffffffffffffffffffffffffff1673ffffffffffffffffffffffffffffffffffffffff16637b6e5f9c60046010600f9054906101000a900464ffffffffff16601060009054906101000a90046effffffffffffffffffffffffffffff16600160009054906101000a900473ffffffffffffffffffffffffffffffffffffffff1673ffffffffffffffffffffffffffffffffffffffff166318160ddd6040518163ffffffff1660e01b815260040160206040518083038186803b15801561070257600080fd5b505afa158015610716573d6000803e3d6000fd5b505050506040513d601f19601f8201168201806040525081019061073a9190612daa565b6040518563ffffffff1660e01b81526004016107599493929190613177565b602060405180830381600087803b15801561077357600080fd5b505af1158015610787573d6000803e3d6000fd5b505050506040513d601f19601f820116820180604052508101906107ab9190612daa565b600560008460ff1660ff168152602001908152602001600020600001819055506001600560008460ff1660ff16815260200190815260200160002060010160006101000a81548160ff021916908360ff1602179055505b60008054906101000a900473ffffffffffffffffffffffffffffffffffffffff1673ffffffffffffffffffffffffffffffffffffffff1663e31f7b28600560008060ff168152602001908152602001600020600001543384600160009054906101000a900473ffffffffffffffffffffffffffffffffffffffff1673ffffffffffffffffffffffffffffffffffffffff166370a08231336040518263ffffffff1660e01b81526004016108b59190612f7b565b60206040518083038186803b1580156108cd57600080fd5b505afa1580156108e1573d6000803e3d6000fd5b505050506040513d601f19601f820116820180604052508101906109059190612daa565b6040518563ffffffff1660e01b81526004016109249493929190613252565b602060405180830381600087803b15801561093e57600080fd5b505af1158015610952573d6000803e3d6000fd5b505050506040513d601f19601f820116820180604052508101906109769190612e04565b600560008060ff16815260200190815260200160002060010160006101000a81548160ff021916908360ff1602179055506002600560008060ff16815260200190815260200160002060010160009054906101000a900460ff1660ff161415610ae75760008060009054906101000a900473ffffffffffffffffffffffffffffffffffffffff1673ffffffffffffffffffffffffffffffffffffffff1663b17979a6600560008060ff168152602001908152602001600020600001546040518263ffffffff1660e01b8152600401610a4e9190613237565b60206040518083038186803b158015610a6657600080fd5b505afa158015610a7a573d6000803e3d6000fd5b505050506040513d601f19601f82011682018060405250810190610a9e9190612c36565b90508073ffffffffffffffffffffffffffffffffffffffff16600f81905550506000600560008060ff16815260200190815260200160002060010160009054906101000a905050505b6003600560008060ff16815260200190815260200160002060010160009054906101000a900460ff1660ff161415610b42576000600560008060ff16815260200190815260200160002060010160009054906101000a905050505b505050565b600d60003373ffffffffffffffffffffffffffffffffffffffff1673ffffffffffffffffffffffffffffffffffffffff16815260200190815260200160002060009054906101000a900460ff16610b9d57600080fd5b600860009054906101000a900473ffffffffffffffffffffffffffffffffffffffff1673ffffffffffffffffffffffffffffffffffffffff1663a9059cbb33836040518363ffffffff1660e01b8152600401610bfa9291906130ac565b602060405180830381600087803b158015610c1457600080fd5b505af1158015610c28573d6000803e3d6000fd5b505050506040513d601f19601f82011682018060405250810190610c4c9190612d23565b5050565b600360006001600560008460ff1660ff16815260200190815260200160002060010160009054906101000a900460ff1660ff161115610cc4576040517f08c379a0000000000000000000000000000000000000000000000000000000008152600401610cbb906131bc565b60405180910390fd5b6000600560008460ff1660ff16815260200190815260200160002060010160009054906101000a900460ff1660ff161415610ed15760008054906101000a900473ffffffffffffffffffffffffffffffffffffffff1673ffffffffffffffffffffffffffffffffffffffff16637b6e5f9c60046010600f9054906101000a900464ffffffffff16601060009054906101000a90046effffffffffffffffffffffffffffff16600160009054906101000a900473ffffffffffffffffffffffffffffffffffffffff1673ffffffffffffffffffffffffffffffffffffffff166318160ddd6040518163ffffffff1660e01b815260040160206040518083038186803b158015610dd157600080fd5b505afa158015610de5573d6000803e3d6000fd5b505050506040513d601f19601f82011682018060405250810190610e099190612daa565b6040518563ffffffff1660e01b8152600401610e289493929190613177565b602060405180830381600087803b158015610e4257600080fd5b505af1158015610e56573d6000803e3d6000fd5b505050506040513d601f19601f82011682018060405250810190610e7a9190612daa565b600560008460ff1660ff168152602001908152602001600020600001819055506001600560008460ff1660ff16815260200190815260200160002060010160006101000a81548160ff021916908360ff1602179055505b60008054906101000a900473ffffffffffffffffffffffffffffffffffffffff1673ffffffffffffffffffffffffffffffffffffffff1663e31f7b28600560008060ff168152602001908152602001600020600001543384600160009054906101000a900473ffffffffffffffffffffffffffffffffffffffff1673ffffffffffffffffffffffffffffffffffffffff166370a08231336040518263ffffffff1660e01b8152600401610f849190612f7b565b60206040518083038186803b158015610f9c57600080fd5b505afa158015610fb0573d6000803e3d6000fd5b505050506040513d601f19601f82011682018060405250810190610fd49190612daa565b6040518563ffffffff1660e01b8152600401610ff39493929190613252565b602060405180830381600087803b15801561100d57600080fd5b505af1158015611021573d6000803e3d6000fd5b505050506040513d601f19601f820116820180604052508101906110459190612e04565b600560008060ff16815260200190815260200160002060010160006101000a81548160ff021916908360ff1602179055506002600560008060ff16815260200190815260200160002060010160009054906101000a900460ff1660ff1614156110d857426006819055506000600560008060ff16815260200190815260200160002060010160009054906101000a905050505b6003600560008060ff16815260200190815260200160002060010160009054906101000a900460ff1660ff161415611133576000600560008060ff16815260200190815260200160002060010160009054906101000a905050505b5050565b6000600360009054906101000a900473ffffffffffffffffffffffffffffffffffffffff1673ffffffffffffffffffffffffffffffffffffffff1663d9acec53338585600160009054906101000a900473ffffffffffffffffffffffffffffffffffffffff16600260009054906101000a900473ffffffffffffffffffffffffffffffffffffffff1660008054906101000a900473ffffffffffffffffffffffffffffffffffffffff16600860009054906101000a900473ffffffffffffffffffffffffffffffffffffffff16600e546040518963ffffffff1660e01b815260040161122a989796959493929190612f96565b602060405180830381600087803b15801561124457600080fd5b505af1158015611258573d6000803e3d6000fd5b505050506040513d601f19601f8201168201806040525081019061127c9190612c36565b9050600a819080600181540180825580915050600190039060005260206000200160009091909190916101000a81548173ffffffffffffffffffffffffffffffffffffffff021916908373ffffffffffffffffffffffffffffffffffffffff1602179055506001600d60008373ffffffffffffffffffffffffffffffffffffffff1673ffffffffffffffffffffffffffffffffffffffff16815260200190815260200160002060006101000a81548160ff0219169083151502179055506001600c600082825461134c91906132ec565b92505081905550505050565b6000600654905090565b600f5481565b600160009054906101000a900473ffffffffffffffffffffffffffffffffffffffff1681565b600260009054906101000a900473ffffffffffffffffffffffffffffffffffffffff1681565b600d60003373ffffffffffffffffffffffffffffffffffffffff1673ffffffffffffffffffffffffffffffffffffffff16815260200190815260200160002060009054906101000a900460ff1661140a57600080fd5b600160009054906101000a900473ffffffffffffffffffffffffffffffffffffffff1673ffffffffffffffffffffffffffffffffffffffff16639dc29fac33600160009054906101000a900473ffffffffffffffffffffffffffffffffffffffff1673ffffffffffffffffffffffffffffffffffffffff166370a08231336040518263ffffffff1660e01b81526004016114a49190612f7b565b60206040518083038186803b1580156114bc57600080fd5b505afa1580156114d0573d6000803e3d6000fd5b505050506040513d601f19601f820116820180604052508101906114f49190612daa565b6040518363ffffffff1660e01b81526004016115119291906130ac565b600060405180830381600087803b15801561152b57600080fd5b505af115801561153f573d6000803e3d6000fd5b50505050565b6000600160009054906101000a900473ffffffffffffffffffffffffffffffffffffffff1673ffffffffffffffffffffffffffffffffffffffff166370a08231336040518263ffffffff1660e01b81526004016115a29190612f7b565b60206040518083038186803b1580156115ba57600080fd5b505afa1580156115ce573d6000803e3d6000fd5b505050506040513d601f19601f820116820180604052508101906115f29190612daa565b116115fc57600080fd5b6000600960008373ffffffffffffffffffffffffffffffffffffffff1673ffffffffffffffffffffffffffffffffffffffff168152602001908152602001600020541461167e576040517f08c379a0000000000000000000000000000000000000000000000000000000008152600401611675906131fc565b60405180910390fd5b6007819080600181540180825580915050600190039060005260206000200160009091909190916101000a81548173ffffffffffffffffffffffffffffffffffffffff021916908373ffffffffffffffffffffffffffffffffffffffff16021790555060016007805490506116f3919061339c565b600960008373ffffffffffffffffffffffffffffffffffffffff1673ffffffffffffffffffffffffffffffffffffffff1681526020019081526020016000208190555050565b600a818154811061174957600080fd5b906000526020600020016000915054906101000a900473ffffffffffffffffffffffffffffffffffffffff1681565b600460009054906101000a900473ffffffffffffffffffffffffffffffffffffffff1681565b600f54600654426117af919061339c565b116117b957600080fd5b60005b600b8054905081101561187a57600b81815481106117dd576117dc6135ab565b5b9060005260206000200160009054906101000a900473ffffffffffffffffffffffffffffffffffffffff1673ffffffffffffffffffffffffffffffffffffffff16631b9265b86040518163ffffffff1660e01b8152600401600060405180830381600087803b15801561184f57600080fd5b505af1158015611863573d6000803e3d6000fd5b50505050808061187290613533565b9150506117bc565b504260068190555061188a612ae7565b565b600860009054906101000a900473ffffffffffffffffffffffffffffffffffffffff1681565b6004816001600560008460ff1660ff16815260200190815260200160002060010160009054906101000a900460ff1660ff161115611925576040517f08c379a000000000000000000000000000000000000000000000000000000000815260040161191c906131bc565b60405180910390fd5b6000600560008460ff1660ff16815260200190815260200160002060010160009054906101000a900460ff1660ff161415611b325760008054906101000a900473ffffffffffffffffffffffffffffffffffffffff1673ffffffffffffffffffffffffffffffffffffffff16637b6e5f9c60046010600f9054906101000a900464ffffffffff16601060009054906101000a90046effffffffffffffffffffffffffffff16600160009054906101000a900473ffffffffffffffffffffffffffffffffffffffff1673ffffffffffffffffffffffffffffffffffffffff166318160ddd6040518163ffffffff1660e01b815260040160206040518083038186803b158015611a3257600080fd5b505afa158015611a46573d6000803e3d6000fd5b505050506040513d601f19601f82011682018060405250810190611a6a9190612daa565b6040518563ffffffff1660e01b8152600401611a899493929190613177565b602060405180830381600087803b158015611aa357600080fd5b505af1158015611ab7573d6000803e3d6000fd5b505050506040513d601f19601f82011682018060405250810190611adb9190612daa565b600560008460ff1660ff168152602001908152602001600020600001819055506001600560008460ff1660ff16815260200190815260200160002060010160006101000a81548160ff021916908360ff1602179055505b60008054906101000a900473ffffffffffffffffffffffffffffffffffffffff1673ffffffffffffffffffffffffffffffffffffffff1663e31f7b28600560008060ff168152602001908152602001600020600001543384600160009054906101000a900473ffffffffffffffffffffffffffffffffffffffff1673ffffffffffffffffffffffffffffffffffffffff166370a08231336040518263ffffffff1660e01b8152600401611be59190612f7b565b60206040518083038186803b158015611bfd57600080fd5b505afa158015611c11573d6000803e3d6000fd5b505050506040513d601f19601f82011682018060405250810190611c359190612daa565b6040518563ffffffff1660e01b8152600401611c549493929190613252565b602060405180830381600087803b158015611c6e57600080fd5b505af1158015611c82573d6000803e3d6000fd5b505050506040513d601f19601f82011682018060405250810190611ca69190612e04565b600560008060ff16815260200190815260200160002060010160006101000a81548160ff021916908360ff1602179055506002600560008060ff16815260200190815260200160002060010160009054906101000a900460ff1660ff161415611d92578273ffffffffffffffffffffffffffffffffffffffff16633ccfd60b6040518163ffffffff1660e01b8152600401600060405180830381600087803b158015611d5157600080fd5b505af1158015611d65573d6000803e3d6000fd5b505050506000600560008060ff16815260200190815260200160002060010160009054906101000a905050505b6003600560008060ff16815260200190815260200160002060010160009054906101000a900460ff1660ff161415611ded576000600560008060ff16815260200190815260200160002060010160009054906101000a905050505b505050565b600d60003373ffffffffffffffffffffffffffffffffffffffff1673ffffffffffffffffffffffffffffffffffffffff16815260200190815260200160002060009054906101000a900460ff16611e4857600080fd5b600160009054906101000a900473ffffffffffffffffffffffffffffffffffffffff1673ffffffffffffffffffffffffffffffffffffffff166340c10f1933836040518363ffffffff1660e01b8152600401611ea59291906130ac565b600060405180830381600087803b158015611ebf57600080fd5b505af1158015611ed3573d6000803e3d6000fd5b5050505050565b601060009054906101000a90046effffffffffffffffffffffffffffff1681565b60065481565b600b8181548110611f1157600080fd5b906000526020600020016000915054906101000a900473ffffffffffffffffffffffffffffffffffffffff1681565b6000600460009054906101000a900473ffffffffffffffffffffffffffffffffffffffff1673ffffffffffffffffffffffffffffffffffffffff1663842d201a33600160009054906101000a900473ffffffffffffffffffffffffffffffffffffffff16600860009054906101000a900473ffffffffffffffffffffffffffffffffffffffff1660008054906101000a900473ffffffffffffffffffffffffffffffffffffffff16600e54600f54896040518863ffffffff1660e01b81526004016120119796959493929190613014565b602060405180830381600087803b15801561202b57600080fd5b505af115801561203f573d6000803e3d6000fd5b505050506040513d601f19601f820116820180604052508101906120639190612c36565b9050600b819080600181540180825580915050600190039060005260206000200160009091909190916101000a81548173ffffffffffffffffffffffffffffffffffffffff021916908373ffffffffffffffffffffffffffffffffffffffff1602179055506001600d60008373ffffffffffffffffffffffffffffffffffffffff1673ffffffffffffffffffffffffffffffffffffffff16815260200190815260200160002060006101000a81548160ff0219169083151502179055506001600c600082825461213391906132ec565b925050819055505050565b600360009054906101000a900473ffffffffffffffffffffffffffffffffffffffff1681565b6010600f9054906101000a900464ffffffffff1681565b600e5481565b60006007600960008473ffffffffffffffffffffffffffffffffffffffff1673ffffffffffffffffffffffffffffffffffffffff16815260200190815260200160002054815481106121d6576121d56135ab565b5b9060005260206000200160006101000a81548173ffffffffffffffffffffffffffffffffffffffff021916908373ffffffffffffffffffffffffffffffffffffffff1602179055506000600960008373ffffffffffffffffffffffffffffffffffffffff1673ffffffffffffffffffffffffffffffffffffffff1681526020019081526020016000208190555050565b600d60003373ffffffffffffffffffffffffffffffffffffffff1673ffffffffffffffffffffffffffffffffffffffff16815260200190815260200160002060009054906101000a900460ff166122bc57600080fd5b600160009054906101000a900473ffffffffffffffffffffffffffffffffffffffff1673ffffffffffffffffffffffffffffffffffffffff166340c10f1983836040518363ffffffff1660e01b8152600401612319929190613083565b600060405180830381600087803b15801561233357600080fd5b505af1158015612347573d6000803e3d6000fd5b505050505050565b6000612390576040517f08c379a0000000000000000000000000000000000000000000000000000000008152600401612387906131dc565b60405180910390fd5b81600360006101000a81548173ffffffffffffffffffffffffffffffffffffffff021916908373ffffffffffffffffffffffffffffffffffffffff16021790555080600460006101000a81548173ffffffffffffffffffffffffffffffffffffffff021916908373ffffffffffffffffffffffffffffffffffffffff1602179055505050565b600c5481565b6007818154811061242c57600080fd5b906000526020600020016000915054906101000a900473ffffffffffffffffffffffffffffffffffffffff1681565b60056020528060005260406000206000915090508060000154908060010160009054906101000a900460ff16905082565b806000600960008373ffffffffffffffffffffffffffffffffffffffff1673ffffffffffffffffffffffffffffffffffffffff16815260200190815260200160002054116124d957600080fd5b6000826001600560008460ff1660ff16815260200190815260200160002060010160009054906101000a900460ff1660ff16111561254c576040517f08c379a0000000000000000000000000000000000000000000000000000000008152600401612543906131bc565b60405180910390fd5b6000600560008460ff1660ff16815260200190815260200160002060010160009054906101000a900460ff1660ff1614156127595760008054906101000a900473ffffffffffffffffffffffffffffffffffffffff1673ffffffffffffffffffffffffffffffffffffffff16637b6e5f9c60046010600f9054906101000a900464ffffffffff16601060009054906101000a90046effffffffffffffffffffffffffffff16600160009054906101000a900473ffffffffffffffffffffffffffffffffffffffff1673ffffffffffffffffffffffffffffffffffffffff166318160ddd6040518163ffffffff1660e01b815260040160206040518083038186803b15801561265957600080fd5b505afa15801561266d573d6000803e3d6000fd5b505050506040513d601f19601f820116820180604052508101906126919190612daa565b6040518563ffffffff1660e01b81526004016126b09493929190613177565b602060405180830381600087803b1580156126ca57600080fd5b505af11580156126de573d6000803e3d6000fd5b505050506040513d601f19601f820116820180604052508101906127029190612daa565b600560008460ff1660ff168152602001908152602001600020600001819055506001600560008460ff1660ff16815260200190815260200160002060010160006101000a81548160ff021916908360ff1602179055505b60008054906101000a900473ffffffffffffffffffffffffffffffffffffffff1673ffffffffffffffffffffffffffffffffffffffff1663e31f7b28600560008060ff168152602001908152602001600020600001543384600160009054906101000a900473ffffffffffffffffffffffffffffffffffffffff1673ffffffffffffffffffffffffffffffffffffffff166370a08231336040518263ffffffff1660e01b815260040161280c9190612f7b565b60206040518083038186803b15801561282457600080fd5b505afa158015612838573d6000803e3d6000fd5b505050506040513d601f19601f8201168201806040525081019061285c9190612daa565b6040518563ffffffff1660e01b815260040161287b9493929190613252565b602060405180830381600087803b15801561289557600080fd5b505af11580156128a9573d6000803e3d6000fd5b505050506040513d601f19601f820116820180604052508101906128cd9190612e04565b600560008060ff16815260200190815260200160002060010160006101000a81548160ff021916908360ff1602179055506002600560008060ff16815260200190815260200160002060010160009054906101000a900460ff1660ff161415612a625760008060009054906101000a900473ffffffffffffffffffffffffffffffffffffffff1673ffffffffffffffffffffffffffffffffffffffff1663b17979a6600560008060ff168152602001908152602001600020600001546040518263ffffffff1660e01b81526004016129a59190613237565b60206040518083038186803b1580156129bd57600080fd5b505afa1580156129d1573d6000803e3d6000fd5b505050506040513d601f19601f820116820180604052508101906129f59190612c36565b905080600860006101000a81548173ffffffffffffffffffffffffffffffffffffffff021916908373ffffffffffffffffffffffffffffffffffffffff160217905550506000600560008060ff16815260200190815260200160002060010160009054906101000a905050505b6003600560008060ff16815260200190815260200160002060010160009054906101000a900460ff1660ff161415612abd576000600560008060ff16815260200190815260200160002060010160009054906101000a905050505b50505050565b60008054906101000a900473ffffffffffffffffffffffffffffffffffffffff1681565b600015612b4a576000620f424090503373ffffffffffffffffffffffffffffffffffffffff166108fc3a83612b1c9190613342565b9081150290604051600060405180830381858888f19350505050158015612b47573d6000803e3d6000fd5b50505b565b600081359050612b5b81613680565b92915050565b600081519050612b7081613680565b92915050565b600081359050612b8581613697565b92915050565b600081519050612b9a816136ae565b92915050565b600081359050612baf816136c5565b92915050565b600081359050612bc4816136dc565b92915050565b600081519050612bd9816136dc565b92915050565b600081359050612bee816136f3565b92915050565b600081519050612c03816136f3565b92915050565b600060208284031215612c1f57612c1e6135da565b5b6000612c2d84828501612b4c565b91505092915050565b600060208284031215612c4c57612c4b6135da565b5b6000612c5a84828501612b61565b91505092915050565b60008060408385031215612c7a57612c796135da565b5b6000612c8885828601612b76565b9250506020612c9985828601612b76565b9150509250929050565b60008060408385031215612cba57612cb96135da565b5b6000612cc885828601612b76565b9250506020612cd985828601612bb5565b9150509250929050565b60008060408385031215612cfa57612cf96135da565b5b6000612d0885828601612b4c565b9250506020612d1985828601612b4c565b9150509250929050565b600060208284031215612d3957612d386135da565b5b6000612d4784828501612b8b565b91505092915050565b600060208284031215612d6657612d656135da565b5b6000612d7484828501612ba0565b91505092915050565b600060208284031215612d9357612d926135da565b5b6000612da184828501612bb5565b91505092915050565b600060208284031215612dc057612dbf6135da565b5b6000612dce84828501612bca565b91505092915050565b600060208284031215612ded57612dec6135da565b5b6000612dfb84828501612bdf565b91505092915050565b600060208284031215612e1a57612e196135da565b5b6000612e2884828501612bf4565b91505092915050565b612e3a8161347f565b82525050565b612e49816133e2565b82525050565b612e58816133d0565b82525050565b612e6781613491565b82525050565b612e76816134a3565b82525050565b612e85816134b5565b82525050565b612e94816134c7565b82525050565b612ea3816134d9565b82525050565b612eb2816134eb565b82525050565b612ec1816134fd565b82525050565b6000612ed46012836132db565b9150612edf826135df565b602082019050919050565b6000612ef76025836132db565b9150612f0282613608565b604082019050919050565b6000612f1a600e836132db565b9150612f2582613657565b602082019050919050565b612f3981613400565b82525050565b612f488161341b565b82525050565b612f5781613457565b82525050565b612f6681613461565b82525050565b612f7581613472565b82525050565b6000602082019050612f906000830184612e4f565b92915050565b600061010082019050612fac600083018b612e40565b612fb9602083018a612e31565b612fc66040830189612e31565b612fd36060830188612e4f565b612fe06080830187612e4f565b612fed60a0830186612e4f565b612ffa60c0830185612e4f565b61300760e0830184612f4e565b9998505050505050505050565b600060e082019050613029600083018a612e40565b6130366020830189612e4f565b6130436040830188612e4f565b6130506060830187612e4f565b61305d6080830186612f4e565b61306a60a0830185612f4e565b61307760c0830184612f4e565b98975050505050505050565b60006040820190506130986000830185612e31565b6130a56020830184612f4e565b9392505050565b60006040820190506130c16000830185612e4f565b6130ce6020830184612f4e565b9392505050565b60006020820190506130ea6000830184612e5e565b92915050565b60006020820190506131056000830184612e6d565b92915050565b60006020820190506131206000830184612e7c565b92915050565b600060208201905061313b6000830184612e8b565b92915050565b60006020820190506131566000830184612e9a565b92915050565b60006020820190506131716000830184612ea9565b92915050565b600060808201905061318c6000830187612eb8565b6131996020830186612f5d565b6131a66040830185612f30565b6131b36060830184612f30565b95945050505050565b600060208201905081810360008301526131d581612ec7565b9050919050565b600060208201905081810360008301526131f581612eea565b9050919050565b6000602082019050818103600083015261321581612f0d565b9050919050565b60006020820190506132316000830184612f30565b92915050565b600060208201905061324c6000830184612f4e565b92915050565b60006080820190506132676000830187612f4e565b6132746020830186612e4f565b6132816040830185612e4f565b61328e6060830184612f3f565b95945050505050565b60006040820190506132ac6000830185612f4e565b6132b96020830184612f6c565b9392505050565b60006020820190506132d56000830184612f5d565b92915050565b600082825260208201905092915050565b60006132f782613457565b915061330283613457565b9250827fffffffffffffffffffffffffffffffffffffffffffffffffffffffffffffffff038211156133375761333661357c565b5b828201905092915050565b600061334d82613457565b915061335883613457565b9250817fffffffffffffffffffffffffffffffffffffffffffffffffffffffffffffffff04831182151516156133915761339061357c565b5b828202905092915050565b60006133a782613457565b91506133b283613457565b9250828210156133c5576133c461357c565b5b828203905092915050565b60006133db82613437565b9050919050565b60006133ed82613437565b9050919050565b60008115159050919050565b60006effffffffffffffffffffffffffffff82169050919050565b60006fffffffffffffffffffffffffffffffff82169050919050565b600073ffffffffffffffffffffffffffffffffffffffff82169050919050565b6000819050919050565b600064ffffffffff82169050919050565b600060ff82169050919050565b600061348a8261350f565b9050919050565b600061349c8261350f565b9050919050565b60006134ae8261350f565b9050919050565b60006134c08261350f565b9050919050565b60006134d28261350f565b9050919050565b60006134e48261350f565b9050919050565b60006134f68261350f565b9050919050565b600061350882613472565b9050919050565b600061351a82613521565b9050919050565b600061352c82613437565b9050919050565b600061353e82613457565b91507fffffffffffffffffffffffffffffffffffffffffffffffffffffffffffffffff8214156135715761357061357c565b5b600182019050919050565b7f4e487b7100000000000000000000000000000000000000000000000000000000600052601160045260246000fd5b7f4e487b7100000000000000000000000000000000000000000000000000000000600052603260045260246000fd5b600080fd5b7f696e616374697665206f72206163746976650000000000000000000000000000600082015250565b7f2072657175697265732044414f20564f54452e20546f20626520696d706c656d60008201527f656e746564000000000000000000000000000000000000000000000000000000602082015250565b7f616c726561647920657869737473000000000000000000000000000000000000600082015250565b613689816133d0565b811461369457600080fd5b50565b6136a0816133e2565b81146136ab57600080fd5b50565b6136b7816133f4565b81146136c257600080fd5b50565b6136ce81613437565b81146136d957600080fd5b50565b6136e581613457565b81146136f057600080fd5b50565b6136fc81613472565b811461370757600080fd5b5056fea26469706673582212201e1526f9f9c33b51c3d09baa3383b36d86fdcdb9706cea579cabc952f9048e3e64736f6c634300080700336080604052348015600f57600080fd5b50603f80601d6000396000f3fe6080604052600080fdfea2646970667358221220c139efeb2d1b64d42aa0d3796f49c67072e0819abc8274d7121cd986035f3a5364736f6c63430008070033a26469706673582212203593a2c2099fe41a78e45ed9de0b890302e9929767a2980ae0566a576ad5d79b64736f6c63430008070033608060405262093a80600e556101f4601060006101000a8154816effffffffffffffffffffffffffffff02191690836effffffffffffffffffffffffffffff160217905550620d2f006010600f6101000a81548164ffffffffff021916908364ffffffffff1602179055503480156200007757600080fd5b5060405162003a6738038062003a6783398181016040528101906200009d919062000221565b816000806101000a81548173ffffffffffffffffffffffffffffffffffffffff021916908373ffffffffffffffffffffffffffffffffffffffff16021790555080600160006101000a81548173ffffffffffffffffffffffffffffffffffffffff021916908373ffffffffffffffffffffffffffffffffffffffff1602179055506040516200012c90620001fd565b604051809103906000f08015801562000149573d6000803e3d6000fd5b50600260006101000a81548173ffffffffffffffffffffffffffffffffffffffff021916908373ffffffffffffffffffffffffffffffffffffffff160217905550600760009080600181540180825580915050600190039060005260206000200160009091909190916101000a81548173ffffffffffffffffffffffffffffffffffffffff021916908373ffffffffffffffffffffffffffffffffffffffff160217905550426006819055505050620002bb565b605c8062003a0b83390190565b6000815190506200021b81620002a1565b92915050565b600080604083850312156200023b576200023a6200029c565b5b60006200024b858286016200020a565b92505060206200025e858286016200020a565b9150509250929050565b600062000275826200027c565b9050919050565b600073ffffffffffffffffffffffffffffffffffffffff82169050919050565b600080fd5b620002ac8162000268565b8114620002b857600080fd5b50565b61374080620002cb6000396000f3fe608060405234801561001057600080fd5b50600436106101e45760003560e01c806382d6ddff1161010f578063a5125421116100a2578063de66084111610071578063de660841146104e7578063e093ba8214610517578063f74b059e14610548578063fce1ccca14610564576101e4565b8063a512542114610475578063bca0adcb14610491578063d98d7955146104ad578063db5e4c7f146104c9576101e4565b80639ca09d1c116100de5780639ca09d1c146103ff5780639cc52b5d1461041b578063a09312fd14610439578063a3db1d2014610457576101e4565b806382d6ddff1461037757806382f072e8146103935780638a14ae8a146103b157806398ba130b146103cf576101e4565b80632fee8e3e116101875780635ab2ec0d116101565780635ab2ec0d1461031557806363bd1d4a146103335780636412173e1461033d5780638005bc951461035b576101e4565b80632fee8e3e146102a157806336061081146102bf5780634a7dc8e0146102c957806350fa62e3146102e5576101e4565b80631b6405fe116101c35780631b6405fe1461022b5780631c0701df146102475780631cc1cf461461026557806329034a5c14610283576101e4565b8062d117d4146101e957806312514bba1461020557806313f6d05c14610221575b600080fd5b61020360048036038101906101fe9190612d50565b610582565b005b61021f600480360381019061021a9190612d7d565b610b47565b005b610229610c50565b005b61024560048036038101906102409190612c63565b611137565b005b61024f611358565b60405161025c9190613237565b60405180910390f35b61026d611362565b60405161027a9190613237565b60405180910390f35b61028b611368565b6040516102989190613141565b60405180910390f35b6102a961138e565b6040516102b691906130d5565b60405180910390f35b6102c76113b4565b005b6102e360048036038101906102de9190612c09565b611545565b005b6102ff60048036038101906102fa9190612d7d565b611739565b60405161030c9190612f7b565b60405180910390f35b61031d611778565b60405161032a9190613126565b60405180910390f35b61033b61179e565b005b61034561188c565b604051610352919061310b565b60405180910390f35b61037560048036038101906103709190612c09565b6118b2565b005b610391600480360381019061038c9190612d7d565b611df2565b005b61039b611eda565b6040516103a8919061321c565b60405180910390f35b6103b9611efb565b6040516103c69190613237565b60405180910390f35b6103e960048036038101906103e49190612d7d565b611f01565b6040516103f69190612f7b565b60405180910390f35b61041960048036038101906104149190612d7d565b611f40565b005b61042361213e565b60405161043091906130f0565b60405180910390f35b610441612164565b60405161044e91906132c0565b60405180910390f35b61045f61217b565b60405161046c9190613237565b60405180910390f35b61048f600480360381019061048a9190612c09565b612181565b005b6104ab60048036038101906104a69190612ca3565b612266565b005b6104c760048036038101906104c29190612ce3565b61234f565b005b6104d1612416565b6040516104de9190613237565b60405180910390f35b61050160048036038101906104fc9190612d7d565b61241c565b60405161050e9190612f7b565b60405180910390f35b610531600480360381019061052c9190612dd7565b61245b565b60405161053f929190613297565b60405180910390f35b610562600480360381019061055d9190612c09565b61248c565b005b61056c612ac3565b604051610579919061315c565b60405180910390f35b6002816001600560008460ff1660ff16815260200190815260200160002060010160009054906101000a900460ff1660ff1611156105f5576040517f08c379a00000000000000000000000000000000000000000000000000000000081526004016105ec906131bc565b60405180910390fd5b6000600560008460ff1660ff16815260200190815260200160002060010160009054906101000a900460ff1660ff1614156108025760008054906101000a900473ffffffffffffffffffffffffffffffffffffffff1673ffffffffffffffffffffffffffffffffffffffff16637b6e5f9c60046010600f9054906101000a900464ffffffffff16601060009054906101000a90046effffffffffffffffffffffffffffff16600160009054906101000a900473ffffffffffffffffffffffffffffffffffffffff1673ffffffffffffffffffffffffffffffffffffffff166318160ddd6040518163ffffffff1660e01b815260040160206040518083038186803b15801561070257600080fd5b505afa158015610716573d6000803e3d6000fd5b505050506040513d601f19601f8201168201806040525081019061073a9190612daa565b6040518563ffffffff1660e01b81526004016107599493929190613177565b602060405180830381600087803b15801561077357600080fd5b505af1158015610787573d6000803e3d6000fd5b505050506040513d601f19601f820116820180604052508101906107ab9190612daa565b600560008460ff1660ff168152602001908152602001600020600001819055506001600560008460ff1660ff16815260200190815260200160002060010160006101000a81548160ff021916908360ff1602179055505b60008054906101000a900473ffffffffffffffffffffffffffffffffffffffff1673ffffffffffffffffffffffffffffffffffffffff1663e31f7b28600560008060ff168152602001908152602001600020600001543384600160009054906101000a900473ffffffffffffffffffffffffffffffffffffffff1673ffffffffffffffffffffffffffffffffffffffff166370a08231336040518263ffffffff1660e01b81526004016108b59190612f7b565b60206040518083038186803b1580156108cd57600080fd5b505afa1580156108e1573d6000803e3d6000fd5b505050506040513d601f19601f820116820180604052508101906109059190612daa565b6040518563ffffffff1660e01b81526004016109249493929190613252565b602060405180830381600087803b15801561093e57600080fd5b505af1158015610952573d6000803e3d6000fd5b505050506040513d601f19601f820116820180604052508101906109769190612e04565b600560008060ff16815260200190815260200160002060010160006101000a81548160ff021916908360ff1602179055506002600560008060ff16815260200190815260200160002060010160009054906101000a900460ff1660ff161415610ae75760008060009054906101000a900473ffffffffffffffffffffffffffffffffffffffff1673ffffffffffffffffffffffffffffffffffffffff1663b17979a6600560008060ff168152602001908152602001600020600001546040518263ffffffff1660e01b8152600401610a4e9190613237565b60206040518083038186803b158015610a6657600080fd5b505afa158015610a7a573d6000803e3d6000fd5b505050506040513d601f19601f82011682018060405250810190610a9e9190612c36565b90508073ffffffffffffffffffffffffffffffffffffffff16600f81905550506000600560008060ff16815260200190815260200160002060010160009054906101000a905050505b6003600560008060ff16815260200190815260200160002060010160009054906101000a900460ff1660ff161415610b42576000600560008060ff16815260200190815260200160002060010160009054906101000a905050505b505050565b600d60003373ffffffffffffffffffffffffffffffffffffffff1673ffffffffffffffffffffffffffffffffffffffff16815260200190815260200160002060009054906101000a900460ff16610b9d57600080fd5b600860009054906101000a900473ffffffffffffffffffffffffffffffffffffffff1673ffffffffffffffffffffffffffffffffffffffff1663a9059cbb33836040518363ffffffff1660e01b8152600401610bfa9291906130ac565b602060405180830381600087803b158015610c1457600080fd5b505af1158015610c28573d6000803e3d6000fd5b505050506040513d601f19601f82011682018060405250810190610c4c9190612d23565b5050565b600360006001600560008460ff1660ff16815260200190815260200160002060010160009054906101000a900460ff1660ff161115610cc4576040517f08c379a0000000000000000000000000000000000000000000000000000000008152600401610cbb906131bc565b60405180910390fd5b6000600560008460ff1660ff16815260200190815260200160002060010160009054906101000a900460ff1660ff161415610ed15760008054906101000a900473ffffffffffffffffffffffffffffffffffffffff1673ffffffffffffffffffffffffffffffffffffffff16637b6e5f9c60046010600f9054906101000a900464ffffffffff16601060009054906101000a90046effffffffffffffffffffffffffffff16600160009054906101000a900473ffffffffffffffffffffffffffffffffffffffff1673ffffffffffffffffffffffffffffffffffffffff166318160ddd6040518163ffffffff1660e01b815260040160206040518083038186803b158015610dd157600080fd5b505afa158015610de5573d6000803e3d6000fd5b505050506040513d601f19601f82011682018060405250810190610e099190612daa565b6040518563ffffffff1660e01b8152600401610e289493929190613177565b602060405180830381600087803b158015610e4257600080fd5b505af1158015610e56573d6000803e3d6000fd5b505050506040513d601f19601f82011682018060405250810190610e7a9190612daa565b600560008460ff1660ff168152602001908152602001600020600001819055506001600560008460ff1660ff16815260200190815260200160002060010160006101000a81548160ff021916908360ff1602179055505b60008054906101000a900473ffffffffffffffffffffffffffffffffffffffff1673ffffffffffffffffffffffffffffffffffffffff1663e31f7b28600560008060ff168152602001908152602001600020600001543384600160009054906101000a900473ffffffffffffffffffffffffffffffffffffffff1673ffffffffffffffffffffffffffffffffffffffff166370a08231336040518263ffffffff1660e01b8152600401610f849190612f7b565b60206040518083038186803b158015610f9c57600080fd5b505afa158015610fb0573d6000803e3d6000fd5b505050506040513d601f19601f82011682018060405250810190610fd49190612daa565b6040518563ffffffff1660e01b8152600401610ff39493929190613252565b602060405180830381600087803b15801561100d57600080fd5b505af1158015611021573d6000803e3d6000fd5b505050506040513d601f19601f820116820180604052508101906110459190612e04565b600560008060ff16815260200190815260200160002060010160006101000a81548160ff021916908360ff1602179055506002600560008060ff16815260200190815260200160002060010160009054906101000a900460ff1660ff1614156110d857426006819055506000600560008060ff16815260200190815260200160002060010160009054906101000a905050505b6003600560008060ff16815260200190815260200160002060010160009054906101000a900460ff1660ff161415611133576000600560008060ff16815260200190815260200160002060010160009054906101000a905050505b5050565b6000600360009054906101000a900473ffffffffffffffffffffffffffffffffffffffff1673ffffffffffffffffffffffffffffffffffffffff1663d9acec53338585600160009054906101000a900473ffffffffffffffffffffffffffffffffffffffff16600260009054906101000a900473ffffffffffffffffffffffffffffffffffffffff1660008054906101000a900473ffffffffffffffffffffffffffffffffffffffff16600860009054906101000a900473ffffffffffffffffffffffffffffffffffffffff16600e546040518963ffffffff1660e01b815260040161122a989796959493929190612f96565b602060405180830381600087803b15801561124457600080fd5b505af1158015611258573d6000803e3d6000fd5b505050506040513d601f19601f8201168201806040525081019061127c9190612c36565b9050600a819080600181540180825580915050600190039060005260206000200160009091909190916101000a81548173ffffffffffffffffffffffffffffffffffffffff021916908373ffffffffffffffffffffffffffffffffffffffff1602179055506001600d60008373ffffffffffffffffffffffffffffffffffffffff1673ffffffffffffffffffffffffffffffffffffffff16815260200190815260200160002060006101000a81548160ff0219169083151502179055506001600c600082825461134c91906132ec565b92505081905550505050565b6000600654905090565b600f5481565b600160009054906101000a900473ffffffffffffffffffffffffffffffffffffffff1681565b600260009054906101000a900473ffffffffffffffffffffffffffffffffffffffff1681565b600d60003373ffffffffffffffffffffffffffffffffffffffff1673ffffffffffffffffffffffffffffffffffffffff16815260200190815260200160002060009054906101000a900460ff1661140a57600080fd5b600160009054906101000a900473ffffffffffffffffffffffffffffffffffffffff1673ffffffffffffffffffffffffffffffffffffffff16639dc29fac33600160009054906101000a900473ffffffffffffffffffffffffffffffffffffffff1673ffffffffffffffffffffffffffffffffffffffff166370a08231336040518263ffffffff1660e01b81526004016114a49190612f7b565b60206040518083038186803b1580156114bc57600080fd5b505afa1580156114d0573d6000803e3d6000fd5b505050506040513d601f19601f820116820180604052508101906114f49190612daa565b6040518363ffffffff1660e01b81526004016115119291906130ac565b600060405180830381600087803b15801561152b57600080fd5b505af115801561153f573d6000803e3d6000fd5b50505050565b6000600160009054906101000a900473ffffffffffffffffffffffffffffffffffffffff1673ffffffffffffffffffffffffffffffffffffffff166370a08231336040518263ffffffff1660e01b81526004016115a29190612f7b565b60206040518083038186803b1580156115ba57600080fd5b505afa1580156115ce573d6000803e3d6000fd5b505050506040513d601f19601f820116820180604052508101906115f29190612daa565b116115fc57600080fd5b6000600960008373ffffffffffffffffffffffffffffffffffffffff1673ffffffffffffffffffffffffffffffffffffffff168152602001908152602001600020541461167e576040517f08c379a0000000000000000000000000000000000000000000000000000000008152600401611675906131fc565b60405180910390fd5b6007819080600181540180825580915050600190039060005260206000200160009091909190916101000a81548173ffffffffffffffffffffffffffffffffffffffff021916908373ffffffffffffffffffffffffffffffffffffffff16021790555060016007805490506116f3919061339c565b600960008373ffffffffffffffffffffffffffffffffffffffff1673ffffffffffffffffffffffffffffffffffffffff1681526020019081526020016000208190555050565b600a818154811061174957600080fd5b906000526020600020016000915054906101000a900473ffffffffffffffffffffffffffffffffffffffff1681565b600460009054906101000a900473ffffffffffffffffffffffffffffffffffffffff1681565b600f54600654426117af919061339c565b116117b957600080fd5b60005b600b8054905081101561187a57600b81815481106117dd576117dc6135ab565b5b9060005260206000200160009054906101000a900473ffffffffffffffffffffffffffffffffffffffff1673ffffffffffffffffffffffffffffffffffffffff16631b9265b86040518163ffffffff1660e01b8152600401600060405180830381600087803b15801561184f57600080fd5b505af1158015611863573d6000803e3d6000fd5b50505050808061187290613533565b9150506117bc565b504260068190555061188a612ae7565b565b600860009054906101000a900473ffffffffffffffffffffffffffffffffffffffff1681565b6004816001600560008460ff1660ff16815260200190815260200160002060010160009054906101000a900460ff1660ff161115611925576040517f08c379a000000000000000000000000000000000000000000000000000000000815260040161191c906131bc565b60405180910390fd5b6000600560008460ff1660ff16815260200190815260200160002060010160009054906101000a900460ff1660ff161415611b325760008054906101000a900473ffffffffffffffffffffffffffffffffffffffff1673ffffffffffffffffffffffffffffffffffffffff16637b6e5f9c60046010600f9054906101000a900464ffffffffff16601060009054906101000a90046effffffffffffffffffffffffffffff16600160009054906101000a900473ffffffffffffffffffffffffffffffffffffffff1673ffffffffffffffffffffffffffffffffffffffff166318160ddd6040518163ffffffff1660e01b815260040160206040518083038186803b158015611a3257600080fd5b505afa158015611a46573d6000803e3d6000fd5b505050506040513d601f19601f82011682018060405250810190611a6a9190612daa565b6040518563ffffffff1660e01b8152600401611a899493929190613177565b602060405180830381600087803b158015611aa357600080fd5b505af1158015611ab7573d6000803e3d6000fd5b505050506040513d601f19601f82011682018060405250810190611adb9190612daa565b600560008460ff1660ff168152602001908152602001600020600001819055506001600560008460ff1660ff16815260200190815260200160002060010160006101000a81548160ff021916908360ff1602179055505b60008054906101000a900473ffffffffffffffffffffffffffffffffffffffff1673ffffffffffffffffffffffffffffffffffffffff1663e31f7b28600560008060ff168152602001908152602001600020600001543384600160009054906101000a900473ffffffffffffffffffffffffffffffffffffffff1673ffffffffffffffffffffffffffffffffffffffff166370a08231336040518263ffffffff1660e01b8152600401611be59190612f7b565b60206040518083038186803b158015611bfd57600080fd5b505afa158015611c11573d6000803e3d6000fd5b505050506040513d601f19601f82011682018060405250810190611c359190612daa565b6040518563ffffffff1660e01b8152600401611c549493929190613252565b602060405180830381600087803b158015611c6e57600080fd5b505af1158015611c82573d6000803e3d6000fd5b505050506040513d601f19601f82011682018060405250810190611ca69190612e04565b600560008060ff16815260200190815260200160002060010160006101000a81548160ff021916908360ff1602179055506002600560008060ff16815260200190815260200160002060010160009054906101000a900460ff1660ff161415611d92578273ffffffffffffffffffffffffffffffffffffffff16633ccfd60b6040518163ffffffff1660e01b8152600401600060405180830381600087803b158015611d5157600080fd5b505af1158015611d65573d6000803e3d6000fd5b505050506000600560008060ff16815260200190815260200160002060010160009054906101000a905050505b6003600560008060ff16815260200190815260200160002060010160009054906101000a900460ff1660ff161415611ded576000600560008060ff16815260200190815260200160002060010160009054906101000a905050505b505050565b600d60003373ffffffffffffffffffffffffffffffffffffffff1673ffffffffffffffffffffffffffffffffffffffff16815260200190815260200160002060009054906101000a900460ff16611e4857600080fd5b600160009054906101000a900473ffffffffffffffffffffffffffffffffffffffff1673ffffffffffffffffffffffffffffffffffffffff166340c10f1933836040518363ffffffff1660e01b8152600401611ea59291906130ac565b600060405180830381600087803b158015611ebf57600080fd5b505af1158015611ed3573d6000803e3d6000fd5b5050505050565b601060009054906101000a90046effffffffffffffffffffffffffffff1681565b60065481565b600b8181548110611f1157600080fd5b906000526020600020016000915054906101000a900473ffffffffffffffffffffffffffffffffffffffff1681565b6000600460009054906101000a900473ffffffffffffffffffffffffffffffffffffffff1673ffffffffffffffffffffffffffffffffffffffff1663842d201a33600160009054906101000a900473ffffffffffffffffffffffffffffffffffffffff16600860009054906101000a900473ffffffffffffffffffffffffffffffffffffffff1660008054906101000a900473ffffffffffffffffffffffffffffffffffffffff16600e54600f54896040518863ffffffff1660e01b81526004016120119796959493929190613014565b602060405180830381600087803b15801561202b57600080fd5b505af115801561203f573d6000803e3d6000fd5b505050506040513d601f19601f820116820180604052508101906120639190612c36565b9050600b819080600181540180825580915050600190039060005260206000200160009091909190916101000a81548173ffffffffffffffffffffffffffffffffffffffff021916908373ffffffffffffffffffffffffffffffffffffffff1602179055506001600d60008373ffffffffffffffffffffffffffffffffffffffff1673ffffffffffffffffffffffffffffffffffffffff16815260200190815260200160002060006101000a81548160ff0219169083151502179055506001600c600082825461213391906132ec565b925050819055505050565b600360009054906101000a900473ffffffffffffffffffffffffffffffffffffffff1681565b6010600f9054906101000a900464ffffffffff1681565b600e5481565b60006007600960008473ffffffffffffffffffffffffffffffffffffffff1673ffffffffffffffffffffffffffffffffffffffff16815260200190815260200160002054815481106121d6576121d56135ab565b5b9060005260206000200160006101000a81548173ffffffffffffffffffffffffffffffffffffffff021916908373ffffffffffffffffffffffffffffffffffffffff1602179055506000600960008373ffffffffffffffffffffffffffffffffffffffff1673ffffffffffffffffffffffffffffffffffffffff1681526020019081526020016000208190555050565b600d60003373ffffffffffffffffffffffffffffffffffffffff1673ffffffffffffffffffffffffffffffffffffffff16815260200190815260200160002060009054906101000a900460ff166122bc57600080fd5b600160009054906101000a900473ffffffffffffffffffffffffffffffffffffffff1673ffffffffffffffffffffffffffffffffffffffff166340c10f1983836040518363ffffffff1660e01b8152600401612319929190613083565b600060405180830381600087803b15801561233357600080fd5b505af1158015612347573d6000803e3d6000fd5b505050505050565b6000612390576040517f08c379a0000000000000000000000000000000000000000000000000000000008152600401612387906131dc565b60405180910390fd5b81600360006101000a81548173ffffffffffffffffffffffffffffffffffffffff021916908373ffffffffffffffffffffffffffffffffffffffff16021790555080600460006101000a81548173ffffffffffffffffffffffffffffffffffffffff021916908373ffffffffffffffffffffffffffffffffffffffff1602179055505050565b600c5481565b6007818154811061242c57600080fd5b906000526020600020016000915054906101000a900473ffffffffffffffffffffffffffffffffffffffff1681565b60056020528060005260406000206000915090508060000154908060010160009054906101000a900460ff16905082565b806000600960008373ffffffffffffffffffffffffffffffffffffffff1673ffffffffffffffffffffffffffffffffffffffff16815260200190815260200160002054116124d957600080fd5b6000826001600560008460ff1660ff16815260200190815260200160002060010160009054906101000a900460ff1660ff16111561254c576040517f08c379a0000000000000000000000000000000000000000000000000000000008152600401612543906131bc565b60405180910390fd5b6000600560008460ff1660ff16815260200190815260200160002060010160009054906101000a900460ff1660ff1614156127595760008054906101000a900473ffffffffffffffffffffffffffffffffffffffff1673ffffffffffffffffffffffffffffffffffffffff16637b6e5f9c60046010600f9054906101000a900464ffffffffff16601060009054906101000a90046effffffffffffffffffffffffffffff16600160009054906101000a900473ffffffffffffffffffffffffffffffffffffffff1673ffffffffffffffffffffffffffffffffffffffff166318160ddd6040518163ffffffff1660e01b815260040160206040518083038186803b15801561265957600080fd5b505afa15801561266d573d6000803e3d6000fd5b505050506040513d601f19601f820116820180604052508101906126919190612daa565b6040518563ffffffff1660e01b81526004016126b09493929190613177565b602060405180830381600087803b1580156126ca57600080fd5b505af11580156126de573d6000803e3d6000fd5b505050506040513d601f19601f820116820180604052508101906127029190612daa565b600560008460ff1660ff168152602001908152602001600020600001819055506001600560008460ff1660ff16815260200190815260200160002060010160006101000a81548160ff021916908360ff1602179055505b60008054906101000a900473ffffffffffffffffffffffffffffffffffffffff1673ffffffffffffffffffffffffffffffffffffffff1663e31f7b28600560008060ff168152602001908152602001600020600001543384600160009054906101000a900473ffffffffffffffffffffffffffffffffffffffff1673ffffffffffffffffffffffffffffffffffffffff166370a08231336040518263ffffffff1660e01b815260040161280c9190612f7b565b60206040518083038186803b15801561282457600080fd5b505afa158015612838573d6000803e3d6000fd5b505050506040513d601f19601f8201168201806040525081019061285c9190612daa565b6040518563ffffffff1660e01b815260040161287b9493929190613252565b602060405180830381600087803b15801561289557600080fd5b505af11580156128a9573d6000803e3d6000fd5b505050506040513d601f19601f820116820180604052508101906128cd9190612e04565b600560008060ff16815260200190815260200160002060010160006101000a81548160ff021916908360ff1602179055506002600560008060ff16815260200190815260200160002060010160009054906101000a900460ff1660ff161415612a625760008060009054906101000a900473ffffffffffffffffffffffffffffffffffffffff1673ffffffffffffffffffffffffffffffffffffffff1663b17979a6600560008060ff168152602001908152602001600020600001546040518263ffffffff1660e01b81526004016129a59190613237565b60206040518083038186803b1580156129bd57600080fd5b505afa1580156129d1573d6000803e3d6000fd5b505050506040513d601f19601f820116820180604052508101906129f59190612c36565b905080600860006101000a81548173ffffffffffffffffffffffffffffffffffffffff021916908373ffffffffffffffffffffffffffffffffffffffff160217905550506000600560008060ff16815260200190815260200160002060010160009054906101000a905050505b6003600560008060ff16815260200190815260200160002060010160009054906101000a900460ff1660ff161415612abd576000600560008060ff16815260200190815260200160002060010160009054906101000a905050505b50505050565b60008054906101000a900473ffffffffffffffffffffffffffffffffffffffff1681565b600015612b4a576000620f424090503373ffffffffffffffffffffffffffffffffffffffff166108fc3a83612b1c9190613342565b9081150290604051600060405180830381858888f19350505050158015612b47573d6000803e3d6000fd5b50505b565b600081359050612b5b81613680565b92915050565b600081519050612b7081613680565b92915050565b600081359050612b8581613697565b92915050565b600081519050612b9a816136ae565b92915050565b600081359050612baf816136c5565b92915050565b600081359050612bc4816136dc565b92915050565b600081519050612bd9816136dc565b92915050565b600081359050612bee816136f3565b92915050565b600081519050612c03816136f3565b92915050565b600060208284031215612c1f57612c1e6135da565b5b6000612c2d84828501612b4c565b91505092915050565b600060208284031215612c4c57612c4b6135da565b5b6000612c5a84828501612b61565b91505092915050565b60008060408385031215612c7a57612c796135da565b5b6000612c8885828601612b76565b9250506020612c9985828601612b76565b9150509250929050565b60008060408385031215612cba57612cb96135da565b5b6000612cc885828601612b76565b9250506020612cd985828601612bb5565b9150509250929050565b60008060408385031215612cfa57612cf96135da565b5b6000612d0885828601612b4c565b9250506020612d1985828601612b4c565b9150509250929050565b600060208284031215612d3957612d386135da565b5b6000612d4784828501612b8b565b91505092915050565b600060208284031215612d6657612d656135da565b5b6000612d7484828501612ba0565b91505092915050565b600060208284031215612d9357612d926135da565b5b6000612da184828501612bb5565b91505092915050565b600060208284031215612dc057612dbf6135da565b5b6000612dce84828501612bca565b91505092915050565b600060208284031215612ded57612dec6135da565b5b6000612dfb84828501612bdf565b91505092915050565b600060208284031215612e1a57612e196135da565b5b6000612e2884828501612bf4565b91505092915050565b612e3a8161347f565b82525050565b612e49816133e2565b82525050565b612e58816133d0565b82525050565b612e6781613491565b82525050565b612e76816134a3565b82525050565b612e85816134b5565b82525050565b612e94816134c7565b82525050565b612ea3816134d9565b82525050565b612eb2816134eb565b82525050565b612ec1816134fd565b82525050565b6000612ed46012836132db565b9150612edf826135df565b602082019050919050565b6000612ef76025836132db565b9150612f0282613608565b604082019050919050565b6000612f1a600e836132db565b9150612f2582613657565b602082019050919050565b612f3981613400565b82525050565b612f488161341b565b82525050565b612f5781613457565b82525050565b612f6681613461565b82525050565b612f7581613472565b82525050565b6000602082019050612f906000830184612e4f565b92915050565b600061010082019050612fac600083018b612e40565b612fb9602083018a612e31565b612fc66040830189612e31565b612fd36060830188612e4f565b612fe06080830187612e4f565b612fed60a0830186612e4f565b612ffa60c0830185612e4f565b61300760e0830184612f4e565b9998505050505050505050565b600060e082019050613029600083018a612e40565b6130366020830189612e4f565b6130436040830188612e4f565b6130506060830187612e4f565b61305d6080830186612f4e565b61306a60a0830185612f4e565b61307760c0830184612f4e565b98975050505050505050565b60006040820190506130986000830185612e31565b6130a56020830184612f4e565b9392505050565b60006040820190506130c16000830185612e4f565b6130ce6020830184612f4e565b9392505050565b60006020820190506130ea6000830184612e5e565b92915050565b60006020820190506131056000830184612e6d565b92915050565b60006020820190506131206000830184612e7c565b92915050565b600060208201905061313b6000830184612e8b565b92915050565b60006020820190506131566000830184612e9a565b92915050565b60006020820190506131716000830184612ea9565b92915050565b600060808201905061318c6000830187612eb8565b6131996020830186612f5d565b6131a66040830185612f30565b6131b36060830184612f30565b95945050505050565b600060208201905081810360008301526131d581612ec7565b9050919050565b600060208201905081810360008301526131f581612eea565b9050919050565b6000602082019050818103600083015261321581612f0d565b9050919050565b60006020820190506132316000830184612f30565b92915050565b600060208201905061324c6000830184612f4e565b92915050565b60006080820190506132676000830187612f4e565b6132746020830186612e4f565b6132816040830185612e4f565b61328e6060830184612f3f565b95945050505050565b60006040820190506132ac6000830185612f4e565b6132b96020830184612f6c565b9392505050565b60006020820190506132d56000830184612f5d565b92915050565b600082825260208201905092915050565b60006132f782613457565b915061330283613457565b9250827fffffffffffffffffffffffffffffffffffffffffffffffffffffffffffffffff038211156133375761333661357c565b5b828201905092915050565b600061334d82613457565b915061335883613457565b9250817fffffffffffffffffffffffffffffffffffffffffffffffffffffffffffffffff04831182151516156133915761339061357c565b5b828202905092915050565b60006133a782613457565b91506133b283613457565b9250828210156133c5576133c461357c565b5b828203905092915050565b60006133db82613437565b9050919050565b60006133ed82613437565b9050919050565b60008115159050919050565b60006effffffffffffffffffffffffffffff82169050919050565b60006fffffffffffffffffffffffffffffffff82169050919050565b600073ffffffffffffffffffffffffffffffffffffffff82169050919050565b6000819050919050565b600064ffffffffff82169050919050565b600060ff82169050919050565b600061348a8261350f565b9050919050565b600061349c8261350f565b9050919050565b60006134ae8261350f565b9050919050565b60006134c08261350f565b9050919050565b60006134d28261350f565b9050919050565b60006134e48261350f565b9050919050565b60006134f68261350f565b9050919050565b600061350882613472565b9050919050565b600061351a82613521565b9050919050565b600061352c82613437565b9050919050565b600061353e82613457565b91507fffffffffffffffffffffffffffffffffffffffffffffffffffffffffffffffff8214156135715761357061357c565b5b600182019050919050565b7f4e487b7100000000000000000000000000000000000000000000000000000000600052601160045260246000fd5b7f4e487b7100000000000000000000000000000000000000000000000000000000600052603260045260246000fd5b600080fd5b7f696e616374697665206f72206163746976650000000000000000000000000000600082015250565b7f2072657175697265732044414f20564f54452e20546f20626520696d706c656d60008201527f656e746564000000000000000000000000000000000000000000000000000000602082015250565b7f616c726561647920657869737473000000000000000000000000000000000000600082015250565b613689816133d0565b811461369457600080fd5b50565b6136a0816133e2565b81146136ab57600080fd5b50565b6136b7816133f4565b81146136c257600080fd5b50565b6136ce81613437565b81146136d957600080fd5b50565b6136e581613457565b81146136f057600080fd5b50565b6136fc81613472565b811461370757600080fd5b5056fea26469706673582212201e1526f9f9c33b51c3d09baa3383b36d86fdcdb9706cea579cabc952f9048e3e64736f6c634300080700336080604052348015600f57600080fd5b50603f80601d6000396000f3fe6080604052600080fdfea2646970667358221220c139efeb2d1b64d42aa0d3796f49c67072e0819abc8274d7121cd986035f3a5364736f6c63430008070033",
  "linkReferences": {},
  "deployedLinkReferences": {}
}