{
  "_format": "hh-sol-artifact-1",
  "contractName": "Project",
  "sourceName": "contracts/Project.sol",
  "abi": [
    {
      "inputs": [
        {
          "internalType": "address payable",
          "name": "_sourcingLead",
          "type": "address"
        },
        {
          "internalType": "address payable",
          "name": "_client",
          "type": "address"
        },
        {
          "internalType": "address payable",
          "name": "_arbiter",
          "type": "address"
        },
        {
          "internalType": "address",
          "name": "repTokenAddress",
          "type": "address"
        },
        {
          "internalType": "contract ArbitrationEscrow",
          "name": "_arbitrationEscrow",
          "type": "address"
        },
        {
          "internalType": "address",
          "name": "_paymentTokenAddress",
          "type": "address"
        },
        {
          "internalType": "uint256",
          "name": "_votingDuration",
          "type": "uint256"
        }
      ],
      "stateMutability": "nonpayable",
      "type": "constructor"
    },
    {
      "anonymous": false,
      "inputs": [
        {
          "indexed": false,
          "internalType": "address",
          "name": "disputer",
          "type": "address"
        }
      ],
      "name": "Disputed",
      "type": "event"
    },
    {
      "anonymous": false,
      "inputs": [
        {
          "indexed": false,
          "internalType": "uint256",
          "name": "milestoneIndex",
          "type": "uint256"
        },
        {
          "indexed": false,
          "internalType": "uint256",
          "name": "approvedAmount",
          "type": "uint256"
        }
      ],
      "name": "MilestoneApproved",
      "type": "event"
    },
    {
      "anonymous": false,
      "inputs": [
        {
          "indexed": false,
          "internalType": "uint256",
          "name": "milestoneIndex",
          "type": "uint256"
        }
      ],
      "name": "PayrollRosterSubmitted",
      "type": "event"
    },
    {
      "anonymous": false,
      "inputs": [
        {
          "indexed": false,
          "internalType": "uint256",
          "name": "milestoneIndex",
          "type": "uint256"
        },
        {
          "indexed": false,
          "internalType": "uint256",
          "name": "requetedAmount",
          "type": "uint256"
        }
      ],
      "name": "RequestedAmountAddedToMilestone",
      "type": "event"
    },
    {
      "inputs": [
        {
          "internalType": "uint256",
          "name": "milestoneIndex",
          "type": "uint256"
        },
        {
          "internalType": "uint256",
          "name": "amount",
          "type": "uint256"
        }
      ],
      "name": "addAmountToMilestone",
      "outputs": [],
      "stateMutability": "nonpayable",
      "type": "function"
    },
    {
      "inputs": [
        {
          "internalType": "bytes32",
          "name": "requirementsCid",
          "type": "bytes32"
        }
      ],
      "name": "addMilestone",
      "outputs": [],
      "stateMutability": "nonpayable",
      "type": "function"
    },
    {
      "inputs": [
        {
          "internalType": "address payable",
          "name": "_teamMember",
          "type": "address"
        }
      ],
      "name": "addTeamMember",
      "outputs": [],
      "stateMutability": "nonpayable",
      "type": "function"
    },
    {
      "inputs": [
        {
          "internalType": "address",
          "name": "",
          "type": "address"
        },
        {
          "internalType": "address",
          "name": "",
          "type": "address"
        }
      ],
      "name": "alreadyVotedForNewSourcingLead",
      "outputs": [
        {
          "internalType": "bool",
          "name": "",
          "type": "bool"
        }
      ],
      "stateMutability": "view",
      "type": "function"
    },
    {
      "inputs": [],
      "name": "approvalAmount",
      "outputs": [
        {
          "internalType": "uint256",
          "name": "",
          "type": "uint256"
        }
      ],
      "stateMutability": "view",
      "type": "function"
    },
    {
      "inputs": [
        {
          "internalType": "uint256",
          "name": "milestoneIndex",
          "type": "uint256"
        }
      ],
      "name": "approveMilestone",
      "outputs": [],
      "stateMutability": "nonpayable",
      "type": "function"
    },
    {
      "inputs": [],
      "name": "arbiter",
      "outputs": [
        {
          "internalType": "address payable",
          "name": "",
          "type": "address"
        }
      ],
      "stateMutability": "view",
      "type": "function"
    },
    {
      "inputs": [
        {
          "internalType": "bool",
          "name": "forInvoice",
          "type": "bool"
        }
      ],
      "name": "arbitration",
      "outputs": [],
      "stateMutability": "nonpayable",
      "type": "function"
    },
    {
      "inputs": [],
      "name": "arbitrationEscrow",
      "outputs": [
        {
          "internalType": "contract ArbitrationEscrow",
          "name": "",
          "type": "address"
        }
      ],
      "stateMutability": "view",
      "type": "function"
    },
    {
      "inputs": [
        {
          "internalType": "uint256",
          "name": "milestoneIndex",
          "type": "uint256"
        }
      ],
      "name": "batchPayout",
      "outputs": [],
      "stateMutability": "nonpayable",
      "type": "function"
    },
    {
      "inputs": [
        {
          "internalType": "address",
          "name": "_tokenAddress",
          "type": "address"
        },
        {
          "internalType": "uint256",
          "name": "_repWeiPerPaymentGwei",
          "type": "uint256"
        }
      ],
      "name": "changePaymentMethod",
      "outputs": [],
      "stateMutability": "nonpayable",
      "type": "function"
    },
    {
      "inputs": [],
      "name": "claimSourcingLead",
      "outputs": [],
      "stateMutability": "nonpayable",
      "type": "function"
    },
    {
      "inputs": [],
      "name": "client",
      "outputs": [
        {
          "internalType": "address payable",
          "name": "",
          "type": "address"
        }
      ],
      "stateMutability": "view",
      "type": "function"
    },
    {
      "inputs": [],
      "name": "defaultThreshold",
      "outputs": [
        {
          "internalType": "uint256",
          "name": "",
          "type": "uint256"
        }
      ],
      "stateMutability": "view",
      "type": "function"
    },
    {
      "inputs": [
        {
          "internalType": "uint256[]",
          "name": "milestoneIndices",
          "type": "uint256[]"
        }
      ],
      "name": "dispute",
      "outputs": [],
      "stateMutability": "nonpayable",
      "type": "function"
    },
    {
      "inputs": [
        {
          "internalType": "address",
          "name": "_teamMember",
          "type": "address"
        }
      ],
      "name": "excludeFromTeam",
      "outputs": [],
      "stateMutability": "nonpayable",
      "type": "function"
    },
    {
      "inputs": [
        {
          "internalType": "address",
          "name": "",
          "type": "address"
        },
        {
          "internalType": "address",
          "name": "",
          "type": "address"
        }
      ],
      "name": "excludeMember",
      "outputs": [
        {
          "internalType": "bool",
          "name": "",
          "type": "bool"
        }
      ],
      "stateMutability": "view",
      "type": "function"
    },
    {
      "inputs": [],
      "name": "exclusionThreshold",
      "outputs": [
        {
          "internalType": "uint256",
          "name": "",
          "type": "uint256"
        }
      ],
      "stateMutability": "view",
      "type": "function"
    },
    {
      "inputs": [
        {
          "internalType": "uint256",
          "name": "_amount",
          "type": "uint256"
        }
      ],
      "name": "invoiceClient",
      "outputs": [],
      "stateMutability": "nonpayable",
      "type": "function"
    },
    {
      "inputs": [
        {
          "internalType": "uint256",
          "name": "",
          "type": "uint256"
        }
      ],
      "name": "milestones",
      "outputs": [
        {
          "internalType": "bool",
          "name": "approved",
          "type": "bool"
        },
        {
          "internalType": "bool",
          "name": "inDispute",
          "type": "bool"
        },
        {
          "internalType": "uint256",
          "name": "requestedAmount",
          "type": "uint256"
        },
        {
          "internalType": "bytes32",
          "name": "requirementsCid",
          "type": "bytes32"
        },
        {
          "internalType": "uint256",
          "name": "payrollVetoDeadline",
          "type": "uint256"
        }
      ],
      "stateMutability": "view",
      "type": "function"
    },
    {
      "inputs": [],
      "name": "numberOfVotes",
      "outputs": [
        {
          "internalType": "uint256",
          "name": "",
          "type": "uint256"
        }
      ],
      "stateMutability": "view",
      "type": "function"
    },
    {
      "inputs": [],
      "name": "outstandingInvoice",
      "outputs": [
        {
          "internalType": "uint256",
          "name": "",
          "type": "uint256"
        }
      ],
      "stateMutability": "view",
      "type": "function"
    },
    {
      "inputs": [],
      "name": "paymentToken",
      "outputs": [
        {
          "internalType": "contract IERC20",
          "name": "",
          "type": "address"
        }
      ],
      "stateMutability": "view",
      "type": "function"
    },
    {
      "inputs": [
        {
          "internalType": "address",
          "name": "",
          "type": "address"
        }
      ],
      "name": "payments",
      "outputs": [
        {
          "internalType": "uint256",
          "name": "amount",
          "type": "uint256"
        },
        {
          "internalType": "uint16",
          "name": "numberOfApprovals",
          "type": "uint16"
        }
      ],
      "stateMutability": "view",
      "type": "function"
    },
    {
      "inputs": [],
      "name": "registerVote",
      "outputs": [],
      "stateMutability": "nonpayable",
      "type": "function"
    },
    {
      "inputs": [],
      "name": "repToken",
      "outputs": [
        {
          "internalType": "contract IRepToken",
          "name": "",
          "type": "address"
        }
      ],
      "stateMutability": "view",
      "type": "function"
    },
    {
      "inputs": [],
      "name": "repWeiPerPaymentGwei",
      "outputs": [
        {
          "internalType": "uint256",
          "name": "",
          "type": "uint256"
        }
      ],
      "stateMutability": "view",
      "type": "function"
    },
    {
      "inputs": [
        {
          "internalType": "address",
          "name": "_nominee",
          "type": "address"
        }
      ],
      "name": "replaceSourcingLead",
      "outputs": [],
      "stateMutability": "nonpayable",
      "type": "function"
    },
    {
      "inputs": [
        {
          "internalType": "address",
          "name": "_to",
          "type": "address"
        },
        {
          "internalType": "uint256",
          "name": "_amount",
          "type": "uint256"
        }
      ],
      "name": "sendRepToken",
      "outputs": [],
      "stateMutability": "nonpayable",
      "type": "function"
    },
    {
      "inputs": [
        {
          "internalType": "uint256",
          "name": "_repWeiPerPaymentGwei",
          "type": "uint256"
        }
      ],
      "name": "setRepWeiValuePerGweiTokenValue",
      "outputs": [],
      "stateMutability": "nonpayable",
      "type": "function"
    },
    {
      "inputs": [],
      "name": "source",
      "outputs": [
        {
          "internalType": "contract ISource",
          "name": "",
          "type": "address"
        }
      ],
      "stateMutability": "view",
      "type": "function"
    },
    {
      "inputs": [],
      "name": "sourcingLead",
      "outputs": [
        {
          "internalType": "address payable",
          "name": "",
          "type": "address"
        }
      ],
      "stateMutability": "view",
      "type": "function"
    },
    {
      "inputs": [],
      "name": "startProject",
      "outputs": [],
      "stateMutability": "nonpayable",
      "type": "function"
    },
    {
      "inputs": [],
      "name": "startingTime",
      "outputs": [
        {
          "internalType": "uint256",
          "name": "",
          "type": "uint256"
        }
      ],
      "stateMutability": "view",
      "type": "function"
    },
    {
      "inputs": [],
      "name": "status",
      "outputs": [
        {
          "internalType": "enum Project.ProjectStatus",
          "name": "",
          "type": "uint8"
        }
      ],
      "stateMutability": "view",
      "type": "function"
    },
    {
      "inputs": [
        {
          "internalType": "uint256",
          "name": "milestoneIndex",
          "type": "uint256"
        },
        {
          "internalType": "address[]",
          "name": "payees",
          "type": "address[]"
        },
        {
          "internalType": "uint256[]",
          "name": "amounts",
          "type": "uint256[]"
        }
      ],
      "name": "submitPayrollRoster",
      "outputs": [],
      "stateMutability": "nonpayable",
      "type": "function"
    },
    {
      "inputs": [],
      "name": "vetoDurationForPayments",
      "outputs": [
        {
          "internalType": "uint256",
          "name": "",
          "type": "uint256"
        }
      ],
      "stateMutability": "view",
      "type": "function"
    },
    {
      "inputs": [
        {
          "internalType": "uint256",
          "name": "milestoneIndex",
          "type": "uint256"
        }
      ],
      "name": "vetoPayrollRoster",
      "outputs": [],
      "stateMutability": "nonpayable",
      "type": "function"
    },
    {
      "inputs": [
        {
          "internalType": "bool",
          "name": "decision",
          "type": "bool"
        }
      ],
      "name": "voteOnProject",
      "outputs": [
        {
          "internalType": "bool",
          "name": "",
          "type": "bool"
        }
      ],
      "stateMutability": "nonpayable",
      "type": "function"
    },
    {
      "inputs": [
        {
          "internalType": "address",
          "name": "",
          "type": "address"
        }
      ],
      "name": "voteToExclude",
      "outputs": [
        {
          "internalType": "uint16",
          "name": "",
          "type": "uint16"
        }
      ],
      "stateMutability": "view",
      "type": "function"
    },
    {
      "inputs": [
        {
          "internalType": "address",
          "name": "",
          "type": "address"
        },
        {
          "internalType": "address",
          "name": "",
          "type": "address"
        }
      ],
      "name": "votesForNewSourcingLead",
      "outputs": [
        {
          "internalType": "uint256",
          "name": "",
          "type": "uint256"
        }
      ],
      "stateMutability": "view",
      "type": "function"
    },
    {
      "inputs": [],
      "name": "votes_against",
      "outputs": [
        {
          "internalType": "uint256",
          "name": "",
          "type": "uint256"
        }
      ],
      "stateMutability": "view",
      "type": "function"
    },
    {
      "inputs": [],
      "name": "votes_pro",
      "outputs": [
        {
          "internalType": "uint256",
          "name": "",
          "type": "uint256"
        }
      ],
      "stateMutability": "view",
      "type": "function"
    },
    {
      "inputs": [],
      "name": "votingDuration",
      "outputs": [
        {
          "internalType": "uint256",
          "name": "",
          "type": "uint256"
        }
      ],
      "stateMutability": "view",
      "type": "function"
    }
  ],
  "bytecode": "0x6080604052620546006008556032600b556032600c556000601655633b9aca006017553480156200002f57600080fd5b50604051620041a9380380620041a983398181016040528101906200005591906200058e565b6000600360146101000a81548160ff021916908360058111156200007e576200007d62000701565b5b021790555086601360006101000a81548173ffffffffffffffffffffffffffffffffffffffff021916908373ffffffffffffffffffffffffffffffffffffffff1602179055506015601360009054906101000a900473ffffffffffffffffffffffffffffffffffffffff169080600181540180825580915050600190039060005260206000200160009091909190916101000a81548173ffffffffffffffffffffffffffffffffffffffff021916908373ffffffffffffffffffffffffffffffffffffffff1602179055506001600d6000601360009054906101000a900473ffffffffffffffffffffffffffffffffffffffff1673ffffffffffffffffffffffffffffffffffffffff1673ffffffffffffffffffffffffffffffffffffffff16815260200190815260200160002060006101000a81548160ff02191690831515021790555085601260006101000a81548173ffffffffffffffffffffffffffffffffffffffff021916908373ffffffffffffffffffffffffffffffffffffffff16021790555082600360006101000a81548173ffffffffffffffffffffffffffffffffffffffff021916908373ffffffffffffffffffffffffffffffffffffffff16021790555084601460006101000a81548173ffffffffffffffffffffffffffffffffffffffff021916908373ffffffffffffffffffffffffffffffffffffffff160217905550336000806101000a81548173ffffffffffffffffffffffffffffffffffffffff021916908373ffffffffffffffffffffffffffffffffffffffff16021790555083600160006101000a81548173ffffffffffffffffffffffffffffffffffffffff021916908373ffffffffffffffffffffffffffffffffffffffff160217905550426009819055508060078190555062000329826017546200033660201b60201c565b50505050505050620007c6565b60008054906101000a900473ffffffffffffffffffffffffffffffffffffffff1673ffffffffffffffffffffffffffffffffffffffff163373ffffffffffffffffffffffffffffffffffffffff161480620003de5750601360009054906101000a900473ffffffffffffffffffffffffffffffffffffffff1673ffffffffffffffffffffffffffffffffffffffff163373ffffffffffffffffffffffffffffffffffffffff16145b62000420576040517f08c379a0000000000000000000000000000000000000000000000000000000008152600401620004179062000668565b60405180910390fd5b81600260006101000a81548173ffffffffffffffffffffffffffffffffffffffff021916908373ffffffffffffffffffffffffffffffffffffffff16021790555062000472816200047660201b60201c565b5050565b60008054906101000a900473ffffffffffffffffffffffffffffffffffffffff1673ffffffffffffffffffffffffffffffffffffffff163373ffffffffffffffffffffffffffffffffffffffff1614806200051e5750601360009054906101000a900473ffffffffffffffffffffffffffffffffffffffff1673ffffffffffffffffffffffffffffffffffffffff163373ffffffffffffffffffffffffffffffffffffffff16145b6200052857600080fd5b8060178190555050565b60008151905062000543816200075e565b92915050565b6000815190506200055a8162000778565b92915050565b600081519050620005718162000792565b92915050565b6000815190506200058881620007ac565b92915050565b600080600080600080600060e0888a031215620005b057620005af62000730565b5b6000620005c08a828b0162000549565b9750506020620005d38a828b0162000549565b9650506040620005e68a828b0162000549565b9550506060620005f98a828b0162000532565b94505060806200060c8a828b0162000560565b93505060a06200061f8a828b0162000532565b92505060c0620006328a828b0162000577565b91505092959891949750929550565b6000620006506018836200068a565b91506200065d8262000735565b602082019050919050565b60006020820190508181036000830152620006838162000641565b9050919050565b600082825260208201905092915050565b6000620006a882620006d7565b9050919050565b6000620006bc82620006d7565b9050919050565b6000620006d0826200069b565b9050919050565b600073ffffffffffffffffffffffffffffffffffffffff82169050919050565b6000819050919050565b7f4e487b7100000000000000000000000000000000000000000000000000000000600052602160045260246000fd5b600080fd5b7f736f75726365206f7220736f757263696e67204c656164210000000000000000600082015250565b62000769816200069b565b81146200077557600080fd5b50565b6200078381620006af565b81146200078f57600080fd5b50565b6200079d81620006c3565b8114620007a957600080fd5b50565b620007b781620006f7565b8114620007c357600080fd5b50565b6139d380620007d66000396000f3fe608060405234801561001057600080fd5b50600436106102745760003560e01c806363066abd11610151578063bd238fe6116100c3578063e2982c2111610087578063e2982c2114610703578063e6e70dd614610734578063e89e4ed61461073e578063e958349314610772578063f3120c4414610790578063fe25e00a146107ac57610274565b8063bd238fe614610685578063c438b40f146106a1578063c7656f6e146106bd578063c9e3f0fa146106c7578063d2da0182146106e557610274565b8063908c36ca11610115578063908c36ca146105d75780639872330b146105f55780639ec60172146106135780639fa361381461062f578063b13a2c411461064b578063bcba3e971461066957610274565b806363066abd1461053557806367e828bf146105515780636f8a42d41461056f5780637e96ea141461058b5780638f320c77146105a757610274565b80633013ce29116101ea5780633d1c5ff3116101ae5780633d1c5ff3146104775780633eb2b5ad14610493578063417c09c0146104af578063431c0c88146104df57806348916c89146104fb57806353f10a4b1461051757610274565b80633013ce29146103e3578063359d393d1461040157806335baea341461041f57806339518b5e1461043b57806339d5d1261461045957610274565b8063132002fc1161023c578063132002fc1461033157806318ad3c921461034f5780631dfef34014610359578063200d2ed21461038957806329034a5c146103a75780632fee8e3e146103c557610274565b806308422702146102795780630d581232146102a95780630dff5008146102c55780630e7d490d146102f5578063109e94cf14610313575b600080fd5b610293600480360381019061028e9190612c25565b6107ca565b6040516102a091906130d1565b60405180910390f35b6102c360048036038101906102be9190612e5a565b6107f9565b005b6102df60048036038101906102da9190612cee565b6108f0565b6040516102ec91906130d1565b60405180910390f35b6102fd610a2c565b60405161030a91906132a1565b60405180910390f35b61031b610a32565b604051610328919061303b565b60405180910390f35b610339610a58565b60405161034691906132a1565b60405180910390f35b610357610a5e565b005b610373600480360381019061036e9190612c25565b610ab9565b60405161038091906132a1565b60405180910390f35b610391610ade565b60405161039e91906131ab565b60405180910390f35b6103af610af1565b6040516103bc9190613175565b60405180910390f35b6103cd610b17565b6040516103da919061313f565b60405180910390f35b6103eb610b3d565b6040516103f8919061315a565b60405180910390f35b610409610b63565b60405161041691906132a1565b60405180910390f35b61043960048036038101906104349190612dcf565b610b69565b005b610443610c43565b60405161045091906132a1565b60405180910390f35b610461610c49565b60405161046e91906132a1565b60405180910390f35b610491600480360381019061048c9190612c65565b610c4f565b005b6104ad60048036038101906104a89190612bf8565b610d4a565b005b6104c960048036038101906104c49190612bcb565b610eb8565b6040516104d69190613286565b60405180910390f35b6104f960048036038101906104f49190612d75565b610ed9565b005b61051560048036038101906105109190612c65565b610f93565b005b61051f611047565b60405161052c91906132a1565b60405180910390f35b61054f600480360381019061054a9190612d75565b61104d565b005b6105596110e3565b6040516105669190613190565b60405180910390f35b61058960048036038101906105849190612d75565b611107565b005b6105a560048036038101906105a09190612d48565b61116b565b005b6105c160048036038101906105bc9190612c25565b611303565b6040516105ce91906130d1565b60405180910390f35b6105df611332565b6040516105ec91906132a1565b60405180910390f35b6105fd611338565b60405161060a91906132a1565b60405180910390f35b61062d60048036038101906106289190612ca5565b61133e565b005b61064960048036038101906106449190612d75565b6114cd565b005b610653611805565b60405161066091906132a1565b60405180910390f35b610683600480360381019061067e9190612bcb565b61180b565b005b61069f600480360381019061069a9190612cee565b611ade565b005b6106bb60048036038101906106b69190612d75565b611d41565b005b6106c5611e79565b005b6106cf611e7b565b6040516106dc91906132a1565b60405180910390f35b6106ed611e81565b6040516106fa919061303b565b60405180910390f35b61071d60048036038101906107189190612bcb565b611ea7565b60405161072b9291906132bc565b60405180910390f35b61073c611ed9565b005b61075860048036038101906107539190612d75565b6121e8565b6040516107699594939291906130ec565b60405180910390f35b61077a612248565b60405161078791906132a1565b60405180910390f35b6107aa60048036038101906107a59190612bcb565b61224e565b005b6107b4612469565b6040516107c1919061303b565b60405180910390f35b60116020528160005260406000206020528060005260406000206000915091509054906101000a900460ff1681565b601360009054906101000a900473ffffffffffffffffffffffffffffffffffffffff1673ffffffffffffffffffffffffffffffffffffffff163373ffffffffffffffffffffffffffffffffffffffff1614610889576040517f08c379a000000000000000000000000000000000000000000000000000000000815260040161088090613226565b60405180910390fd5b806019838154811061089e5761089d613705565b5b9060005260206000209060060201600101819055507fd63106bdd6a3a4503e009de7bdcddc32ba7d9fc512c33d2bff1accb631d88a3082826040516108e49291906132e5565b60405180910390a15050565b60006007546009544261090391906134b5565b111561091a5761091161248f565b60009050610a27565b6000600160009054906101000a900473ffffffffffffffffffffffffffffffffffffffff1673ffffffffffffffffffffffffffffffffffffffff166370a08231336040518263ffffffff1660e01b81526004016109779190613020565b60206040518083038186803b15801561098f57600080fd5b505afa1580156109a3573d6000803e3d6000fd5b505050506040513d601f19601f820116820180604052508101906109c79190612da2565b905082156109ed5780600460008282546109e191906133d4565b92505081905550610a07565b80600560008282546109ff91906133d4565b925050819055505b600160066000828254610a1a91906133d4565b9250508190555060019150505b919050565b60065481565b601260009054906101000a900473ffffffffffffffffffffffffffffffffffffffff1681565b60075481565b60075460095442610a6f91906134b5565b11610aaf576040517f08c379a0000000000000000000000000000000000000000000000000000000008152600401610aa6906131c6565b60405180910390fd5b610ab761248f565b565b6010602052816000526040600020602052806000526040600020600091509150505481565b600360149054906101000a900460ff1681565b600160009054906101000a900473ffffffffffffffffffffffffffffffffffffffff1681565b600360009054906101000a900473ffffffffffffffffffffffffffffffffffffffff1681565b600260009054906101000a900473ffffffffffffffffffffffffffffffffffffffff1681565b60055481565b601360009054906101000a900473ffffffffffffffffffffffffffffffffffffffff1673ffffffffffffffffffffffffffffffffffffffff163373ffffffffffffffffffffffffffffffffffffffff16148015610bc7575080518251145b610bd057600080fd5b60085442610bde91906133d4565b60198481548110610bf257610bf1613705565b5b9060005260206000209060060201600301819055507fe35031d60f2f841b5b780ddd4c92c4ddea78f371eff5306b4edb3d14899b87c883604051610c3691906132a1565b60405180910390a1505050565b60095481565b60045481565b6000600260009054906101000a900473ffffffffffffffffffffffffffffffffffffffff1673ffffffffffffffffffffffffffffffffffffffff166370a08231306040518263ffffffff1660e01b8152600401610cac9190613020565b60206040518083038186803b158015610cc457600080fd5b505afa158015610cd8573d6000803e3d6000fd5b505050506040513d601f19601f82011682018060405250810190610cfc9190612da2565b14610d3c576040517f08c379a0000000000000000000000000000000000000000000000000000000008152600401610d33906131e6565b60405180910390fd5b610d4682826125ab565b5050565b601360009054906101000a900473ffffffffffffffffffffffffffffffffffffffff1673ffffffffffffffffffffffffffffffffffffffff163373ffffffffffffffffffffffffffffffffffffffff161480610df1575060008054906101000a900473ffffffffffffffffffffffffffffffffffffffff1673ffffffffffffffffffffffffffffffffffffffff163373ffffffffffffffffffffffffffffffffffffffff16145b610dfa57600080fd5b6015819080600181540180825580915050600190039060005260206000200160009091909190916101000a81548173ffffffffffffffffffffffffffffffffffffffff021916908373ffffffffffffffffffffffffffffffffffffffff1602179055506001600d60008373ffffffffffffffffffffffffffffffffffffffff1673ffffffffffffffffffffffffffffffffffffffff16815260200190815260200160002060006101000a81548160ff02191690831515021790555050565b600f6020528060005260406000206000915054906101000a900461ffff1681565b60008054906101000a900473ffffffffffffffffffffffffffffffffffffffff1673ffffffffffffffffffffffffffffffffffffffff163373ffffffffffffffffffffffffffffffffffffffff161480610f805750601360009054906101000a900473ffffffffffffffffffffffffffffffffffffffff1673ffffffffffffffffffffffffffffffffffffffff163373ffffffffffffffffffffffffffffffffffffffff16145b610f8957600080fd5b8060178190555050565b600160009054906101000a900473ffffffffffffffffffffffffffffffffffffffff1673ffffffffffffffffffffffffffffffffffffffff1663a9059cbb83836040518363ffffffff1660e01b8152600401610ff09291906130a8565b602060405180830381600087803b15801561100a57600080fd5b505af115801561101e573d6000803e3d6000fd5b505050506040513d601f19601f820116820180604052508101906110429190612d1b565b505050565b600b5481565b600d60003373ffffffffffffffffffffffffffffffffffffffff1673ffffffffffffffffffffffffffffffffffffffff16815260200190815260200160002060009054906101000a900460ff166110a357600080fd5b606080601983815481106110ba576110b9613705565b5b906000526020600020906006020160050190805190602001906110de929190612908565b505050565b60008054906101000a900473ffffffffffffffffffffffffffffffffffffffff1681565b601360009054906101000a900473ffffffffffffffffffffffffffffffffffffffff1673ffffffffffffffffffffffffffffffffffffffff163373ffffffffffffffffffffffffffffffffffffffff161461116157600080fd5b8060168190555050565b601360009054906101000a900473ffffffffffffffffffffffffffffffffffffffff1673ffffffffffffffffffffffffffffffffffffffff163373ffffffffffffffffffffffffffffffffffffffff16146111fb576040517f08c379a00000000000000000000000000000000000000000000000000000000081526004016111f290613266565b60405180910390fd5b60608060196040518060e00160405280600015158152602001600015158152602001600081526020018581526020016000815260200184815260200183815250908060018154018082558091505060019003906000526020600020906006020160009091909190915060008201518160000160006101000a81548160ff02191690831515021790555060208201518160000160016101000a81548160ff02191690831515021790555060408201518160010155606082015181600201556080820151816003015560a08201518160040190805190602001906112de929190612955565b5060c08201518160050190805190602001906112fb929190612908565b505050505050565b600e6020528160005260406000206020528060005260406000206000915091509054906101000a900460ff1681565b600a5481565b60175481565b601260009054906101000a900473ffffffffffffffffffffffffffffffffffffffff1673ffffffffffffffffffffffffffffffffffffffff163373ffffffffffffffffffffffffffffffffffffffff1614806113e75750601360009054906101000a900473ffffffffffffffffffffffffffffffffffffffff1673ffffffffffffffffffffffffffffffffffffffff163373ffffffffffffffffffffffffffffffffffffffff16145b6113f057600080fd5b60005b8151811015611467576001601983838151811061141357611412613705565b5b60200260200101518154811061142c5761142b613705565b5b906000526020600020906006020160000160016101000a81548160ff021916908315150217905550808061145f9061362f565b9150506113f3565b506002600360146101000a81548160ff0219169083600581111561148e5761148d6136d6565b5b02179055507f695fbf2fe28b4fde5705122279ffc4160ebfc0f45e4d96f7e6699001be5062ef336040516114c29190613020565b60405180910390a150565b601981815481106114e1576114e0613705565b5b906000526020600020906006020160000160009054906101000a900460ff1661150957600080fd5b6019818154811061151d5761151c613705565b5b906000526020600020906006020160030154421161153a57600080fd5b60005b6019828154811061155157611550613705565b5b90600052602060002090600602016004018054905081101561180157600260009054906101000a900473ffffffffffffffffffffffffffffffffffffffff1673ffffffffffffffffffffffffffffffffffffffff1663a9059cbb601984815481106115bf576115be613705565b5b906000526020600020906006020160040183815481106115e2576115e1613705565b5b9060005260206000200160009054906101000a900473ffffffffffffffffffffffffffffffffffffffff166019858154811061162157611620613705565b5b9060005260206000209060060201600501848154811061164457611643613705565b5b90600052602060002001546040518363ffffffff1660e01b815260040161166c92919061307f565b602060405180830381600087803b15801561168657600080fd5b505af115801561169a573d6000803e3d6000fd5b505050506040513d601f19601f820116820180604052508101906116be9190612d1b565b5060008054906101000a900473ffffffffffffffffffffffffffffffffffffffff1673ffffffffffffffffffffffffffffffffffffffff1663bca0adcb6019848154811061170f5761170e613705565b5b9060005260206000209060060201600401838154811061173257611731613705565b5b9060005260206000200160009054906101000a900473ffffffffffffffffffffffffffffffffffffffff166019858154811061177157611770613705565b5b9060005260206000209060060201600501848154811061179457611793613705565b5b90600052602060002001546040518363ffffffff1660e01b81526004016117bc929190613056565b600060405180830381600087803b1580156117d657600080fd5b505af11580156117ea573d6000803e3d6000fd5b5050505080806117f99061362f565b91505061153d565b5050565b60165481565b60001515600e60003373ffffffffffffffffffffffffffffffffffffffff1673ffffffffffffffffffffffffffffffffffffffff16815260200190815260200160002060008373ffffffffffffffffffffffffffffffffffffffff1673ffffffffffffffffffffffffffffffffffffffff16815260200190815260200160002060009054906101000a900460ff1615151480156118f657508073ffffffffffffffffffffffffffffffffffffffff16601360009054906101000a900473ffffffffffffffffffffffffffffffffffffffff1673ffffffffffffffffffffffffffffffffffffffff1614155b6118ff57600080fd5b6001600e60003373ffffffffffffffffffffffffffffffffffffffff1673ffffffffffffffffffffffffffffffffffffffff16815260200190815260200160002060008373ffffffffffffffffffffffffffffffffffffffff1673ffffffffffffffffffffffffffffffffffffffff16815260200190815260200160002060006101000a81548160ff0219169083151502179055506001600f60008373ffffffffffffffffffffffffffffffffffffffff1673ffffffffffffffffffffffffffffffffffffffff16815260200190815260200160002060008282829054906101000a900461ffff166119f1919061339c565b92506101000a81548161ffff021916908361ffff1602179055506064600c54601580549050611a20919061345b565b611a2a919061342a565b600f60008373ffffffffffffffffffffffffffffffffffffffff1673ffffffffffffffffffffffffffffffffffffffff16815260200190815260200160002060009054906101000a900461ffff1661ffff161115611adb576000600d60008373ffffffffffffffffffffffffffffffffffffffff1673ffffffffffffffffffffffffffffffffffffffff16815260200190815260200160002060006101000a81548160ff0219169083151502179055505b50565b601460009054906101000a900473ffffffffffffffffffffffffffffffffffffffff1673ffffffffffffffffffffffffffffffffffffffff163373ffffffffffffffffffffffffffffffffffffffff16148015611b6e575060026005811115611b4a57611b496136d6565b5b600360149054906101000a900460ff166005811115611b6c57611b6b6136d6565b5b145b611b7757600080fd5b8015611c6057601654600a8190555060005b601980549050811015611c5e5760198181548110611baa57611ba9613705565b5b906000526020600020906006020160000160019054906101000a900460ff1615611c4b57600160198281548110611be457611be3613705565b5b906000526020600020906006020160000160006101000a81548160ff021916908315150217905550600060198281548110611c2257611c21613705565b5b906000526020600020906006020160000160016101000a81548160ff0219169083151502179055505b8080611c569061362f565b915050611b89565b505b611d13600260009054906101000a900473ffffffffffffffffffffffffffffffffffffffff1673ffffffffffffffffffffffffffffffffffffffff166370a08231306040518263ffffffff1660e01b8152600401611cbe9190613020565b60206040518083038186803b158015611cd657600080fd5b505afa158015611cea573d6000803e3d6000fd5b505050506040513d601f19601f82011682018060405250810190611d0e9190612da2565b6126df565b6001600360146101000a81548160ff02191690836005811115611d3957611d386136d6565b5b021790555050565b601260009054906101000a900473ffffffffffffffffffffffffffffffffffffffff1673ffffffffffffffffffffffffffffffffffffffff163373ffffffffffffffffffffffffffffffffffffffff1614611dd1576040517f08c379a0000000000000000000000000000000000000000000000000000000008152600401611dc890613206565b60405180910390fd5b600160198281548110611de757611de6613705565b5b906000526020600020906006020160000160006101000a81548160ff0219169083151502179055507f939da3b627c123c81fe5aacebf925163337a0d4f8a03724640618078cad248948160198381548110611e4557611e44613705565b5b906000526020600020906006020160010154604051611e659291906132e5565b60405180910390a1611e76816127b4565b50565b565b60085481565b601360009054906101000a900473ffffffffffffffffffffffffffffffffffffffff1681565b60186020528060005260406000206000915090508060000154908060010160009054906101000a900461ffff16905082565b6000805b601580549050811015611fc5576010600060158381548110611f0257611f01613705565b5b9060005260206000200160009054906101000a900473ffffffffffffffffffffffffffffffffffffffff1673ffffffffffffffffffffffffffffffffffffffff1673ffffffffffffffffffffffffffffffffffffffff16815260200190815260200160002060003373ffffffffffffffffffffffffffffffffffffffff1673ffffffffffffffffffffffffffffffffffffffff1681526020019081526020016000205482611fb091906133d4565b91508080611fbd9061362f565b915050611edd565b506064600b54601580549050611fdb919061345b565b611fe5919061342a565b8111156121e55733601360006101000a81548173ffffffffffffffffffffffffffffffffffffffff021916908373ffffffffffffffffffffffffffffffffffffffff16021790555060005b6015805490508110156121e3576000601060006015848154811061205757612056613705565b5b9060005260206000200160009054906101000a900473ffffffffffffffffffffffffffffffffffffffff1673ffffffffffffffffffffffffffffffffffffffff1673ffffffffffffffffffffffffffffffffffffffff16815260200190815260200160002060003373ffffffffffffffffffffffffffffffffffffffff1673ffffffffffffffffffffffffffffffffffffffff168152602001908152602001600020819055506000601160006015848154811061211757612116613705565b5b9060005260206000200160009054906101000a900473ffffffffffffffffffffffffffffffffffffffff1673ffffffffffffffffffffffffffffffffffffffff1673ffffffffffffffffffffffffffffffffffffffff16815260200190815260200160002060003373ffffffffffffffffffffffffffffffffffffffff1673ffffffffffffffffffffffffffffffffffffffff16815260200190815260200160002060006101000a81548160ff02191690831515021790555080806121db9061362f565b915050612030565b505b50565b601981815481106121f857600080fd5b90600052602060002090600602016000915090508060000160009054906101000a900460ff16908060000160019054906101000a900460ff16908060010154908060020154908060030154905085565b600c5481565b601360009054906101000a900473ffffffffffffffffffffffffffffffffffffffff1673ffffffffffffffffffffffffffffffffffffffff168173ffffffffffffffffffffffffffffffffffffffff1614156122a957600080fd5b601160003373ffffffffffffffffffffffffffffffffffffffff1673ffffffffffffffffffffffffffffffffffffffff16815260200190815260200160002060008273ffffffffffffffffffffffffffffffffffffffff1673ffffffffffffffffffffffffffffffffffffffff16815260200190815260200160002060009054906101000a900460ff161561233d57600080fd5b6001601060003373ffffffffffffffffffffffffffffffffffffffff1673ffffffffffffffffffffffffffffffffffffffff16815260200190815260200160002060008373ffffffffffffffffffffffffffffffffffffffff1673ffffffffffffffffffffffffffffffffffffffff16815260200190815260200160002060008282546123ca91906133d4565b925050819055506001601160003373ffffffffffffffffffffffffffffffffffffffff1673ffffffffffffffffffffffffffffffffffffffff16815260200190815260200160002060008373ffffffffffffffffffffffffffffffffffffffff1673ffffffffffffffffffffffffffffffffffffffff16815260200190815260200160002060006101000a81548160ff02191690831515021790555050565b601460009054906101000a900473ffffffffffffffffffffffffffffffffffffffff1681565b60055460045411156124ca5760038060146101000a81548160ff021916908360058111156124c0576124bf6136d6565b5b02179055506125a9565b6005600360146101000a81548160ff021916908360058111156124f0576124ef6136d6565b5b02179055506125a8600260009054906101000a900473ffffffffffffffffffffffffffffffffffffffff1673ffffffffffffffffffffffffffffffffffffffff166370a08231306040518263ffffffff1660e01b81526004016125539190613020565b60206040518083038186803b15801561256b57600080fd5b505afa15801561257f573d6000803e3d6000fd5b505050506040513d601f19601f820116820180604052508101906125a39190612da2565b6126df565b5b565b60008054906101000a900473ffffffffffffffffffffffffffffffffffffffff1673ffffffffffffffffffffffffffffffffffffffff163373ffffffffffffffffffffffffffffffffffffffff1614806126525750601360009054906101000a900473ffffffffffffffffffffffffffffffffffffffff1673ffffffffffffffffffffffffffffffffffffffff163373ffffffffffffffffffffffffffffffffffffffff16145b612691576040517f08c379a000000000000000000000000000000000000000000000000000000000815260040161268890613246565b60405180910390fd5b81600260006101000a81548173ffffffffffffffffffffffffffffffffffffffff021916908373ffffffffffffffffffffffffffffffffffffffff1602179055506126db81610ed9565b5050565b600260009054906101000a900473ffffffffffffffffffffffffffffffffffffffff1673ffffffffffffffffffffffffffffffffffffffff1663a9059cbb601260009054906101000a900473ffffffffffffffffffffffffffffffffffffffff16836040518363ffffffff1660e01b815260040161275e92919061307f565b602060405180830381600087803b15801561277857600080fd5b505af115801561278c573d6000803e3d6000fd5b505050506040513d601f19601f820116820180604052508101906127b09190612d1b565b5050565b601981815481106127c8576127c7613705565b5b906000526020600020906006020160000160009054906101000a900460ff166127f057600080fd5b60006127106103e86019848154811061280c5761280b613705565b5b906000526020600020906006020160010154612828919061345b565b612832919061342a565b9050600260009054906101000a900473ffffffffffffffffffffffffffffffffffffffff1673ffffffffffffffffffffffffffffffffffffffff1663a9059cbb60008054906101000a900473ffffffffffffffffffffffffffffffffffffffff16836040518363ffffffff1660e01b81526004016128b19291906130a8565b602060405180830381600087803b1580156128cb57600080fd5b505af11580156128df573d6000803e3d6000fd5b505050506040513d601f19601f820116820180604052508101906129039190612d1b565b505050565b828054828255906000526020600020908101928215612944579160200282015b82811115612943578251825591602001919060010190612928565b5b50905061295191906129df565b5090565b8280548282559060005260206000209081019282156129ce579160200282015b828111156129cd5782518260006101000a81548173ffffffffffffffffffffffffffffffffffffffff021916908373ffffffffffffffffffffffffffffffffffffffff16021790555091602001919060010190612975565b5b5090506129db91906129df565b5090565b5b808211156129f85760008160009055506001016129e0565b5090565b6000612a0f612a0a84613333565b61330e565b90508083825260208201905082856020860282011115612a3257612a31613768565b5b60005b85811015612a625781612a488882612adc565b845260208401935060208301925050600181019050612a35565b5050509392505050565b6000612a7f612a7a8461335f565b61330e565b90508083825260208201905082856020860282011115612aa257612aa1613768565b5b60005b85811015612ad25781612ab88882612ba1565b845260208401935060208301925050600181019050612aa5565b5050509392505050565b600081359050612aeb8161392a565b92915050565b600081359050612b0081613941565b92915050565b600082601f830112612b1b57612b1a613763565b5b8135612b2b8482602086016129fc565b91505092915050565b600082601f830112612b4957612b48613763565b5b8135612b59848260208601612a6c565b91505092915050565b600081359050612b7181613958565b92915050565b600081519050612b8681613958565b92915050565b600081359050612b9b8161396f565b92915050565b600081359050612bb081613986565b92915050565b600081519050612bc581613986565b92915050565b600060208284031215612be157612be0613772565b5b6000612bef84828501612adc565b91505092915050565b600060208284031215612c0e57612c0d613772565b5b6000612c1c84828501612af1565b91505092915050565b60008060408385031215612c3c57612c3b613772565b5b6000612c4a85828601612adc565b9250506020612c5b85828601612adc565b9150509250929050565b60008060408385031215612c7c57612c7b613772565b5b6000612c8a85828601612adc565b9250506020612c9b85828601612ba1565b9150509250929050565b600060208284031215612cbb57612cba613772565b5b600082013567ffffffffffffffff811115612cd957612cd861376d565b5b612ce584828501612b34565b91505092915050565b600060208284031215612d0457612d03613772565b5b6000612d1284828501612b62565b91505092915050565b600060208284031215612d3157612d30613772565b5b6000612d3f84828501612b77565b91505092915050565b600060208284031215612d5e57612d5d613772565b5b6000612d6c84828501612b8c565b91505092915050565b600060208284031215612d8b57612d8a613772565b5b6000612d9984828501612ba1565b91505092915050565b600060208284031215612db857612db7613772565b5b6000612dc684828501612bb6565b91505092915050565b600080600060608486031215612de857612de7613772565b5b6000612df686828701612ba1565b935050602084013567ffffffffffffffff811115612e1757612e1661376d565b5b612e2386828701612b06565b925050604084013567ffffffffffffffff811115612e4457612e4361376d565b5b612e5086828701612b34565b9150509250925092565b60008060408385031215612e7157612e70613772565b5b6000612e7f85828601612ba1565b9250506020612e9085828601612ba1565b9150509250929050565b612ea38161356e565b82525050565b612eb2816134fb565b82525050565b612ec1816134e9565b82525050565b612ed08161350d565b82525050565b612edf81613519565b82525050565b612eee81613580565b82525050565b612efd81613592565b82525050565b612f0c816135a4565b82525050565b612f1b816135b6565b82525050565b612f2a816135c8565b82525050565b6000612f3d60178361338b565b9150612f4882613788565b602082019050919050565b6000612f6060358361338b565b9150612f6b826137b1565b604082019050919050565b6000612f8360278361338b565b9150612f8e82613800565b604082019050919050565b6000612fa660368361338b565b9150612fb18261384f565b604082019050919050565b6000612fc960188361338b565b9150612fd48261389e565b602082019050919050565b6000612fec60298361338b565b9150612ff7826138c7565b604082019050919050565b61300b81613536565b82525050565b61301a81613564565b82525050565b60006020820190506130356000830184612eb8565b92915050565b60006020820190506130506000830184612ea9565b92915050565b600060408201905061306b6000830185612ea9565b6130786020830184613011565b9392505050565b60006040820190506130946000830185612e9a565b6130a16020830184613011565b9392505050565b60006040820190506130bd6000830185612eb8565b6130ca6020830184613011565b9392505050565b60006020820190506130e66000830184612ec7565b92915050565b600060a0820190506131016000830188612ec7565b61310e6020830187612ec7565b61311b6040830186613011565b6131286060830185612ed6565b6131356080830184613011565b9695505050505050565b60006020820190506131546000830184612ee5565b92915050565b600060208201905061316f6000830184612ef4565b92915050565b600060208201905061318a6000830184612f03565b92915050565b60006020820190506131a56000830184612f12565b92915050565b60006020820190506131c06000830184612f21565b92915050565b600060208201905081810360008301526131df81612f30565b9050919050565b600060208201905081810360008301526131ff81612f53565b9050919050565b6000602082019050818103600083015261321f81612f76565b9050919050565b6000602082019050818103600083015261323f81612f99565b9050919050565b6000602082019050818103600083015261325f81612fbc565b9050919050565b6000602082019050818103600083015261327f81612fdf565b9050919050565b600060208201905061329b6000830184613002565b92915050565b60006020820190506132b66000830184613011565b92915050565b60006040820190506132d16000830185613011565b6132de6020830184613002565b9392505050565b60006040820190506132fa6000830185613011565b6133076020830184613011565b9392505050565b6000613318613329565b905061332482826135fe565b919050565b6000604051905090565b600067ffffffffffffffff82111561334e5761334d613734565b5b602082029050602081019050919050565b600067ffffffffffffffff82111561337a57613379613734565b5b602082029050602081019050919050565b600082825260208201905092915050565b60006133a782613536565b91506133b283613536565b92508261ffff038211156133c9576133c8613678565b5b828201905092915050565b60006133df82613564565b91506133ea83613564565b9250827fffffffffffffffffffffffffffffffffffffffffffffffffffffffffffffffff0382111561341f5761341e613678565b5b828201905092915050565b600061343582613564565b915061344083613564565b9250826134505761344f6136a7565b5b828204905092915050565b600061346682613564565b915061347183613564565b9250817fffffffffffffffffffffffffffffffffffffffffffffffffffffffffffffffff04831182151516156134aa576134a9613678565b5b828202905092915050565b60006134c082613564565b91506134cb83613564565b9250828210156134de576134dd613678565b5b828203905092915050565b60006134f482613544565b9050919050565b600061350682613544565b9050919050565b60008115159050919050565b6000819050919050565b600081905061353182613916565b919050565b600061ffff82169050919050565b600073ffffffffffffffffffffffffffffffffffffffff82169050919050565b6000819050919050565b6000613579826135da565b9050919050565b600061358b826135da565b9050919050565b600061359d826135da565b9050919050565b60006135af826135da565b9050919050565b60006135c1826135da565b9050919050565b60006135d382613523565b9050919050565b60006135e5826135ec565b9050919050565b60006135f782613544565b9050919050565b61360782613777565b810181811067ffffffffffffffff8211171561362657613625613734565b5b80604052505050565b600061363a82613564565b91507fffffffffffffffffffffffffffffffffffffffffffffffffffffffffffffffff82141561366d5761366c613678565b5b600182019050919050565b7f4e487b7100000000000000000000000000000000000000000000000000000000600052601160045260246000fd5b7f4e487b7100000000000000000000000000000000000000000000000000000000600052601260045260246000fd5b7f4e487b7100000000000000000000000000000000000000000000000000000000600052602160045260246000fd5b7f4e487b7100000000000000000000000000000000000000000000000000000000600052603260045260246000fd5b7f4e487b7100000000000000000000000000000000000000000000000000000000600052604160045260246000fd5b600080fd5b600080fd5b600080fd5b600080fd5b6000601f19601f8301169050919050565b7f566f74696e67206973207374696c6c206f6e676f696e67000000000000000000600082015250565b7f50726576696f757320546f6b656e206e6565647320746f206265206465706c6560008201527f746564206265666f726520746865206368616e67650000000000000000000000602082015250565b7f4f6e6c792074686520636c69656e742063616e20617070726f76652061206d6960008201527f6c6573746f6e6500000000000000000000000000000000000000000000000000602082015250565b7f4f6e6c792074686520736f757263696e67206c6561642063616e20726571756560008201527f7374207061796d656e742066726f6d20636c69656e7400000000000000000000602082015250565b7f736f75726365206f7220736f757263696e67204c656164210000000000000000600082015250565b7f4f6e6c792074686520736f757263696e67206c6561642063616e20616464206d60008201527f696c6573746f6e65730000000000000000000000000000000000000000000000602082015250565b60068110613927576139266136d6565b5b50565b613933816134e9565b811461393e57600080fd5b50565b61394a816134fb565b811461395557600080fd5b50565b6139618161350d565b811461396c57600080fd5b50565b61397881613519565b811461398357600080fd5b50565b61398f81613564565b811461399a57600080fd5b5056fea26469706673582212205646cdd17e27f9652eef8d7cd41552777521d7cd0177ad91f88a73a81d515e7764736f6c63430008070033",
  "linkReferences": {},
  "deployedLinkReferences": {}
}