{
  "_format": "hh-sol-artifact-1",
  "contractName": "Voting",
  "sourceName": "contracts/Voting/Voting.sol",
  "abi": [
    {
      "inputs": [
        {
          "internalType": "address",
          "name": "",
          "type": "address"
        },
        {
          "internalType": "uint256",
          "name": "",
          "type": "uint256"
        },
        {
          "internalType": "address",
          "name": "",
          "type": "address"
        }
      ],
      "name": "alreadyVoted",
      "outputs": [
        {
          "internalType": "bool",
          "name": "",
          "type": "bool"
        }
      ],
      "stateMutability": "view",
      "type": "function"
    },
    {
      "inputs": [
        {
          "internalType": "uint256",
          "name": "poll_id",
          "type": "uint256"
        }
      ],
      "name": "getStatus",
      "outputs": [
        {
          "internalType": "uint8",
          "name": "",
          "type": "uint8"
        }
      ],
      "stateMutability": "view",
      "type": "function"
    },
    {
      "inputs": [
        {
          "internalType": "uint256",
          "name": "poll_id",
          "type": "uint256"
        }
      ],
      "name": "getStatusAndWinner",
      "outputs": [
        {
          "internalType": "uint8",
          "name": "",
          "type": "uint8"
        },
        {
          "internalType": "address",
          "name": "",
          "type": "address"
        }
      ],
      "stateMutability": "view",
      "type": "function"
    },
    {
      "inputs": [
        {
          "internalType": "uint256",
          "name": "poll_id",
          "type": "uint256"
        }
      ],
      "name": "getWinner",
      "outputs": [
        {
          "internalType": "address",
          "name": "",
          "type": "address"
        }
      ],
      "stateMutability": "view",
      "type": "function"
    },
    {
      "inputs": [
        {
          "internalType": "uint256",
          "name": "poll_id",
          "type": "uint256"
        },
        {
          "internalType": "address",
          "name": "votedOn",
          "type": "address"
        }
      ],
      "name": "queryVotes",
      "outputs": [
        {
          "internalType": "uint256",
          "name": "",
          "type": "uint256"
        }
      ],
      "stateMutability": "view",
      "type": "function"
    },
    {
      "inputs": [
        {
          "internalType": "uint256",
          "name": "poll_id",
          "type": "uint256"
        },
        {
          "internalType": "address",
          "name": "votedBy",
          "type": "address"
        },
        {
          "internalType": "address",
          "name": "votedOn",
          "type": "address"
        },
        {
          "internalType": "uint128",
          "name": "amount",
          "type": "uint128"
        }
      ],
      "name": "safeVote",
      "outputs": [],
      "stateMutability": "nonpayable",
      "type": "function"
    },
    {
      "inputs": [
        {
          "internalType": "uint256",
          "name": "poll_id",
          "type": "uint256"
        },
        {
          "internalType": "address",
          "name": "votedBy",
          "type": "address"
        },
        {
          "internalType": "address",
          "name": "votedOn",
          "type": "address"
        },
        {
          "internalType": "uint128",
          "name": "amount",
          "type": "uint128"
        }
      ],
      "name": "safeVoteReturnStatus",
      "outputs": [
        {
          "internalType": "uint8",
          "name": "",
          "type": "uint8"
        }
      ],
      "stateMutability": "nonpayable",
      "type": "function"
    },
    {
      "inputs": [
        {
          "internalType": "uint8",
          "name": "_votingType",
          "type": "uint8"
        },
        {
          "internalType": "uint40",
          "name": "_deadline",
          "type": "uint40"
        },
        {
          "internalType": "uint120",
          "name": "_threshold",
          "type": "uint120"
        },
        {
          "internalType": "uint120",
          "name": "_totalAmount",
          "type": "uint120"
        }
      ],
      "name": "start",
      "outputs": [
        {
          "internalType": "uint256",
          "name": "",
          "type": "uint256"
        }
      ],
      "stateMutability": "nonpayable",
      "type": "function"
    },
    {
      "inputs": [
        {
          "internalType": "uint256",
          "name": "poll_id",
          "type": "uint256"
        }
      ],
      "name": "stop",
      "outputs": [],
      "stateMutability": "nonpayable",
      "type": "function"
    },
    {
      "inputs": [
        {
          "internalType": "uint256",
          "name": "poll_id",
          "type": "uint256"
        },
        {
          "internalType": "address",
          "name": "votedBy",
          "type": "address"
        },
        {
          "internalType": "address",
          "name": "votedOn",
          "type": "address"
        },
        {
          "internalType": "uint256",
          "name": "amount",
          "type": "uint256"
        }
      ],
      "name": "vote",
      "outputs": [],
      "stateMutability": "nonpayable",
      "type": "function"
    },
    {
      "inputs": [
        {
          "internalType": "address",
          "name": "",
          "type": "address"
        },
        {
          "internalType": "uint256",
          "name": "",
          "type": "uint256"
        },
        {
          "internalType": "address",
          "name": "",
          "type": "address"
        }
      ],
      "name": "votes",
      "outputs": [
        {
          "internalType": "uint256",
          "name": "",
          "type": "uint256"
        }
      ],
      "stateMutability": "view",
      "type": "function"
    }
  ],
  "bytecode": "0x60806040526103e860005534801561001657600080fd5b50611e43806100266000396000f3fe608060405234801561001057600080fd5b50600436106100a95760003560e01c80637a73a349116100715780637a73a3491461018b5780637b6e5f9c146101bb578063901d40e7146101eb578063b6d8a18514610207578063b6e0787a14610223578063e31f7b2814610253576100a9565b806308a1db85146100ae5780634129b2c9146100df5780634a9a90471461010f5780635c622a0e1461013f5780636299f8cf1461016f575b600080fd5b6100c860048036038101906100c39190611828565b610283565b6040516100d6929190611af8565b60405180910390f35b6100f960048036038101906100f49190611828565b610376565b6040516101069190611a4c565b60405180910390f35b610129600480360381019061012491906117d5565b6103f3565b6040516101369190611ac2565b60405180910390f35b61015960048036038101906101549190611828565b610425565b6040516101669190611add565b60405180910390f35b61018960048036038101906101849190611828565b6104a1565b005b6101a560048036038101906101a091906117d5565b610520565b6040516101b29190611a67565b60405180910390f35b6101d560048036038101906101d09190611963565b61055c565b6040516101e29190611ac2565b60405180910390f35b61020560048036038101906102009190611895565b610882565b005b610221600480360381019061021c91906118fc565b610b01565b005b61023d60048036038101906102389190611855565b610c97565b60405161024a9190611ac2565b60405180910390f35b61026d60048036038101906102689190611895565b610d2f565b60405161027a9190611add565b60405180910390f35b600080600160003373ffffffffffffffffffffffffffffffffffffffff1673ffffffffffffffffffffffffffffffffffffffff168152602001908152602001600020600084815260200190815260200160002060000160019054906101000a900460ff1660038111156102f9576102f8611cfd565b5b600160003373ffffffffffffffffffffffffffffffffffffffff1673ffffffffffffffffffffffffffffffffffffffff168152602001908152602001600020600085815260200190815260200160002060020160009054906101000a900473ffffffffffffffffffffffffffffffffffffffff1691509150915091565b6000600160003373ffffffffffffffffffffffffffffffffffffffff1673ffffffffffffffffffffffffffffffffffffffff168152602001908152602001600020600083815260200190815260200160002060020160009054906101000a900473ffffffffffffffffffffffffffffffffffffffff169050919050565b600360205282600052604060002060205281600052604060002060205280600052604060002060009250925050505481565b6000600160003373ffffffffffffffffffffffffffffffffffffffff1673ffffffffffffffffffffffffffffffffffffffff168152602001908152602001600020600083815260200190815260200160002060000160019054906101000a900460ff16600381111561049a57610499611cfd565b5b9050919050565b6003600160003373ffffffffffffffffffffffffffffffffffffffff1673ffffffffffffffffffffffffffffffffffffffff168152602001908152602001600020600083815260200190815260200160002060000160016101000a81548160ff0219169083600381111561051857610517611cfd565b5b021790555050565b6004602052826000526040600020602052816000526040600020602052806000526040600020600092509250509054906101000a900460ff1681565b60006001600260003373ffffffffffffffffffffffffffffffffffffffff1673ffffffffffffffffffffffffffffffffffffffff16815260200190815260200160002060008282546105ae9190611b32565b925050819055506040518060c001604052808660ff1660048111156105d6576105d5611cfd565b5b60048111156105e8576105e7611cfd565b5b81526020016001600381111561060157610600611cfd565b5b81526020018564ffffffffff168152602001846effffffffffffffffffffffffffffff168152602001836effffffffffffffffffffffffffffff168152602001600073ffffffffffffffffffffffffffffffffffffffff16815250600160003373ffffffffffffffffffffffffffffffffffffffff1673ffffffffffffffffffffffffffffffffffffffff1681526020019081526020016000206000600260003373ffffffffffffffffffffffffffffffffffffffff1673ffffffffffffffffffffffffffffffffffffffff16815260200190815260200160002054815260200190815260200160002060008201518160000160006101000a81548160ff0219169083600481111561071657610715611cfd565b5b021790555060208201518160000160016101000a81548160ff0219169083600381111561074657610745611cfd565b5b021790555060408201518160000160026101000a81548164ffffffffff021916908364ffffffffff16021790555060608201518160000160076101000a8154816effffffffffffffffffffffffffffff02191690836effffffffffffffffffffffffffffff16021790555060808201518160010160006101000a8154816effffffffffffffffffffffffffffff02191690836effffffffffffffffffffffffffffff16021790555060a08201518160020160006101000a81548173ffffffffffffffffffffffffffffffffffffffff021916908373ffffffffffffffffffffffffffffffffffffffff160217905550905050600260003373ffffffffffffffffffffffffffffffffffffffff1673ffffffffffffffffffffffffffffffffffffffff168152602001908152602001600020549050949350505050565b8383600460003373ffffffffffffffffffffffffffffffffffffffff1673ffffffffffffffffffffffffffffffffffffffff168152602001908152602001600020600083815260200190815260200160002060008273ffffffffffffffffffffffffffffffffffffffff1673ffffffffffffffffffffffffffffffffffffffff16815260200190815260200160002060009054906101000a900460ff161561095f576040517f08c379a000000000000000000000000000000000000000000000000000000000815260040161095690611aa2565b60405180910390fd5b8585856001600381111561097657610975611cfd565b5b600160003373ffffffffffffffffffffffffffffffffffffffff1673ffffffffffffffffffffffffffffffffffffffff168152602001908152602001600020600085815260200190815260200160002060000160019054906101000a900460ff1660038111156109e9576109e8611cfd565b5b14610a29576040517f08c379a0000000000000000000000000000000000000000000000000000000008152600401610a2090611a82565b60405180910390fd5b610a468988886fffffffffffffffffffffffffffffffff16610dba565b6001600460003373ffffffffffffffffffffffffffffffffffffffff1673ffffffffffffffffffffffffffffffffffffffff16815260200190815260200160002060008b815260200190815260200160002060008a73ffffffffffffffffffffffffffffffffffffffff1673ffffffffffffffffffffffffffffffffffffffff16815260200190815260200160002060006101000a81548160ff021916908315150217905550610af68382610e63565b505050505050505050565b8383600460003373ffffffffffffffffffffffffffffffffffffffff1673ffffffffffffffffffffffffffffffffffffffff168152602001908152602001600020600083815260200190815260200160002060008273ffffffffffffffffffffffffffffffffffffffff1673ffffffffffffffffffffffffffffffffffffffff16815260200190815260200160002060009054906101000a900460ff1615610bde576040517f08c379a0000000000000000000000000000000000000000000000000000000008152600401610bd590611aa2565b60405180910390fd5b610be9868585610dba565b6001600460003373ffffffffffffffffffffffffffffffffffffffff1673ffffffffffffffffffffffffffffffffffffffff168152602001908152602001600020600088815260200190815260200160002060008773ffffffffffffffffffffffffffffffffffffffff1673ffffffffffffffffffffffffffffffffffffffff16815260200190815260200160002060006101000a81548160ff021916908315150217905550505050505050565b6000600360003373ffffffffffffffffffffffffffffffffffffffff1673ffffffffffffffffffffffffffffffffffffffff168152602001908152602001600020600084815260200190815260200160002060008373ffffffffffffffffffffffffffffffffffffffff1673ffffffffffffffffffffffffffffffffffffffff16815260200190815260200160002054905092915050565b6000610d3d85858585610882565b600160003373ffffffffffffffffffffffffffffffffffffffff1673ffffffffffffffffffffffffffffffffffffffff168152602001908152602001600020600086815260200190815260200160002060000160019054906101000a900460ff166003811115610db057610daf611cfd565b5b9050949350505050565b80600360003373ffffffffffffffffffffffffffffffffffffffff1673ffffffffffffffffffffffffffffffffffffffff168152602001908152602001600020600085815260200190815260200160002060008473ffffffffffffffffffffffffffffffffffffffff1673ffffffffffffffffffffffffffffffffffffffff1681526020019081526020016000206000828254610e579190611b32565b92505081905550505050565b6000600360003373ffffffffffffffffffffffffffffffffffffffff1673ffffffffffffffffffffffffffffffffffffffff168152602001908152602001600020600084815260200190815260200160002060008373ffffffffffffffffffffffffffffffffffffffff1673ffffffffffffffffffffffffffffffffffffffff1681526020019081526020016000205490506000600160003373ffffffffffffffffffffffffffffffffffffffff1673ffffffffffffffffffffffffffffffffffffffff168152602001908152602001600020600085815260200190815260200160002060000160009054906101000a900460ff16905060006004811115610f6e57610f6d611cfd565b5b816004811115610f8157610f80611cfd565b5b141561108f57600160003373ffffffffffffffffffffffffffffffffffffffff1673ffffffffffffffffffffffffffffffffffffffff168152602001908152602001600020600085815260200190815260200160002060000160079054906101000a90046effffffffffffffffffffffffffffff166effffffffffffffffffffffffffffff16821061108a576002600160003373ffffffffffffffffffffffffffffffffffffffff1673ffffffffffffffffffffffffffffffffffffffff168152602001908152602001600020600086815260200190815260200160002060000160016101000a81548160ff0219169083600381111561108457611083611cfd565b5b02179055505b611751565b600160048111156110a3576110a2611cfd565b5b8160048111156110b6576110b5611cfd565b5b141561124a57600054600160003373ffffffffffffffffffffffffffffffffffffffff1673ffffffffffffffffffffffffffffffffffffffff168152602001908152602001600020600086815260200190815260200160002060010160009054906101000a90046effffffffffffffffffffffffffffff16600160003373ffffffffffffffffffffffffffffffffffffffff1673ffffffffffffffffffffffffffffffffffffffff168152602001908152602001600020600087815260200190815260200160002060000160079054906101000a90046effffffffffffffffffffffffffffff166111a79190611bb9565b6effffffffffffffffffffffffffffff166111c29190611b88565b8210611245576002600160003373ffffffffffffffffffffffffffffffffffffffff1673ffffffffffffffffffffffffffffffffffffffff168152602001908152602001600020600086815260200190815260200160002060000160016101000a81548160ff0219169083600381111561123f5761123e611cfd565b5b02179055505b611750565b6002600481111561125e5761125d611cfd565b5b81600481111561127157611270611cfd565b5b141561136b57600160003373ffffffffffffffffffffffffffffffffffffffff1673ffffffffffffffffffffffffffffffffffffffff168152602001908152602001600020600085815260200190815260200160002060000160029054906101000a900464ffffffffff1664ffffffffff164210611366576002600160003373ffffffffffffffffffffffffffffffffffffffff1673ffffffffffffffffffffffffffffffffffffffff168152602001908152602001600020600086815260200190815260200160002060000160016101000a81548160ff021916908360038111156113605761135f611cfd565b5b02179055505b61174f565b60048081111561137e5761137d611cfd565b5b81600481111561139157611390611cfd565b5b141561159e57600160003373ffffffffffffffffffffffffffffffffffffffff1673ffffffffffffffffffffffffffffffffffffffff168152602001908152602001600020600085815260200190815260200160002060000160029054906101000a900464ffffffffff1664ffffffffff1642101580156115175750600054600160003373ffffffffffffffffffffffffffffffffffffffff1673ffffffffffffffffffffffffffffffffffffffff168152602001908152602001600020600086815260200190815260200160002060010160009054906101000a90046effffffffffffffffffffffffffffff16600160003373ffffffffffffffffffffffffffffffffffffffff1673ffffffffffffffffffffffffffffffffffffffff168152602001908152602001600020600087815260200190815260200160002060000160079054906101000a90046effffffffffffffffffffffffffffff166114f89190611bb9565b6effffffffffffffffffffffffffffff166115139190611b88565b8210155b15611599576002600160003373ffffffffffffffffffffffffffffffffffffffff1673ffffffffffffffffffffffffffffffffffffffff168152602001908152602001600020600086815260200190815260200160002060000160016101000a81548160ff0219169083600381111561159357611592611cfd565b5b02179055505b61174e565b600360048111156115b2576115b1611cfd565b5b8160048111156115c5576115c4611cfd565b5b141561174c57600160003373ffffffffffffffffffffffffffffffffffffffff1673ffffffffffffffffffffffffffffffffffffffff168152602001908152602001600020600085815260200190815260200160002060000160029054906101000a900464ffffffffff1664ffffffffff1642101580156116c55750600160003373ffffffffffffffffffffffffffffffffffffffff1673ffffffffffffffffffffffffffffffffffffffff168152602001908152602001600020600085815260200190815260200160002060000160079054906101000a90046effffffffffffffffffffffffffffff166effffffffffffffffffffffffffffff168210155b15611747576002600160003373ffffffffffffffffffffffffffffffffffffffff1673ffffffffffffffffffffffffffffffffffffffff168152602001908152602001600020600086815260200190815260200160002060000160016101000a81548160ff0219169083600381111561174157611740611cfd565b5b02179055505b61174d565b5b5b5b5b5b50505050565b60008135905061176681611d83565b92915050565b60008135905061177b81611d9a565b92915050565b60008135905061179081611db1565b92915050565b6000813590506117a581611dc8565b92915050565b6000813590506117ba81611ddf565b92915050565b6000813590506117cf81611df6565b92915050565b6000806000606084860312156117ee576117ed611d2c565b5b60006117fc86828701611757565b935050602061180d86828701611796565b925050604061181e86828701611757565b9150509250925092565b60006020828403121561183e5761183d611d2c565b5b600061184c84828501611796565b91505092915050565b6000806040838503121561186c5761186b611d2c565b5b600061187a85828601611796565b925050602061188b85828601611757565b9150509250929050565b600080600080608085870312156118af576118ae611d2c565b5b60006118bd87828801611796565b94505060206118ce87828801611757565b93505060406118df87828801611757565b92505060606118f087828801611781565b91505092959194509250565b6000806000806080858703121561191657611915611d2c565b5b600061192487828801611796565b945050602061193587828801611757565b935050604061194687828801611757565b925050606061195787828801611796565b91505092959194509250565b6000806000806080858703121561197d5761197c611d2c565b5b600061198b878288016117c0565b945050602061199c878288016117ab565b93505060406119ad8782880161176c565b92505060606119be8782880161176c565b91505092959194509250565b6119d381611c02565b82525050565b6119e281611c14565b82525050565b60006119f5601283611b21565b9150611a0082611d31565b602082019050919050565b6000611a18600e83611b21565b9150611a2382611d5a565b602082019050919050565b611a3781611c77565b82525050565b611a4681611c92565b82525050565b6000602082019050611a6160008301846119ca565b92915050565b6000602082019050611a7c60008301846119d9565b92915050565b60006020820190508181036000830152611a9b816119e8565b9050919050565b60006020820190508181036000830152611abb81611a0b565b9050919050565b6000602082019050611ad76000830184611a2e565b92915050565b6000602082019050611af26000830184611a3d565b92915050565b6000604082019050611b0d6000830185611a3d565b611b1a60208301846119ca565b9392505050565b600082825260208201905092915050565b6000611b3d82611c77565b9150611b4883611c77565b9250827fffffffffffffffffffffffffffffffffffffffffffffffffffffffffffffffff03821115611b7d57611b7c611c9f565b5b828201905092915050565b6000611b9382611c77565b9150611b9e83611c77565b925082611bae57611bad611cce565b5b828204905092915050565b6000611bc482611c20565b9150611bcf83611c20565b9250816effffffffffffffffffffffffffffff0483118215151615611bf757611bf6611c9f565b5b828202905092915050565b6000611c0d82611c57565b9050919050565b60008115159050919050565b60006effffffffffffffffffffffffffffff82169050919050565b60006fffffffffffffffffffffffffffffffff82169050919050565b600073ffffffffffffffffffffffffffffffffffffffff82169050919050565b6000819050919050565b600064ffffffffff82169050919050565b600060ff82169050919050565b7f4e487b7100000000000000000000000000000000000000000000000000000000600052601160045260246000fd5b7f4e487b7100000000000000000000000000000000000000000000000000000000600052601260045260246000fd5b7f4e487b7100000000000000000000000000000000000000000000000000000000600052602160045260246000fd5b600080fd5b7f566f74696e67206e6f7420616374697665210000000000000000000000000000600082015250565b7f416c726561647920766f74656421000000000000000000000000000000000000600082015250565b611d8c81611c02565b8114611d9757600080fd5b50565b611da381611c20565b8114611dae57600080fd5b50565b611dba81611c3b565b8114611dc557600080fd5b50565b611dd181611c77565b8114611ddc57600080fd5b50565b611de881611c81565b8114611df357600080fd5b50565b611dff81611c92565b8114611e0a57600080fd5b5056fea264697066735822122045d7f5dfdb1bf9016b9e1007855aa8a4d4025c7248145e9f9a7b9eb40378c35d64736f6c63430008070033",
  "linkReferences": {},
  "deployedLinkReferences": {}
}