{
  "_format": "hh-sol-artifact-1",
  "contractName": "Voting",
  "sourceName": "contracts/Voting/Voting.sol",
  "abi": [
    {
      "inputs": [
        {
          "internalType": "address",
          "name": "",
          "type": "address"
        },
        {
          "internalType": "uint256",
          "name": "",
          "type": "uint256"
        },
        {
          "internalType": "address",
          "name": "",
          "type": "address"
        }
      ],
      "name": "alreadyVoted",
      "outputs": [
        {
          "internalType": "bool",
          "name": "",
          "type": "bool"
        }
      ],
      "stateMutability": "view",
      "type": "function"
    },
    {
      "inputs": [
        {
          "internalType": "uint256",
          "name": "poll_id",
          "type": "uint256"
        }
      ],
      "name": "getStatus",
      "outputs": [
        {
          "internalType": "uint8",
          "name": "",
          "type": "uint8"
        }
      ],
      "stateMutability": "view",
      "type": "function"
    },
    {
      "inputs": [
        {
          "internalType": "uint256",
          "name": "poll_id",
          "type": "uint256"
        }
      ],
      "name": "getStatusAndWinner",
      "outputs": [
        {
          "internalType": "uint8",
          "name": "",
          "type": "uint8"
        },
        {
          "internalType": "address",
          "name": "",
          "type": "address"
        }
      ],
      "stateMutability": "view",
      "type": "function"
    },
    {
      "inputs": [
        {
          "internalType": "uint256",
          "name": "poll_id",
          "type": "uint256"
        }
      ],
      "name": "getWinner",
      "outputs": [
        {
          "internalType": "address",
          "name": "",
          "type": "address"
        }
      ],
      "stateMutability": "view",
      "type": "function"
    },
    {
      "inputs": [
        {
          "internalType": "uint256",
          "name": "poll_id",
          "type": "uint256"
        },
        {
          "internalType": "address",
          "name": "votedOn",
          "type": "address"
        }
      ],
      "name": "queryVotes",
      "outputs": [
        {
          "internalType": "uint256",
          "name": "",
          "type": "uint256"
        }
      ],
      "stateMutability": "view",
      "type": "function"
    },
    {
      "inputs": [
        {
          "internalType": "uint256",
          "name": "poll_id",
          "type": "uint256"
        },
        {
          "internalType": "address",
          "name": "votedBy",
          "type": "address"
        },
        {
          "internalType": "address",
          "name": "votedOn",
          "type": "address"
        },
        {
          "internalType": "uint128",
          "name": "amount",
          "type": "uint128"
        }
      ],
      "name": "safeVote",
      "outputs": [],
      "stateMutability": "nonpayable",
      "type": "function"
    },
    {
      "inputs": [
        {
          "internalType": "uint256",
          "name": "poll_id",
          "type": "uint256"
        },
        {
          "internalType": "address",
          "name": "votedBy",
          "type": "address"
        },
        {
          "internalType": "address",
          "name": "votedOn",
          "type": "address"
        },
        {
          "internalType": "uint128",
          "name": "amount",
          "type": "uint128"
        }
      ],
      "name": "safeVoteReturnStatus",
      "outputs": [
        {
          "internalType": "uint8",
          "name": "",
          "type": "uint8"
        }
      ],
      "stateMutability": "nonpayable",
      "type": "function"
    },
    {
      "inputs": [
        {
          "internalType": "uint8",
          "name": "_votingType",
          "type": "uint8"
        },
        {
          "internalType": "uint40",
          "name": "_deadline",
          "type": "uint40"
        },
        {
          "internalType": "uint120",
          "name": "_threshold",
          "type": "uint120"
        },
        {
          "internalType": "uint120",
          "name": "_totalAmount",
          "type": "uint120"
        }
      ],
      "name": "start",
      "outputs": [
        {
          "internalType": "uint256",
          "name": "",
          "type": "uint256"
        }
      ],
      "stateMutability": "nonpayable",
      "type": "function"
    },
    {
      "inputs": [
        {
          "internalType": "uint256",
          "name": "poll_id",
          "type": "uint256"
        }
      ],
      "name": "stop",
      "outputs": [],
      "stateMutability": "nonpayable",
      "type": "function"
    },
    {
      "inputs": [
        {
          "internalType": "uint256",
          "name": "poll_id",
          "type": "uint256"
        },
        {
          "internalType": "address",
          "name": "votedBy",
          "type": "address"
        },
        {
          "internalType": "address",
          "name": "votedOn",
          "type": "address"
        },
        {
          "internalType": "uint256",
          "name": "amount",
          "type": "uint256"
        }
      ],
      "name": "vote",
      "outputs": [],
      "stateMutability": "nonpayable",
      "type": "function"
    },
    {
      "inputs": [
        {
          "internalType": "address",
          "name": "",
          "type": "address"
        },
        {
          "internalType": "uint256",
          "name": "",
          "type": "uint256"
        },
        {
          "internalType": "address",
          "name": "",
          "type": "address"
        }
      ],
      "name": "votes",
      "outputs": [
        {
          "internalType": "uint256",
          "name": "",
          "type": "uint256"
        }
      ],
      "stateMutability": "view",
      "type": "function"
    }
  ],
  "bytecode": "0x60806040526103e860005534801561001657600080fd5b50611f72806100266000396000f3fe608060405234801561001057600080fd5b50600436106100a95760003560e01c80637a73a349116100715780637a73a3491461018b5780637b6e5f9c146101bb578063901d40e7146101eb578063b6d8a18514610207578063b6e0787a14610223578063e31f7b2814610253576100a9565b806308a1db85146100ae5780634129b2c9146100df5780634a9a90471461010f5780635c622a0e1461013f5780636299f8cf1461016f575b600080fd5b6100c860048036038101906100c39190611957565b610283565b6040516100d6929190611c27565b60405180910390f35b6100f960048036038101906100f49190611957565b610376565b6040516101069190611b7b565b60405180910390f35b61012960048036038101906101249190611904565b6103f3565b6040516101369190611bf1565b60405180910390f35b61015960048036038101906101549190611957565b610425565b6040516101669190611c0c565b60405180910390f35b61018960048036038101906101849190611957565b6104a1565b005b6101a560048036038101906101a09190611904565b610520565b6040516101b29190611b96565b60405180910390f35b6101d560048036038101906101d09190611a92565b61055c565b6040516101e29190611bf1565b60405180910390f35b610205600480360381019061020091906119c4565b610882565b005b610221600480360381019061021c9190611a2b565b610b01565b005b61023d60048036038101906102389190611984565b610c97565b60405161024a9190611bf1565b60405180910390f35b61026d600480360381019061026891906119c4565b610d2f565b60405161027a9190611c0c565b60405180910390f35b600080600160003373ffffffffffffffffffffffffffffffffffffffff1673ffffffffffffffffffffffffffffffffffffffff168152602001908152602001600020600084815260200190815260200160002060000160019054906101000a900460ff1660038111156102f9576102f8611e2c565b5b600160003373ffffffffffffffffffffffffffffffffffffffff1673ffffffffffffffffffffffffffffffffffffffff168152602001908152602001600020600085815260200190815260200160002060020160009054906101000a900473ffffffffffffffffffffffffffffffffffffffff1691509150915091565b6000600160003373ffffffffffffffffffffffffffffffffffffffff1673ffffffffffffffffffffffffffffffffffffffff168152602001908152602001600020600083815260200190815260200160002060020160009054906101000a900473ffffffffffffffffffffffffffffffffffffffff169050919050565b600360205282600052604060002060205281600052604060002060205280600052604060002060009250925050505481565b6000600160003373ffffffffffffffffffffffffffffffffffffffff1673ffffffffffffffffffffffffffffffffffffffff168152602001908152602001600020600083815260200190815260200160002060000160019054906101000a900460ff16600381111561049a57610499611e2c565b5b9050919050565b6003600160003373ffffffffffffffffffffffffffffffffffffffff1673ffffffffffffffffffffffffffffffffffffffff168152602001908152602001600020600083815260200190815260200160002060000160016101000a81548160ff0219169083600381111561051857610517611e2c565b5b021790555050565b6004602052826000526040600020602052816000526040600020602052806000526040600020600092509250509054906101000a900460ff1681565b60006001600260003373ffffffffffffffffffffffffffffffffffffffff1673ffffffffffffffffffffffffffffffffffffffff16815260200190815260200160002060008282546105ae9190611c61565b925050819055506040518060c001604052808660ff1660048111156105d6576105d5611e2c565b5b60048111156105e8576105e7611e2c565b5b81526020016001600381111561060157610600611e2c565b5b81526020018564ffffffffff168152602001846effffffffffffffffffffffffffffff168152602001836effffffffffffffffffffffffffffff168152602001600073ffffffffffffffffffffffffffffffffffffffff16815250600160003373ffffffffffffffffffffffffffffffffffffffff1673ffffffffffffffffffffffffffffffffffffffff1681526020019081526020016000206000600260003373ffffffffffffffffffffffffffffffffffffffff1673ffffffffffffffffffffffffffffffffffffffff16815260200190815260200160002054815260200190815260200160002060008201518160000160006101000a81548160ff0219169083600481111561071657610715611e2c565b5b021790555060208201518160000160016101000a81548160ff0219169083600381111561074657610745611e2c565b5b021790555060408201518160000160026101000a81548164ffffffffff021916908364ffffffffff16021790555060608201518160000160076101000a8154816effffffffffffffffffffffffffffff02191690836effffffffffffffffffffffffffffff16021790555060808201518160010160006101000a8154816effffffffffffffffffffffffffffff02191690836effffffffffffffffffffffffffffff16021790555060a08201518160020160006101000a81548173ffffffffffffffffffffffffffffffffffffffff021916908373ffffffffffffffffffffffffffffffffffffffff160217905550905050600260003373ffffffffffffffffffffffffffffffffffffffff1673ffffffffffffffffffffffffffffffffffffffff168152602001908152602001600020549050949350505050565b8383600460003373ffffffffffffffffffffffffffffffffffffffff1673ffffffffffffffffffffffffffffffffffffffff168152602001908152602001600020600083815260200190815260200160002060008273ffffffffffffffffffffffffffffffffffffffff1673ffffffffffffffffffffffffffffffffffffffff16815260200190815260200160002060009054906101000a900460ff161561095f576040517f08c379a000000000000000000000000000000000000000000000000000000000815260040161095690611bd1565b60405180910390fd5b8585856001600381111561097657610975611e2c565b5b600160003373ffffffffffffffffffffffffffffffffffffffff1673ffffffffffffffffffffffffffffffffffffffff168152602001908152602001600020600085815260200190815260200160002060000160019054906101000a900460ff1660038111156109e9576109e8611e2c565b5b14610a29576040517f08c379a0000000000000000000000000000000000000000000000000000000008152600401610a2090611bb1565b60405180910390fd5b610a468988886fffffffffffffffffffffffffffffffff16610dba565b6001600460003373ffffffffffffffffffffffffffffffffffffffff1673ffffffffffffffffffffffffffffffffffffffff16815260200190815260200160002060008b815260200190815260200160002060008a73ffffffffffffffffffffffffffffffffffffffff1673ffffffffffffffffffffffffffffffffffffffff16815260200190815260200160002060006101000a81548160ff021916908315150217905550610af68382610e63565b505050505050505050565b8383600460003373ffffffffffffffffffffffffffffffffffffffff1673ffffffffffffffffffffffffffffffffffffffff168152602001908152602001600020600083815260200190815260200160002060008273ffffffffffffffffffffffffffffffffffffffff1673ffffffffffffffffffffffffffffffffffffffff16815260200190815260200160002060009054906101000a900460ff1615610bde576040517f08c379a0000000000000000000000000000000000000000000000000000000008152600401610bd590611bd1565b60405180910390fd5b610be9868585610dba565b6001600460003373ffffffffffffffffffffffffffffffffffffffff1673ffffffffffffffffffffffffffffffffffffffff168152602001908152602001600020600088815260200190815260200160002060008773ffffffffffffffffffffffffffffffffffffffff1673ffffffffffffffffffffffffffffffffffffffff16815260200190815260200160002060006101000a81548160ff021916908315150217905550505050505050565b6000600360003373ffffffffffffffffffffffffffffffffffffffff1673ffffffffffffffffffffffffffffffffffffffff168152602001908152602001600020600084815260200190815260200160002060008373ffffffffffffffffffffffffffffffffffffffff1673ffffffffffffffffffffffffffffffffffffffff16815260200190815260200160002054905092915050565b6000610d3d85858585610882565b600160003373ffffffffffffffffffffffffffffffffffffffff1673ffffffffffffffffffffffffffffffffffffffff168152602001908152602001600020600086815260200190815260200160002060000160019054906101000a900460ff166003811115610db057610daf611e2c565b5b9050949350505050565b80600360003373ffffffffffffffffffffffffffffffffffffffff1673ffffffffffffffffffffffffffffffffffffffff168152602001908152602001600020600085815260200190815260200160002060008473ffffffffffffffffffffffffffffffffffffffff1673ffffffffffffffffffffffffffffffffffffffff1681526020019081526020016000206000828254610e579190611c61565b92505081905550505050565b6000600360003373ffffffffffffffffffffffffffffffffffffffff1673ffffffffffffffffffffffffffffffffffffffff168152602001908152602001600020600084815260200190815260200160002060008373ffffffffffffffffffffffffffffffffffffffff1673ffffffffffffffffffffffffffffffffffffffff1681526020019081526020016000205490506000600160003373ffffffffffffffffffffffffffffffffffffffff1673ffffffffffffffffffffffffffffffffffffffff168152602001908152602001600020600085815260200190815260200160002060000160009054906101000a900460ff16905060006004811115610f6e57610f6d611e2c565b5b816004811115610f8157610f80611e2c565b5b141561108f57600160003373ffffffffffffffffffffffffffffffffffffffff1673ffffffffffffffffffffffffffffffffffffffff168152602001908152602001600020600085815260200190815260200160002060000160079054906101000a90046effffffffffffffffffffffffffffff166effffffffffffffffffffffffffffff16821061108a576002600160003373ffffffffffffffffffffffffffffffffffffffff1673ffffffffffffffffffffffffffffffffffffffff168152602001908152602001600020600086815260200190815260200160002060000160016101000a81548160ff0219169083600381111561108457611083611e2c565b5b02179055505b611880565b600160048111156110a3576110a2611e2c565b5b8160048111156110b6576110b5611e2c565b5b141561124a57600054600160003373ffffffffffffffffffffffffffffffffffffffff1673ffffffffffffffffffffffffffffffffffffffff168152602001908152602001600020600086815260200190815260200160002060010160009054906101000a90046effffffffffffffffffffffffffffff16600160003373ffffffffffffffffffffffffffffffffffffffff1673ffffffffffffffffffffffffffffffffffffffff168152602001908152602001600020600087815260200190815260200160002060000160079054906101000a90046effffffffffffffffffffffffffffff166111a79190611ce8565b6effffffffffffffffffffffffffffff166111c29190611cb7565b8210611245576002600160003373ffffffffffffffffffffffffffffffffffffffff1673ffffffffffffffffffffffffffffffffffffffff168152602001908152602001600020600086815260200190815260200160002060000160016101000a81548160ff0219169083600381111561123f5761123e611e2c565b5b02179055505b61187f565b6002600481111561125e5761125d611e2c565b5b81600481111561127157611270611e2c565b5b141561136b57600160003373ffffffffffffffffffffffffffffffffffffffff1673ffffffffffffffffffffffffffffffffffffffff168152602001908152602001600020600085815260200190815260200160002060000160029054906101000a900464ffffffffff1664ffffffffff164210611366576002600160003373ffffffffffffffffffffffffffffffffffffffff1673ffffffffffffffffffffffffffffffffffffffff168152602001908152602001600020600086815260200190815260200160002060000160016101000a81548160ff021916908360038111156113605761135f611e2c565b5b02179055505b61187e565b60048081111561137e5761137d611e2c565b5b81600481111561139157611390611e2c565b5b1415611635576000600160003373ffffffffffffffffffffffffffffffffffffffff1673ffffffffffffffffffffffffffffffffffffffff168152602001908152602001600020600086815260200190815260200160002060000160029054906101000a900464ffffffffff1664ffffffffff164211905060008054600160003373ffffffffffffffffffffffffffffffffffffffff1673ffffffffffffffffffffffffffffffffffffffff168152602001908152602001600020600088815260200190815260200160002060010160009054906101000a90046effffffffffffffffffffffffffffff16600160003373ffffffffffffffffffffffffffffffffffffffff1673ffffffffffffffffffffffffffffffffffffffff168152602001908152602001600020600089815260200190815260200160002060000160079054906101000a90046effffffffffffffffffffffffffffff166114f59190611ce8565b6effffffffffffffffffffffffffffff166115109190611cb7565b8410905081801561151e5750805b156115a0576003600160003373ffffffffffffffffffffffffffffffffffffffff1673ffffffffffffffffffffffffffffffffffffffff168152602001908152602001600020600088815260200190815260200160002060000160016101000a81548160ff0219169083600381111561159a57611599611e2c565b5b02179055505b811580156115ac575080155b1561162e576002600160003373ffffffffffffffffffffffffffffffffffffffff1673ffffffffffffffffffffffffffffffffffffffff168152602001908152602001600020600088815260200190815260200160002060000160016101000a81548160ff0219169083600381111561162857611627611e2c565b5b02179055505b505061187d565b6003600481111561164957611648611e2c565b5b81600481111561165c5761165b611e2c565b5b141561187b576000600160003373ffffffffffffffffffffffffffffffffffffffff1673ffffffffffffffffffffffffffffffffffffffff168152602001908152602001600020600086815260200190815260200160002060000160029054906101000a900464ffffffffff1664ffffffffff16421190506000600160003373ffffffffffffffffffffffffffffffffffffffff1673ffffffffffffffffffffffffffffffffffffffff168152602001908152602001600020600087815260200190815260200160002060000160079054906101000a90046effffffffffffffffffffffffffffff166effffffffffffffffffffffffffffff16841090508180156117645750805b156117e6576003600160003373ffffffffffffffffffffffffffffffffffffffff1673ffffffffffffffffffffffffffffffffffffffff168152602001908152602001600020600088815260200190815260200160002060000160016101000a81548160ff021916908360038111156117e0576117df611e2c565b5b02179055505b811580156117f2575080155b15611874576002600160003373ffffffffffffffffffffffffffffffffffffffff1673ffffffffffffffffffffffffffffffffffffffff168152602001908152602001600020600088815260200190815260200160002060000160016101000a81548160ff0219169083600381111561186e5761186d611e2c565b5b02179055505b505061187c565b5b5b5b5b5b50505050565b60008135905061189581611eb2565b92915050565b6000813590506118aa81611ec9565b92915050565b6000813590506118bf81611ee0565b92915050565b6000813590506118d481611ef7565b92915050565b6000813590506118e981611f0e565b92915050565b6000813590506118fe81611f25565b92915050565b60008060006060848603121561191d5761191c611e5b565b5b600061192b86828701611886565b935050602061193c868287016118c5565b925050604061194d86828701611886565b9150509250925092565b60006020828403121561196d5761196c611e5b565b5b600061197b848285016118c5565b91505092915050565b6000806040838503121561199b5761199a611e5b565b5b60006119a9858286016118c5565b92505060206119ba85828601611886565b9150509250929050565b600080600080608085870312156119de576119dd611e5b565b5b60006119ec878288016118c5565b94505060206119fd87828801611886565b9350506040611a0e87828801611886565b9250506060611a1f878288016118b0565b91505092959194509250565b60008060008060808587031215611a4557611a44611e5b565b5b6000611a53878288016118c5565b9450506020611a6487828801611886565b9350506040611a7587828801611886565b9250506060611a86878288016118c5565b91505092959194509250565b60008060008060808587031215611aac57611aab611e5b565b5b6000611aba878288016118ef565b9450506020611acb878288016118da565b9350506040611adc8782880161189b565b9250506060611aed8782880161189b565b91505092959194509250565b611b0281611d31565b82525050565b611b1181611d43565b82525050565b6000611b24601283611c50565b9150611b2f82611e60565b602082019050919050565b6000611b47600e83611c50565b9150611b5282611e89565b602082019050919050565b611b6681611da6565b82525050565b611b7581611dc1565b82525050565b6000602082019050611b906000830184611af9565b92915050565b6000602082019050611bab6000830184611b08565b92915050565b60006020820190508181036000830152611bca81611b17565b9050919050565b60006020820190508181036000830152611bea81611b3a565b9050919050565b6000602082019050611c066000830184611b5d565b92915050565b6000602082019050611c216000830184611b6c565b92915050565b6000604082019050611c3c6000830185611b6c565b611c496020830184611af9565b9392505050565b600082825260208201905092915050565b6000611c6c82611da6565b9150611c7783611da6565b9250827fffffffffffffffffffffffffffffffffffffffffffffffffffffffffffffffff03821115611cac57611cab611dce565b5b828201905092915050565b6000611cc282611da6565b9150611ccd83611da6565b925082611cdd57611cdc611dfd565b5b828204905092915050565b6000611cf382611d4f565b9150611cfe83611d4f565b9250816effffffffffffffffffffffffffffff0483118215151615611d2657611d25611dce565b5b828202905092915050565b6000611d3c82611d86565b9050919050565b60008115159050919050565b60006effffffffffffffffffffffffffffff82169050919050565b60006fffffffffffffffffffffffffffffffff82169050919050565b600073ffffffffffffffffffffffffffffffffffffffff82169050919050565b6000819050919050565b600064ffffffffff82169050919050565b600060ff82169050919050565b7f4e487b7100000000000000000000000000000000000000000000000000000000600052601160045260246000fd5b7f4e487b7100000000000000000000000000000000000000000000000000000000600052601260045260246000fd5b7f4e487b7100000000000000000000000000000000000000000000000000000000600052602160045260246000fd5b600080fd5b7f566f74696e67206e6f7420616374697665210000000000000000000000000000600082015250565b7f416c726561647920766f74656421000000000000000000000000000000000000600082015250565b611ebb81611d31565b8114611ec657600080fd5b50565b611ed281611d4f565b8114611edd57600080fd5b50565b611ee981611d6a565b8114611ef457600080fd5b50565b611f0081611da6565b8114611f0b57600080fd5b50565b611f1781611db0565b8114611f2257600080fd5b50565b611f2e81611dc1565b8114611f3957600080fd5b5056fea2646970667358221220303fdb6a132337f7db477f645dea7dc9dfa5173f63df103876e61035f4af139564736f6c63430008070033",
  "linkReferences": {},
  "deployedLinkReferences": {}
}